:100000000C947E160C94AF160C94AF160C94AF168D
:100010000C94AF160C94AF160C94AF160C94AF164C
:100020000C94AF160C94AF160C94AF160C94AF163C
:100030000C94AF160C94AF160C94AF160C94AF162C
:100040000C94AF160C9409E10C94AF160C94AF16F7
:100050000C94AF160C94AF160C9477AC0C9487C725
:100060000C94AF160C9450D50C94AF160C94AF169C
:100070000C94AF160C94AF160C94AF160C94AF16EC
:100080000C94AF160C94AF160C94AF160C94AF16DC
:100090000C94AF160C94AF160C94AF160C94AF16CC
:1000A0000C94AF160C94AF160C94AF160C94AF16BC
:1000B0000C94AF160C94AF160C94AF160C94AF16AC
:1000C0000C94AF160C94AF160C94AF160C94AF169C
:1000D0000C94AF160C94AF160C94AF160C94AF168C
:1000E0000C94AF164A82308233823682398245823E
:1000F0003C8256823F82428204C607C6F6C5FAC5D4
:1001000000C63EC60BC60FC615C619C61DC623C6F9
:1001100027C62BC63EC631C635C639C6A3C6A8C635
:10012000ADC6B7C6C1C63AC7CBC6D3C6DBC6E5C6E1
:10013000EFC6F9C608C712C73AC71CC726C730C7DB
:10014000084AD73B3BCE016E84BCBFFDC12F3D6C3E
:1001500074319ABD56833DDA3D00C77F11BED9E4A4
:10016000BB4C3E916BAAAABE000000803F05A84C84
:10017000CDB2D44EB93836A9020C50B99186880850
:100180003CA6AAAA2ABE000000803F004E414E496C
:100190004E495459494E46CDCCCC3D0AD7233C1745
:1001A000B7D13877CC2B329595E6241FB14F0A0092
:1001B0000020410000C84200401C4620BCBE4CCA82
:1001C0001B0E5AAEC59D74434F4D4D554E4943418C
:1001D00054494F4E0044525952554E004552524FC9
:1001E000525300494E464F004543484F0047322F77
:1001F00047332062616420706172616D657465725D
:10020000730A00536C6565702E2E2E00436C696373
:100210006B20746F20726573756D652E2E2E004EE7
:100220006F206D6F76652E00456E642066696C6583
:10023000206C6973740A00426567696E2066696C98
:1002400065206C6973740A00286E6F2066696C659E
:1002500029005344207072696E74696E6720627958
:10026000746520004E6F74205344207072696E7460
:10027000696E670A0043757272656E742066696CF8
:10028000653A200046696C652064656C6574656438
:100290003A0044656C6574696F6E206661696C65CF
:1002A000642C2046696C653A200025697300256935
:1002B0006D20256973002569682025696D202569F1
:1002C0007300256964202569682025696D202569EA
:1002D00073002569792025696420256968202569CE
:1002E0006D20256973005072696E742074696D65A4
:1002F0003A2000E801E301DC01D501C7016F666621
:100300000044454255473A004B494C4C45442E2049
:10031000004D3131332053006F6B00524631303085
:10032000204F66662E002C20002C20005448455299
:100330004D414C5F50524F54454354494F4E00413C
:1003400055544F5245504F52545F53445F5354419C
:1003500054555300454D455247454E43595F504112
:100360005253455200434153455F4C494748545FFF
:100370004252494748544E45535300544F47474C07
:10038000455F4C494748545300534F4654574152D8
:10039000455F504F574552004255494C445F5045C8
:1003A0005243454E54004C4556454C494E475F44D8
:1003B000415441005A5F50524F4245004155544FFD
:1003C0004C4556454C005052494E545F4A4F4200EE
:1003D00050524F4752455353004155544F52455088
:1003E0004F52545F54454D5000564F4C554D455457
:1003F00052494300454550524F4D005345524941E3
:100400004C5F584F4E5F584F4646004649524D5735
:100410004152455F4E414D453A4D61726C696E20C7
:10042000312E312E3920284769746875622920538E
:100430004F555243455F434F44455F55524C3A68D0
:10044000747470733A2F2F6769746875622E636FC6
:100450006D2F4D61726C696E4669726D7761726560
:100460002F4D61726C696E2050524F544F434F4C68
:100470005F56455253494F4E3A312E30204D41433D
:1004800048494E455F545950453A52463130302024
:1004900045585452554445525F434F554E543A3196
:1004A00020555549443A63656465326132662D349E
:1004B0003161322D343734382D396231322D633584
:1004C000356336326633363766660A002F2F2000D2
:1004D0004D31343520533C696E6465783E206F752C
:1004E00074206F662072616E67652028302D312977
:1004F0000A00205400205200416363656C657261FC
:1005000074696F6E3A2050004F666673657473208D
:100510006170706C696564004572723A20546F6F47
:10052000206661722100546F6F20666172206672CE
:100530006F6D207265666572656E636520706F69A8
:100540006E740A00205A00205900580020204D6186
:10055000783A2000205A00205900580020204D6988
:100560006E3A20004F6E20004F666600536F66742F
:1005700020656E6473746F70733A200020466C6F50
:10058000773A2000000136372603FFFFFF353C3D58
:1005900038FF0FFFFF312E303E12FFFFFFFF28FF15
:1005A0000C08FFFFFFFF1A1C18FFFF2A08440A0966
:1005B0004320643A0020693A0020703A00496E7680
:1005C000616C69642065787472756465720A0043B1
:1005D000290A0061626C656420286D696E2074656B
:1005E0006D702000436F6C6420657874727564656B
:1005F000732061726520004E6F2063617365206C0B
:10060000696768740A00426564204C6576656C69A8
:100610006E6720004661696C656420746F20656EAA
:1006200061626C6520426564204C6576656C696E1C
:10063000670A00426564204C6576656C20436F72E2
:1006400072656374696F6E204D61747269783A00E7
:10065000454550524F4D204F4B0A003F4B2076618D
:100660006C7565206F7574206F662072616E6765AA
:100670002028302D3130292E0A00416476616E63C6
:1006800065204B3D0041637469766520457874723E
:10069000756465723A2000496E76616C6964206504
:1006A000787472756465720A0024F4D43050C38E75
:1006B00020C2A24017828B7011127A910D816CD9E1
:1006C0000AA861E108C7586607615143061E4B5DE1
:1006D00005C145A7041A411104093D980371393138
:1006E000034036DB0265339102D4305402802E1D64
:1006F00002632CEE01752AC501B028A001102781E4
:10070000018F2564012B244B01E0223401AC211F11
:10071000018D200D01801FFC00841EED00971DDF60
:1007200000B81CD200E61BC600201BBC00641AB235
:1007300000B219A8000A19A0006A189900D11791EF
:100740000040178B00B516840031167E00B3157972
:10075000003A157300C7146F0058146A00EE136650
:10076000008813630025135E00C7125B006C1257EC
:100770000015125400C111510070114F0021114B8E
:1007800000D61049008D1047004610440002104268
:1007900000C00F4000800F3E00420F3C00060F3BA0
:1007A00000CB0E3800930E37005C0E3500270E3458
:1007B00000F30D3200C10D3100900D3000600D2EA0
:1007C00000320D2D00050D2C00D90C2B00AE0C298C
:1007D00000850C29005C0C2700350C27000E0C2628
:1007E00000E80B2400C40B2400A00B23007D0B2386
:1007F000005A0B2100390B2100180B2000F80A1FAA
:1008000000D90A1E00BB0A1E009D0A1D00800A1D99
:1008100000630A1C00470A1B002C0A1B00110A1A5D
:1008200000F7091A00DD091900C4091900AB0919FC
:1008300000920917007B091800630917004C09167C
:100840000036091600200916000A091500F50815DA
:1008500000E0081400CC081400B8081400A4081420
:1008600000900813007D0812006B0813005808124E
:100870000046081200340811002308110012081164
:100880000001081100F0071000E0071000D0071069
:1008900000C0071000B0070F00A107100091070E5D
:1008A0000083070F0074070F0065070E0057070E3F
:1008B0000049070E003B070D002E070E0020070D14
:1008C0000013070D0006070D00F9060C00ED060DDC
:1008D00000E0060C00D4060C00C8060C00BC060C98
:1008E00000B0060C00A4060B0099060C008D060B48
:1008F0000082060B0077060B006C060B0061060AEF
:100900000057060B004C060A0042060A0038060A89
:10091000002E060A0024060A001A060A001006091C
:100920000007060A00FD050900F4050900EB0509AA
:1009300000E2050900D9050900D0050900C705092D
:1009400000BE050900B5050800AD050800A50509AC
:10095000009C050800940508008C05080084050823
:10096000007C050800740508006C05070065050893
:10097000005D050700560508004E050700470507FE
:10098000004005080038050700310507002A050763
:1009900000230507001C050600160507000F0507C4
:1009A000000805060002050700FB040600F5040721
:1009B00000EE040600E8040600E2040700DB04067B
:1009C00000D5040600CF040600C9040600C30406CF
:1009D00000BD040600B7040600B1040500AC04061F
:1009E00000A6040600A00405009B0406009504056B
:1009F00000900406008A04050085040500800406B2
:100A0000007A04050075040500700405006B0405F8
:100A10000066040500610405005C04050057040538
:100A200000520405004D0405004804050043040578
:100A3000003E0404003A04050035040500300404B7
:100A4000002C04050027040400230405001E0404F0
:100A5000001A04040016040500110404000D040427
:100A600000090405000404040000040400FC03045D
:100A700000F8030400F4030400F0030400EC030492
:100A800000E8030400E4030400E0030400DC0304C2
:100A900000D8030400D4030400D0030400CC0304F2
:100AA00000C8030300C503030024F404D9201BC4B9
:100AB0000C5C0E9804C4095F0265077101F405F926
:100AC00000FB04B30048048700C1036900580355C4
:100AD0000003034500BE023A008402310053022A9B
:100AE000002902250004022000E4011C00C80119AD
:100AF00000AF011700980114008401130071011068
:100B0000006101100051010E0043010D0036010B80
:100B1000002B010B0020010B00150109000C01093D
:100B20000003010800FB000800F3000800EB0007C9
:100B300000E4000600DE000600D8000600D2000631
:100B400000CC000500C7000500C2000500BD000480
:100B500000B9000400B5000400B1000400AD0004B9
:100B600000A9000400A5000300A20003009F0004E8
:100B7000009B00030098000300950002009300030F
:100B800000900003008D0002008B0003008800022B
:100B9000008600020084000300810002007F000242
:100BA000007D0002007B0002007900020077000156
:100BB0000076000200740002007200010071000261
:100BC000006F0002006D0001006C0002006A00016D
:100BD0000069000200670001006600010065000175
:100BE0000064000200620001006100010060000179
:100BF000005F0002005D0001005C0001005B00017D
:100C0000005A00010059000100580001005700017E
:100C1000005600010055000100540001005300007F
:100C2000005300010052000100510001005000017A
:100C3000004F0001004E0000004E0001004D000179
:100C4000004C0001004B0000004B0001004A000175
:100C50000049000100480000004800010047000171
:100C6000004600000046000100450000004500016C
:100C70000044000100430000004300010042000066
:100C8000004200010041000000410001004000015D
:100C9000003F0000003F0001003E0000003E000158
:100CA000003D0000003D0001003C0000003C000051
:100CB000003C0001003B0000003B0001003A000046
:100CC000003A00010039000000390001003800003E
:100CD0000038000000380001003700000037000134
:100CE000003600000036000000360001003500002C
:100CF0000035000000350001003400000034000021
:100D00000034000100330000003300000033000114
:100D1000003200000032000000320001003100000B
:100D20000031000000310001003000000030000000
:100D300000300001002F0000002F0000002F0000F5
:100D4000002F0001002E0000002E0000002E0001E8
:100D5000002D0000002D0000002D0000002D0001DE
:100D6000002C0000002C0000002C0000002C0001D2
:100D7000002B0000002B0000002B0000002B0001C6
:100D8000002A0000002A0000002A0000002A0001BA
:100D900000290000002900000029000000290000AF
:100DA00000290001002800000028000000280000A1
:100DB0000028000000280001002700000027000094
:100DC0000027000000270000002700010026000087
:100DD000002600000026000000260000002600017A
:100DE000002500000025000000250000002500006F
:100DF0000025000000250001002400000024000060
:100E00000024000000240000002400010023000052
:100E10000023000000230000002300000023000046
:100E20000023000000230001002200000022000037
:100E30000022000000220000002200000022000129
:100E4000002100000021000000210000002100001E
:100E5000002100000021000000210001002000000E
:100E60000020000000200000002000000020000002
:100E7000002000000020000000200001001F0000F2
:100E8000001F0000001F0000001F0000001F0000E6
:100E9000001F0000001F0001001E0000001E0000D7
:100EA000001E0000001E000000232C0000B82200DD
:100EB00000561800003A0F0000B8080000B1040006
:100EC00000710200003E0100004572726F722077CF
:100ED000726974696E6720746F20454550524F4D9A
:100EE000210A00454550524F4D2064617461736979
:100EF0007A65206572726F722E0A00290A002062DC
:100F0000797465733B206372632000536574746960
:100F10006E67732053746F726564202800290A007D
:100F20002062797465733B206372632000207374C0
:100F30006F7265642073657474696E67732072657F
:100F400074726965766564202800202863616C638B
:100F5000756C6174656429210A0020213D200045DB
:100F60004550524F4D20435243206D69736D61745B
:100F70006368202D202873746F7265642920002017
:100F800053697A653A2000496E6465783A200020FA
:100F90004D61726C696E3D563535290A002845450C
:100FA00050524F4D3D00454550524F4D2076657291
:100FB00073696F6E206D69736D61746368200025BD
:100FC000753A2530327500253032753A2530327544
:100FD000002D2D2D00534400202020202020002013
:100FE0002020200052463130302052656164792E35
:100FF000005072696E74696E672E2E2E00507269F1
:101000006E7420706175736564005072696E74202F
:1010100061626F72746564004E6F20534420636197
:101020007264005072696E742066726F6D20534452
:101030000053746F70207072696E7400526573751E
:101040006D65207072696E740041626F7574205016
:1010500072696E7465720050617573652070726993
:101060006E7400436F6E74726F6C005072657061C5
:1010700072650054756E6500496E666F2073637209
:1010800065656E004368616E67652066696C616DB9
:10109000656E74004368616E67652066696C616D9A
:1010A000656E74004D36303020423000466C6F77EC
:1010B00000466C6F77004E6F7A7A6C65004E6F7ADF
:1010C0007A6C6500537065656400537065656400F3
:1010D0004D61696E007C3C3E5E2B3D3F2F5B5D3B6E
:1010E0002C2A225C0020746F6F206C6F6E67206565
:1010F0007874727573696F6E2070726576656E7440
:1011000065640A0020636F6C64206578747275737F
:10111000696F6E2070726576656E7465640A00484A
:101120006F6D696E67206661696C6564000A0A42CA
:101130006564204C6576656C20436F7272656374DC
:10114000696F6E204D61747269783A00332D706F4B
:10115000696E742070726F62696E6720646F6E656D
:101160002E0A00206F662000706F696E742000697F
:10117000646C650A004D616E75616C2047323920E0
:10118000004D616E75616C204732392061626F726B
:101190007465640A00202844525952554E2900476C
:1011A0003239204175746F20426564204C65766544
:1011B0006C696E67003F2856296572626F736520FF
:1011C0006C6576656C20697320696D706C617573F0
:1011D00069626C652028302D34292E0A0050726F08
:1011E0007465637465642050696E0A0020573A0084
:1011F0004520436F6F6C696E672E2E2E0045204888
:10120000656174696E672E2E2E00205A3A002059AF
:101210003A0020436F756E7420583A0020453A001A
:10122000205A3A0020593A00583A0000002200257E
:101230000028002B002E00310034000201000005C0
:101240000108010B01000020002300260029002CCA
:10125000002F003200000100000301060109010512
:10126000050505070508080808020202020A0A081F
:101270000804040404010101010101010103030345
:101280000303030303040707070C0C0C0C0C0C0CE2
:101290000C0202020206060606060606060B0B0BE9
:1012A0000B0B0B0B0B010210202008081020401024
:1012B000204080020102010804020101020408101A
:1012C0002040808040201008040201800402018038
:1012D0004020100804020108040201010204081061
:1012E000204080010204081020408000000A0B0208
:1012F000090C0D0E080703040100000000000000A7
:1013000000000000000000000000000000000000DD
:10131000000000000000001211100000000000009A
:1013200000000000000000000000000000000000BD
:101330000000000000010204040000001C1C0C045A
:101340000404020100000000000408100000000076
:10135000002D2D2D2D2D2D007C4D61726C696E7C24
:10136000002D2D2D2D2D2D00687474703A2F2F6DAA
:1013700061726C696E66772E6F7267006874747044
:101380003A2F2F6D61726C696E66772E6F726700EF
:1013900020312E312E39002020506C616E6E657226
:1013A00042756666657242797465733A200020461C
:1013B000726565204D656D6F72793A2000436F6DDF
:1013C00070696C65643A204F63742033302032308A
:1013D00031390A00207C20417574686F723A2028E8
:1013E0006E6F6E652C2064656661756C7420636F2A
:1013F0006E666967290A00323031382D30382D3059
:101400003100204C61737420557064617465643AD6
:101410002000312E312E390A004D61726C696E0048
:1014200020536F6674776172652052657365740A24
:1014300000205761746368646F6720526573657438
:101440000A002042726F776E206F757420526573A8
:1014500065740A002045787465726E616C2052656F
:101460007365740A00506F77657255700A00737463
:101470006172740A006175746F25692E6700657268
:10148000726F722077726974696E6720746F20665C
:10149000696C650A00456E6473746F707320256310
:1014A00020256320256320256300205A3A00205917
:1014B0003A0020583A00656E6473746F7073206848
:1014C00069743A2000446F6E6520736176696E67B7
:1014D0002066696C652E0A004D32390043617264E2
:1014E0002072656D6F766564004361726420696E79
:1014F00073657274656400556E6B6E6F776E2063F2
:101500006F6D6D616E643A202200486F74656E6481
:1015100020746F6F20636F6C640A00486F6D6520E4
:1015200025732573257320666972737400206669BC
:101530007273740A005A0059005800486F6D652094
:10154000004D3234004D3233202573005344206364
:10155000617264206F6B0A006F70656E526F6F74FA
:10156000206661696C65640A00766F6C756D652E26
:10157000696E6974206661696C65640A0053442071
:10158000696E6974206661696C0A005772697469D2
:101590006E6720746F2066696C653A20006F706515
:1015A0006E206661696C65642C2046696C653A2022
:1015B000006F70656E206661696C65642C204669F9
:1015C0006C653A200046696C652073656C656374D0
:1015D00065640A002053697A653A200046696C65A3
:1015E000206F70656E65643A20002066696C653A0C
:1015F0002000646F696E67006672657368004E6FE5
:10160000772000454E4420535542524F5554494E81
:10161000450A002220706F73002220706172656E8F
:10162000743A2200535542524F5554494E45204377
:10163000414C4C207461726765743A22004B494CEE
:101640004C45442E2000747279696E6720746F20B7
:1016500063616C6C207375622D67636F64652066CF
:10166000696C6573207769746820746F6F206D6191
:101670006E79206C6576656C732E204D4158206C18
:101680006576656C2069733A004572726F723A0034
:101690004D6F76696E672E2E2E004C6576656C69EF
:1016A0006E6720446F6E6521004C6576656C696ECF
:1016B0006720446F6E6521004D6F7665205A0047A4
:1016C0003239205631004E65787420506F696E743F
:1016D000002569202F20257500473239205631001A
:1016E000436C69636B20746F20426567696E0048C4
:1016F0006F6D696E672058595A004732380053742D
:101700006F72652073657474696E6773004C6F61E6
:10171000642073657474696E6773004F6666004F6A
:101720006E2000426564204C6576656C696E6700CA
:101730004C6576656C2062656400507265706172FC
:1017400065004D3432380050726568656174205010
:101750004C4100436F6F6C646F776E005072656828
:1017600065617420414253004368616E676520667D
:10177000696C616D656E74004368616E67652066B3
:10178000696C616D656E74004D36303020423000FA
:1017900044697361626C65207374657070657273FF
:1017A000004D38340053657420686F6D65206F6696
:1017B000667365747300426564204C6576656C6978
:1017C0006E67004175746F20686F6D650047323831
:1017D000004D6F76652061786973004D61696E0018
:1017E0004D6F76652058004D6F76652059004D6F1E
:1017F0007665205A004578747275646572004D6F85
:10180000766520302E316D6D004D6F766520316D1F
:101810006D004D6F76652031306D6D004D6F7665D2
:101820002061786973004578747275646572004D43
:101830006F7665205A004D6F76652059004D6F76A2
:10184000652058004D61782054656D703A2032371C
:1018500035004D696E2054656D703A203500543066
:101860003A204550434F53203130304B00505355B0
:101870003A2047656E657269630050726F746F63DA
:101880006F6C3A20312E3000426175643A2031315C
:10189000353230300052414D505320312E34003318
:1018A0002D506F696E74204C6576656C696E6700AB
:1018B0004578747275646572733A20310068747487
:1018C000703A2F2F6D61726C696E66772E6F72673A
:1018D00000524631303000323031382D30382D3022
:1018E0003100312E312E39004D61726C696E005419
:1018F0006865726D6973746F727300426F617264B0
:1019000020496E666F005072696E74657220496E70
:10191000666F004D61696E004D373032205425648A
:10192000004D36303020423020542564004D373091
:1019300032203B2564004D3730312054256400436C
:1019400068616E67652066696C616D656E740050D4
:101950007265686561742041425300507265686524
:10196000617420504C41004368616E676520666970
:101970006C616D656E74005052494E542050415553
:1019800053454400554E4C4F41442046494C414D2F
:10199000454E54004C4F41442046494C414D454E24
:1019A00054005075726765206D6F726500436F6EED
:1019B00074696E756500524553554D45204F50541E
:1019C000494F4E533A0020204E6F7A7A6C653A2088
:1019D000006368616E6765006F66207468652066E5
:1019E000696C616D656E74005761697420666F7211
:1019F0002073746172740020204E6F7A7A6C653A9D
:101A0000200066696C616D656E7420756E6C6F6127
:101A100064005761697420666F720020204E6F7AEF
:101A20007A6C653A2000506C656173652077616956
:101A3000742E2E2E0048656174696E67206E6F7A71
:101A40007A6C650020204E6F7A7A6C653A200068C7
:101A5000656174206E6F7A7A6C652E0050726573C2
:101A60007320627574746F6E20746F0020204E6F47
:101A70007A7A6C653A2000746F20636F6E74696EB9
:101A800075652E2E2E00616E642070726573732052
:101A9000627574746F6E00496E7365727420666946
:101AA0006C616D656E740020204E6F7A7A6C653AB9
:101AB000200066696C616D656E74206C6F616400F6
:101AC0005761697420666F720020204E6F7A7A6CBD
:101AD000653A200066696C616D656E742070757280
:101AE0006765005761697420666F7200746F2072B9
:101AF0006573756D65005761697420666F7220703B
:101B000072696E740056652D6A65726B0056652D9C
:101B10006A65726B0056652D6A65726B00567A2D88
:101B20006A65726B00567A2D6A65726B0056792D64
:101B30006A65726B0056792D6A65726B0056792D55
:101B40006A65726B0056782D6A65726B0056782D47
:101B50006A65726B0056782D6A65726B004D6F7402
:101B6000696F6E004573746570732F6D6D004573FA
:101B7000746570732F6D6D005A73746570732F6D7B
:101B80006D005A73746570732F6D6D0059737465B1
:101B900070732F6D6D005973746570732F6D6D00C8
:101BA0005873746570732F6D6D005873746570731E
:101BB0002F6D6D004D6F74696F6E00537465707397
:101BC0002F6D6D004A65726B00416363656C6572D1
:101BD0006174696F6E0056656C6F63697479004358
:101BE0006F6E74726F6C004C6F6164206D6D004C91
:101BF0006F6164206D6D004C6F6164206D6D0055E8
:101C00006E6C6F6164206D6D00556E6C6F61642049
:101C10006D6D00556E6C6F6164206D6D0046696C72
:101C20002E204469612E0046696C2E204469612E85
:101C3000004F6666004F6E20004520696E206D6D76
:101C40003300416476616E6365204B0041647661C8
:101C50006E6365204B00436F6E74726F6C0043615E
:101C60006E6E6F7420656E74657220737562646940
:101C7000723A2000052E2E004D61696E0045787481
:101C80007275646572004D6F7665205A004D6F76EF
:101C9000652059004D6F766520580050726570615F
:101CA000726500496E697469616C697A65204545A1
:101CB00050524F4D00436F6E74726F6C00526573DB
:101CC000746F7265206661696C73616665004C6F44
:101CD00061642073657474696E677300496E69741A
:101CE00069616C697A6520454550524F4D005374C7
:101CF0006F72652073657474696E67730046696CF2
:101D0000616D656E74004D6F74696F6E0054656D22
:101D10007065726174757265004D61696E004D3356
:101D200030332055312045256920532569005072F4
:101D300065686561742041425320636F6E66005090
:101D400072656865617420504C4120636F6E660057
:101D5000504944204175746F74756E650050494454
:101D6000204175746F74756E65005049442D4400B0
:101D70005049442D44005049442D49005049442DB8
:101D800049005049442D50005049442D5000200234
:101D900020466163740020022046616374002002C3
:101DA000204D6178002002204D6178002002204DF6
:101DB0006178002002204D696E002002204D696E7E
:101DC000002002204D696E004F6666004F6E2000B5
:101DD0004175746F74656D70004E6F7A7A6C650032
:101DE0004E6F7A7A6C6500436F6E74726F6C00533D
:101DF000746F72652073657474696E6773004E6FDB
:101E00007A7A6C65004E6F7A7A6C650046616E2056
:101E100073706565640046616E207370656564006B
:101E200054656D7065726174757265003A00436146
:101E3000703A0023646566696E65204445464155E5
:101E40004C545F4B64200023646566696E652044D2
:101E5000454641554C545F4B6920002364656669D3
:101E60006E652044454641554C545F4B70200050F0
:101E70004944204175746F74756E652066696E699A
:101E800073686564212050757420746865206C61E6
:101E90007374204B702C204B6920616E64204B645E
:101EA00020636F6E7374616E74732066726F6D2041
:101EB00062656C6F7720696E746F20436F6E666920
:101EC0006775726174696F6E2E680A00504944200C
:101ED0004175746F74756E65206661696C65642107
:101EE0002074696D656F75740A004531205448454A
:101EF000524D414C2052554E41574159005468654E
:101F0000726D616C2052756E617761790045312088
:101F100048656174696E67206661696C6564004834
:101F2000656174696E67206661696C65640050491B
:101F300044204175746F74756E65206661696C65C7
:101F400064212054656D70657261747572652074CA
:101F50006F6F20686967680A00204B643A20002090
:101F60004B693A2000204B703A20000A20436C61F4
:101F70007373696320504944200A002054753A2045
:101F800000204B753A2000206D61783A2000206DCA
:101F9000696E3A200020643A200020626961733A39
:101FA0002000504944204175746F74756E65206639
:101FB00061696C6564212042616420657874727582
:101FC000646572206E756D6265720A005049442026
:101FD0004175746F74756E652073746172740A0054
:101FE0004D3630303A20546F6F20636F6C64004878
:101FF0006F74656E6420746F6F20636F6C640A0089
:10200000496E736572742066696C616D656E7420CB
:10201000616E6420707265737320627574746F6E84
:102020000A00507265737320627574746F6E207449
:102030006F2068656174206E6F7A7A6C650A00495A
:102040006E736572742066696C616D656E74206173
:102050006E6420707265737320627574746F6E2085
:10206000286F72204D313038290A00496E7365722D
:10207000742066696C616D656E7420616E64207099
:102080007265737320627574746F6E20286F72208E
:102090004D313038290A0070012C0190012701B020
:1020A000012201C0011D01F00118011002130130CD
:1020B000020E016002090190020401C002FF00004B
:1020C00003FA004003F5008003F000D003EB00208A
:1020D00004E6007004E100E004DC004005D700C025
:1020E00005D2004006CD00D006C8008007C30030EE
:1020F00008BE00F008B900C009B400B00AAF00B0D3
:102100000BAA00D00CA500000EA000500F9B00C031
:102110001096005012910000148C00C0158700B07A
:10212000178200B0197D00D01B7800001E7300409C
:10213000206E0090226900F024640040275F009028
:10214000295A00E02B5500102E500020304B001073
:10215000324600E033410090353C001037370070C4
:10216000383200A0392D00B03A2800A03B2300608F
:102170003C1E00103D1900903D1400103E0F0070F1
:102180003E0A00C03E0500003F0000403FFBFF80CC
:102190003FF6FFC03FF1FF09FFFFFFFFFF00010116
:1021A0000101016265640A002C2073797374656D06
:1021B0002073746F70706564212048656174657266
:1021C0005F49443A2000453120544845524D414C26
:1021D0002052554E4157415900546865726D616CEB
:1021E0002052756E617761790045312048656174D0
:1021F000696E67206661696C656400486561746931
:102200006E67206661696C656400453120457272B5
:102210003A204D415854454D50004D415854454D7C
:1022200050207472696767657265640045312045A6
:1022300072723A204D494E54454D50004D494E540E
:10224000454D5020747269676765726564004D384A
:102250003420582059205A204500202F0020403A91
:1022600000545249474745524544006F70656E001F
:102270003A20007A5F6D696E00795F6D6178007851
:102280005F6D696E005265706F7274696E6720656C
:102290006E6473746F70207374617475730A004B8D
:1022A000494C4C45442E200053544F505045442E29
:1022B00020005072696E7465722073746F7070655F
:1022C000642064756520746F206572726F72732E5E
:1022D0002046697820746865206572726F7220618B
:1022E0006E6420757365204D39393920746F207202
:1022F0006573746172742E202854656D7065726107
:10230000747572652069732072657365742E20532D
:1023100065742069742061667465722072657374D7
:10232000617274696E67290A004E6F2043686563A5
:102330006B73756D2077697468206C696E65206EAB
:10234000756D6265722C204C617374204C696E65EA
:102350003A20004E6F20436865636B73756D20777C
:10236000697468206C696E65206E756D6265722C8B
:10237000204C617374204C696E653A200063686577
:10238000636B73756D206D69736D617463682C2068
:102390004C617374204C696E653A20004C696E651F
:1023A000204E756D626572206973206E6F74204CCB
:1023B000617374204C696E65204E756D6265722B79
:1023C000312C204C617374204C696E653A20004DAD
:1023D000313130004D333100534420726561642047
:1023E0006572726F720A00446F6E65207072696E5A
:1023F00074696E672066696C650A0020496E7661B3
:102400006C696420657874727564657220000000E0
:10241000000000000000000000000000F04200008A
:10242000F0420000F042526573656E643A20006F1E
:102430006B0020746F6F206C6F6E6720657874720C
:102440007573696F6E2070726576656E7465640A67
:102450000020636F6C6420657874727573696F6EA9
:102460002070726576656E7465640A0062757379B2
:102470003A2070617573656420666F7220696E70B2
:1024800075740A00627573793A20706175736564BA
:1024900020666F7220757365720A00627573793AEF
:1024A0002070726F63657373696E670A004B494CE5
:1024B0004C45442E20004B494C4C2063617573659C
:1024C00064206279204B494C4C20627574746F6EA5
:1024D0002F70696E0A004B494C4C45442E20004B2E
:1024E000494C4C2063617573656420627920746F78
:1024F0006F206D75636820696E616374697665200D
:1025000074696D65202D2063757272656E74206329
:102510006F6D6D616E643A2000506C65617365206B
:102520007265736574005052494E544552204841BB
:102530004C544544005072696E7465722068616C39
:102540007465642E206B696C6C28292063616C6C47
:102550006564210A00656E7175657565696E672031
:102560002200000000000000F04200000000000017
:1025700048420000484200008040000000005761CF
:10258000726E696E673A20486F6D696E672042759A
:102590006D702044697669736F72203C20310A00A7
:1025A0000202040000A0400000A040000000400023
:1025B00000F0420000F0420000F042FF01FF6F70A7
:1025C000656E206661696C65642C2046696C653AAD
:1025D000200043616E6E6F74206F70656E2073759E
:1025E0006264697220006563686F3A00001C1F1105
:1025F000111F00000006191803130C00040E1F041D
:102600001C000000000E1315110E00001C101817FE
:1026100005060500040A0A0A0A11110E0C12120C12
:1026200000000000001F1511151F00000000210010
:10263000240027002A002D00300033000101000093
:10264000040107010A010000000100000001000070
:102650008000555555000000400033333300AAAACE
:102660002A004992240000002000C7711C0099999B
:102670001900D1451700555515003BB113002449E9
:10268000120011111100000010000F0F0F00E338AD
:102690000E0043790D00CCCC0C00C3300C00E8A236
:1026A0000B0064210B00AAAA0A00703D0A009DD805
:1026B0000900427B090092240900DCD308008888C5
:1026C00008001042080000000800F0C107008787DA
:1026D000070075500700711C07003EEB0600A1BC07
:1026E00006006990060066660600703E06006118E6
:1026F000060017F4050074D105005BB00500B29028
:102700000500627205005555050078390500B81EB0
:102710000500050505004EEC040087D40400A1BDAA
:10272000040090A7040049920400C17D0400EE69F2
:102730000400C7560400444404005C32040008212D
:10274000040041100400000004003FF00300F8E022
:10275000030026D20300C3C30300CCB503003AA88C
:1027600003000A9B0300388E0300C08103009F759D
:102770000300D0690300505E03001D53030034487A
:102780000300913D03003333030016290300381F73
:10279000030097150300300C0300030303000BFA3A
:1027A000020049F10200BAE802005CE002002DD804
:1027B00002002DD0020059C80200B0C0020031B999
:1027C0000200DAB10200AAAA0200A0A30200BC9C87
:1027D0000200FA9502005C8F0200DF88020082820C
:1027E0000200457C02002776020027700200436A3F
:1027F00002007C640200D05E02003F590200C85310
:10280000020048617264636F6465642044656661B8
:10281000756C742053657474696E6773204C6F61B6
:102820006465640A00F4010000F401000064000023
:10283000001027000000009643000096430000A00F
:10284000410000C841D7A39D42D7A39D4200004844
:10285000440000E64220286D6D290020204D3630CE
:102860003320002055004C0046696C616D656E7424
:10287000206C6F61642F756E6C6F6164206C656E87
:10288000677468733A0A0020204D393030204B00BD
:102890004C696E65617220416476616E63653A0AC7
:1028A0000020440020490020204D333031205000CA
:1028B0005049442073657474696E67733A0A002046
:1028C000460020420020480020204D31343520535E
:1028D000004D6174657269616C2068656174757022
:1028E00020706172616D65746572733A0A00202010
:1028F0004D3432302053004175746F20426564209E
:102900004C6576656C696E673A0A00205A0020595A
:102910000020204D323036205800486F6D65206F02
:1029200066667365743A0A00204500205A002059F3
:102930000020580020540020530020204D32303514
:1029400020510020453C6D61785F655F6A65726B60
:102950003E0020583C6D61785F785F6A65726B3E1F
:1029600020593C6D61785F795F6A65726B3E205AD1
:102970003C6D61785F7A5F6A65726B3E0041647698
:10298000616E6365643A20513C6D696E5F73656783
:102990006D656E745F74696D655F75733E20533C41
:1029A0006D696E5F66656564726174653E20543C56
:1029B0006D696E5F74726176656C5F666565647281
:1029C0006174653E0020540020520020204D3230BA
:1029D00034205000416363656C65726174696F6E89
:1029E0002028756E6974732F7332293A20503C7019
:1029F00072696E745F616363656C3E20523C726500
:102A000074726163745F616363656C3E20543C74EF
:102A1000726176656C5F616363656C3E0A00204598
:102A200000205A0020590020204D3230312058001B
:102A30004D6178696D756D20416363656C65726188
:102A400074696F6E2028756E6974732F7332293A1A
:102A50000A00204500205A0020590020204D323025
:102A6000332058004D6178696D756D206665656429
:102A700072617465732028756E6974732F73293AB7
:102A80000A00204500205A0020590020204D3932EC
:102A900020580053746570732070657220756E69DC
:102AA000743A0A0020204D3230302044300A002091
:102AB000204D3230302044002044697361626C65DF
:102AC000640A0046696C616D656E74207365747488
:102AD000696E67733A0020204D3134392043203B22
:102AE00020556E69747320696E2043656C73697537
:102AF000730A002020473231202020203B0056540A
:102B0000726176206D696E005654726176206D692F
:102B10006E005654726176206D696E00566D696E56
:102B200000566D696E00566D696E00566D617820B5
:102B30004500566D6178204500566D61782045004E
:102B4000566D6178205A00566D6178205A00566D96
:102B50006178205A00566D6178205900566D617871
:102B6000205900566D6178205900566D61782058C3
:102B700000566D6178205800566D61782058004DE0
:102B80006F74696F6E00416D6178204500416D6121
:102B900078204500416D6178205A00416D617820B0
:102BA0005A00416D6178205900416D6178205900CB
:102BB000416D6178205800416D6178205800412DA9
:102BC00074726176656C00412D74726176656C007B
:102BD000412D7265747261637400412D7265747267
:102BE00061637400416363656C00416363656C00FD
:102BF0004D6F74696F6E00FFFDFCFAF8F6F4F2F0A9
:102C0000EEECEAE9E7E5E3E1E0DEDCDAD9D7D5D4BA
:102C1000D2D0CFCDCBCAC8C7C5C3C2C0BFBDBCBA56
:102C2000B9B7B6B4B3B2B0AFADACAAA9A8A6A5A4C3
:102C3000A2A1A09E9D9C9A99989795949392908F0B
:102C40008E8D8B8A8988878684838281807F7E7D32
:102C50007B7A797877767574737271706F6E6D6C3C
:102C60006B6A696867666564636261605F5E5D5C2C
:102C70005B5A5958585756555453525150504F4E0D
:102C80004D4C4B4A4A4948474646454443424241D7
:102C9000403F3E3E3D3C3B3B3A3938383736353590
:102CA000343332323130302F2E2E2D2C2B2B2A293B
:102CB0002928272726252524232322212120201FD8
:102CC0001E1E1D1C1C1B1B1A191918181716161569
:102CD0001514131312121111100F0F0E0E0D0D0CEF
:102CE0000C0B0A0A0909080807070606050504046B
:102CF00003030202010000000FF0EEEF11241FBEDB
:102D0000CFEFD1E2DEBFCDBF00E00CBF13E0A0E00B
:102D1000B2E0ECE8FAEF01E00BBF02C007900D92C1
:102D2000AC33B107D9F724E1ACE3B3E001C01D92A5
:102D3000A93CB207E1F716E1CDE7D6E100E006C015
:102D400021970109802FFE010E94A4FCCC37D107F6
:102D500080E00807A9F70E9498E90C9435FD0C94CF
:102D600000002F923F924F925F926F927F928F92CC
:102D70009F92AF92BF92CF92DF92EF92FF920F930A
:102D80001F93CF93DF93CDB7DEB7CB56D1090FB6E4
:102D9000F894DEBF0FBECDBF21E02093EF098091F4
:102DA000EE098D3409F403C7843511F40C94132D06
:102DB000873411F00C945F2D2090EC093090ED09D0
:102DC0003BE12316310409F433C694F454E025168C
:102DD000310444F482E0281631040CF041C037FE7F
:102DE00038C0E1C694E02916310409F4E2C5DBC617
:102DF000AAE52A16310409F462C674F4ECE12E1631
:102E0000310409F445C6FDE12F16310409F0CBC6A3
:102E10000E94126C0C94612D3BE52316310409F4D9
:102E200052C64CE52416310409F0BDC670E5272EC4
:102E300072E0372EEDEFEE2EE9E0FE2EEDE2F4E04B
:102E4000F9AFE8AFF1E9CF2EF8E0DF2E00E010E0B7
:102E500079C68091430281110C94662D0C94612DEA
:102E600080914302882311F40C94612D0E94926A90
:102E700082E50E940CB9882309F44CC10E9490B8E5
:102E80004B015C0120E030E0A9010E946FF588232E
:102E900009F470C180912D0490912E04A0912F040B
:102EA000B091300488AF99AFAAAFBBAF2091310485
:102EB0003091320440913304509134042CAF3DAF33
:102EC0004EAF5FAF8091090A90910A0AA0910B0A58
:102ED000B0910C0A2C968CAF9DAFAEAFBFAF2C97C4
:102EE00020910D0A30910E0A40910F0A5091100A5C
:102EF00028962CAF3DAF4EAF5FAF28979C01AD0138
:102F000068AD79AD8AAD9BAD0E946FF581110FC0A0
:102F100028962CAD3DAD4EAD5FAD28976CAD7DAD27
:102F20008EAD9FAD0E946FF5882309F423C111E097
:102F300032E02316310409F010E020E030E0A9016E
:102F4000C501B4010E946FF5881F8827881F1817D4
:102F500059F080E090E0A0E8BFEB64968CAF9DAFA5
:102F6000AEAFBFAF64970AC020E030E040E85FE357
:102F700064962CAF3DAF4EAF5FAF649728AD39ADCF
:102F80004AAD5BAD2C966CAD7DAD8EAD9FAD2C97F3
:102F90000E9498F960966CAF7DAF8EAF9FAF60973F
:102FA0002CAD3DAD4EAD5FAD28966CAD7DAD8EAD1B
:102FB0009FAD28970E9498F96B017C0160962CAD1B
:102FC0003DAD4EAD5FAD6097CA01B9010E94D4F529
:102FD0002B013C01A7019601C701B6010E94D4F55F
:102FE0009B01AC01C301B2010E9499F90E9404FC4B
:102FF00024966CAF7DAF8EAF9FAF249720E030E07A
:1030000040E05FE30E94D4F52B013C01A50194014F
:10301000C501B4010E94D4F54B015C01A3019201EA
:10302000C301B2010E94D4F59B01AC01C501B401FA
:103030000E9498F90E9404FC64962CAD3DAD4EAD03
:103040005FAD64970E94D4F54B015C01C701B601E6
:10305000905824962CAD3DAD4EAD5FAD24970E94A7
:1030600075FAA50194010E94D4F56B017C012C96A0
:103070002CAD3DAD4EAD5FAD2C9768AD79AD8AAD51
:103080009BAD0E9499F920E030E040E05FE30E94B0
:10309000D4F59B01AC01C701B6010E9499F928AD96
:1030A00039AD4AAD5BAD0E9498F96B017C01289661
:1030B0002CAD3DAD4EAD5FAD28976CAD7DAD8EAD09
:1030C0009FAD0E9499F920E030E040E05FE30E946C
:1030D000D4F52B013C0124962CAD3DAD4EAD5FAD3A
:1030E000249760966CAD7DAD8EAD9FAD60970E94CC
:1030F00075FAA50194010E94D4F59B01AC01C301AE
:10310000B2010E9499F92CAD3DAD4EAD5FAD0E946C
:1031100098F914C089E40E940CB9882329F00E9410
:1031200090B86B017C0103C0C12CD12C76018AE4DC
:103130000E940CB9882309F10E9490B82C966CAFBC
:103140007DAF8EAF9FAF2C9720E030E0A901C70183
:10315000B6010E946FF581111FC020E030E0A90187
:103160002C966CAD7DAD8EAD9FAD2C970E946FF50A
:10317000811112C0E9E8F6E108C420E030E0A901BD
:10318000C701B6010E946FF58823A1F32C961CAEEF
:103190001DAE1EAE1FAE2C97D701C601B05888AF2A
:1031A00099AFAAAFBBAF2C962CAD3DAD4EAD5FAD88
:1031B0002C9750582CAF3DAF4EAF5FAF9C01AD0187
:1031C000BC01CD010E94D4F54B015C012CAD3DAD9D
:1031D0004EAD5FADCA01B9010E94D4F59B01AC01AF
:1031E000C501B4010E9499F90E9404FCA0966CAF3D
:1031F0007DAF8EAF9FAFA09780912D0490912E044C
:10320000A0912F04B091300428968CAF9DAFAEAF43
:10321000BFAF2897A7019601BC01CD010E9499F983
:1032200064966CAF7DAF8EAF9FAF649720913104F1
:1032300030913204409133045091340460962CAFA5
:103240003DAF4EAF5FAF60972C966CAD7DAD8EAD50
:103250009FAD2C970E9499F9A4966CAF7DAF8EAF6D
:103260009FAFA4978091090A90910A0AA0910B0A36
:10327000B0910C0A68968CAF9DAFAEAFBFAF6897A8
:1032800064962CAD3DAD4EAD5FAD6497BC01CD01F4
:103290000E9498F96B017C0120910D0A30910E0A71
:1032A00040910F0A5091100A6C962CAF3DAF4EAF73
:1032B0005FAF6C97A4962CAD3DAD4EAD5FADA497BE
:1032C0006C966CAD7DAD8EAD9FAD6C970E9498F9FC
:1032D0004B015C018091350490913604A091370434
:1032E000B0913804A8968CAF9DAFAEAFBFAFA89792
:1032F0009C01AD016091110A7091120A8091130A2C
:103300009091140A0E9498F924966CAF7DAF8EAF0D
:103310009FAF2497A701960168AD79AD8AAD9BADAB
:103320000E94D4F52B013C01A50194016CAD7DAD4B
:103330008EAD9FAD0E94D4F59B01AC01C301B201DB
:103340000E9499F92B013C01A501940168AD79AD6A
:103350008AAD9BAD0E94D4F54B015C01A70196019B
:103360006CAD7DAD8EAD9FAD0E94D4F59B01AC01DF
:10337000C501B4010E9498F9A30192010E940CFAC0
:103380006B017C0120E030E0A9010E946FF587FF0E
:103390000AC02BED3FE049EC50E4C701B6010E94A2
:1033A00099F96B017C0192E02916310451F42BED5F
:1033B0003FE049EC50E4C701B6010E9498F96B0167
:1033C0007C0120E030E0A901C701B6010E946FF541
:1033D000811128C068962CAD3DAD4EAD5FAD6897AC
:1033E00028966CAD7DAD8EAD9FAD28970E946FF590
:1033F000811118C06C962CAD3DAD4EAD5FAD6C9794
:1034000060966CAD7DAD8EAD9FAD60970E946FF5FF
:10341000811108C01BEDC12E1FE0D12E19ECE12E49
:1034200010E4F12EA7019601A0966CAD7DAD8EAD96
:103430009FADA0970E94D4F54B015C0120E030E0E5
:10344000A90124966CAD7DAD8EAD9FAD24970E94F1
:103450006FF58823E9F0A5019401C501B4010E942C
:10346000D4F54B015C0124962CAD3DAD4EAD5FAD66
:103470002497CA01B9010E94D4F59B01AC01C50192
:10348000B4010E9499F90E9404FC4B015C010DC03B
:1034900020E030E0A901C501B4010E94BFFB87FF15
:1034A00004C0B7FAB094B7F8B0942FE632E143E81D
:1034B0005AE3C501B4010E946FF587FF02C00C9466
:1034C000612DC501B4010E940EFB0E94E2FA2E9606
:1034D0007FAF6EAF2E97DB01AB2B31F4E1E0F0E074
:1034E0002E96FFAFEEAF2E974090390450903A04DD
:1034F00060903B0470903C042E962EAD3FAD2E970D
:10350000B90180E090E00E9473F54B015C019B01E2
:10351000AC01C701B6010E9475FA28966CAF7DAF69
:103520008EAF9FAF2897A501940124966CAD7DAD19
:103530008EAD9FAD24970E9475FAA0966CAF7DAFBB
:103540008EAF9FAFA097A30192016091150A709171
:10355000160A8091170A9091180A0E9498F9A501FD
:1035600094010E9475FAAC966CAF7DAF8EAF9FAFA1
:10357000AC9728962CAD3DAD4EAD5FAD2897CA01F6
:10358000B9010E94D4F520E030E040E05FE30E9402
:10359000D4F59B01AC0160E070E080E89FE30E94FD
:1035A00098F968966CAF7DAF8EAF9FAF6897A8967D
:1035B0008CAD9DADAEADBFADA89789879A87AB871F
:1035C000BC874D865E866F86788A609117027091FF
:1035D0001802072E000C880B990B0E9475F520919C
:1035E0004702309148024091490250914A020E949C
:1035F000D4F52AE037ED43E25CE30E94D4F56CABEE
:103600007DAB8EAB9FAB0E947BC79B01AC01285367
:103610003F4F4F4F5F4F6C962CAF3DAF4EAF5FAFFC
:103620006C9748AC59AC6AAC7BAC22242394312C07
:1036300039E121963FAF21972E964EAD5FAD2E9783
:103640004215530509F44DC10E946DAF0E947BC71E
:10365000DC01CB016C962CAD3DAD4EAD5FAD6C97F2
:10366000821B930BA40BB50BB7FD11C00E947BC747
:103670009B01AC0128533F4F4F4F5F4F6C962CAFCF
:103680003DAF4EAF5FAF6C9780E00E944FBB21967D
:103690003FAD2197315021963FAF2197332309F455
:1036A00045C02CAD3DAD4EAD5FAD68966CAD7DAD0A
:1036B0008EAD9FAD68970E94D4F56B017C0192019D
:1036C000A30128966CAD7DAD8EAD9FAD28970E946D
:1036D000D4F5A70196010E9499F97B018C01920112
:1036E000A30168966CAD7DAD8EAD9FAD68970E94CD
:1036F000D4F54B015C012CAD3DAD4EAD5FAD2896D0
:103700006CAD7DAD8EAD9FAD28970E94D4F59B0129
:10371000AC01C501B4010E9498F92B013C01C7011D
:10372000D8018CAF9DAFAEAFBFAF55C0B10180E047
:1037300090E00E9473F528962CAD3DAD4EAD5FAD87
:1037400028970E94D4F54B015C010E9472FA6B012C
:103750007C01C501B4010E94FAFB4B015C01A70189
:10376000960168AD79AD8AAD9BAD0E94D4F52B0171
:103770003C01A50194012C966CAD7DAD8EAD9FAD45
:103780002C970E94D4F5A30192010E9499F92B0174
:103790003C01A501940168AD79AD8AAD9BAD0E9455
:1037A000D4F54B015C01A70196012C966CAD7DAD63
:1037B0008EAD9FAD2C970E94D4F59B01AC01C50145
:1037C000B4010E9498F96CAF7DAF8EAF9FAF49E115
:1037D00021964FAF21979201A30164966CAD7DAD08
:1037E0008EAD9FAD64970E9499F969837A838B832C
:1037F0009C832CAD3DAD4EAD5FADA4966CAD7DAD63
:103800008EAD9FADA4970E9499F96D837E838F83BF
:103810009887A0962CAD3DAD4EAD5FADA097698564
:103820007A858B859C850E9499F969877A878B8731
:103830009C87AC962CAD3DAD4EAD5FADAC976D8524
:103840007E858F8598890E9499F96D877E878F87FD
:10385000988B80913402882321F0CE0101960E943A
:1038600084D5E0900D061CA61DA61EA61FA6898164
:103870009A81AB81BC8188A399A3AAA3BBA38D81A4
:103880009E81AF81B8858CA39DA3AEA3BFA389857C
:103890009A85AB85BC8588A799A7AAA7BBA7AE01C7
:1038A000485D5F4FBE016C5D7F4FCE0180960E94E8
:1038B0005ED0CE018C966C018E010C5C1F4F9E0178
:1038C000235F3F4FAE01485D5F4FBE016C5D7F4F90
:1038D0000C970E947C56882321F09FEF291A390A01
:1038E000ABCEE0900D0618AA19AA1AAA1BAA8091BD
:1038F000090A90910A0AA0910B0AB0910C0A88A3B8
:1039000099A3AAA3BBA380910D0A90910E0AA0913E
:103910000F0AB091100A8CA39DA3AEA3BFA3809100
:10392000110A9091120AA091130AB091140A88A763
:1039300099A7AAA7BBA7AE01485D5F4FBE016C5D0A
:103940007F4FCE0180960E945ED0DE01D0966D0141
:103950008E010C5C1F4F25E13AE0AE01485D5F4FE0
:10396000BE016C5D7F4FCE0180960E947C5680E147
:10397000E9E0FAE0ADE2B4E001900D928A95E1F75A
:103980000C94612D0E943FD4F80184918F010F5F48
:103990001F4F8111F7CFEDEEF1E084918F010F5FA2
:1039A0001F4F882311F40C94612D0E943FD4F8011D
:1039B000F4CF80E50E940CB9882329F00E9450B80A
:1039C0006B017C0103C0C12CD12C760183E50E94E0
:1039D0000CB9882361F00E9490B820E030E04AE7FB
:1039E00054E40E94D4F50E94E2FA6B017C010E942B
:1039F000BD6680913706811105C060E083E092E0EA
:103A00000E94C5770E947BC7C60ED71EE81EF91E0E
:103A10000E947BC7DC01CB018C199D09AE09BF094F
:103A2000B7FD02C00C94612D80E00E944FBBF0CF27
:103A30000E943F8181110C94612D80E090E0A0E212
:103A4000B1E489839A83AB83BC8380E090E0ACEDE2
:103A5000B2E48D839E83AF83B88780E090E0A0EAD4
:103A6000B1E489879A87AB87BC8780E50E940CB94F
:103A7000882319F00E9460B801C060E068A3BE010D
:103A80006F5F7F4FCE0180960E9498D30C94612D7A
:103A9000809120048770873011F00C946B2D8FE497
:103AA0000E940CB9882319F00E9481B803C08FE4EA
:103AB0000E94C3B881110C94612D0C946B2D10924F
:103AC00041030C94612D209341030C94612D0E94BD
:103AD00090B82B013C01133049F0F601208131816F
:103AE000428153810E9498F92B013C01A8ADB9ADE8
:103AF0002D913D914D915C91C301B2010E9498F9C5
:103B00004B015C012DEB37E346E855EB0E94BFFB10
:103B100087FD20C02DEB37E346E855E3C501B4012E
:103B20000E946FF51816B4F01F5FB4E0EB0EF11CA5
:103B3000E8ADF9AD3496F9AFE8AFF4E0CF0ED11CA3
:103B4000143039F1D1018D911D010E940CB98823E7
:103B500059F3BDCF133051F44092390450923A04D6
:103B600060923B0470923C0401E0DECFA501940119
:103B7000F70160817181828193810E9499F9D70157
:103B80006D937D938D939C931397812F0E949CB48A
:103B9000CBCF002321F089E394E00E94DE800E94D5
:103BA000CE660C94612D0E94D7820C94612D809179
:103BB000EC099091ED098337910509F4B7C10CF038
:103BC000BDC08A32910509F4D2C40CF05FC08831BF
:103BD000910509F47FC2CCF58231910509F426C61E
:103BE000DCF497FF02C00C94102D823091050CF488
:103BF000A0C1419711F00C94102D60E08FE192E08C
:103C00000E94C5775F988A9880910801817080939F
:103C1000060112980C94612D8531910509F43FC27B
:103C20003CF4449711F00C94102DE7E3F2E0F9C155
:103C30008631910509F437C2479711F00C94102D85
:103C4000E091EA09F091EB0938C28C31910509F451
:103C5000F0C264F48A31910509F445C20CF051C2F6
:103C60001092B90A0E94F4AD0C94612D8E31910529
:103C700009F4E9C214F40C94612D8F31910509F413
:103C8000C0C3809709F471C30C94102D8C35910535
:103C900009F41CC634F58135910509F4ADC58CF4E1
:103CA0008C34910509F498C48D34910509F498C4B5
:103CB0008B34910511F00C94102D0E94D2AD0C9410
:103CC000612D8335910509F4ACC50CF4A6C5843586
:103CD000910509F4ABC58535910509F4DCC50C9453
:103CE000102D8E36910509F4AAC4C4F489369105C5
:103CF00009F440C534F48836910509F475C40C9470
:103D0000102D8C36910509F400C58D36910511F002
:103D10000C94102D0E9498670C94612D80379105AA
:103D200009F4F7C40CF49EC48137910509F4F5C475
:103D30008237910509F453C60C94102D8D3231E071
:103D4000930711F40C944A2A0CF074C0893C910535
:103D500009F4F0C75CF58837910509F437C764F4B6
:103D60008637910509F4E3C60CF02DC78537910518
:103D700009F4CEC60C94102D8139910509F42BC796
:103D80005CF48937910511F00C94102D10921F04EA
:103D900010921E040C94612D8B39910509F405C510
:103DA000883C910509F476C70C94102D833D91054C
:103DB00009F4B8C034F58C3C910509F4F3C764F4F8
:103DC0008B3C910511F00C94102DA0E5EA2EA2E099
:103DD000FA2E0FE01EE0D7C78D3C910511F40C942C
:103DE00047278E3C910511F00C94102DE0E5CE2E66
:103DF000E2E0DE2EF1E2EF2EF4E0FF2E10E00C9474
:103E0000BA278D3D910511F40C9489293CF48C3D21
:103E1000910511F40C947C290C94102D823E91058F
:103E200011F40C94F8298C32914011F40C94212A4D
:103E30000C94102D853FA1E09A0711F40C94E42B0B
:103E4000C4F58039E1E09E0711F40C94572B94F4EB
:103E50008F3221E0920711F40C943E2B14F40C9451
:103E6000EA2A8336914011F00C94102DE9E8F6E12E
:103E70000C94442B843A51E0950711F40C945A2B7E
:103E80004CF48A39914011F00C94102D0E9459A5E0
:103E90000C94612D8C3AE1E09E0711F40C94CC2730
:103EA000843F914011F00C94102D0E94D53A0C944F
:103EB000612D8B3522E0920711F40C941A2CC4F476
:103EC000873F41E0940711F40C94EA2B14F40C940E
:103ED000E72B883FA1E09A0711F40C94F62B883564
:103EE000924011F00C94102D0E94EFA00C94612DC3
:103EF0008B38E3E09E0711F40C94612D3CF4843878
:103F0000934011F40C94A32C0C94102D803A33E0C0
:103F1000930709F469C2873E934011F40C94FB2C7B
:103F20000C94102DE6EEF5E20C949D28EBE0F4E005
:103F300094C5A090EA09B090EB0980E50E940CB905
:103F4000882359F00E9450B86B017C0111E0672B67
:103F5000682B692B31F410E004C010E0C12CD12C87
:103F6000760183E50E940CB9882311F40C94F22D9C
:103F70000E9490B820E030E04AE754E40E94D4F573
:103F80000E94E2FA6B017C0111110BC0672B682BB8
:103F9000692B39F4A114B10421F0D5018C91811160
:103FA00002C010E001C011E00E94BD66112329F09B
:103FB00061E0C5010E94017805C060E08CE092E0FC
:103FC0000E94C57783E08093EF0981E08093D90553
:103FD000C114D104E104F104B1F00E947BC7C60E04
:103FE000D71EE81EF91E0E947BC7DC01CB018C198D
:103FF0009D09AE09BF09B7FF0EC08091D905811197
:104000000C94F72D08C08091D905882321F080E019
:104010000E944FBBF8CF0E94D6491092D9050C944C
:10402000612D84918F010F5F1F4F882321F00E9423
:104030003FD4F801F6CF10925D0D80E19BE00E9425
:1040400052458BE1E0E1FBE0DE01159601900D9217
:104050008A95E1F780910E0B90910F0B9C838B83D7
:104060008AEF92E09A83898340E050E0BE016F5F5F
:104070007F4F80E090E00E94EBC2CE0101960E944B
:104080005D45E8E2F2E084918F010F5F1F4F8823C6
:1040900011F40C94612D0E943FD4F801F4CF0E94DA
:1040A000D97E0C94612D1092B90A1092BA0A0C9420
:1040B000612D803209F41082319680818111F9CF0F
:1040C00040E061E08091EA099091EB090E94F67C62
:1040D0000C94612D8091BA0A81112093B90A0E9433
:1040E000D2AD0C94612D8091BA0A882311F40C94FE
:1040F000612D83E50E940CB981110C94FC2D0C9468
:10410000612D83E40E94C3B8882309F450C0E5E719
:10411000F2E084918F010F5F1F4F882321F00E94EE
:104120003FD4F801F6CF8091AB0C811103C0E8E4D5
:10413000F2E012C0BE016F5F7F4F88EA9CE00E94F0
:10414000EA4F8E010F5F1F4FF80181918F01882385
:1041500049F10E943FD4F8CF84918F010F5F1F4F28
:10416000882301F10E943FD4F801F6CF53EFC52E0A
:1041700052E0D52EE12CF12C20E08091110690E048
:104180000E2C02C0959587950A94E2F780FD9AC29D
:10419000AFEFEA1AFA0AB2E0CB0ED11CE5E0EE1658
:1041A000F10459F78AE00E943FD40C94612D80916C
:1041B000BA0A882339F08091B90A882319F0E2E518
:1041C000F2E003C0E4E6F2E028C084918F010F5FC3
:1041D0001F4F882321F00E943FD4F801F6CF609151
:1041E000590D70915A0D80915B0D90915C0D4AE0D4
:1041F0000E9446D48FE20E943FD46091550D709189
:10420000560D8091570D9091580D4AE00E9446D46A
:104210008AE00E943FD40C94612D84918F010F5F3E
:104220001F4F882311F40C94612D0E943FD4F80194
:10423000F4CF40E060E08091EA099091EB090E94A0
:10424000F67C0C94612D8091BA0A882311F40C94A9
:10425000612D88EA9CE00E94B04F88EA9CE00E94B1
:10426000E24F1092B80A1092B70A8091BA0A8823D6
:1042700011F40C94612D0091EA091091EB090E9450
:10428000DEC2B801CE0180960E94F2C48C01892B57
:1042900011F40C94612D68A179A16115710511F0DB
:1042A0006C5F7F4F19821C8222E0A801CE0101962B
:1042B0000E948F55811102C0F12C14C0CE010196CD
:1042C0000E944CC28823C1F361E0CE0101960E9496
:1042D000944F009789F325EEDC012C931C820E94F9
:1042E0008FE2F82ECE0101960E945745F11003C0CF
:1042F000E2E9F2E022C0E4E8F2E084917F01BFEF5E
:10430000EB1AFB0A882321F00E943FD4F701F5CF76
:10431000F80181918F01882319F00E943FD4F8CFD2
:104320008AE00E943FD41092590D10925A0D1092BB
:104330005B0D10925C0D0C94612D84917F012FEF29
:10434000E21AF20A882321F00E943FD4F701F5CF48
:10435000D8018D918D01882319F00E943FD4F8CFA8
:104360008EE20E943FD40C94612D8091B90A811194
:104370000E94BD668091BA0A882311F40C94612DC5
:1043800080E50E940CB9882319F00E9481B803C00F
:1043900080E50E94C3B8182F482F61E08091EA0998
:1043A0009091EB090E94F67C83E50E940CB988236A
:1043B00081F00E9460B8AB01BC014093590D50934D
:1043C0005A0D60935B0D70935C0D88EA9CE00E942F
:1043D000AA4E8091BA0A882319F081E08093B90A25
:1043E00011110C94612D7BCE8091EA099091EB091B
:1043F00021E02093B80A40E060E00E94F67C0C9433
:10440000612D0E9483AD7B018C0120E831E541E004
:1044100050E00E945DF9C9016DE671E00E9461FC07
:104420004B015C01C801B70120E13EE040E050E0F3
:104430000E945DF9CA01B90128E130E040E050E096
:104440000E945DF9762E672EC62ED72E6CE3262E9F
:10445000312C412C512CC801B701A20191010E94BD
:104460005DF9F62EE72ECA01B901A20191010E9461
:104470005DF9CB018E010F5F1F4F8114910499F0FC
:10448000EF92FF927F936F936F927F92BF92AF9262
:104490009F928F9282ED92E09F938F931F930F9341
:1044A0000E9409F513C0A114B104B1F0EF92FF927C
:1044B0007F936F936F927F92BF92AF9282EC92E064
:1044C0009F938F931F930F930E9409F50FB6F89453
:1044D000DEBF0FBECDBF30C0CD2879F0EF92FF9286
:1044E0007F936F936F927F9286EB92E09F938F936F
:1044F0001F930F930E9409F5E9CF892B69F0EF9282
:10450000FF927F936F938EEA92E09F938F931F9316
:104510000F930E9409F5DACFEF92FF928AEA92E0B8
:104520009F938F931F930F930E9409F50F900F9005
:104530000F900F900F900F9060E0C8010E940178DB
:10454000E6EEF5E284917F019FEFE91AF90A8823EC
:1045500021F00E943FD4F701F5CFB80186EE92E03A
:104560000E9474E28AE00E943FD40C94612D83E59E
:104570000E940CB9882311F40C94612D0E9470B82C
:10458000082F80E50E940CB9882339F00E9470B88A
:10459000182F87FF03C00C94612D1DE089E40E9451
:1045A0000CB9882351F00E9481B881110C94742EAB
:1045B000E4E8F5E081EB95E00AC089E40E94C3B825
:1045C000F4CF31968E179F0711F40C94742E24911A
:1045D0001213F7CF0C94482E0E94F4AD0C94612D69
:1045E0000E9409AE0C94612D88E690E00E9418B9F3
:1045F00081110C94612D8091110683FF02C00C94EF
:10460000612D83E50E940CB98823A9F00E9490B81F
:104610000E94DDFACB010E946A770E9490B820E0E8
:1046200030E04AEA52E40E946FF5181624F00E9426
:1046300009AE0E94D6490E9455E60C94612D8EE485
:104640000E940CB9882311F40C94612D0E9460B86B
:1046500060938A0870938B0880938C0890938D08E0
:104660000C94612D83E50E94C3B8882359F083E53B
:104670000E940CB9882319F00E9470B801C080E034
:1046800080931106E6EEF5E284918F010F5F1F4FD4
:10469000811103C0E1E0F3E004C00E943FD4F801BF
:1046A000F3CF84918F010F5F1F4F882321F00E9469
:1046B0003FD4F801F6CF80911106811157CDEDEF6F
:1046C000F2E018C0BB24B394B20E222319F08CE29E
:1046D0000E943FD4F60185919491FC0184918F0151
:1046E0000F5F1F4F882321F00E943FD4F801F6CFBF
:1046F0002B2D4ECD84918F010F5F1F4F882309F41E
:1047000051CD0E943FD4F801F5CF109222020C94B3
:10471000612D88E093E00E9402BB83E50E940CB902
:10472000811103C0E6EEF5E20DC00E9470B88D3332
:1047300020F480934B020C94612D8CE380934B0208
:104740000C94612D84918F010F5F1F4F882321F0FE
:104750000E943FD4F801F6CF40914B0250E060E058
:1047600070E081E193E00E9421E28AE00E943FD460
:104770000C94612D89E690E00E9418B9811111C056
:10478000E8E1F3E084918F010F5F1F4F882321F050
:104790000E943FD4F801F6CF0E941FAC8AE00E942D
:1047A0003FD41092EF090C94822E83E50E940CB93D
:1047B000882311F40C94612D0E9470B8182F8D334A
:1047C00008F01CE31093FC090E947BC76B017C017D
:1047D000212F30E0A8EEB3E00E9489F9C60ED71E63
:1047E000E81EF91EC092F809D092F909E092FA0980
:1047F000F092FB090C94612D0E941EAE0E940ACF1C
:1048000068EE73E080E090E00E94177760E08BE153
:1048100093E00E94C5770C94612D109240030C9494
:10482000612D81E0809340030C94612D83E50E940B
:104830000CB98823A1F00E9490B820E030E04AE74C
:1048400054E40E94D4F50E94E2FA60934C02709303
:104850004D0280934E0290934F020C94612D88E597
:104860000E94C3B881110C940D2E89E50E94C3B833
:1048700081110C940D2E8AE50E94C3B881110C940D
:104880000D2E85E40E94C3B881110C940D2E0E9458
:104890000ACF0C94612D83E50E94C3B8882311F4DC
:1048A0000C94612D0E9490B820E030E04AE754E477
:1048B0000E94D4F50E94E2FA6093F4097093F5091E
:1048C0008093F6099093F7090C94612D30E5C32E7F
:1048D00032E0D32E46E2E42E46E0F42E10E0D6017C
:1048E0008D916D010E94C3B8882309F46DC0133007
:1048F00009F063C00E9490B84B015C0120E030E0F9
:1049000040EA51E40E946FF587FF4EC0A501940173
:10491000609132067091330680913406909135068D
:104920000E9475FA2B013C019B01AC016091C20809
:104930007091C3088091C4089091C5080E94D4F575
:104940006093C2087093C3088093C4089093C5080D
:10495000A301920160911B0E70911C0E80911D0E9F
:1049600090911E0E0E94D4F560931B0E70931C0E46
:1049700080931D0E90931E0E6091AF147091B01431
:104980008091B1149091B2140E9473F5A301920129
:104990000E94D4F50E94E2FA6093AF147093B014B1
:1049A0008093B1149093B2148092320690923306A1
:1049B000A0923406B092350607C00E9490B8F70165
:1049C00060837183828393831F5FF4E0EF0EF11C99
:1049D000143009F084CF0E94F6E70C94612D0E94F8
:1049E000BD6683E50E940CB9882309F4D8C80E94EB
:1049F00060B86230710509F0D2C80E9478BF8BE5BB
:104A00000E943FD46091750D7091760D8091770D65
:104A10009091780D42E00E94CBD44091790D509155
:104A20007A0D60917B0D70917C0D89E293E00E947C
:104A30003EE240917D0D50917E0D60917F0D709111
:104A4000800D86E293E00E943EE28DE50E943FD415
:104A50008AE00E943FD40C94612D84918F010F5FF6
:104A60001F4F882321F00E943FD4F801F6CF60E069
:104A70008BEF93E00E94E7A961E084EF93E00E944E
:104A8000E7A961E089EE93E00E94E7A961E089ED82
:104A900093E00E94E7A960E080ED93E00E94E7A91F
:104AA00061E086EC93E00E94E7A960E08CEB93E084
:104AB0000E94E7A960E084EB93E00E94E7A961E02F
:104AC00086EA93E00E94E7A960E088E993E00E940B
:104AD000E7A960E089E893E00E94E7A960E08BE73E
:104AE00093E00E94E7A960E085E693E00E94E7A9D1
:104AF00060E084E593E00E94E7A960E08FE393E043
:104B00000E94E7A961E08CE293E00E94E7A9D9C77F
:104B10008091EA099091EB09DC012C91222321F08C
:104B200060E00E940178CDC70E94D649CAC70091B3
:104B3000EA091091EB0983E0D12C40E08150E1F0CB
:104B4000F8019081292F2B7F2134C1F72181213356
:104B5000A9F7913421F0953421F441E002C0DD241D
:104B6000D39498012E5F3F4F89012F5F3F4FD801AB
:104B70009C919032C9F3E2CF442369F0E6EEF5E26E
:104B800084917F01BFEFEB1AFB0A882321F00E947A
:104B90003FD4F701F5CFDD2069F0ECECF4E084912F
:104BA0007F012FEFE21AF20A882321F00E943FD4FE
:104BB000F701F5CFD8018D918D01882309F4F2CA50
:104BC0000E943FD4F7CF0E94C3B97BC720931F0434
:104BD00020931E0476C783E50E940CB9882319F040
:104BE0000E9460B802C060E070E08B0111270230C3
:104BF0001105D4F0E9E8F6E184918F010F5F1F4FB2
:104C0000811103C0E0EDF4E004C00E943FD4F8013C
:104C1000F3CF84918F010F5F1F4F882309F451C791
:104C20000E943FD4F801F5CF88E40E940CB9882394
:104C3000A9F00E9460B86A3A71053CF06530B1E0B5
:104C40007B072CF064E071E002C06AEA70E0F801D2
:104C5000EE0FFF1FEC51F74F7183608386E40E94D3
:104C60000CB9882309F42DC70E9460B8000F111FEA
:104C7000F801E851F74F718360836F3F710519F0B8
:104C800014F06FEF70E077FF02C060E070E07183B6
:104C9000608317C788EC90E00E9418B9811111C792
:104CA00084E40E94C3B8882309F441C00E9490B8EC
:104CB0006B017C0111E020E030E0A9010E946FF55A
:104CC000811101C010E01093D20820E030E0A9016A
:104CD000C701B6010E946FF5882349F10E9490B880
:104CE000E0911F0924E0E29FF0011124E253F74F05
:104CF000608371838283938320E030E0A901609117
:104D0000CE087091CF088091D0089091D1080E9470
:104D10006FF581110CC080E090E0A0EEBFE38093BE
:104D2000CE089093CF08A093D008B093D1080E94EA
:104D300078CEC7C6B0E5EB2EB2E0FB2E0FE11EE049
:104D40008FE2C82E8EE0D82ED7018D917D010E9472
:104D5000C3B8882349F00E9490B80E94E2FAF80193
:104D600060837183828393830C5F1F4FC016D106CB
:104D700059F70E9485E6A5C60C5F1F4FFEE00F3174
:104D80001F0709F49EC6D7018D917D010E94C3B80B
:104D9000882391F30E9490B8F80160837183828325
:104DA0009383EACF83E50E940CB98823A1F00E9487
:104DB00090B86093370E7093380E8093390E9093AD
:104DC0003A0E60932F0E7093300E8093310E9093B5
:104DD000320E10E001C011E080E50E940CB988237A
:104DE00059F00E9490B86093370E7093380E8093FC
:104DF000390E90933A0E10E082E50E940CB9882398
:104E000059F00E9490B86093330E7093340E8093E3
:104E1000350E9093360E10E084E50E940CB988237D
:104E200059F00E9490B860932F0E7093300E8093CB
:104E3000310E9093320E45C6112309F442C64091BB
:104E4000370E5091380E6091390E70913A0E88EFFE
:104E500094E00E943EE24091330E5091340E6091F6
:104E6000350E7091360E85EF94E00E943EE240913F
:104E70002F0E5091300E6091310E7091320E82EFF4
:104E800094E00E943EE28AE00E943FD41AC681E587
:104E90000E94C3B8882351F00E9450B86093CD039C
:104EA0007093CE038093CF039093D00383E50E9449
:104EB000C3B8882351F00E9490B860930B0E709392
:104EC0000C0E80930D0E90930E0E84E50E94C3B8D5
:104ED000882351F00E9490B86093070E7093080EDB
:104EE0008093090E90930A0E88E50E94C3B8882328
:104EF00051F00E9490B86093B6087093B708809301
:104F0000B8089093B90889E50E94C3B8882351F086
:104F10000E9490B86093BA087093BB088093BC0855
:104F20009093BD088AE50E94C3B8882351F00E947F
:104F300090B86093BE087093BF088093C0089093A8
:104F4000C10885E40E94C3B8882309F4BAC50E9449
:104F500090B86093C2087093C3088093C40890937C
:104F6000C508AFC51F5FF4E0EF0EF11C133011F45C
:104F70000C94CF1DD6018D916D010E94C3B888237A
:104F800089F30E9490B8F7016083718382839383D1
:104F9000812F0E949CB4E6CF0E943F81811191C570
:104FA00002E615E22DE234E039AF28AFAE014F5FE3
:104FB0005F4F5A017BEB872E75E2972E1A01F8019D
:104FC0006591759185919491A8ADB9ADCD90DD9025
:104FD000ED90FD90B9AFA8AFA70196010E9498F996
:104FE0002B013C01F101608371838283938320E074
:104FF00030E040EA51EC0E94BFFB87FD0AC020E090
:1050000030E040EA51E4C301B2010E946FF5181686
:105010002CF4F401849118160CF42FC6D101CD9014
:10502000DD90ED90FD901D0120E030E040EA51EC74
:10503000C701B6010E94BFFB87FD0AC020E030E037
:1050400040EA51E4C701B6010E946FF5181684F5D5
:10505000E9E8F6E184918F010F5F1F4F811103C0D2
:10506000E6E2F5E004C00E943FD4F801F3CF84915A
:105070008F010F5F1F4F882321F00E943FD4F8015A
:10508000F6CF61E088E195E00E94C5770E94724A00
:1050900088E290E099A388A388EC90E09DA78CA774
:1050A000BE01605E7F4FCE018C960E941B8009C5B9
:1050B0000C5F1F4FBFEF8B1A9B0AE5E20E361E07EF
:1050C00009F07DCF61E2E62E64E0F62E10E0F501F6
:1050D00081919191A191B1915F01F7018193919398
:1050E000A193B1937F01812F0E949CB41F5F133065
:1050F00071F70E94CE6660E088E095E00E94C57777
:1051000083E992E09DA78CA704E610E019A308A309
:10511000BE01645D7F4FCE0180960E941B808AEBAA
:1051200092E09DA78CA719A308A3BE01645D7F4FE1
:10513000CE0180960E941B80C4C484918F010F5FB2
:105140001F4F882321F00E943FD4F801F6CF83E55A
:105150000E94C3B8882321F00E9481B88093340252
:10516000ECE6F5E084918F010F5F1F4F882321F05B
:105170000E943FD4F801F6CF80913402882319F0C1
:10518000E4E6F5E002C0E8E6F5E084918F010F5F08
:105190001F4F811103C0ECE5F5E004C00E943FD42D
:1051A000F801F3CF84918F010F5F1F4F882321F007
:1051B0000E943FD4F801F6CF2091910830919208D7
:1051C000409193085091940860919D0870919E08B9
:1051D00080919F089091A0080E9499F9AB01BC01B1
:1051E0008AE595E00E943EE220919508309196086C
:1051F00040919708509198086091A1087091A20879
:105200008091A3089091A4080E9499F9AB01BC0178
:1052100087E595E00E943EE22091990830919A0836
:1052200040919B0850919C086091A5087091A60838
:105230008091A7089091A8080E9499F9AB01BC0140
:1052400084E595E00E943EE2ECE4F5E084918F0174
:105250000F5F1F4F882321F00E943FD4F801F6CF43
:1052600020919108309192084091930850919408B0
:10527000609128027091290280912A0290912B025C
:105280000E9499F9AB01BC018AE495E00E943EE2DC
:105290002091950830919608409197085091980870
:1052A00060912C0270912D0280912E0290912F021C
:1052B0000E9499F9AB01BC0187E495E00E943EE2AF
:1052C0002091990830919A0840919B0850919C0830
:1052D00060913002709131028091320290913302DC
:1052E0000E9499F9AB01BC0184E495E00E943EE282
:1052F0008AE00E943FD4E5C383E50E940CB988236D
:1053000009F4DFC30E9460B870931802609317021B
:10531000D8C38DED90E00E9418B98111D2C383E506
:105320000E940CB9811103C0E6EEF5E23BC000918A
:105330001F0910E00E9460B8000F111FF801EB5E1A
:10534000FD4F7183608380911F0990E08C01000FF5
:10535000111F000F111F98012F5E3D4F7901880F1B
:10536000991FFC01EB5EFD4F60817181072E000CDF
:10537000880B990B0E9475F52AE037ED43E25CE358
:105380000E94D4F5F801EC55FC4F20813181428117
:1053900053810E94D4F5D7016D937D938D939C9397
:1053A00013978FC384918F010F5F1F4F882321F0C4
:1053B0000E943FD4F801F6CF85E40E943FD480914B
:1053C0001F09805D0E943FD4E0911F09F0E0EE0FBD
:1053D000FF1FEB5EFD4F608171818CE795E00E94BD
:1053E0005BE285E20E943FD48AE00E943FD469C319
:1053F00080E50E94C3B8882309F463C30E9460B8A3
:105400006B017C0183E50E940CB9882321F00E9486
:1054100060B88B0102C00FEF1FEFC8010196039720
:1054200008F04FC3D7FC4DC38C2DE4E8F5E0949110
:10543000891709F42DC43196B5E0E13BFB07B9F7B4
:105440002AC483E50E940CB9882319F00E9460B831
:1054500002C064E071E079A368A380E50E940CB902
:10546000882339F00E9460B86938E3E17E0730F4A0
:1054700002C068EE73E07A83698304C088E893E130
:105480009A838983BE01605E7F4FCE0101960E94A0
:105490001B8017C385E40E940CB9811110C080E500
:1054A0000E94C3B8882391F00E9490B86093D708F7
:1054B0007093D8088093D9089093DA0807C00E94A7
:1054C00070B8882361F3E9E8F6E171C089E40E94CD
:1054D000C3B8882381F00E9490B82CEA35EC47E2EB
:1054E0005EE30E94D4F56093DF087093E008809338
:1054F000E1089093E20884E40E94C3B8882381F015
:105500000E9490B82CEA35EC47E25EE30E9475FAFF
:105510006093DB087093DC088093DD089093DE08CD
:10552000E6EEF5E284918F010F5F1F4F882321F093
:105530000E943FD4F801F6CF4091D7085091D80887
:105540006091D9087091DA0889EB95E00E943EE2FB
:105550002CEA35EC47E25EE36091DF087091E008E9
:105560008091E1089091E2080E9475FAAB01BC01BC
:1055700085EB95E00E943EE22CEA35EC47E25EE3E3
:105580006091DB087091DC088091DD089091DE0865
:105590000E94D4F5AB01BC0181EB95E00E943EE294
:1055A0008AE00E943FD48DC20E943FD4F8018491CA
:1055B0008F010F5F1F4F8111F7CFEDEBF5E0849165
:1055C0008F010F5F1F4F882309F47BC20E943FD4D5
:1055D000F801F5CF83E50E94C3B8182F882371F036
:1055E0000E9490B80E94DDFA709324026093230217
:1055F00021E0672B09F020E020930E0680E50E9451
:10560000C3B8882359F02091230230912402232B20
:1056100011F00E9481B880930E0653C2111151C23D
:10562000E6EEF5E284918F010F5F1F4F882321F092
:105630000E943FD4F801F6CF80910E06882319F01E
:105640006EE073E002C061E173E084EE95E00E94D9
:1056500074E2609123027091240283ED95E00E9430
:105660005BE2EFECF5E084918F010F5F1F4F882321
:1056700009F427C20E943FD4F801F5CF0E948FA5FC
:1056800020C20E943FD4F80184918F010F5F1F4F09
:105690008111F7CFE7EFF5E084918F010F5F1F4F86
:1056A000882309F40EC20E943FD4F801F5CF0E946E
:1056B000BD6607C283E50E94C3B8882349F00E94F3
:1056C00081B8182F811106C080E00E9434B802C052
:1056D00010918F0880912D0490912E04A0912F0499
:1056E000B091300489839A83AB83BC838091310469
:1056F00090913204A0913304B09134048D839E8341
:10570000AF83B8878091350490913604A091370417
:10571000B091380489879A87AB87BC8786E50E9459
:10572000C3B8882321F083E396E00E94D081812FC3
:105730000E9434B8111103C0E6EEF5E21DC080915D
:105740008F088111F9CFE9E8F6E184918F010F5FAD
:105750001F4F811103C0E4E1F6E004C00E943FD472
:10576000F801F3CF84918F010F5F1F4F882321F33E
:105770000E943FD4F801F6CF84918F010F5F1F4F35
:10578000882321F00E943FD4F801F6CF80918F0842
:10579000882319F065E173E002C069E173E086E0F7
:1057A00096E00E9474E28AE00E943FD44CE050E010
:1057B0006DE274E0CE0101960E94BEFC892B09F4D3
:1057C00080C10E94CE667DC10E947CDB7AC10E94AE
:1057D00048DA77C183E50E94C3B8882321F00E948C
:1057E00081B891E089270E9416D66BC181E0809331
:1057F0003C030E948D3F10923C03882309F461C151
:10580000E6EEF5E284918F010F5F1F4F811103C017
:10581000E0E5F6E004C00E943FD4F801F3CF8491A4
:105820008F010F5F1F4F882309F44BC10E943FD4A3
:10583000F801F5CF8BE592E00E9418B9811141C1C2
:1058400085E50E94C3B88823D9F100911F0910E0B3
:105850000E9490B86B017C0120E030E0A9010E9419
:10586000BFFB87FF04C0F7FAF094F7F8F094000F3D
:10587000111F000F111FF801E653F74FC082D182AC
:10588000E282F38200911F09F4E00F9F800111244E
:105890000653174F20E030E048E453E4D8016D91FF
:1058A0007D918D919C910E94BFFB18164CF480E075
:1058B00090E0A8E4B3E4F80180839183A283B383EA
:1058C0008CE40E94C3B8882309F4FBC000911F092F
:1058D00010E00E9490B86B017C0120E030E0A9014B
:1058E0000E94BFFB87FF04C0F7FAF094F7F8F0942A
:1058F000000F111F000F111FF801EA53F74FC0826C
:10590000D182E282F38200911F09F4E00F9F8001AF
:1059100011240A53174F20E030E048E453E4D80143
:105920006D917D918D919C910E94BFFB18160CF09A
:10593000C8C080E090E0A8E4B3E4F80180839183DC
:10594000A283B383BEC08BE40E940CB9811103C053
:10595000E6EEF5E236C08BE40E940CB98823C1F074
:105960000E9490B86B017C0120E030E0A9010E9408
:10597000BFFB87FD0AC020E030E040E251E4C701F0
:10598000B6010E946FF5181634F4EBE5F6E00EC090
:10599000C12CD12C76010E94BD66C092D308D09252
:1059A000D408E092D508F092D6088BC084918F017C
:1059B0000F5F1F4F882309F484C00E943FD4F80171
:1059C000F5CF84918F010F5F1F4F882321F00E9434
:1059D0003FD4F801F6CF4091D3085091D40860919C
:1059E000D5087091D6088AE796E00E943EE28AE0E8
:1059F0000E943FD466C081E08093430210927A06F1
:105A000083E50E940CB9882339F00E9481B8811186
:105A100058C00E94B1BF55C083E50E94C3B8F7CFFC
:105A20000E94D7824EC0F090EC090E94BD66109192
:105A30008F0880E00E9434B8FF2029F1E6EEF5E2FD
:105A400084918F010F5F1F4F882321F00E943FD464
:105A5000F801F6CF84E50E943FD46F2D70E080E01E
:105A600090E04AE00E9446D480E20E943FD4E7E9F9
:105A7000F6E084918F010F5F1F4F882311F10E9480
:105A80003FD4F801F6CF10920D06812F0E9434B852
:105A9000E6EEF5E284918F010F5F1F4F882321F01E
:105AA0000E943FD4F801F6CF60910D0670E085E8C2
:105AB00096E00E945BE28AE00E943FD402C00E940E
:105AC000D7821092EF090E9494BF1CC10E94926A73
:105AD0000E943CBEF6CF0E94BD661092900880E006
