:100000000C9479190C94AA190C94AA190C94AA1995
:100010000C94AA190C94AA190C94AA190C94AA1954
:100020000C94AA190C94AA190C94AA190C94AA1944
:100030000C94AA190C94AA190C94AA190C94AA1934
:100040000C94AA190C94088F0C94AA190C94AA1950
:100050000C94AA190C94AA190C9448890C94FF7A50
:100060000C94AA190C942F4E0C94254E0C94AA199A
:100070000C94AA190C94AA190C94AA190C94AA19F4
:100080000C94AA190C94AA190C94AA190C94AA19E4
:100090000C94AA190C94AA190C94AA190C94AA19D4
:1000A0000C94AA190C94AA190C94AA190C94AA19C4
:1000B0000C94AA190C94AA190C94AA190C94AA19B4
:1000C0000C94AA190C94AA190C94AA190C94AA19A4
:1000D0000C94AA190C94AA190C94AA190C94AA1994
:1000E0000C94AA19084AD73B3BCE016E84BCBFFDD5
:1000F000C12F3D6C74319ABD56833DDA3D00C77FF8
:1001000011BED9E4BB4C3E916BAAAABE0000008090
:100110003F05A84CCDB2D44EB93836A9020C50B91F
:10012000918688083CA6AAAA2ABE000000803F004B
:100130004E414E494E495459494E46CDCCCC3D0ACC
:10014000D7233C17B7D13877CC2B329595E6241FAF
:10015000B14F0A000020410000C84200401C462068
:10016000BCBE4CCA1B0E5AAEC59D7400407A10F33B
:100170005A00A0724E18090010A5D4E80000E876D5
:1001800048170000E40B54020000CA9A3B0000002C
:10019000E1F505000080969800000040420F000045
:1001A00000A08601000000102700000000E8030006
:1001B0000000006400000000000A000000000001D0
:1001C00000000000002C76D888DC674F0823DFC1D0
:1001D000DFAE59E1B1B796E5E3E453C63AE651998B
:1001E0007696E8E6C28426EB898C9B62ED407C6FB4
:1001F000FCEFBC9C9F40F2BAA56FA5F490055A2A6B
:10020000F75C936B6CF9676DC11BFCE0E40D47FE76
:10021000F520E6B500D0ED902E030094357705006B
:1002200080841E080000204E0A000000C80C3333F2
:1002300033330F986E12831141EF8D2114893BE601
:100240005516CFFEE6DB18D1844B381BF77C1D908A
:100250001DA4BBE424203284725E228100C9F124F3
:10026000ECA1E53D27554E4C4F41442046494C41B9
:100270004D454E54004C4F41442046494C414D455C
:100280004E540046494C414D454E54204348414E42
:100290004745006563686F3A004572726F723A00B5
:1002A000486F74656E6420746F6F20636F6C640AAE
:1002B000000A0A426564204C6576656C20436F72C3
:1002C00072656374696F6E204D61747269783A006B
:1002D000332D706F696E742070726F62696E672063
:1002E000646F6E652E0A0069646C650A00206F6693
:1002F0002000706F696E7420004D616E75616C2016
:1003000047323920004D616E75616C2047323920CB
:1003100061626F727465640A002028445259525514
:100320004E2900473239204175746F2042656420A0
:100330004C6576656C696E67003F28562965726268
:100340006F7365206C6576656C20696D706C617586
:100350007369626C652028302D34292E0A004D36D1
:1003600030303A20546F6F20436F6C6400486F74D4
:10037000656E6420746F6F20636F6C640A00496E51
:10038000736572742066696C616D656E7420616E50
:100390006420707265737320627574746F6E0A00E6
:1003A000507265737320627574746F6E20746F2061
:1003B00068656174206E6F7A7A6C650A00496E73A5
:1003C0006572742066696C616D656E7420616E641F
:1003D00020707265737320627574746F6E0A0020EA
:1003E000496E76616C6964206578747275646572B3
:1003F0002000220A00656E7175657565696E67205B
:1004000022006F6B00526573656E643A2000436191
:10041000703A0023646566696E652044454641551F
:100420004C545F004B6420004B6920004B7020004F
:10043000504944204175746F74756E652066696E0D
:100440006973686564212050757420746865206C38
:10045000617374204B702C204B6920616E64204BBB
:100460006420636F6E7374616E74732066726F6D57
:100470002062656C6F7720696E746F20436F6E66C3
:10048000696775726174696F6E2E680A005049441D
:10049000204175746F74756E65206661696C656462
:1004A000212074696D656F75740A005049442041BC
:1004B00075746F74756E65206661696C6564212062
:1004C00054656D706572617475726520746F6F200C
:1004D000686967680A00204B643A2000204B693A3B
:1004E0002000204B703A20000A20436C617373692E
:1004F0006320504944200A002054753A2000204BC4
:10050000753A2000206D61783A2000206D696E3ABE
:10051000200020643A200020626961733A20005074
:100520004944204175746F74756E652073746172EF
:10053000740A00504944204175746F74756E6520CB
:100540006661696C6564212054656D7065726174C3
:1005500075726520746F6F20686967680A0050497A
:1005600044204175746F74756E65206661696C65B1
:10057000642120426164206578747275646572201C
:100580006E756D6265720A004572726F72207772C5
:100590006974696E6720746F20454550524F4D2134
:1005A0000A002568753A25303268750025303268B2
:1005B000753A2530326875002D2D2D0053440020EA
:1005C0002020202020200020202020004D6564696C
:1005D000612052656D6F766564004D6564696120C8
:1005E000496E736572746564005072696E7420415F
:1005F000626F72746564004D3235005061757365C9
:10060000205072696E7400A10000006900A2000011
:10061000006300B00000000900C10000004100C2FA
:100620000000004100C30000004100C40000004180
:1006300000C50000004100C60000004145C70000A1
:10064000004300C80000004500C90000004500CD7F
:100650000000004900D10000004E00D50000004F0E
:1006600000D60000004F00D70000007800DC00003A
:10067000005500DD0000005900E00000006100E1CD
:100680000000006100E20000006100E30000006182
:1006900000E40000006100E50000006100E60000E9
:1006A000006165E70000006300E80000006500E904
:1006B0000000006500EA0000006500EB0000006536
:1006C00000EC0000006900ED0000006900EE000091
:1006D000006900EF0000006900F10000006E00F208
:1006E0000000006F00F30000006F00F40000006FD6
:1006F00000F50000006F00F60000006F00F8000039
:10070000006F00F90000007500FA0000007500FBA2
:100710000000007500FC0000007500FD000000797D
:1007200000FF000000790004010000410005010005
:100730000061000601000043000701000063000C97
:1007400001000043000D01000063000E01000044A1
:10075000000F010000640011010000640019010095
:100760000065001F010000670030010000490031F2
:100770000100006900410100004C00420100006CD2
:1007800000430100004E00440100006E00480100DB
:10079000006E005901000072005A01000053005B16
:1007A00001000073005F010000730060010000534E
:1007B000006101000073006501000074006F01001A
:1007C0000075007C0100007A007D0100005A007E67
:1007D0000100007A00920100006600E30200007848
:1007E00000222000002E001E21000050782221004F
:1007F00000544D902100003C2D922100002D3EB070
:100800002100000300BB21000004003C2200007E08
:1008100000482200007E3D60220000213D61220050
:10082000003D00642200003C3D652200003E3DF199
:100830002300000700A03000003D0021F30100026A
:1008400000C2F401000500A2000000EC00B00000AE
:1008500000DF00E4000000E100F6000000EF00F718
:10086000000000FD00FC000000F500E3020000EBCA
:100870000087030000A5008F030000F40098030028
:1008800000F2009E030000E300A3030000F600A9AD
:10089000030000F400AC030000E000AD030000E33F
:1008A00000B1030000E000B2030000E200B5030065
:1008B00000E300B8030000F200BC030000E400BE47
:1008C000030000E300C0030000F700C1030000E6DE
:1008D00000C3030000E500902100007F009221008A
:1008E000007E001A220000E8001E220000F30088AB
:1008F000250000FF0002300000A1000C300000A223
:10090000000D300000A3009B300000DE009C300092
:1009100000DF00A03000003D00A1300000A700A2D1
:10092000300000B100A3300000A800A4300000B2E5
:1009300000A5300000A900A6300000B300A73000D9
:1009400000AA00A8300000B400A9300000AB00AA43
:10095000300000B500AB300000B600AC300000B68F
:10096000DEAD300000B700AE300000B7DEAF3000C3
:1009700000B800B0300000B8DEB1300000B900B2FD
:10098000300000B9DEB3300000BA00B4300000BA65
:10099000DEB5300000BB00B6300000BBDEB7300073
:1009A00000BC00B8300000BCDEB9300000BD00BAA9
:1009B000300000BDDEBB300000BE00BC300000BE19
:1009C000DEBD300000BF00BE300000BFDEBF300023
:1009D00000C000C0300000C0DEC1300000C100C255
:1009E000300000C1DEC3300000AF00C4300000C2E0
:1009F00000C5300000C2DEC6300000C300C73000B2
:100A000000C3DEC8300000C400C9300000C4DECA24
:100A1000300000C500CB300000C600CC300000C75D
:100A200000CD300000C800CE300000C900CF30003B
:100A300000CA00D0300000CADED1300000CADFD2C8
:100A4000300000CB00D3300000CBDED4300000CB30
:100A5000DFD5300000CC00D6300000CCDED730002F
:100A600000CCDFD8300000CD00D9300000CDDEDA78
:100A7000300000CDDFDB300000CE00DC300000CEE7
:100A8000DEDD300000CEDFDE300000CF00DF3000E2
:100A900000D000E0300000D100E1300000D200E2E0
:100AA000300000D300E3300000AC00E4300000D49C
:100AB00000E5300000AD00E6300000D500E7300072
:100AC00000AE00E8300000D600E9300000D700EAB0
:100AD000300000D800EB300000D900EC300000DA24
:100AE00000ED300000DB00EF300000DC00F23000F1
:100AF00000A600F3300000DD00F4300000B3DEF7A4
:100B0000300000DCDEFA300000A6DEFB300000A57D
:100B100000FC300000B000FD300000A400074E00D3
:100B200000FB0086510000FC0043530000FA006403
:100B3000FF0000A40065FF0000A50066FF0000A6FE
:100B40000067FF0000A70068FF0000A80069FF0021
:100B500000A9006AFF0000AA006BFF0000AB006C58
:100B6000FF0000AC006DFF0000AD006EFF0000AEA6
:100B7000006FFF0000AF0070FF0000B00071FF00C9
:100B800000B10072FF0000B20073FF0000B30074F8
:100B9000FF0000B40075FF0000B50076FF0000B64E
:100BA0000077FF0000B70078FF0000B80079FF0071
:100BB00000B9007AFF0000BA007BFF0000BB007C98
:100BC000FF0000BC007DFF0000BD007EFF0000BEF6
:100BD000007FFF0000BF0080FF0000C00081FF0019
:100BE00000C10082FF0000C20083FF0000C3008438
:100BF000FF0000C40085FF0000C50086FF0000C69E
:100C00000087FF0000C70088FF0000C80089FF00C0
:100C100000C9008AFF0000CA008BFF0000CB008CD7
:100C2000FF0000CC008DFF0000CD008EFF0000CE45
:100C3000008FFF0000CF0090FF0000D00091FF0068
:100C400000D10092FF0000D20093FF0000D3009477
:100C5000FF0000D40095FF0000D50096FF0000D6ED
:100C60000097FF0000D70098FF0000D80099FF0010
:100C700000D9009AFF0000DA009BFF0000DB009C17
:100C8000FF0000DC009DFF0000DD009EFF0000DE95
:100C9000009FFF0000DF00E5FF00005C0000000097
:100CA00000010204040000001C1C0C0404040201E6
:100CB000000000000004081000000000002D2D2D91
:100CC0002D2D2D007C4D61726C696E7C002D2D2DBB
:100CD0002D2D2D00001C1F11111F000000061918DA
:100CE00003130C00040E1F041C000000000E13155B
:100CF000110E00001C10181705060500040A0A0A48
:100D00000A11110E0C12120C00000000001F151128
:100D1000151F00004C6F6164206D6D00556E6C6F87
:100D20006164206D6D0046696C2E204469612E005F
:100D30004520696E206D6DC2B300416476616E63BB
:100D400065204B004D333033205531204525692037
:100D500053256900504944204175746F74756E6560
:100D6000202A0020022046616374002002204D6189
:100D700078002002204D696E004F6666004F6E00BD
:100D80004175746F74656D70005654726176204DB4
:100D9000696E00566D696E00566D6178204500568B
:100DA0006D6178205A00566D6178205900566D614A
:100DB00078205800416D6178204500416D617820B0
:100DC0005A00416D6178205900416D6178205800CA
:100DD000412D54726176656C00412D5265747261CB
:100DE000637400416363656C004A756E6374696F78
:100DF0006E20446576004573746570732F6D6D00C9
:100E00005A73746570732F6D6D00597374657073C8
:100E10002F6D6D005873746570732F6D6D00416494
:100E200076616E6365642053657474696E677300E0
:100E30003F0043616E63656C00496E6974004D3418
:100E4000323800496E697469616C697A652045457C
:100E500050524F4D0046696C616D656E740054656B
:100E60006D70657261747572650053746570732F6F
:100E70006D6D004A65726B00416363656C657261FC
:100E800074696F6E0056656C6F63697479005365A1
:100E90007420486F6D65204F6666736574730043F8
:100EA0006F6E66696775726174696F6E004C657606
:100EB000656C696E6720446F6E6521004D6F7665C5
:100EC000205A00473239205631004E657874205040
:100ED0006F696E74002569202F202575004732390F
:100EE00020563100436C69636B20746F2042656744
:100EF000696E00486F6D696E672058595A005374C7
:100F00006F72652053657474696E6773004C6F610E
:100F1000642053657474696E6773004F6666004F92
:100F20006E00426564204C6576656C696E67004CA6
:100F30006576656C20426564004D6F74696F6E0064
:100F4000426564004E6F7A7A6C650046616E20538C
:100F50007065656400436F6E666967757261746978
:100F60006F6E004C6F61642053657474696E6773B3
:100F700000526573746F72652044656661756C74A8
:100F8000730053746F72652053657474696E677370
:100F900000507265686561742041425320436F6E52
:100FA00066005072656865617420504C4120436F43
:100FB0006E6600416476616E636564205365747487
:100FC000696E6773004D61696E004D373032205491
:100FD0002564004D36303020423020542564004DC9
:100FE000373032203B2564004D37303120542564A2
:100FF00000436F6E74696E75650050757267652089
:101000006D6F726500524553554D45204F50544900
:101010004F4E533A005052494E542050415553457B
:10102000440020204E6F7A7A6C653A20005061723D
:101030006B696E672E2E2E00000057616974206662
:101040006F720066696C616D656E74206368616EB5
:10105000676500746F2073746172740057616974FE
:1010600020666F720066696C616D656E7420756EC6
:101070006C6F616400004E6F7A7A6C652068656100
:1010800074696E6700506C6561736520776169747F
:101090002E2E2E0000507265737320627574746F6B
:1010A0006E00746F2068656174206E6F7A7A6C656B
:1010B0000000496E736572742066696C616D656EBF
:1010C0007400616E6420707265737320627574744D
:1010D0006F6E00746F20636F6E74696E7565005774
:1010E00061697420666F720066696C616D656E740B
:1010F000206C6F61640000507265737320427574D8
:10110000746F6E00746F20726573756D65207072F8
:10111000696E7400005761697420666F7220707286
:10112000696E7400746F20726573756D652E2E2E56
:1011300000005761697420666F720066696C616DAA
:10114000656E742070757267650000313530003A45
:10115000200035003A20004245443A4550434F5361
:10116000203130304B0052756E61776179205761C4
:101170007463683A204F4E004D61782054656D705D
:1011800000323735003A20004D696E2054656D708D
:101190000035003A200045313A204550434F532056
:1011A0003130304B005053550047656E65726963AE
:1011B000003A200050726F746F636F6C00312E30F4
:1011C000003A200042617564003131353230300020
:1011D0003A200052414D505320312E3400332D50CF
:1011E0006F696E74204C6576656C696E6700457832
:1011F000747275646572730031003A20006874740B
:10120000703A2F2F6D61726C696E66772E6F726700
:1012100000524631303020584C00323032302D30C0
:10122000322D323700322E302E342E34004D617282
:101230006C696E00546865726D6973746F727300C7
:10124000426F61726420496E666F005072696E74FD
:10125000657220496E666F004D61696E003F004205
:1012600061636B0053746F70004368616E67652043
:1012700046696C616D656E74005072656865617475
:101280002041425300507265686561742043757354
:10129000746F6D005072656865617420504C410038
:1012A0004261636B005072696E742066726F6D20CC
:1012B0004D65646961004D3231004368616E676558
:1012C000204D656469610041626F757420507269D8
:1012D0006E746572004D36303020423000436861D4
:1012E0006E67652046696C616D656E7400436F6E54
:1012F00066696775726174696F6E0054656D7065BB
:10130000726174757265004D6F74696F6E0052651D
:1013100073756D65205072696E74004E6F204D6557
:101320006469610054756E650053746F702050726B
:10133000696E74005061757365205072696E740037
:10134000496E666F2053637265656E003F0053748B
:10135000617274205072696E740043616E63656CD3
:10136000005072696E740043616E6E6F7420656E1A
:10137000746572207375626469723A2000052E2EBE
:10138000004D61696E004D6F74696F6E004D3834A9
:101390000044697361626C65205374657070657296
:1013A0007300426564204C6576656C696E67004722
:1013B0003238004175746F20486F6D65004D61696A
:1013C0006E005072656865617420504C4120456E16
:1013D00064005072656865617420504C412042651C
:1013E0006400507265686561742041425320426513
:1013F0006400507265686561742041425320456EF7
:10140000640054656D706572617475726500436F38
:101410006F6C646F776E005072656865617420410F
:101420004253005072656865617420504C4100421F
:101430006564004E6F7A7A6C65004D61696E00419B
:101440006476616E6365204B00466C6F7700426581
:1014500064004E6F7A7A6C65005370656564004D68
:1014600061696E00363726033C3D380F2E303E1240
:101470001A1C1808440A0943080001627573793A76
:101480002070617573656420666F7220696E707577
:10149000740A00627573793A20706175736564200F
:1014A000666F7220757365720A00627573793A20EF
:1014B00070726F63657373696E670A0053544F509F
:1014C0005045442E20005072696E7465722073740A
:1014D0006F707065642064756520746F206572722A
:1014E0006F72732E20466978207468652065727269
:1014F0006F7220616E6420757365204D3939392013
:10150000746F20726573746172742E202854656D37
:101510007065726174757265206973207265736598
:10152000742E20536574206974206166746572207E
:1015300072657374617274696E67290A004E6F2058
:10154000436865636B73756D2077697468206C6997
:101550006E65206E756D6265722C204C617374200F
:101560004C696E653A20004E6F20436865636B736B
:10157000756D2077697468206C696E65206E756D75
:101580006265722C204C617374204C696E653A2040
:1015900000636865636B73756D206D69736D61744D
:1015A00063682C204C617374204C696E653A20008E
:1015B0004C696E65204E756D626572206973206E90
:1015C0006F74204C617374204C696E65204E756D8C
:1015D0006265722B312C204C617374204C696E65EE
:1015E0003A20004D3131300053442072656164204F
:1015F0006572726F720A002121204B494C4C2063A6
:101600006175736564206279204B494C4C2062758A
:1016100074746F6E2F70696E0A002121204B494C43
:101620004C2063617573656420627920746F6F204C
:101630006D75636820696E6163746976652074698D
:101640006D65202D2063757272656E7420636F6DF9
:101650006D616E643A2000506C656173652052655F
:10166000736574005052494E5445522048414C54C1
:1016700045440025533A202553004B494C4C4544E2
:101680002E20005072696E7465722068616C7465FA
:10169000642E206B696C6C28292063616C6C656416
:1016A000210A00000048430000484300004843006E
:1016B0000000000000000000000000290A00206275
:1016C000797465733B206372632000536574746999
:1016D0006E67732053746F7265642028004545500F
:1016E000524F4D206461746173697A65206572722E
:1016F0006F722E0A00290A002062797465733B20FC
:1017000063726320002073746F7265642073657464
:1017100074696E677320726574726965766564209A
:1017200028004572723A20454550524F4D20435291
:101730004300202863616C63756C617465642921C2
:101740000A0020213D2000454550524F4D20435274
:1017500043206D69736D61746368202D2028737454
:101760006F7265642920004572723A2045455052D7
:101770004F4D20496E646578002053697A653A20A0
:1017800000496E6465783A20004572723A204545FA
:1017900050524F4D2056657273696F6E00204D6137
:1017A000726C696E3D563736290A00454550524FD6
:1017B0004D2076657273696F6E206D69736D61740B
:1017C00063682028454550524F4D3D004861726482
:1017D000636F6465642044656661756C742053654D
:1017E0007474696E6773204C6F616465640A0000ED
:1017F000009643000096430000A0410000C841D776
:10180000A39D42D7A39D42000048440000E842F453
:10181000010000F401000064000000102700003BFC
:10182000200020204D36303320002055004C00464B
:10183000696C616D656E74206C6F61642F756E6C80
:101840006F6164206C656E677468733A0020204D88
:10185000393030204B004C696E65617220416476EE
:10186000616E63653A0020440020490020204D331A
:1018700030312050005049442073657474696E679C
:10188000733A0020460020420020480020204D31BD
:1018900034352053004D6174657269616C20686550
:1018A0006174757020706172616D65746572733AF0
:1018B0000020204D3432302053004175746F204297
:1018C0006564204C6576656C696E673A0020204D32
:1018D000323036205800486F6D65206F666673653C
:1018E000743A00204A0020530020204D3230352029
:1018F0004200416476616E6365643A20423C6D69E2
:101900006E5F7365676D656E745F74696D655F7535
:10191000733E20533C6D696E5F66656564726174E9
:10192000653E20543C6D696E5F74726176656C5FD4
:1019300066656564726174653E204A3C6A756E63D3
:101940005F6465763E0020520020204D3230342006
:101950005000416363656C65726174696F6E202825
:10196000756E6974732F7332293A20503C70726916
:101970006E745F616363656C3E20523C7265747285
:101980006163745F616363656C3E20543C74726193
:1019900076656C5F616363656C3E0020204D32307C
:1019A000312058004D6178696D756D204163636524
:1019B0006C65726174696F6E2028756E6974732F1F
:1019C0007332293A0020204D3230332058004D61C7
:1019D00078696D756D2066656564726174657320E4
:1019E00028756E6974732F73293A00537465707388
:1019F0002070657220756E69743A0020204D323077
:101A0000302044300A0020204D3230302044002065
:101A100044697361626C65640A0046696C616D6556
:101A20006E742073657474696E67733A0020204D7C
:101A30003134392043203B20556E69747320696E20
:101A40002043656C736975730A0020286D6D290049
:101A50002020473231202020203B20556E697473AE
:101A600020696E206D6D006F70656E00545249479D
:101A70004745524544003A20007A5F6D696E00790F
:101A80005F6D617800785F6D696E005265706F728E
:101A900074696E6720656E6473746F70207374610F
:101AA0007475730A00205A3A0020593A0020436F97
:101AB000756E7420583A0020453A00205A3A0020AA
:101AC000593A00583A00486F6D696E67204661695F
:101AD0006C656400000048420000484200008040FD
:101AE0005761726E696E673A20486F6D696E672044
:101AF00042756D702044697669736F72203C2031A5
:101B00000A000202040000A0400000A04000000003
:101B100040000048430000484300004843000000E4
:101B200001000000010000800055555500000040F4
:101B30000033333300AAAA2A00499224000000206F
:101B400000C7711C0099991900D14517005555150A
:101B5000003BB113002449120011111100000010C4
:101B6000000F0F0F00E3380E0043790D00CCCC0CB2
:101B700000C3300C00E8A20B0064210B00AAAA0AE3
:101B800000703D0A009DD80900427B09009224099B
:101B900000DCD30800888808001042080000000814
:101BA00000F0C107008787070075500700711C0708
:101BB000003EEB0600A1BC060069900600666606C2
:101BC00000703E06006118060017F4050074D10588
:101BD000005BB00500B29005006272050055550526
:101BE0000078390500B81E0500050505004EEC0417
:101BF0000087D40400A1BD040090A704004992040A
:101C000000C17D0400EE690400C75604004444048A
:101C1000005C3204000821040041100400000004AC
:101C2000003FF00300F8E0030026D20300C3C30323
:101C300000CCB503003AA803000A9B0300388E03CA
:101C400000C08103009F750300D0690300505E034C
:101C5000001D53030034480300913D030033330358
:101C60000016290300381F030097150300300C03EA
:101C700000030303000BFA020049F10200BAE80274
:101C8000005CE002002DD802002DD0020059C802ED
:101C900000B0C0020031B90200DAB10200AAAA0203
:101CA00000A0A30200BC9C0200FA9502005C8F0217
:101CB00000DF88020082820200457C020027760253
:101CC0000027700200436A02007C640200D05E02BA
:101CD000003F590200C8530200FFFDFCFAF8F6F479
:101CE000F2F0EEECEAE9E7E5E3E1E0DEDCDAD9D7B1
:101CF000D5D4D2D0CFCDCBCAC8C7C5C3C2C0BFBD53
:101D0000BCBAB9B7B6B4B3B2B0AFADACAAA9A8A6C5
:101D1000A5A4A2A1A09E9D9C9A9998979594939210
:101D2000908F8E8D8B8A8988878684838281807F3D
:101D30007E7D7B7A797877767574737271706F6E49
:101D40006D6C6B6A696867666564636261605F5E3B
:101D50005D5C5B5A59585857565554535251505020
:101D60004F4E4D4C4B4A4A494847464645444342EC
:101D70004241403F3E3E3D3C3B3B3A3938383736A6
:101D80003535343332323130302F2E2E2D2C2B2B53
:101D90002A292928272726252524232322212120F3
:101DA000201F1E1E1D1C1C1B1B1A19191818171684
:101DB00016151514131312121111100F0F0E0E0D0C
:101DC0000D0C0C0B0A0A0909080807070606050589
:101DD00004040303020201000024F4D43050C38E33
:101DE00020C2A24017828B7011127A910D816CD99A
:101DF0000AA861E108C7586607615143061E4B5D9A
:101E000005C145A7041A411104093D9803713931F0
:101E1000034036DB0265339102D4305402802E1D1C
:101E200002632CEE01752AC501B028A0011027819C
:101E3000018F2564012B244B01E0223401AC211FCA
:101E4000018D200D01801FFC00841EED00971DDF19
:101E500000B81CD200E61BC600201BBC00641AB2EE
:101E600000B219A8000A19A0006A189900D11791A8
:101E70000040178B00B516840031167E00B315792B
:101E8000003A157300C7146F0058146A00EE136609
:101E9000008813630025135E00C7125B006C1257A5
:101EA0000015125400C111510070114F0021114B47
:101EB00000D61049008D1047004610440002104221
:101EC00000C00F4000800F3E00420F3C00060F3B59
:101ED00000CB0E3800930E37005C0E3500270E3411
:101EE00000F30D3200C10D3100900D3000600D2E59
:101EF00000320D2D00050D2C00D90C2B00AE0C2945
:101F000000850C29005C0C2700350C27000E0C26E0
:101F100000E80B2400C40B2400A00B23007D0B233E
:101F2000005A0B2100390B2100180B2000F80A1F62
:101F300000D90A1E00BB0A1E009D0A1D00800A1D52
:101F400000630A1C00470A1B002C0A1B00110A1A16
:101F500000F7091A00DD091900C4091900AB0919B5
:101F600000920917007B091800630917004C091635
:101F70000036091600200916000A091500F5081593
:101F800000E0081400CC081400B8081400A40814D9
:101F900000900813007D0812006B08130058081207
:101FA000004608120034081100230811001208111D
:101FB0000001081100F0071000E0071000D0071022
:101FC00000C0071000B0070F00A107100091070E16
:101FD0000083070F0074070F0065070E0057070EF8
:101FE0000049070E003B070D002E070E0020070DCD
:101FF0000013070D0006070D00F9060C00ED060D95
:1020000000E0060C00D4060C00C8060C00BC060C50
:1020100000B0060C00A4060B0099060C008D060B00
:102020000082060B0077060B006C060B0061060AA7
:102030000057060B004C060A0042060A0038060A42
:10204000002E060A0024060A001A060A00100609D5
:102050000007060A00FD050900F4050900EB050963
:1020600000E2050900D9050900D0050900C70509E6
:1020700000BE050900B5050800AD050800A5050965
:10208000009C050800940508008C050800840508DC
:10209000007C050800740508006C0507006505084C
:1020A000005D050700560508004E050700470507B7
:1020B000004005080038050700310507002A05071C
:1020C00000230507001C050600160507000F05077D
:1020D000000805060002050700FB040600F50407DA
:1020E00000EE040600E8040600E2040700DB040634
:1020F00000D5040600CF040600C9040600C3040688
:1021000000BD040600B7040600B1040500AC0406D7
:1021100000A6040600A00405009B04060095040523
:1021200000900406008A040500850405008004066A
:10213000007A04050075040500700405006B0405B1
:102140000066040500610405005C040500570405F1
:1021500000520405004D0405004804050043040531
:10216000003E0404003A0405003504050030040470
:10217000002C04050027040400230405001E0404A9
:10218000001A04040016040500110404000D0404E0
:1021900000090405000404040000040400FC030416
:1021A00000F8030400F4030400F0030400EC03044B
:1021B00000E8030400E4030400E0030400DC03047B
:1021C00000D8030400D4030400D0030400CC0304AB
:1021D00000C8030300C503030024F404D9201BC472
:1021E0000C5C0E9804C4095F0265077101F405F9DF
:1021F00000FB04B30048048700C10369005803557D
:102200000003034500BE023A008402310053022A53
:10221000002902250004022000E4011C00C8011965
:1022200000AF011700980114008401130071011020
:10223000006101100051010E0043010D0036010B39
:10224000002B010B0020010B00150109000C0109F6
:102250000003010800FB000800F3000800EB000782
:1022600000E4000600DE000600D8000600D20006EA
:1022700000CC000500C7000500C2000500BD000439
:1022800000B9000400B5000400B1000400AD000472
:1022900000A9000400A5000300A20003009F0004A1
:1022A000009B0003009800030095000200930003C8
:1022B00000900003008D0002008B000300880002E4
:1022C000008600020084000300810002007F0002FB
:1022D000007D0002007B000200790002007700010F
:1022E000007600020074000200720001007100021A
:1022F000006F0002006D0001006C0002006A000126
:10230000006900020067000100660001006500012D
:102310000064000200620001006100010060000131
:10232000005F0002005D0001005C0001005B000135
:10233000005A000100590001005800010057000137
:102340000056000100550001005400010053000038
:102350000053000100520001005100010050000133
:10236000004F0001004E0000004E0001004D000132
:10237000004C0001004B0000004B0001004A00012E
:10238000004900010048000000480001004700012A
:102390000046000000460001004500000045000125
:1023A000004400010043000000430001004200001F
:1023B0000042000100410000004100010040000116
:1023C000003F0000003F0001003E0000003E000111
:1023D000003D0000003D0001003C0000003C00000A
:1023E000003C0001003B0000003B0001003A0000FF
:1023F000003A0001003900000039000100380000F7
:1024000000380000003800010037000000370001EC
:1024100000360000003600000036000100350000E4
:1024200000350000003500010034000000340000D9
:1024300000340001003300000033000000330001CD
:1024400000320000003200000032000100310000C4
:1024500000310000003100010030000000300000B9
:1024600000300001002F0000002F0000002F0000AE
:10247000002F0001002E0000002E0000002E0001A1
:10248000002D0000002D0000002D0000002D000197
:10249000002C0000002C0000002C0000002C00018B
:1024A000002B0000002B0000002B0000002B00017F
:1024B000002A0000002A0000002A0000002A000173
:1024C0000029000000290000002900000029000068
:1024D000002900010028000000280000002800005A
:1024E000002800000028000100270000002700004D
:1024F0000027000000270000002700010026000040
:102500000026000000260000002600000026000132
:102510000025000000250000002500000025000027
:102520000025000000250001002400000024000018
:10253000002400000024000000240001002300000B
:1025400000230000002300000023000000230000FF
:1025500000230000002300010022000000220000F0
:1025600000220000002200000022000000220001E2
:1025700000210000002100000021000000210000D7
:1025800000210000002100000021000100200000C7
:1025900000200000002000000020000000200000BB
:1025A000002000000020000000200001001F0000AB
:1025B000001F0000001F0000001F0000001F00009F
:1025C000001F0000001F0001001E0000001E000090
:1025D000001E0000001E000000232C0000B8220096
:1025E00000561800003A0F0000B8080000B10400BF
:1025F00000710200003E01000000426564004531A8
:1026000000626564002C2073797374656D207374A7
:102610006F7070656421204865617465725F49441C
:102620003A200048656174696E67204661696C658F
:10263000640048656174696E67206661696C6564F1
:1026400000544845524D414C2052554E4157415936
:1026500000546865726D616C2052756E61776179A6
:10266000004572723A204D415854454D50004D413D
:102670005854454D502074726967676572656400EF
:102680004572723A204D494E54454D50004D494EC9
:1026900054454D5020747269676765726564004DDA
:1026A000383420582059205A204500202F0020423D
:1026B000403A0020403A0020573A0043616E6E6F66
:1026C00074206F70656E20737562646972200053A8
:1026D000442063617264206F6B0A006F70656E52F4
:1026E0006F6F74206661696C65640A00766F6C7543
:1026F0006D652E696E6974206661696C65640A0097
:10270000534420696E6974206661696C0A004D3219
:1027100034004D32332025730046696C65207365A3
:102720006C65637465640A002053697A653A200019
:1027300046696C65206F70656E65643A2000454E91
:102740004420535542524F5554494E450A002220C9
:10275000706F73002220706172656E743A220053AC
:102760005542524F5554494E452043414C4C2074DC
:1027700061726765743A2200747279696E672074B9
:102780006F2063616C6C207375622D67636F646585
:102790002066696C6573207769746820746F6F2098
:1027A0006D616E79206C6576656C732E204D415895
:1027B000206C6576656C2069733A310A005772693E
:1027C00074696E6720746F2066696C653A20002E0C
:1027D0000A006F70656E206661696C65642C204626
:1027E000696C653A2000667265736800646F696E93
:1027F00067002066696C653A20004E6F7720007C88
:102800003C3E5E2B3D3F2F5B5D3B2C2A225C000053
:10281000002100240027002A002D00300033000191
:10282000010000040107010A010000220025002820
:10283000002B002E003100340002010000050108C9
:10284000010B01000020002300260029002C002F8E
:102850000032000001000003010601090105050521
:1028600005070508080808020202020A0A08080407
:102870000404040101010101010101030303030335
:10288000030303040707070C0C0C0C0C0C0C0C02C4
:1028900002020206060606060606060B0B0B0B0BCB
:1028A0000B0B0B01021020200808102040102040C4
:1028B0008002010201080402010102040810204004
:1028C0008080402010080402018004020180402022
:1028D000100804020108040201010204081020404B
:1028E00080010204081020408000000A0B02090C3D
:1028F0000D0E0807030401000000000000000000A6
:1029000000000000000000000000000000000000C7
:102910000000000000121110000000000000000084
:10292000000000000000000000000000000000683F
:102930007474703A2F2F6D61726C696E66772E6FAA
:10294000726700687474703A2F2F6D61726C696ED3
:1029500066772E6F726700687474703A2F2F6D61FE
:10296000726C696E66772E6F726700322E302E346D
:102970002E3400322E302E342E3400322E302E34AF
:102980002E3400687474703A2F2F6D61726C696E0A
:1029900066772E6F726700687474703A2F2F6D61BE
:1029A000726C696E66772E6F726700687474703A25
:1029B0002F2F6D61726C696E66772E6F72670020C3
:1029C000322E302E342E34002020506C616E6E6515
:1029D0007242756666657242797465733A200020AA
:1029E00046726565204D656D6F72793A2000436FC0
:1029F0006D70696C65643A20466562203239203218
:102A00003032300A00204C61737420557064617458
:102A100065643A20323032302D30322D3237207C0E
:102A200020417574686F723A20286E6F6E652C2095
:102A300064656661756C7420636F6E666967290AE8
:102A400000322E302E342E340A004D61726C696EC5
:102A50000020536F667477617265205265736574E8
:102A60000A00205761746368646F6720526573655C
:102A7000740A002042726F776E206F757420526561
:102A80007365740A002045787465726E616C20521B
:102A9000657365740A00506F77657255700A00732C
:102AA000746172740A006175746F25632E67004744
:102AB0003238585900446F6E65207072696E7469BF
:102AC0006E672066696C650A004D3331004D3051E8
:102AD000315331383030006572726F72207772690D
:102AE00074696E6720746F2066696C650A00446FB4
:102AF0006E6520736176696E672066696C652E0A63
:102B0000004D323900456E6473746F707300255345
:102B100020256320256320256320256300205A3A61
:102B20000020593A0020583A00656E6473746F7043
:102B300073206869743A2000434F4D4D554E494308
:102B40004154494F4E0044525952554E004552523D
:102B50004F525300494E464F004543484F00507274
:102B6000696E74205061757365640070012C01906A
:102B7000012701B0012201C0011D01F0011801105F
:102B800002130130020E016002090190020401C02B
:102B900002FF000003FA004003F5008003F000D0BC
:102BA00003EB002004E6007004E100E004DC0040D8
:102BB00005D700C005D2004006CD00D006C8008071
:102BC00007C3003008BE00F008B900C009B400B067
:102BD0000AAF00B00BAA00D00CA500000EA0005058
:102BE0000F9B00C01096005012910000148C00C082
:102BF000158700B0178200B0197D00D01B78000047
:102C00001E730040206E0090226900F02464004092
:102C1000275F0090295A00E02B5500102E5000200D
:102C2000304B0010324600E033410090353C00103C
:102C300037370070383200A0392D00B03A2800A094
:102C40003B2300603C1E00103D1900903D14001015
:102C50003E0F00703E0A00C03E0500003F000040ED
:102C60003FFBFF803FF6FFC03FF1FF4D6F766520D1
:102C700025736D6D00004D6F766520302E316D6DC2
:102C8000004D6F766520316D6D004D6F766520319A
:102C9000306D6D004D6F7665204178697300486F27
:102CA00074656E6420746F6F20636F6C6400457888
:102CB000747275646572004D6F7665205A004D6FB1
:102CC00076652059004D6F76652058005072696E08
:102CD000742066726F6D204D6564696100496E767F
:102CE000616C69642065787472756465720A003F6E
:102CF0004B2076616C7565206F7574206F6620724D
:102D0000616E67652028302D3130292E0A0041641C
:102D100076616E6365204B3D00454550524F4D2016
:102D20004F4B0A004F666673657473204170706C78
:102D3000696564004572723A20546F6F2066617253
:102D40002100546F6F206661722066726F6D207271
:102D500065666572656E636520706F696E740A00E2
:102D6000FF01FF0000000000004843000000004297
:102D70006564204C6576656C696E67200046616904
:102D80006C656420746F20656E61626C65204265BD
:102D900064204C6576656C696E670A004265642044
:102DA0004C6576656C20436F7272656374696F6EF3
:102DB000204D61747269783A0064697300656E0031
:102DC00043290A0061626C656420286D696E207475
:102DD000656D702000436F6C642065787472756453
:102DE000657320617265200020643A0020693A0012
:102DF00020703A00496E76616C696420657874725F
:102E0000756465720A0020466C6F773A20004F4661
:102E100046004F4E0020580020204D61783A200097
:102E2000200020204D696E3A2000536F66742065A3
:102E30006E6473746F70733A20003F4A206F75742C
:102E4000206F662072616E67652028302E30312039
:102E5000746F20302E33290A002054002052004184
:102E60006363656C65726174696F6E3A2050004DE2
:102E700031343520533C696E6465783E206F75743B
:102E8000206F662072616E67652028302D31290A17
:102E9000002F2F20004348414D4245525F54454D7D
:102EA0005045524154555245004D4F54494F4E5F85
:102EB0004D4F44455300544845524D414C5F50528C
:102EC0004F54454354494F4E004155544F5245507D
:102ED0004F52545F53445F53544154555300505222
:102EE0004F4D50545F535550504F525400454D452F
:102EF0005247454E43595F5041525345520043415A
:102F000053455F4C494748545F4252494748544EE5
:102F100045535300544F47474C455F4C494748542D
:102F20005300534F4654574152455F504F574552F7
:102F3000004255494C445F50455243454E54004C65
:102F40004556454C494E475F44415441005A5F50F5
:102F5000524F4245004155544F4C4556454C005048
:102F600052494E545F4A4F420050524F47524553C8
:102F700053004155544F5245504F52545F54454DA4
:102F80005000564F4C554D4554524943004545500D
:102F9000524F4D0042494E4152595F46494C455FA0
:102FA0005452414E534645520053455249414C5F9D
:102FB000584F4E5F584F4646004649524D57415272
:102FC000455F4E414D453A4D61726C696E20322E1F
:102FD000302E342E342028476974487562292053D6
:102FE0004F555243455F434F44455F55524C3A68F5
:102FF000747470733A2F2F6769746875622E636FEB
:103000006D2F4D61726C696E4669726D7761726584
:103010002F4D61726C696E2050524F544F434F4C8C
:103020005F56455253494F4E3A312E30204D414361
:1030300048494E455F545950453A52463130302048
:10304000584C2045585452554445525F434F554EB5
:10305000543A3120555549443A63656465326132CA
:10306000662D343161322D343734382D39623132A6
:103070002D6335356336326633363766660A00525D
:103080004631303020584C204F46462E0020573ACB
:103090000042656420436F6F6C696E672E2E2E00B0
:1030A0004265642048656174696E672E2E2E004D5E
:1030B0003131332053004D313132205368757464FF
:1030C0006F776E006F666600592B542B4D2B462B85
:1030D000382B44454255473A006F6B00436F6F6C85
:1030E000696E672E2E2E0048656174696E672E2EFC
:1030F0002E00452025530050726F7465637465641B
:103100002050696E0A002569730025696D202569C4
:1031100073002569682025696D202569730025697C
:1031200064202569682025696D202569730025695B
:103130007920256964202569682025696D20256925
:1031400073005072696E742074696D653A20002EA8
:103150000A0044656C6574696F6E206661696C6510
:10316000642C2046696C653A200046696C652064D1
:10317000656C657465643A00286E6F2066696C65DD
:10318000290043757272656E742066696C653A2019
:10319000005344207072696E74696E67206279749E
:1031A0006520004E6F74205344207072696E7469FC
:1031B0006E670A00456E642066696C65206C6973F1
:1031C000740A00426567696E2066696C65206C69E7
:1031D00073740A004E6F204D6F76652E00436C6944
:1031E000636B20746F20526573756D652E2E2E00F3
:1031F000536C6565702E2E2E0047322F47332062A8
:10320000616420706172616D65746572730A00207B
:10321000746F6F206C6F6E67206578747275736958
:103220006F6E2070726576656E7465640A00206347
:103230006F6C6420657874727573696F6E2070723C
:103240006576656E7465640A00220A00556E6B6EC1
:103250006F776E20636F6D6D616E643A2022004857
:103260006F6D65202573257325732046697273740D
:103270000020746F6F206C6F6E67206578747275B4
:1032800073696F6E2070726576656E7465640A008E
:1032900020636F6C6420657874727573696F6E203B
:1032A00070726576656E7465640A00204500205A68
:1032B00000205900204D39322058002E0A006F702E
:1032C000656E206661696C65642C2046696C653AA0
:1032D0002000524631303020584C205265616479CC
:1032E0002E005072696E74696E672E2E2E0010F5D6
:1032F00058EE11241FBECFEFD1E2DEBFCDBF00E0FC
:103300000CBF13E0A0E0B2E0E0E0F9E002E00BBFA8
:1033100002C007900D92AA36B107D9F724E1AAE6B8
:10332000B3E001C01D92A93CB207E1F719E1C8E77B
:10333000D9E100E006C021970109802FFE010F941A
:10334000E203C737D10780E00807A9F70E94A2EE81
:103350000D946F040C9400008091570581110AC0F0
:103360008091E411813041F080912B1482FB8827F9
:1033700080F9089580E0089581E008954F925F926A
:103380006F927F928F929F92AF92BF92CF92DF9275
:10339000EF92FF92CF93DF93CDB7DEB762970FB670
:1033A000F894DEBF0FBECDBF9A8B898BDB01FA018B
:1033B0002D913D914D915C91139729833A834B83D5
:1033C0005C8324813581468157812D833E834F83E1
:1033D000588714964D905D906D907C901797208142
:1033E00031814281538129873A874B875C871896C0
:1033F0008D909D90AD90BC901B97C084D184E28449
:10340000F384A7019601C301B2010E94C5FA6D873A
:103410007E878F87988BA50194016D817E818F8136
:1034200098850E94C5FA9B01AC016D857E858F85CC
:1034300098890F94C500E989FA8960837183828332
:103440009383A501940169857A858B859C850E946B
:10345000C5FA4B015C01A701960169817A818B81D4
:103460009C810E94C5FA9B01AC01C501B4010F9477
:10347000C500E989FA8964837583868397832D81E2
:103480003E814F81588569817A818B819C810E9420
:10349000C5FA6B017C0129853A854B855C85C301A2
:1034A000B2010E94C5FA9B01AC01C701B6010F949D
:1034B000C500E989FA896087718782879387CF0180
:1034C00062960FB6F894DEBF0FBECDBFDF91CF91ED
:1034D000FF90EF90DF90CF90BF90AF909F908F9034
:1034E0007F906F905F904F900895CF92DF92EF9210
:1034F000FF92FC01C080D180E280F38020E030E0C8
:10350000A901C701B6010E9460FA87FF69C0C7011F
:10351000B601905820E030E040E251E40E94C5FA44
:1035200020E030E040EA50E40F94C60020E030E0B4
:1035300040E251E40F94A2010F940A02FB01E03132
:1035400087E2F80708F453C0CF0160E177E20F94F7
:103550009F0380E3860F80932804E83E83E0F8070A
:1035600008F447C0CF0168EE73E00F949F03CB01CE
:103570006AE070E00F949F03805D8093290480E2ED
:10358000E436F10558F0CF0164E670E00F949F0334
:10359000CB016AE070E00F949F03805D80932A0462
:1035A00080E2EA30F10558F02AE030E0CF01B901BD
:1035B0000F949F03CB01B9010F949F03805D80930B
:1035C0002B04CF016AE070E00F949F03805D80932D
:1035D0002C0488E294E0FF90EF90DF90CF90089564
:1035E00020E030E040E251E4C701B60197CF80E22D
:1035F000B2CF80E2C2CF8F929F92AF92BF92CF9212
:10360000DF92EF92FF92CF93C62FFC01C080D18052
:10361000E280F38020E030E44CE156E4C701B601DB
:103620000E94C5FA4B015C0120E030E0A901C7010E
:10363000B6010E9460FA20E030E040EA50E487FFE3
:1036400004C020E030E040EA50ECC501B4010F9422
:10365000C60020E030E040E251E40F94A2010F9454
:103660000A026B017C01C114D104E104F10409F4E4
:1036700056C0F7FE09C0F094E094D094C094C11CE9
:10368000D11CE11CF11CCDE2C0932704C701B60197
:1036900028EE33E040E050E00F94C6038AE0882E25
:1036A000912CA12CB12CCA01B901A50194010F9450
:1036B000C603605D609328048EE280932904C701ED
:1036C000B60124E630E040E050E00F94C603CA01A2
:1036D000B901A50194010F94C603605D60932A04AB
:1036E000C701B601A50194010F94C603C62FCA01F4
:1036F000B901A50194010F94C603605D60932B048A
:10370000C05DC0932C0487E294E0CF91FF90EF90CE
:10371000DF90CF90BF90AF909F908F900895C0E2C0
:10372000B3CF8F929F92AF92BF92CF92DF92EF92E0
:10373000FF92FC01C080D180E280F38020E030E085
:1037400048EC52E4C701B6010E94C5FA4B015C0186
:1037500020E030E0A901C701B6010E9460FA20E034
:1037600030E040EA50E487FF04C020E030E040EA67
:1037700050ECC501B4010F94C60020E030E040E2F7
:1037800051E40F94A2010F940A029B018BE237FFD0
:1037900005C022273327261B370B8DE28093270491
:1037A000C90168EE73E00F94B303CB01EAE0F0E0E7
:1037B000BF010F94B303805D80932804C90164E6C0
:1037C00070E00F94B303CB01BF010F94B303805D8E
:1037D00080932904C901BF010F94B303282FCB01A3
:1037E000BF010F94B303805D80932A048EE280931F
:1037F0002B04205D20932C0487E294E0FF90EF904F
:10380000DF90CF90BF90AF909F908F9008959C01D4
:1038100097FF26C0EE27FF27E81BF90B2D398FEF06
:1038200038070CF05DC08DE280932904CF0164E677
:1038300070E00F94B303CB012AE030E0B9010F949C
:10384000B303805D80932A04CF01B9010F94B303C1
:10385000CB01B9010F94B303805D80932B042AC080
:10386000283E83E03807B4F1C90168EE73E00F9495
:10387000B303CB01EAE0F0E0BF010F94B303805D36
:1038800080932904C90164E670E00F94B303CB016F
:10389000BF010F94B303805D80932A04C901BF0167
:1038A0000F94B303CB01BF010F94B303805D8093EA
:1038B0002B04F901CF016AE070E00F94B303805D3F
:1038C00080932C0489E294E008958DE237FDC5CF02
:1038D00080E2C3CFF90180E2243631050CF0A4CF99
:1038E00080E28093290480932A04EA30F1056CF386
:1038F0008DE237FF80E280932A04CF016AE070E016
:103900000F94B303605D60932B04D4CF9C01EAE075
:10391000F0E0BF010F94B303805D80932C042A3044
:103920003105CCF0CB01BF010F94B303805D8093D0
:103930002B042436310594F0C90164E670E00F943D
:10394000B303CB01BF010F94B303805D80932A04BE
:103950008AE294E008958CE294E008958BE294E08A
:1039600008959C0197FD2DC080E2243631055CF05E
:10397000C90164E670E00F94B303CB016AE070E024
:103980000F94B303805D80932A0480E22A303105CE
:103990005CF0EAE0F0E0C901BF010F94B303CB0192
:1039A000BF010F94B303805D80932B04C9016AE0CB
:1039B00070E00F94B303805D80932C048AE294E05E
:1039C00008953195219531098DE2DDCF24E6829F5E
:1039D000C001112481589F4F6FEF70E00F94B30323
:1039E000262F81E3643609F080E28093290490E277
:1039F0002A3040F03AE0822F632F0F9493030F9404
:103A00009303905D90932A04822F6AE00F949303AE
:103A1000905D90932B0485E280932C0489E294E0DE
:103A2000089560912B0270912C02072E000C880BD8
:103A3000990B0E9466FA2AE037ED43E25CE30E94AC
:103A4000C5FA2091420830914308409144085091B2
:103A500045080E94C5FA60936402709365028093E2
:103A600066029093670208950C94C62C80912114ED
:103A70008823C1F0815080932114EEEAF2E188237B
:103A800051F08150990B2BE1289FF001299FF00DF7
:103A90001124ED5EFC4E8BE1A3E9B2E101900D92A1
:103AA0008A95E1F720912114211105C080912B14F2
:103AB000806280932B1481E090E0A0E0B0E02111BF
:103AC00003C080E090E0DC018093200890932108FF
:103AD000A0932208B09323081092180881E08093E5
:103AE000300883E080934C020895CF92DF92EF92EA
:103AF000FF9223EF34E045E35FE36091B4087091F7
:103B0000B5088091B6089091B7080E94C5FA6B017C
:103B10007C016091531170915411809155119091D5
:103B200056110E9464FA9B01AC01C701B6010E94C4
:103B3000C5FA29E732E84AE550E40E94C5FA0F9435
:103B400032036093CC087093CD088093CE08909395
:103B5000CF08FF90EF90DF90CF9008958091CC1226
:103B60009091CD12891B8F7009F4F6CB81E00895F6
:103B7000CF93DF93EC01CB01BA010E9466FA2AE0F1
:103B800037ED43E25DE30F94A20120E030E0A901AC
:103B90000F94C6000F940F02688379838A839B83F6
:103BA000DF91CF910895CF93DF93EC01CB01BA0160
:103BB0000E9466FA20E030E040E251E40F94A20156
:103BC00020E030E0A9010F94C600688379838A83DE
:103BD0009B83DF91CF910895CF93DF93EC01CB01CD
:103BE000BA010E9466FA2AE037ED43E25DE30F94E2
:103BF000A20120E030E0A9010F94C6006883798318
:103C00008A839B83DF91CF910895CF93DF93EC015B
:103C1000CB01BA010E9466FA20E030E0A9010F94BE
:103C2000C600688379838A839B83DF91CF9108954F
:103C3000CF93DF93EC01CB01BA010E9466FA20E03A
:103C400030E0A9010F94C600688379838A839B833F
:103C5000DF91CF910895CF93DF93EC01CB01BA01AF
:103C60000E9466FA20E030E04AE754E40F94A20193
:103C700020E030E0A9010F94C600688379838A832D
:103C80009B83DF91CF910895CF93DF93EC01CB011C
:103C9000BA010E9466FA20E030E048EC52E40F944A
:103CA000A20120E030E0A9010F94C6006883798367
:103CB0008A839B83DF91CF9108950E9466FA20E06A
:103CC00030E0A9010F94C6000F940A02CB0149CE3F
:103CD000CF93DF93EC01CB01BA010E9466FA20E09A
:103CE00030E0A9010F94C6000F940A02798368831B
:103CF000DF91CF9108950E9466FA29EC38EC48ECE8
:103D00005EE30F94A20120E030E040E05FE30F9417
:103D1000C6000F940F02862F59CECF93DF93EC018C
:103D2000CB01BA010E9466FA29EC38EC48EC5EE35C
:103D30000F94A20120E030E040E05FE30F94C60062
:103D40000F940F026883DF91CF910895CF93DF9393
:103D500000D01F92CDB7DEB70F940F020E9464FA15
:103D600069837A838B839C83CE010196BEDB0F909F
:103D70000F900F900F90DF91CF9108950E9466FAF7
:103D80002AE037ED43E25DE30F94A20120E030E04A
:103D9000A9010F94C600DACF8F929F92AF92BF9283
:103DA000CF92DF92EF92FF92CF936B017C0120E0E4
:103DB00030E0A9010E9460FA87FDA4C067E177EBBB
:103DC00081E598E3A70196010F94C6006B017C0181
:103DD00020E030E0A9010E9460FA87FF98C0C70187
:103DE000B601905820E030E048EC52E40E94C5FA59
:103DF00020E030E040EA50E40F94C60020E030E0DC
:103E000040E251E40F94A2010F940A026B017C017D
:103E100080E28093260460E280E1C81687E2D8063B
:103E2000E104F1048CF0C701B60120E137E240E083
:103E300050E00F94C603CA01B9012AE030E040E027
:103E400050E00F94C603605D6093270460E288EE43
:103E5000C81683E0D806E104F1048CF0C701B6016E
:103E600028EE33E040E050E00F94C603CA01B901E8
:103E70002AE030E040E050E00F94C603605D6093BC
:103E8000280460E284E6C816D104E104F1048CF051
:103E9000C701B60124E630E040E050E00F94C603CD
:103EA000CA01B9012AE030E040E050E00F94C603B7
:103EB000605D609329048AE0882E912CA12CB12C9E
:103EC000C701B601A50194010F94C603C62FCA010C
:103ED000B901A50194010F94C603605D60932A04A3
:103EE0008EE280932B04C05DC0932C0486E294E0A4
:103EF000CF91FF90EF90DF90CF90BF90AF909F90C9
:103F00008F90089567E177EB81E598EB5BCF20E038
:103F100030E048EC52E4C701B60168CF0E9466FA6F
:103F200020E030E040E251E40F94A20120E030E0D4
:103F3000A9010F94C60030CFCF92DF92EF92FF928B
:103F4000CF93DF9300D01F92CDB7DEB76B017C011A
:103F500020E030E0A9010E9460FA87FD1AC067E105
:103F600077EB81E598E3A70196010F94C60069837A
:103F70007A838B839C83CE010196B7DA0F900F90E2
:103F80000F900F90DF91CF91FF90EF90DF90CF9047
:103F9000089567E177EB81E598EBE5CF0E9466FA3B
:103FA00020E030E0A9010F94C600C6CF0E9466FA57
:103FB0002AE037ED43E25DE30F94A20120E030E018
:103FC000A9010F94C600B8CFCF92DF92EF92FF9273
:103FD000CF93DF9300D01F92CDB7DEB76B017C018A
:103FE00020E030E0A9010E9460FA87FD1BC067E174
:103FF00077EB81E598E3A70196010F94C6006983EA
:104000007A838B839C8360E2CE010196F4DA0F9071
:104010000F900F900F90DF91CF91FF90EF90DF9076
:10402000CF90089567E177EB81E598EBE4CF0E94AC
:1040300066FA20E030E04AE754E40F94A20120E061
:1040400030E0A9010F94C600BFCF8F929F92AF922C
:10405000BF92CF92DF92EF92FF92CF936B017C01E0
:1040600020E030E0A9010E9460FA87FF9DC067E16F
:1040700077EB81E598EBA70196010F94C6006B01E1
:104080007C0120E030E04AE754E40E94C5FA4B018D
:104090005C0120E030E040E251ECC701B6010E9433
:1040A00060FA181654F420E030E048EC52E4C701FE
:1040B000B6010F94EC0287FD8BC020E030E0A9012F
:1040C000C701B6010E9460FA87FF73C060E070E02C
:1040D00080EA90ECA50194010F94C60020E030E046
:1040E00040E251E40F94A2010F940A026B017C019B
:1040F000F7FC64C020E137E240E050E00F94C603D3
:10410000CA01B9012AE030E040E050E00F94C60354
:10411000605D60932704C701B60128EE33E040E0FC
:1041200050E00F94C6039AE0892E912CA12CB12C5B
:10413000CA01B901A50194010F94C603605D6093A3
:104140002804C701B60124E630E040E050E00F94B7
:10415000C603CA01B901A50194010F94C603605DAD
:10416000609329048EE280932A04C701B601A50159
:1041700094010F94C603C62FCA01B901A501940189
:104180000F94C603605D60932B04C05DC0932C0444
:1041900087E294E0CF91FF90EF90DF90CF90BF90B7
:1041A000AF909F908F90089567E177EB81E598E35A
:1041B00062CF60E070E080EA90E48CCFF094E0940D
:1041C000D094C094C11CD11CE11CF11C6DE2A1CFA4
:1041D00020E030E0A901C701B6010E9460FA87FF24
:1041E0006AC060E070E080EA90ECA50194010F9451
:1041F000C60020E030E040E251E40F94A2010F94A9
:104200000A024B015C0120E030E0A901C701B601C0
:104210000F94EC0287FD0BC020E030E040E251E457
:10422000C701B6010E9460FA60E287FD13C0B7FCC7
:1042300047C0C501B40128EE33E040E050E00F94E0
:10424000C603CA01B9012AE030E040E050E00F9413
:10425000C603605D60932804C501B40124E630E024
:1042600040E050E00F94C6038AE0C82ED12CE12C28
:10427000F12CCA01B901A70196010F94C603605D34
:10428000609329048EE280932A04C501B401A7013A
:1042900096010F94C603C62FCA01B901A701960162
:1042A0000F94C603605D60932B04C05DC0932C0423
:1042B00088E294E06FCF60E070E080EA90E495CF10
:1042C000B094A09490948094811C911CA11CB11C6A
:1042D0006DE2C0CF0E9466FA20E030E048EC52E484
:1042E0000F94A20120E030E0A9010F94C600ADCEEA
:1042F000CF92DF92EF92FF926B017C0120E030E0E1
:10430000A9010E9460FA87FD25C067E177EB81E58E
:1043100098E3A70196010F94C6006B017C0120E091
:1043200030E0A9010E9460FA20E030E040E05FE365
:1043300087FF04C020E030E040E05FEBC701B6013A
:104340000F94C6000F940A02CB01FF90EF90DF900C
:10435000CF9007CB67E177EB81E598EBDACF0E944E
:1043600066FA20E030E0A9010F94C600C1CFFC013D
:1043700080810895FC0184910895AF92BF92CF92FD
:10438000DF92EF92FF920F931F93CF93DF93EC0195
:104390005B018A01FB01199587FD16C0C82ED12C3F
:1043A000F12CE12C2196F801C082D182E282F382C5
:1043B000CE01DF91CF911F910F91FF90EF90DF9091
:1043C000CF90BF90AF900895982F907E903CA9F425
:1043D0008F7190E0B0E0A0E06C017D0126E0CC0C94
:1043E000DD1CEE1CFF1C2A95D1F7CE010196F501CC
:1043F00019958F73C82A2296D6CF982F907F903E1A
:1044000011F58F7090E0B0E0A0E06C017D0186E0D6
:10441000CC0CDD1CEE1CFF1C8A95D1F7CE01019659
:10442000F50119958F73C82A96E0CC0CDD1CEE1CA3
:10443000FF1C9A95D1F7CE010296F50119958F735D
:10444000C82A2396B0CF982F987F903F79F5877030
:1044500090E0B0E0A0E06C017D01F6E0CC0CDD1C4A
:10446000EE1CFF1CFA95D1F7CE010196F5011995C6
:104470008F73C82AA6E0CC0CDD1CEE1CFF1CAA958D
:10448000D1F7CE010296F50119958F73C82AB6E0CF
:10449000CC0CDD1CEE1CFF1CBA95D1F7CE010396A7
:1044A000F50119958F73C82A24967DCF982F9C7F8C
:1044B000983FE1F5837090E0B0E0A0E06C017D01F1
:1044C00056E0CC0CDD1CEE1CFF1C5A95D1F7CE013A
:1044D0000196F50119958F73C82A66E0CC0CDD1C96
:1044E000EE1CFF1C6A95D1F7CE010296F5011995D5
:1044F0008F73C82A76E0CC0CDD1CEE1CFF1C7A956D
:10450000D1F7CE010396F50119958F73C82AE6E01D
:10451000CC0CDD1CEE1CFF1CEA95D1F7CE010496F5
:10452000F50119958F73C82A25963DCF982F9E7F48
:104530009C3F09F049C0817090E0B0E0A0E06C01C0
:104540007D0186E0CC0CDD1CEE1CFF1C8A95D1F7AA
:10455000CE010196F50119958F73C82A96E0CC0C0F
:10456000DD1CEE1CFF1C9A95D1F7CE010296F501D9
:1045700019958F73C82A26E0CC0CDD1CEE1CFF1C9D
:104580002A95D1F7CE010396F50119958F73C82AA4
:1045900036E0CC0CDD1CEE1CFF1C3A95D1F7CE01A9
:1045A0000496F50119958F73C82A46E0CC0CDD1CE2
:1045B000EE1CFF1C4A95D1F7CE010596F501199521
:1045C0008F73C82A2696EFCE982F907C903841F4AE
:1045D000807C803869F42196CE01F5011995F8CFD9
:1045E0008E7F8D3F28F02196CE01F5011995F8CFE9
:1045F000C12CD12C7601D7CECF93DF93FB01D9010B
:1046000090819130E9F09430A8F0945090832D91EE
:104610003C911197B9016F5F7F4F11967C936E9318
:10462000420F531FEA0188838D919C918F3591052C
:1046300064F406C08C3539F49C5F9083943039F76C
:10464000DF91CF9108958B3311F781E08083F8CF0C
:104650009091C605E92FF0E0ED59FB4E80839F5FF6
:10466000943040F49093C60580914A078F5F809301
:104670004A0708951092C605F7CF282F9091AC08ED
:10468000833021F495FD0FC094FD0FC0892F90E079
:10469000B0E0A0E004C0B695A795979587952A95B8
:1046A000D2F78170089581E0089580E008950C9418
:1046B000D58F0C94D58F0C94D58F0C94D58F4F92A9
:1046C0005F926F927F928F929F92AF92BF92CF92A2
:1046D000DF92EF92FF92CF93DF9300D000D0CDB75F
:1046E000DEB79E838D83DC014D905D906D907C9054
:1046F000139714968D909D90AD90BC901797189637
:104700008D919D910D90BC91A02D89839A83AB834F
:10471000BC83A3019201C301B2010E94C5FA6B01DF
:104720007C01A5019401C501B4010E94C5FA9B0159
:10473000AC01C701B6010F94C6006B017C01298151
:104740003A814B815C81CA01B9010E94C5FA9B0183
:10475000AC01C701B6010F94C6000F9432039B0150
:10476000AC0160E070E080E89FE30F94A2016B0170
:104770007C01AC019B01C301B2010E94C5FAED812D
:10478000FE816083718382839383A7019601C501B3
:10479000B4010E94C5FAAD81BE8114966D937D93DC
:1047A0008D939C931797A701960169817A818B81DC
:1047B0009C810E94C5FAED81FE81608771878287A6
:1047C000938726960FB6F894DEBF0FBECDBFDF915C
:1047D000CF91FF90EF90DF90CF90BF90AF909F90E0
:1047E0008F907F906F905F904F9008950C94578FAB
:1047F0000C94578F0C94578F0C94578F0F931F93D3
:104800000E945B7A0091311410913214209133147C
:10481000309134140115110521053105D9F5209188
:1048200037142223A1F1E09135142150209337143D
:1048300021E02E0F2093351430913814231302C039
:104840001092351424E0E29FF0011124E75CFB4E46
:10485000008111812281338100932D1410932E1435
:1048600020932F1430933014600F711F811D911D00
:1048700060933114709332148093331490933414F2
:1048800080912F1490913014892B09F0409A1F9138
:104890000F910895601B710B820B930B97FDF7CF5F
:1048A00040981092311410923214109233141092D6
:1048B0003414EDCFCF92DF92EF92FF92CF93C82FB7
:1048C0000E945B7A6B017C0124EA30E74DE75FE3ED
:1048D0006091220470912304809124049091250416
:1048E0000E9460FA87FD18C08AEF90E0A0E0B0E077
:1048F0008C0D9D1DAE1DBF1D80931D0490931E0445
:10490000A0931F04B0932004C0930402CF91FF90A2
:10491000EF90DF90CF90089580E090E0DC01E8CF49
:10492000CF92DF92EF92FF920F931F930E945B7AD8
:104930000091BE031091BF032091C0033091C103C9
:104940006B017C01C01AD10AE20AF30A97018601C1
:1049500037FD11C02091BD0320952093BD036A54FB
:104960007C4F8F4F9F4F6093BE037093BF03809324
:10497000C0039093C10381E09091BD03911101C0E8
:1049800080E01F910F91FF90EF90DF90CF900895FE
:10499000CF92DF92EF92FF920F931F93CF93DF930B
:1049A00000D000D0CDB7DEB78A0146E0469F900127
:1049B000479F300D1124BC01620F731F46E050E089
:1049C000CE0101960E949FF9C980DA80EB80FC80BD
:1049D000F80140815181628173818FEF9FEFC4168E
:1049E000D506E606F70640F081E090E04C155D053F
:1049F0006E057F0508F080E026960FB6F894DEBFBE
:104A00000FBECDBFDF91CF911F910F91FF90EF901F
:104A1000DF90CF9008950C9459B70C9459B767EC78
:104A20007AE383E00C94EAEB62E77CE382E00C94A7
:104A3000EAEB66E77CE381E00C94EAEB6AE77CE36F
:104A400080E00C94EAEBEF92FF920F931F938DE5B9
:104A5000E82E82E1F82E10E000E029E233E149E996
:104A60005DE26FE572E184E692E10E9462D21F91FD
:104A70000F91FF90EF900895EF92FF920F931F9385
:104A800080E3E82E8EE0F82E10E000E023E43EE024
:104A900046EA5AE262E37EE089E39EE00E9462D247
:104AA0001F910F91FF90EF900895CF92DF92EF92B8
:104AB000FF920F931F93CF93DF93CDB7DEB7CDB6A1
:104AC000DEB68091A21165E971E1882311F062EAF6
:104AD00071E1FB0101900020E9F7CF01861B970BE4
:104AE00001962DB73EB7281B390B0FB6F8943EBF81
:104AF0000FBE2DBF0DB71EB70F5F1F4F80E2EDB782
:104B0000FEB78183C80101960F9440048CE4E82E1F
:104B100083E1F82E2EE433E149E75CE26AE573E1D4
:104B200081E693E10E9462D20FB6F894DEBE0FBE1A
:104B3000CDBEDF91CF911F910F91FF90EF90DF904D
:104B4000CF9008950F931F93CF93DF938B01C4E50C
:104B5000D2E020916402309165024091660250914A
:104B60006702FC0160817181828193810F94A201AF
:104B70002C853D854E855F850F94C6006C877D87AB
:104B80008E879F87C8010E944BA5DF91CF911F910F
:104B90000F910C94F88FEF92FF920F931F93CF9386
:104BA000DF9300D000D01F921F92CDB7DEB78E01E9
:104BB0000F5F1F4FD80130E020E0FB01E20FF31F31
:104BC000E491ED932F5F3F4F28303105B1F78770A7
:104BD00028E0829FC001112480640E94E8B7780118
:104BE00088E0E80EF11CF80161918F0189E494E1FD
:104BF0000E94C17BE016F106B1F728960FB6F89433
:104C0000DEBF0FBECDBFDF91CF911F910F91FF90FF
:104C1000EF9008950F931F93CF93DF93CDB7DEB737
:104C20002E970FB6F894DEBF0FBECDBF8A011E8649
:104C30001D866F83788789879A872FEF2B87603847
:104C400071058105910538F489E494E10E94C17BE6
:104C500081E090E02FC09E01235F3F4FAE01495F8E
:104C60005F4F69EB70E087E498E00E9494B797FD8E
:104C70002CC08D859E8526E0289FB001299F700D50
:104C80001124695B774F46E050E0CE0101960E9407
:104C90009FF96D8189E494E10E94C17B0130110587
:104CA000B9F26E816623A1F289E494E10E94C17B8E
:104CB00082E090E02E960FB6F894DEBF0FBECDBF17
:104CC000DF91CF911F910F9108959E01235F3F4F78
:104CD000AE01495F5F4F60E670E087E096E00E94BA
:104CE00094B797FD0BC08D859E8526E0289FB00167
:104CF000299F700D1124695F794FC5CF6FE3A4CF51
:104D00004F925F926F927F928F929F92AF92BF92DB
:104D1000CF92DF92EF92FF920F931F93CF93DF9387
:104D200000D000D0CDB7DEB78090540290905502ED
:104D3000A0905602B0905702C0905802D0905902ED
:104D4000E0905A02F0905B0280915C0290915D02CB
:104D5000A0915E02B0915F0289839A83AB83BC838A
:104D60000E94578F0E945B770FEA16E1AEE2B2E035
:104D7000BE83AD8383EA682E86E1782E512C852D83
:104D80000E9452A4F80185919591A591B491ED816D
:104D9000FE8181939193A193B193FE83ED83F301FF
:104DA00085919591A591B491ED81FE818087918740
:104DB000A287B38753940C5F1F4FF4E06F0E711CF2
:104DC00083E05812DCCF23EF34E045E35FE36091EA
:104DD000B4087091B5088091B6089091B7080E9408
:104DE000C5FA2B013C0160915311709154118091CF
:104DF0005511909156110E9464FA9B01AC01C301B8
:104E0000B2010E94C5FA29E732E84AE550E40E945F
:104E1000C5FA0F9432036093CC087093CD08809349
:104E2000CE089093CF080E94D58FA5019401609180
:104E300054027091550280915602909157020E943F
:104E400060FA81111EC0A70196016091580270910D
:104E5000590280915A0290915B020E9460FA81117E
:104E600010C020915C0230915D0240915E02509131
:104E70005F0269817A818B819C810E9460FA88231C
:104E8000C1F026960FB6F894DEBF0FBECDBFDF91FE
:104E9000CF911F910F91FF90EF90DF90CF90BF9037
:104EA000AF909F908F907F906F905F904F900C94F9
:104EB00057AE26960FB6F894DEBF0FBECDBFDF917A
:104EC000CF911F910F91FF90EF90DF90CF90BF9007
:104ED000AF909F908F907F906F905F904F900895CC
:104EE000129A08955F9A809196088E7F8093960813
:104EF0008A9A809196088D7F809396088091080108
:104F00008095817080930601809196088B7F8093B5
:104F10009608E6CFCF92DF92EF92FF920F931F9306
:104F2000CF93DF93CDB7DEB760970FB6F894DEBFAF
:104F30000FBECDBF0E94AA93182F8091CD128093EF
:104F4000CC128093CB128093CA1284E68093C9124C
:104F50000E948C9588EE93E090933A0F8093390FDE
:104F600011110E94B79381E0809346050E94F88F4B
:104F700081E00E943AA36B017C0180E00E943AA389
:104F800060933B0470933C0480933D0490933E04F3
:104F9000C0923F04D0924004E0924104F092420457
:104FA00082E00E943AA36093430470934404809388
:104FB00045049093460400913B0410913C042091D9
:104FC0003D0430913E0409831A832B833C83009176
:104FD0003F041091400420914104309142040D831C
:104FE0001E832F83388769877A878B879C87809178
:104FF000600290916102A0916202B09163028D877C
:105000009E87AF87B88BCE0101960E941B9080E1EE
:10501000FE013196A4E5B2E001900D928A95E1F788
:105020000E9460A660960FB6F894DEBF0FBECDBF9B
:10503000DF91CF911F910F91FF90EF90DF90CF9074
:10504000089580913A04811107C00E9412B7882305
:1050500019F081E080933A0408952F923F924F9285
:105060005F926F927F928F929F92AF92BF92CF92F8
:10507000DF92EF92FF920F931F93CF93DF93CDB701
:10508000DEB72C970FB6F894DEBF0FBECDBF9C875E
:105090008B878B011A013E832D83D9018D919D91C0
:1050A0000D90BC91A02D89839A83AB83BC83FA01B8
:1050B000C080D180E280F380DB018D909D90AD9027
:1050C000BC90EB85FC852481358146815781C501E3
:1050D000B4010E94C5FA2B013C01AB85BC855096FA
:1050E0002D913D914D915C915397C701B6010E945E
:1050F000C5FA9B01AC01C301B2010F94C6002B019C
:105100003C01EB85FC85248D358D468D578D69815D
:105110007A818B819C810E94C5FA9B01AC01C301FD
:10512000B2010F94C6006F83788789879A87AB8511
:10513000BC8518962D913D914D915C911B97C501B1
:10514000B4010E94C5FA2B013C01EB85FC85248942
:10515000358946895789C701B6010E94C5FA9B0166
:10516000AC01C301B2010F94C6002B013C01AB8519
:10517000BC8590962D913D914D915C91939769815D
:105180007A818B819C810E94C5FA9B01AC01C3018D
:10519000B2010F94C6002B013C01EB85FC852081F8
:1051A000318142815381C501B4010E94C5FA4B018E
:1051B0005C01AB85BC851C962D913D914D915C9118
:1051C0001F97C701B6010E94C5FA9B01AC01C5013A
:1051D000B4010F94C6006B017C01EB85FC85208D2A
:1051E000318D428D538D69817A818B819C810E94A2
:1051F000C5FA9B01AC01C701B6010F94C600D801E6
:105200006D937D938D939C9313978F819885A9853A
:10521000BA85F10180839183A283B383AD81BE817E
:105220004D925D926D927C9213972C960FB6F894E6
:10523000DEBF0FBECDBFDF91CF911F910F91FF90C9
:10524000EF90DF90CF90BF90AF909F908F907F9026
:105250006F905F904F903F902F9008950F931F9302
:105260008091E411813019F50E945B7A009132043B
:10527000109133042091340430913504601B710B7C
:10528000820B930B28EE33E040E050E00F948A004D
:1052900060912E0470912F0480913004909131041C
:1052A000620F731F841F951F1F910F9108956091C6
:1052B0003604709137048091380490913904D6CF28
:1052C0001092E411109232041092330410923404BC
:1052D000109235041092360410923704109238045C
:1052E0001092390410922E0410922F041092300460
:1052F0001092310408958091E4118130E1F0823000
:10530000C1F4ACDF60932E0470932F0480933004BB
:105310009093310481E08093E4110E945B7A609362
:10532000320470933304809334049093350481E005
:105330000895C6DFEFCF80E008958091E4118130B9
:1053400079F482E08093E4110E945B7A60933604E2
:1053500070933704809338049093390481E0089562
:1053600080E008958091E4118150823070F41092B1
:10537000E4110E945B7A6093360470933704809343
:1053800038049093390481E0089580E008958F9265
:105390009F92AF92BF92CF92DF92EF92FF920F93C4
:1053A0001F93CF93DF93CDB7DEB760970FB6F89416
:1053B000DEBF0FBECDBF8B0140E050E068EC72E471
:1053C00049875A876B877C8740E050E060EA70E449
:1053D0004D875E876F87788B813009F1823009F4C1
:1053E00049C080905C0290905D02A0905E02B090F7
:1053F0005F02F801C084D184E284F3849601A7019E
:10540000B401C5010E9460FA87FD02C06401750104
:10541000C601D70189839A83AB83BC834EC0BE018A
:10542000635F7F4FC80108960E9442A688E0F8019A
:10543000DE01119601900D928A95E1F7BE01675F3A
:105440007F4FCE0101960E9422A60E9457AE609621
:105450000FB6F894DEBF0FBECDBFDF91CF911F9185
:105460000F91FF90EF90DF90CF90BF90AF909F9003
:105470008F900895F801208531854285538560918C
:105480005C0270915D0280915E0290915F020F94C8
:10549000C6006B017C0120E030E048E453E40E9448
:1054A00060FA87FD06C0C12CD12C88E4E82E83E485
:1054B000F82EC982DA82EB82FC82BE01635F7F4FE5
:1054C000CE010196B1CF0F931F93CF93DF938C0141
:1054D000EB019091371420913814921304C08ED9A7
:1054E0000E94558BF6CF8091361434E0839FF001F3
:1054F0001124E75CFB4E11830083D383C2839F5F3B
:10550000909337148F5F281739F080933614DF910A
:10551000CF911F910F91089510923614F8CF63E93F
:1055200072E084E690E0CFDF6AEB72E084E690E020
:10553000CACF8111F4CF68EB71E084E190E0C3CF72
:105540000E9462A8F6CF0E9412B7F3CFCF930E94B9
:1055500054A70E9462A8C82F882319F080E00E94F7
:10556000FFAE8C2FCF91E5CFCF92DF92EF92FF92DB
:105570000F931F93CF9390910302913009F460C071
:10558000662351F010927E0310927A0310927B03EF
:1055900010927C0310927D03C82F0E945B7AC0900A
:1055A0007A03D0907B03E0907C03F0907D039B0115
:1055B000AC012C193D094E095F0969017A01F7FC1C
:1055C0003FC020917E03C7FD15C04C2F0C2E000C50
:1055D000550B4C5F5F4FE22F022E000CFF0B4E1756
:1055E0005F0774F144EFC42EDD24D394E12CF12C39
:1055F0002C1734F438EEC32E33E0D32EE12CF12CEB
:10560000C60ED71EE81EF91EC0927A03D0927B0305
:10561000E0927C03F0927D03022F017010E084E29F
:10562000809FB001819F700D701B112460597C4FC9
:1056300082E390E048DF80917E038F5F80937E035A
:10564000CF911F910F91FF90EF90DF90CF90089531
:10565000382F109237088091200890912108A0914E
:105660002208B0912308B7FF08C0109220081092BA
:1056700021081092220810922308209120082093DC
:10568000170810923008809112081816ECF4082EB2
:10569000000C990B831B9109022E000C330B281769
:1056A000390794F097FF02C090E080E080931708DC
:1056B000092E000CAA0BBB0B8093200890932108A5
:1056C000A0932208B0932308809117086623A9F0BD
:1056D00090911808891714F48093180820911808DD
:1056E000022E000C330B2D5F3F4F482F082E000C6D
:1056F000550B241735071CF4835080931808089520
:10570000E0910604E63010F581E08E0F80930604E8
:10571000409120085091210860912208709123083F
:10572000909118088091120828E0E29FF00111245E
:10573000EA52FC4F2091611430916214318320832E
:1057400042835383648375839683878308956CE0D3
:105750007DE080E020DA64E07DE081E01CDA6CEF3F
:105760007CE082E018DA64EF7CE086E014DA6CEE2C
:105770007CE087E010DA64EE7CE083E00CDA6CED2C
:105780007CE084E008DA64ED7CE085E004CACF9335
:10579000823061F4C4E0C15058F088E0C89FB00185
:1057A00011246356734F8C2FF6D9F5CFCF91CFCFFD
:1057B000CF9108950F931F93CF93DF93522F209192
:1057C0006114309162142817390761F190936214C3
:1057D000809361148B0130E020E000932008109347
:1057E00021082093220830932308409318085093EF
:1057F000120821E58838920721F4109221041092B2
:105800000604EC010E94EEB781E0C858D14509F0CA
:1058100080E0BDDF82E080934C0281E0809330081D
:1058200010921C08DF91CF911F910F910895CF9393
:10583000DF93EC0165DF20E040E070E060E0CE0146
:10584000DF91CF91B7CF21E0209321046093220410
:1058500070932304809324049093250420E040E077
:1058600070E060E08091190890911A08A3CF6DEC68
:105870007CEC8CEC9CE3E7CF6DEC7CEC8CEC9DE35A
:10588000E2CF60E070E080E89FE3DDCF60E070E0B1
:1058900080E291E4D8CF81E0809321041092B30894
:1058A00020E040E070E060E08EE999E383DF8FEA7A
:1058B00093E19093C8058093C705089520E040E0E8
:1058C00070E060E08EE79CE375DF81E08093160472
:1058D0008DED9EE09093C8058093C705089520E064
:1058E00040E070E060E088E891E564CF0E94938931
:1058F000F6CF85E991E10E940E82F1DF0C9447B961
:1059000061116093030240931A04EFEFE80FEB304C
:1059100008F035C00E2E000CFF0B8827ED56F34D16
:105920008F4F0D94E203C02CC32C9E2CA82CAB2CC3
:10593000AE2CBA2CB12CBF2CB42CB72C80E799E339
:1059400021E02093210420E040E070E060E032CFCD
:1059500086E799E3F5CF89E799E3F2CF8CE799E3FE
:10596000EFCF8FE799E3ECCF82E899E3E9CF85E8C1
:1059700099E3E6CF109219048EE597E3E1CFAFCF1C
:105980008DE699E3DDCF83E799E3DACFE091060472
:10599000EE2381F0E150E093060488E0E89FF001F7
:1059A0001124EA52FC4F62817381278146818081F4
:1059B000918100CF94CF64E084E10E94F5B781E04B
:1059C00020916114309162142858314509F080E02B
:1059D000DEDE0C94EEB7AF92BF92CF92DF92EF92E1
:1059E000FF920F931F93CF93DF9300D01F92CDB7F9
:1059F000DEB76C015B017A0110E000E00E151F05B7
:105A0000E0F419821A821B821C82AE014F5F5F4F45
:105A1000B501C6010E94BD216C0169817A818B812B
:105A20009C81611571058105910539F0A701401B25
:105A3000510BF0D8080F191FE1CFC8010F900F903C
:105A40000F900F90DF91CF911F910F91FF90EF90EA
:105A5000DF90CF90BF90AF9008954FEF5FEF67EB6F
:105A600071E2B9CF4FEF5FEF6AEB71E2B4CF643010
:105A700008F063E090915C14691710F06FEF690F04
:105A8000E62FF0E0E75BFB4E9489890F80680C9469
:105A9000E8B7CF93DF93EA01EADFCE01DF91CF9140
:105AA000E1CFFC01A081B1811C92A281B3818C91D4
:105AB0008F5F8C930280F381E02D608180E0D7CFEF
:105AC0000F931F93CF93DF938C016F3F19F41092C4
:105AD000371260E020913712862F062E000C990BAA
