:100000000C94E71A0C94271B0C94271B0C94271BA9
:100010000C94271B0C94271B0C94271B0C94271B58
:100020000C94271B0C94271B0C94271B0C94271B48
:100030000C94271B0C94271B0C94271B0C94271B38
:100040000C94271B0C9441280C94271B0C94271B01
:100050000C94271B0C94271B0C94BE260C9478D66A
:100060000C94271B0C94938A0C94898A0C94271B5C
:100070000C94271B0C94271B0C94271B0C94271BF8
:100080000C94271B0C94271B0C94271B0C94271BE8
:100090000C94271B0C94271B0C94271B0C94271BD8
:1000A0000C94271B0C94271B0C94271B0C94271BC8
:1000B0000C94271B0C94271B0C94271B0C94271BB8
:1000C0000C94271B0C94271B0C94271B0C94271BA8
:1000D0000C94271B0C94271B0C94271B0C94271B98
:1000E0000C94271B084AD73B3BCE016E84BCBFFD56
:1000F000C12F3D6C74319ABD56833DDA3D00C77FF8
:1001000011BED9E4BB4C3E916BAAAABE0000008090
:100110003F05A84CCDB2D44EB93836A9020C50B91F
:10012000918688083CA6AAAA2ABE000000803F004B
:100130000C9431D40C9492270C9447590C94045B82
:100140000C94B06F0C94316F0C94E5270C94CB5A3F
:100150000C9423200C9411710C94F65A0C94C1E069
:100160000C94DA570C94EF270C9417700C94192008
:100170000C94DE520C94A4270C9455590C94C46D25
:100180000C94DF5A0C940D700C94414A0C94332754
:100190000C94A1F30C942BE10C9441EC0C945E595B
:1001A0000C94E88A0C9414200C949A240C946B59A7
:1001B0000C9480200C94026D0C9411520C9424D455
:1001C0000C94AE270C9483590C9437D40C9470750E
:1001D0000C9432250C948F1F0C9476270C943423A6
:1001E0000C940F200C94CF5A0C948A270C949DD514
:1001F0000C9486B80C9418D40C947DE00C945B5944
:100200000C94557E0C94696F0C94226D0C94E12231
:100210000C94D1270C944F7E0C94FB230C94422019
:100220000C948D4E0C94337C0C94714D0C94CD4BEE
:100230000C94D2220C94D75A0C940C6D0C9401D4CB
:100240000C9469590C9480270C94D67C0C94377EBE
:100250000C941E200C943C230C946C270C94525943
:100260000C943FD40C9409740C94526D0C94746DDE
:100270000C9460270C9409700C94761F0C9453D442
:100280000C94EC6F0C940B700C9422740C94A81FBB
:100290000C94DE4F0C947B4D0C945B7E0C94F3B766
:1002A0000C9413700C94437E0C94DA1F0C94446DE0
:1002B0000C94366D0C9415700C94E1230C946156DB
:1002C0000C941BDF0C94497E0C9461200C94B8278D
:1002D0000C94541F0C945F8A0C94661E0C94EFB718
:1002E0000C9467DF0C9407270C9457D40C94F06F90
:1002F0000C946E590C94458A0C942DD40C94D27B9A
:100300000C94D01E0C94DC220C940F700C94645945
:100310000C94E4DF0C94C16D0C94F91F0C94891EAD
:100320000C9498820C94DB270C94E47E0C94EC8063
:100330000C944DD40C94DCE00C94317E0C94DA4B8C
:100340000C9467270C9428510C94E0870C94C11FDF
:100350000C94DB5A0C943BD40C94C35A0C94BF5AA3
:100360000C9427D40C9411700C9458590C946E86EC
:100370000C94D7220C9420D40C94E04B0C94886DF0
:100380000C9406D40C94EE6C0C941CD40C94017454
:100390000C94C7270C94C75A0C9405700C945A857A
:1003A0000C949DB70C9434E00C94F76F0C943D7E44
:1003B0000C94821C0C94F0B70C940D8B0C94FA8A5C
:1003C0000C94E5900C94F64B0C949A270C9449D419
:1003D0000C94BB550C9401700C9461590C94D35A35
:1003E0000C94606D0C94BA250C94A66F0C94FEE0EE
:1003F0000C9445D44E414E494E495459494E46CD30
:10040000CCCC3D0AD7233C17B7D13877CC2B3295CB
:1004100095E6241FB14F0A000020410000C84200A9
:10042000401C4620BCBE4CCA1B0E5AAEC59D740073
:10043000407A10F35A00A0724E18090010A5D4E8B3
:100440000000E87648170000E40B54020000CA9A46
:100450003B000000E1F50500008096980000004098
:10046000420F000000A086010000001027000000DD
:1004700000E803000000006400000000000A000023
:100480000000000100000000002C76D888DC674FD7
:100490000823DFC1DFAE59E1B1B796E5E3E453C607
:1004A0003AE651997696E8E6C28426EB898C9B62FF
:1004B000ED407C6FFCEFBC9C9F40F2BAA56FA5F4A9
:1004C00090055A2AF75C936B6CF9676DC11BFCE0D1
:1004D000E40D47FEF520E6B500D0ED902E03009424
:1004E0003577050080841E080000204E0A000000B9
:1004F000C80C333333330F986E12831141EF8D21C3
:1005000014893BE65516CFFEE6DB18D1844B381B29
:10051000F77C1D901DA4BBE424203284725E2281EE
:1005200000C9F124ECA1E53D27554E4C4F41442034
:1005300046494C414D454E54004C4F41442046499C
:100540004C414D454E540046494C414D454E54207A
:100550004348414E47450041425300504C41004EF4
:1005600065787420506F696E74002569202F2025EE
:100570007500473239563100436C69636B20746FE4
:1005800020426567696E00486F6D696E6720585933
:100590005A0053746F72652053657474696E677383
:1005A000004C6F61642053657474696E6773004F0B
:1005B0006666004F6E00426564204C6576656C6926
:1005C0006E67004C6576656C20426564004D6F7403
:1005D000696F6E004E6F7A7A6C6500436F6E666964
:1005E0006775726174696F6E00526573746F7265BE
:1005F0002044656661756C7473004C6F61642053B0
:10060000657474696E67730053746F726520536507
:100610007474696E67730050726568656174202434
:1006200020436F6E6600416476616E63656420539B
:10063000657474696E6773004D61696E004D373083
:100640003220542564004D3630302042302054256D
:1006500064004D373032203B2564004D3730312067
:10066000542564004368616E67652046696C616D5E
:10067000656E7400507265686561742043757374AB
:100680006F6D00507265686561742024004261637B
:100690006B004D363030423000436F6E74696E75BA
:1006A00065005075726765206D6F72650052455325
:1006B000554D45204F5054494F4E533A00505249E2
:1006C0004E54205041555345440020204E6F7A7AB5
:1006D0006C653A20005061726B696E672E2E2E0099
:1006E00000005761697420666F720066696C616D05
:1006F000656E74206368616E676500746F20737443
:10070000617274005761697420666F720066696C6B
:10071000616D656E7420756E6C6F616400004E6F64
:100720007A7A6C652068656174696E6700506C65E3
:1007300061736520776169742E2E2E0000507265FA
:10074000737320627574746F6E00746F20686561D6
:1007500074206E6F7A7A6C650000496E73657274EE
:100760002066696C616D656E7400616E64207072E4
:1007700065737320627574746F6E00746F20636F9D
:100780006E74696E7565005761697420666F7200DA
:1007900066696C616D656E74206C6F6164000050F9
:1007A0007265737320427574746F6E00746F20727B
:1007B0006573756D65207072696E740000576169AC
:1007C0007420666F72207072696E7400746F20728C
:1007D0006573756D652E2E2E000057616974206655
:1007E0006F720066696C616D656E742070757267FA
:1007F00065000052756E6177617920576174636896
:100800003A204F4E004D61782054656D70003236AD
:1008100030004D696E2054656D7000350045313AE9
:10082000204550434F53203130304B00505355003A
:1008300047656E657269630050726F746F636F6CA9
:1008400000312E3000426175640031313532303074
:100850000052414D505320312E3400332D506F69DA
:100860006E74204C6576656C696E670045787472AD
:1008700075646572730031006D61726C696E6677C4
:100880002E6F726700524631303000323032312DD7
:1008900031322D323500322E302E392E33004D615B
:1008A000726C696E00546865726D6973746F7273EF
:1008B00000426F61726420496E666F005072696E0B
:1008C00074657220496E666F004D61696E003F006D
:1008D0004261636B0053746F70003F004E4F0059CC
:1008E0004553004E6F204D65646961005072696E1A
:1008F000742066726F6D204D6564696100436861A4
:100900006E6765204D65646961004D32310041625A
:100910006F7574205072696E746572004368616E01
:1009200067652046696C616D656E7400436F6E6625
:10093000696775726174696F6E0054656D70657278
:100940006174757265004D6F74696F6E00526573E6
:10095000756D65205072696E740054756E65005334
:10096000746F70205072696E7400506175736520E9
:100970005072696E7400496E666F205363726565CC
:100980006E003F005374617274205072696E74007F
:1009900043616E63656C005072696E740043616EF2
:1009A0006E6F7420656E746572207375626469720F
:1009B0003A200005202E2E004D61696E002100486E
:1009C0006F74656E6420746F6F20636F6C64004297
:1009D00061636B0050726F63656564004D6F74698D
:1009E0006F6E0044697361626C652053746570704A
:1009F000657273004D383400426564204C6576653D
:100A00006C696E67004175746F20486F6D650047B3
:100A10003238004D61696E005B055705436F6F6C9E
:100A2000646F776E00507265686561742024004EB3
:100A30006F7A7A6C65004D61696E00416476616E13
:100A40006365204B00466C6F77004E6F7A7A6C6559
:100A5000005370656564004D61696E004D3131323F
:100A60002053687574646F776E0053544F5050452F
:100A7000442E20005072696E7465722073746F701A
:100A80007065642064756520746F206572726F7282
:100A9000732E2046697820746865206572726F72C3
:100AA00020616E6420757365204D39393920746F6B
:100AB00020726573746172742E202854656D7065A0
:100AC0007261747572652069732072657365742E26
:100AD00020536574206974206166746572207265A4
:100AE0007374617274696E67290A004E6F204368DF
:100AF00065636B73756D2077697468206C696E65CA
:100B0000206E756D6265722C204C617374204C6987
:100B10006E653A20004E6F20436865636B73756D98
:100B20002077697468206C696E65206E756D6265EA
:100B3000722C204C617374204C696E653A200063FE
:100B40006865636B73756D206D69736D617463683F
:100B50002C204C617374204C696E653A20004C69FE
:100B60006E65204E756D626572206973206E6F74BC
:100B7000204C617374204C696E65204E756D626502
:100B8000722B312C204C617374204C696E653A20B5
:100B9000004D3131300053657269616C20737461AE
:100BA000747573206D69736D617463680A005344D2
:100BB0002072656164206572726F720A00212120C3
:100BC0004B494C4C20636175736564206279204BFE
:100BD000494C4C20627574746F6E2F70696E0A00F8
:100BE0002121204B494C4C20636175736564206260
:100BF0007920746F6F206D75636820696E6163740E
:100C00006976652074696D65202D20637572726543
:100C10006E7420636F6D6D616E643A20006275734F
:100C2000793A2070617573656420666F7220696E11
:100C30007075740A00627573793A20706175736516
:100C40006420666F7220757365720A00627573792D
:100C50003A2070726F63657373696E670A004D6541
:100C60006469612052656D6F766564004D656469E5
:100C70006120496E73657274656400506C656173C0
:100C800065205265736574005052494E5445522098
:100C900048414C5445440025533A202553004B49C4
:100CA0004C4C45442E20005072696E746572206869
:100CB000616C7465642E206B696C6C2829206361FB
:100CC0006C6C6564210A006F70656E005452494770
:100CD0004745524544003A20007A5F6D696E0079BD
:100CE0005F6D617800785F6D696E005265706F723C
:100CF00074696E6720656E6473746F7020737461BD
:100D00007475730A0020746F6F206C6F6E672065B6
:100D10007874727573696F6E2070726576656E7423
:100D200065640A0020636F6C642065787472757363
:100D3000696F6E2070726576656E7465640A000076
:100D40000000000000F042000000005761726E6970
:100D50006E673A20486F6D696E672042756D70202E
:100D600044697669736F72203C20310A00020204E4
:100D70000000F0420000F0420000F0420000A040FD
:100D80000000A04000000040000000010000000141
:100D900000008000555555000000400033333300FB
:100DA000AAAA2A004992240000002000C7711C0052
:100DB00099991900D1451700555515003BB11300FD
:100DC0002449120011111100000010000F0F0F0034
:100DD000E3380E0043790D00CCCC0C00C3300C007E
:100DE000E8A20B0064210B00AAAA0A00703D0A00C9
:100DF0009DD80900427B090092240900DCD3080039
:100E0000888808001042080000000800F0C10700B0
:100E10008787070075500700711C07003EEB06002E
:100E2000A1BC06006990060066660600703E0600DA
:100E30006118060017F4050074D105005BB00500C9
:100E4000B29005006272050055550500783905001D
:100E5000B81E0500050505004EEC040087D404000B
:100E6000A1BD040090A7040049920400C17D0400C4
:100E7000EE690400C7560400444404005C320400D8
:100E80000821040041100400000004003FF00300AA
:100E9000F8E0030026D20300C3C30300CCB503006F
:100EA0003AA803000A9B0300388E0300C0810300A8
:100EB0009F750300D0690300505E03001D530300BB
:100EC00034480300913D0300333303001629030027
:100ED000381F030097150300300C030003030300C1
:100EE0000BFA020049F10200BAE802005CE00200DD
:100EF0002DD802002DD0020059C80200B0C0020057
:100F000031B90200DAB10200AAAA0200A0A30200CD
:100F1000BC9C0200FA9502005C8F0200DF88020090
:100F200082820200457C02002776020027700200C0
:100F3000436A02007C640200D05E02003F59020056
:100F4000C8530200FFFDFCFAF8F6F4F2F0EEECEA0A
:100F5000E9E7E5E3E1E0DEDCDAD9D7D5D4D2D0CFDA
:100F6000CDCBCAC8C7C5C3C2C0BFBDBCBAB9B7B66E
:100F7000B4B3B2B0AFADACAAA9A8A6A5A4A2A1A0D3
:100F80009E9D9C9A99989795949392908F8E8D8B15
:100F90008A8988878684838281807F7E7D7B7A7937
:100FA0007877767574737271706F6E6D6C6B6A6939
:100FB0006867666564636261605F5E5D5C5B5A5929
:100FC00058585756555453525150504F4E4D4C4B04
:100FD0004A4A4948474646454443424241403F3ECB
:100FE0003E3D3C3B3B3A3938383736353534333281
:100FF000323130302F2E2E2D2C2B2B2A2929282729
:101000002726252524232322212120201F1E1E1DC3
:101010001C1C1B1B1A191918181716161515141352
:101020001312121111100F0F0E0E0D0D0C0C0B0AD6
:101030000A09090808070706060505040403030250
:10104000020100000000F0420000F0420000F04207
:1010500000000000000000000000000053657474F0
:10106000696E67732053746F72656400290A0020EB
:1010700062797465733B20637263200053657474F6
:10108000696E67732053746F72656420280048612D
:101090007264636F6465642044656661756C742076
:1010A00053657474696E6773204C6F616465640A7C
:1010B0000020286D6D2900203B204C6576656C6909
:1010C0006E67200020204D3432302053004175746B
:1010D0006F20426564204C6576656C696E67002000
:1010E000480020204D3134352053004D6174657225
:1010F00069616C2068656174757020706172616DE2
:1011000065746572730020204D393030204B004CDF
:10111000696E65617220416476616E6365002020AE
:101120004D3134392043203B20556E69747320695A
:101130006E2043656C736975730A0054656D706544
:1011400072617475726520556E6974730020204752
:101150003231203B004C696E65617220556E6974B6
:101160007300454550524F4D206461746173697A34
:1011700065206572726F722E0A00290A002062795A
:101180007465733B2063726320002073746F726513
:10119000642073657474696E677320726574726914
:1011A00065766564202800202863616C63756C6136
:1011B00074656429210A0020213D200045455052D4
:1011C0004F4D20435243206D69736D6174636820F5
:1011D0002D202873746F7265642920002053697A6A
:1011E000653A2000496E6465783A20000000964315
:1011F000000096430000A0410000C841D7A39D42D3
:10120000D7A39D42000048440000E842F4010000DA
:10121000F40100006400000010270000204D6172FE
:101220006C696E3D563836290A00454550524F4D7F
:101230002076657273696F6E206D69736D6174637A
:10124000682028454550524F4D3D0024F4D430507D
:10125000C38E20C2A24017828B7011127A910D8129
:101260006CD90AA861E108C7586607615143061E98
:101270004B5D05C145A7041A411104093D9803714E
:101280003931034036DB0265339102D43054028099
:101290002E1D02632CEE01752AC501B028A0011095
:1012A0002781018F2564012B244B01E0223401ACFE
:1012B000211F018D200D01801FFC00841EED009771
:1012C0001DDF00B81CD200E61BC600201BBC00645A
:1012D0001AB200B219A8000A19A0006A189900D120
:1012E00017910040178B00B516840031167E00B3AD
:1012F0001579003A157300C7146F0058146A00EE90
:101300001366008813630025135E00C7125B006C30
:1013100012570015125400C111510070114F0021D5
:10132000114B00D61049008D1047004610440002B2
:10133000104200C00F4000800F3E00420F3C0006EC
:101340000F3B00CB0E3800930E37005C0E350027A4
:101350000E3400F30D3200C10D3100900D300060ED
:101360000D2E00320D2D00050D2C00D90C2B00AEDA
:101370000C2900850C29005C0C2700350C27000E79
:101380000C2600E80B2400C40B2400A00B23007DD6
:101390000B23005A0B2100390B2100180B2000F8F9
:1013A0000A1F00D90A1E00BB0A1E009D0A1D0080EC
:1013B0000A1D00630A1C00470A1B002C0A1B0011AF
:1013C0000A1A00F7091A00DD091900C4091900AB4F
:1013D000091900920917007B091800630917004CCE
:1013E00009160036091600200916000A091500F52D
:1013F000081500E0081400CC081400B8081400A474
:10140000081400900813007D0812006B08130058A0
:1014100008120046081200340811002308110012B7
:1014200008110001081100F0071000E0071000D0BB
:10143000071000C0071000B0070F00A107100091AF
:10144000070E0083070F0074070F0065070E005793
:10145000070E0049070E003B070D002E070E002067
:10146000070D0013070D0006070D00F9060C00ED2F
:10147000060D00E0060C00D4060C00C8060C00BCEB
:10148000060C00B0060C00A4060B0099060C008D9B
:10149000060B0082060B0077060B006C060B006142
:1014A000060A0057060B004C060A0042060A0038DE
:1014B000060A002E060A0024060A001A060A001070
:1014C00006090007060A00FD050900F4050900EBFE
:1014D000050900E2050900D9050900D0050900C782
:1014E000050900BE050900B5050800AD050800A501
:1014F0000509009C050800940508008C0508008477
:101500000508007C050800740508006C05070065E7
:101510000508005D050700560508004E0507004751
:101520000507004005080038050700310507002AB7
:10153000050700230507001C050600160507000F18
:101540000507000805060002050700FB040600F574
:10155000040700EE040600E8040600E2040700DBCE
:10156000040600D5040600CF040600C9040600C323
:10157000040600BD040600B7040600B1040500AC73
:10158000040600A6040600A00405009B04060095BE
:10159000040500900406008A040500850405008007
:1015A0000406007A04050075040500700405006B4C
:1015B00004050066040500610405005C040500578D
:1015C000040500520405004D0405004804050043CD
:1015D0000405003E0404003A04050035040500300B
:1015E0000404002C04050027040400230405001E45
:1015F0000404001A04040016040500110404000D7C
:10160000040400090405000404040000040400FCB0
:10161000030400F8030400F4030400F0030400ECE6
:10162000030400E8030400E4030400E0030400DC16
:10163000030400D8030400D4030400D0030400CC46
:10164000030400C8030300C503030024F404D920E5
:101650001BC40C5C0E9804C4095F0265077101F499
:1016600005F900FB04B30048048700C10369005872
:1016700003550003034500BE023A008402310053C3
:10168000022A002902250004022000E4011C00C8EF
:10169000011900AF011700980114008401130071B3
:1016A0000110006101100051010E0043010D0036D0
:1016B000010B002B010B0020010B00150109000C90
:1016C00001090003010800FB000800F3000800EB1B
:1016D000000700E4000600DE000600D8000600D285
:1016E000000600CC000500C7000500C2000500BDD3
:1016F000000400B9000400B5000400B1000400AD0E
:10170000000400A9000400A5000300A20003009F3C
:101710000004009B00030098000300950002009362
:10172000000300900003008D0002008B000300887E
:101730000002008600020084000300810002007F96
:101740000002007D0002007B0002007900020077A9
:1017500000010076000200740002007200010071B6
:101760000002006F0002006D0001006C0002006AC0
:1017700000010069000200670001006600010065C9
:1017800000010064000200620001006100010060CD
:101790000001005F0002005D0001005C0001005BD1
:1017A0000001005A000100590001005800010057D3
:1017B00000010056000100550001005400010053D3
:1017C00000000053000100520001005100010050D0
:1017D0000001004F0001004E0000004E0001004DCE
:1017E0000001004C0001004B0000004B0001004ACA
:1017F00000010049000100480000004800010047C6
:1018000000010046000000460001004500000045C0
:1018100000010044000100430000004300010042B9
:1018200000000042000100410000004100010040B2
:101830000001003F0000003F0001003E0000003EAC
:101840000001003D0000003D0001003C0000003CA4
:101850000000003C0001003B0000003B0001003A9A
:101860000000003A00010039000000390001003892
:101870000000003800000038000100370000003789
:10188000000100360000003600000036000100357F
:101890000000003500000035000100340000003475
:1018A000000000340001003300000033000000336A
:1018B000000100320000003200000032000100315F
:1018C0000000003100000031000100300000003055
:1018D000000000300001002F0000002F0000002F4A
:1018E0000000002F0001002E0000002E0000002E3E
:1018F0000001002D0000002D0000002D0000002D33
:101900000001002C0000002C0000002C0000002C26
:101910000001002B0000002B0000002B0000002B1A
:101920000001002A0000002A0000002A0000002A0E
:101930000001002900000029000000290000002902
:1019400000000029000100280000002800000028F5
:1019500000000028000000280001002700000027E8
:1019600000000027000000270000002700010026DB
:1019700000000026000000260000002600000026CF
:1019800000010025000000250000002500000025C2
:1019900000000025000000250001002400000024B4
:1019A00000000024000000240000002400010023A7
:1019B000000000230000002300000023000000239B
:1019C000000000230000002300010022000000228C
:1019D000000000220000002200000022000000227F
:1019E0000001002100000021000000210000002172
:1019F0000000002100000021000000210001002063
:101A00000000002000000020000000200000002056
:101A10000000002000000020000000200001001F46
:101A20000000001F0000001F0000001F0000001F3A
:101A30000000001F0000001F0001001E0000001E2B
:101A40000000001E0000001E000000232C0000B853
:101A5000220000561800003A0F0000B8080000B13C
:101A6000040000710200003E01000020436F756E0B
:101A70007420583A000045310045002C20737973DA
:101A800074656D2073746F707065642120486561A2
:101A90007465725F49443A2000544845524D414CA8
:101AA0002052554E4157415900546865726D616C22
:101AB0002052756E617761790048656174696E675F
:101AC000204661696C65640048656174696E6720D1
:101AD0006661696C6564004572723A204D415854E4
:101AE000454D50004D415854454D50207472696722
:101AF0006765726564004572723A204D494E5445DF
:101B00004D50004D494E54454D50207472696767E1
:101B10006572656400202F0020403A0020573A008B
:101B2000434F4D4D554E49434154494F4E00445249
:101B30005952554E004552524F525300494E464F4E
:101B4000004543484F006563686F3A004572726F05
:101B5000723A004F4646004F4E00486F74656E64FF
:101B600020746F6F20636F6C640A000A0A42656418
:101B7000204C6576656C20436F7272656374696F83
:101B80006E204D61747269783A00332D706F696E02
:101B9000742070726F62696E6720646F6E652E0AC2
:101BA0000069646C650A00206F662000706F696EC2
:101BB0007420004D616E75616C2047323920004DF4
:101BC000616E75616C204732392061626F72746595
:101BD000640A00202844525952554E290047323990
:101BE000204175746F20426564204C6576656C6990
:101BF0006E67003F2856296572626F7365206C65B9
:101C000076656C20696D706C61757369626C6520B6
:101C100028302D34292E0A0020440020204D323057
:101C200030205300202844697361626C6564293A4E
:101C30000046696C616D656E742073657474696EBD
:101C400067730020204D3230312058004D617820DC
:101C5000416363656C65726174696F6E2028756E8F
:101C60006974732F7332290020204D32303320588D
:101C7000004D617820666565647261746573202823
:101C8000756E6974732F73290020520020204D3225
:101C90003034205000416363656C65726174696F14
:101CA0006E2028756E6974732F7332292028503C7A
:101CB0007072696E742D616363656C3E20523C7274
:101CC0006574726163742D616363656C3E20543C7E
:101CD00074726176656C2D616363656C3E290020CA
:101CE0004A0020540020530020204D32303520423D
:101CF00000416476616E6365642028423C6D696EC4
:101D00005F7365676D656E745F74696D655F75732C
:101D10003E20533C6D696E5F6665656472617465F3
:101D20003E20543C6D696E5F74726176656C5F66CF
:101D3000656564726174653E204A3C6A756E635FD6
:101D40006465763E290020440020490020204D3360
:101D50003031205000486F74656E64205049440053
:101D6000496E736572742066696C616D656E74206E
:101D7000616E6420707265737320627574746F6E27
:101D80000A00507265737320627574746F6E2074EC
:101D90006F2068656174206E6F7A7A6C650A0049FD
:101DA0006E736572742066696C616D656E74206116
:101DB0006E6420707265737320627574746F6E0A3E
:101DC00000203B0020550020204D363033204C00B1
:101DD00046696C616D656E74206C6F61642F756E01
:101DE0006C6F6164003B200020496E76616C696411
:101DF000206578747275646572200047322F47330E
:101E00002062616420706172616D65746572730A2D
:101E100000536C6565702E2E2E00436C69636B2039
:101E2000746F20526573756D652E2E2E004E6F20D7
:101E30004D6F76652E00456E642066696C65206C7A
:101E40006973740A00426567696E2066696C652073
:101E50006C6973740A004E6F206D656469610A00D5
:101E6000286E6F2066696C65290043757272656E15
:101E7000742066696C653A20005344207072696E64
:101E800074696E67206279746520004E6F74205308
:101E900044207072696E74696E670A002E0A0044ED
:101EA000656C6574696F6E206661696C65642C2071
:101EB00046696C653A200046696C652064656C650E
:101EC0007465643A002569730025696D202569737E
:101ED000002569682025696D2025697300256964DE
:101EE000202569682025696D202569730025697999
:101EF00020256964202569682025696D202569737E
:101F0000005072696E742074696D653A20006F6BC1
:101F1000006F666600411B3C1B351B2E1B201B44BB
:101F2000454255473A004D31313320530052463136
:101F30003030204F46462E00434F4E4649475F45BE
:101F400058504F5254004D4541545041434B00436B
:101F50004F4F4C45525F54454D5045524154555298
:101F600045004348414D4245525F54454D5045520E
:101F700041545552450042414259535445505049ED
:101F80004E470041524353004D4F54494F4E5F4D11
:101F90004F44455300544845524D414C5F50524FB9
:101FA00054454354494F4E00455854454E444544CA
:101FB0005F4D3230004C4F4E475F46494C454E41D5
:101FC0004D45004155544F5245504F52545F534474
:101FD0005F5354415455530053445F57524954453D
:101FE000005245504541540053444341524400502F
:101FF000524F4D50545F535550504F525400484F1C
:1020000053545F414354494F4E5F434F4D4D414EF2
:10201000445300454D455247454E43595F50415248
:1020200053455200434153455F4C494748545F4232
:1020300052494748544E45535300544F47474C4527
:102040005F4C494748545300534F465457415245FB
:102050005F504F574552004255494C445F504552DE
:1020600043454E54004C4556454C494E475F44410C
:102070005441005A5F50524F42450052554E4F5501
:1020800054004155544F4C4556454C005052494E12
:10209000545F4A4F420050524F47524553530041FC
:1020A00055544F5245504F52545F54454D50004186
:1020B00055544F5245504F52545F504F5300564F56
:1020C0004C554D455452494300454550524F4D00E3
:1020D00042494E4152595F46494C455F5452414E28
:1020E000534645520053455249414C5F584F4E5F4D
:1020F000584F4646004649524D574152455F4E4162
:102100004D453A4D61726C696E20322E302E392E5B
:102110003320284170722020392032303232203072
:10212000313A32383A31372920534F555243455FBF
:10213000434F44455F55524C3A6769746875622E47
:10214000636F6D2F4D61726C696E4669726D776158
:1021500072652F4D61726C696E2050524F544F431F
:102160004F4C5F56455253494F4E3A312E30204D19
:10217000414348494E455F545950453A52463130E3
:10218000302045585452554445525F434F554E54A4
:102190003A3120555549443A636564653261326687
:1021A0002D343161322D343734382D396231322DAE
:1021B0006335356336326633363766660A002F2F4D
:1021C000004D31343520533C696E6465783E206F94
:1021D0007574206F662072616E67652028302D311E
:1021E000290A003F4A206F7574206F662072616E65
:1021F00067652028302E303120746F20302E33292F
:102200000A0020580020204D61783A20002000204C
:10221000204D696E3A2000203B200020204D3231B5
:1022200031205300536F667420656E6473746F7051
:10223000730046523A0020466C6F773A200064697A
:102240007300656E0043290A0061626C6564202892
:102250006D696E2074656D702000436F6C6420653D
:1022600078747275646573206172652000426564DC
:10227000204C6576656C696E6720004661696C6507
:102280006420746F20656E61626C65204265642015
:102290004C6576656C696E670A00426564204C6522
:1022A00076656C20436F7272656374696F6E204D42
:1022B00061747269783A004F666673657473204181
:1022C00070706C696564004572723A20546F6F20BB
:1022D0006661722100546F6F206661722066726FB2
:1022E0006D207265666572656E636520706F696EDC
:1022F000740A00454550524F4D204F4B0A002E0A9C
:10230000002028302D313029002076616C75652041
:102310006F7574206F662072616E67650041647628
:10232000616E6365204B3D004D383400446F6E652F
:10233000207072696E74696E672066696C650A0048
:102340004D3737004D333100496E76616C6964203A
:1023500065787472756465720A0020204D323036DB
:10236000205800486F6D65206F6666736574004382
:1023700061703A00436F6F6C696E672E2E2E0048B5
:10238000656174696E672E2E2E004531202553003D
:1023900023646566696E652044454641554C545F2B
:1023A000004B6420004B6920004B702000504944D2
:1023B000204175746F74756E652066696E69736807
:1023C0006564212050757420746865206C61737495
:1023D000204B702C204B6920616E64204B6420637D
:1023E0006F6E7374616E74732066726F6D206265B8
:1023F0006C6F7720696E746F20436F6E66696775C6
:10240000726174696F6E2E680A00504944204175EC
:10241000746F74756E65206661696C6564212074E3
:10242000696D656F75740A00504944204175746F79
:1024300074756E65206661696C6564212054656DF4
:10244000706572617475726520746F6F206869675A
:10245000680A00504944204379636C657300255332
:102460002025692F256900204B643A2000204B6904
:102470003A2000204B703A200020436C617373694E
:102480006320504944200A002054753A2000204B14
:10249000753A2000206D61783A2000206D696E3A0F
:1024A000200020643A200020626961733A200057BE
:1024B00061697420666F7220686561742075702E82
:1024C0002E2E00504944204175746F74756E65203E
:1024D00073746172740A00504944204175746F74BA
:1024E000756E65206661696C6564212054656D7048
:1024F0006572617475726520746F6F2068696768B2
:102500000A00504944204175746F74756E652066E9
:1025100061696C656421204261642068656174654D
:10252000722069640A00504944204175746F7475C3
:102530006E650042656400456E636C6F737572650D
:10254000002568753A253032687500253032687587
:102550003A253032687500253032687527253032CB
:102560006875002D2D2D00534400202020202020B0
:10257000200020202020005072696E742041626F7C
:1025800072746564004D32350050617573696E6711
:102590002E2E2E004D323400454550524F4D2056C0
:1025A000657273696F6E204572726F720045455097
:1025B000524F4D20496E646578204572726F7200EB
:1025C000454550524F4D20435243204572726F7221
:1025D000003F0049676E6F72650052657365740055
:1025E000496E697469616C697A6520454550524F3E
:1025F0004D00A10000006900A20000006300B000CF
:1026000000000900C10000004100C20000004100BC
:10261000C30000004100C40000004100C5000000EC
:102620004100C60000004145C70000004300C8004B
:1026300000004500C90000004500CD000000490031
:10264000D10000004E00D50000004F00D600000071
:102650004F00D70000007800DC0000005500DD00CE
:1026600000005900E00000006100E100000061008E
:10267000E20000006100E30000006100E4000000EF
:102680006100E50000006100E60000006165E70010
:1026900000006300E80000006500E900000065003C
:1026A000EA0000006500EB0000006500EC0000009F
:1026B0006900ED0000006900EE0000006900EF0015
:1026C00000006900F10000006E00F20000006F00E1
:1026D000F30000006F00F40000006F00F500000040
:1026E0006F00F60000006F00F80000006F00F900B6
:1026F00000007500FA0000007500FB000000750086
:10270000FC0000007500FD0000007900FF000000E3
:10271000790004010000410005010000610006018C
:10272000000043000701000063000C0100004300AB
:102730000D01000063000E01000044000F010000C5
:1027400064001101000064001901000065001A0115
:10275000000045001B01000065001F01000067002C
:102760003001000049003101000069004101000012
:102770004C00420100006C00430100004E00440187
:1027800000006E00480100006E0058010000520079
:102790005901000072005A01000053005B01000063
:1027A00073005F01000073006001000053006101CD
:1027B000000073006501000074006F0100007500E7
:1027C0007C0100007A007D0100005A007E010000BB
:1027D0007A00920100006600E302000078002220E7
:1027E00000002E001E210000507822210000544DD0
:1027F000902100003C2D922100002D3EB0210000D0
:102800000300BB21000004003C2200007E0048229F
:1028100000007E3D60220000213D612200003D005D
:10282000642200003C3D652200003E3DF123000093
:102830000700A03000003D0021F301000200C2F4B7
:1028400001000500A2000000EC00B0000000DF0065
:10285000E4000000E100F6000000EF00F7000000D7
:10286000FD00FC000000F500E3020000EB00870320
:102870000000A5008F030000F40098030000F200A0
:102880009E030000E300A3030000F600A90300007C
:10289000F400AC030000E000AD030000E300B1036E
:1028A0000000E000B2030000E200B5030000E30016
:1028B000B8030000F200BC030000E400BE03000007
:1028C000E300C0030000F700C1030000E600C303FB
:1028D0000000E500902100007F00922100007E00B2
:1028E0001A220000E8001E220000F30088250000E4
:1028F000FF0002300000A1000C300000A2000D30EB
:102900000000A3009B300000DE009C300000DF00D0
:10291000A03000003D00A1300000A700A230000060
:10292000B100A3300000A800A4300000B200A53020
:102930000000A900A6300000B300A7300000AA00E4
:10294000A8300000B400A9300000AB00AA3000009D
:10295000B500AB300000B600AC300000B6DEAD30E4
:102960000000B700AE300000B7DEAF300000B800A6
:10297000B0300000B8DEB1300000B900B230000065
:10298000B9DEB3300000BA00B4300000BADEB530B2
:102990000000BB00B6300000BBDEB7300000BC005A
:1029A000B8300000BCDEB9300000BD00BA30000015
:1029B000BDDEBB300000BE00BC300000BEDEBD305E
:1029C0000000BF00BE300000BFDEBF300000C0000E
:1029D000C0300000C0DEC1300000C100C2300000C5
:1029E000C1DEC3300000AF00C4300000C200C530FB
:1029F0000000C2DEC6300000C300C7300000C3DEE6
:102A0000C8300000C400C9300000C4DECA30000075
:102A1000C500CB300000C600CC300000C700CD3070
:102A20000000C800CE300000C900CF300000CA004E
:102A3000D0300000CADED1300000CADFD230000042
:102A4000CB00D3300000CBDED4300000CBDFD5305C
:102A50000000CC00D6300000CCDED7300000CCDF48
:102A6000D8300000CD00D9300000CDDEDA300000D3
:102A7000CDDFDB300000CE00DC300000CEDEDD300C
:102A80000000CEDFDE300000CF00DF300000D000DD
:102A9000E0300000D100E1300000D200E230000060
:102AA000D300E3300000AC00E4300000D400E53097
:102AB0000000AD00E6300000D500E7300000AE00B9
:102AC000E8300000D600E9300000D700EA3000000E
:102AD000D800EB300000D900EC300000DA00ED3017
:102AE0000000DB00EF300000DC00F2300000A60048
:102AF000F3300000DD00F4300000B3DEF7300000FA
:102B0000DCDEFA300000A6DEFB300000A500FC3061
:102B10000000B000FD300000A400074E0000FB00E4
:102B200086510000FC0043530000FA0064FF0000DF
:102B3000A40065FF0000A50066FF0000A60067FF77
:102B40000000A70068FF0000A80069FF0000A900BE
:102B50006AFF0000AA006BFF0000AB006CFF0000E2
:102B6000AC006DFF0000AD006EFF0000AE006FFF17
:102B70000000AF0070FF0000B00071FF0000B10066
:102B800072FF0000B20073FF0000B30074FF00008A
:102B9000B40075FF0000B50076FF0000B60077FFB7
:102BA0000000B70078FF0000B80079FF0000B9000E
:102BB0007AFF0000BA007BFF0000BB007CFF000032
:102BC000BC007DFF0000BD007EFF0000BE007FFF57
:102BD0000000BF0080FF0000C00081FF0000C100B6
:102BE00082FF0000C20083FF0000C30084FF0000DA
:102BF000C40085FF0000C50086FF0000C60087FFF7
:102C00000000C70088FF0000C80089FF0000C9005D
:102C10008AFF0000CA008BFF0000CB008CFF000081
:102C2000CC008DFF0000CD008EFF0000CE008FFF96
:102C30000000CF0090FF0000D00091FF0000D10005
:102C400092FF0000D20093FF0000D30094FF000029
:102C5000D40095FF0000D50096FF0000D60097FF36
:102C60000000D70098FF0000D80099FF0000D900AD
:102C70009AFF0000DA009BFF0000DB009CFF0000D1
:102C8000DC009DFF0000DD009EFF0000DE009FFFD6
:102C90000000DF00E5FF00005C0000000000010212
:102CA00004040000001C1C0C0404040201000000C9
:102CB000000004081000000000002D2D2D2D2D2DEA
:102CC000007C4D61726C696E7C002D2D2D2D2D2D9B
:102CD00000001C1F11111F00000006191803130C1F
:102CE00000040E1F041C000000000E1315110E003E
:102CF000001C10181705060500040A0A0A0A11111B
:102D00000E0C12120C00000000001F1511151F0000
:102D1000004C6F6164206D6D00556E6C6F616420B6
:102D20006D6D0046696C2E204469612E0045206956
:102D30006E206D6D5E3300416476616E6365204B7D
:102D4000004D333033205531204525692053256906
:102D500000504944204175746F74756E65202A00D7
:102D600020022046616374002002204D617800201B
:102D700002204D696E004F6666004F6E004175740B
:102D80006F74656D70004D696E2054726176656C6C
:102D90002056656C004D696E2056656C6F636974D2
:102DA00079004D617820452056656C004D61782092
:102DB0005A2056656C004D617820592056656C008C
:102DC0004D617820582056656C004D617820452073
:102DD000416363656C004D6178205A2041636365EF
:102DE0006C004D6178205920416363656C004D6132
:102DF00078205820416363656C0054726176656C7D
:102E000020416363656C0052657472616374204194
:102E10006363656C00416363656C00452073746592
:102E200070732F6D6D005A2053746570732F6D6D24
:102E300000592053746570732F6D6D0058205374C2
:102E40006570732F6D6D00416476616E63656420FB
:102E500053657474696E6773003F0043616E636508
:102E60006C00496E6974004D34323800496E6974E3
:102E700069616C697A6520454550524F4D0046693D
:102E80006C616D656E740054656D7065726174750A
:102E900072650053746570732F6D6D004A756E63B3
:102EA00074696F6E2044657600416363656C65727A
:102EB0006174696F6E0056656C6F63697479005355
:102EC000657420486F6D65204F6666736574730086
:102ED000436F6E66696775726174696F6E004C65E9
:102EE00076656C696E6720446F6E6521004D6F7664
:102EF00065205A0047323956310043616E6E6F7457
:102F0000206F70656E2073756264697220004D6574
:102F100064696120496E6974204661696C0053449C
:102F20002063617264206F6B0A006F70656E526F70
:102F30006F74206661696C65640A00766F6C756DEC
:102F4000652E696E6974206661696C65640A004E5D
:102F50006F20534420636172640A000A4D323400CA
:102F60004D3233202573002E0A006F70656E206687
:102F700061696C65642C2046696C653A200046697D
:102F80006C652073656C65637465640A0020536921
:102F90007A653A200046696C65206F70656E6564DD
:102FA0003A2000454E4420535542524F5554494E05
:102FB000450A002220706F73002220706172656ED6
:102FC000743A2200535542524F5554494E452043BE
:102FD000414C4C207461726765743A2200537562EB
:102FE00063616C6C204F766572666C6F7700457814
:102FF000636565646564206D617820535542524F66
:103000005554494E452064657074683A005772699A
:1030100074696E6720746F2066696C653A2000667B
:103020007265736800646F696E67002066696C651D
:103030003A20004E6F7720002F6175746F25632E44
:1030400067007C3C3E5E2B3D3F2F5B5D3B2C2A2284
:103050005C0000000A0B02090C0D0E0807030401B6
:103060000000000000000000000000000000000060
:10307000000000000000000000000000000012112D
:103080001000000000000000000000000000000030
:1030900000000000000000006D61726C696E6677D0
:1030A0002E6F7267006D61726C696E66772E6F723B
:1030B0006700322E302E392E3300322E302E392E2C
:1030C00033006D61726C696E66772E6F7267006D8A
:1030D00061726C696E66772E6F72670020322E30D7
:1030E0002E392E330070012C0190012701B00122EE
:1030F00001C0011D01F00118011002130130020E80
:10310000016002090190020401C002FF000003FAFD
:10311000004003F5008003F000D003EB002004E63C
:10312000007004E100E004DC004005D700C005D2D7
:10313000004006CD00D006C8008007C3003008BE9E
:1031400000F008B900C009B400B00AAF00B00BAA83
:1031500000D00CA500000EA000500F9B00C01096E0
:10316000005012910000148C00C0158700B0178227
:1031700000B0197D00D01B7800001E730040206E47
:103180000090226900F024640040275F0090295AD3
:1031900000E02B5500102E500020304B001032461E
:1031A00000E033410090353C001037370070383272
:1031B00000A0392D00B03A2800A03B2300603C1E3F
:1031C00000103D1900903D1400103E0F00703E0AA3
:1031D00000C03E0500003F0000403FFBFF803FF67F
:1031E000FFC03FF1FF2020506C616E6E657242752A
:1031F0006666657242797465733A2000204672658E
:1032000065204D656D6F72793A200020436F6D70B7
:10321000696C65643A204170722020392032303266
:10322000320A00204C6173742055706461746564C7
:103230003A20323032312D31322D3235207C20414E
:103240007574686F723A20286E6F6E652C20646505
:103250006661756C7420636F6E666967290A004D3C
:1032600061726C696E20322E302E392E330A0020A6
:10327000536F6674776172652052657365740A00D6
:10328000205761746368646F672052657365740AC0
:10329000002042726F776E206F75742052657365DF
:1032A000740A002045787465726E616C20526573F3
:1032B00065740A00506F77657255700A0073746107
:1032C00072740A004732385859004D31303031009D
:1032D0006F6B006572726F722077726974696E67C6
:1032E00020746F2066696C650A00446F6E652073F8
:1032F0006176696E672066696C652E0A004D323909
:1033000000456E6473746F7073002553202563202D
:10331000256320256320256300205A3A0020593A6E
:103320000020583A00656E6473746F70732068698A
:10333000743A2000004D6F76652025736D6D004D49
:103340006F766520302E316D6D004D6F76652031C2
:103350006D6D004D6F76652031306D6D004D6F766F
:10336000652041786973004D6F76652045787472E9
:1033700075646572004D6F7665205A004D6F7665F5
:103380002059004D6F76652058005072696E742088
:1033900066726F6D204D6564696100486F6D696E7E
:1033A00067204661696C656400FF01FF4572726FBA
:1033B000722077726974696E6720746F204545507A
:1033C000524F4D210A00204500205A00205900206C
:1033D000204D393220580053746570732070657227
:1033E00020756E697400220A00556E6B6E6F776EE1
:1033F00020636F6D6D616E643A2022005246313059
:10340000302052656164792E005072696E74696E65
:10341000672E2E2E005072696E7420506175736590
:103420006400DB0FC93F45BCDA3F8FB30240FCF0BC
:10343000274056946140FE4B9B4084A5D840E02332
:103440001841346A5641E859974164DBD5416E27EB
:103450001742B4B75542CE1A9742C8AED542B58886
:103460005A43D40684BFA65FA7BF7443E0BF10B120
:103470001AC01C2C58C0E8F697C0B849D6C04E4EAA
:1034800017C124D355C1802497C1A0B5D5C1121A44
:1034900017C244AE55C2781797C26CACD5C26788C4
:1034A0005AC320746F6F206C6F6E672065787472DA
:1034B0007573696F6E2070726576656E7465640AE7
:1034C0000020636F6C6420657874727573696F6E29
:1034D0002070726576656E7465640A00486F6D656C
:1034E0002025732573257320466972737400204567
:1034F0003A00205A3A0020593A00583A006F6B0AB5
:1035000000526573656E643A2000000022002500B9
:1035100028002B002E0031003400020100000501BC
:1035200008010B0100002100240027002A002D00C3
:103530003000330001010000040107010A01050504
:103540000505070508080808020202020A0A080819
:103550000404040401010101010101010303030347
:1035600003030303040707070C0C0C0C0C0C0C0CD6
:103570000202020206060606060606060B0B0B0BE7
:103580000B0B0B0B0102102020080810204010200C
:103590004080020102010804020101020408102017
:1035A0004080804020100804020180040201804015
:1035B000201008040201080402010102040810207E
:1035C0004080010204081020408041ECA1F3112446
:1035D0001FBECFEFD1E2DEBFCDBF00E00CBF84B78E
:1035E0008093F31414BE0FB6F894A89580916000F0
:1035F000886180936000109260000FBE13E0A0E02D
:10360000B2E0EAEBF5E002E00BBF02C007900D92DA
:10361000A437B107D9F724E1A4E7B3E001C01D92B4
:10362000A33FB207E1F71AE1C6EEDAE100E006C017
:1036300021970109802FFE010F943E02C53ED1075C
:1036400080E00807A9F70E943DED0D94CB020C9491
:103650000000FC0190E1A9E9B4E001900D929A9577
:10366000E1F70895EF92FF920F931F93E092CC033E
:10367000F092CD030093CE031093CF036093D00359
:103680007093D1038093D2039FEFFF27621B730BCC
:10369000840B30F4809570956195790B890B99278F
:1036A0009093D504A6E06A9F0092C904512DEE279D
:1036B0007A9F500DE11D8A9FE00D5093CA04E0935C
:1036C000CB04AFE06A9F0092CD04512DEE277A9F84
:1036D000500DE11D8A9FE00D5093CE04E093CF047E
:1036E000AAE06A9F0092D104512DEE277A9F500DD7
:1036F000E11D8A9FE00D5093D204E093D3041F9103
:103700000F91FF90EF9008959F92AF92BF92CF924A
:10371000DF92EF92FF920F931F93CF93DF9300D02E
:103720001F921F92CDB7DEB7E4E4FFE00027BB276E
:10373000462F572FA82FAA2341F4A52F542FB85F47
:10374000AA2319F4A52F5527B85FA03138F4529554
:10375000A295452F4F70507FA42BBC5FA03428F456
:10376000550FAA1F550FAA1FBE5FA03818F4550F9A
:10377000AA1FB395550FAA1FEA0FF01F449151E0FD
:10378000AA27B85081F1C8F0B0FF02C0440F551FFE
:10379000B1FF04C0440F551F440F551FB2FF06C0B0
:1037A00052954295142F1F70407F512BB3FF1BC0C1
:1037B000A52F542F44270C94F31BB195B0FF02C0E2
:1037C00055954795B1FF04C0559547955595479533
:1037D000B2FF05C05295407F4295452B5F70B3FF05
:1037E00002C0452F5527DD24CC24BB24B2E0649FC2
:1037F000D018C108B00AB00B749FC018B108B00B44
:10380000849FB018B109659FC018B108B00B759FAF
:10381000B018B109859FB0196A9FB018B1097A9F95
:10382000B0194D9DA12C99243327992722275D9DFE
:10383000A00C911C301F901F201FAD9D900C311DBE
:10384000901F201F4C9DA00C911C301F901F201F0B
:103850005C9D900C311D901F201FAC9D300D911D63
:10386000201F4B9D900C311D901F201F5B9D300D24
:10387000911D201FAB9D900D211D4B9F300D911D63
:10388000201F5B9F900D211DAB9F200DB1E0BB243D
:10389000CC24DD24639FD018C108B00AB00B739FFD
:1038A000C018B108B00B839FB018B109699FC01848
:1038B000B108B00B799FB018B109899FB019629F08
:1038C000B018B109729FB019D61AC70AB80A20F009
:1038D000B1E03B0F901F201F1124792F632F90E040
:1038E000822F0F900F900F900F900F90DF91CF913C
:1038F0001F910F91FF90EF90DF90CF90BF90AF900E
:103900009F900895CF92DF92EF92FF928091C6032D
:10391000882309F457C0C090C203D090C303E0903D
:10392000C403F090C50320E030E0A901C701B6014F
:103930000E944AF8882309F445C020E030E040E0C6
:103940005FE3C701B6010E94B0F89B01AC010E9481
:10395000B0F82BED3FE049E450E40E94B0F89B0141
:10396000AC0160E070E080E89FE30E94C5FF6B015E
:103970007C01C092B403D092B503E092B603F092FA
:10398000B7036091190270911A02072E000C880B80
:10399000990B0E9451F82AE037ED43E25CE30E9464
:1039A000B0F8A70196010E94B0F860935602709398
:1039B00057028093580290935902FF90EF90DF9046
:1039C000CF900895C12CD12C80E8E82E8FE3F82EFB
:1039D000D0CF2F923F924F925F926F927F928F92B1
:1039E0009F92AF92BF92CF92DF92EF92FF920F938E
:1039F0001F93CF93DF93CDB7DEB72C970FB6F89414
:103A0000DEBF0FBECDBF9C878B878B011A013E8323
:103A10002D83DB018D909D90AD90BC90FA01C0800C
:103A2000D180E280F380D9018D919D910D90BC9160
:103A3000A02D89839A83AB83BC83EB85FC8524818D
:103A4000358146815781C501B4010E94B0F82B0130
:103A50003C01AB85BC8550962D913D914D915C917B
:103A60005397C701B6010E94B0F89B01AC01C30196
:103A7000B2010E94CBFE2B013C01EB85FC85248D1D
:103A8000358D468D578D69817A818B819C810E940D
:103A9000B0F89B01AC01C301B2010E94CBFE6F8361
:103AA000788789879A87AB85BC8518962D913D913B
:103AB0004D915C911B97C501B4010E94B0F82B0198
:103AC0003C01EB85FC852489358946895789C701E6
:103AD000B6010E94B0F89B01AC01C301B2010E9483
:103AE000CBFE2B013C01AB85BC8590962D913D9181
:103AF0004D915C91939769817A818B819C810E9421
:103B0000B0F89B01AC01C301B2010E94CBFE2B01B6
:103B10003C01EB85FC852081318142815381C501C7
:103B2000B4010E94B0F84B015C01AB85BC851C96CA
:103B30002D913D914D915C911F97C701B6010E9457
:103B4000B0F89B01AC01C501B4010E94CBFE6B0132
:103B50007C01EB85FC85208D318D428D538D6981F3
:103B60007A818B819C810E94B0F89B01AC01C701D6
:103B7000B6010E94CBFED8016D937D938D939C93EB
:103B800013978F819885A985BA85F10180839183E8
:103B9000A283B383AD81BE814D925D926D927C9282
:103BA00013972C960FB6F894DEBF0FBECDBFDF91F2
:103BB000CF911F910F91FF90EF90DF90CF90BF902A
:103BC000AF909F908F907F906F905F904F903F90BD
:103BD0002F9008958F929F92AF92BF92CF92DF92D3
:103BE000EF92FF92FC01C080D180E280F38020E060
:103BF00030E040E251E4C701B6010E94B0F820E095
:103C000030E040E251E40E94B0F84B015C0120E05A
:103C100030E0A901C701B6010E944AF820E030E077
:103C200040EA50E487FF04C020E030E040EA50EC76
:103C3000C501B4010E94CBFE20E030E040E251E437
:103C40000E94C5FF0F9437009B018BE237FF05C030
:103C500022273327261B370B8DE280938103C9016E
:103C600068EE73E00F940B02CB01EAE0F0E0BF01D5
:103C70000F940B02805D80938203C90164E670E0BB
:103C80000F940B02CB01BF010F940B02805D809358
:103C90008303C901BF010F940B02282FCB01BF0181
:103CA0000F940B02805D809384038EE280938503E2
:103CB000205D2093860381E893E0FF90EF90DF90F2
:103CC000CF90BF90AF909F908F9008956091190210
:103CD00070911A02072E000C880B990B0E9451F864
:103CE0002AE037ED43E25CE30E94B0F82091B40390
:103CF0003091B5034091B6035091B7030E94B0F8DC
:103D00006093560270935702809358029093590221
:103D10000895809118128823C1F081508093181261
:103D2000EDE9F0E1882351F08150990B2BE1289FB8
:103D3000F001299FF00D1124E65FFE4E8BE1A2E811
:103D4000B0E101900D928A95E1F7209118122111AE
:103D500005C08091231280648093231281E090E05B
:103D6000A0E0B0E0211103C080E090E0DC0180938E
:103D7000580690935906A0935A06B0935B0610928A
:103D8000520681E08093680683E080935402089590
:103D900081E080937703089582E08093770308950C
:103DA0000F931F93CF93DF93EC018B0120E030E062
:103DB000A90169E00E94F6DF81110AC040E150E0EC
:103DC000B801CE01DF91CF911F910F910C9488DF44
:103DD00080E18C83CE010E9413DF80E0DF91CF91E0
:103DE0001F910F9108954091CB0321E042276CE091
:103DF00070E00C94E0CF4091CB0321E0422764E0D7
:103E000070E00C94E0CF4091CB0321E0422761E0C9
:103E100070E00C94E0CF4091CB0321E0422761E0B9
:103E200070E00C94E0CF4091CB0321E0422768E0A2
:103E300070E00C94E0CF4091CB0321E042276CE08E
:103E400070E00C94E0CF41E061E070E00C94E0CFD2
:103E50004091CB0321E042270C94E0CF6CE070E06E
:103E60000C94E2D564E070E00C94E2D561E070E07F
:103E70000C94E2D561E070E00C94E2D56CE070E067
:103E80000C94E2D5CF93C82FCB010E940F9186ED01
:103E90009CE00E940F9187EC9CE0CC2311F08CEC0D
:103EA0009CE0CF910C94499120E040E070E060E00C
:103EB0008EE190E20C94C57321E020939203FC0103
:103EC00080819181A281B38180930102909302024B
:103ED000A0930302B093040220E040E070E060E0B1
:103EE00080915306909154060C94C573CF93DF9341
:103EF00000D01F92CDB7DEB78DEC9CECACECBCE3F0
:103F000089839A83AB83BC83CE0101960E945C1F98
:103F10000F900F900F900F90DF91CF910895CF9356
:103F2000DF9300D01F92CDB7DEB78DEC9CECACECEC
:103F3000BDE389839A83AB83BC83CE0101960E9443
:103F40005C1F0F900F900F900F90DF91CF9108950D
:103F5000CF93DF9300D01F92CDB7DEB780E090E023
:103F6000A0E8BFE389839A83AB83BC83CE0101962B
:103F70000E945C1F0F900F900F900F90DF91CF91D8
:103F80000895CF93DF9300D01F92CDB7DEB780E0C6
:103F900090E0A0E2B1E489839A83AB83BC83CE0135
:103FA00001960E945C1F0F900F900F900F90DF9171
:103FB000CF9108958091B80381110CC080911B02AC
:103FC00090911C0201972091EA033091EB0328178E
:103FD00039073CF082E996E0909309068093080641
:103FE000089520E040E070E060E08BE79DE40C94F1
:103FF000C57381E0809392031092FA0510922B040E
:1040000020E040E070E060E081EE93E20E94C57342
:104010008FE09AE09093090680930806089562ED78
:1040200072E282E00C9436EA67ED72E281E00C9471
:1040300036EA6CED72E280E00C9436EA60E870E2F9
:1040400083E00C9436EACF92DF92EF92FF920F93C7
:104050001F938DEBC82E89E0D82EF12CE12C0FEBAD
:1040600019E030E020E044E55FE16FEC79E084EDB9
:1040700099E00E94D17A1F910F91FF90EF90DF900D
:10408000CF900895CF92DF92EF92FF920F931F93FC
:104090008AEDC82E88E0D82EF12CE12C0CE119E035
:1040A00030E020E04AED5FE16CED78E08FED98E0E4
:1040B0000E94D17A1F910F91FF90EF90DF90CF90E7
:1040C0000895CF92DF92EF92FF920F931F938EECA1
:1040D000C82E88E0D82EF12CE12C0FE519E030E055
:1040E00020E04AEF5AE860ED78E085ED98E00E9424
:1040F000D17A1F910F91FF90EF90DF90CF900895AC
:10410000CF93DF9300D01F92CDB7DEB780914C06DE
:1041100010924C06882359F0109292030E94637407
:104120000F900F900F900F90DF91CF9108956091B5
:1041300058067091590680915A0690915B06611558
:1041400071058105910561F10E9451F820910102EC
:104150003091020240910302509104020E94B0F893
:104160002091660230916702409168025091690285
:104170000E94CBFE60936602709367028093680290
:104180009093690283E00E94607881E080935402FA
:10419000109258061092590610925A0610925B0619
:1041A00080915402882309F4BBCF20914D063091B1
:1041B0004E0640914F0650915006609166027091F4
:1041C000670280916802909169020E94CAFE698329
:1041D0007A838B839C83CE0101960E94EA1DBC01E9
:1041E00087E693E30E94907C9BCF3F924F925F9231
:1041F0006F927F928F929F92AF92BF92CF92DF92F7
:10420000EF92FF920F931F93CF93DF93CDB7DEB75B
:104210002C970FB6F894DEBF0FBECDBF9C878B875F
:10422000362E80914C0610924C068823E1F01092B5
:1042300092030E9463742C960FB6F894DEBF0FBEF3
:10424000CDBFDF91CF911F910F91FF90EF90DF9045
:10425000CF90BF90AF909F908F907F906F905F9026
:104260004F903F9008956091580670915906809143
:104270005A0690915B06611571058105910509F457
:1042800057C020911D02222309F4B5C020911E02BF
:104290002111B1C021E0321609F48BC0A2E03A1618
:1042A00009F498C0C0901F02D0902002E090210233
:1042B000F090220240902B0250902C0260902D0230
:1042C00070902E020E9451F820910102309102025A
:1042D00040910302509104020E94B0F86F837887E6
:1042E00089879A87B4E03B9E80011124F801E65A41
:1042F000FD4FFE83ED8320813181428153810E94F5
:10430000CBFE4B015C01A3019201C701B6010E94E3
:104310004AF881117FC0F801E65AFD4F80829182F0
:10432000A282B382832D0E94607881E08093540240
:10433000109258061092590610925A0610925B0677
:1043400080915402882309F476CFF4E03F9EC001A7
:104350001124FC01E65AFD4F8B5A924FDC012D913E
:104360003D914D915C9160817181828193810E9428
:10437000CBFE6B017C01C982DA82EB82FC822DECE0
:104380003CEC4CEC5DE36091010270910202809183
:104390000302909104020F942B0187FD66C0CE01A9
:1043A00001960E94EA1DBC018B859C850E94907C31
:1043B00042CFC0902302D0902402E0902502F090DA
:1043C000260240902F02509030026090310270908F
:1043D000320278CFC0902702D0902802E0902902C4
:1043E000F0902A02409033025090340260903502DF
:1043F0007090360267CF412C20E5522E23EC622EBE
:1044000027E4722EC12C30E5D32E33ECE32E37ECAB
:10441000F32E58CF20E030E0A9016F81788589859F
:104420009A850E944AF887FF10C0A7019601C5012E
:10443000B4010E944AF887FF6ECFAD81BE81CD9254
:10444000DD92ED92FC9213976DCFA3019201C5010D
:10445000B4010F942B0118160CF05DCFED81FE8195
:1044600040825182628273825DCF20E030E040E280
:1044700051E4C701B6010E94B0F820E030E04AE7FD
:1044800054E40E94B0F84B015C0120E030E0A90147
:10449000C701B6010E944AF820E030E040EA50E44B
:1044A00087FF04C020E030E040EA50ECC501B401D1
:1044B0000E94CBFE20E030E040E251E40E94C5FFC4
:1044C0000F9437006B017C01F7FC62C020EA36E8EC
:1044D00041E050E00F941F02CA01B9012AE030E028
:1044E00040E050E00F941F02605D60938003C701BD
:1044F000B60120E137E240E050E00F941F028AE06D
:10450000882E912CA12CB12CCA01B901A5019401CE
:104510000F941F02605D60938103C701B60128EE0E
:1045200033E040E050E00F941F02CA01B901A50139
:1045300094010F941F02605D609382038EE280936A
:104540008303C701B60124E630E040E050E00F9459
:104550001F02CA01B901A50194010F941F02605DF9
:1045600060938403C701B601A50194010F941F0253
:10457000162FCA01B901A50194010F941F02605DB5
:1045800060938503105D1093860380E893E00BCF62
:10459000F094E094D094C094C11CD11CE11CF11C97
:1045A0006DE2A3CF62E085E793E30C94F52061E030
:1045B0008CE793E30C94F52060E083E893E30C949C
:1045C000F520AF92BF92CF92DF92EF92FF920F93BE
:1045D0001F93CF93DF93CDB7DEB7ADB6BEB6809154
:1045E000D20F68E776E0882311F062ED7FE0FB01EF
:1045F00001900020E9F7CF01861B970B01962DB79C
:104600003EB7281B390B0FB6F8943EBF0FBE2DBF27
:104610008DB79EB701967C0180E2EDB7FEB781832E
:10462000C70101960F949C0282E8C82E89E0D82E1B
:1046300004E819E030E020E044E353E260E979E087
:1046400087E999E00E94D17A0FB6F894BEBE0FBEFA
:10465000ADBEDF91CF911F910F91FF90EF90DF9052
:10466000CF90BF90AF90089588E796E00E941AE23D
:104670000E9401740C9457CFAF92BF92CF92DF92F9
:10468000EF92FF920F931F93CF93DF9361E081E04E
:104690000E94E372C091520604E00C0FD1E089E958
:1046A000E82E86E0F82E12E01C1B92EAC92E96E056
:1046B000D92EBD2EBC1AAC2EA194C11130C0DD2361
:1046C000D9F0809151061816BCF0409158065091CF
:1046D000590660915A0670915B064F5F5F4F6F4FAE
:1046E0007F4F409358065093590660935A06709333
:1046F0005B068F5F8093510680915402882341F0BE
:1047000030E020E041E06DEA76E08A2D0E94DA890F
:10471000CF5F0C13D2CF83E080934B061FC0C13014
:1047200041F590915106913069F0809154028823AF
:10473000C9F11F92DF92CF92BF9281E0913051F187
:1047400080E028C080914C0610924C06882369F3C3
:10475000C093770380916806882339F3DF91CF9166
:104760001F910F91FF90EF90DF90CF90BF90AF908F
:104770000895C23069F6909151069230A9F0809167
:104780005402882379F01F92FF92EF921F9381E0E9
:104790009230B1F68F930E94B27A0F900F900F90E3
:1047A0000F900F90D0E0B4CF80914C0610924C0641
:1047B000882329F3C0937703809168068823F9F250
:1047C000CDCF80915402882341F030E020E041E0D9
:1047D00067E875E081E00E94DA8980912B04877098
:1047E000873041F420E040E070E060E083E899E544
:1047F0000C94C5730895EF92FF920F931F93CF937C
:10480000DF93CDB7DEB765970FB6F894DEBF0FBE66
:10481000CDBF80914C0610924C06882379F00E94FF
:10482000637465960FB6F894DEBF0FBECDBFDF91FF
:10483000CF911F910F91FF90EF90089560E084E079
:104840000E94E3720091520610E08AE3F82E90E293
:10485000E92E011130C080915402882341F030E0EC
:1048600020E043E06EE978E0812F0E94DA89F98246
:10487000EA8242E150E066E778E0CE0103960E94CA
:10488000B8F78C8987FD1C8A0530C1F580915402E8
:10489000882349F09E012F5F3F4F41E06CE678E0AE
:1048A000812F0E94DA890F5F1F5F143091F687E035
:1048B00080934B06B6CF013051F480915402882387
:1048C000B1F230E020E041E066E978E0CDCF02309F
:1048D00009F580915402882351F230E020E041E054
:1048E0006BE878E0C1CF80915402882309F4BFCFF0
:1048F00030E020E043E065E878E0B6CF063099F696
:1049000080915402882379F230E020E041E06BE5A9
:1049100078E0C6CF033039F3043009F0A8CF809196
:104920005402882309F4A3CF30E020E041E068E797
:1049300078E09ACFEF92FF920F931F93CF93DF937C
:10494000CDB7DEB765970FB6F894DEBF0FBECDBF0B
:1049500080914C0610924C06882379F00E94637473
:1049600065960FB6F894DEBF0FBECDBFDF91CF9135
:104970001F910F91FF90EF90089560E084E00E94F6
:10498000E3720091520610E08AE3F82E90E2E92EDD
:1049900001110CC080915402882341F030E020E0E6
:1049A00043E061E578E0812F0E94DA89F982EA82AA
:1049B00042E150E06AE478E0CE0103960E94B8F745
:1049C0008C8987FD1C8A013069F480915402882308
:1049D00049F09E012F5F3F4F41E065E478E0812F71
:1049E0000E94DA89F982EA8242E150E061E478E0EB
:1049F000CE0103960E94B8F78C8987FD1C8A02308D
:104A000069F480915402882349F09E012F5F3F4F43
:104A100041E068E378E0812F0E94DA89F982EA8236
:104A200042E150E060E378E0CE0103960E94B8F7DF
:104A30008C8987FD1C8A033069F480915402882395
:104A400049F09E012F5F3F4F41E06CE278E0812FFB
:104A50000E94DA890F5F1F5F143009F099CF10931D
:104A60004B067ECFEF92FF920F931F93CF93DF936E
:104A7000CDB7DEB765970FB6F894DEBF0FBECDBFDA
:104A800080914C0610924C06882379F00E94637442
:104A900065960FB6F894DEBF0FBECDBFDF91CF9104
:104AA0001F910F91FF90EF90089560E084E00E94C5
:104AB000E3720091520610E08AE3F82E90E2E92EAC
:104AC00001110CC080915402882341F030E020E0B5
:104AD00042E06DE178E0812F0E94DA89F982EA8272
:104AE00042E150E06BE178E0CE0103960E94B8F716
:104AF0008C8987FD1C8A013069F4809154028823D7
:104B000049F09E012F5F3F4F40E062E178E0812F46
:104B10000E94DA89F982EA8242E150E06EE078E0B0
:104B2000CE0103960E94B8F78C8987FD1C8A02305B
:104B3000A9F480915402882349F09E012F5F3F4FD2
:104B400040E065E078E0812F0E94DA890F5F1F5F07
:104B5000143009F0B5CF10934B069ACF0330B1F75C
:104B600080915402882391F330E020E040E063EF2D
:104B700077E0E9CF0F931F93CF93DF9300D000D05E
:104B800000D01F92CDB7DEB7809154028823F1F098
:104B90001F9283E08F938091750390E001969F931D
:104BA0008F938AE695E09F938F938E010F5F1F4F3F
:104BB0001F930F930E94E1F7B8018FE595E00E94E3
:104BC000907C0FB6F894DEBF0FBECDBF84E080931B
:104BD000540280917403811108C020E040E070E02D
:104BE00060E086ED9CE70E94C5732A960FB6F894A4
:104BF000DEBF0FBECDBFDF91CF911F910F91089502
:104C00008F929F92AF92BF92CF92DF92EF92FF92DC
:104C1000CF936B017C01B42E20E030E0A9010E940B
:104C20004AF887FF07C08DE20E946E8AF7FAF09477
:104C3000F7F8F09460E070E080E09FE3C0E02DECD6
:104C40003CEC4CEC5DE30E94B0F8CF5FBC12F7CFB8
:104C5000A70196010E94CBFE6B017C010F943E00E0
:104C60004B015C010E944FF89B01AC01C701B601EA
:104C70000E94CAFE6B017C01C501B4010E9407CCF1
:104C80008EE20E946E8AC150E8F020E030E040E2FF
:104C900051E4C701B6010E94B0F86B017C010F948A
:104CA0003E004B015C010E9407CCC501B4010E948B
:104CB0004FF89B01AC01C701B6010E94CAFE6B010F
:104CC0007C01E1CFCF91FF90EF90DF90CF90BF902C
:104CD000AF909F908F9008958F929F92AF92BF92C6
:104CE000CF92DF92EF92FF920F931F93CF93C82F33
:104CF00002EE13E0F80160857185072E000C880B29
:104D0000990B0E9451F86B017C01F8018480958019
:104D1000A680B78080E20E946E8A84E50E946E8A37
:104D20008AE30E946E8A42E0C501B4010E94002617
:104D300085E19BE10E940F9142E0C701B6010E940C
:104D4000002662E070E080E090E00E94AFD587E14D
:104D5000C802F0011124EE51FC4F628570E088E139
:104D60009BE1CF911F910F91FF90EF90DF90CF903B
:104D7000BF90AF909F908F900C94A3960F930FB716
:104D80000F9300916E000B7F00936E0078940F9349
:104D90000BB70F930CB70F921F922F933F934F9324
:104DA0005F936F937F938F939F93AF93BF93EF9393
:104DB000FF9311240E947930FF91EF91BF91AF9141
:104DC0009F918F917F916F915F914F913F912F9123
:104DD0001F900F900CBF0F910BBF0F910460F894C0
:104DE00000936E000F910FBF0F9118951092F90369
:104DF000E2EEF3E0118610861092C2041092C30412
:104E00001092C4041092C50412862C9808950E9432
:104E1000F6260C940174CF93DF93C5E7DAE120E026
:104E200030E048E452E46091E6037091E70380913A
:104E3000E8039091E9030F942B0187FF1AC080E0EB
:104E4000FE01C49190E002C095958795CA95E2F75E
:104E5000C4E6D0E080FD02C0D0E0C0E089E00E945E
:104E6000C5CC209771F460E089E0DF91CF910C947C
:104E7000D1D3FE01949181E001C0880F9A95EAF7A1
:104E8000DFCFEBE5F0E3E491E150E23160F7F0E0F1
:104E90008827E25BF84D8F4F0D943E02602767270D
:104EA0006C277627802733278A2792279A27A427DB
:104EB000AE27B827C727D1273327DB27E527EF27DA
:104EC00084B5806884BDC7BDDF91CF91089584B556
:104ED000806284BDC8BDF8CF8091800080688093D7
:104EE0008000D0938900C0938800EECF809180002D
:104EF000806280938000D0938B00C0938A00E4CFBF
:104F000080918000886080938000D0938D00C09352
:104F10008C00DACF8091B00080688093B000C0939D
:104F2000B300D2CF8091B00080628093B000C09374
:104F3000B400CACF80919000806880939000D09395
:104F40009900C0939800C0CF8091900080628093B8
:104F50009000D0939B00C0939A00B6CF80919000B0
:104F6000886080939000D0939D00C0939C00ACCF4C
:104F70008091A00080688093A0008091A0008F7B2A
:104F80008093A000D093A900C093A8009DCF8091EA
:104F9000A00080628093A000D093AB00C093AA00D1
:104FA00093CF8091A00088608093A000D093AD0043
:104FB000C093AC0089CF809120018068809320014C
:104FC000D0932901C09328017FCF80912001806276
:104FD00080932001D0932B01C0932A0175CF80913B
:104FE0002001886080932001D0932D01C0932C0173
:104FF0006BCFCF92DF92EF92FF92CF93DF93EC01D2
:10500000C880D980EA80FB808BE69AE10E940F91EC
:10501000C701B6010E94E4CCCC80DD80EE80FF8029
:1050200086EF94E30E940F91C701B6010E94E4CC81
:10503000C884D984EA84FB8482EF94E30E940F91B0
:10504000C701B6010E94E4CC8AE0DF91CF91FF90C6
:10505000EF90DF90CF900C946E8ABC0120918A046F
:1050600030918B0440918A0450918B0424173507AA
:1050700031F481E02617370709F080E008959A019E
:10508000F1CF0F930FB70F9300916E000F930B7F2B
:1050900000936E0000916F000D7F00936F000F93DF
:1050A0000BB70F930CB70F921F922F933F934F9311
:1050B0005F936F937F938F939F93AF93BF93EF9380
:1050C000FF9311240E946E31FF91EF91BF91AF9138
:1050D0009F918F917F916F915F914F913F912F9110
:1050E0001F900F900CBF0F910BBF0F910260F894AF
:1050F00000936F000F9100936E000F910FBF0F91FF
:10510000189500C000C08091FB0580FF1CC08998E5
:105110008FEF80933A048091FB0581FF17C08F9A2F
:105120008FEF80933B048091FB0582FF12C080913A
:105130000B0180958270809309018FEF80933C046E
:1051400000C000C00895899A81E0E3CF8F9881E084
:10515000E8CF80910B0182708093090181E0EECF4E
:1051600080913904877F80933904129A81E00895F1
:10517000129880913904886080933904089521E061
:1051800030E0082E02C0220F331F0A94E2F7209568
:10519000309590913904292320933904813051F0BE
:1051A000823069F05F9A8091FA058E7F8093FA05CC
:1051B00081E008958A9A8091FA058D7FF7CF8091DA
:1051C000080180958170809306018091FA058B7F9C
:1051D000EDCF80E00E94BF2881E00E94BF2882E0DE
:1051E0000E94BF280C94B028813079F0823079F089
:1051F0005F9821E030E001C0220F8A95EAF78091A4
:105200003904822B8093390408958A98F2CF9091C3
:105210000801917090930601ECCF0F931F93CF93E9
:10522000DF93C82F41E065E571E10E94B4978C2FB0
:105230000E94C4968DE491E10E940F9181EB90E170
:105240000E94499141E06BE371E18C2F0E94B49779
:105250008C2F0E94C4968EE191E10E940F918C2FB9
:105260000E9434988C2F0E941FD08C2F0E943F9652
:105270008C2F0E9469968C2F0E941D968C2F0E9465
:10528000E5958C2F0E94C3956DEC70E18C2F0E94E8
:1052900016D0D091B90384EC90E10E940F916D2F4C
:1052A00070E090E080E00E94E4CC87EB90E10E9407
:1052B0000F918091B9030E94B09641E06BEE70E1CE
:1052C0008C2F0E94B4978C2F0E94C49682EE90E19E
:1052D0000E940F9160E070E0CB010E9407CC07ECC8
:1052E00013E0F80160817181072E000C880B990B87
:1052F0000E9451F8AB01BC018FED90E10E945F91DB
:105300008C2F0E94C49682EE90E10E940F9161E082
:1053100070E080E090E00E9407CCF8016281738128
:10532000072E000C880B990B0E9451F8AB01BC01B1
:105330008FED90E10E945F918C2F0E94FA9741E0DF
:105340006FE071E18C2F0E94B4978C2F0E94C4965D
:105350004091A2065091A3066091A4067091A50603
:1053600086E091E10E945F918C2FDF91CF911F9198
:105370000F910C94D3978F929F92AF92BF92DF922E
:10538000EF92FF920F931F93CF93DF93CDB7DEB7CA
:10539000C658D1090FB6F894DEBF0FBECDBFC358B3
:1053A000DF4F188219821A821B82CD57D04080911C
:1053B000510390915203A0915303B0915403CF57DE
:1053C000DF4F88839983AA83BB83C158D04084E68A
:1053D00090E090937206809371061092740610927A
:1053E00073061092380464E070E0CE018F579F4F2F
:1053F0000E94E2D580917106909172060296909378
:10540000720680937106109274061092730681E002
:10541000CA57DF4F8883C658D040CE018A579F4F66
:105420000E943A1F68E470E08DE09DE00E94E2D5A2
:1054300080E1EAE6F2E08E010F5F1F4FD801019094
:105440000D928A95E1F760E170E0C8010E94E2D513
:1054500086E896E00E94321F8CEF95E00E943E1F86
:105460007E018DE6E80EF11C8FEFF7018083C70106
:105470000E943A1F19821A821B821C82C8010E9454
:10548000321F19821A821B821C82C8010E94321F9D
:10549000C358DF4F188219821A821B82CD57D04021
:1054A00083E0F70180838983CE0183589F4F0E9458
:1054B000321FC7010E943A1FC8010E943A1F3AE0FA
:1054C000D32EDA94DD2031F0CE0183589F4F0E9415
:1054D000321FF7CF8CE0F80111928A95E9F7C801E5
:1054E0000E943E1F64E270E086EE90E10E94E2D5E9
:1054F00088E0F701982F11929A95E9F7F801119237
:105500008A95E9F783E0CB57DF4F8883C558D040B1
:10551000EA968FAFEA97CE018B579F4F0E943A1FB2
:10552000CE0187589F4F0E943A1F68E070E0C80183
:105530000E94E2D568E070E0C7010E94E2D5C3583E
:10554000DF4F188219821A821B82CD57D0402AE081
:10555000A22EB12CF1E0AF1AB10831F0CE01835880
:105560009F4F0E94321FF6CF1982BB24BA94F701D5
:10557000B082C8010E94361FC7010E943A1F80E115
:10558000D82EF8018D2D11928A95E9F760E170E02F
:10559000C8010E94E2D51982C8010E94361F64E04A
:1055A00070E087EC93E00E94E2D5198A1A8A1B8A80
:1055B0001C8A80E090E0A0E8BFE38D879E87AF87DC
:1055C000B88B8091ED039091EE03A091EF03B09121
:1055D000F00389839A83AB83BC832CEA35EC47E2E2
:1055E0005EE36091F1037091F2038091F303909177
:1055F000F4030E94C5FF6D837E838F8398872CEA16
:1056000035EC47E25EE36091F5037091F60380911B
:10561000F7039091F8030E94B0F869877A878B8727
:105620009C8764E170E0C8010E94E2D584E190E0CB
:105630009A83898362E070E0C8010E94E2D58CE021
:10564000EAE7F2E0D80101900D928A95E1F7C801EE
:105650000E942E1F8CE0EAE7F2E0D80101900D9243
:105660008A95E1F7C8010E942E1F1982C8010E9485
:105670003A1F8FE78983C8010E943A1FB982C80187
:105680000E943A1F85E0E6E8F2E0D80101900D9211
:105690008A95E1F765E070E0C8010E94E2D51982C1
:1056A000C8010E94361F80E2EBE8F2E0D8010190C9
:1056B0000D928A95E1F760E270E0C8010E94E2D5A0
:1056C000F7011082C7010E94361F86EC93E00E940A
:1056D000361F82EC93E00E94321FC358DF4F1882BE
:1056E00019821A821B82CD57D040CE0183589F4F1A
:1056F0000E94321F82E1F80111928A95E9F762E176
:1057000070E0C8010E94E2D584E2EBEAF2E0D80141
:1057100001900D928A95E1F764E270E0C8010E9461
:10572000E2D5F8011192DA94E9F760E170E0C8017E
:105730000E94E2D589E0F80111928A95E9F769E0C3
:1057400070E0C8010E94E2D582EA96E00E94321F12
:105750009CE0D92EF8018D2D11928A95E9F76CE025
:1057600070E0C8010E94E2D58CE6F80111928A959A
:10577000E9F76CE670E0C8010E94E2D58CE294E0A3
:105780000E942E1F68E070E08AEB93E00E94E2D551
:10579000F7011192DA94E9F7CB57DF4F1882C55819
:1057A000D04080E090E0A0E4B0E4ED968CAF9DAFF7
:1057B000AEAFBFAFED97C7010E943E1FCE018B5722
:1057C0009F4F0E943A1FCE0187589F4F0E94321F61
:1057D000D0903804D1104AC0009171061091720621
:1057E000045611098091730690917406F701918314
:1057F000808384E690E0909372068093710664E063
:1058000070E087EE92E00E94E2D562E070E0C701AE
:105810000E94E2D50E94C0968CE790E10E940F9111
:10582000B80190E080E00E9407CCF7018080918071
:10583000B12CA12C8FE690E10E940F91C501B4011B
:105840000E9407CC8CE690E10E940F910037124035
:1058500041F00E94BC9682E691E10E940F91DD2406
:10586000D394809138048D29809338048091380432
:10587000811105C060E08CE590E10E943775909140
:10588000380481E08927CA57DF4F0FB6F894DEBF8E
:105890000FBECDBFDF91CF911F910F91FF90EF9081
:1058A000DF90BF90AF909F908F900895CF92DF923E
:1058B000EF92FF920F931F93CF93DF93CDE0DDE044
:1058C0000AE816E0C12CD12C7601C3946991799134
:1058D000899199910E944FF8288939894A895B8971
:1058E0000E94B0F80F943E00F80161937193819388
:1058F00091938F01C616D706E806F90610F46B01DE
:105900007C01FDE0CD31DF0709F76FEF7FEFCB01C1
:10591000A70196010E948EFE20939A0630939B0663
:1059200040939C0650939D0623EF34E045E35FE3EC
:10593000609186067091870680918806909189060D
:105940000E94B0F82AE136EF45E95EE30E94C5FF08
:105950006B017C0160910D0D70910E0D80910F0D0A
:105960009091100D0E944FF89B01AC01C701B60148
:105970000E94B0F80F94790160939E0670939F0681
:105980008093A0069093A106DF91CF911F910F9174
:10599000FF90EF90DF90CF9008950F931F93CF93D8
:1059A000DF9301E21DE0CAEAD6E0F80121913191CE
:1059B000419151918F0160E070E080E89FE30E9487
:1059C000C5FF6993799389939993F6E0CA3BDF0702
:1059D00061F70E94FBCEDF91CF911F910F910C9444
:1059E000562CCF92DF92EF92FF920F931F93CF939B
:1059F000DF9300D000D01F921F92CDB7DEB7209169
:105A0000B903222309F444C08C0120E030E040EFC8
:105A100052E4FC0164817581868197810E94CAFEEF
:105A2000F801C080D180E280F380C982DA82EB8203
:105A3000FC826D837E838F8398879801285F3F4F18
:105A4000AE014B5F5F4FBE016F5F7F4F86EE90E10F
:105A50000E94E91C20E030E040EF52E46D817E813D
:105A60008F8198850E94CBFE6B017C0120E030E0A5
:105A7000A90169817A818B819C810E94CBFEF8010A
:105A80006083718382839383C482D582E682F782A6
:105A900028960FB6F894DEBF0FBECDBFDF91CF9131
:105AA0001F910F91FF90EF90DF90CF9008952F926C
:105AB0003F924F925F926F927F928F929F92AF929E
:105AC000BF92CF92DF92EF92FF920F931F93CF93EB
:105AD000DF93CDB7DEB76C970FB6F894DEBF0FBE7D
