:100000000C94AE130C94DF130C94DF130C94DF13D9
:100010000C94DF130C94DF130C94DF130C94DF1398
:100020000C94DF130C94DF130C94DF130C94DF1388
:100030000C94DF130C94DF130C94DF130C94DF1378
:100040000C94DF130C94D12E0C94DF130C94DF135B
:100050000C94DF130C94DF130C94C4A30C9464521F
:100060000C94DF130C9404AD0C94DF130C94DF1389
:100070000C94DF130C94DF130C94DF130C94DF1338
:100080000C94DF130C94DF130C94DF130C94DF1328
:100090000C94DF130C94DF130C94DF130C94DF1318
:1000A0000C94DF130C94DF130C94DF130C94DF1308
:1000B0000C94DF130C94DF130C94DF130C94DF13F8
:1000C0000C94DF130C94DF130C94DF130C94DF13E8
:1000D0000C94DF130C94DF130C94DF130C94DF13D8
:1000E0000C94DF13805185518A5194519E511752BF
:1000F000A851B051B851C251CC51D651E551EF5130
:100100001752F95103520D52507C537C427C467C6D
:100110004C7C8A7C577C5B7C617C657C697C6F7CD9
:10012000737C777C8A7C7D7C817C857C084AD73B8C
:100130003BCE016E84BCBFFDC12F3D6C74319ABDB6
:1001400056833DDA3D00C77F11BED9E4BB4C3E91DA
:100150006BAAAABE000000803F05A84CCDB2D44EC9
:10016000B93836A9020C50B9918688083CA6AAAACB
:100170002ABE000000803F004E414E494E4954596E
:10018000494E46CDCCCC3D0AD7233C17B7D1387762
:10019000CC2B329595E6241FB14F0A000020410078
:1001A00000C84200401C4620BCBE4CCA1B0E5AAEC2
:1001B000C59D74434F4D4D554E49434154494F4E93
:1001C0000044525952554E004552524F5253004925
:1001D0004E464F004543484F0047322F4733206279
:1001E000616420706172616D65746572730A005399
:1001F0006C6565702E2E2E005246313030207265AF
:100200006164792E00526573756D696E6720707236
:10021000696E7400436C69636B20746F2072657340
:10022000756D652E2E2E004E6F206D6F76652E003B
:10023000456E642066696C65206C6973740A0042BF
:100240006567696E2066696C65206C6973740A0065
:100250005344207072696E74696E672062797465A8
:1002600020004E6F74205344207072696E74696E62
:10027000670A005072696E742074696D653A2000D7
:1002800050726F7465637465642050696E0A00452E
:100290002569202573005246313030207265616433
:1002A000792E00D401CF01C801C101B3016F666688
:1002B0000044454255473A004B494C4C45442E209A
:1002C000004D3131332053006F6B00486561746914
:1002D0006E6720646F6E652E0020573A00452569D1
:1002E0002025730052463130302072656164792ECA
:1002F000005246313030204F66662E004361703A1E
:10030000454D455247454E43595F50415253455222
:100310003A300A004361703A434153455F4C4947C4
:1003200048545F4252494748544E4553533A300A65
:10033000004361703A544F47474C455F4C4947482A
:1003400054533A300A004361703A534F4654574170
:1003500052455F504F5745523A300A004361703A58
:100360004C4556454C494E475F444154413A300A4A
:10037000004361703A5A5F50524F42453A300A008A
:100380004361703A4155544F4C4556454C3A300AFA
:10039000004361703A5052494E545F4A4F423A31DD
:1003A0000A004361703A50524F47524553533A3016
:1003B0000A004361703A4155544F5245504F5254D0
:1003C0005F54454D503A310A004361703A454550FB
:1003D000524F4D3A310A004649524D574152455FFE
:1003E0004E414D453A4D61726C696E20312E312E71
:1003F0003620284769746875622920534F55524347
:10040000455F434F44455F55524C3A68747470736E
:100410003A2F2F6769746875622E636F6D2F4D6177
:10042000726C696E4669726D776172652F4D61728B
:100430006C696E2050524F544F434F4C5F5645529B
:1004400053494F4E3A312E30204D414348494E4595
:100450005F545950453A5246313030204558545235
:10046000554445525F434F554E543A3120555549F6
:10047000443A63656465326132662D343161322DF0
:10048000343734382D396231322D633535633632A5
:100490006633363766660A002F2F20004D3134351B
:1004A00020533C696E6465783E206F7574206F66DA
:1004B0002072616E67652028302D31290A0053654E
:1004C0007474696E672054726176656C2041636351
:1004D000656C65726174696F6E3A2000536574745F
:1004E000696E67205265747261637420416363654D
:1004F0006C65726174696F6E3A200053657474693B
:100500006E67205072696E7420416363656C65721A
:100510006174696F6E3A200053657474696E672068
:100520005072696E7420616E642054726176656CDD
:1005300020416363656C65726174696F6E3A200077
:10054000205A00205900580020204D61783A2000A0
:10055000205A00205900580020204D696E3A200092
:100560004F6E20004F666600536F667420656E64A0
:1005700073746F70733A2000000136372603FF3C16
:100580003D38FF0F2E303E12FFFF0C08FFFFFFFF2C
:100590001A1C18FFFF08440A0943FFFFFFFFFFFF73
:1005A00020643A0020693A0020703A0043290A008A
:1005B00061626C656420286D696E2074656D7020C1
:1005C00000436F6C64206578747275646573206194
:1005D000726520004F666673657473206170706C7D
:1005E000696564004572723A20546F6F20666172CB
:1005F0002100546F6F206661722066726F6D2072E9
:1006000065666572656E636520706F696E740A0059
:100610004175746F0020452F443D00416476616E42
:100620006365204B3D004E6F2063617365206C69EC
:100630006768740A0041637469766520457874724E
:10064000756465723A2000556E6B6E6F776E20632D
:100650006F6D6D616E643A2022004D363030204857
:100660006F74656E6420746F6F20636F6C642074A8
:100670006F206368616E67652066696C616D656E89
:10068000740A0024F4D43050C38E20C2A2401782D2
:100690008B7011127A910D816CD90AA861E108C79B
:1006A000586607615143061E4B5D05C145A7041AF4
:1006B000411104093D9803713931034036DB02656D
:1006C000339102D4305402802E1D02632CEE01754A
:1006D0002AC501B028A001102781018F2564012BB4
:1006E000244B01E0223401AC211F018D200D01803B
:1006F0001FFC00841EED00971DDF00B81CD200E631
:100700001BC600201BBC00641AB200B219A8000A64
:1007100019A0006A189900D117910040178B00B5F5
:1007200016840031167E00B31579003A157300C7A0
:10073000146F0058146A00EE1366008813630025D6
:10074000135E00C7125B006C12570015125400C1F3
:1007500011510070114F0021114B00D61049008D2E
:100760001047004610440002104200C00F400080B5
:100770000F3E00420F3C00060F3B00CB0E380093AB
:100780000E37005C0E3500270E3400F30D3200C129
:100790000D3100900D3000600D2E00320D2D000542
:1007A0000D2C00D90C2B00AE0C2900850C29005C07
:1007B0000C2700350C27000E0C2600E80B2400C483
:1007C0000B2400A00B23007D0B23005A0B210039C2
:1007D0000B2100180B2000F80A1F00D90A1E00BBCD
:1007E0000A1E009D0A1D00800A1D00630A1C0047A6
:1007F0000A1B002C0A1B00110A1A00F7091A00DD57
:10080000091900C4091900AB091900920917007BE6
:10081000091800630917004C091600360916002054
:100820000916000A091500F5081500E0081400CCA7
:10083000081400B8081400A4081400900813007DE0
:100840000812006B08130058081200460812003402
:10085000081100230811001208110001081100F00E
:10086000071000E0071000D0071000C0071000B00C
:10087000070F00A107100091070E0083070F0074F7
:10088000070F0065070E0057070E0049070E003BD3
:10089000070D002E070E0020070D0013070D0006A0
:1008A000070D00F9060C00ED060D00E0060C00D463
:1008B000060C00C8060C00BC060C00B0060C00A418
:1008C000060B0099060C008D060B0082060B0077C4
:1008D000060B006C060B0061060A0057060B004C65
:1008E000060A0042060A0038060A002E060A0024FC
:1008F000060A001A060A001006090007060A00FD8B
:10090000050900F4050900EB050900E2050900D915
:10091000050900D0050900C7050900BE050900B595
:10092000050800AD050800A50509009C0508009410
:100930000508008C050800840508007C0508007483
:100940000508006C050700650508005D05070056F1
:100950000508004E05070047050700400508003858
:10096000050700310507002A050700230507001CBD
:10097000050600160507000F05070008050600021A
:10098000050700FB040600F5040700EE040600E876
:10099000040600E2040700DB040600D5040600CFCD
:1009A000040600C9040600C3040600BD040600B71F
:1009B000040600B1040500AC040600A6040600A06D
:1009C0000405009B04060095040500900406008AB7
:1009D00004050085040500800406007A04050075FE
:1009E000040500700405006B040500660405006141
:1009F0000405005C04050057040500520405004D81
:100A000004050048040500430405003E0404003AC0
:100A100004050035040500300404002C04050027FB
:100A2000040400230405001E0404001A0404001634
:100A3000040500110404000D040400090405000469
:100A400004040000040400FC030400F8030400F4A0
:100A5000030400F0030400EC030400E8030400E4D2
:100A6000030400E0030400DC030400D8030400D402
:100A7000030400D0030400CC030400C8030300C532
:100A800003030024F404D9201BC40C5C0E9804C496
:100A9000095F0265077101F405F900FB04B3004822
:100AA000048700C10369005803550003034500BED5
:100AB000023A008402310053022A00290225000470
:100AC000022000E4011C00C8011900AF01170098C2
:100AD0000114008401130071011000610110005124
:100AE000010E0043010D0036010B002B010B00200D
:100AF000010B00150109000C01090003010800FBAE
:100B0000000800F3000800EB000700E4000600DE28
:100B1000000600D8000600D2000600CC000500C781
:100B2000000500C2000500BD000400B9000400B5C6
:100B3000000400B1000400AD000400A9000400A5F9
:100B4000000300A20003009F0004009B0003009824
:100B50000003009500020093000300900003008D45
:100B60000002008B0003008800020086000200845F
:100B7000000300810002007F0002007D0002007B74
:100B80000002007900020077000100760002007484
:100B900000020072000100710002006F0002006D8F
:100BA0000001006C0002006A000100690002006799
:100BB000000100660001006500010064000200629F
:100BC00000010061000100600001005F0002005DA3
:100BD0000001005C0001005B0001005A00010059A7
:100BE00000010058000100570001005600010055A7
:100BF00000010054000100530000005300010052A6
:100C000000010051000100500001004F0001004EA2
:100C10000000004E0001004D0001004C0001004B9F
:100C20000000004B0001004A00010049000100489B
:100C30000000004800010047000100460000004697
:100C40000001004500000045000100440001004390
:100C5000000000430001004200000042000100418A
:100C600000000041000100400001003F0000003F83
:100C70000001003E0000003E0001003D0000003D7C
:100C80000001003C0000003C0000003C0001003B73
:100C90000000003B0001003A0000003A000100396A
:100CA0000000003900010038000000380000003862
:100CB0000001003700000037000100360000003658
:100CC000000000360001003500000035000000354E
:100CD0000001003400000034000000340001003343
:100CE0000000003300000033000100320000003239
:100CF000000000320001003100000031000000312E
:100D00000001003000000030000000300001002F22
:100D10000000002F0000002F0000002F0001002E17
:100D20000000002E0000002E0001002D0000002D0C
:100D30000000002D0000002D0001002C0000002C00
:100D40000000002C0000002C0001002B0000002BF4
:100D50000000002B0000002B0001002A0000002AE8
:100D60000000002A0000002A0001002900000029DC
:100D700000000029000000290000002900010028CF
:100D800000000028000000280000002800000028C3
:100D900000010027000000270000002700000027B6
:100DA00000000027000100260000002600000026A9
:100DB000000000260000002600010025000000259C
:100DC000000000250000002500000025000000258F
:100DD0000001002400000024000000240000002482
:100DE0000000002400010023000000230000002375
:100DF0000000002300000023000000230000002367
:100E00000001002200000022000000220000002259
:100E1000000000220000002200010021000000214B
:100E2000000000210000002100000021000000213E
:100E30000000002100010020000000200000002030
:100E40000000002000000020000000200000002022
:100E5000000000200001001F0000001F0000001F14
:100E60000000001F0000001F0000001F0000001F06
:100E70000001001E0000001E0000001E0000001EF9
:100E80000000004D383420582059205A2045005782
:100E9000726974696E6720746F2066696C653A20A8
:100EA000006F70656E206661696C65642C20466910
:100EB0006C653A20006F70656E206661696C6564D0
:100EC0002C2046696C653A200046696C6520736584
:100ED0006C65637465640A002053697A653A200082
:100EE00046696C65206F70656E65643A20006F70AE
:100EF000656E206661696C65642C2046696C653A94
:100F000020002066696C653A20004E6F7720002231
:100F100020706F73002220706172656E743A220037
:100F2000535542524F5554494E452043414C4C2055
:100F30007461726765743A22004B494C4C45442EEB
:100F40002000747279696E6720746F2063616C6C25
:100F5000207375622D67636F64652066696C6573C5
:100F6000207769746820746F6F206D616E79206CD2
:100F70006576656C732E204D4158206C6576656CE6
:100F80002069733A006175746F25692E67004D32D0
:100F900034004D3233202573005344206361726462
:100FA000206F6B0A006F70656E526F6F7420666100
:100FB000696C65640A00766F6C756D652E696E6983
:100FC00074206661696C65640A004572726F723ADA
:100FD00000534420696E6974206661696C0A00439D
:100FE000616E6E6F7420656E7465722073756264D5
:100FF00069723A2000052E2E004D61696E00004591
:101000007874727564656420746F74616C3A200042
:10101000256C642E25696D00004C6F6E67657374D6
:10102000206A6F622074696D653A200000546F7405
:10103000616C207072696E742074696D653A20006D
:10104000436F6D706C657465643A20005072696E10
:101050007420436F756E743A20004D61782054659A
:101060006D703A20323735004D696E2054656D70D1
:101070003A20350054303A204550434F5320313008
:10108000304B005053553A2047656E6572696300D6
:1010900050726F746F636F6C3A20312E3000426172
:1010A00075643A203131353230300052414D505361
:1010B00020312E33004578747275646572733A205E
:1010C0003100687474703A2F2F6D61726C696E66AE
:1010D000772E6F7267005246313030003230313730
:1010E0002D31302D31302031323A303000312E3137
:1010F0002E36004D61726C696E005072696E7465B7
:101100007220537461747300546865726D697374EE
:101110006F727300426F61726420496E666F005097
:1011200072696E74657220496E666F004D61696EFA
:101130000020204E6F7A7A6C653A20004261636B22
:10114000004D696E696D756D2054656D7020697311
:10115000203137302E0048656174696E6720666102
:10116000696C65640045787472756465206D6F7292
:101170006500526573756D65207072696E740052FA
:101180004553554D45204F5054494F4E533A00203A
:10119000204E6F7A7A6C653A20006368616E6765ED
:1011A000006F66207468652066696C616D656E7499
:1011B000005761697420666F7220737461727400E5
:1011C0005052494E5420504155534544007C3C3EBA
:1011D0005E2B3D3F2F5B5D3B2C2A225C00436172FE
:1011E000642072656D6F7665640043617264206986
:1011F0006E736572746564004B494C4C45442E20F7
:101200000053544F505045442E20005072696E7464
:1012100065722073746F70706564206475652074E6
:101220006F206572726F72732E2046697820746821
:1012300065206572726F7220616E6420757365201F
:101240004D39393920746F20726573746172742E50
:10125000202854656D7065726174757265206973BC
:101260002072657365742E20536574206974206143
:10127000667465722072657374617274696E672931
:101280000A004E6F204C696E65204E756D62657266
:10129000207769746820636865636B73756D2C20B3
:1012A0004C617374204C696E653A20004E6F204388
:1012B0006865636B73756D2077697468206C696EFF
:1012C00065206E756D6265722C204C617374204CC4
:1012D000696E653A2000636865636B73756D206D98
:1012E00069736D617463682C204C617374204C6960
:1012F0006E653A20004C696E65204E756D626572B0
:10130000206973206E6F74204C617374204C696E79
:1013100065204E756D6265722B312C204C617374A3
:10132000204C696E653A20004D313130004D33312B
:10133000004D383420582059205A2045005344206D
:1013400072656164206572726F720A00446F6E6527
:10135000207072696E74696E672066696C650A0038
:1013600020496E76616C6964206578747275646575
:1013700072200000000000000000000000000000DB
:1013800000D2420000DC420000DC4246696C65206D
:1013900064656C657465643A0044656C6574696F76
:1013A0006E206661696C65642C2046696C653A2024
:1013B000006F70656E206661696C65642C204669FB
:1013C0006C653A200020746F6F206C6F6E6720652B
:1013D0007874727573696F6E2070726576656E745D
:1013E00065640A0020636F6C64206578747275739D
:1013F000696F6E2070726576656E7465640A002090
:10140000204E6F7A7A6C653A200066696C616D6572
:101410006E7420756E6C6F6164005761697420662C
:101420006F72005052494E5420504155534544006C
:1014300020204E6F7A7A6C653A2000506C6561739B
:101440006520776169742E2E2E0048656174696E7F
:1014500067206E6F7A7A6C65005052494E54205066
:1014600041555345440020204E6F7A7A6C653A20EE
:101470000068656174206E6F7A7A6C652E00507218
:1014800065737320627574746F6E20746F005052B0
:10149000494E54205041555345440020204E6F7A08
:1014A0007A6C653A2000746F20636F6E74696E7594
:1014B000652E2E2E00616E6420707265737320623B
:1014C0007574746F6E00496E736572742066696C12
:1014D000616D656E74005052494E54205041555311
:1014E00045440020204E6F7A7A6C653A2000666988
:1014F0006C616D656E74206C6F6164005761697416
:1015000020666F72005052494E5420504155534549
:10151000440020204E6F7A7A6C653A200066696C30
:10152000616D656E742065787472756465005761CD
:10153000697420666F72005052494E5420504155D4
:1015400053454400746F20726573756D6500576173
:10155000697420666F72207072696E74005052490F
:101560004E542050415553454400000021002400B2
:1015700027002A002D003000330001010000040183
:1015800007010A0100002200250028002B002E0080
:101590003100340002010000050108010B010000C8
:1015A00020002300260029002C002F00320000011B
:1015B00000000301060109010505050507050808E6
:1015C0000808020202020A0A0808040404040101CD
:1015D00001010101010103030303030303030407E2
:1015E00007070C0C0C0C0C0C0C0C02020202060679
:1015F0000606060606060B0B0B0B0B0B0B0B01026C
:101600001020200808102040102040800201020114
:1016100008040201010204081020408080402010CC
:101620000804020180040201804020100804020125
:10163000080402010102040810204080010204088D
:101640001020408000000A0B02090C0D0E08070351
:101650000401000000000000000000000000000085
:10166000000000000000000000000000000000007A
:101670001211100000000000000000000000000037
:10168000000000000000000000002D2D2D2D2D2D4C
:10169000007C4D61726C696E7C002D2D2D2D2D2DE1
:1016A00000687474703A2F2F6D61726C696E667782
:1016B0002E6F726700687474703A2F2F6D61726CB0
:1016C000696E66772E6F72670020312E312E3600DC
:1016D00000000000010204040000001C1C0C0404B3
:1016E00004020100000000000408100000000000D7
:1016F0002020506C616E6E6572427566666572423E
:10170000797465733A20002046726565204D656DD9
:101710006F72793A2000436F6D70696C65643A208E
:1017200041756720313620323031390A00207C2063
:10173000417574686F723A20286E6F6E652C206454
:10174000656661756C7420636F6E666967290A004F
:10175000323031372D31302D31302031323A303086
:1017600000204C61737420557064617465643A2084
:1017700000312E312E360A004D61726C696E0020E8
:10178000536F6674776172652052657365740A00E1
:10179000205761746368646F672052657365740ACB
:1017A000002042726F776E206F75742052657365EA
:1017B000740A002045787465726E616C20526573FE
:1017C00065740A00506F77657255700A0073746112
:1017D00072740A006572726F722077726974696E32
:1017E0006720746F2066696C650A00456E647374C7
:1017F0006F707320256320256320256320256300F7
:10180000205A3A0020593A0020583A00656E647315
:10181000746F7073206869743A2000446F6E65209D
:10182000736176696E672066696C652E0A004D32B9
:1018300039004572726F722077726974696E672021
:10184000746F20454550524F4D210A00290A00204F
:1018500062797465733B206372632000536574740E
:10186000696E67732053746F7265642028002028A6
:1018700063616C63756C6174656429210A002021C1
:101880003D2000454550524F4D20435243206D6945
:10189000736D61746368202D202873746F726564A2
:1018A000292000290A002062797465733B20637245
:1018B0006320002073746F726564207365747469AB
:1018C0006E6773207265747269657665642028009E
:1018D000204D61726C696E3D563431290A002845ED
:1018E0004550524F4D3D00454550524F4D20766575
:1018F0007273696F6E206D69736D61746368200027
:10190000526573746F7265206661696C7361666598
:10191000004C6F61642073657474696E677300496D
:101920006E697469616C697A6520454550524F4D06
:101930000053746F72652073657474696E67730009
:1019400046696C616D656E74004D6F74696F6E00F1
:1019500054656D7065726174757265004D61696E74
:1019600000507265686561742041425320636F6E58
:1019700066005072656865617420504C4120636F49
:101980006E66005049442D44005049442D44005097
:1019900049442D49005049442D49005049442D5097
:1019A000005049442D5000200220466163740020FD
:1019B000022046616374002002204D6178002002FD
:1019C000204D6178002002204D6178002002204DDA
:1019D000696E002002204D696E002002204D696E64
:1019E000004F6666004F6E20004175746F74656D20
:1019F00070004E6F7A7A6C65004E6F7A7A6C650073
:101A0000436F6E74726F6C0053746F7265207365F0
:101A10007474696E6773004E6F7A7A6C65004E6FEE
:101A20007A7A6C650046616E207370656564004665
:101A3000616E2073706565640054656D70657261D8
:101A400074757265005654726176206D696E005629
:101A500054726176206D696E005654726176206D05
:101A6000696E00566D696E00566D696E00566D693F
:101A70006E00566D6178204500566D6178204500F6
:101A8000566D6178204500566D6178205A00566D7C
:101A90006178205A00566D6178205A00566D617841
:101AA000205900566D6178205900566D6178205993
:101AB00000566D6178205800566D617820580056A8
:101AC0006D61782058004D6F74696F6E004D34322F
:101AD00038005072656865617420504C4100436F56
:101AE0006F6C646F776E004368616E67652066692E
:101AF0006C616D656E740044697361626C6520731E
:101B000074657070657273004D38340053657420CD
:101B1000686F6D65206F66667365747300507265DB
:101B20006865617420414253004C6576656C2063A2
:101B30006F726E65727300556E6C6F6164204669DA
:101B40006C616D656E740047204633303020452D42
:101B5000313030300046656564203230636D0047B7
:101B60002046333030204531303030004C6F6164D6
:101B70002046696C616D656E7400473231204720E4
:101B80004632303020453130004175746F20686F27
:101B90006D6500473238004D6F7665206178697356
:101BA000004D61696E004D6F76652058004D6F766F
:101BB000652059004D6F7665205A0045787472751E
:101BC000646572004D6F766520302E316D6D004D6D
:101BD0006F766520316D6D004D6F76652031306D0B
:101BE0006D004D6F76652061786973004578747279
:101BF00075646572004D6F7665205A004D6F76658D
:101C00002059004D6F7665205800457874727564D0
:101C10006572004D6F7665205A004D6F76652059CC
:101C2000004D6F76652058005072657061726500D6
:101C3000496E697469616C697A6520454550524FF7
:101C40004D00436F6E74726F6C00416D617820457A
:101C500000416D6178204500416D6178205A004156
:101C60006D6178205A00416D6178205900416D61A5
:101C700078205900416D6178205800416D617820CD
:101C80005800412D74726176656C00412D7472614B
:101C900076656C00412D7265747261637400412D2C
:101CA0007265747261637400416363656C004163C3
:101CB00063656C004D6F74696F6E0056652D6A65C3
:101CC000726B0056652D6A65726B0056652D6A65EC
:101CD000726B00567A2D6A65726B00567A2D6A65B2
:101CE000726B0056792D6A65726B0056792D6A65A4
:101CF000726B0056792D6A65726B0056782D6A6595
:101D0000726B0056782D6A65726B0056782D6A6585
:101D1000726B004D6F74696F6E00457374657073FC
:101D20002F6D6D004573746570732F6D6D005A7360
:101D3000746570732F6D6D005A73746570732F6DB9
:101D40006D005973746570732F6D6D0059737465F0
:101D500070732F6D6D005873746570732F6D6D0007
:101D60005873746570732F6D6D004D6F74696F6E6D
:101D70000053746570732F6D6D004A65726B00417E
:101D80006363656C65726174696F6E0056656C6F34
:101D90006369747900436F6E74726F6C0046696C8E
:101DA0002E204469612E0046696C2E204469612E04
:101DB000004F6666004F6E20004520696E206D6DF5
:101DC0003300416476616E6365204B004164766147
:101DD0006E6365204B00416476616E6365204B0045
:101DE000436F6E74726F6C0070012C0190012701BB
:101DF000B0012201C0011D01F00118011002130100
:101E000030020E016002090190020401C002FF00CD
:101E10000003FA004003F5008003F000D003EB005C
:101E20002004E6007004E100E004DC004005D70077
:101E3000C005D2004006CD00D006C8008007C30010
:101E40003008BE00F008B900C009B400B00AAF0005
:101E5000B00BAA00D00CA500000EA000500F9B00F4
:101E6000C01096005012910000148C00C01587001D
:101E7000B0178200B0197D00D01B7800001E7300DF
:101E800040206E0090226900F024640040275F002B
:101E900090295A00E02B5500102E500020304B00A6
:101EA00010324600E033410090353C0010373700D7
:101EB00070383200A0392D00B03A2800A03B230032
:101EC000603C1E00103D1900903D1400103E0F00B4
:101ED000703E0A00C03E0500003F0000403FFBFF8F
:101EE000803FF6FFC03FF1FF4572723A204D494EE8
:101EF00054454D50004D494E54454D502074726923
:101F0000676765726564004572723A204D415854A6
:101F1000454D50004D415854454D502074726967ED
:101F2000676572656400001C1F11111F0000000628
:101F3000191803130C00040E1F041C000000000EEF
:101F40001315110E00001C10181705060500040AD1
:101F50000A0A0A11110E0C12120C00000000001FD8
:101F60001511151F000025753A25303275002530F2
:101F700032753A25303275002D2D2D005344005A0C
:101F800000590058006D0046696C616D656E7420E3
:101F9000757365643A200053746174733A20002CA1
:101FA000204C6F6E67657374206A6F623A2000542C
:101FB0006F74616C2074696D653A200053746174AC
:101FC000733A20002C204661696C65643A20002C2D
:101FD0002046696E69736865643A20005072696EC4
:101FE00074733A200053746174733A2000202F00F8
:101FF00020403A00205A3A0020593A0020436F7599
:102000006E7420583A0020453A00205A3A00205970
:102010003A00583A0023646566696E65202044459D
:102020004641554C545F4B64200023646566696EDD
:1020300065202044454641554C545F4B69200023A0
:10204000646566696E65202044454641554C545F81
:102050004B702000504944204175746F74756E6553
:102060002066696E697368656421205075742074F8
:102070006865206C617374204B702C204B69206163
:102080006E64204B6420636F6E7374616E74732092
:1020900066726F6D2062656C6F7720696E746F2059
:1020A000436F6E66696775726174696F6E2E680A38
:1020B00000504944204175746F74756E65206661E7
:1020C000696C6564212074696D656F75740A0050D0
:1020D0004944204175746F74756E65206661696C42
:1020E0006564212054656D70657261747572652038
:1020F000746F6F20686967680A00204B643A20009B
:10210000204B693A2000204B703A20000A20436C93
:10211000617373696320504944200A002054753A62
:102120002000204B753A2000206D61783A20002075
:102130006D696E3A200020643A2000206269617364
:102140003A2000627573793A207061757365642076
:10215000666F7220696E7075740A00627573793AE1
:102160002070617573656420666F72207573657287
:102170000A00627573793A2070726F6365737369D0
:102180006E670A004B494C4C45442E20004B494C8D
:102190004C20636175736564206279204B494C4C17
:1021A00020627574746F6E2F70696E0A004B494C13
:1021B0004C45442E20004B494C4C2063617573659F
:1021C0006420627920746F6F206D75636820696E7A
:1021D0006163746976652074696D65202D2063756F
:1021E0007272656E7420636F6D6D616E643A20006B
:1021F000506C656173652072657365740050524957
:102200004E5445522048414C544544005072696E2A
:102210007465722068616C7465642E206B696C6CE7
:1022200028292063616C6C6564210A00656E7175F4
:10223000657565696E67202200000000000000DC03
:1022400042000000000000484200004842000080B8
:1022500040000000005761726E696E673A20486F57
:102260006D696E672042756D702044697669736F81
:1022700072203C20310A000202040000A04000004D
:10228000A040000000400000D2420000DC420000FC
:10229000DC42FF01FF48617264636F64656420443F
:1022A000656661756C742053657474696E6773201C
:1022B0004C6F616465640A00F4010000F4010000E1
:1022C00064000000102700000000964300009643C1
:1022D0000000A0410000C841D7A39D42D7A39D4262
:1022E000000048440000D44220520020204D3930E4
:1022F00030204B004C696E65617220416476616EDE
:1023000063653A0A0020440020490020204D333004
:10231000312050005049442073657474696E6773AE
:102320003A0A0020460020420020480020204D317B
:1023300034352053004D6174657269616C206865A5
:102340006174757020706172616D65746572733A45
:102350000A00205A0020590020204D3230362058E3
:1023600000486F6D65206F66667365743A0A0020D9
:102370004500205A002059002058002042002054D7
:102380000020204D323035205300416476616E6369
:1023900065643A20533C6D696E5F66656564726181
:1023A00074653E20543C6D696E5F74726176656C35
:1023B0005F66656564726174653E20423C6D696E5E
:1023C0005F7365676D656E745F74696D655F6D736E
:1023D0003E20583C6D61785F78795F6A65726B3E2C
:1023E000205A3C6D61785F7A5F6A65726B3E20456A
:1023F0003C6D61785F655F6A65726B3E0A002054D0
:102400000020520020204D323034205000416363C0
:10241000656C65726174696F6E2028756E6974737E
:102420002F7332293A20503C7072696E745F616379
:1024300063656C3E20523C726574726163745F61C7
:102440006363656C3E20543C74726176656C5F61B9
:102450006363656C3E0A00204500205A0020590045
:1024600020204D3230312058004D6178696D756DF6
:1024700020416363656C65726174696F6E202875B5
:102480006E6974732F7332293A0A00204500205A6E
:102490000020590020204D3230332058004D617803
:1024A000696D756D20666565647261746573202859
:1024B000756E6974732F73293A0A00204500205AFB
:1024C0000020590020204D39322058005374657087
:1024D000732070657220756E69743A0A0020204D71
:1024E0003230302044300A0020204D323030204439
:1024F000002044697361626C65640A0046696C611E
:102500006D656E742073657474696E67733A00202C
:10251000204D3134392043203B20556E697473209F
:10252000696E2043656C736975730A002020473219
:1025300031202020203B20556E69747320696E2065
:102540006D6D0A005072696E7420706175736564F8
:1025500000005072696E742061626F72746564006D
:102560004E6F2053442063617264005072696E7430
:102570002066726F6D2053440053746F7020707228
:10258000696E7400526573756D65207072696E7442
:102590000041626F7574205072696E7465720050EC
:1025A00061757365207072696E7400436F6E74722A
:1025B0006F6C00507265706172650054756E6500D5
:1025C000496E666F2073637265656E004D363030FC
:1025D000204230004368616E67652066696C616DFA
:1025E000656E7400466C6F7700466C6F77004E6FB7
:1025F0007A7A6C65004E6F7A7A6C65005370656507
:1026000064005370656564004D61696E00426163EA
:102610006B004E65787420636F726E657200436163
:102620006E6E6F74206F70656E2073756264697270
:1026300020006563686F3A007A5F6D696E3A20002A
:10264000795F6D61783A2000785F6D696E3A20009D
:102650005265706F7274696E6720656E6473746F13
:1026600070207374617475730A002569730025699D
:102670006D20256973002569682025696D2025690D
:102680007300256964202569682025696D20256906
:1026900073002569792025696420256968202569EA
:1026A0006D202569730009FFFFFFFF000101010193
:1026B0006265640A002C2073797374656D207374ED
:1026C0006F7070656421204865617465725F49446C
:1026D0003A2000544845524D414C2052554E4157E6
:1026E000415900546865726D616C2052756E617756
:1026F00061790048656174696E67206661696C651F
:10270000640048656174696E67206661696C656420
:1027100000526573656E643A20006F6B0020746F21
:102720006F206C6F6E6720657874727573696F6E59
:102730002070726576656E7465640A0020636F6C44
:102740006420657874727573696F6E207072657637
:10275000656E7465640A000069D584D411241FBEB7
:10276000CFEFD1E2DEBFCDBF00E00CBF13E0A0E0B1
:10277000B2E0E0E0F9EC01E00BBF02C007900D927F
:10278000A039B107D9F723E1A0E9B3E001C01D9258
:10279000AF32B207E1F713E1CDEAD3E100E006C0C2
:1027A00021970109802FFE010E94E9E3CC3AD1076D
:1027B00080E00807A9F70E9426CF0C946FE40C94E0
:1027C00000002F923F924F925F926F927F928F9272
:1027D0009F92AF92BF92CF92DF92EF92FF920F93B0
:1027E0001F93CF93DF93CDB7DEB7C755D1090FB68F
:1027F000F894DEBF0FBECDBF0091B20B20E6029F62
:10280000800111240E5C154F8091860D80FF1AC047
:10281000E2E3F6E284917F013FEFE31AF30A8111CC
:1028200002C0780104C00E9408ACF701F3CFD701C1
:102830008D917D01882319F00E9408ACF8CF8AE0C1
:102840000E9408AC81E090E090939A0C8093990CE0
:102850001092AF031092AE038FE38093BF031092E8
:10286000BE031092BD0384E0EAEAF3E0DF011D92AB
:102870008A95E9F7F80180810F5F1F4F8032D1F30D
:102880008E34C9F4818190ED980F9A3020F08D320A
:1028900011F08B3281F4DF0112969D012F5F3F4FC3
:1028A0008C9180538A3010F4D901F7CFFD01119635
:1028B00080818032D9F3F093A20CE093A10C7F01C8
:1028C000BFEFEB1AFB0A10816AE270E0C7010E94B9
:1028D00037E4009731F0FC01319780818032E1F3D9
:1028E00011821D3431F1143521F1173411F1E2E375
:1028F000F6E284918F010F5F1F4F882321F00E9421
:1029000008ACF801F6CF6091A10C7091A20C87E49D
:1029100096E00E94F93782E20E9408AC8AE00E94A9
:1029200008AC10929A0C1092990C0E9416CD0C943F
:10293000212BC701FC01208101962032D9F32053BD
:102940002A30A8F61093BF0380E090E06AE0319649
:10295000DF0111972C91022E000C330B205331090B
:10296000689FA001699F500D1124C901840F951F14
:10297000208120532A3058F39093BE038093BD03E7
:10298000DF0131962C912032D9F31D34D1F48E31F0
:10299000910591F03CF48731910571F08C319105EE
:1029A00081F40AC08537910564F08737910524F0DA
:1029B000803AE3E09E0729F4B093AF03A093AE03FF
:1029C0007CC01092AF031092AE030091A10CEE24D4
:1029D000E394F12CFD0131962C91222309F46DC072
:1029E0002132A1F41D3491F48032910579F4F093F1
:1029F000AF03E093AE0363E270E0CF010E9437E4DF
:102A0000009709F4B0C6DC011C9257C021542A314A
:102A1000A0F5AF01FA0130814F5F5F4F3032D1F343
:102A200040ED430F4A3040F043ED430F423020F079
:102A30003B3211F00C943B29AF01622F70E0DB01B7
:102A400033E0B595A7953A95E1F7A655BC4F2770A9
:102A5000670102C0CC0CDD1C2A95E2F796013C917F
:102A6000232B2C934115510511F0401B01C040E070
:102A7000DB01A057BC4F4C930AC02091AE033091AC
:102A8000AF03232B21F4B093AF03A093AE032081B7
:102A900021542A3110F4DF019DCFDF01AD014F5FDA
:102AA0005F4F2C9120532A3010F4DA01F7CFFD014B
:102AB000119620812032D9F3EECF8091BF038D345F
:102AC00009F451C6843511F40C94F828873409F0C0
:102AD0000ECF2090BD033090BE0324E022163104B7
:102AE00009F4E4C44CF437FC1CCF8091780242E036
:102AF0002416310404F517C05AE52516310409F4EB
:102B0000D0C534F49CE12916310409F414C509CF69
:102B1000ABE52A16310409F4C7C5BCE52B16310410
:102B200009F4C6C5FECE882309F4FBCE0E949B5B48
:102B30000E943BCCF6CE882309F4F3CE0E949B5B27
:102B400082E50E9497C1882309F42AC10E9435C1F9
:102B50004B015C0120E030E0A9010E9487DC882362
:102B600009F44AC120910C0930910D0940910E09D8
:102B700050910F092CA33DA34EA35FA38091100990
:102B800090911109A0911209B091130988A799A7F2
:102B9000AAA7BBA72091B70C3091B80C4091B90CF3
:102BA0005091BA0C28AB39AB4AAB5BAB8091BB0CF4
:102BB0009091BC0CA091BD0CB091BE0C8CA79DA7B0
:102BC000AEA7BFA76CA17DA18EA19FA10E9487DCAB
:102BD00081110DC02CA53DA54EA55FA568A579A5C1
:102BE0008AA59BA50E9487DC882309F405C111E012
:102BF00092E02916310409F010E020E030E0A9014C
:102C0000C501B4010E9487DC881F8827881F181718
:102C100049F020E030E040E85FEB2CAF3DAF4EAF35
:102C20005FAF08C080E090E0A0E8BFE38CAF9DAF4D
:102C3000AEAFBFAF2CA13DA14EA15FA168A979A9FC
:102C40008AA99BA90E94E1E068AF79AF8AAF9BAFE8
:102C500028A539A54AA55BA56CA57DA58EA59FA530
:102C60000E94E1E06B017C0128AD39AD4AAD5BAD5E
:102C7000CA01B9010E94ECDC2B013C01A7019601BD
:102C8000C701B6010E94ECDC9B01AC01C301B2019B
:102C90000E94E2E00E944DE36CAB7DAB8EAB9FAB3C
:102CA00020E030E040E05FE30E94ECDC2B013C01DF
:102CB000A5019401C501B4010E94ECDC4B015C014B
:102CC000A3019201C301B2010E94ECDC9B01AC01A3
:102CD000C501B4010E94E1E00E944DE32CAD3DAD81
:102CE0004EAD5FAD0E94ECDC4B015C01C701B6014B
:102CF00090582CA93DA94EA95FA90E94BEE1A5014B
:102D000094010E94ECDC6B017C0128A939A94AA935
:102D10005BA96CA17DA18EA19FA10E94E2E020E0B1
:102D200030E040E05FE30E94ECDC9B01AC01C701B6
:102D3000B6010E94E2E02CA13DA14EA15FA10E943C
:102D4000E1E06B017C012CA53DA54EA55FA568A522
:102D500079A58AA59BA50E94E2E020E030E040E052
:102D60005FE30E94ECDC2B013C012CA93DA94EA99C
:102D70005FA968AD79AD8AAD9BAD0E94BEE1A501AA
:102D800094010E94ECDC9B01AC01C301B2010E94E2
:102D9000E2E028A539A54AA55BA50E94E1E014C0A0
:102DA00089E40E9497C1882329F00E9435C16B01F4
:102DB0007C0103C0C12CD12C76018AE40E9497C10A
:102DC0008823E9F00E9435C168AB79AB8AAB9BAB35
:102DD00020E030E0A901C701B6010E9487DC811123
:102DE0001BC020E030E0A90168A979A98AA99BA9A4
:102DF0000E9487DC811110C0EAECFFE044C320E0B0
:102E000030E0A901C701B6010E9487DC8823A1F345
:102E100018AA19AA1AAA1BAAA701960150582CA3EE
:102E20003DA34EA35FA388A999A9AAA9BBA9B0589D
:102E300088A799A7AAA7BBA7CA01B9010E94ECDC81
:102E40004B015C0128A539A54AA55BA5CA01B901BA
:102E50000E94ECDC9B01AC01C501B4010E94E2E0E0
:102E60000E944DE360966CAF7DAF8EAF9FAF6097D1
:102E700020910C0930910D0940910E0950910F09D4
:102E80002CA73DA74EA75FA7A70196016CA57DA51E
:102E90008EA59FA50E94E2E06CAF7DAF8EAF9FAF85
:102EA0008091100990911109A0911209B091130914
:102EB0008CAB9DABAEABBFAB28A939A94AA95BA926
:102EC000BC01CD010E94E2E024966CAF7DAF8EAFD5
:102ED0009FAF24972091B70C3091B80C4091B90C5A
:102EE0005091BA0C28962CAF3DAF4EAF5FAF2897EC
:102EF0002CAD3DAD4EAD5FAD28966CAD7DAD8EADCC
:102F00009FAD28970E94E1E06B017C018091BB0C92
:102F10009091BC0CA091BD0CB091BE0C2C968CAFC6
:102F20009DAFAEAFBFAF2C9724962CAD3DAD4EAD4F
:102F30005FAD2497BC01CD010E94E1E04B015C0133
:102F400020911409309115094091160950911709E3
:102F500064962CAF3DAF4EAF5FAF64976091BF0CEE
:102F60007091C00C8091C10C9091C20C0E94E1E064
:102F700068AF79AF8AAF9BAFA70196016CA17DA125
:102F80008EA19FA10E94ECDC2B013C01A5019401C4
:102F900068A579A58AA59BA50E94ECDC9B01AC01E4
:102FA000C301B2010E94E2E02B013C01A5019401A2
:102FB0006CA17DA18EA19FA10E94ECDC4B015C0164
:102FC000A701960168A579A58AA59BA50E94ECDCBE
:102FD0009B01AC01C501B4010E94E1E0A301920193
:102FE0000E9455E16B017C0120E030E0A9010E94C4
:102FF00087DC87FF0AC02BED3FE049EC50E4C701B6
:10300000B6010E94E2E06B017C0132E0231631043C
:1030100051F42BED3FE049EC50E4C701B6010E94AA
:10302000E1E06B017C0120E030E0A901C701B601BD
:103030000E9487DC811124C028962CAD3DAD4EAD99
:103040005FAD28976CA57DA58EA59FA50E9487DC06
:10305000811116C02C962CAD3DAD4EAD5FAD2C97B9
:103060006CA97DA98EA99FA90E9487DC811108C047
:103070008BEDC82E8FE0D82E89ECE82E80E4F82E58
:10308000A701960160966CAD7DAD8EAD9FAD60974A
:103090000E94ECDC9B01AC010E94ECDC4B015C016A
:1030A00028AD39AD4AAD5BADCA01B9010E94ECDC77
:1030B0009B01AC01C501B4010E94E2E00E944DE316
:1030C0004B015C012FE632E143E85AE30E9487DCC2
:1030D00087FDD3C1C501B4010E9457E20E942BE2D3
:1030E0007DAB6CAB672B21F481E090E09DAB8CABAA
:1030F000409018095090190960901A0970901B09A6
:10310000ACA9BDA9BD0180E090E00E948BDC4B0121
:103110005C019B01AC01C701B6010E94BEE16CA736
:103120007DA78EA79FA7A501940168AD79AD8AAD53
:103130009BAD0E94BEE160966CAF7DAF8EAF9FAF3E
:103140006097A30192016091C30C7091C40C8091AF
:10315000C50C9091C60C0E94E1E0A50194010E946B
:10316000BEE168966CAF7DAF8EAF9FAF68972CA520
:103170003DA54EA55FA5CA01B9010E94ECDC20E087
:1031800030E040E05FE30E94ECDC9B01AC0160E0DA
:1031900070E080E89FE30E94E1E068AF79AF8AAF1A
:1031A0009BAF64962CAD3DAD4EAD5FAD6497298766
:1031B0003A874B875C874D865E866F86788A6091FA
:1031C000740270917502072E000C880B990B0E94F7
:1031D0008DDC2091790230917A0240917B025091EE
:1031E0007C020E94ECDC2AE037ED43E25CE30E94C3
:1031F000ECDC28966CAF7DAF8EAF9FAF28970E9416
:1032000058529B01AC0128533F4F4F4F5F4F2C96B4
:103210002CAF3DAF4EAF5FAF2C974CA05DA06EA022
:103220007FA022242394312C09E1D02E4CA95DA942
:103230004215530509F40DC10E94F2C80E9458526C
:10324000DC01CB012C962CAD3DAD4EAD5FAD2C9786
:10325000821B930BA40BB50BB7FD11C00E945852F3
:103260009B01AC0128533F4F4F4F5F4F2C962CAF23
:103270003DAF4EAF5FAF2C9780E00E9420AFDA9455
:10328000DD20E9F128A539A54AA55BA568AD79AD92
:103290008AAD9BAD0E94ECDC4B015C019201A30165
:1032A0006CA57DA58EA59FA50E94ECDCA5019401CF
:1032B0000E94E2E07B018C019201A30168AD79AD2F
:1032C0008AAD9BAD0E94ECDC4B015C0128A539A5C1
:1032D0004AA55BA56CA57DA58EA59FA50E94ECDCEB
:1032E0009B01AC01C501B4010E94E1E02B013C014E
:1032F000C701D80188A799A7AAA7BBA74DC0B1014C
:1033000080E090E00E948BDC2CA53DA54EA55FA53A
:103310000E94ECDC4B015C010E94BBE16B017C0173
:10332000C501B4010E9443E34B015C01A701960172
:103330006CA17DA18EA19FA10E94ECDC2B013C0120
:1033400028A939A94AA95BA9C501B4010E94ECDCEE
:10335000A30192010E94E2E02B013C01A50194012E
:103360006CA17DA18EA19FA10E94ECDC4B015C01B0
:1033700028A939A94AA95BA9C701B6010E94ECDCBA
:103380009B01AC01C501B4010E94E1E068A779A7E7
:103390008AA79BA7B9E1DB2E9201A3016CAD7DAD9D
:1033A0008EAD9FAD0E94E2E069837A838B839C831C
:1033B00028A539A54AA55BA524966CAD7DAD8EAD3B
:1033C0009FAD24970E94E2E06D837E838F83988770
:1033D00060962CAD3DAD4EAD5FAD609769857A8549
:1033E0008B859C850E94E2E069877A878B879C8722
:1033F00068962CAD3DAD4EAD5FAD68976D857E8511
:103400008F8598890E94E2E06D877E878F87988BF1
:1034100080916702882321F0CE0101960E942DAD94
:10342000C090870D2896ECACFDAC0EAD1FAD289773
:103430009E01235F3F4FAE01475F5F4FBE016B5F51
:103440007F4FCE0101960E9435643FEF231A330A65
:10345000EDCEC090870D2896ECACFDAC0EAD1FAD47
:10346000289723EC3CE04FEB5CE06BEB7CE087EBD8
:103470009CE00E9435640E94905D0E947FC251CA08
:103480000E9408ACF80184918F010F5F1F4F8111DA
:10349000F7CFE9EDF1E084918F010F5F1F4F882393
:1034A00009F43FCA0E9408ACF801F5CF80E50E94FC
:1034B00097C1882329F00E94F5C06B017C0103C0ED
:1034C000C12CD12C760183E50E9497C1882361F03D
:1034D0000E9435C120E030E04AE754E40E94ECDC71
:1034E0000E942BE26B017C010E9430CC80910A0289
:1034F000811105C060E08FEE91E00E9465570E9447
:103500007FC28091A30C9091A40CA091A50CB091C6
:10351000A60CC80ED91EEA1EFB1E0E945852DC01E2
:10352000CB018C199D09AE09BF09B7FFFAC980E02C
:103530000E9420AFF2CF0E9430CC8091790290910E
:103540007A02A0917B02B0917C028093B9039093A0
:10355000BA03A093BB03B093BC0380917402909113
:1035600075029093B8038093B70384E690E090933C
:103570007502809374020E947FC281E08093FD09EE
:1035800088E50E9468C1E82E89E50E9468C1082F7D
:103590008AE50E9468C1F82EE11005C0011105C03E
:1035A00011E0182705C0011102C010E001C0182F5A
:1035B0000E94865D111105C0E11003C0002309F4CB
:1035C00044C020E030E040EA50E46091900D7091FA
:1035D000910D8091920D9091930D0E94E2E0609385
:1035E000BF0C7093C00C8093C10C9093C20C2091BF
:1035F00014093091150940911609509117090E943C
:1036000008E318167CF419821A821B821C829E0120
:103610002F5F3F4F4FEB5CE060E179E08CE099E099
:103620000E94965C111105C0E11003C0011107C092
:103630000CC080E090E00E94BFAD1123B9F381E09F
:1036400090E00E94BFAD111102C0FF2021F082E086
:1036500090E00E94BFAD0E94ECC08091B0038093C7
:10366000FD098091B9039091BA03A091BB03B09179
:10367000BC038093790290937A02A0937B02B0936B
:103680007C028091B7039091B80390937502809368
:1036900074020E947FC283E0809309020E94B6A553
:1036A00040C91092B6033DC981E08093B60339C981
:1036B00085E40E9497C1B82E811102C00E9430CCCF
:1036C000EDE78E2EE2E09E2EFCE0CF2EF9E0DF2E1D
:1036D000ABEAEA2EACE0FA2E00E010E0A12CD40117
:1036E0008D914D010E9497C1882339F1F6014080E8
:1036F0005180628073800E9435C1D6016D937D93A5
:103700008D939C9313970330C1F0A30192010E9403
:10371000E1E09B01AC01F7016081718182819381BD
:103720000E94E2E0D7016D937D938D939C93139754
:10373000C8010E94B25DAA24A3940F5F1F4FB4E09A
:10374000CB0ED11CE4E0EE0EF11C0430110539F66D
:10375000AA2019F00E94ECC003C0B1100E94AE3C38
:103760000E94B6A5DEC88091BD039091BE0382374A
:10377000910509F420C60CF0ABC08B34910509F417
:1037800087C30CF05EC08831910509F44EC2B4F5D0
:103790008231910509F434C5D4F497FDC2C8823052
:1037A00091050CF45FC1419709F0BBC860E087E266
:1037B00092E00E9465575F988A989FB7F89480912D
:1037C00008018E7F809308019FBF1298AAC8853197
:1037D000910509F40FC234F4449709F0A2C8EFE34D
:1037E000F2E0C8C18631910509F408C2479709F093
:1037F00098C8E091AE03F091AF030AC28C319105F5
:1038000009F47AC25CF48A31910509F419C20CF00A
:1038100036C2109239100E9459C783C88F31910562
:1038200009F4BEC234F44E9709F07BC80E942F61A0
:1038300078C88032910509F469C28A9709F4DCC21C
:1038400070C88C35910509F42DC50CF581359105AD
:1038500009F4BAC46CF48D34910509F421C30CF455
:103860001BC38E34910509F05CC80E94B0AA59C8E8
:103870008335910509F4BFC40CF4B9C484359105AE
:1038800009F4BEC48535910509F4F1C44AC88D36E2
:10389000910509F47DC46CF48936910509F432C4AC
:1038A0008C36910509F4E2C38836910509F039C8D0
:1038B000FBC28F36910509F461C30CF44CC3803709
:1038C000910509F4D7C38137910509F4D7C329C8F5
:1038D0008D3D910511F40C9457250CF04BC08B399C
:1038E000910509F42CC414F58737910509F438C6FD
:1038F0006CF48537910509F4F3C50CF0FAC58337EC
:10390000910509F00EC8E7EDF3E05EC58937910532
:1039100009F431C60CF428C68C38910509F4DBC3D0
:103920008139910509F42DC60C9491148C3C9105B4
:1039300009F41EC774F4893C910509F4D8C68B3C80
:10394000910509F4F8C6883C910511F00C94911486
:103950007AC68E3C910509F4E4C70CF475C7833D23
:10396000910509F47CC08C3D910511F40C94482517
:103970000C9491148C3AF1E09F0711F40C94C52635
:10398000ACF58E3231E0930711F40C946A2684F47E
:103990008C3251E0950711F40C94A12514F00C948D
:1039A000CB25823E910511F40C9473250C9491144F
:1039B0008336B1E09B0709F44EC04CF48F3291403E
:1039C00011F00C9491140E94B6A60C9491148039B5
:1039D00021E0920711F40C94C1268A39914011F02C
:1039E0000C9491140E945DA50C949114873F41E0C2
:1039F000940711F40C94B22794F4853FA1E09A0740
:103A000011F40C94AA2714F00C94AE27843F914033
:103A100011F00C9491140E94C67D0C94911484387A
:103A2000F3E09F0711F40C94C1274CF488359240C1
:103A300011F00C9491140E943B2B0C949114803A39
:103A400043E0940709F49FC1873E934011F40C941E
:103A5000E4280C949114EAECFFE00C94D028E2E303
:103A6000F6E27EC7A090AE03B090AF0380E50E945F
:103A700097C1882359F00E94F5C06B017C0111E0C9
:103A8000672B682B692B31F410E004C010E0C12CC7
:103A9000D12C760183E50E9497C18823F1F00E9422
:103AA00035C120E030E04AE754E40E94ECDC0E949B
:103AB0002BE26B017C01111112C0672B682B692B63
:103AC00071F4A114B10459F0D5018C91882339F017
:103AD00061E0C5010E94845707C0112391F360E0A3
:103AE00084E192E00E94655783E090E090939A0C05
:103AF0008093990C81E080934B090E9430CC0E9406
:103B00007FC2C114D104E104F104E1F08091A30C5F
:103B10009091A40CA091A50CB091A60CC80ED91E32
:103B2000EA1EFB1E0E945852DC01CB018C199D0934
:103B3000AE09BF09B7FF1AC080914B0981110C94DF
:103B40004C2914C080914B09882321F080E00E9409
:103B500020AFF8CF8091391060E0882319F085E01C
:103B600092E002C088EF91E00E94655710924B09E5
:103B70000C94911484918F010F5F1F4F882321F0C3
:103B80000E9408ACF801F6CF1092BF121092BE123C
:103B90008AE690E10E94B6868BE1EAE6F0E1DE017A
:103BA000159601900D928A95E1F780916810909199
:103BB00069109C838B838BED92E09A83898340E02C
:103BC00050E0BE016F5F7F4F82E293E00E9448BEEB
:103BD000CE0101960E94C186E0E3F2E084918F015C
:103BE0000F5F1F4F882311F40C9491140E9408ACAE
:103BF000F801F4CF0E9428390C94911410923910D6
:103C000010923A100C949114803209F4108231967B
:103C100080818111F9CF40E061E08091AE03909105
:103C2000AF030E94463D0C94911480913A10882372
:103C300019F081E0809339100E94FEC60C94911413
:103C400080913A10882311F40C94911483E50E941A
:103C500097C1882311F40C9491140E9405C1AB0103
:103C6000BC014093B5125093B6126093B712709393
:103C7000B81284E092E10E94D4490C94911480918E
:103C80003A10811103C0E2E6F2E02AC0E0E5F2E07A
:103C900084918F010F5F1F4F882321F00E9408AC91
:103CA000F801F6CF6091B5127091B6128091B712FB
:103CB0009091B8124AE00E940FAC8FE20E9408ACCB
:103CC0006091B1127091B2128091B3129091B412BE
:103CD0004AE00E940FAC8AE00E9408AC0C94911458
:103CE00084918F010F5F1F4F882311F40C9491145E
:103CF0000E9408ACF801F4CF40E060E08091AE0390
:103D00009091AF030E94463D0C949114809139101C
:103D100081110E9430CCE090AE03F090AF0380E5BB
:103D20000E9468C1182F882319F00E9426C1182FFD
:103D300080913A10882311F40C949114412F61E082
:103D4000C7010E94463D83E50E9497C1882381F008
:103D50000E9405C1AB01BC014093B5125093B6124D
:103D60006093B7127093B81284E092E10E94D44934
:103D700080913A10882319F081E080933910111155
:103D80000C94911459CF8091AE039091AF0321E030
:103D90002093381040E060E00E94463D0C9491145E
:103DA0008EE090E10E94C1CB68A379A38AA39BA374
:103DB000BE016F5F7F4FCE0180960E94A3C160E07D
:103DC000CE0101960E948457E2E3F6E284918F01CE
:103DD0000F5F1F4F882321F00E9408ACF801F6CF37
:103DE000BE016F5F7F4F83E792E00E94F9378AE060
:103DF0000E9408AC0C94911483E50E9497C188231B
:103E000011F40C9491140E9415C1F82E80E50E94C3
:103E100097C1882339F00E9405C18B0177FF04C048
:103E20000C9491140DE010E0802FE8E7F5E09491F8
:103E3000891303C0EAECFFE017C03196B5E0E03A21
:103E4000FB07A9F761E0802F0E94E17C6F2D802F96
:103E50000E94B37C6F2D70E0802F0E9457510C940C
:103E600091140E9408ACF80184918F010F5F1F4FDD
:103E70008111F7CFE0E8F2E084918F010F5F1F4FCF
:103E8000882311F40C9491140E9408ACF801F4CF2B
:103E90000E94FEC60C9491140E9459C70C94911470
:103EA0000E94E1BB0C94911488E690E00E94445E6D
:103EB00081110C9491148091860D83FF02C00C94A3
:103EC000911483E50E9497C1882309F440C00E94A1
:103ED00035C10E9426E27093C30B6093C20B80E051
:103EE0000E94DCA40E9435C120E030E04AEA52E49E
:103EF0000E9487DC18163CF00E94E1BB60E086E976
:103F000092E00E9465570E9435C120914C09309182
:103F10004D0940914E0950914F090E9408E318162F
:103F2000B4F483EF92E09F938F938091B10390E07C
:103F300001969F938F938FE892E09F938F931F92A8
:103F40000E94913C0FB6F894DEBF0FBECDBF0E9419
:103F500092D60C9491148EE40E9497C1882311F498
:103F60000C9491140E9405C160932513709326133D
:103F700080932713909328130C94911483E50E9447
:103F800068C1882359F083E50E9497C1882319F0FE
:103F90000E9415C101C080E08093860DE2E3F6E245
:103FA00084918F010F5F1F4F811103C0E1EBF2E09D
:103FB00004C00E9408ACF801F3CF84918F010F5F19
:103FC0001F4F882321F00E9408ACF801F6CF8091A2
:103FD000860D811103C0EDEAF2E034C073EAC72E0A
:103FE00072E0D72EE12CF12C20E08091860D90E03C
:103FF0000E2C02C0959587950A94E2F780FF17C0B2
:10400000BB24B394B20E222319F08CE20E9408ACB8
:10401000F60185919491FC0184918F010F5F1F4FF0
:10402000882321F00E9408ACF801F6CF2B2DFFEF7A
:10403000EF1AFF0A32E0C30ED11C45E0E416F1048A
:10404000A1F60FC084918F010F5F1F4F882349F0A5
:104050000E9408ACF801F6CF42E0C701B6010E9409
:104060007AAC8AE00E9408AC0C9491141092710210
:104070000C94911488EB92E00E94D0AE83E50E94EC
:1040800097C1811103C0E2E3F6E20DC00E9415C1A1
:1040900080936C028D3310F40C9491148CE3809314
:1040A0006C020C94911484918F010F5F1F4F882331
:1040B00021F00E9408ACF801F6CF40916C0250E06C
:1040C00060E070E081EC92E00E94A6378AE00E94F6
:1040D00008AC0C9491148091860D83FF02C00C945F
:1040E000911483E50E9497C1882311F40C949114D4
:1040F0000E9435C10E9426E270934F0C60934E0CD3
:104100000C94911489E690E00E94445E811111C0E4
:10411000E8ECF2E084918F010F5F1F4F882321F0BC
:104120000E9408ACF801F6CF0E9469A68AE00E94BE
:1041300008AC10929A0C1092990C0C94212B83E5E8
:104140000E9497C1882311F40C9491140E9415C108
:1041500080939F0C8D3318F08CE380939F0C0E940A
:1041600058526B017C0120919F0C30E0A8EEB3E027
:104170000E94D2E0C60ED71EE81EF91EC0929B0C0C
:10418000D0929C0CE0929D0CF0929E0C0C94911499
:104190008DE690E00E94445E81110C949114809110
:1041A000860D83FF02C00C94911483E50E9497C191
:1041B00088AB81110C94512982E50E9497C181112D
:1041C0000C9451290C9491140E9428A50E9430CC83
:1041D0000E94C0AE68EE73E080E090E00E94AF56AF
:1041E00060E081EF92E00E9465570C949114109268
:1041F000B5030C94911481E08093B5030C94911451
:1042000083E50E9497C18823A1F00E9435C120E078
:1042100030E04AE754E40E94ECDC0E942BE2609319
:104220006D0270936E0280936F02909370020C94F3
:10423000911488E50E9468C181110C94CC2A89E50B
:104240000E9468C181110C94CC2A8AE50E9468C141
:1042500081110C94CC2A85E40E9468C181110C94D0
:10426000CC2A0E9430CC0E94C0AE0C94911483E5FD
:104270000E9468C1882311F40C9491140E9435C1E6
:1042800020E030E04AE754E40E94ECDC0E942BE29C
:104290006093A70C7093A80C8093A90C9093AA0C20
:1042A0000C9491145DE7C52E52E0D52E6CE1E62EFC
:1042B00069E0F62E10E0D6018D916D010E9468C173
:1042C000882309F46DC0133009F063C00E9435C122
:1042D0004B015C0120E030E040EA51E40E9487DCC1
:1042E00087FF4EC0A50194016091280970912909AA
:1042F00080912A0990912B090E94BEE12B013C017B
:104300009B01AC016091320C7091330C8091340CA4
:104310009091350C0E94ECDC6093320C7093330C5E
:104320008093340C9093350CA30192016091E00BC3
:104330007091E10B8091E20B9091E30B0E94ECDC19
:104340006093E00B7093E10B8093E20B9093E30B8F
:104350006091D8127091D9128091DA129091DB128B
:104360000E948BDCA30192010E94ECDC0E942BE2F4
:104370006093D8127093D9128093DA129093DB1263
:104380008092280990922909A0922A09B0922B09BB
:1043900007C00E9435C1F7016083718382839383D4
:1043A0001F5FF4E0EF0EF11C143009F084CF0E947F
:1043B000A8C60C9491140E9430CC0E94B6A50C940F
:1043C00091140E9408ACF80184918F010F5F1F4F78
:1043D0008111F7CFE9ECF3E003C00E9408ACF801CB
:1043E00084918F010F5F1F4F8111F7CFE2EBF3E054
:1043F00003C00E9408ACF80184918F010F5F1F4F2A
:104400008111F7CFE2EAF3E003C00E9408ACF801A3
:1044100084918F010F5F1F4F8111F7CFE1E9F3E026
:1044200003C00E9408ACF80184918F010F5F1F4FF9
:104430008111F7CFE0E8F3E003C00E9408ACF80177
:1044400084918F010F5F1F4F8111F7CFE1E7F3E0F8
:1044500003C00E9408ACF80184918F010F5F1F4FC9
:104460008111F7CFECE5F3E003C00E9408ACF8013E
:1044700084918F010F5F1F4F8111F7CFE6E4F3E0C6
:1044800003C00E9408ACF80184918F010F5F1F4F99
:104490008111F7CFE1E3F3E003C00E9408ACF8011B
:1044A00084918F010F5F1F4F8111F7CFE4E1F3E09B
:1044B00003C00E9408ACF80184918F010F5F1F4F69
:1044C0008111F7CFECEFF2E084918F010F5F1F4F66
:1044D000882311F40C9491140E9408ACF801F4CFD5
:1044E00060E08091AE039091AF030E9484570C94DA
:1044F000911485E40E9468C1882381F00E9426C13E
:10450000882361F0E2E3F6E284918F010F5F1F4F91
:10451000882321F00E9408ACF801F6CF81E40E94C4
:1045200068C1882381F00E9426C1882361F0E8E9F0
:10453000F4E084918F010F5F1F4F882321F00E94C8
:1045400008ACF801F6CF0091AE031091AF03D8018B
:104550008D918D01882309F484CD0E9408ACF7CF9A
:104560000E9420C30C94911481E08093FD098093F4
:10457000B0030C9491141092FD091092B0030C94A6
:10458000911483E50E9497C1882319F00E9405C108
:1045900002C060E070E08B01112702301105DCF0F1
:1045A000EAECFFE084918F010F5F1F4F811103C080
:1045B000ECE9F4E004C00E9408ACF801F3CF849168
:1045C0008F010F5F1F4F882311F40C9491140E94E8
:1045D00008ACF801F4CF88E40E9497C18823A9F0C1
:1045E0000E9405C16A3A71053CF06530B1E07B0775
:1045F0002CF064E071E002C06AEA70E0F801EE0FAE
:10460000FF1FEC53F44F7183608386E40E9497C1CF
:10461000882311F40C9491140E9405C1000F111FFE
:10462000F801E853F44F718360836F3F710519F00F
:1046300014F06FEF70E077FF02C060E070E071830C
:1046400060830C94911488EC90E00E94445E811188
:104650000C94911484E40E9468C1882309F443C037
:104660000E9435C16B017C0111E020E030E0A9011E
:104670000E9487DC811101C010E010933A0C20E009
:1046800030E0A901C701B6010E9487DC882359F1F7
:104690000091B10310E00E9435C1000F111F000FFF
:1046A000111FF801EA5CF34F608371838283938367
:1046B00020E030E0A9016091360C7091370C8091B8
:1046C000380C9091390C0E9487DC81110CC080E07D
:1046D00090E0A0EEBFE38093360C9093370CA0934C
:1046E000380CB093390C0E94C3AB0C949114BDE705
:1046F000EB2EB2E0FB2E0AE01CE08AE1C82E8CE033
:10470000D82EF70181917F010E9468C1882351F062
:104710000E9435C10E942BE2D8016D937D938D9349
:104720009C9313970C5F1F4FC016D10651F70E9440
:1047300052C50C949114ADE7EA2EA2E0FA2E04EDD6
:104740001BE0F70181917F010E9468C1882341F03D
:104750000E9435C1D8016D937D938D939C931397DF
:104760000C5F1F4FBBE0043E1B0759F70C949114DC
:1047700083E50E9468C18823D9F00E9435C1AB014E
:10478000BC014093220C5093230C6093240C709333
:10479000250C40931A0C50931B0C60931C0C7093C7
:1047A0001D0C88E195E00E94C3378AE00E9408ACA6
:1047B00080E50E9468C1882399F00E9435C1AB0151
:1047C000BC014093220C5093230C6093240C7093F3
:1047D000250C8BEF94E00E94C3378AE00E9408AC5E
:1047E00082E50E9468C1882399F00E9435C1AB011F
:1047F000BC0140931E0C50931F0C6093200C7093CF
:10480000210C8CED94E00E94C3378AE00E9408AC32
:1048100084E50E9468C1882311F40C9491140E94CD
:1048200035C1AB01BC0140931A0C50931B0C609333
:104830001C0C70931D0C8EEB94E00E94C3378AE031
:104840000E9408AC0C94911483E50E9468C18823EF
:1048500051F00E9435C16093D00B7093D10B8093BF
:10486000D20B9093D30B84E50E9468C1882351F04A
:104870000E9435C16093CC0B7093CD0B8093CE0B0F
:104880009093CF0B82E40E9468C1882351F00E946C
:10489000F5C06093E4097093E5098093E60990936D
:1048A000E70988E50E9468C1882351F00E9435C15C
:1048B0006093260C7093270C8093280C9093290CFE
:1048C00089E50E9468C1882351F00E9435C1609338
:1048D0002A0C70932B0C80932C0C90932D0C8AE552
:1048E0000E9468C1882351F00E9435C160932E0C4C
:1048F00070932F0C8093300C9093310C85E40E94C0
:1049000068C1882311F40C9491140E9435C16093FE
:10491000320C7093330C8093340C9093350C0C94C0
:104920009114FDE7EF2EF2E0FF2E00E010E0F7011A
:1049300081917F010E9468C1882339F00E9435C1AE
:10494000AB01BC01C8010E94085E0F5F1F4F03301E
:10495000110569F70E94ECC00E94B6A50C94911451
:1049600084918F010F5F1F4F882321F00E9408ACB4
:10497000F801F6CF83E50E9468C1882321F00E94E8
:1049800026C180936702E8E6F5E084918F010F5F0E
:104990001F4F882321F00E9408ACF801F6CF8091C8
:1049A0006702882319F0E0E6F5E002C0E4E6F5E0EE
:1049B00084918F010F5F1F4F811103C0E8E5F5E07F
:1049C00004C00E9408ACF801F3CF84918F010F5FFF
:1049D0001F4F882321F00E9408ACF801F6CF4091C8
:1049E000F40B5091F50B6091F60B7091F70B86E587
:1049F00095E00E94C3374091F80B5091F90B6091FC
:104A0000FA0B7091FB0B83E595E00E94C337409150
:104A1000FC0B5091FD0B6091FE0B7091FF0B80E53C
:104A200095E00E94C337E8E4F5E084918F010F5FC1
:104A30001F4F882321F00E9408ACF801F6CF409167
:104A40005B0250915C0260915D0270915E0286E4AF
:104A500095E00E94C33740915F02509160026091DF
:104A600061027091620283E495E00E94C337409135
:104A7000630250916402609165027091660280E465
:104A800095E00E94C3378AE00E9408AC0C94911410
:104A900083E50E9497C1882311F40C9491140E941D
:104AA00005C170937502609374020C9491148DED9E
:104AB00090E00E94445E81110C94911483E50E9461
:104AC00097C1882311F40C9491140091B10310E064
:104AD0000E9405C1000F111FF801EE58FD4F7183B0
:104AE00060830C94911480E50E9468C1882311F4BE
:104AF0000C9491140E9405C1F62EC62ED72E83E584
:104B00000E9497C1882321F00E9405C18B0102C039
:104B10000FEF1FEFC8010196039710F00C9491144A
:104B2000D7FE02C00C949114E8E7F5E08491F816E2
:104B300011F40C949114319625E0E03AF207B1F7A4
:104B400057C583E50E9497C1882319F00E9405C1CB
:104B500002C064E071E079A368A380E50E9497C178
:104B6000882339F00E9405C1693833E1730730F4B6
:104B700002C068EE73E07A83698304C088E893E139
:104B80009A838983BE01605E7F4FCE0101960E94A9
:104B9000453C0C94911485E40E9497C1811110C08A
:104BA00080E50E9468C1882391F00E9435C160931E
:104BB000B50B7093B60B8093B70B9093B80B07C0EF
:104BC0000E9415C1882361F3EAECFFE072C089E41A
:104BD0000E9468C1882381F00E9435C12CEA35EC1F
:104BE00047E25EE30E94ECDC6093BD0B7093BE0B6A
:104BF0008093BF0B9093C00B84E40E9468C188230C
:104C000081F00E9435C12CEA35EC47E25EE30E9458
:104C1000BEE16093B90B7093BA0B8093BB0B90937A
:104C2000BC0BE2E3F6E284918F010F5F1F4F8823F4
:104C300021F00E9408ACF801F6CF4091B50B5091DD
:104C4000B60B6091B70B7091B80B88EA95E00E94A3
:104C5000C3372CEA35EC47E25EE36091BD0B7091FF
:104C6000BE0B8091BF0B9091C00B0E94BEE1AB01C7
:104C7000BC0184EA95E00E94C3372CEA35EC47E298
:104C80005EE36091B90B7091BA0B8091BB0B909170
:104C9000BC0B0E94ECDCAB01BC0180EA95E00E94F9
:104CA000C3378AE00E9408AC0C9491140E9408ACAF
:104CB000F80184918F010F5F1F4F8111F7CF0EEF25
:104CC00012E0D8018D918D01882309F4CAC90E9490
:104CD00008ACF7CF83E50E9468C1182F882371F0D4
:104CE0000E9435C10E9426E270934A0260934902F5
:104CF00021E0672B09F020E02093500980E50E9415
:104D000068C1882361F02091490230914A02232B27
:104D100011F00E9426C1809350090C949114111136
:104D20000C949114E2E3F6E284918F010F5F1F4F20
:104D3000882321F00E9408ACF801F6CF8091500939
:104D4000882319F062E873E002C06FEE72E081EC34
:104D500095E00E94F9376091490270914A0280EB18
:104D600095E00E94E037ECEAF5E084918F010F5F57
:104D70001F4F882311F40C9491140E9408ACF80181
:104D8000F4CF0E9430CC0C949114E1EFFBE0FDA332
:104D9000ECA338E8832E3DE0932E4CE0A42E49E0AE
:104DA000B42E54EFC52E5BE0D52E6BE5262E62E0C7
:104DB000362E09E312E2E12CF12CACA1BDA18D91BC
:104DC000BDA3ACA3882309F488C0F50140805180BD
:104DD00062807380D1012D913D914D915C91F601DE
:104DE00060817181828193810E94E2E020E030E065
:104DF00040E05FE30E94ECDC9B01AC01C301B20127
:104E00000E9408E3181654F4F80185919591A59134
:104E1000B49188A798ABACA7BCAB04C018A618AADD
:104E20001CA61CAAD4012D913D914D915C91C3010A
:104E3000B2010E94E1E09B01AC0168A578A98CA5B4
:104E40009CA90E94E1E02B013C0120E030E040EA17
:104E500051EC0E9408E387FD0AC020E030E040EA00
:104E600051E4C301B2010E9487DC18161CF4EAEC7D
:104E7000FFE009C0B301A201C7010E94085E2DC076
:104E80000E9408ACF80184918F010F5F1F4F8111C0
:104E9000F7CFE2EFF5E084918F010F5F1F4F88237A
:104EA00021F00E9408ACF801F6CF61E084EE95E0B5
:104EB0000E9465570E94D99E88E290E09A83898378
:104EC00088EC90E099A388A3BE016F5F7F4FCE016D
:104ED00080960E94453C0C949114BFEFEB1AFB0A9C
:104EE000E4E08E0E911CF4E0AF0EB11C24E0C20E83
:104EF000D11C34E0230E311C0C5F1F4F43E0E4163D
:104F0000F10409F05ACF0E94ECC00E94B6A560E0FF
:104F100084ED95E00E94655783E992E099A388A308
:104F200004E610E01A830983BE01605E7F4FCE0164
:104F300001960E94453C8AEB92E099A388A31A83CC
:104F40000983BE01605E7F4FCE0101960E94453C01
:104F50000C9491140E94FA810C9491140E9483B2D3
:104F60000C94911483E50E9468C1882319F00E9473
:104F700026C101C081E091E089270E94A8B30C946A
:104F800091140E9430CC8BE40E9497C1882399F041
:104F90000E9435C16B017C0120E030E0A9010E9434
:104FA00008E387FD08C0C0923B0CD0923C0CE09215
:104FB0003D0CF0923E0C82E50E9497C1882361F07F
:104FC0000E9435C16B017C0120E030E0A9010E9404
:104FD00087DC87FF89C006C0C12CD12C20E8E22ED7
:104FE0002FEBF22E84E40E9497C1882329F00E94BF
:104FF00035C14B015C0106C0812C912C90E8A92E93
:105000009FEBB92E87E50E9497C1882329F00E9463
:1050100035C12B013C0106C0412C512C80E8682E83
:105020008FEB782E88E40E9497C1882339F00E9484
:1050300035C16CA37DA38EA39FA308C080E090E040
:10504000A0E8BFEB8CA39DA3AEA3BFA320E030E0FC
:10505000A901C501B4010E9408E387FD45C020E015
:1050600030E0A901C301B2010E9408E387FD3CC002
:1050700020E030E0A9016CA17DA18EA19FA10E943A
:1050800008E387FD31C020E030E0A901C501B4018B
:105090000E9487DC882391F120E030E040E05FE36C
:1050A000C501B4010E94ECDC6B017C012CA13DA187
:1050B0004EA15FA1C301B2010E94ECDC4B015C0177
:1050C000A7019601C701B6010E94ECDC2BED3FE081
:1050D00049E450E40E94ECDC9B01AC01C501B40141
:1050E0000E94BEE16B017C0120E030E0A901C70114
:1050F000B6010E9408E387FF04C00BC0C12CD12C6D
:105100007601C092E009D092E109E092E209F092C2
:10511000E309E2E3F6E284918F010F5F1F4F8823DA
:1051200021F00E9408ACF801F6CF40913B0C509161
:105130003C0C60913D0C70913E0C8BE196E00E941E
:10514000C337E5E1F6E084918F010F5F1F4F88239D
:1051500021F00E9408ACF801F6CFC090E009D09091
:10516000E109E090E209F090E30920E030E0A901D4
:10517000C701B6010E9487DC81110C942C20E0E16C
:10518000F6E084918F010F5F1F4F882311F40C9478
:1051900031200E9408ACF801F4CF0E9408ACF8015D
:1051A00084918F010F5F1F4F8111F7CFE6E2F6E088
:1051B00084918F010F5F1F4F882311F40C94911479
:1051C0000E9408ACF801F4CF81E08093780210923D
:1051D0002D0983E50E9468C1811104C00E9435CD6C
:1051E0000C9491140E9426C181110C949114F6CF55
:1051F000F090BD03FF2029F1E2E3F6E284918F01F4
:105200000F5F1F4F882321F00E9408ACF801F6CFF2
:1052100084E50E9408AC6F2D70E080E090E04AE0E9
:105220000E940FAC80E20E9408AC0EEF12E0D801A1
:105230008D918D01882311F40C9431200E9408ACCB
:10524000F6CF1092870DE2E3F6E284918F010F5FB3
:105250001F4F882321F00E9408ACF801F6CF60911F
:10526000870D70E085E396E00E94E0378AE00E94B7
:1052700008AC0C9491144091AE035091AF03452BB0
:1052800039F4AF01415051095093AF034093AE033D
:1052900040E050E00C941D1580E00E9420AF0C947B
:1052A000921D0E9435C10E9426E27093C30B609349
:1052B000C20B80E00E94DCA40E9435C120E030E0F7
:1052C0004AEA52E40E9487DC181644F00E94E1BBCF
:1052D00060E084EE92E00E94655702C00E94FEC624
:1052E0006091C20B7091C30B072E000C880B990BB9
:1052F0000E948DDC20914C0930914D0940914E095E
:1053000050914F090E9408E31816B4F483EF92E01D
:105310009F938F938091B10390E001969F938F9319
:105320008DED92E09F938F931F920E94913C0FB658
:10533000F894DEBF0FBECDBF0E9492D681E080936D
:10534000710218A619A61AA61BA61CA61DA61EA6A3
:105350001FA61CA21CAA9CE398AFACE1ACAFB6E4BC
:105360002196BFAF2197E12CF12C00E81FEB812C97
:10537000912C54016091C20B7091C30B072E000C4D
:10538000880B990B0E948DDC762E672E582E492EA5
:105390009701A8010E9487DC882371F1C0904C0915
:1053A000D0904D09E0904E09F0904F09A701960169
:1053B000672D762D852D942D0E9487DC881F8827E8
:1053C000881F8CA3E8A9EE23E9F0A7019601672DB9
:1053D000762D852D942D0E9487DC87FF12C0809149
:1053E0007102882311F40C94911460E08BEC92E02C
:1053F0000E9465570C9491147E2C6F2C502E412ED8
:1054000001C01CA20E9458526B017C01DC01CB013F
:105410002CA53DA54EA55FA5821B930BA40BB50B38
:10542000B7FD3AC0D701C60188519C4FAF4FBF4F5F
:105430008CA79DA7AEA7BFA70E9469A6E9EDF2E0E1
:1054400084918F010F5F1F4F882321F00E9408ACC9
:10545000F801F6CF81149104A104B104B9F0D5018B
:10546000C401805F984DAF4FBF4FBC01CD016C1997
:105470007D098E099F0928EE33E040E050E00E944C
:10548000A6E0CA01B9010E94BA7203C08FE30E946C
:1054900008AC8AE00E9408AC80E00E9420AF0E9425
:1054A0007FC220904C0930904D0900914E09109117
:1054B0004F099101A801672D762D852D942D0E940D
:1054C000E1E09F7781149104A104B10449F420E044
:1054D00030E040E85FE30E9487DC87FF0BC008C034
:1054E00020E030E040E450E40E9408E3181614F491
:1054F000460157019CA1992399F128A539A54AA5F0
:105500005BA5211531054105510541F0D701C601C3
:10551000821B930BA40BB50BB7FD22C09101A80110
:105520006CA978AD8CAD21969FAD21970E94E1E0EA
:1055300020E030E040EC5FE30E9487DC87FD4FCF46
:10554000D701C601805A9541AF4FBF4F88A799A791
:10555000AAA7BBA72CAA38AE0CAF21961FAF2197E4
:1055600080917102882309F43ACF81149104A10437
:10557000B10429F4E72CF62C052D142DFBCE90E177
:10558000C91A97E2D90AE108F108C818D908EA0847
:10559000FB08F7FE24CFEECF0E9430CC88E50E94B6
:1055A00068C1882319F05F9A1092020A89E50E9467
:1055B00068C1882319F08A9A1092030A8AE50E942A
:1055C00068C1882351F09FB7F894809108018160E9
:1055D000809308019FBF1092040A85E40E9468C16D
:1055E000882311F40C9491140E94BEAE0C94911473
:1055F0000E9430CC60E08F2D0E94E17C0F3FBFEF16
:105600001B0759F48F2D0E948B7C31E020E0892B01
:1056100009F030E0032F122F05C00130110571F49D
:1056200001E010E08F2D0E948B7C8017910711F410
:105630000C94911480E00E9420AFF4CF00E010E0C1
:10564000F1CFC95ADF4F0FB6F894DEBF0FBECDBF02
:10565000DF91CF911F910F91FF90EF90DF90CF904E
:10566000BF90AF909F908F907F906F905F904F9082
:105670003F902F9008952F923F924F925F926F929A
:105680007F928F929F92AF92BF92CF92DF92EF92D2
:10569000FF920F931F93CF93DF93CDB7DEB764973D
:1056A0000FB6F894DEBF0FBECDBF85E40E9468C17F
:1056B000882329F00E9435C16B017C0105C0C12CF3
:1056C000D12CE12C40ECF42E8AE50E9497C188236E
:1056D00029F00E9435C12B013C0106C0412C512C00
:1056E00030E2632E31E4732E88E50E9497C188234F
:1056F00019F00E9435C104C060E070E080E490E4DD
:1057000069877A878B879C8789E50E9497C1882360
:1057100019F00E9435C104C060E070E080E490E4BC
:105720006D877E878F87988B85E50E9468C1882367
:1057300029F00E9435C14B015C0106C0812C912CDF
:1057400028ECA22E22ECB22E8CE40E9468C18823A1
:1057500039F00E9435C1698B7A8B8B8B9C8B04C08E
:10576000198A1A8A1B8A1C8A82E40E9497C188239C
:1057700021F00E9405C1162F01C015E020900E10E7
:1057800030900F108091A00C8111A8C28091860DDD
:1057900083FD3EC020E030E0A901C501B4010E94B4
:1057A00087DC811109C020E030E0A901C701B60102
:1057B0000E9487DC882361F180915009811126C005
:1057C0002091C20B3091C30B8091490290914A0203
:1057D00028173907DCF4EAECFFE084917F019FEFA2
:1057E000E91AF90A882321F00E9408ACF701F5CFE5
:1057F000EAE5F6E084917F019FEFE91AF90A882330
:1058000009F46CC20E9408ACF701F4CF0E94C75A99
:1058100081E08093A00C90913910992321F010928F
:1058200039108093C0030E9459C781E080934409D6
:1058300040E050E0BA0183E69FE30E94B69E0E94DA
:1058400030CC80E1ECE0F9E0A1ECB3E001900D9206
:105850008A95E1F720E030E0A901C701B6010E9476
:1058600087DC8823F1F00E94865DA7019601609194
:10587000C30C7091C40C8091C50C9091C60C0E9411
:10588000E2E06093C30C7093C40C8093C50C9093BA
:10589000C60C60E070E080E792E40E949A5D0E948E
:1058A00030CC20E030E0A901C301B2010E9408E33E
:1058B000181624F580E090E0A0EAB0E48D839E8382
:1058C000AF83B887A3019201609114097091150903
:1058D00080911609909117090E94E2E069837A830A
:1058E0008B839C839E012B5F3F4FAE014F5F5F4FC9
:1058F00060E179E08CE099E00E94965C80E090E0C5
:10590000A8ECB2E489839A83AB83BC839E012F5FAA
:105910003F4F44E159E0BE01635F7F4FCE010996DE
:105920000E94965C20E030E0A901C501B4010E940C
:1059300087DC882359F181E08093440940E050E0FE
:10594000BA018CEA9BE70E94B69E80E00E9420AFDD
:105950000E94865DA50194016091C30C7091C40CF6
:105960008091C50C9091C60C0E94E2E06093C30C3C
:105970007093C40C8093C50C9093C60C60E070E0EB
:1059800080E291E40E949A5D0E9430CC01E0009395
:10599000440940E050E0BA0182E09AE70E94B69ED6
:1059A00061E0812F0E94255B80E00E9420AF0E9471
:1059B000BEAE64E670E080E090E00E94AF560E94C8
:1059C0005852DC01CB0188539045AF4FBF4F8093B5
:1059D000011390930213A0930313B0930413109236
:1059E000500C83E090E090939A0C8093990C009374
:1059F0004B0980914B09882309F44EC060E0812F48
:105A00000E94255B8091500C882309F441C00093CB
:105A1000440940E050E0BA018AE99AE70E94B69E44
:105A200080914B09811130C0109201131092021322
:105A300010920313109204131092500C0E94DCA4D5
:105A40000E94C75A0093440940E050E0BA0182E046
:105A50009AE70E94B69E0E945852DC01CB018853FF
:105A60009045AF4FBF4F8093011390930213A093C3
:105A70000313B09304131092500C00934B0961E090
:105A8000812F0E94255B04C081E00E9420AFC8CF17
:105A900081E00E9420AFADCF81E090E090939A0C1E
:105AA0008093990C8091A00C882309F417C1F09081
:105AB000500C1092011310920213109203131092C3
:105AC00004131092500C80E00E94DCA4F1100E949C
:105AD000C75A61E0812F0E94255B0E94865D20E00D
