:100000000C9434170C9465170C9465170C946517B1
:100010000C9465170C9465170C9465170C94651770
:100020000C9465170C9465170C9465170C94651760
:100030000C9465170C9465170C9465170C94651750
:100040000C9465170C9477EA0C9465170C9465175B
:100050000C9465170C9465170C94F3B00C94BBC505
:100060000C9465170C94F5D80C9465170C946517CF
:100070000C9465170C9465170C9465170C94651710
:100080000C9465170C9465170C9465170C94651700
:100090000C9465170C9465170C9465170C946517F0
:1000A0000C9465170C9465170C9465170C946517E0
:1000B0000C9465170C9465170C9465170C946517D0
:1000C0000C9465170C9465170C9465170C946517C0
:1000D0000C9465170C9465170C9465170C946517B0
:1000E0000C94651748652E65316534653765436541
:1000F0003A6554653D654065F8C3FBC3EAC3EEC38A
:10010000F4C332C4FFC303C409C40DC411C417C46B
:100110001BC41FC432C425C429C42DC4D7C4DCC425
:10012000E1C4EBC4F5C46EC5FFC407C50FC519C54E
:1001300023C52DC53CC546C56EC550C55AC564C549
:10014000084AD73B3BCE016E84BCBFFDC12F3D6C3E
:1001500074319ABD56833DDA3D00C77F11BED9E4A4
:10016000BB4C3E916BAAAABE000000803F05A84C84
:10017000CDB2D44EB93836A9020C50B99186880850
:100180003CA6AAAA2ABE000000803F004E414E496C
:100190004E495459494E46CDCCCC3D0AD7233C1745
:1001A000B7D13877CC2B329595E6241FB14F0A0092
:1001B0000020410000C84200401C4620BCBE4CCA82
:1001C0001B0E5AAEC59D74434F4D4D554E4943418C
:1001D00054494F4E0044525952554E004552524FC9
:1001E000525300494E464F004543484F0047322F77
:1001F00047332062616420706172616D657465725D
:10020000730A00536C6565702E2E2E00436C696373
:100210006B20746F20726573756D652E2E2E004EE7
:100220006F206D6F76652E00456E642066696C6583
:10023000206C6973740A00426567696E2066696C98
:1002400065206C6973740A00286E6F2066696C659E
:1002500029005344207072696E74696E6720627958
:10026000746520004E6F74205344207072696E7460
:10027000696E670A0043757272656E742066696CF8
:10028000653A200046696C652064656C6574656438
:100290003A0044656C6574696F6E206661696C65CF
:1002A000642C2046696C653A200025697300256935
:1002B0006D20256973002569682025696D202569F1
:1002C0007300256964202569682025696D202569EA
:1002D00073002569792025696420256968202569CE
:1002E0006D20256973005072696E742074696D65A4
:1002F0003A2000E801E301DC01D501C7016F666621
:100300000044454255473A004B494C4C45442E2049
:10031000004D3131332053006F6B00524631303085
:10032000204F66662E002C20002C20005448455299
:100330004D414C5F50524F54454354494F4E00413C
:1003400055544F5245504F52545F53445F5354419C
:1003500054555300454D455247454E43595F504112
:100360005253455200434153455F4C494748545FFF
:100370004252494748544E45535300544F47474C07
:10038000455F4C494748545300534F4654574152D8
:10039000455F504F574552004255494C445F5045C8
:1003A0005243454E54004C4556454C494E475F44D8
:1003B000415441005A5F50524F4245004155544FFD
:1003C0004C4556454C005052494E545F4A4F4200EE
:1003D00050524F4752455353004155544F52455088
:1003E0004F52545F54454D5000564F4C554D455457
:1003F00052494300454550524F4D005345524941E3
:100400004C5F584F4E5F584F4646004649524D5735
:100410004152455F4E414D453A4D61726C696E20C7
:10042000312E312E3920284769746875622920538E
:100430004F555243455F434F44455F55524C3A68D0
:10044000747470733A2F2F6769746875622E636FC6
:100450006D2F4D61726C696E4669726D7761726560
:100460002F4D61726C696E2050524F544F434F4C68
:100470005F56455253494F4E3A312E30204D41433D
:1004800048494E455F545950453A52463130302024
:1004900045585452554445525F434F554E543A3196
:1004A00020555549443A63656465326132662D349E
:1004B0003161322D343734382D396231322D633584
:1004C000356336326633363766660A002F2F2000D2
:1004D0004D31343520533C696E6465783E206F752C
:1004E00074206F662072616E67652028302D312977
:1004F0000A00205400205200416363656C657261FC
:1005000074696F6E3A2050004F666673657473208D
:100510006170706C696564004572723A20546F6F47
:10052000206661722100546F6F20666172206672CE
:100530006F6D207265666572656E636520706F69A8
:100540006E740A0020466C6F773A2000000136373F
:100550002603FFFFFF353C3D38FF0FFFFF312E30F4
:100560003E12FFFFFFFF28FF0C08FFFFFFFF1A1CD2
:1005700018FFFF2A08440A094320643A0020693A18
:100580000020703A00496E76616C69642065787469
:1005900072756465720A0043290A0061626C6564C1
:1005A00020286D696E2074656D702000436F6C6447
:1005B0002065787472756465732061726520004EE1
:1005C0006F2063617365206C696768740A00426517
:1005D00064204C6576656C696E6720004661696CC5
:1005E000656420746F20656E61626C65204265648D
:1005F000204C6576656C696E670A00426564204C24
:100600006576656C20436F7272656374696F6E20E6
:100610004D61747269783A00454550524F4D204FF4
:100620004B0A003F4B2076616C7565206F75742016
:100630006F662072616E67652028302D3130292E5B
:100640000A00416476616E6365204B3D004163742E
:100650006976652045787472756465723A20004940
:100660006E76616C69642065787472756465720A6F
:100670000024F4D43050C38E20C2A24017828B7065
:1006800011127A910D816CD90AA861E108C75866E8
:1006900007615143061E4B5D05C145A7041A411170
:1006A00004093D9803713931034036DB026533910B
:1006B00002D4305402802E1D02632CEE01752AC52F
:1006C00001B028A001102781018F2564012B244B44
:1006D00001E0223401AC211F018D200D01801FFC9F
:1006E00000841EED00971DDF00B81CD200E61BC67B
:1006F00000201BBC00641AB200B219A8000A19A09D
:10070000006A189900D117910040178B00B5168424
:100710000031167E00B31579003A157300C7146FC7
:100720000058146A00EE1366008813630025135EF8
:1007300000C7125B006C12570015125400C1115112
:100740000070114F0021114B00D61049008D104749
:10075000004610440002104200C00F4000800F3ECF
:1007600000420F3C00060F3B00CB0E3800930E37C3
:10077000005C0E3500270E3400F30D3200C10D3140
:1007800000900D3000600D2E00320D2D00050D2C57
:1007900000D90C2B00AE0C2900850C29005C0C271D
:1007A00000350C27000E0C2600E80B2400C40B2497
:1007B00000A00B23007D0B23005A0B2100390B21D5
:1007C00000180B2000F80A1F00D90A1E00BB0A1EE1
:1007D000009D0A1D00800A1D00630A1C00470A1BB9
:1007E000002C0A1B00110A1A00F7091A00DD09196A
:1007F00000C4091900AB091900920917007B0918F8
:1008000000630917004C0916003609160020091666
:10081000000A091500F5081500E0081400CC0814BA
:1008200000B8081400A4081400900813007D0812F2
:10083000006B081300580812004608120034081113
:1008400000230811001208110001081100F0071020
:1008500000E0071000D0071000C0071000B0070F1D
:1008600000A107100091070E0083070F0074070F07
:100870000065070E0057070E0049070E003B070DE5
:10088000002E070E0020070D0013070D0006070DB0
:1008900000F9060C00ED060D00E0060C00D4060C75
:1008A00000C8060C00BC060C00B0060C00A4060B29
:1008B0000099060C008D060B0082060B0077060BD4
:1008C000006C060B0061060A0057060B004C060A76
:1008D0000042060A0038060A002E060A0024060A0C
:1008E000001A060A001006090007060A00FD05099D
:1008F00000F4050900EB050900E2050900D9050926
:1009000000D0050900C7050900BE050900B50508A6
:1009100000AD050800A50509009C05080094050820
:10092000008C050800840508007C05080074050893
:10093000006C050700650508005D05070056050801
:10094000004E050700470507004005080038050769
:1009500000310507002A050700230507001C0506CE
:1009600000160507000F0507000805060002050729
:1009700000FB040600F5040700EE040600E8040688
:1009800000E2040700DB040600D5040600CF0406DD
:1009900000C9040600C3040600BD040600B704062F
:1009A00000B1040500AC040600A6040600A004057E
:1009B000009B04060095040500900406008A0405C7
:1009C0000085040500800406007A0405007504050E
:1009D00000700405006B0405006604050061040551
:1009E000005C04050057040500520405004D040591
:1009F0000048040500430405003E0404003A0405D1
:100A00000035040500300404002C0405002704040C
:100A100000230405001E0404001A04040016040543
:100A200000110404000D040400090405000404047A
:100A30000000040400FC030400F8030400F40304B1
:100A400000F0030400EC030400E8030400E40304E2
:100A500000E0030400DC030400D8030400D4030412
:100A600000D0030400CC030400C8030300C5030343
:100A70000024F404D9201BC40C5C0E9804C4095F44
:100A80000265077101F405F900FB04B3004804870F
:100A900000C10369005803550003034500BE023A34
:100AA000008402310053022A00290225000402209A
:100AB00000E4011C00C8011900AF011700980114DF
:100AC0000084011300710110006101100051010E3A
:100AD0000043010D0036010B002B010B0020010B20
:100AE00000150109000C01090003010800FB0008C2
:100AF00000F3000800EB000700E4000600DE00063B
:100B000000D8000600D2000600CC000500C7000592
:100B100000C2000500BD000400B9000400B50004D7
:100B200000B1000400AD000400A9000400A500030A
:100B300000A20003009F0004009B00030098000334
:100B4000009500020093000300900003008D000256
:100B5000008B00030088000200860002008400036E
:100B600000810002007F0002007D0002007B000285
:100B70000079000200770001007600020074000294
:100B80000072000100710002006F0002006D0001A0
:100B9000006C0002006A00010069000200670001A9
:100BA00000660001006500010064000200620001AF
:100BB0000061000100600001005F0002005D0001B3
:100BC000005C0001005B0001005A000100590001B7
:100BD00000580001005700010056000100550001B7
:100BE00000540001005300000053000100520001B6
:100BF0000051000100500001004F0001004E0000B4
:100C0000004E0001004D0001004C0001004B0000AF
:100C1000004B0001004A00010049000100480000AB
:100C200000480001004700010046000000460001A6
:100C300000450000004500010044000100430000A1
:100C4000004300010042000000420001004100009A
:100C50000041000100400001003F0000003F000192
:100C6000003E0000003E0001003D0000003D00018C
:100C7000003C0000003C0000003C0001003B000084
:100C8000003B0001003A0000003A0001003900007A
:100C90000039000100380000003800000038000171
:100CA0000037000000370001003600000036000069
:100CB000003600010035000000350000003500015D
:100CC0000034000000340000003400010033000054
:100CD0000033000000330001003200000032000049
:100CE000003200010031000000310000003100013D
:100CF000003000000030000000300001002F000034
:100D0000002F0000002F0000002F0001002E000027
:100D1000002E0000002E0001002D0000002D00001C
:100D2000002D0000002D0001002C0000002C000010
:100D3000002C0000002C0001002B0000002B000004
:100D4000002B0000002B0001002A0000002A0000F8
:100D5000002A0000002A00010029000000290000EC
:100D600000290000002900000029000100280000DF
:100D700000280000002800000028000000280001D2
:100D800000270000002700000027000000270000C7
:100D900000270001002600000026000000260000B9
:100DA00000260000002600010025000000250000AC
:100DB000002500000025000000250000002500019E
:100DC0000024000000240000002400000024000093
:100DD0000024000100230000002300000023000085
:100DE0000023000000230000002300000023000176
:100DF000002200000022000000220000002200006B
:100E0000002200000022000100210000002100005B
:100E1000002100000021000000210000002100004E
:100E20000021000100200000002000000020000040
:100E30000020000000200000002000000020000032
:100E400000200001001F0000001F0000001F000024
:100E5000001F0000001F0000001F0000001F000115
:100E6000001E0000001E0000001E0000001E00000A
:100E700000232C0000B8220000561800003A0F0092
:100E800000B8080000B1040000710200003E01003B
:100E9000004572726F722077726974696E67207490
:100EA0006F20454550524F4D210A00454550524F45
:100EB0004D206461746173697A65206572726F7226
:100EC0002E0A00290A002062797465733B20637240
:100ED00063200053657474696E67732053746F7276
:100EE0006564202800290A002062797465733B201C
:100EF00063726320002073746F726564207365747D
:100F000074696E67732072657472696576656420B2
:100F10002800202863616C63756C61746564292105
:100F20000A0020213D2000454550524F4D2043529C
:100F300043206D69736D61746368202D202873747C
:100F40006F7265642920002053697A653A20004950
:100F50006E6465783A2000204D61726C696E3D5672
:100F60003535290A0028454550524F4D3D0045452D
:100F700050524F4D2076657273696F6E206D6973A4
:100F80006D6174636820007C3C3E5E2B3D3F2F5BAF
:100F90005D3B2C2A225C0020746F6F206C6F6E67A3
:100FA00020657874727573696F6E207072657665EE
:100FB0006E7465640A0020636F6C642065787472D7
:100FC0007573696F6E2070726576656E7465640AFC
:100FD00000556E6B6E6F776E20636F6D6D616E6422
:100FE0003A202200486F74656E6420746F6F20632E
:100FF0006F6C640A00486F6D652025732573257337
:10100000206669727374002066697273740A005AEC
:101010000059005800486F6D6520004D3234004D76
:1010200032332025730053442063617264206F6B58
:101030000A006F70656E526F6F74206661696C652F
:10104000640A00766F6C756D652E696E6974206632
:1010500061696C65640A00534420696E6974206696
:1010600061696C0A0057726974696E6720746F2039
:1010700066696C653A20006F70656E206661696C08
:1010800065642C2046696C653A20006F70656E209F
:101090006661696C65642C2046696C653A2000467F
:1010A000696C652073656C65637465640A00205320
:1010B000697A653A200046696C65206F70656E65D7
:1010C000643A20002066696C653A2000646F696E9E
:1010D00067006672657368004E6F772000454E4466
:1010E00020535542524F5554494E450A0022207014
:1010F0006F73002220706172656E743A220053553E
:1011000042524F5554494E452043414C4C20746146
:10111000726765743A22004B494C4C45442E2000BE
:10112000747279696E6720746F2063616C6C2073D0
:1011300075622D67636F64652066696C65732077DF
:1011400069746820746F6F206D616E79206C6576AC
:10115000656C732E204D4158206C6576656C206956
:10116000733A004572726F723A0043617264207282
:10117000656D6F766564004361726420696E7365A6
:101180007274656400000020002300260029002CF2
:10119000002F0032000001000003010601090105D3
:1011A000050505070508080808020202020A0A08E0
:1011B0000804040404010101010101010103030306
:1011C0000303030303040707070C0C0C0C0C0C0CA3
:1011D0000C0202020206060606060606060B0B0BAA
:1011E0000B0B0B0B0B0102102020080810204010E5
:1011F00020408002010201080402010102040810DB
:1012000020408080402010080402018004020180F8
:101210004020100804020108040201010204081021
:10122000204080010204081020408000000A0B02C8
:10123000090C0D0E08070304010000000000000067
:10124000000000000000000000000000000000009E
:10125000000000000000001211100000000000005B
:10126000000000000000000000000000000000007E
:101270000000000000010204040000001C1C0C041B
:101280000404020100000000000408100000000037
:10129000002D2D2D2D2D2D007C4D61726C696E7CE5
:1012A000002D2D2D2D2D2D00687474703A2F2F6D6B
:1012B00061726C696E66772E6F7267006874747005
:1012C0003A2F2F6D61726C696E66772E6F726700B0
:1012D00020312E312E39002020506C616E6E6572E7
:1012E00042756666657242797465733A20002046DD
:1012F000726565204D656D6F72793A2000436F6DA0
:1013000070696C65643A204F63742033302032304A
:1013100031390A00207C20417574686F723A2028A8
:101320006E6F6E652C2064656661756C7420636FEA
:101330006E666967290A00323031382D30382D3019
:101340003100204C61737420557064617465643A97
:101350002000312E312E390A004D61726C696E0009
:1013600020536F6674776172652052657365740AE5
:1013700000205761746368646F67205265736574F9
:101380000A002042726F776E206F75742052657369
:1013900065740A002045787465726E616C20526530
:1013A0007365740A00506F77657255700A00737424
:1013B0006172740A006175746F25692E6700657229
:1013C000726F722077726974696E6720746F20661D
:1013D000696C650A00456E6473746F7073202563D1
:1013E00020256320256320256300205A3A002059D8
:1013F0003A0020583A00656E6473746F7073206809
:1014000069743A2000446F6E6520736176696E6777
:101410002066696C652E0A004D3239004578747279
:1014200075646572004D6F7665205A004D6F766564
:101430002059004D6F7665205800507265706172BA
:101440006500496E697469616C697A65204545502B
:10145000524F4D00436F6E74726F6C00526573741F
:101460006F7265206661696C73616665004C6F61BF
:10147000642073657474696E677300496E6974697A
:10148000616C697A6520454550524F4D0053746F29
:1014900072652073657474696E67730046696C6168
:1014A0006D656E74004D6F74696F6E0054656D707C
:1014B00065726174757265004D61696E004D3330FF
:1014C0003320553120452569205325690050726528
:1014D000686561742041425320636F6E66005072EC
:1014E000656865617420504C4120636F6E660050E2
:1014F0004944204175746F74756E650050494420ED
:101500004175746F74756E6500504944204175745F
:101510006F74756E65005049442D44005049442D48
:1015200044005049442D49005049442D4900504938
:10153000442D50005049442D500020022046616344
:10154000740020022046616374002002204D6178FF
:10155000002002204D6178002002204D617800209B
:1015600002204D696E002002204D696E002002208D
:101570004D696E004F6666004F6E20004175746FB6
:1015800074656D7000426564004265640042656484
:10159000004E6F7A7A6C65004E6F7A7A6C65004EF9
:1015A0006F7A7A6C6500436F6E74726F6C0053745F
:1015B0006F72652073657474696E67730042656449
:1015C0000042656400426564004E6F7A7A6C650083
:1015D0004E6F7A7A6C65004E6F7A7A6C6500466160
:1015E0006E2073706565640046616E20737065657A
:1015F000640046616E2073706565640054656D70AB
:101600006572617475726500205A00205900580097
:1016100020204D61783A2000205A002059005800BF
:1016200020204D696E3A20004F6E20004F66660004
:10163000536F667420656E6473746F70733A200024
:1016400023646566696E652044454641554C545F88
:101650004B64200023646566696E652044454641FD
:10166000554C545F4B69200023646566696E6520A4
:1016700044454641554C545F4B702000504944202E
:101680004175746F74756E652066696E69736865FF
:1016900064212050757420746865206C6173742017
:1016A0004B702C204B6920616E64204B6420636F6B
:1016B0006E7374616E74732066726F6D2062656CF8
:1016C0006F7720696E746F20436F6E6669677572FD
:1016D0006174696F6E2E680A005049442041757428
:1016E0006F74756E65206661696C6564212074692C
:1016F0006D656F75740A00453120544845524D415F
:101700004C2052554E4157415900546865726D61E5
:101710006C2052756E6177617900453120486561B2
:1017200074696E67206661696C6564004865617400
:10173000696E67206661696C6564005049442041A8
:1017400075746F74756E65206661696C65642120BF
:1017500054656D706572617475726520746F6F2069
:10176000686967680A00204B643A2000204B693A98
:101770002000204B703A20000A20436C617373698B
:101780006320504944200A002054753A2000204B21
:10179000753A2000206D61783A2000206D696E3A1C
:1017A000200020643A200020626961733A200050D2
:1017B0004944204175746F74756E65206661696C6B
:1017C0006564212042616420657874727564657275
:1017D000206E756D6265720A00504944204175742F
:1017E0006F74756E652073746172740A004D3630C3
:1017F000303A20546F6F20636F6C6400486F7465DB
:101800006E6420746F6F20636F6C640A00496E739E
:101810006572742066696C616D656E7420616E64BA
:1018200020707265737320627574746F6E0A005055
:101830007265737320627574746F6E20746F2068A4
:10184000656174206E6F7A7A6C650A00496E736503
:1018500072742066696C616D656E7420616E6420BF
:10186000707265737320627574746F6E20286F7266
:10187000204D313038290A00496E73657274206634
:10188000696C616D656E7420616E64207072657341
:101890007320627574746F6E20286F72204D313022
:1018A00038290A0056652D6A65726B0056652D6AE7
:1018B00065726B0056652D6A65726B00567A2D6AEB
:1018C00065726B00567A2D6A65726B0056792D6AC7
:1018D00065726B0056792D6A65726B0056792D6AB8
:1018E00065726B0056782D6A65726B0056782D6AAA
:1018F00065726B0056782D6A65726B004D6F746966
:101900006F6E004573746570732F6D6D0045737451
:101910006570732F6D6D005A73746570732F6D6DE4
:10192000005A73746570732F6D6D00597374657010
:10193000732F6D6D005973746570732F6D6D005842
:1019400073746570732F6D6D005873746570732FA9
:101950006D6D004D6F74696F6E0053746570732FF9
:101960006D6D004A65726B00416363656C65726101
:1019700074696F6E0056656C6F6369747900436FAC
:101980006E74726F6C004C6F6164206D6D004C6FF3
:101990006164206D6D004C6F6164206D6D00556E4B
:1019A0006C6F6164206D6D00556E6C6F6164206DAD
:1019B0006D00556E6C6F6164206D6D0046696C2E14
:1019C000204469612E0046696C2E204469612E0016
:1019D0004F6666004F6E20004520696E206D6D33A6
:1019E00000416476616E6365204B00416476616EF0
:1019F0006365204B00436F6E74726F6C0043616EC1
:101A00006E6F7420656E746572207375626469729E
:101A10003A2000052E2E004D61696E004D61782040
:101A200054656D703A20313530004D696E20546533
:101A30006D703A203500544265643A4550434F5327
:101A4000203130304B004D61782054656D703A2064
:101A5000323735004D696E2054656D703A2035007F
:101A600054303A204550434F53203130304B0050D2
:101A700053553A2047656E657269630050726F7402
:101A80006F636F6C3A20312E3000426175643A20EA
:101A90003131353230300052414D505320312E34E7
:101AA00000332D506F696E74204C6576656C696EDD
:101AB00067004578747275646572733A2031006806
:101AC0007474703A2F2F6D61726C696E66772E6F29
:101AD000726700524631303000323031382D3038A4
:101AE0002D303100312E312E39004D61726C696E0E
:101AF00000546865726D6973746F727300426F6130
:101B0000726420496E666F005072696E746572204F
:101B1000496E666F004D61696E004D37303220545A
:101B20002564004D36303020423020542564004D6D
:101B3000373032203B2564004D3730312054256446
:101B4000004368616E67652066696C616D656E74DF
:101B5000005072656865617420414253005072659F
:101B60006865617420504C41004368616E67652070
:101B700066696C616D656E74005052494E54205018
:101B8000415553454400554E4C4F41442046494C25
:101B9000414D454E54004C4F41442046494C414D27
:101BA000454E54005075726765206D6F7265004335
:101BB0006F6E74696E756500524553554D45204FE3
:101BC0005054494F4E533A0020204E6F7A7A6C653C
:101BD0003A20006368616E6765006F66207468650F
:101BE0002066696C616D656E74005761697420666A
:101BF0006F722073746172740020204E6F7A7A6C59
:101C0000653A200066696C616D656E7420756E6C56
:101C10006F6164005761697420666F720020204E06
:101C20006F7A7A6C653A2000506C65617365207735
:101C30006169742E2E2E0048656174696E67206E8E
:101C40006F7A7A6C650020204E6F7A7A6C653A2044
:101C50000068656174206E6F7A7A6C652E00507230
:101C600065737320627574746F6E20746F0020202A
:101C70004E6F7A7A6C653A2000746F20636F6E74D1
:101C8000696E75652E2E2E00616E6420707265730C
:101C90007320627574746F6E00496E736572742080
:101CA00066696C616D656E740020204E6F7A7A6C87
:101CB000653A200066696C616D656E74206C6F61B9
:101CC00064005761697420666F720020204E6F7A3D
:101CD0007A6C653A200066696C616D656E7420707F
:101CE00075726765005761697420666F7200746F62
:101CF00020726573756D65005761697420666F7237
:101D0000207072696E74004D6F76696E672E2E2E8C
:101D1000004C6576656C696E6720446F6E652100C6
:101D20004C6576656C696E6720446F6E6521004D69
:101D30006F7665205A00473239205631004E65785B
:101D40007420506F696E74002569202F202575005E
:101D500047323920563100436C69636B20746F2021
:101D6000426567696E00486F6D696E672058595A01
:101D7000004732380053746F72652073657474695C
:101D80006E6773004C6F61642073657474696E676D
:101D900073004F6666004F6E2000426564204C65FC
:101DA00076656C696E67004C6576656C206265646B
:101DB0000050726570617265004D343238005072A7
:101DC000656865617420504C4100436F6F6C646FAF
:101DD000776E00507265686561742041425300431C
:101DE00068616E67652066696C616D656E7400433D
:101DF00068616E67652066696C616D656E74004D23
:101E00003630302042300044697361626C65207363
:101E100074657070657273004D38340053657420BA
:101E2000686F6D65206F66667365747300426564E4
:101E3000204C6576656C696E67004175746F20682B
:101E40006F6D6500473238004D6F766520617869A7
:101E500073004D61696E004D6F76652058004D6FBF
:101E600076652059004D6F7665205A00457874726A
:101E700075646572004D6F766520302E316D6D0092
:101E80004D6F766520316D6D004D6F766520313078
:101E90006D6D004D6F7665206178697300457874CB
:101EA0007275646572004D6F7665205A004D6F76CD
:101EB000652059004D6F766520580070012C019007
:101EC000012701B0012201C0011D01F0011801101C
:101ED00002130130020E016002090190020401C0E8
:101EE00002FF000003FA004003F5008003F000D079
:101EF00003EB002004E6007004E100E004DC004095
:101F000005D700C005D2004006CD00D006C800802D
:101F100007C3003008BE00F008B900C009B400B023
:101F20000AAF00B00BAA00D00CA500000EA0005014
:101F30000F9B00C01096005012910000148C00C03E
:101F4000158700B0178200B0197D00D01B78000003
:101F50001E730040206E0090226900F0246400404F
:101F6000275F0090295A00E02B5500102E500020CA
:101F7000304B0010324600E033410090353C0010F9
:101F800037370070383200A0392D00B03A2800A051
:101F90003B2300603C1E00103D1900903D140010D2
:101FA0003E0F00703E0A00C03E0500003F000040AA
:101FB0003FFBFF803FF6FFC03FF1FF202F00204294
:101FC000403A0020403A0025753A25303275002508
:101FD0003032753A25303275002D2D2D00534400D6
:101FE00020202020202000202020200020496E7664
:101FF000616C696420657874727564657220000094
:102000000000000000000000000000000048430045
:1020100000484300004843486F6D696E6720666161
:10202000696C6564000A0A426564204C6576656CDB
:1020300020436F7272656374696F6E204D617472B4
:1020400069783A00332D706F696E742070726F6218
:10205000696E6720646F6E652E0A00206F6620002F
:10206000706F696E74200069646C650A004D616E62
:1020700075616C2047323920004D616E75616C20AE
:102080004732392061626F727465640A0020284407
:10209000525952554E2900473239204175746F20EC
:1020A000426564204C6576656C696E67003F285612
:1020B000296572626F7365206C6576656C20697343
:1020C00020696D706C61757369626C652028302DB4
:1020D00034292E0A00526573656E643A20006F6BD6
:1020E0000020746F6F206C6F6E6720657874727556
:1020F00073696F6E2070726576656E7465640A0030
:1021000020636F6C6420657874727573696F6E20DC
:1021100070726576656E7465640A00627573793AEB
:102120002070617573656420666F7220696E7075CA
:10213000740A00627573793A207061757365642062
:10214000666F7220757365720A00627573793A2042
:1021500070726F63657373696E670A004B494C4C0C
:1021600045442E20004B494C4C20636175736564D7
:10217000206279204B494C4C20627574746F6E2F2D
:1021800070696E0A004B494C4C45442E20004B4967
:102190004C4C2063617573656420627920746F6FA5
:1021A000206D75636820696E61637469766520745B
:1021B000696D65202D2063757272656E7420636F82
:1021C0006D6D616E643A2000506C656173652072BC
:1021D00065736574005052494E5445522048414C35
:1021E000544544005072696E7465722068616C7465
:1021F00065642E206B696C6C28292063616C6C65AA
:1022000064210A00656E7175657565696E672022C7
:1022100000000000000000484300000000000048EB
:1022200042000048420000804000000000576172F8
:102230006E696E673A20486F6D696E672042756DF2
:10224000702044697669736F72203C20310A000265
:1022500002040000A0400000A04000000040000078
:1022600048430000484300004843FF01FF09FFFFC7
:10227000FFFFFF0001010101016265640A002C20DB
:1022800073797374656D2073746F70706564212049
:102290004865617465725F49443A20004265642074
:1022A00068656174696E67206661696C6564004881
:1022B000656174696E67206661696C6564004531AB
:1022C0002048656174696E67206661696C656400A9
:1022D00048656174696E67206661696C6564004574
:1022E0003120544845524D414C2052554E415741A2
:1022F000590042454420544845524D414C205255C6
:102300004E4157415900546865726D616C20527599
:102310006E61776179004531204572723A204D41F6
:102320005854454D50004572723A204D415854451D
:102330004D5020424544004D415854454D50207465
:102340007269676765726564004531204572723A4B
:10235000204D494E54454D50004572723A204D492A
:102360004E54454D5020424544004D494E54454D34
:102370005020747269676765726564004D38342057
:10238000582059205A20450052463130302052659D
:102390006164792E005072696E74696E672E2E2EFC
:1023A000005072696E7420706175736564005072BC
:1023B000696E742061626F72746564004E6F2053A1
:1023C000442063617264005072696E742066726F9B
:1023D0006D2053440053746F70207072696E7400E6
:1023E000526573756D65207072696E740041626F1D
:1023F0007574205072696E746572005061757365F2
:10240000207072696E7400436F6E74726F6C00504E
:102410007265706172650054756E6500496E666F15
:102420002073637265656E004368616E6765206640
:10243000696C616D656E74004368616E67652066E6
:10244000696C616D656E74004D363030204230002D
:10245000466C6F7700466C6F7700466C6F77004272
:1024600065640042656400426564004E6F7A7A6C70
:1024700065004E6F7A7A6C65004E6F7A7A6C6500F3
:1024800053706565640053706565640053706565DD
:1024900064004D61696E005072656865617420501A
:1024A0004C4120456E64005072656865617420502F
:1024B0004C4120426564005072656865617420502B
:1024C0004C410050726570617265005072656865BC
:1024D00061742041425320456E6400507265686506
:1024E0006174204142532042656400507265686502
:1024F0006174204142530050726570617265006FD3
:1025000070656E206661696C65642C2046696C6537
:102510003A200043616E6E6F74206F70656E207399
:10252000756264697220006563686F3A00001C1F61
:1025300011111F00000006191803130C00040E1FD0
:10254000041C000000000E1315110E00001C1018D2
:102550001705060500040A0A0A0A11110E0C1212C8
:102560000C00000000001F1511151F0000000021C5
:1025700000240027002A002D003000330001010054
:1025800000040107010A0100002200250028002B99
:10259000002E003100340002010000050108010B8B
:1025A00001545249474745524544006F70656E00DB
:1025B0003A20007A5F6D696E00795F6D617800780E
:1025C0005F6D696E005265706F7274696E67206529
:1025D0006E6473746F70207374617475730A004B4A
:1025E000494C4C45442E200053544F505045442EE6
:1025F00020005072696E7465722073746F7070651C
:10260000642064756520746F206572726F72732E1A
:102610002046697820746865206572726F72206147
:102620006E6420757365204D39393920746F2072BE
:102630006573746172742E202854656D70657261C3
:10264000747572652069732072657365742E2053EA
:102650006574206974206166746572207265737494
:10266000617274696E67290A004E6F204368656362
:102670006B73756D2077697468206C696E65206E68
:10268000756D6265722C204C617374204C696E65A7
:102690003A20004E6F20436865636B73756D207739
:1026A000697468206C696E65206E756D6265722C48
:1026B000204C617374204C696E653A200063686534
:1026C000636B73756D206D69736D617463682C2025
:1026D0004C617374204C696E653A20004C696E65DC
:1026E000204E756D626572206973206E6F74204C88
:1026F000617374204C696E65204E756D6265722B36
:10270000312C204C617374204C696E653A20004D69
:10271000313130004D333100534420726561642003
:102720006572726F720A00446F6E65207072696E16
:1027300074696E672066696C650A0000000001001C
:102740000000010000800055555500000040003396
:10275000333300AAAA2A004992240000002000C7AF
:10276000711C0099991900D1451700555515003B6A
:10277000B113002449120011111100000010000FC4
:102780000F0F00E3380E0043790D00CCCC0C00C3D2
:10279000300C00E8A20B0064210B00AAAA0A00700A
:1027A0003D0A009DD80900427B090092240900DC03
:1027B000D30800888808001042080000000800F0D4
:1027C000C107008787070075500700711C07003E8E
:1027D000EB0600A1BC060069900600666606007064
:1027E0003E06006118060017F4050074D105005B71
:1027F000B00500B2900500627205005555050078DD
:10280000390500B81E0500050505004EEC040087DB
:10281000D40400A1BD040090A7040049920400C1A3
:102820007D0400EE690400C7560400444404005CC3
:102830003204000821040041100400000004003F9D
:10284000F00300F8E0030026D20300C3C30300CC6A
:10285000B503003AA803000A9B0300388E0300C0AA
:102860008103009F750300D0690300505E03001DC3
:1028700053030034480300913D0300333303001633
:10288000290300381F030097150300300C030003D1
:102890000303000BFA020049F10200BAE802005CEF
:1028A000E002002DD802002DD0020059C80200B06D
:1028B000C0020031B90200DAB10200AAAA0200A0E7
:1028C000A30200BC9C0200FA9502005C8F0200DFAC
:1028D00088020082820200457C02002776020027DF
:1028E000700200436A02007C640200D05E02003F76
:1028F000590200C853020048617264636F646564E2
:102900002044656661756C742053657474696E67E4
:1029100073204C6F616465640A00F4010000F401E7
:102920000000640000001027000000009643000033
:1029300096430000A0410000C841D7A39D42D7A301
:102940009D42000048440000E64220286D6D2900A9
:1029500020204D36303320002055004C0046696C55
:10296000616D656E74206C6F61642F756E6C6F6144
:1029700064206C656E677468733A0A0020204D39D4
:102980003030204B004C696E656172204164766185
:102990006E63653A0A0020440020490020204D3330
:1029A00030312050005049442073657474696E675B
:1029B000733A0A0020460020420020480020204DA3
:1029C0003134352053004D6174657269616C206843
:1029D000656174757020706172616D657465727384
:1029E0003A0A0020204D3432302053004175746F74
:1029F00020426564204C6576656C696E673A0A0012
:102A0000205A0020590020204D32303620580048EE
:102A10006F6D65206F66667365743A0A0020450025
:102A2000205A002059002058002054002053002034
:102A3000204D32303520510020453C6D61785F6576
:102A40005F6A65726B3E0020583C6D61785F785F0D
:102A50006A65726B3E20593C6D61785F795F6A658B
:102A6000726B3E205A3C6D61785F7A5F6A65726B6B
:102A70003E00416476616E6365643A20513C6D6945
:102A80006E5F7365676D656E745F74696D655F75A4
:102A9000733E20533C6D696E5F6665656472617458
:102AA000653E20543C6D696E5F74726176656C5F43
:102AB00066656564726174653E00205400205200B2
:102AC00020204D323034205000416363656C6572C4
:102AD0006174696F6E2028756E6974732F73322963
:102AE0003A20503C7072696E745F616363656C3E3E
:102AF00020523C726574726163745F616363656CDC
:102B00003E20543C74726176656C5F616363656CF2
:102B10003E0A00204500205A0020590020204D3256
:102B200030312058004D6178696D756D20416363C7
:102B3000656C65726174696F6E2028756E69747357
:102B40002F7332293A0A00204500205A00205900EC
:102B500020204D3230332058004D6178696D756DFD
:102B6000206665656472617465732028756E69748A
:102B7000732F73293A0A00204500205A002059007B
:102B800020204D39322058005374657073207065D1
:102B90007220756E69743A0A0020204D3230302060
:102BA00044300A0020204D32303020440020446957
:102BB0007361626C65640A0046696C616D656E7470
:102BC0002073657474696E67733A0020204D313448
:102BD000392043203B20556E69747320696E204371
:102BE000656C736975730A002020473231202020FC
:102BF000203B005654726176206D696E0056547207
:102C00006176206D696E005654726176206D696E32
:102C100000566D696E00566D696E00566D696E00E6
:102C2000566D6178204500566D6178204500566DDF
:102C30006178204500566D6178205A00566D6178A4
:102C4000205A00566D6178205A00566D61782059DF
:102C500000566D6178205900566D617820590056F4
:102C60006D6178205800566D6178205800566D616E
:102C7000782058004D6F74696F6E00416D61782047
:102C80004500416D6178204500416D6178205A0012
:102C9000416D6178205A00416D6178205900416D85
:102CA0006178205900416D6178205800416D61784C
:102CB000205800412D74726176656C00412D74724C
:102CC0006176656C00412D726574726163740041B8
:102CD0002D7265747261637400416363656C0041B9
:102CE0006363656C004D6F74696F6E0050726F7432
:102CF00065637465642050696E0A0020573A004588
:102D000020436F6F6C696E672E2E2E00452048653C
:102D10006174696E672E2E2E0020573A004265645A
:102D200020636F6F6C696E672E2E2E0042656420E3
:102D300068656174696E672E2E2E00205A3A002055
:102D4000593A0020436F756E7420583A0020453A76
:102D500000205A3A0020593A00583A003A0043619C
:102D6000703A00FFFDFCFAF8F6F4F2F0EEECEAE956
:102D7000E7E5E3E1E0DEDCDAD9D7D5D4D2D0CFCDB8
:102D8000CBCAC8C7C5C3C2C0BFBDBCBAB9B7B6B449
:102D9000B3B2B0AFADACAAA9A8A6A5A4A2A1A09EAB
:102DA0009D9C9A99989795949392908F8E8D8B8AEB
:102DB0008988878684838281807F7E7D7B7A79780B
:102DC00077767574737271706F6E6D6C6B6A69680B
:102DD00067666564636261605F5E5D5C5B5A5958FB
:102DE000585756555453525150504F4E4D4C4B4AD4
:102DF0004A4948474646454443424241403F3E3E99
:102E00003D3C3B3B3A39383837363535343332324E
:102E10003130302F2E2E2D2C2B2B2A2929282727F5
:102E200026252524232322212120201F1E1E1D1C90
:102E30001C1B1B1A1919181817161615151413131D
:102E400012121111100F0F0E0E0D0D0C0C0B0A0AA1
:102E5000090908080707060605050404030302021A
:102E600001000000C7F9A6F911241FBECFEFD1E27F
:102E7000DEBFCDBF00E00CBF13E0A0E0B2E0E2E3B4
:102E8000FEE002E00BBF02C007900D92AE33B10727
:102E9000D9F724E1AEE3B3E001C01D92AA3EB20728
:102EA000E1F717E1C3E3D7E100E006C0219701098C
:102EB000802FFE010F947706C233D10780E0080708
:102EC000A9F70E94C4F30D9408070C9400002F92F8
:102ED0003F924F925F926F927F928F929F92AF92AA
:102EE000BF92CF92DF92EF92FF920F931F93CF93F7
:102EF000DF93CDB7DEB7CB56D1090FB6F894DEBF5E
:102F00000FBECDBF21E020933609809135098D3465
:102F100009F409C7843511F40C94222D873411F07B
:102F20000C946E2D20903309309034093BE1231628
:102F3000310409F439C694F454E02516310444F4FC
:102F400082E0281631040CF041C037FE38C0E7C6D5
:102F500094E02916310409F4E8C5E1C6AAE52A1669
:102F6000310409F468C674F4ECE12E16310409F456
:102F70004BC6FDE12F16310409F0D1C60E94D0A343
:102F80000C94702D3BE52316310409F458C64CE52A
:102F90002416310409F0C3C672E5272E72E0372EDD
:102FA000E4E4EE2EE9E0FE2EE7E8F6E0F9AFE8AF64
:102FB000F1E8CF2EF8E0DF2E00E010E07FC6809130
:102FC000460281110C94752D0C94702D809146024F
:102FD000882311F40C94702D0E94EDA082E50E94CC
:102FE0006FD1882309F44CC10E94F3D04B015C01DE
:102FF00020E030E0A9010E9442FF882309F470C15B
:103000008091870690918806A0918906B0918A06E2
:1030100088AF99AFAAAFBBAF20918B0630918C06D9
:1030200040918D0650918E062CAF3DAF4EAF5FAFF5
:103030008091500990915109A0915209B091530982
:103040002C968CAF9DAFAEAFBFAF2C97209154099B
:1030500030915509409156095091570928962CAF47
:103060003DAF4EAF5FAF28979C01AD0168AD79AD24
:103070008AAD9BAD0E9442FF81110FC028962CADF6
:103080003DAD4EAD5FAD28976CAD7DAD8EAD9FADC6
:103090000E9442FF882309F423C111E032E0231685
:1030A000310409F010E020E030E0A901C501B401CD
:1030B0000E9442FF881F8827881F181759F080E058
:1030C00090E0A0E8BFEB64968CAF9DAFAEAFBFAF12
:1030D00064970AC020E030E040E85FE364962CAFDC
:1030E0003DAF4EAF5FAF649728AD39AD4AAD5BAD34
:1030F0002C966CAD7DAD8EAD9FAD2C970F946B0370
:1031000060966CAF7DAF8EAF9FAF60972CAD3DAD3D
:103110004EAD5FAD28966CAD7DAD8EAD9FAD289761
:103120000F946B036B017C0160962CAD3DAD4EADF1
:103130005FAD6097CA01B9010E94A7FF2B013C0156
:10314000A7019601C701B6010E94A7FF9B01AC0130
:10315000C301B2010F946C030F94D70524966CAF92
:103160007DAF8EAF9FAF249720E030E040E05FE37B
:103170000E94A7FF2B013C01A5019401C501B401E8
:103180000E94A7FF4B015C01A3019201C301B201A0
:103190000E94A7FF9B01AC01C501B4010F946B0312
:1031A0000F94D70564962CAD3DAD4EAD5FAD6497E1
:1031B0000E94A7FF4B015C01C701B60190582496FD
:1031C0002CAD3DAD4EAD5FAD24970F944804A501E5
:1031D00094010E94A7FF6B017C012C962CAD3DADA4
:1031E0004EAD5FAD2C9768AD79AD8AAD9BAD0F94B8
:1031F0006C0320E030E040E05FE30E94A7FF9B010A
:10320000AC01C701B6010F946C0328AD39AD4AADCE
:103210005BAD0F946B036B017C0128962CAD3DAD2B
:103220004EAD5FAD28976CAD7DAD8EAD9FAD0F946B
:103230006C0320E030E040E05FE30E94A7FF2B0139
:103240003C0124962CAD3DAD4EAD5FAD249760960C
:103250006CAD7DAD8EAD9FAD60970F944804A50118
:1032600094010E94A7FF9B01AC01C301B2010F941E
:103270006C032CAD3DAD4EAD5FAD0F946B0314C030
:1032800089E40E946FD1882329F00E94F3D06B015A
:103290007C0103C0C12CD12C76018AE40E946FD13D
:1032A000882309F10E94F3D02C966CAF7DAF8EAFCE
:1032B0009FAF2C9720E030E0A901C701B6010E9422
:1032C00042FF81111FC020E030E0A9012C966CADB7
:1032D0007DAD8EAD9FAD2C970E9442FF811112C033
:1032E000E3E6F1E10EC420E030E0A901C701B60138
:1032F0000E9442FF8823A1F32C961CAE1DAE1EAE89
:103300001FAE2C97D701C601B05888AF99AFAAAFAE
:10331000BBAF2C962CAD3DAD4EAD5FAD2C9750584C
:103320002CAF3DAF4EAF5FAF9C01AD01BC01CD01F5
:103330000E94A7FF4B015C012CAD3DAD4EAD5FADD2
:10334000CA01B9010E94A7FF9B01AC01C501B401EC
:103350000F946C030F94D705A0966CAF7DAF8EAF22
:103360009FAFA0978091870690918806A0918906CB
:10337000B0918A0628968CAF9DAFAEAFBFAF2897AD
:103380009C01AD01C701B6010F946C0364966CAF4C
:103390007DAF8EAF9FAF649720918B0630918C06E6
:1033A00040918D0650918E0660962CAF3DAF4EAF8A
:1033B0005FAF60972C962CAD3DAD4EAD5FAD2C97B9
:1033C00060966CAD7DAD8EAD9FAD60970F946C0334
:1033D000A4966CAF7DAF8EAF9FAFA497809150093C
:1033E00090915109A0915209B091530968968CAF00
:1033F0009DAFAEAFBFAF689764962CAD3DAD4EADFF
:103400005FAD6497BC01CD010F946B036B017C0130
:10341000209154093091550940915609509157090E
:103420006C962CAF3DAF4EAF5FAF6C97A4962CADB2
:103430003DAD4EAD5FADA4976C966CAD7DAD8EADE0
:103440009FAD6C970F946B034B015C0180918F06CD
:1034500090919006A0919106B0919206A8968CAF9B
:103460009DAFAEAFBFAFA8979C01AD016091580969
:103470007091590980915A0990915B090F946B03DF
:1034800024966CAF7DAF8EAF9FAF2497A7019601B6
:1034900068AD79AD8AAD9BAD0E94A7FF2B013C01C1
:1034A000A50194016CAD7DAD8EAD9FAD0E94A7FFCF
:1034B0009B01AC01C301B2010F946C032B013C01D1
:1034C000A501940168AD79AD8AAD9BAD0E94A7FFBF
:1034D0004B015C01A70196016CAD7DAD8EAD9FAD3A
:1034E0000E94A7FF9B01AC01C501B4010F946B03BF
:1034F000A30192010F94DF036B017C0120E030E017
:10350000A9010E9442FF87FF0AC02BED3FE049EC72
:1035100050E4C701B6010F946C036B017C0192E08B
:103520002916310451F42BED3FE049EC50E4C7017A
:10353000B6010F946B036B017C0120E030E0A90120
:10354000C701B6010E9442FF811128C068962CADC8
:103550003DAD4EAD5FAD689728966CAD7DAD8EAD3F
:103560009FAD28970E9442FF811118C06C962CAD28
:103570003DAD4EAD5FAD6C9760966CAD7DAD8EADE3
:103580009FAD60970E9442FF811108C01BEDC12EC4
:103590001FE0D12E19ECE12E10E4F12EA7019601C7
:1035A000A0966CAD7DAD8EAD9FADA0970E94A7FF9C
:1035B0004B015C0120E030E0A90124966CAD7DADAB
:1035C0008EAD9FAD24970E9442FF8823E9F0A501AC
:1035D0009401C501B4010E94A7FF4B015C01249630
:1035E0002CAD3DAD4EAD5FAD2497CA01B9010E942F
:1035F000A7FF9B01AC01C501B4010F946C030F94AC
:10360000D7054B015C010DC020E030E0A901C501E8
:10361000B4010F94920587FF04C0B7FAB094B7F8CD
:10362000B0942FE632E143E85AE3C501B4010E94A9
:1036300042FF87FF02C00C94702DC501B4010F94A6
:10364000E1040F94B5042E967FAF6EAF2E97DB0189
:10365000AB2B31F4E1E0F0E02E96FFAFEEAF2E970A
:103660004090930650909406609095067090960650
:103670002E962EAD3FAD2E97B90180E090E00E94CE
:1036800046FF4B015C019B01AC01C701B6010F94E1
:10369000480428966CAF7DAF8EAF9FAF2897A501E9
:1036A000940124966CAD7DAD8EAD9FAD24970F94A3
:1036B0004804A0966CAF7DAF8EAF9FAFA097A301DB
:1036C000920160915C0970915D0980915E09909111
:1036D0005F090F946B03A50194010F944804AC9605
:1036E0006CAF7DAF8EAF9FAFAC9728962CAD3DAD44
:1036F0004EAD5FAD2897CA01B9010E94A7FF20E037
:1037000030E040E05FE30E94A7FF9B01AC0160E076
:1037100070E080E89FE30F946B0368966CAF7DAF19
:103720008EAF9FAF6897A8968CAD9DADAEADBFAD87
:10373000A89789879A87AB87BC874D865E866F86F8
:10374000788A6091500270915102072E000C880B0C
:10375000990B0E9448FF20913D0230913E0240911A
:103760003F02509140020E94A7FF2AE037ED43E25A
:103770005CE30E94A7FF6CAB7DAB8EAB9FAB0E945E
:10378000AFC59B01AC0128533F4F4F4F5F4F6C9625
:103790002CAF3DAF4EAF5FAF6C9748AC59AC6AAC45
:1037A0007BAC22242394312C39E121963FAF219721
:1037B0002E964EAD5FAD2E974215530509F44DC1BF
:1037C0000E9466B60E94AFC5DC01CB016C962CADA1
:1037D0003DAD4EAD5FAD6C97821B930BA40BB50B4B
:1037E000B7FD11C00E94AFC59B01AC0128533F4FEC
:1037F0004F4F5F4F6C962CAF3DAF4EAF5FAF6C97A6
:1038000080E00E94E4AA21963FAD21973150219695
:103810003FAF2197332309F445C02CAD3DAD4EADEC
:103820005FAD68966CAD7DAD8EAD9FAD68970E9423
:10383000A7FF6B017C019201A30128966CAD7DADC1
:103840008EAD9FAD28970E94A7FFA70196010F9408
:103850006C037B018C019201A30168966CAD7DAD78
:103860008EAD9FAD68970E94A7FF4B015C012CAD08
:103870003DAD4EAD5FAD28966CAD7DAD8EAD9FADCF
:1038800028970E94A7FF9B01AC01C501B4010F94CA
:103890006B032B013C01C701D8018CAF9DAFAEAFCC
:1038A000BFAF55C0B10180E090E00E9446FF28966E
:1038B0002CAD3DAD4EAD5FAD28970E94A7FF4B01EB
:1038C0005C010F9445046B017C01C501B4010F94A8
:1038D000CD054B015C01A701960168AD79AD8AADBC
:1038E0009BAD0E94A7FF2B013C012C962CAD3DAD5A
:1038F0004EAD5FAD2C97C501B4010E94A7FFA30197
:1039000092010F946C032B013C01A501940168AD59
:1039100079AD8AAD9BAD0E94A7FF4B015C012C964F
:103920002CAD3DAD4EAD5FAD2C97C701B6010E94E9
:10393000A7FF9B01AC01C501B4010F946B036CAFF1
:103940007DAF8EAF9FAF49E121964FAF2197920196
:10395000A30164966CAD7DAD8EAD9FAD64970F9461
:103960006C0369837A838B839C832CAD3DAD4EAD14
:103970005FADA4966CAD7DAD8EAD9FADA4970F9459
:103980006C036D837E838F839887A0962CAD3DADAD
:103990004EAD5FADA09769857A858B859C850F9428
:1039A0006C0369877A878B879C87AC962CAD3DAD7D
:1039B0004EAD5FADAC976D857E858F8598890F94F0
:1039C0006C036D877E878F87988B80913B0288235D
:1039D00021F0CE0101960E9429D9E090C7031CA6D0
:1039E0001DA61EA61FA689819A81AB81BC8188A3D2
:1039F00099A3AAA3BBA38D819E81AF81B8858CA317
:103A00009DA3AEA3BFA389859A85AB85BC8588A7F6
:103A100099A7AAA7BBA7AE01485D5F4FBE016C5D29
:103A20007F4FCE0180960E9403D4CE018C966C010C
:103A30008E010C5C1F4F9E01235F3F4FAE01485D1E
:103A40005F4FBE016C5D7F4F0C970E94464E8823EE
:103A500021F09FEF291A390AABCEE090C70318AACC
:103A600019AA1AAA1BAA8091500990915109A091F4
:103A70005209B091530988A399A3AAA3BBA380912B
:103A8000540990915509A0915609B09157098CA3FA
:103A90009DA3AEA3BFA38091580990915909A0910D
:103AA0005A09B0915B0988A799A7AAA7BBA7AE013D
:103AB000485D5F4FBE016C5D7F4FCE0180960E94D6
:103AC00003D4DE01D0966D018E010C5C1F4F2CE5F6
:103AD00039E0AE01485D5F4FBE016C5D7F4FCE01A6
:103AE00080960E94464E80E1E0E5F9E0A7E8B6E066
:103AF00001900D928A95E1F70C94702D0E94E4D705
:103B0000F80184918F010F5F1F4F8111F7CFEDEE08
:103B1000F1E084918F010F5F1F4F882311F40C9403
:103B2000702D0E94E4D7F801F4CF80E50E946FD198
:103B3000882329F00E94B3D06B017C0103C0C12C03
:103B4000D12C760183E50E946FD1882361F00E9419
:103B5000F3D020E030E04AE754E40E94A7FF0F943E
:103B6000B5046B017C010E94875E8091F203811194
:103B700005C060E083E092E00E94706C0E94AFC5D7
:103B8000C60ED71EE81EF91E0E94AFC5DC01CB0190
:103B90008C199D09AE09BF09B7FD02C00C94702DA8
:103BA00080E00E94E4AAF0CF0E943B6481110C9453
:103BB000702D80E090E0A0E2B1E489839A83AB832A
:103BC000BC8380E090E0AEE3B3E48D839E83AF835B
:103BD000B88780E090E0A0EAB1E489879A87AB8754
:103BE000BC8780E50E946FD1882319F00E94C3D062
:103BF00001C060E068A3BE016F5F7F4FCE01809679
:103C00000E943DD70C94702D80917A068770873082
:103C100011F00C947A2D8FE40E946FD1882319F053
:103C20000E94E4D003C08FE40E9426D181110C943D
:103C3000702D0C947A2D109243030C94702D2093C8
:103C400043030C94702D0E94F3D02B013C011330E0
:103C500049F0F60120813181428153810F946B0339
:103C60002B013C01A8ADB9AD2D913D914D915C91D9
:103C7000C301B2010F946B034B015C012DEB37E3E1
:103C800046E855EB0F94920587FD20C02DEB37E3F6
:103C900046E855E3C501B4010E9442FF1816B4F08E
:103CA0001F5FB4E0EB0EF11CE8ADF9AD3496F9AF4F
:103CB000E8AFF4E0CF0ED11C143039F1D1018D9171
:103CC0001D010E946FD1882359F3BDCF133051F4E9
:103CD00040929306509294066092950670929606D2
:103CE00001E0DECFA5019401F7016081718182813D
:103CF00093810F946C03D7016D937D938D939C9367
:103D00001397812F0E94F6A8CBCF002321F083E9DF
:103D100096E00E94DC630E94D5E40C94702D0E9412
:103D2000D5650C94702D80913309909134098537B5
:103D3000910509F4BDC70CF0DCC08B34910509F482
:103D400019C50CF06BC08831910509F496C2CCF509
:103D50008231910509F445C6DCF497FF02C00C944A
:103D60001F2D823091050CF4B7C1419711F00C94CE
:103D70001F2D60E08FE192E00E94706C5F988A983E
:103D80008091080181708093060112980C94702D27
:103D90008531910509F456C23CF4449711F00C9416
:103DA0001F2DE7E3F2E010C28631910509F44EC2FF
:103DB000479711F00C941F2DE0913109F0913209D1
:103DC0004FC28D31910511F40C94702DC4F48A31D9
:103DD000910509F461C20CF459C28B31910509F4C3
:103DE00069C24C9711F00C941F2D40E060E0809167
:103DF0003109909132090E94F35F0C94702D8F313C
:103E0000910509F4CDC30CF4EDC28032910509F49B
:103E10007BC38A9709F47AC40C941F2D88369105C8
:103E200009F4B4C4D4F58235910509F4D1C5E4F49C
:103E30008D34910509F4A6C40CF4A0C48135910514
:103E400011F00C941F2D0E9488B30E94AED268EE30
:103E500073E080E090E00E94C26B60E08BE193E051
:103E60000E94706C0C94702D8435910509F4B9C5CD
:103E70000CF4B2C58535910509F4E8C58C3591057A
:103E800011F00C941F2D32E5C32E32E0D32E41EEFB
:103E9000E42E43E0F42E10E0F4C58F36910509F4CA
:103EA000B3C4ACF48C36910509F401C534F48936F9
:103EB000910509F431C50C941F2D8D36910509F437
:103EC0006DC58E36910509F48CC40C941F2D813775
:103ED000910509F4F4C40CF4EEC48237910509F499
:103EE0004FC68337910511F00C941F2DEBE0F4E0E1
:103EF00084C68C3221E0920711F40C94302A0CF025
:103F00006DC0883C910509F4AEC75CF58937910511
:103F100009F42CC774F48737910509F41EC70CF017
:103F20001FC7009131091091320983E0D12C40E084
:103F3000D4C68139910509F41EC734F48C38910533
:103F400009F430C50C941F2D8B39910509F4FFC479
:103F50008E3B910511F00C941F2D0E949BE50C9453
:103F6000702D8E3C910511F40C949728E4F48B3C51
:103F7000910509F4E1C764F4893C910511F00C94B2
:103F80001F2DB2E5EB2EB2E0FB2E0BE31EE0BBC70C
:103F90008C3C910509F4EBC78D3C910511F40C9410
:103FA0002C280C941F2D8C3D910511F40C948B2919
:103FB0004CF4833D910511F00C941F2D0E948182D9
:103FC0000C94702D8D3D910511F40C949829823E2E
:103FD000910511F40C94072A0C941F2D853F41E0A4
:103FE000940711F40C94F32BF4F58039A1E09A07AF
:103FF00011F40C94662BC4F48E32E1E09E0711F4A8
:104000000C94F92A14F40C94592A8F3221E0920767
:1040100011F40C944D2B8336914011F00C941F2D0C
:10402000E3E6F1E10C94532B843A41E0940711F458
:104030000C94692B4CF48A39914011F00C941F2D8B
:104040000E94ED7D0C94702D8C3AB1E09B0711F429
:104050000C94B928843F914011F00C941F2D0E94BC
:10406000E43A0C94702D8B35F2E09F0711F40C9418
:10407000292CC4F4873F31E0930711F40C94F92BF9
:1040800014F40C94F62B883F51E0950711F40C942E
:10409000052C8835924011F00C941F2D0E948379D5
:1040A0000C94702D8B38B3E09B0711F40C94702D99
:1040B0003CF48438934011F40C94B22C0C941F2DD2
:1040C000803A23E0920709F45EC2873E934011F4E0
:1040D0000C940A2D0C941F2DA0903109B090320938
:1040E00080E50E946FD1882359F00E94B3D06B0104
:1040F0007C0111E0672B682B692B31F410E004C0C0
:1041000010E0C12CD12C760183E50E946FD1882369
:1041100011F40C94012E0E94F3D020E030E04AE725
:1041200054E40E94A7FF0F94B5046B017C011111A8
:104130000BC0672B682B692B39F4A114B10421F053
:10414000D5018C91811102C010E001C011E00E94E4
:10415000875E112329F061E0C5010E94AC6C05C0A7
:1041600060E08CE092E00E94706C83E080933609FE
:1041700081E080935806C114D104E104F104B1F048
:104180000E94AFC5C60ED71EE81EF91E0E94AFC51D
:10419000DC01CB018C199D09AE09BF09B7FF0EC028
:1041A0008091580681110C94062E08C08091580603
:1041B000882321F080E00E94E4AAF8CF0E9477BB18
:1041C000109258060C94702D84918F010F5F1F4F31
:1041D000882321F00E94E4D7F801F6CF1092130D46
:1041E00086EC9AE00E9460458BE1E6ECFAE0DE01A5
:1041F000159601900D928A95E1F78091C40A9091ED
:10420000C50A9C838B838CEF92E09A83898340E07C
:1042100050E0BE016F5F7F4F80E090E00E94F5C0EC
:10422000CE0101960E946945E8E2F2E084918F0197
:104230000F5F1F4F882311F40C94702D0E94E4D758
:10424000F801F4CF0E94D7610C94702D10926F0A80
:104250001092700A0C94702D803209F410823196FD
:1042600080818111F9CF40E061E080913109909126
:1042700032090E94F35F0C94702D8091700A8111B5
:1042800020936F0A0E943CB30C94702D10926F0A19
:104290000E945EB30C94702D8091700A882311F4F3
:1042A0000C94702D83E50E946FD181110C940B2E1C
:1042B0000C94702D83E40E9426D1882309F450C009
:1042C000E5E7F2E084918F010F5F1F4F882321F013
:1042D0000E94E4D7F801F6CF8091610C811103C0F0
:1042E000E8E4F2E012C0BE016F5F7F4F8EE59CE014
:1042F0000E94B5478E010F5F1F4FF80181918F011A
:10430000882349F10E94E4D7F8CF84918F010F5F91
:104310001F4F882301F10E94E4D7F801F6CF53EF35
:10432000C52E52E0D52EE12CF12C20E08091CB035C
:1043300090E00E2C02C0959587950A94E2F780FDD7
:1043400093C2BFEFEB1AFB0AE2E0CE0ED11CF5E000
:10435000EF16F10459F78AE00E94E4D70C94702D0F
:104360008091700A882339F080916F0A882319F0B0
:10437000E2E5F2E003C0E4E6F2E028C084918F01B8
:104380000F5F1F4F882321F00E94E4D7F801F6CF7A
:1043900060910F0D7091100D8091110D9091120D83
:1043A0004AE00E94EBD78FE20E94E4D760910B0DA8
:1043B00070910C0D80910D0D90910E0D4AE00E94B0
:1043C000EBD78AE00E94E4D70C94702D84918F0182
:1043D0000F5F1F4F882311F40C94702D0E94E4D7B7
:1043E000F801F4CF8091700A882311F40C94702D99
:1043F0008EE59CE00E947B478EE59CE00E94AD47E5
:1044000010926E0A10926D0A8091700A882311F43E
:104410000C94702D00913109109132090E94E8C06E
:10442000B801CE0180960E94FCC28C01892B11F448
:104430000C94702D68A179A16115710511F06C5F64
:104440007F4F19821C8222E0A801CE0101960E94B2
:10445000594D811102C0F12C14C0CE0101960E9469
:1044600056C08823C1F361E0CE0101960E945F47E8
:10447000009789F325EEDC012C931C820E94FDEB52
:10448000F82ECE0101960E946445F11003C0E2E9C6
:10449000F2E022C0E4E8F2E084917F01BFEFEB1A82
:1044A000FB0A882321F00E94E4D7F701F5CFF80139
:1044B00081918F01882319F00E94E4D7F8CF8AE018
:1044C0000E94E4D710920F0D1092100D1092110D52
:1044D0001092120D0C94702D84917F012FEFE21A2F
:1044E000F20A882321F00E94E4D7F701F5CFD80122
:1044F0008D918D01882319F00E94E4D7F8CF8EE2C8
:104500000E94E4D70C94702D80916F0A81110E9453
:10451000875E8091700A882311F40C94702D80E5D9
:104520000E946FD1882319F00E94E4D003C080E577
:104530000E9426D1182F482F61E080913109909177
:1045400032090E94F35F83E50E946FD1882381F0D6
:104550000E94C3D0AB01BC0140930F0D5093100DCE
:104560006093110D7093120D8EE59CE00E947546CC
:104570008091700A882319F081E080936F0A1111ED
:104580000C94702D7FCE809131099091320921E0F9
:1045900020936E0A40E060E00E94F35F0C94702D5F
:1045A0000E94EDB27B018C0120E831E541E050E052
:1045B0000F943003C9016DE671E00F9434064B018E
:1045C0005C01C801B70120E13EE040E050E00F94FB
:1045D0003003CA01B90128E130E040E050E00F9417
:1045E0003003762E672EC62ED72E6CE3262E312C66
:1045F000412C512CC801B701A20191010F94300345
:10460000F62EE72ECA01B901A20191010F943003E1
:10461000CB018E010F5F1F4F8114910499F0EF922F
:10462000FF927F936F936F927F92BF92AF929F9210
:104630008F9282ED92E09F938F931F930F930E942E
:10464000DCFE13C0A114B104B1F0EF92FF927F938E
:104650006F936F927F92BF92AF9282EC92E09F93A2
:104660008F931F930F930E94DCFE0FB6F894DEBF6A
:104670000FBECDBF30C0CD2879F0EF92FF927F936F
:104680006F936F927F9286EB92E09F938F931F932D
:104690000F930E94DCFEE9CF892B69F0EF92FF9225
:1046A0007F936F938EEA92E09F938F931F930F9364
:1046B0000E94DCFEDACFEF92FF928AEA92E09F93AB
:1046C0008F931F930F930E94DCFE0F900F900F901B
:1046D0000F900F900F9060E0C8010E94AC6CE7E271
:1046E000F5E284917F019FEFE91AF90A882321F00E
:1046F0000E94E4D7F701F5CFB80186EE92E00E9460
:10470000E2EB8AE00E94E4D70C94702D83E50E94CE
:104710006FD1882311F40C94702D0E94D3D0082FF0
:1047200080E50E946FD1882339F00E94D3D0182FE2
:1047300087FF03C00C94702D1DE089E40E946FD1A7
:10474000882341F00E94E4D081110C94832EECE484
:10475000F5E00BC089E40E9426D1F6CF3196A5E0A2
:10476000E937FA0711F40C94832E84911813F6CFCD
:104770000C94572E0E943CB30C94702D0E945EB393
:104780000C94702D0E9473B30C94702D88E690E009
:104790000E9436A981110C94702D8091CB0383FF68
:1047A00002C00C94702D83E50E946FD18823A9F07C
:1047B0000E94F3D00F94B004CB010E94156C0E94AC
:1047C000F3D020E030E04AEA52E40E9442FF18169B
:1047D00024F00E9473B30E9477BB0E94C3EF0C9435
:1047E000702D8EE40E946FD1882311F40C94702DEB
:1047F0000E94C3D060934506709346068093470697
:10480000909348060C94702D83E50E9426D188234E
:1048100059F083E50E946FD1882319F00E94D3D00C
:1048200001C080E08093CB03E7E2F5E284918F0141
:104830000F5F1F4F811103C0E1E0F3E004C00E944D
:10484000E4D7F801F3CF84918F010F5F1F4F8823C6
:1048500021F00E94E4D7F801F6CF8091CB038111BB
:104860005ECDEDEFF2E018C0BB24B394B20E22236C
:1048700019F08CE20E94E4D7F60185919491FC0135
:1048800084918F010F5F1F4F882321F00E94E4D78E
:10489000F801F6CF2B2D55CD84918F010F5F1F4F5F
:1048A000882309F458CD0E94E4D7F801F5CF10927F
:1048B00013020C94702D88E093E00E9492AA83E585
:1048C0000E946FD1811103C0E7E2F5E20DC00E94A2
:1048D000D3D08D3320F4809341020C94702D8CE35F
:1048E000809341020C94702D84918F010F5F1F4FB4
:1048F000882321F00E94E4D7F801F6CF40914102CD
:1049000050E060E070E081E193E00E948FEB8AE08C
:104910000E94E4D70C94702D89E690E00E9436A99D
:10492000811111C0E8E1F3E084918F010F5F1F4F07
:10493000882321F00E94E4D7F801F6CF0E9413A04B
:104940008AE00E94E4D7109236090C94912E83E5F8
:104950000E946FD1882311F40C94702D0E94D3D043
:10496000182F8D3308F01CE3109343090E94AFC544
:104970006B017C01212F30E0A8EEB3E00F945C03C3
:10498000C60ED71EE81EF91EC0923F09D0924009FC
:10499000E0924109F09242090C94702D0E946BE75D
:1049A0000C94702D8091CB0383FF02C00C94702D6A
:1049B00083E50E946FD1882311F40C94702D0E941E
:1049C000F3D00F94B004CB010E947BD10C94702DD6
:1049D000109242030C94702D81E0809342030C945A
:1049E000702D83E50E946FD18823A1F00E94F3D03F
:1049F00020E030E04AE754E40E94A7FF0F94B5049A
:104A00006093420270934302809344029093450264
:104A10000C94702D88E50E9426D181110C941C2ED7
:104A200089E50E9426D181110C941C2E8AE50E94F2
:104A300026D181110C941C2E85E40E9426D181116F
:104A40000C941C2E0E94AED20C94702D83E50E9413
:104A500026D1882311F40C94702D0E94F3D020E00D
:104A600030E04AE754E40E94A7FF0F94B504609336
:104A70003B0970933C0980933D0990933E090C9447
:104A8000702DD6018D916D010E9426D1882309F4E5
:104A90006DC0133009F063C00E94F3D04B015C017C
:104AA00020E030E040EA51E40E9442FF87FF4EC020
:104AB000A50194016091ED037091EE038091EF03E5
:104AC0009091F0030F9448042B013C019B01AC0131
:104AD0006091630870916408809165089091660800
:104AE0000E94A7FF60936308709364088093650831
:104AF00090936608A30192016091370E7091380E71
:104B00008091390E90913A0E0E94A7FF6093370E64
:104B10007093380E8093390E90933A0E6091D014B2
:104B20007091D1148091D2149091D3140E9446FFB9
:104B3000A30192010E94A7FF0F94B5046093D014C3
:104B40007093D1148093D2149093D3148092ED0378
:104B50009092EE03A092EF03B092F00307C00E9480
:104B6000F3D0F70160837183828393831F5FF4E046
:104B7000EF0EF11C143009F084CF0E9464F1B0C72D
:104B80000E94875E83E50E946FD1882309F4C3C821
:104B90000E94C3D06230710509F0BDC80E940FAFFA
:104BA0008BE50E94E4D76091950D7091960D8091F0
:104BB000970D9091980D42E00E9470D84091990D08
:104BC00050919A0D60919B0D70919C0D89E293E03C
:104BD0000E94ACEB40919D0D50919E0D60919F0DF8
:104BE0007091A00D86E293E00E94ACEB8DE50E94EF
:104BF000E4D78AE00E94E4D773C784918F010F5FE6
:104C00001F4F882321F00E94E4D7F801F6CF60E01F
:104C10008BEF93E00E949EE461E084EF93E00E94BA
:104C20009EE461E089EE93E00E949EE461E089EDFC
:104C300093E00E949EE460E080ED93E00E949EE499
:104C400061E086EC93E00E949EE460E08CEB93E0F0
:104C50000E949EE460E084EB93E00E949EE461E0A9
:104C600086EA93E00E949EE460E088E993E00E9477
:104C70009EE460E089E893E00E949EE460E08BE7B8
:104C800093E00E949EE460E085E693E00E949EE44B
:104C900060E084E593E00E949EE460E08FE393E0AF
:104CA0000E949EE461E08CE293E00E949EE418C7BB
:104CB0008091310990913209DC012C91222321F05D
:104CC00060E00E94AC6C0CC70E9477BB09C7F8017A
:104CD0009081292F2B7F213419F08150C1F716C004
:104CE00021812133D1F7913421F0953421F441E031
:104CF00002C0DD24D39498012E5F3F4F89012F5FBE
:104D00003F4FD8019C919032C9F3E7CF442369F01B
:104D1000E7E2F5E284917F01BFEFEB1AFB0A8823FB
:104D200021F00E94E4D7F701F5CFDD2069F0ECEC2B
:104D3000F4E084917F012FEFE21AF20A882321F038
:104D40000E94E4D7F701F5CFD8018D918D0188231A
:104D500009F401CB0E94E4D7F7CF0E94F7D1C0C677
:104D600081E08093790680937806BAC6109279061E
:104D700010927806B5C683E50E946FD1882319F09A
:104D80000E94C3D002C060E070E08B0111270230A6
:104D90001105D4F0E3E6F1E184918F010F5F1F4F1D
:104DA000811103C0E0EDF4E004C00E94E4D7F801F3
:104DB000F3CF84918F010F5F1F4F882309F490C6B2
:104DC0000E94E4D7F801F5CF88E40E946FD18823D0
:104DD000A9F00E94C3D06A3A71053CF06530B1E099
:104DE0007B072CF064E071E002C06AEA70E0F80131
:104DF000EE0FFF1FE95CF74F7183608386E40E942A
:104E00006FD18823A9F00E94C3D0F801EE0FFF1FD5
:104E1000E55CF74F718360836F3F710519F014F003
:104E20006FEF70E077FF02C060E070E07183608335
:104E300082E40E946FD1882309F452C60E94C3D035
:104E40006530710534F0683871052CF067E870E062
:104E500002C065E070E0000F111FF801ED5CF74F34
:104E6000718360833DC688EC90E00E9436A9811171
:104E700037C684E40E9426D1882309F441C00E94E9
:104E8000F3D06B017C0111E020E030E0A9010E9429
:104E900042FF811101C010E01093730820E030E060
:104EA000A901C701B6010E9442FF882349F10E946F
:104EB000F3D0E091A20824E0E29FF0011124E1592F
:104EC000F74F608371838283938320E030E0A901F0
:104ED00060916F08709170088091710890917208CC
:104EE0000E9442FF81110CC080E090E0A0EEBFE381
:104EF00080936F0890937008A0937108B093720824
:104F00000E941CD2EDC5D7018D917D010E9426D152
:104F1000882349F00E94F3D00F94B504F801608310
:104F20007183828393830C5F1F4FFEE00B341F0756
:104F300051F70E94F3EFD4C5A2E5EA2EA2E0FA2EC3
:104F40000BE21EE0D7018D917D010E9426D18823BE
:104F500039F00E94F3D0F8016083718382839383D8
:104F60000C5F1F4FFEE00B331F0761F7B9C583E5E8
:104F70000E946FD18823A1F00E94F3D06093530E5A
:104F80007093540E8093550E9093560E60934B0E73
:104F900070934C0E80934D0E90934E0E10E001C016
:104FA00011E080E50E946FD1882359F00E94F3D070
:104FB0006093530E7093540E8093550E9093560E3B
:104FC00010E082E50E946FD1882359F00E94F3D04F
:104FD00060934F0E7093500E8093510E9093520E2B
:104FE00010E084E50E946FD1882359F00E94F3D02D
:104FF00060934B0E70934C0E80934D0E90934E0E1B
:105000006FC5112309F46CC54091530E5091540E95
:105010006091550E7091560E88EF94E00E94ACEBB3
:1050200040914F0E5091500E6091510E7091520E62
:1050300085EF94E00E94ACEB40914B0E50914C0EEA
:1050400060914D0E70914E0E82EF94E00E94ACEB99
:105050008AE00E94E4D744C581E50E9426D18823D6
:1050600051F00E94B3D06093A4037093A503809382
:10507000A6039093A70383E50E9426D1882351F0CD
:105080000E94F3D06093270E7093280E8093290E10
:1050900090932A0E84E50E9426D1882351F00E9425
:1050A000F3D06093230E7093240E8093250E90937B
:1050B000260E88E50E9426D1882351F00E94F3D065
:1050C00060935708709358088093590890935A0832
:1050D00089E50E9426D1882351F00E94F3D0609385
:1050E0005B0870935C0880935D0890935E088AE586
:1050F0000E9426D1882351F00E94F3D060935F086C
:1051000070936008809361089093620885E40E9420
:1051100026D1882309F4E4C40E94F3D06093630885
:10512000709364088093650890936608D9C4E2E59B
:10513000CE2EE2E0DE2EFBE7EF2EF6E0FF2E10E0B3
:10514000D6018D916D010E9426D1882351F00E94D5
:10515000F3D0F7016083718382839383812F0E9450
:10516000F6A81F5FF4E0EF0EF11C133049F70C9422
:105170008B1E0E943B648111B3C401E112E227E857
:1051800036E039AF28AFAE014F5F5F4F5A017AE684
:10519000872E72E2972E1A01F8016591759185911B
:1051A0009491A8ADB9ADCD90DD90ED90FD90B9AFE3
:1051B000A8AFA70196010F946B032B013C01F101ED
:1051C000608371838283938320E030E040EA51EC76
:1051D0000F94920587FD0AC020E030E040EA51E4D8
:1051E000C301B2010E9442FF18162CF4F40184910D
:1051F00018160CF451C5D101CD90DD90ED90FD90C5
:105200001D0120E030E040EA51ECC701B6010F94E7
:10521000920587FD0AC020E030E040EA51E4C70172
:10522000B6010E9442FF181684F5E3E6F1E184918D
:105230008F010F5F1F4F811103C0E6E2F5E004C04C
:105240000E94E4D7F801F3CF84918F010F5F1F4FC5
:10525000882321F00E94E4D7F801F6CF61E088E1CD
:1052600095E00E94706C0E94DF9988E290E099A31B
:1052700088A388EC90E09DA78CA7BE01605E7F4F5D
:10528000CE018C960E9419632BC40C5F1F4FBFEF99
:105290008B1A9B0AEDE1F2E2E017F10709F07CCFEF
:1052A0006BE7E62E66E0F62E10E0F5018191919114
:1052B000A191B1915F01F70181939193A193B19372
:1052C0007F01812F0E94F6A81F5F133071F70E94A3
:1052D000D5E460E088E095E00E94706C83E992E09C
:1052E0009DA78CA704E610E019A308A3BE01645D86
:1052F0007F4FCE0180960E9419638AEB92E09DA7B2
:105300008CA719A308A3BE01645D7F4FCE018096D0
:105310000E941963E5C383E50E946FD1882309F4D5
:10532000DFC30E94C3D07093510260935002D8C370
:105330008DED90E00E9436A98111D2C383E50E94D1
:105340006FD1811103C0E7E2F5E23BC00091A208F2
:1053500010E00E94C3D0000F111FF801E25BFD4F67
:10536000718360838091A20890E08C01000F111F6F
:10537000000F111F9801265B3D4F7901880F991F7F
:10538000FC01E25BFD4F60817181072E000C880BF0
:10539000990B0E9448FF2AE037ED43E25CE30E944C
:1053A000A7FFF801EB52F64F2081318142815381F2
:1053B0000E94A7FFD7016D937D938D939C931397C4
:1053C0008FC384918F010F5F1F4F882321F00E94AC
:1053D000E4D7F801F6CF85E40E94E4D78091A208D3
:1053E000805D0E94E4D7E091A208F0E0EE0FFF1F7D
:1053F000E25BFD4F6081718184E495E00E94C9EB1E
:1054000085E20E94E4D78AE00E94E4D769C380E580
:105410000E9426D1882309F463C30E94C3D06B0184
:105420007C0183E50E946FD1882321F00E94C3D0C4
:105430008B0102C00FEF1FEFC8010196039708F020
:105440004FC3D7FC4DC38C2DECE4F5E09491891744
:1054500009F42DC43196B5E0E937FB07B9F72AC442
:1054600083E50E946FD1882319F00E94C3D002C047
:1054700064E071E079A368A380E50E946FD188237E
:1054800039F00E94C3D06938E3E17E0730F402C0EE
:1054900068EE73E07A83698304C088E893E19A83B5
:1054A0008983BE01605E7F4FCE0101960E94196321
:1054B00017C385E40E946FD1811110C080E50E945E
:1054C00026D1882391F00E94F3D060932408709332
:1054D0002508809326089093270807C00E94D3D000
:1054E000882361F3E3E6F1E171C089E40E9426D1EB
:1054F000882381F00E94F3D02CEA35EC47E25EE38A
:105500000E94A7FF60932C0870932D0880932E08AB
:1055100090932F0884E40E9426D1882381F00E9472
:10552000F3D02CEA35EC47E25EE30F944804609335
:1055300028087093290880932A0890932B08E7E2A3
:10554000F5E284918F010F5F1F4F882321F00E94A5
:10555000E4D7F801F6CF40912408509125086091D6
:1055600026087091270881E895E00E94ACEB2CEAB0
:1055700035EC47E25EE360912C0870912D08809134
:105580002E0890912F080F944804AB01BC018DE7C1
:1055900095E00E94ACEB2CEA35EC47E25EE36091CB
:1055A00028087091290880912A0890912B080E9460
:1055B000A7FFAB01BC0189E795E00E94ACEB8AE054
:1055C0000E94E4D78DC20E94E4D7F80184918F0134
:1055D0000F5F1F4F8111F7CFE5E8F5E084918F0150
:1055E0000F5F1F4F882309F47BC20E94E4D7F801A4
:1055F000F5CF83E50E9426D1182F882371F00E94F1
:10560000F3D00F94B004709315026093140221E05C
:10561000672B09F020E02093C80380E50E9426D183
:10562000882359F02091140230911502232B11F098
:105630000E94E4D08093C80353C2111151C2E7E223
:10564000F5E284918F010F5F1F4F882321F00E94A4
:10565000E4D7F801F6CF8091C803882319F060E100
:1056600073E002C063E173E08CEA95E00E94E2EB34
:1056700060911402709115028BE995E00E94C9EBCC
:10568000E7E9F5E084918F010F5F1F4F882309F44C
:1056900027C20E94E4D7F801F5CF0E94237E20C2E2
:1056A0000E94E4D7F80184918F010F5F1F4F811191
:1056B000F7CFEFEBF5E084918F010F5F1F4F882349
:1056C00009F40EC20E94E4D7F801F5CF0E94875E6C
:1056D00007C283E50E9426D1882349F00E94E4D0C6
:1056E000182F811106C080E00E9440A202C01091D4
:1056F0007F088091870690918806A0918906B091D5
:105700008A0689839A83AB83BC8380918B069091B0
:105710008C06A0918D06B0918E068D839E83AF83FB
:10572000B88780918F0690919006A0919106B091D4
:10573000920689879A87AB87BC8786E50E9426D127
:10574000882321F08BEF95E00E94CC64812F0E948A
:1057500040A2111103C0E7E2F5E21DC080917F086D
:105760008111F9CFE3E6F1E184918F010F5F1F4FC3
:10577000811103C0ECEDF5E004C00E94E4D7F8010C
:10578000F3CF84918F010F5F1F4F882321F30E9475
:10579000E4D7F801F6CF84918F010F5F1F4F882364
:1057A00021F00E94E4D7F801F6CF80917F0888238A
:1057B00019F067E173E002C06BE173E08EEC95E0F5
:1057C0000E94E2EB8AE00E94E4D74CE050E067E8F8
:1057D00076E0CE0101960F949106892B09F480C1E1
:1057E0000E94D5E47DC10E9422DF7AC10E94EDDDD6
:1057F00077C183E50E9426D1882321F00E94E4D05E
:1058000091E089270E94BBD96BC181E080933E0360
:105810000E949C3F10923E03882309F461C1E7E295
:10582000F5E284918F010F5F1F4F811103C0E8E102
:10583000F6E004C00E94E4D7F801F3CF84918F0111
:105840000F5F1F4F882309F44BC10E94E4D7F80172
:10585000F5CF8BE592E00E9436A9811141C185E523
:105860000E9426D18823D9F10091A20810E00E945D
:10587000F3D06B017C0120E030E0A9010F94920588
:1058800087FF04C0F7FAF094F7F8F094000F111FA7
:10589000000F111FF801E559F74FC082D182E28253
:1058A000F3820091A208F4E00F9F800111240559B2
:1058B000174F20E030E048E453E4D8016D917D912A
:1058C0008D919C910F94920518164CF480E090E015
:1058D000A8E4B3E4F80180839183A283B3838CE4CA
:1058E0000E9426D1882309F4FBC00091A20810E091
:1058F0000E94F3D06B017C0120E030E0A9010F94FD
:10590000920587FF04C0F7FAF094F7F8F094000FBF
:10591000111F000F111FF801E959F74FC082D18202
:10592000E282F3820091A208F4E00F9F800111242B
:105930000959174F20E030E048E453E4D8016D9155
:105940007D918D919C910F94920518160CF0C8C012
:1059500080E090E0A8E4B3E4F80180839183A2831F
:10596000B383BEC08BE40E946FD1811103C0E7E214
:10597000F5E236C08BE40E946FD18823C1F00E940B
:10598000F3D06B017C0120E030E0A9010F94920577
:1059900087FD0AC020E030E040E251E4C701B601D3
:1059A0000E9442FF181634F4E3E2F6E00EC0C12C68
:1059B000D12C76010E94875EC0927408D09275083F
:1059C000E0927608F09277088BC084918F010F5F88
:1059D0001F4F882309F484C00E94E4D7F801F5CF53
:1059E00084918F010F5F1F4F882321F00E94E4D71D
:1059F000F801F6CF409174085091750860917608CF
:105A00007091770882E496E00E94ACEB8AE00E94F5
:105A1000E4D766C081E0809346021092350483E5A6
:105A20000E946FD1882339F00E94E4D0811158C0C0
:105A30000E9448AF55C083E50E9426D1F7CF0E944F
:105A4000D5654EC0F09033090E94875E10917F08A3
:105A500080E00E9440A2FF2029F1E7E2F5E2849174
:105A60008F010F5F1F4F882321F00E94E4D7F801B8
:105A7000F6CF84E50E94E4D76F2D70E080E090E0DF
:105A80004AE00E94EBD780E20E94E4D7EFE5F6E01F
:105A900084918F010F5F1F4F882311F10E94E4D77B
:105AA000F801F6CF1092C703812F0E9440A2E7E2CF
:105AB000F5E284918F010F5F1F4F882321F00E9430
:105AC000E4D7F801F6CF6091C70370E08DE496E06B
:105AD0000E94C9EB8AE00E94E4D702C00E94D5650B
