:100000000C9485190C94B6190C94B6190C94B61965
:100010000C94B6190C94B6190C94B6190C94B61924
:100020000C94B6190C94B6190C94B6190C94B61914
:100030000C94B6190C94B6190C94B6190C94B61904
:100040000C94B6190C9468240C94B6190C94B61937
:100050000C94B6190C94B6190C94B9220C9497D838
:100060000C94B6190C94EF880C94E5880C94B6198E
:100070000C94B6190C94B6190C94B6190C94B619C4
:100080000C94B6190C94B6190C94B6190C94B619B4
:100090000C94B6190C94B6190C94B6190C94B619A4
:1000A0000C94B6190C94B6190C94B6190C94B61994
:1000B0000C94B6190C94B6190C94B6190C94B61984
:1000C0000C94B6190C94B6190C94B6190C94B61974
:1000D0000C94B6190C94B6190C94B6190C94B61964
:1000E0000C94B619084AD73B3BCE016E84BCBFFDC9
:1000F000C12F3D6C74319ABD56833DDA3D00C77FF8
:1001000011BED9E4BB4C3E916BAAAABE0000008090
:100110003F05A84CCDB2D44EB93836A9020C50B91F
:10012000918688083CA6AAAA2ABE000000803F004B
:100130004E414E494E495459494E46CDCCCC3D0ACC
:10014000D7233C17B7D13877CC2B329595E6241FAF
:10015000B14F0A000020410000C84200401C462068
:10016000BCBE4CCA1B0E5AAEC59D7400407A10F33B
:100170005A00A0724E18090010A5D4E80000E876D5
:1001800048170000E40B54020000CA9A3B0000002C
:10019000E1F505000080969800000040420F000045
:1001A00000A08601000000102700000000E8030006
:1001B0000000006400000000000A000000000001D0
:1001C00000000000002C76D888DC674F0823DFC1D0
:1001D000DFAE59E1B1B796E5E3E453C63AE651998B
:1001E0007696E8E6C28426EB898C9B62ED407C6FB4
:1001F000FCEFBC9C9F40F2BAA56FA5F490055A2A6B
:10020000F75C936B6CF9676DC11BFCE0E40D47FE76
:10021000F520E6B500D0ED902E030094357705006B
:1002200080841E080000204E0A000000C80C3333F2
:1002300033330F986E12831141EF8D2114893BE601
:100240005516CFFEE6DB18D1844B381BF77C1D908A
:100250001DA4BBE424203284725E228100C9F124F3
:10026000ECA1E53D27554E4C4F41442046494C41B9
:100270004D454E54004C4F41442046494C414D455C
:100280004E540046494C414D454E54204348414E42
:100290004745003F0043616E63656C00496E6974B9
:1002A000004D34323800496E697469616C697A6551
:1002B00020454550524F4D0046696C616D656E7426
:1002C0000054656D70657261747572650053746574
:1002D00070732F6D6D004A65726B00416363656CCE
:1002E00065726174696F6E0056656C6F63697479CD
:1002F0000053657420486F6D65204F6666736574A2
:100300007300436F6E66696775726174696F6E0022
:100310004D6F76696E672E2E2E004C6576656C6982
:100320006E6720446F6E6521004D6F7665205A0020
:10033000473239205631004E65787420506F696E0F
:1003400074002569202F2025750047323920563149
:1003500000436C69636B20746F20426567696E00AF
:10036000486F6D696E672058595A0053746F7265F3
:100370002053657474696E6773004C6F6164205319
:10038000657474696E6773004F6666004F6E004255
:100390006564204C6576656C696E67004C657665B2
:1003A0006C20426564004D6F74696F6E0042656435
:1003B000004E6F7A7A6C650046616E2053706565F9
:1003C0006400436F6E66696775726174696F6E0071
:1003D000526573746F72652044656661756C7473E1
:1003E000004C6F61642053657474696E67730053C9
:1003F000746F72652053657474696E677300507210
:1004000065686561742041425320436F6E660050F9
:1004100072656865617420504C4120436F6E6600C0
:10042000416476616E6365642053657474696E67B8
:1004300073004D61696E004D3730322054256400E1
:100440004D36303020423020542564004D37303254
:10045000203B2564004D3730312054256400507511
:10046000726765206D6F726500436F6E74696E759B
:100470006500524553554D45204F5054494F4E53FA
:100480003A005052494E54205041555345440020A3
:10049000204E6F7A7A6C653A20005061726B696EFB
:1004A000672E2E2E0000005761697420666F72005F
:1004B00066696C616D656E74206368616E67650066
:1004C000746F207374617274005761697420666F71
:1004D000720066696C616D656E7420756E6C6F611B
:1004E0006400004E6F7A7A6C652068656174696E8D
:1004F0006700506C6561736520776169742E2E2EDC
:100500000000507265737320627574746F6E0074AE
:100510006F2068656174206E6F7A7A6C650000499F
:100520006E736572742066696C616D656E740061CE
:100530006E6420707265737320627574746F6E00E0
:10054000746F20636F6E74696E75650057616974AE
:1005500020666F720066696C616D656E74206C6FE9
:1005600061640000507265737320427574746F6E1D
:1005700000746F20726573756D65207072696E749A
:1005800000005761697420666F72207072696E7422
:1005900000746F20726573756D652E2E2E000057E6
:1005A00061697420666F720066696C616D656E7456
:1005B0002070757267650000313130003A200035D7
:1005C000003A20004245443A4550434F53203130D1
:1005D000304B0052756E61776179205761746368A2
:1005E0003A204F4E004D61782054656D70003236D0
:1005F00030003A20004D696E2054656D7000350062
:100600003A200045313A204550434F532031303095
:100610004B005053550047656E65726963003A2080
:100620000050726F746F636F6C00312E30003A208F
:10063000004261756400313135323030003A2000BB
:1006400052414D505320312E3400332D506F696E7E
:1006500074204C6576656C696E67004578747275B8
:10066000646572730031003A2000687474703A2F28
:100670002F6D61726C696E66772E6F7267005246DD
:1006800031303020584C00323032302D30332D3361
:100690003100322E302E352E33004D61726C696E72
:1006A00000546865726D6973746F727300426F6194
:1006B000726420496E666F005072696E74657220B4
:1006C000496E666F004D61696E003F004261636B69
:1006D0000053746F70004368616E67652046696CF3
:1006E000616D656E74005072656865617420414289
:1006F00053005072656865617420437573746F6D43
:10070000005072656865617420504C41004261631D
:100710006B005072696E742066726F6D204D656457
:100720006961004D3231004368616E6765204D6537
:100730006469610041626F7574205072696E7465FE
:1007400072004D363030204230004368616E67657C
:100750002046696C616D656E7400436F6E666967F3
:1007600075726174696F6E0054656D706572617445
:10077000757265004D6F74696F6E00526573756DAB
:1007800065205072696E74004E6F204D656469611A
:100790000054756E650053746F70205072696E74EA
:1007A000005061757365205072696E7400496E6601
:1007B0006F2053637265656E003F005374617274FD
:1007C000205072696E740043616E63656C005072F4
:1007D000696E740043616E6E6F7420656E7465722D
:1007E000207375626469723A2000052E2E004D61F7
:1007F000696E004D6F74696F6E004D383400446946
:100800007361626C65205374657070657273004229
:100810006564204C6576656C696E67004732380008
:100820004175746F20486F6D65004D61696E0050B1
:1008300072656865617420504C4120456E640050BB
:1008400072656865617420504C41204265640050B7
:100850007265686561742041425320456E640050A2
:10086000726568656174204142532042656400549A
:10087000656D706572617475726500436F6F6C644D
:100880006F776E0050726568656174204142530055
:100890005072656865617420504C41004265640087
:1008A0004E6F7A7A6C65004D61696E0041647661C5
:1008B0006E6365204B00466C6F7700426564004EA6
:1008C0006F7A7A6C65005370656564004D61696E7E
:1008D00000363726033C3D380F2E303E121A1C18C6
:1008E00008440A0943080001627573793A2070616F
:1008F0007573656420666F7220696E7075740A0086
:10090000627573793A2070617573656420666F72E1
:1009100020757365720A00627573793A2070726F80
:1009200063657373696E670A004D31313220536815
:100930007574646F776E0053544F505045442E20A9
:10094000005072696E7465722073746F70706564A4
:100950002064756520746F206572726F72732E202B
:1009600046697820746865206572726F7220616EC6
:100970006420757365204D39393920746F20726594
:1009800073746172742E202854656D706572617481
:100990007572652069732072657365742E205365C6
:1009A0007420697420616674657220726573746165
:1009B0007274696E67290A004E6F20436865636B25
:1009C00073756D2077697468206C696E65206E752B
:1009D0006D6265722C204C617374204C696E653AAF
:1009E00020004E6F20436865636B73756D207769D7
:1009F0007468206C696E65206E756D6265722C205E
:100A00004C617374204C696E653A200063686563BD
:100A10006B73756D206D69736D617463682C204C08
:100A2000617374204C696E653A20004C696E6520D4
:100A30004E756D626572206973206E6F74204C6113
:100A40007374204C696E65204E756D6265722B3132
:100A50002C204C617374204C696E653A20004D3136
:100A600031300053442072656164206572726F7288
:100A70000A002121204B494C4C2063617573656449
:100A8000206279204B494C4C20627574746F6E2F34
:100A900070696E0A002121204B494C4C206361751E
:100AA00073656420627920746F6F206D75636820B0
:100AB000696E6163746976652074696D65202D20A7
:100AC00063757272656E7420636F6D6D616E643AEA
:100AD0002000506C65617365205265736574005029
:100AE00052494E5445522048414C544544002553E8
:100AF0003A202553004B494C4C45442E200050725F
:100B0000696E7465722068616C7465642E206B690F
:100B10006C6C28292063616C6C6564210A000000FC
:100B20004843000048430000484300000000000024
:100B3000000000000000290A002062797465733B00
:100B400020637263200053657474696E6773205369
:100B5000746F726564202800454550524F4D2064E3
:100B600061746173697A65206572726F722E0A0012
:100B7000290A002062797465733B20637263200048
:100B80002073746F7265642073657474696E677323
:100B900020726574726965766564202800457272FA
:100BA0003A20454550524F4D204352430020286380
:100BB000616C63756C6174656429210A0020213DB4
:100BC0002000454550524F4D20435243206D6973DC
:100BD0006D61746368202D202873746F72656429B9
:100BE00020004572723A20454550524F4D20496EC3
:100BF000646578002053697A653A2000496E64651F
:100C0000783A20004572723A20454550524F4D20A7
:100C100056657273696F6E00204D61726C696E3D2E
:100C2000563736290A00454550524F4D2076657299
:100C300073696F6E206D69736D61746368202845F8
:100C40004550524F4D3D0048617264636F64656466
:100C50002044656661756C742053657474696E67B1
:100C600073204C6F616465640A00000096430000C5
:100C700096430000A0410000C841D7A39D42D7A3DE
:100C80009D42000048440000E842F4010000F401E5
:100C9000000064000000102700003B200020204DD1
:100CA00036303320002055004C0046696C616D657C
:100CB0006E74206C6F61642F756E6C6F6164206C54
:100CC000656E677468733A0020204D393030204BD0
:100CD000004C696E65617220416476616E63653AAD
:100CE0000020440020490020204D333031205000A6
:100CF0005049442073657474696E67733A002046E6
:100D00000020420020480020204D3134352053007F
:100D10004D6174657269616C2068656174757020DD
:100D2000706172616D65746572733A0020204D3494
:100D300032302053004175746F20426564204C6549
:100D400076656C696E673A0020204D323036205847
:100D500000486F6D65206F66667365743A00204ABF
:100D60000020530020204D3230352042004164766F
:100D7000616E6365643A20423C6D696E5F736567BE
:100D80006D656E745F74696D655F75733E20533C6D
:100D90006D696E5F66656564726174653E20543C82
:100DA0006D696E5F74726176656C5F6665656472AD
:100DB0006174653E204A3C6A756E635F6465763E89
:100DC0000020540020520020204D323034205000AA
:100DD000416363656C65726174696F6E2028756E1E
:100DE0006974732F7332293A20503C7072696E74A3
:100DF0005F616363656C3E20523C7265747261632F
:100E0000745F616363656C3E20543C747261766507
:100E10006C5F616363656C3E0020204D3230312091
:100E200058004D6178696D756D20416363656C652F
:100E3000726174696F6E2028756E6974732F7332D6
:100E4000293A0020204D3230332058004D61786916
:100E50006D756D20666565647261746573202875B3
:100E60006E6974732F73293A005374657073207020
:100E7000657220756E69743A0020204D3230302042
:100E800044300A0020204D32303020440020446994
:100E90007361626C65640A0046696C616D656E74AD
:100EA0002073657474696E67733A0020204D313485
:100EB000392043203B20556E69747320696E2043AE
:100EC000656C736975730A0020286D6D29002020F8
:100ED000473231202020203B20556E6974732069F1
:100EE0006E206D6D006F70656E0054524947474526
:100EF000524544003A20007A5F6D696E00795F6D5B
:100F0000617800785F6D696E005265706F72746908
:100F10006E6720656E6473746F702073746174758E
:100F2000730A00486F6D696E67204661696C65647D
:100F300000000000000000484300000000000048DE
:100F40004200004842000080405761726E696E673F
:100F50003A20486F6D696E672042756D7020446954
:100F60007669736F72203C20310A0002020400008F
:100F7000A0400000A04000000040000048430000E6
:100F8000484300004843FF01FF000000010000004B
:100F900001000080005555550000004000333333F8
:100FA00000AAAA2A004992240000002000C7711C50
:100FB0000099991900D1451700555515003BB113FB
:100FC000002449120011111100000010000F0F0F32
:100FD00000E3380E0043790D00CCCC0C00C3300C7C
:100FE00000E8A20B0064210B00AAAA0A00703D0AC7
:100FF000009DD80900427B090092240900DCD30837
:1010000000888808001042080000000800F0C107AE
:10101000008787070075500700711C07003EEB062C
:1010200000A1BC06006990060066660600703E06D8
:10103000006118060017F4050074D105005BB005C7
:1010400000B290050062720500555505007839051B
:1010500000B81E0500050505004EEC040087D40409
:1010600000A1BD040090A7040049920400C17D04C2
:1010700000EE690400C7560400444404005C3204D6
:10108000000821040041100400000004003FF003A8
:1010900000F8E0030026D20300C3C30300CCB5036D
:1010A000003AA803000A9B0300388E0300C08103A6
:1010B000009F750300D0690300505E03001D5303B9
:1010C0000034480300913D03003333030016290325
:1010D00000381F030097150300300C0300030303BF
:1010E000000BFA020049F10200BAE802005CE002DB
:1010F000002DD802002DD0020059C80200B0C00255
:101100000031B90200DAB10200AAAA0200A0A302CB
:1011100000BC9C0200FA9502005C8F0200DF88028E
:101120000082820200457C020027760200277002BE
:1011300000436A02007C640200D05E02003F590254
:1011400000C8530200FFFDFCFAF8F6F4F2F0EEECF2
:10115000EAE9E7E5E3E1E0DEDCDAD9D7D5D4D2D0BD
:10116000CFCDCBCAC8C7C5C3C2C0BFBDBCBAB9B753
:10117000B6B4B3B2B0AFADACAAA9A8A6A5A4A2A1BB
:10118000A09E9D9C9A99989795949392908F8E8DFE
:101190008B8A8988878684838281807F7E7D7B7A23
:1011A000797877767574737271706F6E6D6C6B6A27
:1011B000696867666564636261605F5E5D5C5B5A17
:1011C0005958585756555453525150504F4E4D4CF4
:1011D0004B4A4A4948474646454443424241403FBC
:1011E0003E3E3D3C3B3B3A39383837363535343373
:1011F00032323130302F2E2E2D2C2B2B2A2929281C
:10120000272726252524232322212120201F1E1EB7
:101210001D1C1C1B1B1A1919181817161615151446
:10122000131312121111100F0F0E0E0D0D0C0C0BCB
:101230000A0A090908080707060605050404030346
:10124000020201000024F4D43050C38E20C2A24018
:1012500017828B7011127A910D816CD90AA861E105
:1012600008C7586607615143061E4B5D05C145A777
:10127000041A411104093D9803713931034036DBEA
:101280000265339102D4305402802E1D02632CEE8D
:1012900001752AC501B028A001102781018F25649E
:1012A000012B244B01E0223401AC211F018D200DC4
:1012B00001801FFC00841EED00971DDF00B81CD2CA
:1012C00000E61BC600201BBC00641AB200B219A8BD
:1012D000000A19A0006A189900D117910040178BD5
:1012E00000B516840031167E00B31579003A1573E7
:1012F00000C7146F0058146A00EE13660088136369
:101300000025135E00C7125B006C125700151254C3
:1013100000C111510070114F0021114B00D610492E
:10132000008D1047004610440002104200C00F40DC
:1013300000800F3E00420F3C00060F3B00CB0E38F2
:1013400000930E37005C0E3500270E3400F30D328B
:1013500000C10D3100900D3000600D2E00320D2DBA
:1013600000050D2C00D90C2B00AE0C2900850C2992
:10137000005C0C2700350C27000E0C2600E80B241F
:1013800000C40B2400A00B23007D0B23005A0B216B
:1013900000390B2100180B2000F80A1F00D90A1E83
:1013A00000BB0A1E009D0A1D00800A1D00630A1C66
:1013B00000470A1B002C0A1B00110A1A00F7091A21
:1013C00000DD091900C4091900AB091900920917B9
:1013D000007B091800630917004C0916003609162E
:1013E00000200916000A091500F5081500E0081488
:1013F00000CC081400B8081400A4081400900813C6
:10140000007D0812006B08130058081200460812ED
:1014100000340811002308110012081100010811FE
:1014200000F0071000E0071000D0071000C0071000
:1014300000B0070F00A107100091070E0083070FEF
:101440000074070F0065070E0057070E0049070ECE
:10145000003B070D002E070E0020070D0013070D9F
:101460000006070D00F9060C00ED060D00E0060C65
:1014700000D4060C00C8060C00BC060C00B0060C1C
:1014800000A4060B0099060C008D060B0082060BCB
:101490000077060B006C060B0061060A0057060B6E
:1014A000004C060A0042060A0038060A002E060A08
:1014B0000024060A001A060A001006090007060A98
:1014C00000FD050900F4050900EB050900E2050926
:1014D00000D9050900D0050900C7050900BE0509A6
:1014E00000B5050800AD050800A50509009C050824
:1014F00000940508008C050800840508007C050898
:1015000000740508006C050700650508005D050707
:1015100000560508004E050700470507004005086E
:101520000038050700310507002A050700230507D5
:10153000001C050600160507000F05070008050634
:101540000002050700FB040600F5040700EE040690
:1015500000E8040600E2040700DB040600D50406E8
:1015600000CF040600C9040600C3040600BD04063B
:1015700000B7040600B1040500AC040600A604068A
:1015800000A00405009B04060095040500900406D5
:10159000008A04050085040500800406007A04051D
:1015A0000075040500700405006B04050066040561
:1015B00000610405005C04050057040500520405A1
:1015C000004D04050048040500430405003E0404E2
:1015D000003A04050035040500300404002C04051D
:1015E0000027040400230405001E0404001A040458
:1015F0000016040500110404000D0404000904058C
:10160000000404040000040400FC030400F80304C4
:1016100000F4030400F0030400EC030400E80304F6
:1016200000E4030400E0030400DC030400D8030426
:1016300000D4030400D0030400CC030400C8030357
:1016400000C503030024F404D9201BC40C5C0E98CD
:1016500004C4095F0265077101F405F900FB04B3D6
:101660000048048700C1036900580355000303457F
:1016700000BE023A008402310053022A00290225EA
:101680000004022000E4011C00C8011900AF01178A
:101690000098011400840113007101100061011011
:1016A0000051010E0043010D0036010B002B010B10
:1016B0000020010B00150109000C010900030108BD
:1016C00000FB000800F3000800EB000700E4000640
:1016D00000DE000600D8000600D2000600CC00059F
:1016E00000C7000500C2000500BD000400B90004E9
:1016F00000B5000400B1000400AD000400A900041E
:1017000000A5000300A20003009F0004009B00034B
:10171000009800030095000200930003009000036E
:10172000008D0002008B000300880002008600028A
:101730000084000300810002007F0002007D00029F
:10174000007B0002007900020077000100760002B1
:10175000007400020072000100710002006F0002BC
:10176000006D0001006C0002006A000100690002C7
:1017700000670001006600010065000100640002CE
:10178000006200010061000100600001005F0002D2
:10179000005D0001005C0001005B0001005A0001D7
:1017A00000590001005800010057000100560001D7
:1017B00000550001005400010053000000530001D7
:1017C000005200010051000100500001004F0001D3
:1017D000004E0000004E0001004D0001004C0001D1
:1017E000004B0000004B0001004A000100490001CD
:1017F00000480000004800010047000100460000CA
:1018000000460001004500000045000100440001C1
:1018100000430000004300010042000000420001BC
:10182000004100000041000100400001003F0000B5
:10183000003F0001003E0000003E0001003D0000AE
:10184000003D0001003C0000003C0000003C0001A5
:10185000003B0000003B0001003A0000003A00019C
:101860000039000000390001003800000038000095
:10187000003800010037000000370001003600008A
:101880000036000000360001003500000035000081
:101890000035000100340000003400000034000175
:1018A000003300000033000000330001003200006C
:1018B0000032000000320001003100000031000061
:1018C0000031000100300000003000000030000155
:1018D000002F0000002F0000002F0000002F00014B
:1018E000002E0000002E0000002E0001002D000040
:1018F000002D0000002D0000002D0001002C000034
:10190000002C0000002C0000002C0001002B000027
:10191000002B0000002B0000002B0001002A00001B
:10192000002A0000002A0000002A0001002900000F
:101930000029000000290000002900000029000102
:1019400000280000002800000028000000280000F7
:1019500000280001002700000027000000270000E9
:1019600000270000002700010026000000260000DC
:1019700000260000002600000026000100250000CF
:1019800000250000002500000025000000250000C3
:1019900000250001002400000024000000240000B5
:1019A00000240000002400010023000000230000A8
:1019B000002300000023000000230000002300009B
:1019C000002300010022000000220000002200008D
:1019D000002200000022000000220001002100007F
:1019E0000021000000210000002100000021000073
:1019F0000021000000210001002000000020000064
:101A00000020000000200000002000000020000056
:101A10000020000000200001001F0000001F000047
:101A2000001F0000001F0000001F0000001F00003A
:101A3000001F0001001E0000001E0000001E00002C
:101A4000001E000000232C0000B8220000561800E1
:101A5000003A0F0000B8080000B104000071020055
:101A6000003E01000020436F756E7420583A00005C
:101A700042656400453100626564002C207379730F
:101A800074656D2073746F707065642120486561A2
:101A90007465725F49443A200048656174696E67F5
:101AA000204661696C65640048656174696E6720F1
:101AB0006661696C656400544845524D414C205242
:101AC000554E4157415900546865726D616C205202
:101AD000756E6177617900434F4D4D554E494341D5
:101AE00054494F4E0044525952554E004552524FA0
:101AF000525300494E464F004543484F00656368C6
:101B00006F3A004572726F723A00486F74656E6486
:101B100020746F6F20636F6C640A000A0A42656468
:101B2000204C6576656C20436F7272656374696FD3
:101B30006E204D61747269783A00332D706F696E52
:101B4000742070726F62696E6720646F6E652E0A12
:101B50000069646C650A00206F662000706F696E12
:101B60007420004D616E75616C2047323920004D44
:101B7000616E75616C204732392061626F727465E5
:101B8000640A00202844525952554E2900473239E0
:101B9000204175746F20426564204C6576656C69E0
:101BA0006E67003F2856296572626F7365206C6509
:101BB00076656C20696D706C61757369626C652007
:101BC00028302D34292E0A004D3630303A20546FFB
:101BD0006F20436F6C6400486F74656E6420746F8F
:101BE0006F20636F6C640A00496E736572742066BF
:101BF000696C616D656E7420616E642070726573CE
:101C00007320627574746F6E0A005072657373206E
:101C1000627574746F6E20746F2068656174206ED5
:101C20006F7A7A6C650A00496E7365727420666912
:101C30006C616D656E7420616E6420707265737383
:101C400020627574746F6E0A0020496E76616C694B
:101C500064206578747275646572200020746F6FFB
:101C6000206C6F6E6720657874727573696F6E2073
:101C700070726576656E7465640A0020636F6C64CB
:101C800020657874727573696F6E20707265766501
:101C90006E7465640A0047322F4733206261642006
:101CA000706172616D65746572730A00536C65656D
:101CB000702E2E2E00436C69636B20746F2052656A
:101CC00073756D652E2E2E004E6F204D6F76652E2E
:101CD00000456E642066696C65206C6973740A0047
:101CE000426567696E2066696C65206C6973740A69
:101CF00000286E6F2066696C6529004375727265F5
:101D00006E742066696C653A2000534420707269D5
:101D10006E74696E67206279746520004E6F74205E
:101D20005344207072696E74696E670A002E0A004F
:101D300044656C6574696F6E206661696C65642CBE
:101D40002046696C653A200046696C652064656CC4
:101D5000657465643A002569730025696D202569FD
:101D600073002569682025696D2025697300256940
:101D700064202569682025696D202569730025691F
:101D80007920256964202569682025696D202569E9
:101D900073005072696E742074696D653A20004951
:101DA0006E76616C69642050696E204D6F64650ABF
:101DB00000436F6F6C696E672E2E2E00486561744C
:101DC000696E672E2E2E0045202553006F6B006F25
:101DD000666600F81AF31AEC1AE51AD71A44454257
:101DE00055473A004D31313320530020573A0042D5
:101DF000656420436F6F6C696E672E2E2E004265FE
:101E0000642048656174696E672E2E2E005246313B
:101E1000303020584C204F46462E004348414D421A
:101E200045525F54454D5045524154555245004D21
:101E30004F54494F4E5F4D4F44455300544845520F
:101E40004D414C5F50524F54454354494F4E004111
:101E500055544F5245504F52545F53445F53544171
:101E60005455530050524F4D50545F535550504F9E
:101E7000525400454D455247454E43595F504152DB
:101E800053455200434153455F4C494748545F42D4
:101E900052494748544E45535300544F47474C45C9
:101EA0005F4C494748545300534F4654574152459D
:101EB0005F504F574552004255494C445F50455280
:101EC00043454E54004C4556454C494E475F4441AE
:101ED0005441005A5F50524F4245004155544F4CB7
:101EE0004556454C005052494E545F4A4F420050AF
:101EF000524F4752455353004155544F5245504F4E
:101F000052545F54454D5000564F4C554D45545218
:101F1000494300454550524F4D0042494E415259A8
:101F20005F46494C455F5452414E5346455200531B
:101F3000455249414C5F584F4E5F584F4646004608
:101F400049524D574152455F4E414D453A4D6172A0
:101F50006C696E20322E302E352E3320284769745E
:101F60004875622920534F555243455F434F4445BE
:101F70005F55524C3A68747470733A2F2F676974C6
:101F80006875622E636F6D2F4D61726C696E466964
:101F9000726D776172652F4D61726C696E2050525F
:101FA0004F544F434F4C5F56455253494F4E3A3171
:101FB0002E30204D414348494E455F545950453AD3
:101FC000524631303020584C2045585452554445E3
:101FD000525F434F554E543A3120555549443A6368
:101FE000656465326132662D343161322D343734A7
:101FF000382D396231322D633535633632663336EA
:102000003766660A002F2F20004D31343520533CAF
:10201000696E6465783E206F7574206F662072610A
:102020006E67652028302D31290A00205200416357
:1020300063656C65726174696F6E3A2050003F4A47
:10204000206F7574206F662072616E67652028307E
:102050002E303120746F20302E33290A0020580092
:1020600020204D61783A2000200020204D696E3AF2
:102070002000536F667420656E6473746F70733ADA
:10208000200046523A0020466C6F773A200050728A
:102090006F7465637465642050696E0A0020643A49
:1020A0000020693A0020703A00496E76616C6964DC
:1020B0002065787472756465720A006469730065DE
:1020C0006E0043290A0061626C656420286D696EA8
:1020D0002074656D702000436F6C642065787472A5
:1020E000756465732061726520004F4646004F4E4F
:1020F00000426564204C6576656C696E6720004619
:1021000061696C656420746F20656E61626C652026
:10211000426564204C6576656C696E670A004265AD
:1021200064204C6576656C20436F727265637469D8
:102130006F6E204D61747269783A004F6666736500
:102140007473204170706C696564004572723A2046
:10215000546F6F206661722100546F6F2066617248
:102160002066726F6D207265666572656E636520AC
:10217000706F696E740A00454550524F4D204F4BA9
:102180000A002E0A002028302D31302900207661E7
:102190006C7565206F7574206F662072616E67655F
:1021A00000416476616E6365204B3D00446F6E654F
:1021B000207072696E74696E672066696C650A00CA
:1021C0004D3737004D333100496E76616C696420BC
:1021D00065787472756465720A00220A00656E7112
:1021E00075657565696E672022006F6B00526573B7
:1021F000656E643A20004361703A00236465666945
:102200006E652044454641554C545F004B642000A8
:102210004B6920004B702000504944204175746F79
:1022200074756E652066696E6973686564212050F7
:10223000757420746865206C617374204B702C2059
:102240004B6920616E64204B6420636F6E73746110
:102250006E74732066726F6D2062656C6F77206993
:102260006E746F20436F6E66696775726174696F13
:102270006E2E680A00504944204175746F74756E63
:1022800065206661696C6564212074696D656F7590
:10229000740A00504944204175746F74756E65204E
:1022A0006661696C6564212054656D706572617446
:1022B00075726520746F6F20686967680A00204B2B
:1022C000643A2000204B693A2000204B703A2000ED
:1022D0000A20436C617373696320504944200A00EB
:1022E0002054753A2000204B753A2000206D61780B
:1022F0003A2000206D696E3A200020643A200020C8
:10230000626961733A2000504944204175746F74CA
:10231000756E652073746172740A005049442041DF
:1023200075746F74756E65206661696C65642120D3
:1023300054656D706572617475726520746F6F207D
:10234000686967680A00504944204175746F747564
:102350006E65206661696C65642120426164206558
:1023600078747275646572206E756D6265720A00AC
:102370004572726F722077726974696E6720746F2C
:1023800020454550524F4D210A002568753A2530A9
:102390003268750025303268753A2530326875002C
:1023A0002D2D2D005344002020202020202000200F
:1023B000202020004D656469612052656D6F76654F
:1023C00064004D6564696120496E7365727465646B
:1023D000005072696E742041626F72746564004DC2
:1023E0003235005061757365205072696E7400A1BA
:1023F0000000006900A20000006300B000000009B6
:1024000000C10000004100C20000004100C3000004
:10241000004100C40000004100C50000004100C6AA
:102420000000004145C70000004300C8000000450F
:1024300000C90000004500CD0000004900D10000A7
:10244000004E00D50000004F00D60000004F00D71E
:102450000000007800DC0000005500DD000000599D
:1024600000E00000006100E10000006100E2000007
:10247000006100E30000006100E40000006100E58D
:102480000000006100E60000006165E700000063F5
:1024900000E80000006500E90000006500EA0000B7
:1024A000006500EB0000006500EC0000006900ED35
:1024B0000000006900EE0000006900EF0000006904
:1024C00000F10000006E00F20000006F00F3000059
:1024D000006F00F40000006F00F50000006F00F6D0
:1024E0000000006F00F80000006F00F900000075A8
:1024F00000FA0000007500FB0000007500FC000001
:10250000007500FD0000007900FF00000079000464
:1025100001000041000501000061000601000043C8
:10252000000701000063000C01000043000D0100E2
:102530000063000E01000044000F01000064001160
:1025400001000064001901000065001F0100006720
:102550000030010000490031010000690041010024
:10256000004C00420100006C00430100004E00449A
:102570000100006E00480100006E00590100007269
:10258000005A01000053005B01000073005F01006E
:1025900000730060010000530061010000730065DA
:1025A00001000074006F01000075007C0100007ADA
:1025B000007D0100005A007E0100007A00920100B7
:1025C000006600E30200007800222000002E001EBA
:1025D000210000507822210000544D902100003C41
:1025E0002D922100002D3EB02100000300BB2100F0
:1025F0000004003C2200007E00482200007E3D6076
:10260000220000213D612200003D00642200003CC8
:102610003D652200003E3DF12300000700A0300090
:10262000003D0021F301000200C2F401000500A2F8
:10263000000000EC00B0000000DF00E4000000E15A
:1026400000F6000000EF00F7000000FD00FC0000B5
:1026500000F500E3020000EB0087030000A5008FF7
:10266000030000F40098030000F2009E030000E362
:1026700000A3030000F600A9030000F400AC03006F
:1026800000E000AD030000E300B1030000E000B291
:10269000030000E200B5030000E300B8030000F20D
:1026A00000BC030000E400BE030000E300C0030020
:1026B00000F700C1030000E600C3030000E500903E
:1026C0002100007F00922100007E001A220000E815
:1026D000001E220000F30088250000FF00023000E9
:1026E00000A1000C300000A2000D300000A3009BF0
:1026F000300000DE009C300000DF00A03000003D14
:1027000000A1300000A700A2300000B100A33000FB
:1027100000A800A4300000B200A5300000A900A667
:10272000300000B300A7300000AA00A8300000B4B9
:1027300000A9300000AB00AA300000B500AB3000AB
:1027400000B600AC300000B6DEAD300000B700AE21
:10275000300000B7DEAF300000B800B0300000B885
:10276000DEB1300000B900B2300000B9DEB3300095
:1027700000BA00B4300000BADEB5300000BB00B6CD
:10278000300000BBDEB7300000BC00B8300000BC39
:10279000DEB9300000BD00BA300000BDDEBB300045
:1027A00000BE00BC300000BEDEBD300000BF00BE79
:1027B000300000BFDEBF300000C000C0300000C0ED
:1027C000DEC1300000C100C2300000C1DEC33000F5
:1027D00000AF00C4300000C200C5300000C2DEC639
:1027E000300000C300C7300000C3DEC8300000C4A2
:1027F00000C9300000C4DECA300000C500CB300084
:1028000000C600CC300000C700CD300000C800CEAC
:10281000300000C900CF300000CA00D0300000CA2C
:10282000DED1300000CADFD2300000CB00D3300050
:1028300000CBDED4300000CBDFD5300000CC00D69A
:10284000300000CCDED7300000CCDFD8300000CD27
:1028500000D9300000CDDEDA300000CDDFDB300003
:1028600000CE00DC300000CEDEDD300000CEDFDE4A
:10287000300000CF00DF300000D000E0300000D199
:1028800000E1300000D200E2300000D300E330006D
:1028900000AC00E4300000D400E5300000AD00E6FC
:1028A000300000D500E7300000AE00E8300000D670
:1028B00000E9300000D700EA300000D800EB30001B
:1028C00000D900EC300000DA00ED300000DB00EF52
:1028D000300000DC00F2300000A600F3300000DD24
:1028E00000F4300000B3DEF7300000DCDEFA300028
:1028F00000A6DEFB300000A500FC300000B000FDAB
:10290000300000A400074E0000FB0086510000FCD0
:102910000043530000FA0064FF0000A40065FF00BC
:1029200000A50066FF0000A60067FF0000A7006882
:10293000FF0000A80069FF0000A9006AFF0000AACC
:10294000006BFF0000AB006CFF0000AC006DFF00EF
:1029500000AD006EFF0000AE006FFF0000AF007022
:10296000FF0000B00071FF0000B10072FF0000B274
:102970000073FF0000B30074FF0000B40075FF0097
:1029800000B50076FF0000B60077FF0000B70078C2
:10299000FF0000B80079FF0000B9007AFF0000BA1C
:1029A000007BFF0000BB007CFF0000BC007DFF003F
:1029B00000BD007EFF0000BE007FFF0000BF008062
:1029C000FF0000C00081FF0000C10082FF0000C2C4
:1029D0000083FF0000C30084FF0000C40085FF00E7
:1029E00000C50086FF0000C60087FF0000C7008802
:1029F000FF0000C80089FF0000C9008AFF0000CA6C
:102A0000008BFF0000CB008CFF0000CC008DFF008E
:102A100000CD008EFF0000CE008FFF0000CF0090A1
:102A2000FF0000D00091FF0000D10092FF0000D213
:102A30000093FF0000D30094FF0000D40095FF0036
:102A400000D50096FF0000D60097FF0000D7009841
:102A5000FF0000D80099FF0000D9009AFF0000DABB
:102A6000009BFF0000DB009CFF0000DC009DFF00DE
:102A700000DD009EFF0000DE009FFF0000DF00E59C
:102A8000FF00005C000000000001020404000000E0
:102A90001C1C0C04040402010000000000040810C7
:102AA00000000000002D2D2D2D2D2D007C4D61727C
:102AB0006C696E7C002D2D2D2D2D2D00001C1F11FD
:102AC000111F00000006191803130C00040E1F0448
:102AD0001C000000000E1315110E00001C1018172A
:102AE00005060500040A0A0A0A11110E0C12120C3E
:102AF00000000000001F1511151F00004C6F6164DD
:102B0000206D6D00556E6C6F6164206D6D004669BF
:102B10006C2E204469612E004520696E206D6DC2C7
:102B2000B300416476616E6365204B004D333033F2
:102B300020553120452569205325690050494420FE
:102B40004175746F74756E65202A002002204661FD
:102B50006374002002204D6178002002204D696ED0
:102B6000004F6666004F6E004175746F74656D703E
:102B7000005654726176204D696E00566D696E0084
:102B8000566D6178204500566D6178205A00566D6B
:102B90006178205900566D6178205800416D617848
:102BA000204500416D6178205A00416D61782059BF
:102BB00000416D6178205800412D54726176656C3A
:102BC00000412D5265747261637400416363656CEA
:102BD000004A756E6374696F6E20446576004573B4
:102BE000746570732F6D6D005A73746570732F6DFB
:102BF0006D005973746570732F6D6D005873746533
:102C000070732F6D6D00416476616E63656420534F
:102C1000657474696E6773005072696E74205061D8
:102C2000757365640070012C0190012701B00122C9
:102C300001C0011D01F00118011002130130020E44
:102C4000016002090190020401C002FF000003FAC2
:102C5000004003F5008003F000D003EB002004E601
:102C6000007004E100E004DC004005D700C005D29C
:102C7000004006CD00D006C8008007C3003008BE63
:102C800000F008B900C009B400B00AAF00B00BAA48
:102C900000D00CA500000EA000500F9B00C01096A5
:102CA000005012910000148C00C0158700B01782EC
:102CB00000B0197D00D01B7800001E730040206E0C
:102CC0000090226900F024640040275F0090295A98
:102CD00000E02B5500102E500020304B00103246E3
:102CE00000E033410090353C001037370070383237
:102CF00000A0392D00B03A2800A03B2300603C1E04
:102D000000103D1900903D1400103E0F00703E0A67
:102D100000C03E0500003F0000403FFBFF803FF643
:102D2000FFC03FF1FF4572723A204D415854454D66
:102D300050004D415854454D502074726967676585
:102D4000726564004572723A204D494E54454D50AB
:102D5000004D494E54454D50207472696767657245
:102D60006564004D383420582059205A20450020F1
:102D70002F002042403A0020403A0020573A0043BA
:102D8000616E6E6F74206F70656E2073756264691A
:102D900072200053442063617264206F6B0A006FDD
:102DA00070656E526F6F74206661696C65640A00AD
:102DB000766F6C756D652E696E6974206661696CDD
:102DC00065640A00534420696E6974206661696C09
:102DD0000A004D3234004D32332025730046696CB1
:102DE000652073656C65637465640A002053697AB5
:102DF000653A200046696C65206F70656E65643ABF
:102E00002000454E4420535542524F5554494E459B
:102E10000A002220706F73002220706172656E7448
:102E20003A2200535542524F5554494E4520434192
:102E30004C4C207461726765743A2200747279692F
:102E40006E6720746F2063616C6C207375622D67F0
:102E5000636F64652066696C6573207769746820A8
:102E6000746F6F206D616E79206C6576656C732E62
:102E7000204D4158206C6576656C2069733A310AA3
:102E80000057726974696E6720746F2066696C659B
:102E90003A20002E0A006F70656E206661696C65CD
:102EA000642C2046696C653A200066726573680080
:102EB000646F696E67002066696C653A20004E6F2A
:102EC0007720007C3C3E5E2B3D3F2F5B5D3B2C2AF8
:102ED000225C0000002100240027002A002D003081
:102EE00000330001010000040107010A0100002273
:102EF00000250028002B002E0031003400020100C4
:102F000000050108010B0100002000230026002914
:102F1000002C002F0032000001000003010601090F
:102F20000105050505070508080808020202020A4E
:102F30000A0808040404040101010101010101035C
:102F400003030303030303040707070C0C0C0C0C17
:102F50000C0C0C0202020206060606060606060B0A
:102F60000B0B0B0B0B0B0B01021020200808102081
:102F70004010204080020102010804020101020405
:102F800008102040808040201008040201800402C4
:102F9000018040201008040201080402010102041B
:102FA0000810204080010204081020408000000A20
:102FB0000B02090C0D0E08070304010000000000BD
:102FC0000000000000000000000000000000000001
:102FD00000000000000000000012111000000000BE
:102FE00000000000000000000000000000000000E1
:102FF000000000687474703A2F2F6D61726C696EF6
:1030000066772E6F726700687474703A2F2F6D6147
:10301000726C696E66772E6F726700687474703AAE
:103020002F2F6D61726C696E66772E6F726700323A
:103030002E302E352E3300322E302E352E330032E8
:103040002E302E352E3300687474703A2F2F6D6138
:10305000726C696E66772E6F726700687474703A6E
:103060002F2F6D61726C696E66772E6F72670068C4
:103070007474703A2F2F6D61726C696E66772E6F63
:1030800072670020322E302E352E33002020506CF7
:10309000616E6E65724275666665724279746573BB
:1030A0003A20002046726565204D656D6F72793A51
:1030B0002000436F6D70696C65643A204A756E201C
:1030C000203420323032300A00204C617374205595
:1030D0007064617465643A20323032302D30332DA3
:1030E0003331207C20417574686F723A20286E6FEE
:1030F0006E652C2064656661756C7420636F6E6606
:103100006967290A00322E302E352E330A004D61B0
:10311000726C696E0020536F66747761726520521D
:10312000657365740A00205761746368646F672073
:1031300052657365740A002042726F776E206F7556
:10314000742052657365740A002045787465726E48
:10315000616C2052657365740A00506F7765725513
:10316000700A0073746172740A006175746F25636C
:103170002E67004732385859004D313030310065E4
:1031800072726F722077726974696E6720746F2033
:1031900066696C650A00446F6E6520736176696EBE
:1031A000672066696C652E0A004D323900456E64F1
:1031B00073746F70730025532025632025632025C9
:1031C0006320256300205A3A0020593A0020583ADB
:1031D00000656E6473746F7073206869743A2000C0
:1031E0004D6F76652025736D6D00004D6F766520FF
:1031F000302E316D6D004D6F766520316D6D004D57
:103200006F76652031306D6D004D6F7665204178A9
:10321000697300486F74656E6420746F6F20636F0C
:103220006C64004578747275646572004D6F7665E4
:10323000205A004D6F76652059004D6F76652058F5
:10324000005072696E742066726F6D204D656469FE
:103250006100220A00556E6B6E6F776E20636F6D92
:103260006D616E643A202200204500205A002059EA
:1032700000204D3932205800486F6D652025732598
:103280007325732046697273740020453A00205AF2
:103290003A0020593A00583A0020746F6F206C6F42
:1032A0006E6720657874727573696F6E20707265D1
:1032B00076656E7465640A0020636F6C64206578BF
:1032C00074727573696F6E2070726576656E746561
:1032D000640A002E0A006F70656E206661696C6575
:1032E000642C2046696C653A20005246313030200B
:1032F000584C2052656164792E005072696E746971
:103300006E672E2E2E004AEFADF611241FBECFEFB2
:10331000D1E2DEBFCDBF00E00CBF13E0A0E0B2E021
:10332000E6EBFAE002E00BBF02C007900D92AE366A
:10333000B107D9F724E1AEE6B3E001C01D92A23C8B
:10334000B207E1F719E1C4E8D9E100E006C021972E
:103350000109802FFE010F94BD04C338D10780E01E
:103360000807A9F70E9431F00D944A050C9400005B
:10337000EF92FF920F931F93E0923E04F0923F046E
:1033800000934004109341046093420470934304FB
:10339000809344049FEFFF27621B730B840B30F470
:1033A000809570956195790B890B99279093AA0563
:1033B000A6E06A9F00929E05512DEE277A9F500D40
:1033C000E11D8A9FE00D50939F05E093A005AFE0BB
:1033D0006A9F0092A205512DEE277A9F500DE11DA4
:1033E0008A9FE00D5093A305E093A405AAE06A9F8D
:1033F0000092A605512DEE277A9F500DE11D8A9F60
:10340000E00D5093A705E093A8051F910F91FF9041
:10341000EF9008959F92AF92BF92CF92DF92EF927A
:10342000FF920F931F93CF93DF9300D01F921F92B1
:10343000CDB7DEB7E5E4F1E10027BB27462F572FD4
:10344000A82FAA2341F4A52F542FB85FAA2319F45B
:10345000A52F5527B85FA03138F45295A295452F76
:103460004F70507FA42BBC5FA03428F4550FAA1FC7
:10347000550FAA1FBE5FA03818F4550FAA1FB395A9
:10348000550FAA1FEA0FF01F449151E0AA27B85028
:1034900079F1C0F0B0FF02C0440F551FB1FF04C066
:1034A000440F551F440F551FB2FF06C05295429559
:1034B000142F1F70407F512BB3FF1AC0A52F542F1C
:1034C000442716C0B195B0FF02C055954795B1FF8E
:1034D00004C05595479555954795B2FF05C052953F
:1034E000407F4295452B5F70B3FF02C0452F5527A3
:1034F000DD24CC24BB24B2E0649FD018C108B00AFC
:10350000B00B749FC018B108B00B849FB018B109FC
:10351000659FC018B108B00B759FB018B109859FA1
:10352000B0196A9FB018B1097A9FB0194D9DA12CAE
:1035300099243327992722275D9DA00C911C301FC9
:10354000901F201FAD9D900C311D901F201F4C9D82
:10355000A00C911C301F901F201F5C9D900C311DF2
:10356000901F201FAC9D300D911D201F4B9D900C76
:10357000311D901F201F5B9D300D911D201FAB9DA5
:10358000900D211D4B9F300D911D201F5B9F900DB5
:10359000211DAB9F200DB1E0BB24CC24DD24639F13
:1035A000D018C108B00AB00B739FC018B108B00B97
:1035B000839FB018B109699FC018B108B00B799FFB
:1035C000B018B109899FB019629FB018B109729FF4
:1035D000B019D61AC70AB80A20F0B1E03B0F901F05
:1035E000201F1124792F632F90E0822F0F900F90CE
:1035F0000F900F900F90DF91CF911F910F91FF903F
:10360000EF90DF90CF90BF90AF909F900895CF92B2
:10361000DF92EF92FF9280913404882309F457C01F
:10362000C0903904D0903A04E0903B04F0903C0400
:1036300020E030E0A901C701B6010E943BFB8823CE
:1036400009F445C020E030E040E05FE3C701B60187
:103650000E94A0FB9B01AC010E94A0FB2BED3FE070
:1036600049E450E40E94A0FB9B01AC0160E070E0E3
:1036700080E89FE30F947D026B017C01C0923504CA
:10368000D0923604E0923704F0923804609126021A
:1036900070912702072E000C880B990B0E9441FBAA
:1036A0002AE037ED43E25CE30E94A0FBA70196010C
:1036B0000E94A0FB60936302709364028093650292
:1036C00090936602FF90EF90DF90CF900895C12C09
:1036D000D12C80E8E82E8FE3F82ED0CF2F923F92A6
:1036E0004F925F926F927F928F929F92AF92BF9212
:1036F000CF92DF92EF92FF920F931F93CF93DF93BE
:10370000CDB7DEB72C970FB6F894DEBF0FBECDBF96
:103710009C878B878B011A013E832D83D9018D9164
:103720009D910D90BC91A02D89839A83AB83BC831E
:10373000FA01C080D180E280F380DB018D909D9002
:10374000AD90BC90EB85FC85248135814681578105
:10375000C501B4010E94A0FB2B013C01AB85BC85D7
:1037600050962D913D914D915C915397C701B601B3
:103770000E94A0FB9B01AC01C301B2010F94A10107
:103780002B013C01EB85FC85248D358D468D578DB5
:1037900069817A818B819C810E94A0FB9B01AC0195
:1037A000C301B2010F94A1016F83788789879A873B
:1037B000AB85BC8518962D913D914D915C911B97E1
:1037C000C501B4010E94A0FB2B013C01EB85FC85E7
:1037D0002489358946895789C701B6010E94A0FB13
:1037E0009B01AC01C301B2010F94A1012B013C016B
:1037F000AB85BC8590962D913D914D915C919397B1
:1038000069817A818B819C810E94A0FB9B01AC0124
:10381000C301B2010F94A1012B013C01EB85FC8592
:103820002081318142815381C501B4010E94A0FBF6
:103830004B015C01AB85BC851C962D913D914D9152
:103840005C911F97C701B6010E94A0FB9B01AC01D0
:10385000C501B4010F94A1016B017C01EB85FC85CE
:10386000208D318D428D538D69817A818B819C8130
:103870000E94A0FB9B01AC01C701B6010F94A101FE
:10388000D8016D937D938D939C9313978F81988529
:10389000A985BA85F10180839183A283B383AD8129
:1038A000BE814D925D926D927C9213972C960FB6CD
:1038B000F894DEBF0FBECDBFDF91CF911F910F9166
:1038C000FF90EF90DF90CF90BF90AF909F908F9040
:1038D0007F906F905F904F903F902F9008958F92C0
:1038E0009F92AF92BF92CF92DF92EF92FF92FC0134
:1038F000C080D180E280F38020E030E048EC52E4E8
:10390000C701B6010E94A0FB4B015C0120E030E042
:10391000A901C701B6010E943BFB20E030E040EA6C
:1039200050E487FF04C020E030E040EA50ECC501DD
:10393000B4010F94A10120E030E040E251E40F9483
:103940007D020F94E5029B018BE237FF05C0222721
:103950003327261B370B8DE280937B03C90168EE6A
:1039600073E00F948E04CB01EAE0F0E0BF010F9406
:103970008E04805D80937C03C90164E670E00F943F
:103980008E04CB01BF010F948E04805D80937D0374
:10399000C901BF010F948E04282FCB01BF010F94E2
:1039A0008E04805D80937E038EE280937F03205D92
:1039B000209380038BE793E0FF90EF90DF90CF9010
:1039C000BF90AF909F908F90089560912602709164
:1039D0002702072E000C880B990B0E9441FB2AE05E
:1039E00037ED43E25CE30E94A0FB20913504309167
:1039F000360440913704509138040E94A0FB609334
:103A00006302709364028093650290936602089546
:103A10008091DB118823C1F081508093DB11E8E6AF
:103A2000F0E1882351F08150990B2BE1289FF001A0
:103A3000299FF00D1124E353FF4E8BE1ADE4B0E17B
:103A400001900D928A95E1F72091DB11211105C0BB
:103A50008091E51180628093E51181E090E0A0E023
:103A6000B0E0211103C080E090E0DC018093740895
:103A700090937508A0937608B093770810926C081D
:103A800081E08093840883E08093510208950C9430
:103A900038D70C9438D7CF93DF93C0914F06D0918D
:103AA0005006209729F160914B0670914C06809149
:103AB0004D0690914E060F94E5026E5F7F4F24975E
:103AC0006C177D07ACF470939105609390050E948C
:103AD0002CD7605A75418F4F9F4F6093920570931A
:103AE00093058093940590939505DF91CF91089568
:103AF00010929205109293051092940510929505DC
:103B0000F4CFCF92DF92EF92FF92CF93C82F0E9413
:103B10002CD76B017C0124EA30E74DE75FE360912D
:103B200058047091590480915A0490915B040E944A
:103B30003BFB87FD18C08AEF90E0A0E0B0E08C0D61
:103B40009D1DAE1DBF1D8093740390937503A093BC
:103B50007603B0937703C0930102CF91FF90EF906B
:103B6000DF90CF90089580E090E0DC01E8CFCF9324
:103B7000C82FCB010E94319484EF9EE00E943194C3
:103B800085EE9EE0CC2311F08AEE9EE00E943194F7
:103B90008AE0CF910C94CD870F931F93CF9381111F
:103BA00013C0C42F8B010E94D09C8AE99CE00E9424
:103BB0003194C8010E943194CC2331F08AE0CF9136
:103BC0001F910F910C94CD87CF911F910F91089564
:103BD000CF92DF92EF92FF920F931F93C12CD12CC3
:103BE00076018C012FE532E04BE552E067E572E0AB
:103BF00083E592E00E9417CE1F910F91FF90EF9006
:103C0000DF90CF90089521E02093780360935804CB
:103C10007093590480935A0490935B0420E040E031
:103C200070E060E080916D0890916E080C9443788C
:103C30006DEC7CEC8CEC9CE3E6CF6DEC7CEC8CECDE
:103C40009DE3E1CF60E070E080E89FE3DCCF60E0DF
:103C500070E080E291E4D7CF81E080937803109206
:103C60009B0820E040E070E060E088E190E20E9484
:103C700043788CE198E09093D7068093D606089518
:103C800020E040E070E060E082E492E20E9443784D
:103C900081E0809370038AE493E09093D706809349
:103CA000D606089566E67EE183E00C948AEC6BEF1D
:103CB00078E482E00C948AEC6FEF78E481E00C9475
:103CC0008AEC63E079E480E00C948AECCF93DF9394
:103CD00000D01F92CDB7DEB780916F0810926F08A9
:103CE000882359F0109278030E9487780F900F90E4
:103CF0000F900F90DF91CF910895609174087091AB
:103D00007508809176089091770861157105810595
:103D1000910559F10E9441FB2091580430915904BA
:103D200040915A0450915B040E94A0FB20915F02D5
:103D30003091600240916102509162020F94A101A2
:103D400060935F02709360028093610290936202BD
:103D500083E0D7DE81E080935102109274081092C4
:103D60007508109276081092770880915102882386
:103D700009F4BCCF20916708309168084091690828
:103D800050916A0860915F027091600280916102B7
:103D9000909162020F94A00169837A838B839C8344
:103DA000CE0101969CDDBC0183E292E30E94A47CDB
:103DB0009DCFCF92DF92EF92FF920F931F93CF93FD
:103DC000DF93CDB7DEB7CDB6DEB680917F0F62E769
:103DD0007FE0882311F06FE77FE0FB010190002076
:103DE000E9F7CF01861B970B01962DB73EB7281B2D
:103DF000390B0FB6F8943EBF0FBE2DBF0DB71EB7DF
:103E00000F5F1F4F80E2EDB7FEB78183C8010196B7
:103E10000F941B0589EBE82E87E0F82E2BEB37E09B
:103E200048E55FE167EC77E08EEC97E00E943AD3DB
:103E30000FB6F894DEBE0FBECDBEDF91CF911F91BD
:103E40000F91FF90EF90DF90CF900895EF92FF9247
:103E50000F931F938AECE82E86E0F82E10E000E026
:103E600026E937E049E559E76CEC76E081ED96E02C
:103E70000E943AD31F910F91FF90EF900895EF9217
:103E8000FF920F931F9383E9E82E82E0F82E10E053
:103E900000E026EA32E040E256E765E972E08CE9AC
:103EA00092E00E943AD31F910F91FF90EF900895F6
:103EB00082E79FE00E9435E10E9480780C941BBD50
:103EC000BF92CF92DF92EF92FF920F931F93CF9307
:103ED000DF9361E081E00E943376C0916C0884E05A
:103EE000D82EDC0E81E009E614E0D2E0DC1B9EE572
:103EF000E92E94E0F92EC82ECC1ABC2EB194C11133
:103F000031C08823D9F080916B081816BCF040911D
:103F100074085091750860917608709177084F5F2A
:103F20005F4F6F4F7F4F40937408509375086093B5
:103F30007608709377088F5F80936B0880915102A9
:103F4000882341F030E020E041E062E774E08B2D0F
:103F50000E94BA7BCF5F80E0DC12D1CF83E08093F8
:103F600066081FC0C13039F590916B08913069F037
:103F700080915102882371F31F92FF92EF92CF92AA
:103F800081E0913049F180E027C080916F08109264
:103F90006F08882369F3C093720380918408882393
:103FA00039F3DF91CF911F910F91FF90EF90DF9048
:103FB000CF90BF900895C23069F690916B0892300F
:103FC000A1F080915102882329F21F921F930F9331
:103FD000DF9381E09230B9F68F930E94887B0F9037
:103FE0000F900F900F900F90B5CF80916F081092A7
:103FF0006F08882331F3C09372038091840888236B
:1040000001F3CFCF80915102882341F030E020E0CE
:1040100041E061E573E081E00E94BA7B80916F0826
:1040200010926F08882319F01092550429CE089534
:1040300080915102882341F030E020E041E060E6C9
:1040400073E081E00E94BA7B80919B088770873083
:1040500041F420E040E070E060E082E090E20C9407
:10406000437808950F931F93CF93DF93CDB7DEB7B7
:1040700065970FB6F894DEBF0FBECDBF80916F0875
:1040800010926F08882369F00E94877865960FB6B2
:10409000F894DEBF0FBECDBFDF91CF911F910F917E
:1040A000089560E084E00E94337600916C0810E08F
:1040B000011130C080915102882341F030E020E0AE
:1040C00043E06AE976E0812F0E94BA7B67E676E0FA
:1040D000CE0101960E9483FA65E676E0CE01039652
:1040E0000E9483FA053009F046C08091510288236E
:1040F00049F09E012F5F3F4F41E06BE576E0812F55
:104100000E94BA7B0F5F1F5F143091F687E08093A7
:104110006608BCCF013051F4809151028823B1F27E
:1041200030E020E041E062E976E0CDCF023079F581
:1041300080915102882341F030E020E041E067E8BF
:1041400076E0812F0E94BA7B67E676E0CE01019689
:104150000E9483FA65E676E0CE0103960E9483FA18
:10416000D1CF80915102882379F330E020E041E003
:104170006EE776E0A8CF063029F6809151028823B9
:1041800009F230E020E041E06AE476E0B8CF0330A5
:1041900041F3043009F09ACF809151028823A1F2B3
:1041A00030E020E041E06AE676E08DCF0F931F9388
:1041B000CF93DF93CDB7DEB765970FB6F894DEBF28
:1041C0000FBECDBF80916F0810926F08882369F0F1
:1041D0000E94877865960FB6F894DEBF0FBECDBFFC
:1041E000DF91CF911F910F91089560E084E00E94CC
:1041F000337600916C0810E001110CC080915102DF
:10420000882341F030E020E043E060E476E0812F55
:104210000E94BA7B6DE376E0CE0101960E9483FA9C
:1042200066E376E0CE0103960E9483FA013069F4DA
:1042300080915102882349F09E012F5F3F4F41E05A
:1042400061E376E0812F0E94BA7B6EE276E0CE01D8
:1042500001960E9483FA6AE276E0CE0103960E94FC
:1042600083FA023069F480915102882349F09E015B
:104270002F5F3F4F41E061E276E0812F0E94BA7BE1
:104280006EE176E0CE0101960E9483FA66E176E067
:10429000CE0103960E9483FA033069F480915102A3
:1042A000882349F09E012F5F3F4F41E062E176E0B5
:1042B000812F0E94BA7B0F5F1F5F143009F09CCFE3
:1042C0001093660887CF0F931F93CF93DF93CDB7DB
:1042D000DEB765970FB6F894DEBF0FBECDBF8091F5
:1042E0006F0810926F08882369F00E94877865969E
:1042F0000FB6F894DEBF0FBECDBFDF91CF911F91F7
:104300000F91089560E084E00E94337600916C087C
:1043100010E001110CC080915102882341F030E07F
:1043200020E042E063E076E0812F0E94BA7B60E00B
:1043300076E0CE0101960E9483FA6EEF75E0CE0121
:1043400003960E9483FA013069F480915102882318
:1043500049F09E012F5F3F4F40E065EF75E0812FF0
:104360000E94BA7B62EF75E0CE0101960E9483FA4B
:104370006EEE75E0CE0103960E9483FA0230D1F40E
:1043800080915102882349F09E012F5F3F4F40E00A
:1043900065EE75E0812F0E94BA7B61EC75E0CE017D
:1043A00001960E9483FA6FEB75E0CE0103960E949E
:1043B00083FA2AC0033009F04BC080915102882350
:1043C00061F330E020E040E063ED75E0812F0E9472
:1043D000BA7B61EC75E0CE0101960E9483FA6FEB27
:1043E00075E0CE0103960E9483FA053069F480914E
:1043F0005102882349F09E012F5F3F4F40E065EF57
:1044000075E0812F0E94BA7B6CEB75E0CE010196BE
:104410000E9483FA68EB75E0CE0103960E9483FA4E
:10442000063021F580915102882349F09E012F5FCB
:104430003F4F40E065EE75E0812F0E94BA7B0F5F31
:104440001F5F143009F065CF88E0809366084FCF76
:10445000043009F0BECF80915102882309F49DCF2A
:1044600030E020E042E064EC75E0B0CF073039F78F
:1044700080915102882319F330E020E040E063EDA1
:1044800075E0DACF0F931F93CF93DF9300D000D066
:1044900000D01F92CDB7DEB7809151028823F1F092
:1044A0001F9283E08F938091550490E001969F9333
:1044B0008F9382E493E09F938F938E010F5F1F4F42
:1044C0001F930F930E94D4FAB80187E393E00E94F0
:1044D000A47C0FB6F894DEBF0FBECDBF84E08093FE
:1044E000510280917003811108C020E040E070E02B
:1044F00060E087E099E40E9443782A960FB6F8942A
:10450000DEBF0FBECDBFDF91CF911F910F910895F8
:104510008091700381111DC080E090E0A0EAB0E4BA
:1045200080935B0290935C02A0935D02B0935E0265
:104530008AEE92E04DDB8AE193E090936F038093E3
:104540006E030E94077C109278030E9487780E9475
:104550000C7680915102882341F030E020E041E068
:104560006AE173E081E00E94BA7B82E080935102AD
:1045700008950F930FB70F9300916E000B7F009378
:104580006E0078940F930BB70F930CB70F921F9296
:104590002F933F934F935F936F937F938F939F934B
:1045A000AF93BF93EF93FF9311240E944AEBFF91C7
:1045B000EF91BF91AF919F918F917F916F915F919B
:1045C0004F913F912F911F900F900CBF0F910BBFF8
:1045D0000F910460F89400936E000F910FBF0F913C
:1045E000189580912310909124108635910554F4EC
:1045F00081E020914F0630915006263031051CF4A1
:1046000080E0089581E008951092540480914E0254
:1046100090914F020F971816190614F490E080E05D
:1046200090932410809323100E9438D71092500644
:1046300010924F0630DA80914E0290914F020F9700
:104640001816190614F490E080E0909324108093DB
:1046500023100E9438D7109225102C9810925006E3
:1046600010924F0610925106809102018072809341
:1046700000010895C9DF0C9480788F929F92AF92C9
:10468000BF92CF92DF92EF92FF920F931F93CF933F
:10469000DF93B0E4A0E06A2F70E0AB014B0F511D37
:1046A00055954795411119C0E7E2FCE26591749177
:1046B000072E000C880B990B0E9441FBDF91CF91D4
:1046C0001F910F91FF90EF90DF90CF90BF90AF9030
:1046D0009F908F900895B42FE0CFA41711F0B413DA
:1046E00003C0E3E2FDE2E2CF9A0121503109220F3B
:1046F000331F220F331FF901EB5DF34DE590F4906A
:10470000F901E75DF34DC591D4918E159F051CF31A
:10471000A42FC817D9070CF4BECFF901E95DF34DFA
:1047200005911491F901E55DF34DC590D490BC015C
:104730006E197F09072E000C880B990B0E9441FB14
:104740004B015C01B601601B710B072E000C880B3E
:10475000990B0E9441FB9B01AC01C501B4010E9471
:10476000A0FB4B015C01BE016E197F09072E000CF6
:10477000880B990B0E9441FB9B01AC01C501B40160
:104780000F947D026B017C01B801110F880B990B0E
:104790000E9441FB9B01AC01C701B6010F94A1012E
:1047A0008DCFCF93DF93CBE1D0E18A819B810E94B3
:1047B00062BC6C837D838E839F83C7E4D6E08A814D
:1047C0009B815BDF6C837D838E839F83A895109292
:1047D0004606DF91CF910895CF93DF93CFE6DAE1DC
:1047E00020E030E048E452E460911F107091201006
:1047F00080912110909122100F94C70387FF18C059
:1048000080E0FE01C49190E0B0E0A0E004C0B69565
:10481000A79597958795CA95D2F764E670E080FDD5
:1048200002C070E060E089E0DF91CF910C94F5D593
:10483000FE01949181E001C0880F9A95EAF7E1CFDB
:10484000CF92DF92EF92FF92CF93DF93EC01C8807B
:10485000D980EA80FB8085E69AE10E943194C70105
:10486000B6010E943688CC80DD80EE80FF8082E930
:1048700092E30E943194C701B6010E943688C88431
:10488000D984EA84FB848EE892E30E943194C701C4
:10489000B6010E9436888AE0DF91CF91FF90EF90B9
:1048A000DF90CF900C94CD87BC0120914D053091C5
:1048B0004E0540914D0550914E052417350731F4B2
:1048C00081E02617370709F080E008959A01F1CFBB
:1048D0000F930FB70F9300916E000F930B7F009310
:1048E0006E0000916F000D7F00936F000F930BB768
:1048F0000F930CB70F921F922F933F934F935F9399
:104900006F937F938F939F93AF93BF93EF93FF9397
:1049100011240E94792EFF91EF91BF91AF919F9149
:104920008F917F916F915F914F913F912F911F9048
:104930000F900CBF0F910BBF0F910260F894009382
:104940006F000F9100936E000F910FBF0F9118959C
:104950008091C70680FF1DC089988FEF8093FD046A
:104960008091C706869580FF17C08F9A8FEF80933E
:10497000FE048091C7068695869580FF10C08091C1
:104980000B0180958270809309018FEF8093FF0463
:104990000895899A81E0E2CF8F9881E0E8CF8091F5
:1049A0000B0182708093090181E0F0CF20914E02CB
:1049B00030914F022F503109821793070CF49C015C
:1049C00030932410209323100C9438D7AF92BF92C9
:1049D000CF92DF92EF92FF920F93CF93DF9361E03C
:1049E00081E00E943376D0916C08C0E08FE5E82E1C
:1049F00088E0F82E9FE4C92E98E0D92E24E8A22E54
:104A000028E0B22ED11131C080916B088823B9F013
:104A100080915102882361F081E090916B0891119F
:104A200080E003E023E04FE658E06C2F0E94627BB9
:104A3000DF5FCF5FC43031F7C09366080CC0809150
:104A40006F0810926F08882319F30E94877880916D
:104A500084088823E9F2DF91CF910F91FF90EF90C6
:104A6000DF90CF90BF90AF900895D13009F580913D
:104A70006B08813079F0809151028823C9F21F922E
:104A8000BF92AF92CF9381E090916B08913029F162
:104A900080E023C080916F0810926F08882359F33B
:104AA00081E00E94D3EE80918408882321F3D3CF44
:104AB000D23009F049C080916B088230B9F0809102
:104AC0005102882309F4B4CF1F92DF92CF92CF9383
:104AD00081E090916B089230D9F68F930E94887B89
:104AE0000F900F900F900F900F90A2CF80916F08B2
:104AF00010926F08882319F380915E0890915F08E7
:104B00001816190634F4863F910514F085EF90E0ED
:104B10004DDF0E94807880918408882381F29BCFAA
:104B200080916F0810926F088823A9F08091620825
:104B30009091630897FF0E9474890E948078809109
:104B40008408882341F087CFD33009F071CF80915A
:104B50006B08833029F380915102882309F468CFD0
:104B60001F92FF92EF92CF9381E090916B08933068
:104B700009F08ECFB2CFAF92BF92CF92DF92EF9279
:104B8000FF920F93CF93DF9361E081E00E94337631
:104B9000D0916C08C0E08FE3E82E88E0F82E9FE209
:104BA000C92E98E0D92E20E9A22E28E0B22ED111EC
:104BB00031C080916B088823B9F08091510288231D
:104BC00061F081E090916B08911180E003E023E0B7
:104BD0004FE658E06C2F0E94627BDF5FCF5FC430EE
:104BE00031F7C09366080CC080916F0810926F086F
:104BF000882319F30E948778809184088823E9F23A
:104C0000DF91CF910F91FF90EF90DF90CF90BF9009
:104C1000AF900895D13009F580916B08813079F01B
:104C2000809151028823C9F21F92BF92AF92CF9315
:104C300081E090916B08913029F180E023C0809150
:104C40006F0810926F08882359F380E00E94D3EE1A
:104C500080918408882321F3D3CFD23009F049C052
:104C600080916B088230B9F080915102882309F459
:104C7000B4CF1F92DF92CF92CF9381E090916B08D7
:104C80009230D9F68F930E94887B0F900F900F90EF
:104C90000F900F90A2CF80916F0810926F08882319
:104CA00019F380915C0890915D081816190634F488
:104CB000863F910514F085EF90E078DE0E948078C1
:104CC00080918408882381F29BCF80916F08109295
:104CD0006F088823A9F0809160089091610897FF80
:104CE0000E9474890E94807880918408882341F012
:104CF00087CFD33009F071CF80916B08833029F3CF
:104D000080915102882309F468CF1F92FF92EF929D
:104D1000CF9381E090916B08933009F08ECFB2CFA2
:104D2000EF92FF920F931F93CF93DF9300D000D0A9
:104D300000D01F921F92CDB7DEB77C0120915604A0
:104D4000422F022E000C550B80915704833099F1AD
:104D5000843051F180E494E05F932F939F938F937D
:104D60008E010F5F1F4F1F930F930E94D4FAC7014C
:104D70001DDE81E080937103C8010E94279D10927F
:104D800071030F900F900F900F900F900F902B9634
:104D90000FB6F894DEBF0FBECDBFDF91CF911F914C
:104DA0000F91FF90EF9008958CE494E027FDD4CF0D
:104DB00087E394E0D1CF85E594E0CECFE09156042F
:104DC00087E1E802F0011124E55EFF4E80859185C0
:104DD000A7CFAF92BF92CF92DF92EF92FF920F9345
:104DE0001F93CF93DF93C4E2DFE000EA18E084E38F
:104DF000A82E8FE0B82EC12CD12C7601C3946991D6
:104E00007991899199910E943FFB288939894A8932
:104E10005B890E94A0FB0F94EA02F80161937193F1
:104E2000819391938F01C616D706E806F90610F410
:104E30006B017C01AC16BD0611F76FEF7FEFCB0164
:104E4000A70196010F9465012093B0083093B10833
:104E50004093B2085093B30823EF34E045E35FE397
:104E600060919C0870919D0880919E0890919F0888
:104E70000E94A0FB6B017C016091300F7091310F9B
:104E80008091320F9091330F0E943FFB9B01AC0148
:104E9000C701B6010E94A0FB29E732E84AE550E4C9
:104EA0000E94A0FB0F940D046093B4087093B508A2
:104EB0008093B6089093B708DF91CF911F910F911F
:104EC000FF90EF90DF90CF90BF90AF9008950F9339
:104ED0001F93CF93DF9308E31FE0CCEBD8E0F801FA
:104EE00021913191419151918F0160E070E080E812
:104EF0009FE30F947D026993799389939993F8E0E6
:104F0000CC3CDF0761F70E9479CEDF91CF911F91F2
:104F10000F915FCF8F929F92AF92BF92CF92DF920D
:104F2000EF92FF920F931F93CF93DF93CDB7DEB72E
:104F3000AC970FB6F894DEBF0FBECDBF20913D04F5
:104F4000222309F46AC0A8E8B0E1FE01319624E901
:104F500030E17F014D915D916D917D914083518351
:104F60006283738318964D915D916D917C911B972F
:104F7000448355836683778354964D915D916D91FB
:104F80007C91579740875187628773873C962A1791
:104F90003B0701F78C0120E030E048E453E4FC01DA
:104FA00064817581868197810F94A001F8018080CA
:104FB0009180A280B3808DA29EA2AFA2B8A669A75D
:104FC0007AA78BA79CA79801285F3F4FAE01475D4A
:104FD0005F4FBE016B5D7F4FC7010E946E1B20E0DB
:104FE00030E048E453E469A57AA58BA59CA50F940D
:104FF000A1016B017C0120E030E0A9016DA17EA13F
:105000008FA198A50F94A101F80160837183828319
:105010009383C482D582E682F782AC960FB6F89469
:10502000DEBF0FBECDBFDF91CF911F910F91FF90DB
:10503000EF90DF90CF90BF90AF909F908F900895AA
:10504000CF92DF92EF92FF920F931F93CF93DF9354
:1050500000D000D01F921F92CDB7DEB720913D0443
:10506000222309F444C08C0120E030E048E453E4FA
:10507000FC0164817581868197810F94A001F801FC
:10508000C080D180E280F380C982DA82EB82FC8228
:105090006D837E838F8398879801285F3F4FAE0191
:1050A0004B5F5F4FBE016F5F7F4F88E890E10E94CA
:1050B0006E1B20E030E048E453E46D817E818F81F7
:1050C00098850F94A1016B017C0120E030E0A901DB
:1050D00069817A818B819C810F94A101F8016083A1
:1050E000718382839383C482D582E682F782289675
:1050F0000FB6F894DEBF0FBECDBFDF91CF911F91E9
:105100000F91FF90EF90DF90CF9008952F923F92F4
:105110004F925F926F927F928F929F92AF92BF92C7
:10512000CF92DF92EF92FF920F931F93CF93DF9373
:10513000CDB7DEB76C970FB6F894DEBF0FBECDBF0C
:105140008C015B015A834983FC01EF5AFF4F208198
:1051500031814281538129873A874B875C87CA0115
:10516000B9010E943FFB6B017C01D5012D913D915E
:105170004D915C910E94A0FB0F9467022B013C01B2
:10518000E981FA812081318142815381C701B601D1
:105190000E94A0FB0F9467024B015C01C301B201A6
:1051A0000F94EA02698B7A8B8B8B9C8B6837710525
:1051B0008105910540F428E730E040E050E0298B7C
:1051C0003A8B4B8B5C8BC501B4010F94EA026D875F
:1051D0007E878F87988B683771058105910540F42C
:1051E00048E750E060E070E04D875E876F87788B1E
:1051F000F801E35AFF4F4080518062807380C30101
:10520000B2010E9441FB69837A838B839C83698905
:105210007A898B899C890E943FFB6D8B7E8B8F8B5B
:10522000988F20E030E0A90169817A818B819C818F
:105230000E943BFB882309F4E1C1A7019601C70145
:10524000B6010E94A0FB4B015C012D893E894F896C
:10525000588DCA01B9010E94A0FB9B01AC01C50198
:10526000B4010F94A0014B015C0129813A814B816B
:105270005C81CA01B9010F94A1019B01AC01C50178
:10528000B4010F947D020F9467020F94EA026D83BC
:105290007E838F83988766277727CB0164197509EA
:1052A000860997090E9441FB4B015C016D857E8553
:1052B0008F8598890E943FFB2B013C0120E030E064
:1052C000A901C501B4010E943BFB882309F49AC1DE
:1052D000A3019201C301B2010E94A0FB698F7A8FE2
:1052E0008B8F9C8FA7019601C701B6010E94A0FB7E
:1052F0009B01AC01698D7A8D8B8D9C8D0F94A001E3
:105300006B017C01A5019401C501B4010F94A101B9
:105310009B01AC01C701B6010F947D020F941603E7
:10532000D80195968D909D90AD90BC909897750101
:1053300064012D813E814F815885C21AD30AE40A47
:10534000F50A0F94EA02C61AD70AE80AF90AF7FE24
:105350008EC02D893E894F89588DCA01B9010E949E
:10536000A0FB6B017C0129813A814B815C81CA01E0
:10537000B9010F94A10169877A878B879C8720E008
:1053800030E0A90169817A818B819C810E943BFB7D
:10539000882309F43BC1C501B4010E943FFB298564
:1053A0003A854B855C850E94A0FBA70196010F946E
:1053B000A0016D837E838F839887A3019201C3012F
:1053C000B2010E94A0FB9B01AC016D817E818F81A7
:1053D00098850F94A1012B013C0120E030E040E8CA
:1053E00050E469817A818B819C810E94A0FB9B01A2
:1053F000AC01C301B2010F947D020F9467022B012F
:105400003C0120E030E0A9010F94C70318161CF0FE
:10541000412C512C3201C301B2010F94EA026D8379
:105420007E838F83988786169706A806B90620F490
:105430008D829E82AF82B8866D817E818F819885B4
:105440000E943FFB29853A854B855C850E94A0FB25
:10545000A70196010F94A1010F940D040F94EA0285
:1054600069877A878B879C87C12CD12C76016985C7
:105470007A858B859C8529893A894B895C89621B51
:10548000730B840B950B0E943FFB29813A814B8162
:105490005C810F947D0220E034E244EF59E40E94E5
:1054A000A0FB0F94EA024B015C0169857A858B852C
:1054B0009C852D853E854F855889621B730B840B17
:1054C000950B0E943FFB29813A814B815C810F94AF
:1054D0007D0220E034E244EF59E40E94A0FB0F94E7
:1054E000EA022B013C013FE683169104A104B104BA
:1054F00008F090C0F401EE0FFF1FEE0FFF1FE757FB
:10550000F04F85919591A591B4918983292E3A2EDA
:10551000BD8B4FE6441651046104710408F083C04A
:10552000F201EE0FFF1FEE0FFF1FE757F04F4591FF
:105530005591659174919A01CB014D815E816F8186
:105540007885D80199964D935D936D937C939C9744
:105550004C0D5D1D6E1D7F1DF80145A756A767A761
:1055600070ABEB5AFF4F49895A896B897C8940831C
:10557000518362837383D5968D929D92AD92BC9236
:10558000D897F80141AE52AE63AE74AEFD96498134
:105590004083218232825D89538334962083318314
:1055A0008283938369857A858B859C85D1966D935B
:1055B0007D938D939C93D49778962D853E854F85CA
:1055C000588920833183428353836C960FB6F894B5
:1055D000DEBF0FBECDBFDF91CF911F910F91FF9026
:1055E000EF90DF90CF90BF90AF909F908F907F9083
:1055F0006F905F904F903F902F90089560E070E023
:10560000CB0141CE60E070E0CB0188CE60E070E07D
:10561000CB01F3CEC501B4010E940A1A6983272E7B
:10562000382E9D8B76CFC301B2010E940A1A9B01CE
:1056300084CF90916F0081E091FD02C080E00895D9
:1056400090916F009D7F90936F000895EFE6F0E0DA
:105650008081826080830895CF93C82FEADF94E031
:10566000C99F90011124F901E05BFA4F245A3A4F87
:10567000D9014D915D916D917C91408351836283FD
:10568000738391E090934F05882311F0CF91DECF83
:10569000CF910895CEDF1092B8081092B9081092F9
:1056A000BA081092BB088111D1CF08950F931F93B0
:1056B0008091861090918710891B8F7009F449C0E2
:1056C00090918310992361F0833040F48FEF890F1C
:1056D00029F08093831090E080E038C0109283100E
:1056E0008091871025E6829FC00111248F52974F29
:1056F000FC01208120FDEFCF4091B8085091B908FE
:105700006091BA087091BB08EF59FF4F0081118179
:1057100022813381401B510B620B730B4093B808FD
:105720005093B9086093BA087093BB082091871012
:105730002F5F2F7020938410309187102091851057
:10574000321304C020918410209385101F910F9173
:105750000895A0DFC0CFCF92DF92EF92FF92CF9358
:10576000DF93C82F66DF94E0C99FE0011124FE019A
:10577000E45AFA4FC080D180E280F380811166DF65
:10578000C454D74FC701B6010E9441FB288139811B
:105790004A815B810E94A0FBDF91CF91FF90EF9047
:1057A000DF90CF900895CF92DF92EF92FF92CF9348
:1057B000DF93C82F3EDF94E0C99FE0011124FE0172
:1057C000E05BFA4FC080D180E280F38081113EDF40
:1057D000C454D74FC701B6010E9441FB28813981CB
:1057E0004A815B810E94A0FBDF91CF91FF90EF90F7
:1057F000DF90CF900895CF93DF9324E0829FC00184
:105800001124EC01C157D74FFC01E753F94F885ED3
:105810009B4FDC012D913D914D915C916081718197
:10582000828193810F94A101688379838A839B830A
:10583000DF91CF910895CF92DF92EF92FF921F9365
:10584000CF93DF9320912502222309F48DC0EC0130
:1058500010919B0810FF2CC0C0900D02D0900E023A
:10586000E0900F02F0901002288139814A815B811B
:10587000C701B6010F94C703181624F4C882D98251
:10588000EA82FB82C0901902D0901A02E0901B02BB
:10589000F0901C02288139814A815B81C701B601E1
:1058A0000E943BFB87FF04C0C882D982EA82FB8248
:1058B00011FF2CC0C0901102D0901202E090130290
:1058C000F09014022C813D814E815F81C701B601A9
:1058D0000F94C703181624F4CC82DD82EE82FF8277
:1058E000C0901D02D0901E02E0901F02F090200296
:1058F0002C813D814E815F81C701B6010E943BFB37
:1059000087FF04C0CC82DD82EE82FF8212FF2CC0B2
:10591000C0901502D0901602E0901702F090180285
:10592000288539854A855B85C701B6010F94C70371
:10593000181624F4C886D986EA86FB86C090210210
:10594000D0902202E0902302F0902402288539852D
:105950004A855B85C701B6010E943BFB87FF04C0F7
:10596000C886D986EA86FB86DF91CF911F91FF908A
:10597000EF90DF90CF9008958091F9049091FA0410
:10598000A091FB04B091FC048093090290930A0259
:10599000A0930B02B0930C028091F7049091F8044D
:1059A00090930802809307020895809109029091D4
:1059B0000A02A0910B02B0910C028093F90490931B
:1059C000FA04A093FB04B093FC0480910702909129
:1059D00008029093F8048093F70484E690E0909393
:1059E00008028093070208950C9479CECF93DF9339
:1059F000CDB7DEB72C970FB6F894DEBF0FBECDBF84
:105A00000E94C9CE16DE9CE0ECE5F5E0DE011196C1
:105A100001900D929A95E1F7811118DECE01019661
:105A20000E9420242C960FB6F894DEBF0FBECDBF87
:105A3000DF91CF9108954F925F926F927F928F92F4
:105A40009F92AF92BF92CF92DF92EF92FF920F930D
:105A50001F93CF93DF9300D000D0CDB7DEB78090F7
:105A6000530290905402A0905502B0905602C090FC
:105A70005702D0905802E0905902F0905A0280915B
:105A80005B0290915C02A0915D02B0915E028983FD
:105A90009A83AB83BC839DD90E94071B0AE21BE05B
:105AA000ADE0B2E0BE83AD838EE1682E8BE0782E50
:105AB000512C852DA0DEF80185919591A591B49189
:105AC000ED81FE8181939193A193B193FE83ED8348
:105AD000F30185919591A591B491ED81FE81808727
