:100000000C9483190C94B4190C94B4190C94B4196D
:100010000C94B4190C94B4190C94B4190C94B4192C
:100020000C94B4190C94B4190C94B4190C94B4191C
:100030000C94B4190C94B4190C94B4190C94B4190C
:100040000C94B4190C9461910C94B4190C94B419D7
:100050000C94B4190C94B4190C94D58A0C94CF7CDC
:100060000C94B4190C94F94D0C94EF4D0C94B419F4
:100070000C94B4190C94B4190C94B4190C94B419CC
:100080000C94B4190C94B4190C94B4190C94B419BC
:100090000C94B4190C94B4190C94B4190C94B419AC
:1000A0000C94B4190C94B4190C94B4190C94B4199C
:1000B0000C94B4190C94B4190C94B4190C94B4198C
:1000C0000C94B4190C94B4190C94B4190C94B4197C
:1000D0000C94B4190C94B4190C94B4190C94B4196C
:1000E0000C94B419084AD73B3BCE016E84BCBFFDCB
:1000F000C12F3D6C74319ABD56833DDA3D00C77FF8
:1001000011BED9E4BB4C3E916BAAAABE0000008090
:100110003F05A84CCDB2D44EB93836A9020C50B91F
:10012000918688083CA6AAAA2ABE000000803F004B
:100130004E414E494E495459494E46CDCCCC3D0ACC
:10014000D7233C17B7D13877CC2B329595E6241FAF
:10015000B14F0A000020410000C84200401C462068
:10016000BCBE4CCA1B0E5AAEC59D7400407A10F33B
:100170005A00A0724E18090010A5D4E80000E876D5
:1001800048170000E40B54020000CA9A3B0000002C
:10019000E1F505000080969800000040420F000045
:1001A00000A08601000000102700000000E8030006
:1001B0000000006400000000000A000000000001D0
:1001C00000000000002C76D888DC674F0823DFC1D0
:1001D000DFAE59E1B1B796E5E3E453C63AE651998B
:1001E0007696E8E6C28426EB898C9B62ED407C6FB4
:1001F000FCEFBC9C9F40F2BAA56FA5F490055A2A6B
:10020000F75C936B6CF9676DC11BFCE0E40D47FE76
:10021000F520E6B500D0ED902E030094357705006B
:1002200080841E080000204E0A000000C80C3333F2
:1002300033330F986E12831141EF8D2114893BE601
:100240005516CFFEE6DB18D1844B381BF77C1D908A
:100250001DA4BBE424203284725E228100C9F124F3
:10026000ECA1E53D275072696E742050617573658D
:100270006400554E4C4F41442046494C414D454E3B
:1002800054004C4F41442046494C414D454E54008A
:1002900046494C414D454E54204348414E47450048
:1002A0006563686F3A004572726F723A00486F7406
:1002B000656E6420746F6F20636F6C640A000A0AB5
:1002C000426564204C6576656C20436F727265638D
:1002D00074696F6E204D61747269783A00332D70C5
:1002E0006F696E742070726F62696E6720646F6EE2
:1002F000652E0A0069646C650A00206F6620007034
:100300006F696E7420004D616E75616C20473239E3
:1003100020004D616E75616C204732392061626F3B
:10032000727465640A00202844525952554E2900BF
:10033000473239204175746F20426564204C6576E0
:10034000656C696E67003F2856296572626F736538
:10035000206C6576656C20696D706C61757369627F
:100360006C652028302D34292E0A004D3630303A65
:1003700020546F6F20436F6C6400486F74656E6427
:1003800020746F6F20636F6C640A00496E7365722E
:10039000742066696C616D656E7420616E64207096
:1003A0007265737320627574746F6E0A00507265A3
:1003B000737320627574746F6E20746F206865614A
:1003C00074206E6F7A7A6C650A00496E7365727478
:1003D0002066696C616D656E7420616E6420707258
:1003E00065737320627574746F6E0A0020496E76AF
:1003F000616C69642065787472756465722000228E
:100400000A00656E7175657565696E672022006FFB
:100410006B00526573656E643A20004361703A0068
:1004200023646566696E652044454641554C545FBA
:10043000004B6420004B6920004B70200050494461
:10044000204175746F74756E652066696E69736896
:100450006564212050757420746865206C61737424
:10046000204B702C204B6920616E64204B6420630C
:100470006F6E7374616E74732066726F6D20626547
:100480006C6F7720696E746F20436F6E6669677555
:10049000726174696F6E2E680A005049442041757C
:1004A000746F74756E65206661696C656421207473
:1004B000696D656F75740A00546865726D616C20B2
:1004C00052756E617761790048656174696E672065
:1004D0006661696C656400504944204175746F74AD
:1004E000756E65206661696C6564212054656D7068
:1004F0006572617475726520746F6F2068696768D2
:100500000A00204B643A2000204B693A2000204B1F
:10051000703A20000A20436C61737369632050496C
:1005200044200A002054753A2000204B753A2000E0
:10053000206D61783A2000206D696E3A20002064B9
:100540003A200020626961733A20005049442041FA
:1005500075746F74756E652073746172740A0050DF
:100560004944204175746F74756E65206661696CCD
:100570006564212054656D706572617475726520C3
:10058000746F6F20686967680A005049442041759C
:10059000746F74756E65206661696C6564212042B4
:1005A0006164206578747275646572206E756D6221
:1005B00065720A004572726F722077726974696E93
:1005C0006720746F20454550524F4D210A00256821
:1005D000753A25303268750025303268753A253015
:1005E000326875002D2D2D0053440020202020203E
:1005F00020200020202020004D6564696120526584
:100600006D6F766564004D6564696120496E736540
:100610007274656400524631303020584C20526567
:100620006164792E005072696E74696E672E2E2E89
:10063000005072696E742041626F72746564004D7F
:100640003235005061757365205072696E7400A177
:100650000000006900A20000006300B00000000973
:1006600000C10000004100C20000004100C30000C2
:10067000004100C40000004100C50000004100C668
:100680000000004145C70000004300C800000045CD
:1006900000C90000004500CD0000004900D1000065
:1006A000004E00D50000004F00D60000004F00D7DC
:1006B0000000007800DC0000005500DD000000595B
:1006C00000E00000006100E10000006100E20000C5
:1006D000006100E30000006100E40000006100E54B
:1006E0000000006100E60000006165E700000063B3
:1006F00000E80000006500E90000006500EA000075
:10070000006500EB0000006500EC0000006900EDF2
:100710000000006900EE0000006900EF00000069C1
:1007200000F10000006E00F20000006F00F3000016
:10073000006F00F40000006F00F50000006F00F68D
:100740000000006F00F80000006F00F90000007565
:1007500000FA0000007500FB0000007500FC0000BE
:10076000007500FD0000007900FF00000079000422
:100770000100004100050100006100060100004386
:10078000000701000063000C01000043000D0100A0
:100790000063000E01000044000F0100006400111E
:1007A00001000064001901000065001F01000067DE
:1007B00000300100004900310100006900410100E2
:1007C000004C00420100006C00430100004E004458
:1007D0000100006E00480100006E00590100007227
:1007E000005A01000053005B01000073005F01002C
:1007F0000073006001000053006101000073006598
:1008000001000074006F01000075007C0100007A97
:10081000007D0100005A007E0100007A0092010074
:10082000006600E30200007800222000002E001E77
:10083000210000507822210000544D902100003CFE
:100840002D922100002D3EB02100000300BB2100AD
:100850000004003C2200007E00482200007E3D6033
:10086000220000213D612200003D00642200003C86
:100870003D652200003E3DF12300000700A030004E
:10088000003D0021F301000200C2F401000500A2B6
:10089000000000EC00B0000000DF00E4000000E118
:1008A00000F6000000EF00F7000000FD00FC000073
:1008B00000F500E3020000EB0087030000A5008FB5
:1008C000030000F40098030000F2009E030000E320
:1008D00000A3030000F600A9030000F400AC03002D
:1008E00000E000AD030000E300B1030000E000B24F
:1008F000030000E200B5030000E300B8030000F2CB
:1009000000BC030000E400BE030000E300C00300DD
:1009100000F700C1030000E600C3030000E50090FB
:100920002100007F00922100007E001A220000E8D2
:10093000001E220000F30088250000FF00023000A6
:1009400000A1000C300000A2000D300000A3009BAD
:10095000300000DE009C300000DF00A03000003DD1
:1009600000A1300000A700A2300000B100A33000B9
:1009700000A800A4300000B200A5300000A900A625
:10098000300000B300A7300000AA00A8300000B477
:1009900000A9300000AB00AA300000B500AB300069
:1009A00000B600AC300000B6DEAD300000B700AEDF
:1009B000300000B7DEAF300000B800B0300000B843
:1009C000DEB1300000B900B2300000B9DEB3300053
:1009D00000BA00B4300000BADEB5300000BB00B68B
:1009E000300000BBDEB7300000BC00B8300000BCF7
:1009F000DEB9300000BD00BA300000BDDEBB300003
:100A000000BE00BC300000BEDEBD300000BF00BE36
:100A1000300000BFDEBF300000C000C0300000C0AA
:100A2000DEC1300000C100C2300000C1DEC33000B2
:100A300000AF00C4300000C200C5300000C2DEC6F6
:100A4000300000C300C7300000C3DEC8300000C45F
:100A500000C9300000C4DECA300000C500CB300041
:100A600000C600CC300000C700CD300000C800CE6A
:100A7000300000C900CF300000CA00D0300000CAEA
:100A8000DED1300000CADFD2300000CB00D330000E
:100A900000CBDED4300000CBDFD5300000CC00D658
:100AA000300000CCDED7300000CCDFD8300000CDE5
:100AB00000D9300000CDDEDA300000CDDFDB3000C1
:100AC00000CE00DC300000CEDEDD300000CEDFDE08
:100AD000300000CF00DF300000D000E0300000D157
:100AE00000E1300000D200E2300000D300E330002B
:100AF00000AC00E4300000D400E5300000AD00E6BA
:100B0000300000D500E7300000AE00E8300000D62D
:100B100000E9300000D700EA300000D800EB3000D8
:100B200000D900EC300000DA00ED300000DB00EF0F
:100B3000300000DC00F2300000A600F3300000DDE1
:100B400000F4300000B3DEF7300000DCDEFA3000E5
:100B500000A6DEFB300000A500FC300000B000FD68
:100B6000300000A400074E0000FB0086510000FC8E
:100B70000043530000FA0064FF0000A40065FF007A
:100B800000A50066FF0000A60067FF0000A7006840
:100B9000FF0000A80069FF0000A9006AFF0000AA8A
:100BA000006BFF0000AB006CFF0000AC006DFF00AD
:100BB00000AD006EFF0000AE006FFF0000AF0070E0
:100BC000FF0000B00071FF0000B10072FF0000B232
:100BD0000073FF0000B30074FF0000B40075FF0055
:100BE00000B50076FF0000B60077FF0000B7007880
:100BF000FF0000B80079FF0000B9007AFF0000BADA
:100C0000007BFF0000BB007CFF0000BC007DFF00FC
:100C100000BD007EFF0000BE007FFF0000BF00801F
:100C2000FF0000C00081FF0000C10082FF0000C281
:100C30000083FF0000C30084FF0000C40085FF00A4
:100C400000C50086FF0000C60087FF0000C70088BF
:100C5000FF0000C80089FF0000C9008AFF0000CA29
:100C6000008BFF0000CB008CFF0000CC008DFF004C
:100C700000CD008EFF0000CE008FFF0000CF00905F
:100C8000FF0000D00091FF0000D10092FF0000D2D1
:100C90000093FF0000D30094FF0000D40095FF00F4
:100CA00000D50096FF0000D60097FF0000D70098FF
:100CB000FF0000D80099FF0000D9009AFF0000DA79
:100CC000009BFF0000DB009CFF0000DC009DFF009C
:100CD00000DD009EFF0000DE009FFF0000DF00E55A
:100CE000FF00005C0000000000010204040000009E
:100CF0001C1C0C0404040201000000000004081085
:100D000000000000002D2D2D2D2D2D007C4D617239
:100D10006C696E7C002D2D2D2D2D2D00001C1F11BA
:100D2000111F00000006191803130C00040E1F0405
:100D30001C000000000E1315110E00001C101817E7
:100D400005060500040A0A0A0A11110E0C12120CFB
:100D500000000000001F1511151F00004C6F61649A
:100D6000206D6D00556E6C6F6164206D6D0046697D
:100D70006C2E204469612E004520696E206D6DC285
:100D8000B300416476616E6365204B004D333033B0
:100D900020553120452569205325690050494420BC
:100DA0004175746F74756E65202A002002204661BB
:100DB0006374002002204D6178002002204D696E8E
:100DC000004F6666004F6E004175746F74656D70FC
:100DD000005654726176204D696E00566D696E0042
:100DE000566D6178204500566D6178205A00566D29
:100DF0006178205900566D6178205800416D617806
:100E0000204500416D6178205A00416D617820597C
:100E100000416D6178205800412D54726176656CF7
:100E200000412D5265747261637400416363656CA7
:100E3000004A756E6374696F6E2044657600457371
:100E4000746570732F6D6D005A73746570732F6DB8
:100E50006D005973746570732F6D6D0058737465F0
:100E600070732F6D6D00416476616E63656420530D
:100E7000657474696E6773003F0043616E63656CEF
:100E800000496E6974004D34323800496E697469E6
:100E9000616C697A6520454550524F4D0046696C3A
:100EA000616D656E740054656D7065726174757204
:100EB000650053746570732F6D6D004A65726B0029
:100EC000416363656C65726174696F6E0056656C31
:100ED0006F636974790053657420486F6D65204FA6
:100EE00066667365747300436F6E666967757261D9
:100EF00074696F6E004C6576656C696E6720446F2F
:100F00006E6521004D6F7665205A004732392056B4
:100F100031004E65787420506F696E740025692029
:100F20002F2025750047323920563100436C696304
:100F30006B20746F20426567696E00486F6D696E43
:100F4000672058595A0053746F7265205365747442
:100F5000696E6773004C6F61642053657474696EC9
:100F60006773004F6666004F6E00426564204C65F3
:100F700076656C696E67004C6576656C20426564C9
:100F8000004D6F74696F6E00426564004E6F7A7A2F
:100F90006C650046616E20537065656400436F6E3A
:100FA00066696775726174696F6E004C6F61642069
:100FB00053657474696E677300526573746F7265FC
:100FC000206661696C736166650053746F72652099
:100FD00053657474696E67730050726568656174F7
:100FE0002041425320436F6E660050726568656110
:100FF0007420504C4120436F6E6600416476616EF0
:101000006365642053657474696E6773004D61692C
:101010006E004D37303220542564004D363030207C
:10102000423020542564004D373032203B25640087
:101030004D3730312054256400436F6E74696E75EE
:1010400065005075726765206D6F7265005245537B
:10105000554D45204F5054494F4E533A0050524938
:101060004E54205041555345440020204E6F7A7A0B
:101070006C653A20005061726B696E672E2E2E00EF
:1010800000005761697420666F720066696C616D5B
:10109000656E74206368616E676500746F20737499
:1010A000617274005761697420666F720066696CC2
:1010B000616D656E7420756E6C6F616400004E6FBB
:1010C0007A7A6C652068656174696E6700506C653A
:1010D00061736520776169742E2E2E000050726551
:1010E000737320627574746F6E00746F206865612D
:1010F00074206E6F7A7A6C650000496E7365727445
:101100002066696C616D656E7400616E642070723A
:1011100065737320627574746F6E00746F20636FF3
:101120006E74696E7565005761697420666F720030
:1011300066696C616D656E74206C6F61640000504F
:101140007265737320427574746F6E00746F2072D1
:101150006573756D65207072696E74000057616902
:101160007420666F72207072696E7400746F2072E2
:101170006573756D652E2E2E0000576169742066AB
:101180006F720066696C616D656E74207075726750
:10119000650000313530003A200035003A20004229
:1011A00045443A4550434F53203130304B0052753F
:1011B0006E617761792057617463683A204F4E0001
:1011C0004D61782054656D7000323735003A20004B
:1011D0004D696E2054656D700035003A2000453130
:1011E0003A204550434F53203130304B0050535537
:1011F0000047656E65726963003A200050726F7433
:101200006F636F6C00312E30003A200042617564CC
:1012100000313135323030003A200052414D5053C8
:1012200020312E3400332D506F696E74204C65765A
:10123000656C696E670045787472756465727300D9
:1012400031003A2000687474703A2F2F6D61726C0F
:10125000696E66772E6F72670052463130302058C3
:101260004C00323032302D30312D323700322E30BA
:101270002E32004D61726C696E00546865726D6942
:1012800073746F727300426F61726420496E666F8F
:10129000005072696E74657220496E666F004D6110
:1012A000696E003F004261636B0053746F700043CE
:1012B00068616E67652046696C616D656E7400508B
:1012C00072656865617420414253005072656865BB
:1012D000617420437573746F6D0050726568656149
:1012E0007420504C41004261636B005072696E740F
:1012F0002066726F6D204D65646961004D3231006A
:101300004368616E6765204D656469610041626F85
:101310007574205072696E746572004D36303020DD
:101320004230004368616E67652046696C616D6597
:101330006E7400436F6E66696775726174696F6E73
:101340000054656D7065726174757265004D6F74DF
:10135000696F6E00526573756D65205072696E74A9
:10136000004E6F204D656469610054756E650053D1
:10137000746F70205072696E7400506175736520CF
:101380005072696E7400496E666F205363726565B2
:101390006E003F005374617274205072696E740065
:1013A00043616E63656C005072696E740043616ED8
:1013B0006E6F7420656E74657220737562646972F5
:1013C0003A2000052E2E004D61696E004D6F746944
:1013D0006F6E004D38340044697361626C65205350
:1013E0007465707065727300426564204C65766543
:1013F0006C696E6700473238004175746F20486F22
:101400006D65004D61696E0050726568656174209C
:10141000504C4120426564005072656865617420DB
:10142000504C4120456E64005072656865617420BF
:1014300041425320456E64005072656865617420B6
:10144000414253204265640054656D706572617459
:1014500075726500436F6F6C646F776E00507265D4
:10146000686561742041425300507265686561741B
:1014700020504C4100426564004E6F7A7A6C6500E2
:101480004D61696E00416476616E6365204B004674
:101490006C6F7700426564004E6F7A7A6C6500531A
:1014A00070656564004D61696E00363726033C3D0A
:1014B000380F2E303E121A1C1808440A094308003F
:1014C00001627573793A2070617573656420666F87
:1014D0007220696E7075740A00627573793A2070B3
:1014E000617573656420666F7220757365720A009A
:1014F000627573793A2070726F63657373696E6792
:101500000A0053544F505045442E20005072696ECB
:101510007465722073746F707065642064756520E3
:10152000746F206572726F72732E20466978207412
:101530006865206572726F7220616E6420757365D4
:10154000204D39393920746F20726573746172745B
:101550002E202854656D70657261747572652069FE
:10156000732072657365742E20536574206974202E
:1015700061667465722072657374617274696E67F6
:10158000290A004E6F20436865636B73756D207781
:10159000697468206C696E65206E756D6265722C69
:1015A000204C617374204C696E653A20004E6F20A8
:1015B000436865636B73756D2077697468206C6927
:1015C0006E65206E756D6265722C204C617374209F
:1015D0004C696E653A2000636865636B73756D20B6
:1015E0006D69736D617463682C204C617374204C59
:1015F000696E653A20004C696E65204E756D6265B6
:1016000072206973206E6F74204C617374204C6972
:101610006E65204E756D6265722B312C204C6173A6
:1016200074204C696E653A20004D313130004D31E7
:101630003137004D333100534420726561642065B9
:1016400072726F720A00446F6E65207072696E74F8
:10165000696E672066696C650A002121204B494C40
:101660004C20636175736564206279204B494C4C52
:1016700020627574746F6E2F70696E0A00212120CC
:101680004B494C4C2063617573656420627920740A
:101690006F6F206D75636820696E6163746976652C
:1016A0002074696D65202D2063757272656E7420DB
:1016B000636F6D6D616E643A2000506C6561736597
:1016C000205265736574005052494E54455220486B
:1016D000414C5445440025533A202553004B494C76
:1016E0004C45442E20005072696E7465722068610A
:1016F0006C7465642E206B696C6C28292063616CA6
:101700006C6564210A000000484300004843000063
:101710004843000000000000000000000000290A0B
:10172000002062797465733B206372632000536507
:101730007474696E67732053746F72656420280037
:10174000454550524F4D206461746173697A65203C
:101750006572726F722E0A00290A00206279746520
:10176000733B2063726320002073746F7265642082
:1017700073657474696E67732072657472696576D7
:101780006564202800202863616C63756C61746552
:101790006429210A0020213D2000454550524F4D2B
:1017A00020435243206D69736D61746368202D205E
:1017B0002873746F7265642920002053697A653A32
:1017C0002000496E6465783A2000204D61726C6992
:1017D0006E3D563735290A00454550524F4D20760B
:1017E000657273696F6E206D69736D6174636820D3
:1017F00028454550524F4D3D0048617264636F6407
:1018000065642044656661756C7420536574746901
:101810006E6773204C6F616465640A000000964334
:10182000000096430000A0410000C841D7A39D429C
:10183000D7A39D42000048440000E842F4010000A4
:10184000F4010000640000001027000020204D3645
:10185000303320002055004C0046696C616D656E88
:1018600074206C6F61642F756E6C6F6164206C65A1
:101870006E677468733A0A0020204D393030204B6F
:10188000004C696E65617220416476616E63653AF1
:101890000A0020440020490020204D3330312050E0
:1018A000005049442073657474696E67733A0A0086
:1018B00020460020420020480020204D31343520B1
:1018C00053004D6174657269616C2068656174755F
:1018D0007020706172616D65746572733A0A0020E0
:1018E000204D3432302053004175746F20426564BE
:1018F000204C6576656C696E673A0A0020204D328F
:101900003036205800486F6D65206F6666736574C9
:101910003A0A00204A0020540020530020204D3273
:101920003035204200204A3C6A756E635F646576FC
:101930003E00416476616E6365643A20423C6D69A5
:101940006E5F7365676D656E745F74696D655F75F5
:10195000733E20533C6D696E5F66656564726174A9
:10196000653E20543C6D696E5F74726176656C5F94
:1019700066656564726174653E0020540020520003
:1019800020204D323034205000416363656C657215
:101990006174696F6E2028756E6974732F733229B4
:1019A0003A20503C7072696E745F616363656C3E8F
:1019B00020523C726574726163745F616363656C2D
:1019C0003E20543C74726176656C5F616363656C44
:1019D0003E0A0020204D3230312058004D61786998
:1019E0006D756D20416363656C65726174696F6EBE
:1019F0002028756E6974732F7332293A0A002020EB
:101A00004D3230332058004D6178696D756D206618
:101A100065656472617465732028756E6974732FCF
:101A200073293A0A005374657073207065722075CB
:101A30006E69743A0A0020204D3230302044300A5A
:101A40000020204D32303020440020446973616210
:101A50006C65640A0046696C616D656E742073651F
:101A60007474696E67733A0020204D313439204315
:101A7000203B20556E69747320696E2043656C733A
:101A80006975730A0020286D6D29002020473231C6
:101A9000202020203B20556E69747320696E206DD4
:101AA0006D006F70656E005452494747455245447A
:101AB000003A20007A5F6D696E00795F6D61780091
:101AC000785F6D696E005265706F7274696E672021
:101AD000656E6473746F70207374617475730A003B
:101AE000205A3A0020593A0020436F756E742058EE
:101AF0003A0020453A00205A3A0020593A00583A14
:101B000000486F6D696E67204661696C656400000E
:101B100000484200004842000080405761726E69F0
:101B20006E673A20486F6D696E672042756D702050
:101B300044697669736F72203C20310A0002020406
:101B40000000A0400000A04000000040000048430A
:101B5000000048430000484300000001000000016D
:101B6000000080005555550000004000333333001D
:101B7000AAAA2A004992240000002000C7711C0074
:101B800099991900D1451700555515003BB113001F
:101B90002449120011111100000010000F0F0F0056
:101BA000E3380E0043790D00CCCC0C00C3300C00A0
:101BB000E8A20B0064210B00AAAA0A00703D0A00EB
:101BC0009DD80900427B090092240900DCD308005B
:101BD000888808001042080000000800F0C10700D3
:101BE0008787070075500700711C07003EEB060051
:101BF000A1BC06006990060066660600703E0600FD
:101C00006118060017F4050074D105005BB00500EB
:101C1000B29005006272050055550500783905003F
:101C2000B81E0500050505004EEC040087D404002D
:101C3000A1BD040090A7040049920400C17D0400E6
:101C4000EE690400C7560400444404005C320400FA
:101C50000821040041100400000004003FF00300CC
:101C6000F8E0030026D20300C3C30300CCB5030091
:101C70003AA803000A9B0300388E0300C0810300CA
:101C80009F750300D0690300505E03001D530300DD
:101C900034480300913D0300333303001629030049
:101CA000381F030097150300300C030003030300E3
:101CB0000BFA020049F10200BAE802005CE00200FF
:101CC0002DD802002DD0020059C80200B0C0020079
:101CD00031B90200DAB10200AAAA0200A0A30200F0
:101CE000BC9C0200FA9502005C8F0200DF880200B3
:101CF00082820200457C02002776020027700200E3
:101D0000436A02007C640200D05E02003F59020078
:101D1000C8530200FFFDFCFAF8F6F4F2F0EEECEA2C
:101D2000E9E7E5E3E1E0DEDCDAD9D7D5D4D2D0CFFC
:101D3000CDCBCAC8C7C5C3C2C0BFBDBCBAB9B7B690
:101D4000B4B3B2B0AFADACAAA9A8A6A5A4A2A1A0F5
:101D50009E9D9C9A99989795949392908F8E8D8B37
:101D60008A8988878684838281807F7E7D7B7A7959
:101D70007877767574737271706F6E6D6C6B6A695B
:101D80006867666564636261605F5E5D5C5B5A594B
:101D900058585756555453525150504F4E4D4C4B26
:101DA0004A4A4948474646454443424241403F3EED
:101DB0003E3D3C3B3B3A39383837363535343332A3
:101DC000323130302F2E2E2D2C2B2B2A292928274B
:101DD0002726252524232322212120201F1E1E1DE6
:101DE0001C1C1B1B1A191918181716161515141375
:101DF0001312121111100F0F0E0E0D0D0C0C0B0AF9
:101E00000A09090808070706060505040403030272
:101E10000201000024F4D43050C38E20C2A2401727
:101E2000828B7011127A910D816CD90AA861E10838
:101E3000C7586607615143061E4B5D05C145A7049F
:101E40001A411104093D9803713931034036DB0210
:101E500065339102D4305402802E1D02632CEE01B2
:101E6000752AC501B028A001102781018F256401C2
:101E70002B244B01E0223401AC211F018D200D01E8
:101E8000801FFC00841EED00971DDF00B81CD200EF
:101E9000E61BC600201BBC00641AB200B219A800E1
:101EA0000A19A0006A189900D117910040178B00F9
:101EB000B516840031167E00B31579003A1573000B
:101EC000C7146F0058146A00EE136600881363008D
:101ED00025135E00C7125B006C12570015125400E8
:101EE000C111510070114F0021114B00D610490053
:101EF0008D1047004610440002104200C00F400001
:101F0000800F3E00420F3C00060F3B00CB0E380016
:101F1000930E37005C0E3500270E3400F30D3200AF
:101F2000C10D3100900D3000600D2E00320D2D00DE
:101F3000050D2C00D90C2B00AE0C2900850C2900B6
:101F40005C0C2700350C27000E0C2600E80B240043
:101F5000C40B2400A00B23007D0B23005A0B21008F
:101F6000390B2100180B2000F80A1F00D90A1E00A7
:101F7000BB0A1E009D0A1D00800A1D00630A1C008A
:101F8000470A1B002C0A1B00110A1A00F7091A0045
:101F9000DD091900C4091900AB09190092091700DD
:101FA0007B091800630917004C0916003609160052
:101FB000200916000A091500F5081500E0081400AC
:101FC000CC081400B8081400A408140090081300EA
:101FD0007D0812006B081300580812004608120012
:101FE0003408110023081100120811000108110023
:101FF000F0071000E0071000D0071000C007100025
:10200000B0070F00A107100091070E0083070F0013
:1020100074070F0065070E0057070E0049070E00F2
:102020003B070D002E070E0020070D0013070D00C3
:1020300006070D00F9060C00ED060D00E0060C0089
:10204000D4060C00C8060C00BC060C00B0060C0040
:10205000A4060B0099060C008D060B0082060B00EF
:1020600077060B006C060B0061060A0057060B0092
:102070004C060A0042060A0038060A002E060A002C
:1020800024060A001A060A001006090007060A00BC
:10209000FD050900F4050900EB050900E20509004A
:1020A000D9050900D0050900C7050900BE050900CA
:1020B000B5050800AD050800A50509009C05080048
:1020C000940508008C050800840508007C050800BC
:1020D000740508006C050700650508005D0507002C
:1020E000560508004E050700470507004005080093
:1020F00038050700310507002A05070023050700FA
:102100001C050600160507000F0507000805060058
:1021100002050700FB040600F5040700EE040600B4
:10212000E8040600E2040700DB040600D50406000C
:10213000CF040600C9040600C3040600BD0406005F
:10214000B7040600B1040500AC040600A6040600AE
:10215000A00405009B0406009504050090040600F9
:102160008A04050085040500800406007A04050041
:1021700075040500700405006B0405006604050085
:10218000610405005C0405005704050052040500C5
:102190004D04050048040500430405003E04040006
:1021A0003A04050035040500300404002C04050041
:1021B00027040400230405001E0404001A0404007C
:1021C00016040500110404000D04040009040500B0
:1021D0000404040000040400FC030400F8030400E9
:1021E000F4030400F0030400EC030400E80304001B
:1021F000E4030400E0030400DC030400D80304004B
:10220000D4030400D0030400CC030400C80303007B
:10221000C503030024F404D9201BC40C5C0E9804ED
:10222000C4095F0265077101F405F900FB04B300FE
:1022300048048700C10369005803550003034500A3
:10224000BE023A008402310053022A00290225000E
:1022500004022000E4011C00C8011900AF011700AE
:102260009801140084011300710110006101100035
:1022700051010E0043010D0036010B002B010B0034
:1022800020010B00150109000C01090003010800E1
:10229000FB000800F3000800EB000700E400060064
:1022A000DE000600D8000600D2000600CC000500C3
:1022B000C7000500C2000500BD000400B90004000D
:1022C000B5000400B1000400AD000400A900040042
:1022D000A5000300A20003009F0004009B00030070
:1022E0009800030095000200930003009000030093
:1022F0008D0002008B0003008800020086000200AF
:1023000084000300810002007F0002007D000200C3
:102310007B000200790002007700010076000200D5
:102320007400020072000100710002006F000200E0
:102330006D0001006C0002006A00010069000200EB
:1023400067000100660001006500010064000200F2
:102350006200010061000100600001005F000200F6
:102360005D0001005C0001005B0001005A000100FB
:1023700059000100580001005700010056000100FB
:1023800055000100540001005300000053000100FB
:102390005200010051000100500001004F000100F7
:1023A0004E0000004E0001004D0001004C000100F5
:1023B0004B0000004B0001004A00010049000100F1
:1023C00048000000480001004700010046000000EE
:1023D00046000100450000004500010044000100E6
:1023E00043000000430001004200000042000100E1
:1023F0004100000041000100400001003F000000DA
:102400003F0001003E0000003E0001003D000000D2
:102410003D0001003C0000003C0000003C000100C9
:102420003B0000003B0001003A0000003A000100C0
:1024300039000000390001003800000038000000B9
:1024400038000100370000003700010036000000AE
:1024500036000000360001003500000035000000A5
:102460003500010034000000340000003400010099
:102470003300000033000000330001003200000090
:102480003200000032000100310000003100000085
:102490003100010030000000300000003000010079
:1024A0002F0000002F0000002F0000002F0001006F
:1024B0002E0000002E0000002E0001002D00000064
:1024C0002D0000002D0000002D0001002C00000058
:1024D0002C0000002C0000002C0001002B0000004C
:1024E0002B0000002B0000002B0001002A00000040
:1024F0002A0000002A0000002A0001002900000034
:102500002900000029000000290000002900010026
:10251000280000002800000028000000280000001B
:10252000280001002700000027000000270000000D
:102530002700000027000100260000002600000000
:1025400026000000260000002600010025000000F3
:1025500025000000250000002500000025000000E7
:1025600025000100240000002400000024000000D9
:1025700024000000240001002300000023000000CC
:1025800023000000230000002300000023000000BF
:1025900023000100220000002200000022000000B1
:1025A00022000000220000002200010021000000A3
:1025B0002100000021000000210000002100000097
:1025C0002100000021000100200000002000000088
:1025D000200000002000000020000000200000007B
:1025E00020000000200001001F0000001F0000006C
:1025F0001F0000001F0000001F0000001F0000005F
:102600001F0001001E0000001E0000001E00000050
:102610001E000000232C0000B82200005618000005
:102620003A0F0000B8080000B10400007102000079
:102630003E010000004265640045310062656400AF
:102640002C2073797374656D2073746F707065647A
:1026500021204865617465725F49443A20004865ED
:102660006174696E67206661696C656400546865B1
:10267000726D616C2052756E617761790048656199
:1026800074696E67204661696C65640048656174B1
:10269000696E67206661696C656400546865726D77
:1026A000616C2052756E6177617900544845524DD6
:1026B000414C2052554E4157415900546865726D46
:1026C000616C2052756E61776179004572723A20B3
:1026D0004D415854454D50004D415854454D5020A2
:1026E000747269676765726564004572723A204D5D
:1026F000494E54454D50004D494E54454D5020745F
:102700007269676765726564004D383420582059D6
:10271000205A204500202F002042403A0020403A15
:102720000020573A0043616E6E6F74206F70656EC3
:10273000207375626469722000534420636172647F
:10274000206F6B0A006F70656E526F6F7420666148
:10275000696C65640A00766F6C756D652E696E69CB
:1027600074206661696C65640A00534420696E696F
:1027700074206661696C0A004D3234004D3233209A
:1027800025730046696C652073656C6563746564C8
:102790000A002053697A653A200046696C65206F0B
:1027A00070656E65643A2000454E44205355425290
:1027B0004F5554494E450A002220706F7300222065
:1027C000706172656E743A2200535542524F5554EF
:1027D000494E452043414C4C207461726765743A00
:1027E0002200747279696E6720746F2063616C6C6B
:1027F000207375622D67636F64652066696C65730D
:10280000207769746820746F6F206D616E79206C19
:102810006576656C732E204D4158206C6576656C2D
:102820002069733A310A002E0A006F70656E2066C7
:1028300061696C65642C2046696C653A20005772AA
:102840006974696E6720746F2066696C653A200050
:10285000667265736800646F696E67002066696CF4
:10286000653A20004E6F7720007C3C3E5E2B3D3F5A
:102870002F5B5D3B2C2A225C0000002100240027F6
:10288000002A002D00300033000101000004010780
:10289000010A0100002200250028002B002E003133
:1028A00000340002010000050108010B01000020B6
:1028B000002300260029002C002F00320000010018
:1028C00000030106010901050505050705080808BB
:1028D00008020202020A0A080804040404010101B1
:1028E00001010101010303030303030303040707B9
:1028F000070C0C0C0C0C0C0C0C0202020206060657
:1029000006060606060B0B0B0B0B0B0B0B0102103E
:1029100020200808102040102040800201020108F9
:1029200004020101020408102040808040201008A9
:102930000402018004020180402010080402010802
:102940000402010102040810204080010204081062
:1029500020408000000A0B02090C0D0E080703043A
:102960000100000000000000000000000000000066
:102970000000000000000000000000000000001245
:102980001110000000000000000000000000000026
:10299000000000000000000000687474703A2F2FDF
:1029A0006D61726C696E66772E6F72670068747401
:1029B000703A2F2F6D61726C696E66772E6F726739
:1029C00000687474703A2F2F6D61726C696E66774F
:1029D0002E6F726700322E302E3200322E302E32A1
:1029E00000322E302E3200687474703A2F2F6D61D1
:1029F000726C696E66772E6F726700687474703AD5
:102A00002F2F6D61726C696E66772E6F726700682A
:102A10007474703A2F2F6D61726C696E66772E6FC9
:102A200072670020322E302E32002020506C616EF2
:102A30006E657242756666657242797465733A2096
:102A4000002046726565204D656D6F72793A2000F1
:102A5000436F6D70696C65643A204A616E2032384C
:102A600020323032300A00204C617374205570647B
:102A7000617465643A20323032302D30312D323776
:102A8000207C20417574686F723A20286E6F6E65E5
:102A90002C2064656661756C7420636F6E6669676F
:102AA000290A00322E302E320A004D61726C696E96
:102AB0000020536F66747761726520526573657488
:102AC0000A00205761746368646F672052657365FC
:102AD000740A002042726F776E206F757420526501
:102AE0007365740A002045787465726E616C2052BB
:102AF000657365740A00506F77657255700A0073CC
:102B0000746172740A006175746F25632E670047E3
:102B100032385859006572726F7220777269746921
:102B20006E6720746F2066696C650A00446F6E657D
:102B300020736176696E672066696C652E0A004DA8
:102B4000323900456E6473746F707300255320250D
:102B50006320256320256320256300205A3A002046
:102B6000593A0020583A00656E6473746F70732090
:102B70006869743A2000434F4D4D554E49434154C6
:102B8000494F4E0044525952554E004552524F52F1
:102B90005300494E464F004543484F0070012C01F9
:102BA00090012701B0012201C0011D01F0011801AF
:102BB0001002130130020E016002090190020401AB
:102BC000C002FF000003FA004003F5008003F0009C
:102BD000D003EB002004E6007004E100E004DC0018
:102BE0004005D700C005D2004006CD00D006C80081
:102BF0008007C3003008BE00F008B900C009B40067
:102C0000B00AAF00B00BAA00D00CA500000EA000C7
:102C1000500F9B00C01096005012910000148C00C1
:102C2000C0158700B0178200B0197D00D01B780056
:102C3000001E730040206E0090226900F0246400A2
:102C400040275F0090295A00E02B5500102E5000BD
:102C500020304B0010324600E033410090353C00FC
:102C60001037370070383200A0392D00B03A2800F4
:102C7000A03B2300603C1E00103D1900903D140055
:102C8000103E0F00703E0A00C03E0500003F0000ED
:102C9000403FFBFF803FF6FFC03FF1FF4D6F766581
:102CA0002025736D6D00004D6F766520302E316DDF
:102CB0006D004D6F766520316D6D004D6F7665202E
:102CC00031306D6D004D6F76652041786973004835
:102CD0006F74656E6420746F6F20636F6C64004561
:102CE00078747275646572004D6F7665205A004D78
:102CF0006F76652059004D6F7665205800507269D7
:102D00006E742066726F6D204D6564696100496E56
:102D100076616C69642065787472756465720A0006
:102D20003F4B2076616C7565206F7574206F66204F
:102D300072616E67652028302D3130292E0A0041DE
:102D40006476616E6365204B3D00454550524F4DA2
:102D5000204F4B0A004F6666736574732041707094
:102D60006C696564004572723A20546F6F20666129
:102D7000722100546F6F206661722066726F6D2041
:102D80007265666572656E636520706F696E740A40
:102D900000FF01FF000000000000484300000000A9
:102DA000426564204C6576656C696E6720004661FB
:102DB000696C656420746F20656E61626C65204289
:102DC0006564204C6576656C696E670A00426564CF
:102DD000204C6576656C20436F7272656374696F11
:102DE0006E204D61747269783A0064697300656E93
:102DF0000043290A0061626C656420286D696E20B9
:102E000074656D702000436F6C6420657874727512
:102E100064657320617265200020643A0020693A7D
:102E20000020703A00496E76616C696420657874A0
:102E300072756465720A0020466C6F773A20004F05
:102E40004646004F4E0020580020204D61783A2021
:102E500000200020204D696E3A2000536F667420D8
:102E6000656E6473746F70733A20003F4A206F750B
:102E700074206F662072616E67652028302E3031B5
:102E800020746F20302E33290A0020540020520075
:102E9000416363656C65726174696F6E3A205000BE
:102EA0004D31343520533C696E6465783E206F7532
:102EB00074206F662072616E67652028302D31297D
:102EC0000A002F2F20004348414D4245525F544590
:102ED0004D5045524154555245004D4F54494F4E67
:102EE0005F4D4F44455300544845524D414C5F504F
:102EF000524F54454354494F4E004155544F52454B
:102F0000504F52545F53445F5354415455530050F3
:102F1000524F4D50545F535550504F525400454DF1
:102F2000455247454E43595F504152534552004325
:102F30004153455F4C494748545F425249474854C2
:102F40004E45535300544F47474C455F4C49474803
:102F5000545300534F4654574152455F504F5745C5
:102F600052004255494C445F50455243454E54002F
:102F70004C4556454C494E475F44415441005A5FC9
:102F800050524F4245004155544F4C4556454C0018
:102F90005052494E545F4A4F420050524F4752459B
:102FA0005353004155544F5245504F52545F54456E
:102FB0004D5000564F4C554D4554524943004545E0
:102FC00050524F4D0042494E4152595F46494C457F
:102FD0005F5452414E534645520053455249414C6D
:102FE0005F584F4E5F584F4646004649524D574135
:102FF00052455F4E414D453A4D61726C696E2032CB
:103000002E302E3220284769744875622920534F8C
:10301000555243455F434F44455F55524C3A68749F
:103020007470733A2F2F6769746875622E636F6DC1
:103030002F4D61726C696E4669726D776172652F92
:103040004D61726C696E2050524F544F434F4C5F2C
:1030500056455253494F4E3A312E30204D41434848
:10306000494E455F545950453A5246313030205808
:103070004C2045585452554445525F434F554E5489
:103080003A3120555549443A636564653261326688
:103090002D343161322D343734382D396231322DAF
:1030A0006335356336326633363766660A00524614
:1030B00031303020584C204F46462E0020573A00E1
:1030C00042656420436F6F6C696E672E2E2E00423E
:1030D00065642048656174696E672E2E2E004D313F
:1030E00031332053004D3131322053687574646F91
:1030F000776E006F666600972B922B8B2B842B7656
:103100002B44454255473A006F6B00436F6F6C6923
:103110006E672E2E2E0048656174696E672E2E2E06
:1031200000452025530050726F74656374656420F8
:1031300050696E0A002569730025696D2025697341
:10314000002569682025696D20256973002569645B
:10315000202569682025696D202569730025697916
:1031600020256964202569682025696D20256973FB
:10317000005072696E742074696D653A20002E0AE1
:103180000044656C6574696F6E206661696C656486
:103190002C2046696C653A200046696C65206465A0
:1031A0006C657465643A00286E6F2066696C6529E9
:1031B0000043757272656E742066696C653A200012
:1031C0005344207072696E74696E67206279746509
:1031D00020004E6F74205344207072696E74696EC3
:1031E000670A00456E642066696C65206C697374BB
:1031F0000A00426567696E2066696C65206C6973B8
:10320000740A004E6F204D6F76652E00436C696323
:103210006B20746F20526573756D652E2E2E0053D2
:103220006C6565702E2E2E0047322F473320626169
:103230006420706172616D65746572730A00207438
:103240006F6F206C6F6E6720657874727573696F2D
:103250006E2070726576656E7465640A0020636F17
:103260006C6420657874727573696F6E2070726516
:1032700076656E7465640A00220A00556E6B6E6F87
:10328000776E20636F6D6D616E643A202200486F27
:103290006D6520257325732573204669727374004C
:1032A00020746F6F206C6F6E672065787472757311
:1032B000696F6E2070726576656E7465640A0020B1
:1032C000636F6C6420657874727573696F6E2070BB
:1032D000726576656E7465640A00204500205A00A8
:1032E000205900204D39322058002E0A006F706599
:1032F0006E206661696C65642C2046696C653A20B5
:10330000000001F577EE11241FBECFEFD1E2DEBF42
:10331000CDBF00E00CBF13E0A0E0B2E0E2EEF8E0C9
:1033200002E00BBF02C007900D92A236B107D9F799
:1033300024E1A2E6B3E001C01D92A13CB207E1F78F
:1033400019E1C2E8D9E100E006C021970109802F08
:10335000FE010F94D303C138D10780E00807A9F715
:103360000E94C1EE0D9460040C9400008091510500
:1033700081110AC080913F04813041F08091231473
:1033800082FB882780F9089580E0089581E0089500
:103390004F925F926F927F928F929F92AF92BF9265
:1033A000CF92DF92EF92FF92CF93DF93CDB7DEB74C
:1033B00062970FB6F894DEBF0FBECDBF9A8B898B94
:1033C000DB01FA012D913D914D915C911397298379
:1033D0003A834B835C8324813581468157812D83D9
:1033E0003E834F83588714964D905D906D907C90EE
:1033F0001797208131814281538129873A874B87F2
:103400005C8718968D909D90AD90BC901B97C08462
:10341000D184E284F384A7019601C301B2010E9422
:10342000B6FA6D877E878F87988BA50194016D8191
:103430007E818F8198850E94B6FA9B01AC016D85D3
:103440007E858F8598890F94B600E989FA89608313
:10345000718382839383A501940169857A858B8525
:103460009C850E94B6FA4B015C01A7019601698117
:103470007A818B819C810E94B6FA9B01AC01C501C7
:10348000B4010F94B600E989FA8964837583868351
:1034900097832D813E814F81588569817A818B8107
:1034A0009C810E94B6FA6B017C0129853A854B8587
:1034B0005C85C301B2010E94B6FA9B01AC01C70151
:1034C000B6010F94B600E989FA896087718782870F
:1034D0009387CF0162960FB6F894DEBF0FBECDBFC3
:1034E000DF91CF91FF90EF90DF90CF90BF90AF90A2
:1034F0009F908F907F906F905F904F9008958F92E4
:103500009F92AF92BF92CF92DF92EF92FF92CF93B2
:10351000FC01C080D180E280F38020E030E0A9018E
:10352000C701B6010E9451FA87FF93C0C701B601D7
:10353000905820E030E048EC52E40E94B6FA20E0D7
:1035400030E040EA50E40F94B70020E030E040E281
:1035500051E40F9493010F94FB016B017C0180E215
:1035600080931E0460E2F0E1CF16F7E2DF06E1048B
:10357000F1048CF0C701B60120E137E240E050E0F1
:103580000F94B703CA01B9012AE030E040E050E0EF
:103590000F94B703605D60931F0460E288EEC81665
:1035A00083E0D806E104F1048CF0C701B60128EEEF
:1035B00033E040E050E00F94B703CA01B9012AE0BC
:1035C00030E040E050E00F94B703605D609320046A
:1035D00060E2E4E6CE16D104E104F1048CF0C70108
:1035E000B60124E630E040E050E00F94B703CA0192
:1035F000B9012AE030E040E050E00F94B703605D8D
:10360000609321048AE0882E912CA12CB12CC70153
:10361000B601A50194010F94B703C62FCA01B901E1
:10362000A50194010F94B703605D609322048EE2BC
:1036300080932304C05DC09324048EE194E0CF9175
:10364000FF90EF90DF90CF90BF90AF909F908F90C2
:10365000089520E030E048EC52E4C701B6016DCF98
:10366000CF92DF92EF92FF92FC01C080D180E28086
:10367000F38020E030E0A901C701B6010E9451FAB1
:1036800087FF69C0C701B601905820E030E040E2F2
:1036900051E40E94B6FA20E030E040EA50E40F9492
:1036A000B70020E030E040E251E40F9493010F9422
:1036B000FB01FB01E03187E2F80708F453C0CF01BA
:1036C00060E177E20F94900380E3860F80932004FB
:1036D000E83E83E0F80708F447C0CF0168EE73E0E6
:1036E0000F949003CB016AE070E00F949003805D2B
:1036F0008093210480E2E436F10558F0CF0164E6BE
:1037000070E00F949003CB016AE070E00F94900397
:10371000805D8093220480E2EA30F10558F02AE0CF
:1037200030E0CF01B9010F949003CB01B9010F94A0
:103730009003805D80932304CF016AE070E00F94D2
:103740009003805D8093240480E294E0FF90EF90EA
:10375000DF90CF90089520E030E040E251E4C701CF
:10376000B60197CF80E2B2CF80E2C2CF8F929F9214
:10377000AF92BF92CF92DF92EF92FF92CF93C62F7C
:10378000FC01C080D180E280F38020E030E44CE195
:1037900056E4C701B6010E94B6FA4B015C0120E075
:1037A00030E0A901C701B6010E9451FA20E030E0E3
:1037B00040EA50E487FF04C020E030E040EA50ECEB
:1037C000C501B4010F94B70020E030E040E251E4BD
:1037D0000F9493010F94FB016B017C01C114D10480
:1037E000E104F10409F456C0F7FE09C0F094E09436
:1037F000D094C094C11CD11CE11CF11CCDE2C0933B
:103800001F04C701B60128EE33E040E050E00F94FA
:10381000B7038AE0882E912CA12CB12CCA01B901E2
:10382000A50194010F94B703605D609320048EE2BC
:1038300080932104C701B60124E630E040E050E067
:103840000F94B703CA01B901A50194010F94B703FE
:10385000605D60932204C701B601A50194010F9435
:10386000B703C62FCA01B901A50194010F94B7038C
:10387000605D60932304C05DC09324048FE194E0F5
:10388000CF91FF90EF90DF90CF90BF90AF909F903F
:103890008F900895C0E2B3CF8F929F92AF92BF9264
:1038A000CF92DF92EF92FF92FC01C080D180E28044
:1038B000F38020E030E048EC52E4C701B6010E94FA
:1038C000B6FA4B015C0120E030E0A901C701B60166
:1038D0000E9451FA20E030E040EA50E487FF04C043
:1038E00020E030E040EA50ECC501B4010F94B7008D
:1038F00020E030E040E251E40F9493010F94FB018B
:103900009B018BE237FF05C022273327261B370B8D
:103910008DE280931F04C90168EE73E00F94A40345
:10392000CB01EAE0F0E0BF010F94A403805D809337
:103930002004C90164E670E00F94A403CB01BF0129
:103940000F94A403805D80932104C901BF010F94EB
:10395000A403282FCB01BF010F94A403805D8093A3
:1039600022048EE280932304205D209324048FE1BF
:1039700094E0FF90EF90DF90CF90BF90AF909F903A
:103980008F9008958F929F92AF92BF92CF92DF92C5
:10399000EF92FF92CF93FC01C080D180E280F38050
:1039A00020E030E04AE754E4C701B6010E94B6FACD
:1039B0004B015C0120E030E040E251ECC701B60170
:1039C0000E9451FA181654F420E030E048EC52E41A
:1039D000C701B6010F94DD0287FD86C020E030E00C
:1039E000A901C701B6010E9451FA87FF6EC060E0CD
:1039F00070E080EA90ECA50194010F94B70020E0FC
:103A000030E040E251E40F9493010F94FB016B010D
:103A10007C01F7FC5FC020E137E240E050E00F940A
:103A2000B703CA01B9012AE030E040E050E00F944A
:103A3000B703605D60931F04C701B60128EE33E051
:103A400040E050E00F94B7039AE0892E912CA12C0E
:103A5000B12CCA01B901A50194010F94B703605DAF
:103A600060932004C701B60124E630E040E050E056
:103A70000F94B703CA01B901A50194010F94B703CC
:103A8000605D609321048EE280932204C701B60139
:103A9000A50194010F94B703C62FCA01B901A5016E
:103AA00094010F94B703605D60932304C05DC093DD
:103AB00024048FE194E0CF91FF90EF90DF90CF90BE
:103AC000BF90AF909F908F90089560E070E080EA83
:103AD00090E491CFF094E094D094C094C11CD11C98
:103AE000E11CF11C6DE2A6CF20E030E0A901C70186
:103AF000B6010E9451FA87FF6AC060E070E080EA78
:103B000090ECA50194010F94B70020E030E040E272
:103B100051E40F9493010F94FB014B015C0120E0F1
:103B200030E0A901C701B6010F94DD0287FD0BC08B
:103B300020E030E040E251E4C701B6010E9451FAB2
:103B400060E287FD13C0B7FC47C0C501B40128EE91
:103B500033E040E050E00F94B703CA01B9012AE016
:103B600030E040E050E00F94B703605D60932004C4
:103B7000C501B40124E630E040E050E00F94B70303
:103B80008AE0C82ED12CE12CF12CCA01B901A70181
:103B900096010F94B703605D609321048EE28093D9
:103BA0002204C501B401A70196010F94B703C62FE3
:103BB000CA01B901A70196010F94B703605D609334
:103BC0002304C05DC093240480E294E074CF60E0DD
:103BD00070E080EA90E495CFB094A09490948094A3
:103BE000811C911CA11CB11C6DE2C0CF9C0197FFF0
:103BF00026C0EE27FF27E81BF90B2D398FEF38077A
:103C00000CF05DC08DE280932104CF0164E670E08A
:103C10000F94A403CB012AE030E0B9010F94A40370
:103C2000805D80932204CF01B9010F94A403CB01DE
:103C3000B9010F94A403805D809323042AC0283E19
:103C400083E03807B4F1C90168EE73E00F94A40370
:103C5000CB01EAE0F0E0BF010F94A403805D809304
:103C60002104C90164E670E00F94A403CB01BF01F5
:103C70000F94A403805D80932204C901BF010F94B7
:103C8000A403CB01BF010F94A403805D80932304A0
:103C9000F901CF016AE070E00F94A403805D809386
:103CA000240481E294E008958DE237FDC5CF80E2DF
:103CB000C3CFF90180E2243631050CF0A4CF80E2B5
:103CC0008093210480932204EA30F1056CF38DE2A5
:103CD00037FF80E280932204CF016AE070E00F9406
:103CE000A403605D60932304D4CF9C01EAE0F0E07C
:103CF000BF010F94A403805D809324042A30310512
:103D0000CCF0CB01BF010F94A403805D809323040A
:103D10002436310594F0C90164E670E00F94A403E1
:103D2000CB01BF010F94A403805D8093220482E243
:103D300094E0089584E294E0089583E294E0089585
:103D40009C0197FD2DC080E2243631055CF0C9014D
:103D500064E670E00F94A403CB016AE070E00F9476
:103D6000A403805D8093220480E22A3031055CF058
:103D7000EAE0F0E0C901BF010F94A403CB01BF0149
:103D80000F94A403805D80932304C9016AE070E06E
:103D90000F94A403805D8093240482E294E008954C
:103DA0003195219531098DE2DDCF24E6829FC00156
:103DB000112481589F4F6FEF70E00F94A403262FBA
:103DC00081E3643609F080E28093210490E22A3096
:103DD00040F03AE0822F632F0F9484030F94840302
:103DE000905D90932204822F6AE00F948403905D8B
:103DF0009093230485E28093240481E294E0089563
:103E000060912B0270912C02072E000C880B990BED
:103E10000E9457FA2AE037ED43E25CE30E94B6FACB
:103E200020918A0830918B0840918C0850918D0820
:103E30000E94B6FA609364027093650280936602F2
:103E40009093670208950C94102C80911914882384
:103E5000C1F0815080931914E6EAF2E1882351F011
:103E60008150990B2BE1289FF001299FF00D11241F
:103E7000E55FFC4E8BE1ABE8B2E101900D928A95D3
:103E8000E1F720911914211105C08091231480625B
:103E90008093231481E090E0A0E0B0E0211103C002
:103EA00080E090E0DC018093190890931A08A093B9
:103EB0001B08B0931C081092110881E08093290818
:103EC00083E080934C020895CF92DF92EF92FF92AD
:103ED00023EF34E045E35FE36091FC087091FD0857
:103EE0008091FE089091FF080E94B6FA6B017C0158
:103EF00060919B1170919C1180919D1190919E11E8
:103F00000E9455FA9B01AC01C701B6010E94B6FAA6
:103F100029E732E84AE550E40E94B6FA0F942303F9
:103F200060931409709315098093160990931709EB
:103F3000FF90EF90DF90CF9008958091C412909100
:103F4000C512891B8F7009F411CA81E00895CF93BF
:103F5000DF93EC01CB01BA010E9457FA20E030E078
:103F600048EC51E40E94B6FA0F940002688379830A
:103F70008A839B83DF91CF910895CF93DF93EC01E8
:103F8000CB01BA010E9457FA2DEC3CEC4CEC5DE3FE
:103F90000E94B6FA688379838A839B83DF91CF91ED
:103FA0000895CF93DF9300D01F92CDB7DEB70E9464
:103FB00057FA2DEC3CEC4CEC5DE30E94B6FA6983B9
:103FC0007A838B839C83CE01019699DA0F900F90B0
:103FD0000F900F90DF91CF910895CF93DF93EC0175
:103FE000CB01BA010E9457FA20E030E048EC51E4DE
:103FF0000E94B6FA688379838A839B83DF91CF918D
:104000000895CF93DF9300D01F92CDB7DEB70E9403
:1040100057FA20E030E048EC51E40E94B6FA698398
:104020007A838B839C83CE0101961ADB0F900F90CD
:104030000F900F90DF91CF910895CF93DF9300D031
:104040001F92CDB7DEB70E9457FA69837A838B83BC
:104050009C83CE01019604DB0F900F900F900F9080
:10406000DF91CF910895CF93DF93EC01CB01BA019B
:104070000E9457FA688379838A839B83DF91CF916B
:104080000895CF93DF93EC01CB01BA010E9457FA58
:10409000688379838A839B83DF91CF910895CF933F
:1040A000DF93EC01CB01BA010E9457FA2FE632E10F
:1040B00043E85AE30E94B6FA688379838A839B8334
:1040C000DF91CF910895CF93DF9300D01F92CDB7AA
:1040D000DEB70E9457FA2FE632E143E85AE30E9426
:1040E000B6FA69837A838B839C8360E2CE01019662
:1040F0003DDB0F900F900F900F90DF91CF910895BF
:10410000CF93DF93EC01CB01BA010E9457FA2AE06A
:1041100037ED43E25CE30E94B6FA688379838A83D1
:104120009B83DF91CF910895CF93DF9300D01F92AF
:10413000CDB7DEB70E9457FA2AE037ED43E25CE3E1
:104140000E94B6FA69837A838B839C83CE010196A1
:1041500019DC0F900F900F900F90DF91CF91089581
:104160000E9457FA0F94FB01CB01EACDCF93DF9366
:10417000EC01CB01BA010E9457FA0F94FB0179833D
:104180006883DF91CF9108950E9457FA23E333E3C8
:1041900043E250E40E94B6FA0F940002862F05CE47
:1041A000CF93DF93EC01CB01BA010E9457FA23E3CE
:1041B00033E343E250E40E94B6FA0F9400026883AE
:1041C000DF91CF910895CF93DF9300D01F92CDB7A9
:1041D000DEB70F9400020E9455FA69837A838B83BD
:1041E0009C83CE0101963CDA0F900F900F900F90B8
:1041F000DF91CF9108950E9457FA20E030E048EC1B
:1042000051E40E94B6FADFCFCF92DF92EF92FF9295
:104210006B017C0120E030E0A9010E9451FA20E00E
:1042200030E040E05FE387FF04C020E030E040E0A2
:104230005FEBC701B6010F94B7000F94FB01CB01F0
:10424000FF90EF90DF90CF907BCD0E9457FADCCFAC
:10425000FC0180810895FC0184910895AF92BF9282
:10426000CF92DF92EF92FF920F931F93CF93DF9342
:10427000EC015B018A01FB01199587FD16C0C82E70
:10428000D12CF12CE12C2196F801C082D182E2825E
:10429000F382CE01DF91CF911F910F91FF90EF90AC
:1042A000DF90CF90BF90AF900895982F907E903C74
:1042B000A9F48F7190E0B0E0A0E06C017D0126E0F0
:1042C000CC0CDD1CEE1CFF1C2A95D1F7CE0101960B
:1042D000F50119958F73C82A2296D6CF982F907F13
:1042E000903E11F58F7090E0B0E0A0E06C017D0190
:1042F00086E0CC0CDD1CEE1CFF1C8A95D1F7CE01AC
:104300000196F50119958F73C82A96E0CC0CDD1C37
:10431000EE1CFF1C9A95D1F7CE010296F501199576
:104320008F73C82A2396B0CF982F987F903F79F546
:10433000877090E0B0E0A0E06C017D01F6E0CC0C6D
:10434000DD1CEE1CFF1CFA95D1F7CE010196F5019C
:1043500019958F73C82AA6E0CC0CDD1CEE1CFF1C3F
:10436000AA95D1F7CE010296F50119958F73C82A47
:10437000B6E0CC0CDD1CEE1CFF1CBA95D1F7CE01CB
:104380000396F50119958F73C82A24967DCF982F2F
:104390009C7F983FE1F5837090E0B0E0A0E06C0175
:1043A0007D0156E0CC0CDD1CEE1CFF1C5A95D1F7AC
:1043B000CE010196F50119958F73C82A66E0CC0CE1
:1043C000DD1CEE1CFF1C6A95D1F7CE010296F501AB
:1043D00019958F73C82A76E0CC0CDD1CEE1CFF1CEF
:1043E0007A95D1F7CE010396F50119958F73C82AF6
:1043F000E6E0CC0CDD1CEE1CFF1CEA95D1F7CE01EB
:104400000496F50119958F73C82A25963DCF982FEC
:104410009E7F9C3F09F049C0817090E0B0E0A0E031
:104420006C017D0186E0CC0CDD1CEE1CFF1C8A9526
:10443000D1F7CE010196F50119958F73C82A96E040
:10444000CC0CDD1CEE1CFF1C9A95D1F7CE01029618
:10445000F50119958F73C82A26E0CC0CDD1CEE1CE3
:10446000FF1C2A95D1F7CE010396F50119958F739C
:10447000C82A36E0CC0CDD1CEE1CFF1C3A95D1F7A7
:10448000CE010496F50119958F73C82A46E0CC0C2D
:10449000DD1CEE1CFF1C4A95D1F7CE010596F501F7
:1044A00019958F73C82A2696EFCE982F907C903856
:1044B00041F4807C803869F42196CE01F50119958C
:1044C000F8CF8E7F8D3F28F02196CE01F50119950A
:1044D000F8CFC12CD12C7601D7CE9091C005E92F11
:1044E000F0E0E55AFB4E80839F5F943040F4909358
:1044F000C005809144078F5F809344070895109210
:10450000C005F7CF282F9091F408833021F495FD52
:104510000FC094FD0FC0892F90E0B0E0A0E004C070
:10452000B695A795979587952A95D2F781700895A6
:1045300081E0089580E008950C942E920C942E92C0
:104540000C942E920C942E924F925F926F927F92C7
:104550008F929F92AF92BF92CF92DF92EF92FF9293
:10456000CF93DF9300D000D0CDB7DEB79E838D838D
:10457000DC014D905D906D907C90139714968D901A
:104580009D90AD90BC90179718968D919D910D9030
:10459000BC91A02D89839A83AB83BC83A301920134
:1045A000C301B2010E94B6FA6B017C01A50194011E
:1045B000C501B4010E94B6FA9B01AC01C701B60166
:1045C0000F94B7006B017C0129813A814B815C819A
:1045D000CA01B9010E94B6FA9B01AC01C701B6013C
:1045E0000F94B7000F9423039B01AC0160E070E0CF
:1045F00080E89FE30F9493016B017C01AC019B0168
:10460000C301B2010E94B6FAED81FE81608371831D
:1046100082839383A7019601C501B4010E94B6FA73
:10462000AD81BE8114966D937D938D939C93179766
:10463000A701960169817A818B819C810E94B6FADB
:10464000ED81FE81608771878287938726960FB6FA
:10465000F894DEBF0FBECDBFDF91CF91FF90EF90FA
:10466000DF90CF90BF90AF909F908F907F906F9092
:104670005F904F9008950C94B0910C94B0910C946D
:10468000B0910C94B0910F931F930E94167C0091EF
:10469000291410912A1420912B1430912C140115F7
:1046A000110521053105D9F520912F142223A1F1FF
:1046B000E0912D14215020932F1421E02E0F2093F0
:1046C0002D1430913014231302C010922D1424E0C5
:1046D000E29FF0011124EF5CFB4E008111812281E9
:1046E00033810093251410932614209327143093BC
:1046F0002814600F711F811D911D60932914709300
:104700002A1480932B1490932C1480912714909149
:104710002814892B09F0409A1F910F910895601B6E
:10472000710B820B930B97FDF7CF409810922914D1
:1047300010922A1410922B1410922C14EDCFCF92B9
:10474000DF92EF92FF92CF93C82F0E94167C6B01ED
:104750007C0124EA30E74DE75FE360911A04709131
:104760001B0480911C0490911D040E9451FA87FD46
:1047700018C08AEF90E0A0E0B0E08C0D9D1DAE1D4A
:10478000BF1D8093150490931604A0931704B09353
:104790001804C0930402CF91FF90EF90DF90CF9068
:1047A000089580E090E0DC01E8CFCF92DF92EF92B5
:1047B000FF920F931F930E94167C0091B6031091F5
:1047C000B7032091B8033091B9036B017C01C01A83
:1047D000D10AE20AF30A9701860137FD11C0209140
:1047E000B50320952093B5036A547C4F8F4F9F4F9C
:1047F0006093B6037093B7038093B8039093B903A3
:1048000081E09091B503911101C080E01F910F915B
:10481000FF90EF90DF90CF900895CF92DF92EF92CC
:10482000FF920F931F93CF93DF9300D000D0CDB7AB
:10483000DEB78A0146E0469F9001479F300D112464
:10484000BC01620F731F46E050E0CE0101960E944A
:1048500090F9C980DA80EB80FC80F80140815181B9
:10486000628173818FEF9FEFC416D506E606F706C7
:1048700040F081E090E04C155D056E057F0508F085
:1048800080E026960FB6F894DEBF0FBECDBFDF9155
:10489000CF911F910F91FF90EF90DF90CF900895EF
:1048A0000C9481B70C9481B765E27AE383E00C94B1
:1048B00009EC60ED7BE382E00C9409EC64ED7BE3B2
:1048C00081E00C9409EC68ED7BE380E00C9409EC4A
:1048D000EF92FF920F931F9383EAE82E82E1F82E66
:1048E00010E000E02FE633E143EE5CE265EA72E1BE
:1048F0008AEA92E10E9464D21F910F91FF90EF909B
:104900000895EF92FF920F931F9388E7E82E8EE0B1
:10491000F82E10E000E02BE83EE047EF59E26AE7AE
:104920007EE081E89EE00E9464D21F910F91FF908B
:10493000EF900895CF92DF92EF92FF920F931F9323
:10494000CF93DF93CDB7DEB7CDB6DEB68091390811
:104950006CE278E0882311F069E378E0FB010190D4
:104960000020E9F7CF01861B970B01962DB73EB7C4
:10497000281B390B0FB6F8943EBF0FBE2DBF0DB7E5
:104980001EB70F5F1F4F80E2EDB7FEB78183C801EE
:1049900001960F94310482E9E82E83E1F82E24E990
:1049A00033E14FE85EE460EA73E187EA93E10E9455
:1049B00064D20FB6F894DEBE0FBECDBEDF91CF91AC
:1049C0001F910F91FF90EF90DF90CF9008950F937C
:1049D0001F93CF93DF938B01C4E5D2E02091640253
:1049E000309165024091660250916702FC0160813E
:1049F0007181828193810F9493012C853D854E8531
:104A00005F850F94B7006C877D878E879F87C8016D
:104A10000E9472A5DF91CF911F910F910C9451923A
:104A2000EF92FF920F931F93CF93DF9300D000D0AC
:104A30001F921F92CDB7DEB78E010F5F1F4FD801B7
:104A400030E020E0FB01E20FF31FE491ED932F5FD4
:104A50003F4F28303105B1F7877028E0829FC001B1
:104A6000112480640E942EB8780188E0E80EF11CC1
:104A7000F80161918F0181E494E10E94917DE0163B
:104A8000F106B1F728960FB6F894DEBF0FBECDBF82
:104A9000DF91CF911F910F91FF90EF9008950F93A9
:104AA0001F93CF93DF93CDB7DEB72E970FB6F89451
:104AB000DEBF0FBECDBF8A011E861D866F8378873D
:104AC00089879A872FEF2B876038710581059105BB
:104AD00038F481E494E10E94917D81E090E02FC060
:104AE0009E01235F3F4FAE01495F5F4F69EB70E06E
:104AF0008FE898E00E94DAB797FD2CC08D859E85DF
:104B000026E0289FB001299F700D11246157774F2F
:104B100046E050E0CE0101960E9490F96D8181E45B
:104B200094E10E94917D01301105B9F26E816623F6
:104B3000A1F281E494E10E94917D82E090E02E96C2
:104B40000FB6F894DEBF0FBECDBFDF91CF911F919E
:104B50000F9108959E01235F3F4FAE01495F5F4F64
:104B600060E670E08FE496E00E94DAB797FD0BC034
:104B70008D859E8526E0289FB001299F700D112408
:104B8000615B794FC5CF6FE3A4CF4F925F926F9275
:104B90007F928F929F92AF92BF92CF92DF92EF92CD
:104BA000FF920F931F93CF93DF9300D000D0CDB728
:104BB000DEB78090540290905502A0905602B090BB
:104BC0005702C0905802D0905902E0905A02F090DB
:104BD0005B0280915C0290915D02A0915E02B091B7
:104BE0005F0289839A83AB83BC830E94B0910E9449
:104BF000847802E117E1AEE2B2E0BE83AD8386E0E5
:104C0000682E87E1782E512C852D0E9479A4F80119
:104C100085919591A591B491ED81FE8181939193B8
:104C2000A193B193FE83ED83F30185919591A591B5
:104C3000B491ED81FE8180879187A287B3875394D9
:104C40000C5F1F4FF4E06F0E711C83E05812DCCF35
:104C500023EF34E045E35FE36091FC087091FD08C9
:104C60008091FE089091FF080E94B6FA2B013C014A
:104C700060919B1170919C1180919D1190919E115A
:104C80000E9455FA9B01AC01C301B2010E94B6FA21
:104C900029E732E84AE550E40E94B6FA0F9423036C
:104CA000609314097093150980931609909317095E
:104CB0000E942E92A50194016091540270915502B8
:104CC00080915602909157020E9451FA81111EC0A4
:104CD000A7019601609158027091590280915A0281
:104CE00090915B020E9451FA811110C020915C02E8
:104CF00030915D0240915E0250915F0269817A813C
:104D00008B819C810E9451FA8823C1F026960FB6B0
:104D1000F894DEBF0FBECDBFDF91CF911F910F91F1
:104D2000FF90EF90DF90CF90BF90AF909F908F90CB
:104D30007F906F905F904F900C947AAE26960FB64E
:104D4000F894DEBF0FBECDBFDF91CF911F910F91C1
:104D5000FF90EF90DF90CF90BF90AF909F908F909B
:104D60007F906F905F904F900895129A08955F9A88
:104D70008091DE088E7F8093DE088A9A8091DE081B
:104D80008D7F8093DE0880910801809581708093EB
:104D900006018091DE088B7F8093DE08E6CFCF92FC
:104DA000DF92EF92FF920F931F93CF93DF93CDB7D4
:104DB000DEB760970FB6F894DEBF0FBECDBF80910F
:104DC0006F00182F127081FF05C080916F008D7FDA
:104DD00080936F008091C5128093C4128093C31298
:104DE0008093C21284E68093C1120E947A9888EE62
:104DF00093E09093820F8093810F112329F080918B
:104E00006F00826080936F0081E0809340050E9474
:104E1000519281E00E94E9936B017C0180E00E9445
:104E2000E993609333047093340480933504909332
:104E30003604C0923704D0923804E0923904F092DC
:104E40003A0482E00E94E99360933B0470933C042F
:104E500080933D0490933E040091330410913404F8
:104E6000209135043091360409831A832B833C83C7
:104E700000913704109138042091390430913A049C
:104E80000D831E832F83388769877A878B879C875A
:104E90008091600290916102A0916202B0916302E0
:104EA0008D879E87AF87B88BCE0101960E94EB94C9
:104EB00080E1FE013196A4E5B2E001900D928A9561
:104EC000E1F70E9487A660960FB6F894DEBF0FBE8A
:104ED000CDBFDF91CF911F910F91FF90EF90DF90A9
:104EE000CF90089580913204811107C00E943AB793
:104EF000882319F081E08093320408952F923F9225
:104F00004F925F926F927F928F929F92AF92BF92D9
:104F1000CF92DF92EF92FF920F931F93CF93DF9385
:104F2000CDB7DEB72C970FB6F894DEBF0FBECDBF5E
:104F30009C878B878B011A013E832D83D9018D912C
:104F40009D910D90BC91A02D89839A83AB83BC83E6
:104F5000FA01C080D180E280F380DB018D909D90CA
:104F6000AD90BC90EB85FC852481358146815781CD
:104F7000C501B4010E94B6FA2B013C01AB85BC858A
:104F800050962D913D914D915C915397C701B6017B
:104F90000E94B6FA9B01AC01C301B2010F94B700A5
:104FA0002B013C01EB85FC85248D358D468D578D7D
:104FB00069817A818B819C810E94B6FA9B01AC0148
:104FC000C301B2010F94B7006F83788789879A87EE
:104FD000AB85BC8518962D913D914D915C911B97A9
:104FE000C501B4010E94B6FA2B013C01EB85FC859A
:104FF0002489358946895789C701B6010E94B6FAC6
:105000009B01AC01C301B2010F94B7002B013C011D
:10501000AB85BC8590962D913D914D915C91939778
:1050200069817A818B819C810E94B6FA9B01AC01D7
:10503000C301B2010F94B7002B013C01EB85FC8545
:105040002081318142815381C501B4010E94B6FAA9
:105050004B015C01AB85BC851C962D913D914D911A
:105060005C911F97C701B6010E94B6FA9B01AC0183
:10507000C501B4010F94B7006B017C01EB85FC8581
:10508000208D318D428D538D69817A818B819C81F8
:105090000E94B6FA9B01AC01C701B6010F94B7009C
:1050A000D8016D937D938D939C9313978F819885F1
:1050B000A985BA85F10180839183A283B383AD81F1
:1050C000BE814D925D926D927C9213972C960FB695
:1050D000F894DEBF0FBECDBFDF91CF911F910F912E
:1050E000FF90EF90DF90CF90BF90AF909F908F9008
:1050F0007F906F905F904F903F902F9008950F9307
:105100001F9380913F04813019F50E94167C009115
:105110002A0410912B0420912C0430912D04601B43
:10512000710B820B930B28EE33E040E050E00F94BC
:105130007B0060912604709127048091280490914F
:105140002904620F731F841F951F1F910F910895EB
:1051500060912E0470912F0480913004909131045D
:10516000D6CF10923F0410922A0410922B04109272
:105170002C0410922D0410922E0410922F041092E1
:1051800030041092310410922604109227041092D9
:10519000280410922904089580913F048130E1F0A1
:1051A0008230C1F4ACDF60932604709327048093AF
:1051B00028049093290481E080933F040E94167C88
:1051C00060932A0470932B0480932C0490932D04F5
:1051D00081E00895C6DFEFCF80E0089580913F041D
:1051E000813079F482E080933F040E94167C6093C2
:1051F0002E0470932F04809330049093310481E047
:10520000089580E0089580913F048150823070F4C9
:1052100010923F040E94167C60932E0470932F041A
:10522000809330049093310481E0089580E00895E4
:105230008F929F92AF92BF92CF92DF92EF92FF92A6
:105240000F931F93CF93DF93CDB7DEB760970FB661
:10525000F894DEBF0FBECDBF8B0140E050E068EC9C
:1052600072E449875A876B877C8740E050E060EAA8
:1052700070E44D875E876F87788B813009F18230CB
:1052800009F449C080905C0290905D02A0905E029B
:10529000B0905F02F801C084D184E284F384960167
:1052A000A701B401C5010E9451FA87FD02C0640143
:1052B0007501C601D70189839A83AB83BC834EC035
:1052C000BE01635F7F4FC80108960E9469A688E00F
:1052D000F801DE01119601900D928A95E1F7BE0169
:1052E000675F7F4FCE0101960E9449A60E947AAE69
:1052F00060960FB6F894DEBF0FBECDBFDF91CF91A1
:105300001F910F91FF90EF90DF90CF90BF90AF90E3
:105310009F908F900895F8012085318542855385AF
:1053200060915C0270915D0280915E0290915F02DB
:105330000F94B7006B017C0120E030E048E453E4B7
:105340000E9451FA87FD06C0C12CD12C88E4E82EBA
:1053500083E4F82EC982DA82EB82FC82BE01635FAD
:105360007F4FCE010196B1CF0F931F93CF93DF9361
:105370008C01EB0190912F1420913014921304C0F2
:1053800082D90E940A8EF6CF80912E1434E0839F3A
:10539000F0011124EF5CFB4E11830083D383C283A1
:1053A0009F5F90932F148F5F281739F080932E14EE
:1053B000DF91CF911F910F91089510922E14F8CF85
:1053C00063E972E084E690E0CFDF6AEB72E084E6A6
:1053D00090E0CACF8111F4CF68EB71E084E190E0F6
:1053E000C3CF0E948CA8F6CF0E943AB7F3CFCF93D9
:1053F0000E947EA70E948CA8C82F882319F080E005
:105400000E942FAF8C2FCF91E5CFCF92DF92EF92FA
:10541000FF920F931F93CF9390910302913009F461
:1054200060C0662351F010927603109272031092BE
:1054300073031092740310927503C82F0E94167C98
:10544000C0907203D0907303E0907403F0907503E2
:105450009B01AC012C193D094E095F0969017A01D4
:10546000F7FC3FC020917603C7FD15C04C2F0C2ED2
:10547000000C550B4C5F5F4FE22F022E000CFF0B10
:105480004E175F0774F144EFC42EDD24D394E12C52
:10549000F12C2C1734F438EEC32E33E0D32EE12C4C
:1054A000F12CC60ED71EE81EF91EC0927203D092D0
:1054B0007303E0927403F0927503022F017010E001
:1054C00084E2809FB001819F700D701B1124605990
:1054D0007C4F82E390E048DF809176038F5F80937A
:1054E0007603CF911F910F91FF90EF90DF90CF90B7
:1054F0000895382F10927F088091190890911A080A
:10550000A0911B08B0911C08B7FF08C010921908A1
:1055100010921A0810921B0810921C08209119086A
:10552000209310081092290880910B081816ECF4AB
:10553000082E000C990B831B9109022E000C330BD3
:105540002817390794F097FF02C090E080E080931D
:105550001008092E000CAA0BBB0B8093190890931E
:105560001A08A0931B08B0931C08809110086623AA
:10557000A9F090911108891714F4809311082091D3
:105580001108022E000C330B2D5F3F4F482F082EC1
:10559000000C550B241735071CF483508093110819
:1055A0000895E091FE03E63010F581E08E0F8093C0
:1055B000FE034091190850911A0860911B087091E0
:1055C0001C089091110880910B0828E0E29FF001DF
:1055D0001124E253FC4F2091591430915A14318315
:1055E00020834283538364837583968387830895DE
:1055F00064E57DE080E014DA6CE47DE081E010DABF
:1056000064E47DE082E00CDA6CE37DE086E008DAB9
:1056100064E37DE087E004DA6CE27DE083E000DAB9
:1056200064E27DE084E0FCD96CE17DE085E0F8C9CE
:10563000CF93823061F4C4E0C15058F088E0C89F35
:10564000B00111246B51734F8C2FEAD9F5CFCF9154
:10565000CFCFCF9108950F931F93CF93DF93522F06
:105660002091591430915A142817390761F19093F9
:105670005A14809359148B0130E020E000931908EC
:1056800010931A0820931B0830931C0840931108AC
:1056900050930B0821E58937920721F410921904E1
:1056A0001092FE03EC010E9434B881E0C957D14545
:1056B00009F080E0BDDF82E080934C0281E08093BE
:1056C000290810921508DF91CF911F910F9108952D
:1056D000CF93DF93EC0165DF20E040E070E060E015
:1056E000CE01DF91CF91B7CF21E0209319046093D1
:1056F0001A0470931B0480931C0490931D0420E0F3
:1057000040E070E060E08091120890911308A3CF10
:105710006DEC7CEC8CEC9CE3E7CF6DEC7CEC8CECE2
:105720009DE3E2CF60E070E080E89FE3DDCF60E0E2
:1057300070E080E291E4D8CF81E080931904109268
:10574000FB0820E040E070E060E088EE98E383DF53
:1057500085EF93E19093C2058093C105089520E001
:1057600040E070E060E08CED9BE375DF81E08093CA
:105770000E0485E29FE09093C2058093C1050895D1
:1057800020E040E070E060E089E791E564CF0E94AE
:105790000C8BF6CF61116093030240931204EFEF7C
:1057A000E80FEB3008F035C00E2E000CFF0B8827F9
:1057B000E352F44D8F4F0D94D3030A2C0D2CE82B9C
:1057C000F22BF52BF82B042CFB2B092CFE2B012C98
:1057D0008AEB98E321E02093190420E040E070E098
:1057E00060E039CF80EC98E3F5CF83EC98E3F2CF1B
:1057F00086EC98E3EFCF89EC98E3ECCF8CEC98E360
:10580000E9CF8FEC98E3E6CF1092110488EA96E393
:10581000E1CFB6CF87EB98E3DDCF8DEB98E3DACF1E
:10582000E091FE03EE2381F0E150E093FE0388E077
:10583000E89FF0011124E253FC4F628173812781BC
:1058400046818081918107CF9BCF64E084E10E94F3
:105850003BB881E02091591430915A1429573145B1
:1058600009F080E0E5DE0C9434B8AF92BF92CF929D
:10587000DF92EF92FF920F931F93CF93DF9300D0AD
:105880001F92CDB7DEB76C015B017A0110E000E03A
:105890000E151F05E0F419821A821B821C82AE01CC
:1058A0004F5F5F4FB501C6010E942E216C016981D7
:1058B0007A818B819C81611571058105910539F093
:1058C000A701401B510BEBD8080F191FE1CFC801EE
:1058D0000F900F900F900F90DF91CF911F910F912C
:1058E000FF90EF90DF90CF90BF90AF9008954FEF73
:1058F0005FEF68E271E2B9CF4FEF5FEF6BE271E209
:10590000B4CF643008F063E090915414691710F03C
:105910006FEF690FE62FF0E0EF5BFB4E9489890F84
:1059200080680C942EB8CF93DF93EA01EADFCE01B2
:10593000DF91CF91E1CFFC01A081B1811C92A281C6
:10594000B3818C918F5F8C930280F381E02D608115
:1059500080E0D7CF0F931F93CF93DF938C016F3FDE
:1059600019F410922F1260E020912F12862F062E2C
:10597000000C990B2817190609F004F560932F12F3
:10598000C8010E94A0F9800F911FEC01C01BD10B30
:10599000C135D1053CF00197FC012491207C2038D1
:1059A000D1F3F3CFDD27AE01B8018EED91E10E9476
:1059B000C1F9C252DE4E18821092DD11DF91CF91F3
:1059C0001F910F9108951092C10810924B0280917F
:1059D000231480648093231416DC60E081E396E056
:1059E000B9DFCECECF93DF93CDB7DEB78E81909166
:1059F0002F12891778F080932F129E01275F3F4F57
:105A00004F81588560E570E08EED91E10E9419FAB2
:105A10001092DD11DF91CF9108950F931F930E9493
:105A2000167C0091CA031091CB032091CC033091D6
:105A3000CD03601B710B820B930B97FD0CC086B1DD
:105A400086FB882780F991E08927349B8260329B0E
:105A500084608093C9038091C90381709091C903C8
:105A600091FD82609091C803981749F0813009F147
:105A700048F0823079F0833091F08093C8031F9111
:105A80000F910895913079F09230B9F79091C70352
:105A90009F5F0CC0992339F09330C1F3EECF913062
:105AA000A9F3923051F79091C70391509093C70397
:105AB000E4CF992359F3933001F7F5CFC6DE3E9832
:105AC000469A3C98449A3A98429AEAE0F1E08081FA
:105AD0008E7F808380910B01809581708093090176
