:100000000C94760F0C94A30F0C94A30F0C94A30FD5
:100010000C94A30F0C94A30F0C94A30F0C94A30F98
:100020000C94A30F0C94A30F0C94A30F0C94A30F88
:100030000C94A30F0C9457AC0C94A30F0C94A30F27
:100040000C94A30F0C9452790C94A30F0C94A30F4F
:100050000C94A30F0C94A30F0C94E5830C9470A83C
:100060000C94A30F0C94EB270C94A30F0C94A30FE8
:100070000C94A30F0C94A30F0C94A30F0C94A30F38
:100080000C94A30F0C94A30F0C94A30F0C94A30F28
:100090000C94A30F0C94A30F0C94A30F0C94F7A42F
:1000A0000C94A30F0C94A30F0C94A30F0C94A30F08
:1000B0000C94A30F0C94A30F0C94A30F0C94A30FF8
:1000C0000C94A30F0C94A30F0C94A30F0C94A30FE8
:1000D0000C94A30F0C94A30F0C94A30F0C94A30FD8
:1000E0000C94A30F084AD73B3BCE016E84BCBFFDE6
:1000F000C12F3D6C74319ABD56833DDA3D00C77FF8
:1001000011BED9E4BB4C3E916BAAAABE0000008090
:100110003F05A84CCDB2D44EB93836A9020C50B91F
:10012000918688083CA6AAAA2ABE000000803F4DFE
:10013000383420582059205A20450043616E6E6F94
:100140007420656E746572207375626469723A20FA
:10015000004D3234004D3233202573006175746FC9
:1001600025692E67006572726F72207772697469F3
:100170006E6720746F2066696C65004E6F74205343
:1001800044207072696E74696E6700534420707207
:10019000696E74696E672062797465200044656CCD
:1001A0006574696F6E206661696C65642C204669B0
:1001B0006C653A200046696C652064656C65746501
:1001C000643A006F70656E206661696C65642C200E
:1001D00046696C653A200057726974696E672074CD
:1001E0006F2066696C653A20006F70656E206661ED
:1001F000696C65642C2046696C653A20006F7065F7
:100200006E206661696C65642C2046696C653A20D5
:100210000046696C652073656C65637465640020D5
:1002200053697A653A200046696C65206F70656E87
:1002300065643A20006F70656E206661696C656464
:100240002C2046696C653A20004E6F7720667265F7
:1002500073682066696C653A20004E6F7720646F82
:10026000696E672066696C653A20002220706F73A2
:10027000002220706172656E743A2200535542521A
:100280004F5554494E452043414C4C207461726790
:1002900065743A2200747279696E6720746F206306
:1002A000616C6C207375622D67636F64652066698D
:1002B0006C6573207769746820746F6F206D616E50
:1002C00079206C6576656C732E204D4158206C65E5
:1002D00076656C2069733A00534420636172642030
:1002E0006F6B006F70656E526F6F74206661696C22
:1002F000656400766F6C756D652E696E6974206635
:1003000061696C656400534420696E69742066619C
:10031000696C0046696C616D656E742073657474F8
:10032000696E67733A2044697361626C656400208A
:10033000204D32303020440046696C616D656E742A
:100340002073657474696E67733A0020430020441B
:100350000020490020204D333031205000504944C6
:100360002073657474696E67733A002046002042FA
:100370000020204D313435204D31204800204600EA
:1003800020420020204D313435204D302048004D92
:100390006174657269616C20686561747570207044
:1003A0006172616D65746572733A00205A0020595C
:1003B0000020204D323036205800486F6D65206F88
:1003C000666673657420286D6D293A00204500200B
:1003D0005A0020580020420020540020204D323086
:1003E00035205300416476616E63656420766172E6
:1003F0006961626C65733A20533D4D696E20666594
:1004000065647261746520286D6D2F73292C2054EA
:100410003D4D696E2074726176656C206665656419
:100420007261746520286D6D2F73292C20423D6DFB
:10043000696E696D756D207365676D656E74207486
:10044000696D6520286D73292C20583D6D61786990
:100450006D756D205859206A65726B20286D6D2F5F
:1004600073292C20205A3D6D6178696D756D205A75
:10047000206A65726B20286D6D2F73292C20204512
:100480003D6D6178696D756D2045206A65726B20E0
:10049000286D6D2F73290020540020520020204D1C
:1004A000323034205000416363656C657261746959
:1004B0006F6E733A20503D7072696E74696E672C6E
:1004C00020523D7265747261637420616E642054C1
:1004D0003D74726176656C00204500205A002059F9
:1004E0000020204D3230312058004D6178696D7503
:1004F0006D20416363656C65726174696F6E20285D
:100500006D6D2F7332293A00204500205A00205982
:100510000020204D3230332058004D6178696D75D0
:100520006D2066656564726174657320286D6D2F3A
:1005300073293A00204500205A0020590020204D00
:1005400039322058005374657073207065722075BD
:100550006E69743A0048617264636F646564204434
:10056000656661756C742053657474696E67732079
:100570004C6F61646564004572726F7220777269B6
:1005800074696E6720746F20454550524F4D2100AD
:10059000473238004D34322050372053313030004C
:1005A0004D34322050362053313630004D31303901
:1005B0002053313935004D343220503620533235F6
:1005C00035004D3432205037205332353500473115
:1005D000204631303030004731205A313830004D1C
:1005E000312053330047312046313030004731202D
:1005F0004531303000473932204530004D313034FC
:10060000205330004D3432205036205330004D31CD
:100610003036205330004D343220503720533000D4
:100620004D343030004D3834004D313039205332A4
:10063000333000473120452D3130300047300047FE
:1006400039300047393100513130313000513130CB
:100650003039004732382058302059300047312097
:100660005A313020463230303000530643065D06A2
:10067000473930004731204633363030205831304A
:100680003020593230205A313000473238205A3029
:1006900000473420533330004731205A350047316A
:1006A00020583135302059313230205A3500473109
:1006B000205834302059313230205A35004731200B
:1006C0004535302046313030004731204531352026
:1006D0004631303000473120452D3530204631300D
:1006E0003000473120452D35204631303000F505AA
:1006F0004306BD063C063C063C063C063C06F505AA
:100700004306C9063C063C063C063C063C06F5058D
:100710004306E2063C063C063C063C063C06F50564
:100720004306C906D5063C063C063C063C06473156
:1007300020583430205931313020004731205A318F
:100740003520463230303000473120583130205982
:10075000323020004731205A313500473120583996
:10076000302059323020004731205A31350047318E
:10077000205A31300047312058343020593131303F
:10078000205A300047312058313020593230205A19
:10079000300047312058393020593230205A30004B
:1007A0004731204632303030003F069005A0073BED
:1007B000072E077507A0073F063F063F0654074868
:1007C0000784073F06A0073F063F063F0667075B13
:1007D0000792073F069005700674068A06910698F0
:1007E000069E068A0691069806AE068A069106902F
:1007F0000590059405A005AC05B605C205CE05D744
:1008000005DF05E505ED05F505FC05DF05900504AB
:10081000060E06160620063C06470690059405A01F
:10082000052906B605C205CE05D705DF05E505EDA8
:1008300005F505FC05DF05900504060E06160620E5
:10084000063C06470690059405A005AC05B605C212
:1008500005CE05D705DF05E5053306F505FC05DF03
:1008600005900504060E06160620063C064706906F
:10087000059405A0052906B605C205CE05D705DFF6
:1008800005E5053306F505FC05DF05900504060EB4
:1008900006160620063C064706CE054D06E505F57C
:1008A000054706CE05AC05DF05E505ED05F505DFD9
:1008B00005CE054706CE052906DF05E505ED05F55C
:1008C00005DF05CE0547064572726F723A00656313
:1008D000686F3A0053544F505045442E20005072D8
:1008E000696E7465722073746F70706564206475CE
:1008F0006520746F206572726F72732E204669785E
:1009000020746865206572726F7220616E64207554
:100910007365204D39393920746F207265737461A5
:1009200072742E202854656D7065726174757265DD
:100930002069732072657365742E20536574206975
:100940007420616674657220726573746172746973
:100950006E67290052657374617274205072696EFB
:100960007465722E20005072696E74657220686121
:100970006C7465642E206B696C6C28292063616C33
:100980006C6564210020746F6F206C6F6E6720654A
:100990007874727573696F6E2070726576656E74A7
:1009A00065640020636F6C64206578747275736988
:1009B0006F6E2070726576656E746564006F6B0093
:1009C000526573656E643A20002200556E6B6E6F3F
:1009D000776E20636F6D6D616E643A2022005465FE
:1009E0006D702073656E736F72206572726F720026
:1009F000536C6565702E2E2E00FF01FF0000C8426B
:100A00000000C8420000C8420000A0400000A04012
:100A100000000040000000000000C842000000008C
:100A20000000000000000000000000000000C842BC
:100A30000000C8420000C8423344205072696E74FE
:100A400065722072656164792E00526573756D69F7
:100A50006E67207072696E74005761697420666FEA
:100A60007220757365722E2E2E004E6F206D6F767C
:100A7000652E00456E642066696C65206C69737430
:100A800000426567696E2066696C65206C697374E5
:100A9000002569206D696E2C20256920736563002F
:100AA0002042403A0020403A00202F0020540020ED
:100AB0002F0020543A006F6B0048656174696E67BF
:100AC00020646F6E652E003F0020573A0020453AA3
:100AD00000543A0048656174696E672E2E2E00330B
:100AE00044205072696E7465722072656164792E5B
:100AF000003344205072696E746572204F66662E12
:100B0000004649524D574152455F4E414D453A4D81
:100B100061726C696E2056313B20537072696E743D
:100B200065722F6772626C206D61736875702066E4
:100B30006F722067656E36204649524D57415245C7
:100B40005F55524C3A68747470733A2F2F6769740A
:100B50006875622E636F6D2F4D61726C696E4669A8
:100B6000726D776172652F4D61726C696E205052A3
:100B70004F544F434F4C5F56455253494F4E3A31B5
:100B80002E30204D414348494E455F545950453A17
:100B90003344205072696E74657220455854525522
:100BA0004445525F434F554E543A312055554944C0
:100BB0003A30303030303030302D303030302D3031
:100BC0003030302D303030302D303030303030302B
:100BD00030303030300A00205A3A0020593A002094
:100BE000436F756E7420583A200020453A00205A11
:100BF0003A0020593A00583A007A5F6D61783A20FD
:100C0000007A5F6D696E3A2000795F6D61783A20F5
:100C100000795F6D696E3A2000785F6D61783A20E7
:100C200000785F6D696E3A20004D31343520533CB9
:100C3000696E6465783E206F7574206F66207261FE
:100C40006E67652028302D31290053657474696EF4
:100C5000672054726176656C20416363656C6572D0
:100C60006174696F6E3A200053657474696E672011
:100C70005265747261637420416363656C6572616F
:100C800074696F6E3A200053657474696E67205002
:100C900072696E7420416363656C65726174696F1B
:100CA0006E3A200053657474696E67205072696EE5
:100CB0007420616E642054726176656C20416363B8
:100CC000656C65726174696F6E3A20004D33303027
:100CD000205336353920503230300A4D33303020F1
:100CE000533639382050323030004F6666736574A1
:100CF000206170706C6965642E004D333030205374
:100D000034302050323030004572723A20546F6FC8
:100D1000206661722100546F6F20666172206672D6
:100D20006F6D207265666572656E636520706F69B0
:100D30006E7400256920686F757273202569206DB7
:100D4000696E7574657300446F6E65207072696EAC
:100D500074696E672066696C650053544F50504546
:100D6000442E20005072696E7465722073746F7027
:100D70007065642064756520746F206572726F728F
:100D8000732E2046697820746865206572726F72D0
:100D900020616E6420757365204D39393920746F78
:100DA00020726573746172742E202854656D7065AD
:100DB0007261747572652069732072657365742E33
:100DC00020536574206974206166746572207265B1
:100DD0007374617274696E6729004E6F204C696E7E
:100DE00065204E756D62657220776974682063684E
:100DF00065636B73756D2C204C617374204C696E48
:100E0000653A20004E6F20436865636B73756D20F3
:100E100077697468206C696E65206E756D626572A5
:100E20002C204C617374204C696E653A2000636815
:100E300065636B73756D206D69736D617463682C88
:100E4000204C617374204C696E653A200020476F16
:100E5000743A20004C696E65204E756D6265722093
:100E60006F7574206F662073657175656E63652E8E
:100E70002045787065637465643A20004D313130E7
:100E800000696E746F2074686520666C6173680019
:100E90006F6B00446F6E6520736176696E672066C4
:100EA000696C652E004D3239002020506C616E6EE9
:100EB000657242756666657242797465733A2000A0
:100EC0002046726565204D656D6F72793A20004D40
:100ED0006179203138203230313700436F6D7069CD
:100EE0006C65643A2000286E6F6E652C2064656620
:100EF00061756C7420636F6E6669672900207C20C1
:100F0000417574686F723A20004D61792031382044
:100F1000323031372031383A31313A313900204CD2
:100F200061737420557064617465643A20002031E7
:100F30002E302E3320646576004D61726C696E0030
:100F400020536F6674776172652052657365740013
:100F5000205761746368646F67205265736574001D
:100F60002042726F776E206F7574205265736574BE
:100F7000002045787465726E616C205265736574EB
:100F800000506F776572557000737461727400223F
:100F900000656E7175657565696E67202200207445
:100FA0006F6F206C6F6E6720657874727573696FF0
:100FB0006E2070726576656E7465640020636F6C78
:100FC0006420657874727573696F6E2070726576CF
:100FD000656E746564007C3C3E5E2B3D3F2F5B5D1F
:100FE0003B2C2A225C0045303A20005A3A20005916
:100FF0003A2000583A20004D53312C4D53322050A6
:10100000696E730A004D383420582059205A204503
:101010000024F404D9201BC40C5C0E9804C4095F9E
:101020000265077101F405F900FB04B30048048769
:1010300000C10369005803550003034500BE023A8E
:10104000008402310053022A0029022500040220F4
:1010500000E4011C00C8011900AF01170098011439
:101060000084011300710110006101100051010E94
:101070000043010D0036010B002B010B0020010B7A
:1010800000150109000C01090003010800FB00081C
:1010900000F3000800EB000700E4000600DE000695
:1010A00000D8000600D2000600CC000500C70005ED
:1010B00000C2000500BD000400B9000400B5000432
:1010C00000B1000400AD000400A9000400A5000365
:1010D00000A20003009F0004009B0003009800038F
:1010E000009500020093000300900003008D0002B1
:1010F000008B0003008800020086000200840003C9
:1011000000810002007F0002007D0002007B0002DF
:1011100000790002007700010076000200740002EE
:101120000072000100710002006F0002006D0001FA
:10113000006C0002006A0001006900020067000103
:101140000066000100650001006400020062000109
:101150000061000100600001005F0002005D00010D
:10116000005C0001005B0001005A00010059000111
:101170000058000100570001005600010055000111
:101180000054000100530000005300010052000110
:101190000051000100500001004F0001004E00000E
:1011A000004E0001004D0001004C0001004B00000A
:1011B000004B0001004A0001004900010048000006
:1011C0000048000100470001004600000046000101
:1011D00000450000004500010044000100430000FC
:1011E00000430001004200000042000100410000F5
:1011F0000041000100400001003F0000003F0001ED
:10120000003E0000003E0001003D0000003D0001E6
:10121000003C0000003C0000003C0001003B0000DE
:10122000003B0001003A0000003A000100390000D4
:1012300000390001003800000038000000380001CB
:1012400000370000003700010036000000360000C3
:1012500000360001003500000035000000350001B7
:1012600000340000003400000034000100330000AE
:1012700000330000003300010032000000320000A3
:101280000032000100310000003100000031000197
:10129000003000000030000000300001002F00008E
:1012A000002F0000002F0000002F0001002E000082
:1012B000002E0000002E0001002D0000002D000077
:1012C000002D0000002D0001002C0000002C00006B
:1012D000002C0000002C0001002B0000002B00005F
:1012E000002B0000002B0001002A0000002A000053
:1012F000002A0000002A0001002900000029000047
:101300000029000000290000002900010028000039
:10131000002800000028000000280000002800012C
:101320000027000000270000002700000027000021
:101330000027000100260000002600000026000013
:101340000026000000260001002500000025000006
:1013500000250000002500000025000000250001F8
:1013600000240000002400000024000000240000ED
:1013700000240001002300000023000000230000DF
:1013800000230000002300000023000000230001D0
:1013900000220000002200000022000000220000C5
:1013A00000220000002200010021000000210000B6
:1013B00000210000002100000021000000210000A9
:1013C000002100010020000000200000002000009B
:1013D000002000000020000000200000002000008D
:1013E00000200001001F0000001F0000001F00007F
:1013F000001F0000001F0000001F0000001F000170
:10140000001E0000001E0000001E0000001E000064
:101410000024F4D43050C38E20C2A24017828B70B7
:1014200011127A910D816CD90AA861E108C758663A
:1014300007615143061E4B5D05C145A7041A4111C2
:1014400004093D9803713931034036DB026533915D
:1014500002D4305402802E1D02632CEE01752AC581
:1014600001B028A001102781018F2564012B244B96
:1014700001E0223401AC211F018D200D01801FFCF1
:1014800000841EED00971DDF00B81CD200E61BC6CD
:1014900000201BBC00641AB200B219A8000A19A0EF
:1014A000006A189900D117910040178B00B5168477
:1014B0000031167E00B31579003A157300C7146F1A
:1014C0000058146A00EE1366008813630025135E4B
:1014D00000C7125B006C12570015125400C1115165
:1014E0000070114F0021114B00D61049008D10479C
:1014F000004610440002104200C00F4000800F3E22
:1015000000420F3C00060F3B00CB0E3800930E3715
:10151000005C0E3500270E3400F30D3200C10D3192
:1015200000900D3000600D2E00320D2D00050D2CA9
:1015300000D90C2B00AE0C2900850C29005C0C276F
:1015400000350C27000E0C2600E80B2400C40B24E9
:1015500000A00B23007D0B23005A0B2100390B2127
:1015600000180B2000F80A1F00D90A1E00BB0A1E33
:10157000009D0A1D00800A1D00630A1C00470A1B0B
:10158000002C0A1B00110A1A00F7091A00DD0919BC
:1015900000C4091900AB091900920917007B09184A
:1015A00000630917004C09160036091600200916B9
:1015B000000A091500F5081500E0081400CC08140D
:1015C00000B8081400A4081400900813007D081245
:1015D000006B081300580812004608120034081166
:1015E00000230811001208110001081100F0071073
:1015F00000E0071000D0071000C0071000B0070F70
:1016000000A107100091070E0083070F0074070F59
:101610000065070E0057070E0049070E003B070D37
:10162000002E070E0020070D0013070D0006070D02
:1016300000F9060C00ED060D00E0060C00D4060CC7
:1016400000C8060C00BC060C00B0060C00A4060B7B
:101650000099060C008D060B0082060B0077060B26
:10166000006C060B0061060A0057060B004C060AC8
:101670000042060A0038060A002E060A0024060A5E
:10168000001A060A001006090007060A00FD0509EF
:1016900000F4050900EB050900E2050900D9050978
:1016A00000D0050900C7050900BE050900B50508F9
:1016B00000AD050800A50509009C05080094050873
:1016C000008C050800840508007C050800740508E6
:1016D000006C050700650508005D05070056050854
:1016E000004E0507004705070040050800380507BC
:1016F00000310507002A050700230507001C050621
:1017000000160507000F050700080506000205077B
:1017100000FB040600F5040700EE040600E80406DA
:1017200000E2040700DB040600D5040600CF04062F
:1017300000C9040600C3040600BD040600B7040681
:1017400000B1040500AC040600A6040600A00405D0
:10175000009B04060095040500900406008A040519
:101760000085040500800406007A04050075040560
:1017700000700405006B04050066040500610405A3
:10178000005C04050057040500520405004D0405E3
:101790000048040500430405003E0404003A040523
:1017A0000035040500300404002C0405002704045F
:1017B00000230405001E0404001A04040016040596
:1017C00000110404000D04040009040500040404CD
:1017D0000000040400FC030400F8030400F4030404
:1017E00000F0030400EC030400E8030400E4030435
:1017F00000E0030400DC030400D8030400D4030465
:1018000000D0030400CC030400C8030300C5030395
:1018100000656E6473746F7073206869743A205A3F
:1018200000205A3A00656E6473746F7073206869A3
:10183000743A20590020593A00656E6473746F70D1
:1018400073206869743A20580020583A00656E6425
:1018500073746F7073206869743A2000544845525D
:101860004D414C2052554E4157415900626564002C
:10187000546865726D616C2052756E617761792C68
:101880002073797374656D2073746F707065642153
:10189000204865617465725F49443A2000202D201C
:1018A000496E76616C6964206578747275646572DE
:1018B000206E756D62657220210070012C0190010F
:1018C0002701B0012201C0011D01F0011801100221
:1018D000130130020E016002090190020401C002EE
:1018E000FF000003FA004003F5008003F000D0037E
:1018F000EB002004E6007004E100E004DC00400599
:10190000D700C005D2004006CD00D006C800800731
:10191000C3003008BE00F008B900C009B400B00A26
:10192000AF00B00BAA00D00CA500000EA000500F15
:101930009B00C01096005012910000148C00C0153E
:101940008700B0178200B0197D00D01B7800001E00
:10195000730040206E0090226900F024640040274C
:101960005F0090295A00E02B5500102E50002030C7
:101970004B0010324600E033410090353C001037F8
:10198000370070383200A0392D00B03A2800A03B53
:101990002300603C1E00103D1900903D1400103ED5
:1019A0000F00703E0A00C03E0500003F0000457277
:1019B000723A204D415854454D502042454400480C
:1019C0006561746564206265642073776974636817
:1019D0006564206F66662E204D415854454D502059
:1019E0007472696767657265642021210054656DB2
:1019F000702073656E736F72206572726F7200541F
:101A0000656D702073656E736F72206572726F7290
:101A1000004B64200023646566696E6520204445A0
:101A20004641554C545F004B69200023646566694C
:101A30006E65202044454641554C545F004B702054
:101A40000023646566696E65202044454641554C17
:101A5000545F00504944204175746F74756E652061
:101A600066696E69736865642120507574207468B6
:101A700065206C617374204B702C204B6920616E63
:101A800064204B6420636F6E7374616E74732066A0
:101A9000726F6D2062656C6F7720696E746F204382
:101AA0006F6E66696775726174696F6E2E6800503B
:101AB0004944204175746F74756E65206661696C68
:101AC0006564212074696D656F75740020403A006B
:101AD0006F6B20543A00504944204175746F7475FF
:101AE0006E65206661696C6564212054656D706562
:101AF00072617475726520746F6F20686967680021
:101B0000204B643A2000204B693A2000204B703A69
:101B1000200020436C6173736963205049442000A6
:101B20002054753A2000204B753A2000206D6178D2
:101B30003A2000206D696E3A200020643A2000208F
:101B4000626961733A20002D2D3A2D2D002D2D2D27
:101B5000005344002020590001200041626F757439
:101B6000004E6F20534420636172640041626F75C0
:101B700074005072696E742066726F6D2053440059
:101B8000456D657267656E63792073746F7000537D
:101B9000746F70207072696E7400526573756D6534
:101BA000207072696E74005061757365207072697F
:101BB0006E740050726570617265004D3131320093
:101BC000456D657267656E63792073746F7000543C
:101BD000756E6500496E666F2073637265656E0091
:101BE0005072696E742066726F6D2053440050729B
:101BF000696E742066726F6D20534400052E2E00AE
:101C00004D61696E004D3234004D32332025730032
:101C100054656D7065726174757265004D3834007D
:101C200044697361626C652073746570706572736A
:101C3000004D6F76652061786973004D3938390041
:101C4000556E6C6F61642066696C616D656E7400C1
:101C50004D393836004C6F61642066696C616D6582
:101C60006E74005072656865617420504C41004C80
:101C70006576656C204265640047323800417574B2
:101C80006F20686F6D65004D61696E004E6F7A7AE6
:101C90006C65004E6F7A7A6C650050726570617287
:101CA00065004D6F766520302E316D6D004D6F767D
:101CB0006520316D6D004D6F76652031306D6D00A2
:101CC00050726570617265004D6F7665205A004DE7
:101CD0006F76652059004D6F76652058004D6F7600
:101CE000652061786973005A00590058004D3938F1
:101CF0003500546869726420706F696E74004D39E4
:101D00003834005365636F6E6420706F696E7400C1
:101D10004D39383300466972737420706F696E7480
:101D2000005072657061726500466C6F7700466C9A
:101D30006F770046616E2073706565640046616E62
:101D4000207370656564004E6F7A7A6C65004E6F23
:101D50007A7A6C65005370656564005370656564DC
:101D6000004D61696E00436172642072656D6F762B
:101D70006564004361726420696E736572746564A2
:101D8000004D3432380000002100240027002A00D2
:101D90002D003000330001010000040107010A0199
:101DA00000002200250028002B002E003100340006
:101DB00002010000050108010B01000020002300C2
:101DC000260029002C002F00320000010000030132
:101DD00006010901050505050705080808080202AE
:101DE00002020A0A080804040404010101010101B5
:101DF00001010303030303030303040707070C0C98
:101E00000C0C0C0C0C0C020202020606060606065E
:101E100006060B0B0B0B0B0B0B0B01021020200803
:101E20000810204010204080020102010804020135
:101E300001020408102040808040201008040201A4
:101E400080040201804020100804020108040201FD
:101E50000102040810204080010204081020408084
:101E60000000090A02080B0C0D070603040100001C
:101E70000000000000000000000000000000000062
:101E800000000000000000000000000011100F0022
:101E90000000000000000000000000000000000042
:101EA00000000000000002494E46494E4954594E78
:101EB000414ECDCCCC3D0AD7233C17B7D13877CC97
:101EC0002B329595E6241FB14F0A000020410000F7
:101ED000C84200401C4620BCBE4CCA1B0E5AAEC5B0
:101EE0009D747F28902D3C9166A48B2D11241FBEDC
:101EF000CFEFD1E2DEBFCDBF00E00CBF15E0A0E028
:101F0000B2E0E0E2FAE601E00BBF02C007900D92FA
:101F1000A63AB107D9F71BBE10E1A6EAB5E001C0A9
:101F20001D92A23EB107E1F71EE1CAEEDEE104C058
:101F30002297FE010E94B6B4C23ED107C9F70E94A3
:101F4000B1AB0C9404B50C940000A0E0B0E0EBEA57
:101F5000FFE00C94D3B4EC015B016115710519F03D
:101F6000FB0191838083F9908F2D90E00E94BAB499
:101F7000892BC9F7FDE2FF1621F4F990EE24E394D2
:101F800005C02BE2F21609F4F990EE248E010150FF
:101F90001040C80167EA7EE143E050E069D2892B36
:101FA000F9F48E010E5F1F4FC8016AEA7EE145E039
:101FB00050E05ED2892B19F48E01095F1F4FA114E6
:101FC000B10419F0F50111830083E0FC04C070E056
:101FD00090E080E813C070E090E080E86FEF07C108
:101FE000C8016FEA7EE143E050E042D2892B69F4F8
:101FF000A114B10429F470E090E080EC6FE7F7C021
:102000002296F501D183C083F6CF8824992440E03D
:1020100050E060E070E0EF2DE053EA30A0F5F2E030
:10202000EF2A8E2D90E09C0128703070E2FE06C0F1
:10203000232B79F50894811C911C2BC0232B19F0BC
:10204000089481089108DB01CA0112E0880F991FEA
:10205000AA1FBB1F1A95D1F7480F591F6A1F7B1F74
:10206000440F551F661F771F4E0F511D611D711DB7
:10207000483929E9520729E9620729E1720748F03E
:1020800084E0E82A06C0EE3F31F4E3FC39C098E072
:10209000E92AF990C0CFE53311F0E53189F52991AE
:1020A0002D3219F4E0E1EE2A05C02B3219F081E05F
:1020B00090E003C0299182E090E0E22FE053EA3003
:1020C00018F0C81BD90B1CC020E030E0FCE0203821
:1020D0003F075CF4C901880F991F880F991F280FCB
:1020E000391F220F331F2E0F311DE991E053EA30C3
:1020F00068F3E4FE03C0309521953F4F820E931E96
:10210000CE2CDD24E1FE07C0A114B10421F02197FB
:10211000F501D183C083CB01BA010E941FB17B01BD
:102120008C01F3E0CF22DD2423E0C216D10421F498
:1021300017FB109517F9109557016801C801B701F1
:1021400020E030E040E050E00E947FB0882309F4B6
:102150004AC097FE0DC026ECE22E2EE1F22E90949E
:10216000819491089394C0E2D0E000E010E012C0A6
:102170009EEDE92E9EE1F92EF6CFF70125913591DE
:1021800045915491C601B5010E945FB35B016C019A
:102190008C1A9D0A8C169D0684F7D595C7950F5FFE
:1021A0001F4F0630110529F08CEF9FEFE80EF91E46
:1021B000F1CFC501D6017C018D018C2D880F8D2DAD
:1021C000881F8F3F51F0C601B50120E030E040E0AC
:1021D00050E00E947FB0882331F482E290E0909337
:1021E000E1108093E0107E2D9F2D802F612F272FEF
:1021F000392F482F562FB901CA01CDB7DEB7ECE011
:102200000C94EFB42F923F925F926F927F928F92D5
:102210009F92AF92BF92CF92DF92EF92FF920F9375
:102220001F93CF93DF938C011B01EA0161157105A8
:1022300019F0FB0191838083209749F0CE0102972A
:10224000839728F020E030E040E050E0F6C0F8014D
:10225000A1908F018A2D90E00E94BAB4892BB9F722
:10226000FDE2AF1631F4F801A1908F01552453948B
:1022700007C0FBE2AF1619F4F801A1908F015524B5
:10228000209719F0C031D105C1F4F0E3AF1679F40D
:10229000F8018081883711F0883549F4F801A18070
:1022A0000E5F1F4FF2E05F2AC0E1D0E006C020972A
:1022B00021F480E3A816E9F427C0C830D10531F134
:1022C000C930D10524F4C230D10531F50CC0CA3073
:1022D000D10589F0C031D105F9F4C12CD12CE12C04
:1022E000B8E0FB2E28C0C12CD12CE12CA0E4FA2EA2
:1022F00022C0CAE0D0E0FCECCF2EFCECDF2EFCECE0
:10230000EF2EFCE0FF2E17C0C8E0D0E0C12CD12C8E
:10231000E12CE0E1FE2E0FC09E01442737FD4095E1
:10232000542F60E070E080E090E80E9477B4C9012B
:10233000DA016C017D0120E030E040E050E060E037
:102340003E01882477FC8094982C70EDB72EBA0C4F
:10235000E9E0EB1570F48A2D81548A3118F499EC78
:10236000B92E06C08A2D81568A3150F589EAB82ED9
:10237000BA0C8B2D90E08C179D0714F56F3FE1F0A0
:10238000C216D306E406F506B0F0CA01B901A401ED
:1023900093010E9431B49B01AC012B0D311D411DF5
:1023A000511D2130F0E03F07F0E04F07F0E85F07F4
:1023B00010F461E001C06FEFF801A1908F01C5CF6B
:1023C0002114310481F0662331F001501040F101F5
:1023D0001183008308C051FE1AC002501040F10161
:1023E0001183008314C067FF12C050FC05C02FEF9B
:1023F0003FEF4FEF5FE704C020E030E040E050E8FF
:1024000082E290E09093E1108093E01016C050FEBD
:1024100008C050954095309521953F4F4F4F5F4FE5
:102420000CC057FF0AC082E290E09093E1108093C5
:10243000E0102FEF3FEF4FEF5FE7B901CA01DF91E7
:10244000CF911F910F91FF90EF90DF90CF90BF90B1
:10245000AF909F908F907F906F905F903F902F9064
:102460000895FB01DC0105900D920020E1F708952D
:10247000FB01DC014150504088F08D9181341CF00B
:102480008B350CF4805E659161341CF06B350CF477
:10249000605E861B611171F3990B0895881BFCCF58
:1024A000FB01DC014150504048F005900D920020A6
:1024B000C9F701C01D9241505040E0F70895FB015B
:1024C00055915523A9F0BF01DC014D9145174111EC
:1024D000E1F759F4CD010590002049F04D914015E8
:1024E0004111C9F3FB014111EFCF81E090E0019769
:1024F0000895FB01DC0104C08D910190801921F445
:1025000041505040C8F7881B990B0895FB01DC012E
:1025100002C001900D9241505040D8F70895FB0140
:10252000DC018D9181341CF08B350CF4805E61915F
:1025300061341CF06B350CF4605E861B611189F30D
:10254000990B0895FB01DC010D900020E9F711972C
:1025500001900D920020E1F70895FC01819186170A
:1025600021F08823D9F7992708953197CF0108954D
:10257000FB01DC018D91019080190110D9F3990BB9
:102580000895FB01DC0101900D920020E1F7089510
:10259000FB01DC014150504030F08D9101908019D9
:1025A00019F40020B9F7881B990B0895FB01DC0191
:1025B0004150504048F001900D920020C9F701C0F1
:1025C0001D9241505040E0F70895AEE0B0E0EBEED0
:1025D000F2E10C94DBB40E891F898EE08C831A83A0
:1025E00009838FEF9FE79E838D839E01265E3F4F79
:1025F000CE010196688D798DA9010AD02F81388589
:10260000020F131FF80110822E96E4E00C94F7B429
:10261000ABE0B0E0EEE0F3E10C94CDB43C012B0173
:102620005A01FC0117821682838181FD03C06FEF7E
:102630007FEFB9C19AE0892E1E010894211C311C3C
:10264000F3012381F20123FD859123FF81912F0165
:10265000882309F4A5C1853239F423FD859123FF30
:1026600081912F01853221F490E0B301B7D1E8CFF9
:10267000982FFF24EE249924FFE1FF15D0F09B3220
:1026800069F09C3228F4903259F0933291F40EC0E4
:102690009D3249F0903369F441E024C052E0F52ABC
:1026A00084E0F82A28C098E0F92A25C0E0E1FE2A53
:1026B00022C0F7FC29C0892F80538A3070F4F6FEBF
:1026C00005C0989C902C1124980E15C0E89CE02C15
:1026D0001124E80EF0E2FF2A0EC09E3229F4F6FC27
:1026E0005FC140E4F42A07C09C3619F450E8F52A8B
:1026F00002C0983649F4F20123FD959123FF919190
:102700002F01992309F0B8CF892F8554833018F011
:102710008052833038F444E050E0A40EB51E5FE3ED
:1027200059830FC0933631F0933779F0933509F020
:1027300052C01FC0F5018081898342E050E0A40EA1
:10274000B51E610101E010E011C0F501C080D1802B
:10275000F6FC03C06FEF7FEF02C0692D70E042E02E
:1027600050E0A40EB51EC6012ED18C015FE7F52204
:1027700013C0F501C080D180F6FC03C06FEF7FEF7E
:1027800002C0692D70E042E050E0A40EB51EC60103
:102790000FD18C0150E8F52AF3FE06C018C080E284
:1027A00090E0B3011BD1EA948E2D90E00817190731
:1027B000B0F30DC0F601F7FC8591F7FE81916F0132
:1027C00090E0B3010BD1E110EA94015010400115E3
:1027D000110581F7E2C0943611F0993661F5F7FEE4
:1027E00008C0F501208131814281538184E090E06D
:1027F0000AC0F501808191819C01442737FD4095F5
:10280000542F82E090E0A80EB91E9FE6F92257FFF0
:1028100009C050954095309521953F4F4F4F5F4FE0
:10282000E0E8FE2ACA01B901A1012AE030E002D1A4
:10283000D82ED2183FC0953729F41F2D1F7E2AE0CD
:1028400030E01DC01F2D197F9F3661F0903720F4B6
:10285000983509F0A5C00FC0903739F0983709F0C6
:102860009FC004C028E030E00AC0106114FD14606D
:1028700020E130E004C014FD166020E132E017FFD3
:1028800008C0F501608171818281938144E050E04C
:1028900008C0F50180819181BC0180E090E042E0B8
:1028A00050E0A40EB51EA101C5D0D82ED2188FE7D6
:1028B000F82EF122F6FE0BC05EEFF522D91438F4A3
:1028C000F4FE07C0F2FC05C08FEEF82202C01D2DF9
:1028D00001C0192DF4FE0DC0FE01ED0DF11D80812A
:1028E000803319F499EEF92208C01F5FF2FE05C08B
:1028F00003C08F2D867809F01F5F0F2DF3FC13C0E6
:10290000F0FE0EC01E1510F09D2C0AC09D2C9E0CD2
:10291000911A1E2D05C080E290E0B3015FD01F5FC9
:102920001E15C8F304C01E1510F4E11A01C0EE24F0
:1029300004FF0EC080E390E0B30150D002FF1BC043
:1029400001FD03C088E790E00EC088E590E00BC071
:10295000802F867881F001FF02C08BE201C080E207
:10296000F7FC8DE290E0B30139D005C080E390E040
:10297000B30134D09A94D914C8F3DA94F101ED0D6F
:10298000F11D808190E0B30129D0DD20B1F705C0B1
:1029900080E290E0B30122D0EA94EE20C9F750CE55
:1029A000F30166817781CB012B96E2E10C94E9B4C7
:1029B000FC010590615070400110D8F7809590950A
:1029C0008E0F9F1F0895FC0161507040019001100F
:1029D000D8F7809590958E0F9F1F08950F931F93A2
:1029E000CF93DF938C01EB018B8181FF1BC082FFB2
:1029F0000DC02E813F818C819D812817390764F499
:102A0000E881F9810193F983E88306C0E885F985B7
:102A1000802F1995892B31F48E819F8101969F8398
:102A20008E8302C00FEF1FEFC801DF91CF911F917E
:102A30000F910895FA01AA27283051F1203181F130
:102A4000E8946F936E7F6E5F7F4F8F4F9F4FAF4FB6
:102A5000B1E03ED0B4E03CD0670F781F891F9A1FC9
:102A6000A11D680F791F8A1F911DA11D6A0F711D7D
:102A7000811D911DA11D20D009F468943F912AE089
:102A8000269F11243019305D3193DEF6CF01089571
:102A9000462F4770405D4193B3E00FD0C9F7F6CFA2
:102AA000462F4F70405D4A3318F0495D31FD40526A
:102AB000419302D0A9F7EACFB4E0A6959795879500
:102AC00077956795BA95C9F70097610571050895DF
:102AD0009B01AC010A2E069457954795379527958B
:102AE000BA95C9F7620F731F841F951FA01D089523
:102AF000FC01128213820895FC018381882311F066
:102B000081E082830895FC018281811112820895FF
:102B1000CF93DF93DC01FC01EB55FE4F8081918167
:102B20000097C9F1019791838083ED01CC5ADF4F63
:102B3000FD01ED58FF4F8BE1019009928150E1F7C3
:102B4000FD01EE5AFF4FAF58BF4F8D919C911197E9
:102B5000A157B04091838083FD01ED58FF4F20E0E5
:102B600030E0AD014B555E4F10C02F5F3F4FEF017E
:102B7000DF015F968BE10D9009928150E1F7858D21
:102B8000968D329791838083B196DA018D919C91D5
:102B90002817390750F3DF91CF910895FC018DE29A
:102BA00095E0918380838781882321F0CF0104966B
:102BB0000C94236A0895CF92DF92EF92FF920F93C5
:102BC0001F93DF93CF93CDB7DEB76F970FB6F8940F
:102BD000DEBF0FBECDBF8C017B01095A1F4FD8014C
:102BE0008C9107551040882321F42FE2C22ED12C5E
:102BF00003C090E5C92ED12CC00ED11E8DE295E008
:102C00009A8389831C821B8218861D82B6016C5FA1
:102C10007F4FCE010596A70121E00E940F71882306
:102C200081F5EEECF8E007C08091C00085FFFCCF95
:102C30009093C600319694919923B1F7EBE3F1E0BC
:102C400007C08091C00085FFFCCF9093C6003196ED
:102C500094919923B1F709C08091C00085FFFCCF02
:102C60000894E11CF11C9093C600F7019081992310
:102C700099F78091C00085FFFCCF8AE08093C60061
:102C80005AC0F801EB55FE4F208131812A303105C1
:102C900008F040C02F5F3F4F3183208321503040E8
:102CA000F90185E0EE0FFF1F8A95E1F7E21BF30BB8
:102CB000ED58FF4FE00FF11F13C0AF01415E5F4FB2
:102CC000BF018BE1DB010D90BD01DA010D92AD0179
:102CD0008150C1F7929182913296968F858F7F971E
:102CE00021503040BFEF2E3F3B0739F7D801AD5898
:102CF000BF4FF60134968BE101900D928150E1F7C0
:102D00000F581F4FF60182819381D8018D939C93B8
:102D100001571040D801AC5ABF4FFE0135968BE1E8
:102D200001900D928150E1F70E5A1F4F8B819C81CB
:102D3000F80191838083CE01019630DF6F960FB644
:102D4000F894DEBF0FBECDBFCF91DF911F910F91E1
:102D5000FF90EF90DF90CF900895EF92FF920F9346
:102D60001F938C013EECE32E31E0F32EE80EF91EAA
:102D7000C7010E94D469C7010E94236AF801118229
:102D800010821F910F91FF90EF900895CF92DF92E4
:102D9000EF92FF920F931F93CF93DF937C016B0110
:102DA000DB010D900020E9F78D0101501040061B5A
:102DB000170BEEECF1E0EE0EFF1ED7011C92E2E3E2
:102DC000FEEFEE0EFF1ECB016EE470E0C6DBEC0101
:102DD000009731F4F8013197EC0DFD1D86010CC010
:102DE00060E270E0BADB8C010F5F1F4FCE016AE238
:102DF00070E0B3DBFC0131978DE081838AE0828350
:102E00001382C70186539E4FB8010E9420728EEC38
:102E100091E0E80EF91ED7018C91882309F1E7ECC7
:102E2000F8E007C08091C00085FFFCCF9093C600FA
:102E3000319694919923B1F7E5E6F1E007C08091CE
:102E4000C00085FFFCCF9093C600319694919923E2
:102E5000B1F78091C00085FFFCCF8AE08093C60067
:102E6000DF91CF911F910F91FF90EF90DF90CF9066
:102E70000895CF93DF93EC018B81882319F4EBE75E
:102E8000F1E03AC0EBE8F1E007C08091C00085FFB7
:102E9000FCCF9093C600319694919923B1F7CD570A
:102EA000DD4F488159816A817B81C358D2408AE2D3
:102EB00096E02AE030E00E9418298091C00085FF4A
:102EC000FCCF8FE28093C600C558DD4F4881598101
:102ED0006A817B818AE296E02AE030E00E9418292C
:102EE0008091C00085FFFCCF0EC08091C00085FF9F
:102EF000FCCF9093C600319694919923B1F78091BD
:102F0000C00085FFFCCF8AE08093C600DF91CF919F
:102F100008952F923F924F925F926F927F928F927D
:102F20009F92AF92BF92CF92DF92EF92FF920F9358
:102F30001F93DF93CF93CDB7DEB7AC970FB6F8945E
:102F4000DEBF0FBECDBF5C014B01FC018381882336
:102F500009F41CC1C50182539E4F0E94236AF501EA
:102F600012821A8A1D8A198A188A8DE295E09F8733
:102F70008E875EE4C52ED12CCA0CDB1C2FE230E01C
:102F8000A20EB31EF601B182A08221ED3FEFA20E88
:102F9000B31EF40180818F3209F07EC0C4016FE25C
:102FA00070E0DBDA7C010894E11CF11C3E0108941E
:102FB000611C711C260142E1242E312C2C0E3D1E79
:102FC00066C0C7016FE270E0C8DA6C01009709F4CF
:102FD00071C0E816F90608F06DC08C010E191F09C2
:102FE000C301B701A801E2DA060D171DF80110822E
:102FF000F30107C08091C00085FFFCCF319690930C
:10300000C60090819923B1F78091C00085FFFCCF65
:10301000FAE0F093C600F2016081718161157105DB
:1030200019F460E070E002C06C5F7F4FC101A30142
:1030300021E00E940F718823F9F4E3ECF1E007C06E
:103040008091C00085FFFCCF9093C600319694918B
:103050009923B1F7FE01319607C08091C00085FF2A
:10306000FCCF31969093C60090819923B1F780915F
:10307000C00085FFFCCF84C02EE030E02C0F3D1F48
:10308000F2013183208376010894E11CF11CE114E4
:10309000F10409F096CF0BC080E590E0A80EB91EB0
:1030A000F601B182A08220EB3FEFA20EB31ED82C16
:1030B000092D02C0DE2C0F2D8EE490E0A80EB91E63
:1030C000F5018081918122EB3FEFA20EB31E0097A4
:1030D00019F480E090E001C004966D2D702F0E94DD
:1030E000DB71882319F4EDE9F1E034C0E5EBF1E0A0
:1030F00007C08091C00085FFFCCF9093C600319639
:1031000094919923B1F78D2D902F9C01F90107C05F
:103110008091C00085FFFCCF31969093C6009081CE
:103120009923B1F78091C00085FFFCCF8AE080939E
:10313000C60083E892E0A80EB91EF5011082118244
:103140001282138220C08091C00085FFFCCF909333
:10315000C600319694919923B1F78D2D902F9C0143
:10316000F90107C08091C00085FFFCCF3196909394
:10317000C60090819923B1F78091C00085FFFCCFF4
:103180008EE28093C600CE010E9608DDAC960FB697
:10319000F894DEBF0FBECDBFCF91DF911F910F918D
:1031A000FF90EF90DF90CF90BF90AF909F908F9067
:1031B0007F906F905F904F903F902F900895BF92B7
:1031C000CF92DF92EF92FF920F931F93CF93DF93F3
:1031D0008C01EB018FE28993EE24E394FF2475EADE
:1031E000C72E71E0D72EC00ED11E6FE1B62E14C0CF
:1031F000FB9CC00111248D589F4F800F911FBE0171
:103200000E94336A02C02196E3948881882319F0D2
:103210008CE88E15C0F7F3942F2D30E0F6018081F5
:1032200091812817390720F3E7FC07C0C8018253B2
:103230009E4FBE010E94336A01C01882DF91CF9178
:103240001F910F91FF90EF90DF90CF90BF90089566
:10325000EF92FF920F931F93CF93DF93EC011B82AA
:103260008EA9882321F0CE01C3960E94236AE7EA43
:10327000EE2EE1E0FE2EEC0EFD1EC70160E045E300
:103280000E94D0678823F9F4EEECF8E007C0809143
:10329000C00085FFFCCF9093C6003196949199238E
:1032A000B1F7E6E0F3E007C08091C00085FFFCCFF6
:1032B0009093C600319694919923B1F78091C00004
:1032C00085FFFCCF76C08E0104551E4FC801B701A3
:1032D00041E00E94B172882331F5C801B70140E096
:1032E0000E94B1728823F9F4E7ECF8E007C08091FE
:1032F000C00085FFFCCF9093C6003196949199232E
:10330000B1F7E3EFF2E007C08091C00085FFFCCF8A
:103310009093C600319694919923B1F78091C000A3
:1033200085FFFCCF46C0CE01C396B8010E94156D43
:103330008823F9F4E7ECF8E007C08091C00085FF2E
:10334000FCCF9093C600319694919923B1F7E3EEA8
:10335000F2E007C08091C00085FFFCCF9093C600CB
:10336000319694919923B1F78091C00085FFFCCFED
:1033700020C081E08B83EEECF8E007C08091C000B4
:1033800085FFFCCF9093C600319694919923B1F7B5
:10339000E8EDF2E007C08091C00085FFFCCF90937C
:1033A000C600319694919923B1F78091C00085FFB2
:1033B000FCCF8AE08093C600DE01AC5ABF4FFE010D
:1033C000F3968BE101900D928150E1F789A99AA9BA
:1033D000CE5ADF4F99838883C255D040CE018F9655
:1033E000C25BDF4F99838883DF91CF911F910F914B
:1033F000FF90EF9008952F923F924F925F926F92BD
:103400007F929F92AF92BF92CF92DF92EF92FF9204
:103410000F931F93DF93CF93CDB7DEB7CC55D0403A
:103420000FB6F894DEBF0FBECDBF6C01662309F066
:10343000E1C027E832E0C20ED31ED6018C91E9E745
:10344000FDEFCE0EDF1E882309F4E5C02FE732E042
:10345000C20ED31ED601ED90FD900D911C91E1E8B6
:10346000FDEFCE0EDF1E0E94B8A8E616F70608078D
:10347000190708F4D0C0BEC0C601EADED601139613
:103480008C91882309F4C7C000D000D0EDB7FEB7F7
:1034900031967E010894E11CF11CADB7BEB71296BF
:1034A000FC92EE9211978CE591E093838283D60192
:1034B0009D968D919C919E979583848386D8870154
:1034C000EDB7FEB736960FB6F894FEBF0FBEEDBF50
:1034D00057010AC0D8018C91992787FD90950E94C9
:1034E000C2B4F80181938F01F50101900020E9F742
:1034F0003197EA19FB09802F8E198E175CF313E3BD
:10350000A12EB12CAC0CBD1CC50140E050E060E028
:1035100070E00E940A699924BDE3EB2EF12CEC0EB9
:10352000FD1E2E010894411C511CAFE16A2E712C26
:103530006C0E7D1EF5E52F2EF1E03F2E40C0D80128
:103540008C9190E00E94C2B4F80181938F01D70161
:103550000D900020E9F71197AE19BF09802F8E1941
:103560008A176CF327968FAD27978E3741F1C701E5
:10357000B20145E050E00CD8009709F500D000D02A
:10358000EDB7FEB73196ADB7BEB712967C926E928C
:103590001197338222825582448217D8EDB7FEB745
:1035A00036960FB6F894FEBF0FBEEDBFC3010E9462
:1035B000A23881E591E00E949E4199249394C5012F
:1035C000B70140E050E00E94346C181614F48701F3
:1035D000BECF992041F48FEF9FEFD6019E969C932A
:1035E0008E939D9718C0F60185A596A5019696A77E
:1035F00085A711C027E832E0C20ED31ED6011C9267
:10360000E9E7FDEFCE0EDF1ED60113968C918823DD
:1036100009F432CF39CFC45ADF4F0FB6F894DEBF6A
:103620000FBECDBFCF91DF911F910F91FF90EF9013
:10363000DF90CF90BF90AF909F907F906F905F9002
:103640004F903F902F9008952F923F924F925F920C
:103650006F927F928F929F92AF92BF92CF92DF92A2
:10366000EF92FF920F931F93DF93CF93CDB7DEB707
:10367000CE58D0400FB6F894DEBF0FBECDBF8C0140
:103680002B016A01C757DF4F39832883C958D040BF
:1036900084E090E0C80ED91EF8017296C957DF4F3A
:1036A000F983E883C758D04045E0642E712C600E42
:1036B000711ECA57DF4F1882C658D04036E6E32E37
:1036C000F12CEC0EFD1EC7010B96C557DF4F9983F9
:1036D0008883CB58D04028E8822E22E0922E800E9C
:1036E000911E9AE8A92E92E0B92EA00EB11E87E491
:1036F000282E312C2C0E3D1EF1013496C357DF4F7E
:10370000F983E883CD58D04046C1F7018385282F3F
:1037100030E0A901487150704031510509F049C1AC
:10372000F401808191818130910509F442C10297B1
:1037300009F43FC1F701DE0111969081903239F012
:103740008E2F8E19883011F48EE28D939D933196D1
:10375000C557DF4F88819981CB58D040E817F907CA
:1037600061F71C921E86F2018081882331F4CE011C
:103770000E9660E072E00E94A212CE010E96B20197
:103780000E94A212CE010E96BE016F5F7F4F0E9473
:10379000A212CE010E9660E072E00E94A2121CA658
:1037A0001FA61BA61AA68DE295E099A788A7CE01B1
:1037B0008C96B601AE014F5F5F4F21E00E940F7102
:1037C0008823D1F5F40180819181892BA9F5EEEC54
:1037D000F8E007C08091C00085FFFCCF9093C60041
:1037E000319694919923B1F7E2E0F2E007C080911D
:1037F000C00085FFFCCF31969093C600908199233D
:10380000B1F78091C00085FFFCCFFAE0F093C600CD
:10381000FE01319607C08091C00085FFFCCF319634
:103820009093C60090819923B1F78091C00085FFE5
:10383000FCCF8AE08093C600C357DF4FA881B981CF
:10384000CD58D040FE01BC968BE101900D92815085
:10385000E1F78AA59BA5F101938382838DE295E030
:1038600091838083C801BE01625F7F4FA10120E088
:1038700030E0EADEC10192D9CE0188968FD98BC0A3
:103880008E3209F488C0F80182898E3209F483C02F
:1038900023FD81C080E04031510509F481E0F80149
:1038A0008483882349F4F7018085873409F073C045
:1038B00081858E3709F46FC0D301F7018081803292
:1038C00041F08E2F8E19883011F48EE28D93808115
:1038D0008D933196C557DF4F88819981CB58D04061
:1038E000E817F90759F71C92F4018081918100973C
:1038F00001F5F20107C08091C00085FFFCCF319631
:103900009093C60090819923B1F7F30107C080918D
:10391000C00085FFFCCF31969093C600908199231B
:10392000B1F78091C00085FFFCCFFAE0F093C600AC
:1039300032C08130910539F4F50180819181019681
:103940009183808328C0029731F5C757DF4F888164
:103950009981C958D040009731F0B3010E948F126D
:10396000892B71F42BC0CA57DF4F9881C658D040BD
:10397000292F30E0F5018081918128173907F1F076
:10398000CA57DF4FF881C658D040FF5FCA57DF4F94
:10399000F883C658D040C601B701C957DF4F4881E8
:1039A0005981C758D0400E94346C18160CF4ADCE23
:1039B00005C0F7018081882309F062CFC257DF4F2D
:1039C0000FB6F894DEBF0FBECDBFCF91DF911F9130
:1039D0000F91FF90EF90DF90CF90BF90AF909F90AE
:1039E0008F907F906F905F904F903F902F900895B1
:1039F000EF92FF920F931F93DF93CF93CDB7DEB774
:103A00006F970FB6F894DEBF0FBECDBF7C018C015F
:103A1000025B1F4F805B9F4FF8019183808328E8F2
:103A200032E0E20EF31E21E030E0F7012193319302
:103A30007F011182108226E73DEFE20EF31E04960D
:103A400040E050E060E070E00E940A69F8012081E7
:103A50003181DE011596F90134968BE101900D92CA
:103A60008150E1F7F901828193819C838B838DE200
:103A700095E09A838983C70165E172E08E010F5F4B
:103A80001F4FA80120E030E0DFDDC80187D8F70133
:103A9000E657FD4F808191816F960FB6F894DEBF97
:103AA0000FBECDBFCF91DF911F910F91FF90EF908F
:103AB0000895CF92DF92EF92FF920F931F93DF93BF
:103AC000CF93CDB7DEB76F970FB6F894DEBF0FBEBA
:103AD000CDBF7C016A018C01025B1F4F805B9F4F51
:103AE000F8019183808328E832E0E20EF31E22E0A1
:103AF00030E0F701219331937F017183608326E7E2
:103B00003DEFE20EF31E049640E050E060E070E00E
:103B10000E940A69F80120813181DE011596F901C0
:103B200034968BE101900D928150E1F7F901828189
:103B300093819C838B838DE295E09A838983C7016F
:103B400065E172E08E010F5F1F4FA80196017CDDD9
:103B5000C80124D86F960FB6F894DEBF0FBECDBF54
:103B6000CF91DF911F910F91FF90EF90DF90CF9059
:103B700008952F923F924F925F926F927F928F9211
:103B80009F92AF92BF92CF92DF92EF92FF920F93EC
:103B90001F93DF93CF93CDB7DEB7AD970FB6F894F1
:103BA000DEBF0FBECDBF7C014B014DA7DC011396DC
:103BB0008C91882309F40BC3E1EDF1E0EE0EFF1EBA
:103BC000D7018C91EFE2FEEFEE0EFF1E882309F481
:103BD0000FC1222319F0EEECF8E0E1C029EE31E04C
:103BE000E20EF31ED7018C91E7E1FEEFEE0EFF1E11
:103BF000882319F4EEECF8E033C0E7ECF8E007C0F6
:103C00008091C00085FFFCCF9093C60031969491BF
:103C10009923B1F7E5E9F2E007C08091C00085FF84
:103C2000FCCF9093C600319694919923B1F78AE224
:103C300096E061E070E04AE050E00E9467298091E0
:103C4000C00085FFFCCF8AE08093C6000E94B22DA1
:103C5000BEC28091C00085FFFCCF9093C600319614
:103C600094919923B1F7ECE7F2E007C08091C0008E
:103C700085FFFCCF9093C600319694919923B1F7BC
:103C8000F40107C08091C00085FFFCCF319690936E
:103C9000C60090819923B1F7E1E7F2E007C0809177
:103CA000C00085FFFCCF9093C60031969491992374
:103CB000B1F7C7012EEE31E0E20EF31EB7017FDA55
:103CC0004BEF5FEFE40EF51ED7019C91E7E1FEEFAD
:103CD000EE0EFF1E8DE8989FF0011124E251FE4F79
:103CE000EE0DFF1D07C08091C00085FFFCCF31960F
:103CF0009093C60090819923B1F7EBE6F2E007C0FC
:103D00008091C00085FFFCCF9093C60031969491BE
:103D10009923B1F723E832E0E20EF31ED7014D916B
:103D20005D916D917C91EDE7FDEFEE0EFF1E8AE255
:103D300096E02AE030E00E9418298091C00085FFBB
:103D4000FCCF8AE08093C600A70147515E4FDA019D
:103D50002C91E22FF0E0EE0FFF1FEE0FFF1FEE0D94
:103D6000FF1DE651FE4F83E892E0E80EF91ED701F1
:103D7000AD90BD90CD90DC908DE79DEFE80EF91EE3
:103D8000A082B182C282D3822F5FDA012C932AC033
:103D90008091C00085FFFCCF9093C600319694912E
:103DA0009923B1F7EAE5F2E007C08091C00085FFF2
:103DB000FCCF9093C600319694919923B1F7F4010A
:103DC00007C08091C00085FFFCCF31969093C6005C
:103DD00090819923B1F78091C00085FFFCCF8AE0E4
:103DE0008093C600C70182539E4F0E94236A37C04A
:103DF000E9EEF1E0EE0EFF1ED7011C92E7E1FEEFC7
:103E0000EE0EFF1EEEECF8E007C08091C00085FFCB
:103E1000FCCF9093C600319694919923B1F7E9E4D1
:103E2000F2E007C08091C00085FFFCCF9093C600F0
:103E3000319694919923B1F7F40107C08091C000A5
:103E400085FFFCCF31969093C60090819923B1F7FE
:103E50008091C00085FFFCCF8AE08093C600D70127
:103E600012961C921A8A1D8A198A188A8DE295E088
:103E70009F878E87F701E25BFF4F2FE230E0E20E73
:103E8000F31EF182E08241ED5FEFE40EF51ED401F6
:103E90008C918F3209F07CC064010894C11CD11C44
:103EA0003E010894611C711C2F0152E1252E312C1A
:103EB0002C0E3D1E68C0C6016FE270E00E94AD127C
:103EC0005C01009709F470C0C816D90608F06CC0F0
:103ED0008C010C191D09C301B601A8010E94D6125C
:103EE000060D171DF8011082F30107C08091C00074
:103EF00085FFFCCF31969093C60090819923B1F74E
:103F00008091C00085FFFCCFFAE0F093C600D2019B
:103F10006D917C916115710519F460E070E002C04B
:103F20006C5F7F4FC101A30121E00E940F718823C4
:103F3000F9F4E5E3F2E007C08091C00085FFFCCF13
:103F40009093C600319694919923B1F7FE01319672
:103F500007C08091C00085FFFCCF31969093C600CA
:103F600090819923B1F78091C00085FFFCCF00C1FB
:103F70002EE030E02C0F3D1FF201318320836501DC
:103F80000894C11CD11CC114D10409F094CF0AC0FB
:103F900040E550E0E40EF51EF182E08280EB9FEFF9
:103FA000E80EF91E840101C08601F701E25BFF4FB4
:103FB0009DA5992309F4ACC06081718161157105DB
:103FC00019F460E070E002C06C5F7F4FC70182535C
:103FD0009E4FA80121E00E940F71882319F4EDEF94
:103FE000F1E082C0AFEDB1E0EA0EFB1EF7014081C7
:103FF0005181628173812CE930E0E20EF31ED7011A
:104000004D935D936D937C931397E5E8FDEFEE0E72
:10401000FF1EE7E2F2E007C08091C00085FFFCCF01
:104020009093C600319694919923B1F7F80107C097
:104030008091C00085FFFCCF31969093C60090819F
:104040009923B1F7EFE1F2E007C08091C00085FF4E
:10405000FCCF9093C600319694919923B1F78AE2F0
:1040600096E02AE030E00E9418298091C00085FF88
:10407000FCCF8AE08093C60023E832E0E20EF31E14
:10408000D7011D921D921D921C921397EDE7FDEF33
:10409000EE0EFF1EE1E1F2E007C08091C00085FF57
:1040A000FCCF9093C600319694919923B1F78091FB
:1040B000C00085FFFCCF8AE08093C600C70160E0A6
:1040C00070E0A801F6DCD70152968C91882309F4A0
:1040D00076C087010E5E1F4F72C08091C00085FFC1
:1040E000FCCF9093C600319694919923B1F7F801D3
:1040F00007C08091C00085FFFCCF31969093C60029
:1041000090819923B1F78091C00085FFFCCF30C02A
:10411000608171816115710519F460E070E002C081
:104120006C5F7F4FC70182539E4FA80126E50E9416
:104130000F71882309F5E9EEF1E007C08091C00016
:1041400085FFFCCF9093C600319694919923B1F7E7
:10415000F80107C08091C00085FFFCCF3196909395
:10416000C60090819923B1F78091C00085FFFCCFF4
:104170008EE28093C60027C081E0F7018083E7EDDF
:10418000F1E007C08091C00085FFFCCF9093C6008E
:10419000319694919923B1F7F40107C08091C00042
:1041A00085FFFCCF31969093C60090819923B1F79B
:1041B0008091C00085FFFCCF8AE08093C600C801D3
:1041C00060E00E944592CE010E960E94CE15AD96FB
:1041D0000FB6F894DEBF0FBECDBFCF91DF911F9118
:1041E0000F91FF90EF90DF90CF90BF90AF909F9096
:1041F0008F907F906F905F904F903F902F90089599
:10420000EF92FF920F931F93CF93DF93EC010E94E5
:1042100040798E0107511E4FD8018C91BEECEB2ED8
:10422000B1E0FB2EEC0EFD1E882399F1C7010E9420
:10423000236AF8016081615060838DE8689FB00156
:10424000112462517E4F6C0F7D1FCE0141E021E0B1
:1042500090DCD801EC91F0E0EE0FFF1FEE0FFF1F96
:10426000EC0FFD1FE651FE4F408151816281738149
:10427000CD57DD4F488359836A837B83C358D2402F
:10428000C7010E940A698B81882379F181E08A83C2
:104290002CC0C7010E94236A1A828FE291E00E941B
:1042A0009E4180913B0B882301F110923B0B809142
:1042B000F808C82FD0E0CC0FDD1FC350D14F688164
:1042C0007981882777FD8095982F0E9421B12091D0
:1042D00054043091550440915604509157040E9463
:1042E0008DB2181614F419821882DF91CF911F91A4
:1042F0000F91FF90EF900895FC0181E08183CF0141
:1043000040E021E036CCEF92FF920F931F93DF93B2
:10431000CF93CDB7DEB76F970FB6F894DEBF0FBE61
:10432000CDBF7C0188E892E0E80EF91EF70111820A
:10433000108288E79DEFE80EF91E87010D5C1F4F84
:10434000C80140E050E060E070E00E940A69DE01D0
:104350001596F8018BE101900D928150E1F7F7017C
:1043600081A992A99C838B838DE295E09A838983AE
:10437000C70165E172E08E010F5F1F4FA80120E0C9
:1043800030E062D9C8010E94CE156F960FB6F8943E
:10439000DEBF0FBECDBFCF91DF911F910F91FF9078
:1043A000EF900895CF93DF93EC011BAA1EAA1AAADF
:1043B00019AA8DE295E098AB8FA7CC5ADF4F1882EF
:1043C00023961882C755D040FE01E05BFF4FCE5ABE
:1043D000DF4F19821882C255D04091838083DE015D
:1043E000A159BF4FFD0120E030E0482F1482178211
:1043F0001382128240839183215E3F4F7F9681E03A
:104400002633380799F7C855DE4F89E1888323960C
:104410001882689618822B96188223961882C15D9E
:10442000D140FE01E653FE4FC453DE4F198218827D
:1044300040839183C155DF4F188219821A821B82F3
:104440002896188219821A821B82C358D2401A8277
:104450001B8218821982CB55DE4F19821882CC5BE1
:10446000DF4F1882FD01C90111920197E9F7C25689
:10447000DF4F81E08883C758D2401EA61DA60E9448
:10448000B8A8C158DD4F68577C4E8F4F9F4F688347
:1044900079838A839B83DF91CF9108951F93182F8F
:1044A000882371F5EEECF8E007C08091C00085FF2D
:1044B000FCCF9093C600319694919923B1F7E5E42F
:1044C000F5E007C08091C00085FFFCCF9093C60047
:1044D000319694919923B1F78091C00085FFFCCF6C
:1044E0008AE08093C600EEECF8E007C08091C0003F
:1044F00085FFFCCF9093C600319694919923B1F734
:104500004091EB0A5091EC0A6091ED0A7091EE0A2D
:104510008DE395E00E9425334091EF0A5091F00A17
:104520006091F10A7091F20A8AE395E00E942533C6
:104530004091F30A5091F40A6091F50A7091F60ADD
:1045400087E395E00E9425334091F70A5091F80ADD
:104550006091F90A7091FA0A84E395E00E9425338C
:104560008091C00085FFFCCF8AE08093C6001123B4
:1045700071F5EEECF8E007C08091C00085FFFCCF3C
:104580009093C600319694919923B1F7EAE1F5E052
:1045900007C08091C00085FFFCCF9093C600319684
:1045A00094919923B1F78091C00085FFFCCF8AE0F8
:1045B0008093C600EEECF8E007C08091C00085FF54
:1045C000FCCF9093C600319694919923B1F7409116
:1045D000DB0A5091DC0A6091DD0A7091DE0A81E10C
:1045E00095E00E9425334091DF0A5091E00A6091E6
:1045F000E10A7091E20A8EE095E00E942533409135
:10460000E30A5091E40A6091E50A7091E60A8BE0B2
:1046100095E00E9425334091E70A5091E80A6091A5
:10462000E90A7091EA0A88E095E00E9425338091BA
:10463000C00085FFFCCF8AE08093C600112371F58E
:10464000EEECF8E007C08091C00085FFFCCF9093AE
:10465000C600319694919923B1F7EAEEF4E007C0D1
:104660008091C00085FFFCCF9093C6003196949155
:104670009923B1F78091C00085FFFCCF8AE0809339
:10468000C600EEECF8E007C08091C00085FFFCCFCB
:104690009093C600319694919923B1F74091FB0A0B
:1046A0005091FC0A6091FD0A7091FE0A81EE94E03F
:1046B0000E94732F4091FF0A5091000B6091010BF3
:1046C0007091020B8EED94E00E94732F4091030BCA
:1046D0005091040B6091050B7091060B8BED94E0EB
:1046E0000E94732F4091070B5091080B6091090BAA
:1046F00070910A0B88ED94E00E94732F8091C000A6
:1047000085FFFCCF8AE08093C600112371F5EEECA3
:10471000F8E007C08091C00085FFFCCF9093C600F1
:10472000319694919923B1F7E6EAF4E007C08091BD
:10473000C00085FFFCCF9093C600319694919923D9
:10474000B1F78091C00085FFFCCF8AE08093C6005E
:10475000EEECF8E007C08091C00085FFFCCF90939D
:10476000C600319694919923B1F740910F0B509167
:10477000100B6091110B7091120B8DE994E00E9467
:1047800025334091130B5091140B6091150B7091D0
:10479000160B8AE994E00E9425334091170B509143
:1047A000180B6091190B70911A0B87E994E00E9425
:1047B00025338091C00085FFFCCF8AE08093C6003E
:1047C000112371F5EEECF8E007C08091C00085FF81
:1047D000FCCF9093C600319694919923B1F7E4EE03
:1047E000F3E007C08091C00085FFFCCF9093C60026
:1047F000319694919923B1F78091C00085FFFCCF49
:104800008AE08093C600EEECF8E007C08091C0001B
:1048100085FFFCCF9093C600319694919923B1F710
:1048200040910B0B50910C0B60910D0B70910E0B86
:104830008BED93E00E9425334091270B5091280B7C
:104840006091290B70912A0B88ED93E00E9425332B
:104850004091D70A5091D80A6091D90A7091DA0A2A
:1048600085ED93E00E94732F40911B0B50911C0B20
:1048700060911D0B70911E0B82ED93E00E94253319
:1048800040911F0B5091200B6091210B7091220BD6
:104890008FEC93E00E9425334091230B5091240B21
:1048A0006091250B7091260B8CEC93E00E942533D0
:1048B0008091C00085FFFCCF8AE08093C600112361
:1048C00071F5EEECF8E007C08091C00085FFFCCFE9
:1048D0009093C600319694919923B1F7EAEBF3E0F7
:1048E00007C08091C00085FFFCCF9093C600319631
:1048F00094919923B1F78091C00085FFFCCF8AE0A5
:104900008093C600EEECF8E007C08091C00085FF00
:10491000FCCF9093C600319694919923B1F74091C2
:10492000DF085091E0086091E1087091E20881EBA6
:1049300093E00E9425334091E3085091E408609190
:10494000E5087091E6088EEA93E00E9425334091D5
:10495000E7085091E8086091E9087091EA088BEA4D
:1049600093E00E9425338091C00085FFFCCF8AE050
:104970008093C600112371F5EEECF8E007C080913A
:10498000C00085FFFCCF9093C60031969491992387
:10499000B1F7EFE8F3E007C08091C00085FFFCCFDE
:1049A0009093C600319694919923B1F78091C000FD
:1049B00085FFFCCF8AE08093C600EEECF8E007C0EC
:1049C0008091C00085FFFCCF9093C60031969491F2
:1049D0009923B1F740918F0F5091900F662757FDA3
:1049E0006095762F83E893E00E94732F4091910F9A
:1049F0005091920F662757FD6095762F80E893E0DF
:104A00000E94732F4091930F5091940F662757FD8A
:104A10006095762F8DE793E00E94732F8091C00000
:104A200085FFFCCF8AE08093C600112369F4EEEC89
:104A3000F8E007C08091C00085FFFCCF9093C600CE
:104A4000319694919923B1F74091950F5091960F1B
:104A5000662757FD6095762F81E793E00E94732FBC
:104A60004091970F5091980F662757FD6095762FCC
:104A70008EE693E00E94732F4091990F50919A0F08
:104A8000662757FD6095762F8BE693E00E94732F83
:104A90008091C00085FFFCCF8AE08093C60011237F
:104AA00071F5EEECF8E007C08091C00085FFFCCF07
:104AB0009093C600319694919923B1F7EDE5F3E018
:104AC00007C08091C00085FFFCCF9093C60031964F
:104AD00094919923B1F78091C00085FFFCCF8AE0C3
:104AE0008093C600EEECF8E007C08091C00085FF1F
:104AF000FCCF9093C600319694919923B1F74091E1
:104B0000610450916204609163047091640484E5CF
:104B100093E00E9425336091650470916604809152
:104B20006704909168040E94D383AB01BC0181E5C6
:104B300093E00E9425336091690470916A0480912A
:104B40006B0490916C040E94DF83AB01BC018EE486
:104B500093E00E94253340916D0450916E04609162
:104B60006F04709170048BE493E00E942533809170
:104B7000C00085FFFCCF8AE08093C6008091DE08EC
:104B8000882309F441C0112371F5EEECF8E007C069
:104B90008091C00085FFFCCF9093C6003196949120
:104BA0009923B1F7E8E3F3E007C08091C00085FFE7
:104BB000FCCF9093C600319694919923B1F78091E0
:104BC000C00085FFFCCF8AE08093C600EEECF8E0E1
:104BD00007C08091C00085FFFCCF9093C60031963E
:104BE00094919923B1F740912B0450912C0460913A
:104BF0002D0470912E048FE293E00E942533809162
:104C0000C00085FFFCCF20C0112309F5EEECF8E0D1
:104C100007C08091C00085FFFCCF9093C6003196FD
:104C200094919923B1F7E3E1F3E007C08091C000CC
:104C300085FFFCCF9093C600319694919923B1F7EC
:104C40008091C00085FFFCCF8AE08093C6001F9151
:104C50000895DF93CF93CDB7DEB7E0970FB6F89402
:104C6000DEBF0FBECDBFDE011196E9EDF4E080E1BD
:104C700001900D928150E1F7DE015196E9ECF4E0EC
:104C800080E101900D928150E1F7DE019196E9EB10
:104C9000F4E080E101900D928150E1F789819A81E1
:104CA000AB81BC818093EB0A9093EC0AA093ED0A50
:104CB000B093EE0A89899A89AB89BC898093DB0A13
:104CC0009093DC0AA093DD0AB093DE0A89A19AA131
:104CD000ABA1BCA18093FB0A9093FC0AA093FD0AB0
:104CE000B093FE0A8D819E81AF81B8858093EF0AD3
:104CF0009093F00AA093F10AB093F20A8D899E89ED
:104D0000AF89B88D8093DF0A9093E00AA093E10AFF
:104D1000B093E20A8DA19EA1AFA1B8A58093FF0A2E
:104D20009093000BA093010BB093020B89859A8599
:104D3000AB85BC858093F30A9093F40AA093F50A9F
:104D4000B093F60A898D9A8DAB8DBC8D8093E30A62
:104D50009093E40AA093E50AB093E60A89A59AA580
:104D6000ABA5BCA58093030B9093040BA093050BFC
:104D7000B093060B8D859E85AF85B8898093F70A21
:104D80009093F80AA093F90AB093FA0A8D8D9E8D3C
:104D9000AF8DB8A18093E70A9093E80AA093E90A3F
:104DA000B093EA0A8DA59EA5AFA5B8A98093070B7D
:104DB0009093080BA093090BB0930A0B0E943755F0
:104DC00080E090E0AAEFB3E480930F0B9093100B78
:104DD000A093110BB093120B8093130B9093140BB1
:104DE000A093150BB093160B80E090E0A6E9B3E416
:104DF0008093170B9093180BA093190BB0931A0B79
:104E000020E030E040E050E020930B0B30930C0B9F
:104E100040930D0B50930E0B80E29EE4A0E0B0E0B7
:104E20008093D70A9093D80AA093D90AB093DA0A4C
:104E30002093270B3093280B4093290B50932A0B78
:104E400080E090E0A0EAB1E480931B0B90931C0BF0
:104E5000A0931D0BB0931E0B8DEC9CECACECBEE351
:104E600080931F0B9093200BA093210BB093220BE8
:104E700080E090E0A0EAB0E48093230B9093240BB1
:104E8000A093250BB093260B2093E7083093E808F6
:104E90004093E9085093EA082093E3083093E4082C
:104EA0004093E5085093E6082093DF083093E0082C
:104EB0004093E1085093E2088CED90E09093900FBE
:104EC00080938F0F86E490E09093920F8093910FE0
:104ED0001092940F1092930F80EF90E09093960FA2
:104EE0008093950F8EE690E09093980F8093970FA4
:104EF00010929A0F1092990F8AE999E9A1EBB1E407
:104F00008093610490936204A0936304B09364045B
:104F100061E77DE38AE89FE30E94CD8360936504A7
:104F200070936604809367049093680460E070E077
:104F300084EE92E40E94D9836093690470936A04BA
:104F400080936B0490936C0480E090E0A0E8BFE352
:104F500080936D0490936E04A0936F04B0937004DB
:104F60000E94D4811092DE0880E090E0A0E4B0E4DA
:104F700080932B0490932C04A0932D04B0932E04C3
:104F800062D5EEECF8E007C08091C00085FFFCCF51
:104F90009093C600319694919923B1F7E5E5F5E039
:104FA00007C08091C00085FFFCCF9093C60031966A
:104FB00094919923B1F78091C00085FFFCCF8AE0DE
:104FC0008093C600E0960FB6F894DEBF0FBECDBF4B
:104FD000CF91DF9108951F920F920FB60F920BB6EB
:104FE0000F9211242F933F934F938F939F93EF939F
:104FF000FF934091C600E0912606F0912706319676
:105000009F012F7730703197809128069091290663
:105010002817390739F0EA55FA4F408330932706AD
:1050200020932606FF91EF919F918F914F913F9191
:105030002F910F900BBE0F900FBE0F901F901895E1
:105040009A01AB01203081EE380780E0480780E00C
:10505000580749F182E08093C00060E079E08DE379
:1050600090E00E9499B42150304040405040CA0125
:10507000B90122E030E040E050E00E9499B4309362
:10508000C5002093C4008091C10080618093C1005D
:105090008091C10088608093C1008091C1008068C8
:1050A0008093C10008951092C00020E130E0E7CF66
:1050B0002091280630912906809126069091270696
:1050C0008217930719F42FEF3FEF0EC0F901EA554D
:1050D000FA4F80812F5F3F4F2F7730703093290632
:1050E00020932806282F30E0C901089580912806D2
:1050F0009091290690932706809326060895089597
:105100002F923F924F925F926F927F928F929F92D7
:10511000AF92BF92CF92DF92EF92FF920F931F93C5
:10512000DF93CF93CDB7DEB7A0970FB6F894DEBF6D
:105130000FBECDBF1C016A017B0141155105610500
:10514000710541F440E350E060E070E020E030E0C1
:105150008BD055C0882499245401422E55246624AE
:10516000772401E010E00C0F1D1F080D191DC70169
:10517000B601A30192010E9477B4F80160830894FC
:10518000811C911CA11CB11CC701B601A301920195
:105190000E9477B4C901DA016C017D01C114D10408
:1051A000E104F104F1F681E0E82EF12CEC0EFD1E95
:1051B000E80CF91C3E010894611C711CD501C40166
:1051C0000197A109B1096C01C818D90815C0F601E9
:1051D000EE0DFF1D40814A3010F4405D01C0495C76
:1051E000552747FD5095652F752FC10120E030E010
:1051F0003BD00894E108F1086E147F0441F7A096B3
:105200000FB6F894DEBF0FBECDBFCF91DF911F91D7
:105210000F91FF90EF90DF90CF90BF90AF909F9055
:105220008F907F906F905F904F903F902F90089558
:105230002115310539F48091C00085FFFCCF4093E2
:10524000C60008955DCFEF92FF920F931F939A01CE
:10525000E62EFF2400E010E0B801A701E9DF1F916E
:105260000F91FF90EF900895EF92FF920F931F938D
:10527000CF93DF93EC017A018B012115310539F4CD
:105280008091C00085FFFCCFE092C60019C02A3093
:105290003105A9F477FF0FC04DE250E060E070E007
:1052A00020E030E0E1DF10950095F094E094E11CFF
:1052B000F11C011D111DCE01B801A7012AE020DF5C
:1052C000DF91CF911F910F91FF90EF900895EF9292
:1052D000FF920F931F937B019A010027F7FC009523
:1052E000102FB801A701C0DF1F910F91FF90EF9021
:1052F00008950F931F938C014DE050E060E070E043
:1053000020E030E0B1DFC8014AE050E060E070E04A
:1053100020E030E0A9DF1F910F910895CF92DF9236
:10532000EF92FF920F931F938C019A016B01EE2471
:10533000FF24B701A6017CDFC801DBDF1F910F91BD
:10534000FF90EF90DF90CF9008959F92AF92BF9221
:10535000CF92DF92EF92FF920F931F93CF93DF9341
:10536000EC017A018B01922ECB01BA0120E030E0F2
:1053700040E050E00E947FB0882364F4CE014DE20B
:1053800050E060E070E020E030E06EDF17FB109549
:1053900017F9109520E030E040E05FE3AA240BC04D
:1053A000CA01B90120E030E040E251E40E9486B039
:1053B0009B01AC01A394A91498F3C801B7010E9402
:1053C000A6AF5B016C010E94F3B07B018C01CE01A2
:1053D000B801A7012AE030E02BDF992041F0CE018F
:1053E0004EE250E060E070E020E030E03DDFC801D8
:1053F000B7010E941FB19B01AC01C601B5010E941B
:10540000A5AF21C020E030E040E251E40E945FB34C
:105410007B018C010E94EEB05B016C01CC24B7FCD7
:10542000C094DC2CCE01B601A5012AE030E01CDFDF
:10543000C601B5010E9421B19B01AC01C801B701B1
:105440000E94A5AF9A949920E9F6DF91CF911F9120
:105450000F91FF90EF90DF90CF90BF90AF909F9013
:10546000089573CF08950F931F939C01220F331F4C
:10547000F901E351FB4F0190F081E02DD901AA0F12
:10548000BB1F1E161F06E4F48D01095E1B4FBF01F2
:10549000882777FD8095982F0E9421B19B01AC0150
:1054A000F80160817181828193810E9486B060934E
:1054B0004B0470934C0480934D0490934E0428C089
:1054C000A95EBB4F6D917D918D919C9120E030E064
:1054D00040E251E40E9486B060934B0470934C0408
:1054E00080934D0490934E04E6E1F2E007C0809172
:1054F000C00085FFFCCF31969093C6009081992320
:10550000B1F78091C00085FFFCCF8AE08093C60090
:105510001F910F910895E6E5F2E007C08091C00069
:1055200085FFFCCF31969093C60090819923B1F707
:105530008091C00085FFFCCF8AE08093C600E1E245
:10554000FCE007C08091C00085FFFCCF9093C600AF
:10555000319694919923B1F7659903C0EFE6F2E093
:105560000AC0E4E7F2E007C08091C00085FFFCCFED
:1055700031969093C60090819923B1F78091C00035
:1055800085FFFCCF8AE08093C600E9E1FCE007C01C
:105590008091C00085FFFCCF9093C6003196949116
:1055A0009923B1F7649B03C0EFE6F2E00AC0E4E799
:1055B000F2E007C08091C00085FFFCCF3196909348
:1055C000C60090819923B1F78091C00085FFFCCF80
:1055D0008AE08093C600E1E1FCE007C08091C00052
:1055E00085FFFCCF9093C600319694919923B1F733
:1055F0008091030181FF03C0EFE6F2E00AC0E4E717
:10560000F2E007C08091C00085FFFCCF31969093F7
:10561000C60090819923B1F78091C00085FFFCCF2F
:105620008AE08093C600E9E0FCE007C08091C000FA
:1056300085FFFCCF9093C600319694919923B1F7E2
:105640008091030180FD03C0EFE6F2E00AC0E4E7C9
:10565000F2E007C08091C00085FFFCCF31969093A7
:10566000C60090819923B1F78091C00085FFFCCFDF
:105670008AE08093C600E1E0FCE007C08091C000B2
:1056800085FFFCCF9093C600319694919923B1F792
:105690004B9903C0EFE6F2E00AC0E4E7F2E007C08E
:1056A0008091C00085FFFCCF31969093C600908119
:1056B0009923B1F78091C00085FFFCCF8AE08093E9
:1056C000C600E9EFFBE007C08091C00085FFFCCF7A
:1056D0009093C600319694919923B1F74A9B03C0E9
:1056E000EFE6F2E00AC0E4E7F2E007C08091C00014
:1056F00085FFFCCF31969093C60090819923B1F736
:105700008091C00085FFFCCF8AE08093C600089599
:10571000EF92FF920F931F93CF93DF93EC01E090F2
:10572000EB08F090EC080091ED081091EE0868810C
:1057300079818A819B81A80197010E947FB088238B
:1057400024F4E882F9820A831B83E090EF08F0904A
:10575000F0080091F1081091F2086C817D818E8132
:105760009F81A80197010E947FB0882324F4EC82D6
:10577000FD820E831F836091F3087091F40880917D
:10578000F5089091F60820E030E040E050E00E94FB
:10579000A6AF7B018C01688579858A859B85A801E8
:1057A00097010E947FB0882324F4E886F9860A874F
:1057B0001B87E0903304F09034040091350410917D
:1057C0003604688179818A819B81A80197010E94B2
:1057D0008DB2181624F4E882F9820A831B83E090C4
:1057E0003704F09038040091390410913A046C8128
:1057F0007D818E819F81A80197010E948DB218162C
:1058000024F4EC82FD820E831F83E0903B04F09031
:105810003C0400913D0410913E04688579858A8599
:105820009B85A80197010E948DB2181624F4E88682
:10583000F9860A871B87DF91CF911F910F91FF9007
:10584000EF900895AF92BF92CF92DF92EF92FF92C6
:105850000F931F93CF93DF93EC01FB01A080B180E6
:10586000C280D380C601B501288139814A815B811C
:105870000E94A5AF7B018C0120E030E040E050E0C9
:105880000E947FB0882309F47DC0E091F808F0E021
:10589000EE0FFF1FEE0FFF1FE15FF04F6081718180
:1058A00082819381209143043091440440914504C6
:1058B000509146040E947FB088231CF5A882B982CB
:1058C000CA82DB82EEECF8E007C08091C00085FF61
:1058D000FCCF9093C600319694919923B1F7E3EAF7
:1058E000F9E007C08091C00085FFFCCF9093C6000F
:1058F000319694919923B1F78091C00085FFFCCF38
:1059000034C0C801B7010E94EEB097FF07C0909560
:105910008095709561957F4F8F4F9F4F693C7105C2
:10592000810591057CF1A882B982CA82DB82EEEC06
:10593000F8E007C08091C00085FFFCCF9093C600BF
:10594000319694919923B1F7E5E8F9E007C0809189
:10595000C00085FFFCCF9093C600319694919923A7
:10596000B1F78091C00085FFFCCF8AE08093C6002C
:105970000F2EF0E0EF2EF0E0FF2EF0E00F2FF0E022
:105980001F2FF02DB701C801DF91CF911F910F910B
:10599000FF90EF90DF90CF90BF90AF9008955F9A07
:1059A0001092C9088A9A1092CA089FB7F894E8E042
:1059B000F1E08081816080839FBF1092CB08129AB2
:1059C0000895EF92FF920F931F937B018C018091BA
:1059D000DE08882349F1C801B70120E030E040E04B
:1059E00050E00E947FB08823F9F0C801B70120E0A1
:1059F00030E040E05FE30E945FB37B018C012BED60
:105A00003FE049E450E40E945FB3A80197010E947F
:105A10005FB39B01AC0160E070E080E89FE30E940F
:105A200086B0E62F692F04C0E0E070E080E86FE305
:105A30002E2F372F482F562FB901CA011F910F91D2
:105A4000FF90EF90089560912B0470912C04809149
:105A50002D0490912E04B5DF60932F0470933004D1
:105A6000809331049093320408950F931F93CF9342
:105A7000DF938130910549F46F5F7F4F09F046C095
:105A80008BE296E00E94D22141C0892B09F03EC0F2
:105A90006F5F7F4FD9F58DE295E09093F607809385
:105AA000F5078091FC07882321F089EF97E00E9499
:105AB000236AC1EBD7E00DE215E005C06F9786E0E1
:105AC000CB37D80751F0198308838F818823B1F32E
:105AD000CE0104960E94236AF1CF8DE295E099836E
