:100000000C94B1190C94E2190C94E2190C94E219B5
:100010000C94E2190C94E2190C94E2190C94E21974
:100020000C94E2190C94E2190C94E2190C94E21964
:100030000C94E2190C94E2190C94E2190C94E21954
:100040000C94E2190C94D0290C94E2190C94E21946
:100050000C94E2190C94E2190C94CAEF0C94CDDBC9
:100060000C94E2190C94E08E0C94D68E0C94E21948
:100070000C94E2190C94E2190C94E2190C94E21914
:100080000C94E2190C94E2190C94E2190C94E21904
:100090000C94E2190C94E2190C94E2190C94E219F4
:1000A0000C94E2190C94E2190C94E2190C94E219E4
:1000B0000C94E2190C94E2190C94E2190C94E219D4
:1000C0000C94E2190C94E2190C94E2190C94E219C4
:1000D0000C94E2190C94E2190C94E2190C94E219B4
:1000E0000C94E219084AD73B3BCE016E84BCBFFD9D
:1000F000C12F3D6C74319ABD56833DDA3D00C77FF8
:1001000011BED9E4BB4C3E916BAAAABE0000008090
:100110003F05A84CCDB2D44EB93836A9020C50B91F
:10012000918688083CA6AAAA2ABE000000803F004B
:100130004E414E494E495459494E46CDCCCC3D0ACC
:10014000D7233C17B7D13877CC2B329595E6241FAF
:10015000B14F0A000020410000C84200401C462068
:10016000BCBE4CCA1B0E5AAEC59D7400407A10F33B
:100170005A00A0724E18090010A5D4E80000E876D5
:1001800048170000E40B54020000CA9A3B0000002C
:10019000E1F505000080969800000040420F000045
:1001A00000A08601000000102700000000E8030006
:1001B0000000006400000000000A000000000001D0
:1001C00000000000002C76D888DC674F0823DFC1D0
:1001D000DFAE59E1B1B796E5E3E453C63AE651998B
:1001E0007696E8E6C28426EB898C9B62ED407C6FB4
:1001F000FCEFBC9C9F40F2BAA56FA5F490055A2A6B
:10020000F75C936B6CF9676DC11BFCE0E40D47FE76
:10021000F520E6B500D0ED902E030094357705006B
:1002200080841E080000204E0A000000C80C3333F2
:1002300033330F986E12831141EF8D2114893BE601
:100240005516CFFEE6DB18D1844B381BF77C1D908A
:100250001DA4BBE424203284725E228100C9F124F3
:10026000ECA1E53D27554E4C4F41442046494C41B9
:100270004D454E54004C4F41442046494C414D455C
:100280004E540046494C414D454E54204348414E42
:1002900047450041425300504C41004C6576656C27
:1002A000696E6720446F6E6521004D6F7665205A38
:1002B00000473239205631004E65787420506F69FE
:1002C0006E74002569202F2025750047323920568D
:1002D0003100436C69636B20746F20426567696EFF
:1002E00000486F6D696E672058595A0053746F72D9
:1002F000652053657474696E6773004C6F61642088
:1003000053657474696E6773004F6666004F6E00C4
:10031000426564204C6576656C696E67004C657655
:10032000656C20426564004D6F74696F6E004265B4
:1003300064004E6F7A7A6C6500436F6E666967750C
:10034000726174696F6E00526573746F72652044D8
:10035000656661756C7473004C6F616420536574DD
:1003600074696E67730053746F726520536574749B
:10037000696E67730050726568656174202420435C
:100380006F6E6600416476616E63656420536574C8
:1003900074696E6773004D61696E004D37303220AD
:1003A000542564004D3630302042302054256400FE
:1003B0004D373032203B2564004D373031205425F5
:1003C0006400436F6E74696E756500507572676581
:1003D000206D6F726500524553554D45204F505466
:1003E000494F4E533A005052494E542050415553B4
:1003F00045440020204E6F7A7A6C653A20005061A7
:10040000726B696E672E2E2E000000576169742092
:10041000666F720066696C616D656E7420636861F9
:100420006E676500746F2073746172740057616940
:100430007420666F720066696C616D656E742075FC
:100440006E6C6F616400004E6F7A7A6C652068652F
:100450006174696E6700506C6561736520776169CE
:10046000742E2E2E000050726573732062757474A2
:100470006F6E00746F2068656174206E6F7A7A6C9D
:10048000650000496E736572742066696C616D6504
:100490006E7400616E64207072657373206275748F
:1004A000746F6E00746F20636F6E74696E75650093
:1004B0005761697420666F720066696C616D656E64
:1004C00074206C6F61640000507265737320427514
:1004D00074746F6E00746F20726573756D65207033
:1004E00072696E7400005761697420666F722070C3
:1004F00072696E7400746F20726573756D652E2E4F
:100500002E00005761697420666F720066696C6125
:100510006D656E7420707572676500003131300052
:1005200035004245443A204550434F532031303046
:100530004B0052756E617761792057617463683A38
:10054000204F4E004D61782054656D70003236307A
:10055000004D696E2054656D7000350045313A20BC
:100560004550434F53203130304B005053550047D6
:10057000656E657269630050726F746F636F6C00B3
:10058000312E300042617564003131353230300037
:1005900052414D505320312E3400332D506F696E2F
:1005A00074204C6576656C696E6700457874727569
:1005B0006465727300310068747470733A2F2F6D24
:1005C00061726C696E66772E6F72670052463130C9
:1005D0003020584C00323032302D31302D31350042
:1005E000322E302E372E32004D61726C696E0054FF
:1005F0006865726D6973746F727300426F617264C3
:1006000020496E666F005072696E74657220496E83
:10061000666F004D61696E003F004261636B00537D
:10062000746F70004368616E67652046696C616D28
:10063000656E7400507265686561742043757374EB
:100640006F6D0050726568656174202400426163BB
:100650006B005072696E742066726F6D204D656418
:100660006961004368616E6765204D65646961007A
:100670004D32310041626F7574205072696E74653D
:1006800072004368616E67652046696C616D656ED6
:1006900074004D36303020423000436F6E6669671B
:1006A00075726174696F6E0054656D706572617406
:1006B000757265004D6F74696F6E00526573756D6C
:1006C00065205072696E74004E6F204D65646961DB
:1006D0000054756E650053746F70205072696E74AB
:1006E000005061757365205072696E7400496E66C2
:1006F0006F2053637265656E003F005374617274BE
:10070000205072696E740043616E63656C005072B4
:10071000696E740043616E6E6F7420656E746572ED
:10072000207375626469723A2000052E2E004D61B7
:10073000696E002100486F74656E6420746F6F20CD
:10074000636F6C64004261636B0050726F63656538
:1007500064004D6F74696F6E0044697361626C650B
:10076000205374657070657273004D3834004265B3
:1007700064204C6576656C696E67004175746F2006
:10078000486F6D6500473238004D61696E005072E8
:100790006568656174202420456E64005072656848
:1007A0006561742024204265640054656D70657233
:1007B00061747572650097029302436F6F6C646F8A
:1007C000776E00507265686561742024004265642C
:1007D000004E6F7A7A6C65004D61696E00416476F7
:1007E000616E6365204B00466C6F77004265640064
:1007F0004E6F7A7A6C65005370656564004D61696F
:100800006E004D343130004D3131322053687574F3
:10081000646F776E004D313132004D313038005306
:10082000544F505045442E20005072696E746572CA
:100830002073746F707065642064756520746F2018
:100840006572726F72732E20466978207468652015
:100850006572726F7220616E6420757365204D3908
:10086000393920746F20726573746172742E202878
:1008700054656D706572617475726520697320725C
:10088000657365742E2053657420697420616674E5
:1008900065722072657374617274696E67290A00EB
:1008A0004E6F20436865636B73756D20776974685C
:1008B000206C696E65206E756D6265722C204C61CE
:1008C0007374204C696E653A20004E6F2043686552
:1008D000636B73756D2077697468206C696E652031
:1008E0006E756D6265722C204C617374204C696E5C
:1008F000653A2000636865636B73756D206D69737D
:100900006D617463682C204C617374204C696E6552
:100910003A20004C696E65204E756D6265722069E3
:1009200073206E6F74204C617374204C696E652067
:100930004E756D6265722B312C204C617374204CA6
:10094000696E653A20004D313130005344207265A4
:100950006164206572726F720A002121204B494C3C
:100960004C20636175736564206279204B494C4C5F
:1009700020627574746F6E2F70696E0A00212120D9
:100980004B494C4C20636175736564206279207417
:100990006F6F206D75636820696E61637469766539
:1009A0002074696D65202D2063757272656E7420E8
:1009B000636F6D6D616E643A2000627573793A20E1
:1009C00070617573656420666F7220696E707574EE
:1009D0000A00627573793A207061757365642066E8
:1009E0006F7220757365720A00627573793A2070B0
:1009F000726F63657373696E670A004D6564696140
:100A00002052656D6F766564004D656469612049AB
:100A10006E73657274656400506C65617365205215
:100A200065736574005052494E5445522048414CFC
:100A30005445440025533A202553004B494C4C451E
:100A4000442E20005072696E7465722068616C7467
:100A500065642E206B696C6C28292063616C6C6561
:100A600064210A006F70656E005452494747455231
:100A70004544003A20007A5F6D696E00795F6D61D0
:100A80007800785F6D696E005265706F7274696E80
:100A90006720656E6473746F70207374617475730E
:100AA0000A00486F6D696E67204661696C65640075
:100AB0000000000000004843000000000000484221
:100AC00000004842000080405761726E696E673ACC
:100AD00020486F6D696E672042756D70204469769D
:100AE00069736F72203C20310A000202040000A0EA
:100AF000400000A0400000004000004843000048C3
:100B00004300004843FF01FF000000010000000116
:100B1000000080005555550000004000333333007D
:100B2000AAAA2A004992240000002000C7711C00D4
:100B300099991900D1451700555515003BB113007F
:100B40002449120011111100000010000F0F0F00B6
:100B5000E3380E0043790D00CCCC0C00C3300C0000
:100B6000E8A20B0064210B00AAAA0A00703D0A004B
:100B70009DD80900427B090092240900DCD30800BB
:100B8000888808001042080000000800F0C1070033
:100B90008787070075500700711C07003EEB0600B1
:100BA000A1BC06006990060066660600703E06005D
:100BB0006118060017F4050074D105005BB005004C
:100BC000B2900500627205005555050078390500A0
:100BD000B81E0500050505004EEC040087D404008E
:100BE000A1BD040090A7040049920400C17D040047
:100BF000EE690400C7560400444404005C3204005B
:100C00000821040041100400000004003FF003002C
:100C1000F8E0030026D20300C3C30300CCB50300F1
:100C20003AA803000A9B0300388E0300C08103002A
:100C30009F750300D0690300505E03001D5303003D
:100C400034480300913D03003333030016290300A9
:100C5000381F030097150300300C03000303030043
:100C60000BFA020049F10200BAE802005CE002005F
:100C70002DD802002DD0020059C80200B0C00200D9
:100C800031B90200DAB10200AAAA0200A0A3020050
:100C9000BC9C0200FA9502005C8F0200DF88020013
:100CA00082820200457C0200277602002770020043
:100CB000436A02007C640200D05E02003F590200D9
:100CC000C8530200FFFDFCFAF8F6F4F2F0EEECEA8D
:100CD000E9E7E5E3E1E0DEDCDAD9D7D5D4D2D0CF5D
:100CE000CDCBCAC8C7C5C3C2C0BFBDBCBAB9B7B6F1
:100CF000B4B3B2B0AFADACAAA9A8A6A5A4A2A1A056
:100D00009E9D9C9A99989795949392908F8E8D8B97
:100D10008A8988878684838281807F7E7D7B7A79B9
:100D20007877767574737271706F6E6D6C6B6A69BB
:100D30006867666564636261605F5E5D5C5B5A59AB
:100D400058585756555453525150504F4E4D4C4B86
:100D50004A4A4948474646454443424241403F3E4D
:100D60003E3D3C3B3B3A3938383736353534333203
:100D7000323130302F2E2E2D2C2B2B2A29292827AB
:100D80002726252524232322212120201F1E1E1D46
:100D90001C1C1B1B1A1919181817161615151413D5
:100DA0001312121111100F0F0E0E0D0D0C0C0B0A59
:100DB0000A090908080707060605050404030302D3
:100DC000020100000000484300004843000048437F
:100DD0000000000000000000000000005365747473
:100DE000696E67732053746F72656400290A00206E
:100DF00062797465733B2063726320005365747479
:100E0000696E67732053746F7265642028004545CE
:100E100050524F4D206461746173697A6520657228
:100E2000726F722E0A00290A002062797465733B82
:100E30002063726320002073746F72656420736591
:100E40007474696E6773207265747269657665641F
:100E5000202800202863616C63756C6174656429C7
:100E6000210A0020213D2000454550524F4D20438E
:100E70005243206D69736D61746368202D2028735F
:100E8000746F7265642920002053697A653A2000E6
:100E9000496E6465783A200044494749504F54539D
:100EA000204C6F616465640A0044494749504F54BF
:100EB00053204C6F6164696E670A00204D61726C4B
:100EC000696E3D563832290A00454550524F4D2033
:100ED00076657273696F6E206D69736D6174636896
:100EE0002028454550524F4D3D0048617264636F64
:100EF0006465642044656661756C74205365747420
:100F0000696E6773204C6F616465640A0000009627
:100F100043000096430000A0410000C841D7A39DB4
:100F200042D7A39D42000048440000E842F401007B
:100F300000F401000064000000102700003B2000C6
:100F400020204D36303320002055004C0046696C7F
:100F5000616D656E74206C6F61642F756E6C6F616E
:100F600064206C656E677468733A0020204D3930D8
:100F700030204B004C696E65617220416476616E71
:100F800063653A0020440020490020204D33303171
:100F90002050005049442073657474696E67733A39
:100FA0000020420020480020204D313435205300DD
:100FB0004D6174657269616C20686561747570203B
:100FC000706172616D65746572733A0020204D34F2
:100FD00032302053004175746F20426564204C65A7
:100FE00076656C696E673A0020204D3230362058A5
:100FF00000486F6D65206F66667365743A00204A1D
:101000000020530020204D323035204200416476CC
:10101000616E6365643A20423C6D696E5F7365671B
:101020006D656E745F74696D655F75733E20533CCA
:101030006D696E5F66656564726174653E20543CDF
:101040006D696E5F74726176656C5F66656564720A
:101050006174653E204A3C6A756E635F6465763EE6
:101060000020540020520020204D32303420500007
:10107000416363656C65726174696F6E2028756E7B
:101080006974732F7332293A20503C7072696E7400
:101090005F616363656C3E20523C7265747261638C
:1010A000745F616363656C3E20543C747261766565
:1010B0006C5F616363656C3E0020204D32303120EF
:1010C00058004D6178696D756D20416363656C658D
:1010D000726174696F6E2028756E6974732F733234
:1010E000293A0020204D3230332058004D61786974
:1010F0006D756D2066656564726174657320287511
:101100006E6974732F73293A00537465707320707D
:10111000657220756E69743A0020440020204D32BB
:1011200030302053002044697361626C65640A00AA
:1011300046696C616D656E742073657474696E6761
:10114000733A0020204D3134392043203B20556E26
:1011500069747320696E2043656C736975730A0046
:1011600020286D6D29002020473231202020203B8F
:1011700020556E69747320696E206D6D0024F4D45F
:101180003050C38E20C2A24017828B7011127A9108
:101190000D816CD90AA861E108C7586607615143FF
:1011A000061E4B5D05C145A7041A411104093D986F
:1011B00003713931034036DB0265339102D4305478
:1011C00002802E1D02632CEE01752AC501B028A0F5
:1011D00001102781018F2564012B244B01E022346B
:1011E00001AC211F018D200D01801FFC00841EED2C
:1011F00000971DDF00B81CD200E61BC600201BBCF8
:1012000000641AB200B219A8000A19A0006A18995D
:1012100000D117910040178B00B516840031167E5F
:1012200000B31579003A157300C7146F0058146A9B
:1012300000EE1366008813630025135E00C7125B7F
:10124000006C12570015125400C111510070114F5B
:101250000021114B00D61049008D10470046104464
:101260000002104200C00F4000800F3E00420F3CC1
:1012700000060F3B00CB0E3800930E37005C0E3596
:1012800000270E3400F30D3200C10D3100900D30F7
:1012900000600D2E00320D2D00050D2C00D90C2BF9
:1012A00000AE0C2900850C29005C0C2700350C27AA
:1012B000000E0C2600E80B2400C40B2400A00B2316
:1012C000007D0B23005A0B2100390B2100180B2045
:1012D00000F80A1F00D90A1E00BB0A1E009D0A1D45
:1012E00000800A1D00630A1C00470A1B002C0A1B11
:1012F00000110A1A00F7091A00DD091900C40919BA
:1013000000AB091900920917007B0918006309173F
:10131000004C09160036091600200916000A0915A6
:1013200000F5081500E0081400CC081400B80814F3
:1013300000A4081400900813007D0812006B081325
:101340000058081200460812003408110023081142
:10135000001208110001081100F0071000E007104A
:1013600000D0071000C0071000B0070F00A1071041
:101370000091070E0083070F0074070F0065070E2A
:101380000057070E0049070E003B070D002E070E01
:101390000020070D0013070D0006070D00F9060CCD
:1013A00000ED060D00E0060C00D4060C00C8060C8B
:1013B00000BC060C00B0060C00A4060B0099060C3D
:1013C000008D060B0082060B0077060B006C060BE7
:1013D0000061060A0057060B004C060A0042060A86
:1013E0000038060A002E060A0024060A001A060A19
:1013F000001006090007060A00FD050900F40509AA
:1014000000EB050900E2050900D9050900D005092E
:1014100000C7050900BE050900B5050800AD0508AF
:1014200000A50509009C050800940508008C050826
:1014300000840508007C050800740508006C050799
:1014400000650508005D050700560508004E050704
:10145000004705070040050800380507003105076B
:10146000002A050700230507001C050600160507CE
:10147000000F0507000805060002050700FB04062B
:1014800000F5040700EE040600E8040600E2040785
:1014900000DB040600D5040600CF040600C90406DC
:1014A00000C3040600BD040600B7040600B104052D
:1014B00000AC040600A6040600A00405009B040678
:1014C0000095040500900406008A040500850405C3
:1014D00000800406007A0405007504050070040508
:1014E000006B04050066040500610405005C04054A
:1014F0000057040500520405004D0405004804058A
:1015000000430405003E0404003A040500350405C8
:1015100000300404002C0405002704040023040503
:10152000001E0404001A040400160405001104043B
:10153000000D040400090405000404040000040470
:1015400000FC030400F8030400F4030400F00304A7
:1015500000EC030400E8030400E4030400E00304D7
:1015600000DC030400D8030400D4030400D0030407
:1015700000CC030400C8030300C503030024F404E3
:10158000D9201BC40C5C0E9804C4095F0265077166
:1015900001F405F900FB04B30048048700C10369A6
:1015A000005803550003034500BE023A008402318F
:1015B0000053022A002902250004022000E4011C35
:1015C00000C8011900AF011700980114008401132D
:1015D00000710110006101100051010E0043010D66
:1015E0000036010B002B010B0020010B0015010937
:1015F000000C01090003010800FB000800F30008CB
:1016000000EB000700E4000600DE000600D800063C
:1016100000D2000600CC000500C7000500C200058E
:1016200000BD000400B9000400B5000400B10004CE
:1016300000AD000400A9000400A5000300A20003FF
:10164000009F0004009B0003009800030095000227
:101650000093000300900003008D0002008B000344
:10166000008800020086000200840003008100025E
:10167000007F0002007D0002007B00020079000272
:101680000077000100760002007400020072000181
:1016900000710002006F0002006D0001006C00028A
:1016A000006A000100690002006700010066000195
:1016B0000065000100640002006200010061000199
:1016C00000600001005F0002005D0001005C00019D
:1016D000005B0001005A00010059000100580001A0
:1016E00000570001005600010055000100540001A0
:1016F000005300000053000100520001005100019E
:1017000000500001004F0001004E0000004E00019B
:10171000004D0001004C0001004B0000004B000197
:10172000004A000100490001004800000048000193
:10173000004700010046000000460001004500008F
:101740000045000100440001004300000043000187
:101750000042000000420001004100000041000181
:1017600000400001003F0000003F0001003E00007B
:10177000003E0001003D0000003D0001003C000073
:10178000003C0000003C0001003B0000003B000169
:10179000003A0000003A0001003900000039000161
:1017A0000038000000380000003800010037000059
:1017B000003700010036000000360000003600014E
:1017C0000035000000350000003500010034000045
:1017D000003400000034000100330000003300003A
:1017E000003300010032000000320000003200012E
:1017F0000031000000310000003100010030000025
:101800000030000000300001002F0000002F000019
:10181000002F0000002F0001002E0000002E00000D
:10182000002E0001002D0000002D0000002D000002
:10183000002D0001002C0000002C0000002C0000F6
:10184000002C0001002B0000002B0000002B0000EA
:10185000002B0001002A0000002A0000002A0000DE
:10186000002A0001002900000029000000290000D2
:1018700000290000002900010028000000280000C5
:1018800000280000002800000028000100270000B8
:1018900000270000002700000027000000270001AB
:1018A00000260000002600000026000000260000A0
:1018B0000026000100250000002500000025000092
:1018C0000025000000250000002500010024000084
:1018D0000024000000240000002400000024000177
:1018E000002300000023000000230000002300006C
:1018F000002300000023000000230001002200005C
:10190000002200000022000000220000002200004F
:101910000022000100210000002100000021000041
:101920000021000000210000002100000021000132
:101930000020000000200000002000000020000027
:101940000020000000200000002000000020000116
:10195000001F0000001F0000001F0000001F00000B
:10196000001F0000001F0000001F0001001E0000FB
:10197000001E0000001E0000001E000000232C00BE
:1019800000B8220000561800003A0F0000B8080006
:1019900000B1040000710200003E01000020436F0E
:1019A000756E7420583A000042656400453100624B
:1019B0006564002C2073797374656D2073746F7087
:1019C00070656421204865617465725F49443A20FE
:1019D0000048656174696E67204661696C656400E2
:1019E00048656174696E67206661696C656400545E
:1019F0004845524D414C2052554E41574159005493
:101A00006865726D616C2052756E61776179004313
:101A10004F4D4D554E49434154494F4E0044525944
:101A200052554E004552524F525300494E464F00B8
:101A30004543484F006563686F3A004572726F72A4
:101A40003A00486F74656E6420746F6F20636F6C2A
:101A5000640A000A0A426564204C6576656C20437E
:101A60006F7272656374696F6E204D61747269780C
:101A70003A00332D706F696E742070726F62696EF8
:101A80006720646F6E652E0A0069646C650A002029
:101A90006F662000706F696E7420004D616E756115
:101AA0006C2047323920004D616E75616C204732E1
:101AB000392061626F727465640A002028445259AB
:101AC00052554E2900473239204175746F204265C6
:101AD00064204C6576656C696E67003F2856296501
:101AE00072626F7365206C6576656C20696D706CD1
:101AF00061757369626C652028302D34292E0A00C7
:101B0000496E736572742066696C616D656E7420D0
:101B1000616E6420707265737320627574746F6E89
:101B20000A00507265737320627574746F6E20744E
:101B30006F2068656174206E6F7A7A6C650A00495F
:101B40006E736572742066696C616D656E74206178
:101B50006E6420707265737320627574746F6E0AA0
:101B60000020496E76616C696420657874727564D2
:101B70006572200020746F6F206C6F6E672065782F
:101B800074727573696F6E2070726576656E7465B8
:101B9000640A0020636F6C642065787472757369E1
:101BA0006F6E2070726576656E7465640A004732E8
:101BB0002F47332062616420706172616D657465C6
:101BC00072730A00536C6565702E2E2E00436C698B
:101BD000636B20746F20526573756D652E2E2E0019
:101BE0004E6F204D6F76652E00456E642066696CE1
:101BF00065206C6973740A00426567696E206669C6
:101C00006C65206C6973740A004E6F206D656469A1
:101C1000610A00286E6F2066696C65290043757241
:101C200072656E742066696C653A200053442070BA
:101C300072696E74696E67206279746520004E6FF8
:101C400074205344207072696E74696E670A002EA6
:101C50000A0044656C6574696F6E206661696C6525
:101C6000642C2046696C653A200046696C652064E6
:101C7000656C657465643A002569730025696D209B
:101C8000256973002569682025696D202569730021
:101C9000256964202569682025696D202569730000
:101CA00025697920256964202569682025696D20CA
:101CB000256973005072696E742074696D653A20ED
:101CC00000436F6F6C696E672E2E2E00486561743D
:101CD000696E672E2E2E0045202553006F6B006F16
:101CE000666600301A2B1A241A1D1A0F1A44454230
:101CF00055473A004D31313320530020573A0042C6
:101D0000656420436F6F6C696E672E2E2E004265EE
:101D1000642048656174696E672E2E2E005246312C
:101D2000303020584C204F46462E004348414D420B
:101D300045525F54454D504552415455524500421D
:101D40004142595354455050494E47004152435324
:101D5000004D4F54494F4E5F4D4F4445530054483A
:101D600045524D414C5F50524F54454354494F4E9C
:101D7000004C4F4E475F46494C454E414D45004152
:101D800055544F5245504F52545F53445F53544142
:101D9000545553005344434152440050524F4D5008
:101DA000545F535550504F525400454D455247458E
:101DB0004E43595F50415253455200434153455F92
:101DC0004C494748545F4252494748544E45535343
:101DD00000544F47474C455F4C49474854530053C4
:101DE0004F4654574152455F504F57455200425558
:101DF000494C445F50455243454E54004C4556456E
:101E00004C494E475F44415441005A5F50524F4243
:101E1000450052554E4F5554004155544F4C455670
:101E2000454C005052494E545F4A4F420050524F69
:101E30004752455353004155544F5245504F525409
:101E40005F54454D5000564F4C554D4554524943F3
:101E500000454550524F4D0042494E4152595F4650
:101E6000494C455F5452414E5346455200534552EA
:101E700049414C5F584F4E5F584F464600464952C5
:101E80004D574152455F4E414D453A4D61726C6927
:101E90006E20322E302E372E3220284665622031B9
:101EA0003320323032312031323A30323A32312935
:101EB00020534F555243455F434F44455F55524C65
:101EC0003A68747470733A2F2F6769746875622E5C
:101ED000636F6D2F4D61726C696E4669726D7761CB
:101EE00072652F4D61726C696E2050524F544F4392
:101EF0004F4C5F56455253494F4E3A312E30204D8C
:101F0000414348494E455F545950453A5246313055
:101F10003020584C2045585452554445525F434F49
:101F2000554E543A3120555549443A6365646532FB
:101F30006132662D343161322D343734382D3962B7
:101F400031322D6335356336326633363766660A8D
:101F5000002F2F20004D31343520533C696E6465CD
:101F6000783E206F7574206F662072616E67652001
:101F700028302D31290A00205200416363656C65C9
:101F8000726174696F6E3A2050003F4A206F757419
:101F9000206F662072616E67652028302E303120F8
:101FA000746F20302E33290A0020580020204D6104
:101FB000783A2000200020204D696E3A2000536FAF
:101FC000667420656E6473746F70733A20004652B5
:101FD0003A0020466C6F773A200020643A0020696E
:101FE0003A0020703A00496E76616C696420657829
:101FF0007472756465720A0064697300656E0043EB
:10200000290A0061626C656420286D696E20746520
:102010006D702000436F6C64206578747275646520
:10202000732061726520004F4646004F4E004265A6
:1020300064204C6576656C696E6720004661696C4A
:10204000656420746F20656E61626C652042656412
:10205000204C6576656C696E670A00426564204CA9
:102060006576656C20436F7272656374696F6E206C
:102070004D61747269783A004F66667365747320B7
:102080004170706C696564004572723A20546F6FDC
:10209000206661722100546F6F2066617220667243
:1020A0006F6D207265666572656E636520706F691D
:1020B0006E740A00454550524F4D204F4B0A002E7A
:1020C0000A002028302D313029002076616C75659A
:1020D000206F7574206F662072616E6765004164C1
:1020E00076616E6365204B3D004D383400446F6E61
:1020F00065207072696E74696E672066696C650A26
:10210000004D3737004D333100496E76616C69649C
:102110002065787472756465720A00220A00656E23
:102120007175657565696E672022006F6B00526579
:1021300073656E643A20004361703A0023646566FB
:10214000696E652044454641554C545F004B642000
:10215000004B6920004B70200050494420417574A9
:102160006F74756E652066696E6973686564212099
:1021700050757420746865206C617374204B702CEA
:10218000204B6920616E64204B6420636F6E737412
:10219000616E74732066726F6D2062656C6F77205C
:1021A000696E746F20436F6E6669677572617469DA
:1021B0006F6E2E680A00504944204175746F747523
:1021C0006E65206661696C6564212074696D656F58
:1021D00075740A00504944204175746F74756E65BA
:1021E000206661696C6564212054656D706572615B
:1021F0007475726520746F6F20686967680A0020C3
:102200004B643A2000204B693A2000204B703A2062
:10221000000A20436C617373696320504944200AAB
:10222000002054753A2000204B753A2000206D6143
:10223000783A2000206D696E3A200020643A200030
:1022400020626961733A2000504944204175746FDF
:1022500074756E652073746172740A00504944206D
:102260004175746F74756E65206661696C65642173
:102270002054656D706572617475726520746F6F3E
:1022800020686967680A00504944204175746F747A
:10229000756E6500504944204175746F74756E65A4
:1022A000206661696C6564212042616420657874F0
:1022B0007275646572206E756D6265720A00457292
:1022C000726F722077726974696E6720746F20452F
:1022D0004550524F4D210A0042656400456E636CC3
:1022E0006F73757265002568753A25303268750020
:1022F00025303268753A2530326875002D2D2D0055
:1023000053440020202020202020002020202000D6
:102310005072696E742041626F72746564004D3250
:10232000350050617573696E672E2E2E004545503D
:10233000524F4D2056657273696F6E204572726FF1
:102340007200454550524F4D20496E6465782045D6
:1023500072726F7200454550524F4D2043524320D8
:102360004572726F72003F0049676E6F726500526E
:102370006573657400496E697469616C697A65207A
:10238000454550524F4D00A10000006900A20000D9
:10239000006300B00000000900C10000004100C25D
:1023A0000000004100C30000004100C400000041E3
:1023B00000C50000004100C60000004145C7000004
:1023C000004300C80000004500C90000004500CDE2
:1023D0000000004900D10000004E00D50000004F71
:1023E00000D60000004F00D70000007800DC00009D
:1023F000005500DD0000005900E00000006100E130
:102400000000006100E20000006100E300000061E4
:1024100000E40000006100E50000006100E600004B
:10242000006165E70000006300E80000006500E966
:102430000000006500EA0000006500EB0000006598
:1024400000EC0000006900ED0000006900EE0000F3
:10245000006900EF0000006900F10000006E00F26A
:102460000000006F00F30000006F00F40000006F38
:1024700000F50000006F00F60000006F00F800009B
:10248000006F00F90000007500FA0000007500FB05
:102490000000007500FC0000007500FD00000079E0
:1024A00000FF000000790004010000410005010068
:1024B0000061000601000043000701000063000CFA
:1024C00001000043000D01000063000E0100004404
:1024D000000F0100006400110100006400190100F8
:1024E0000065001A01000045001B01000065001F87
:1024F000010000670030010000490031010000695F
:1025000000410100004C00420100006C004301004A
:10251000004E00440100006E00480100006E0058AB
:1025200001000052005901000072005A01000053DE
:10253000005B01000073005F010000730060010098
:102540000053006101000073006501000074006F1A
:1025500001000075007C0100007A007D0100005A36
:10256000007E0100007A00920100006600E3020094
:10257000007800222000002E001E2100005078224A
:10258000210000544D902100003C2D922100002D8F
:102590003EB02100000300BB21000004003C2200EB
:1025A000007E00482200007E3D60220000213D6147
:1025B0002200003D00642200003C3D652200003EF8
:1025C0003DF12300000700A03000003D0021F30191
:1025D000000200C2F401000500A2000000EC00B0FF
:1025E000000000DF00E4000000E100F6000000EF62
:1025F00000F7000000FD00FC000000F500E3020011
:1026000000EB0087030000A5008F030000F4009892
:10261000030000F2009E030000E300A3030000F6A5
:1026200000A9030000F400AC030000E000AD0300CB
:1026300000E300B1030000E000B2030000E200B5D7
:10264000030000E300B8030000F200BC030000E454
:1026500000BE030000E300C0030000F700C1030058
:1026600000E600C3030000E500902100007F009217
:102670002100007E001A220000E8001E220000F364
:102680000088250000FF0002300000A1000C30008F
:1026900000A2000D300000A3009B300000DE009C73
:1026A000300000DF00A03000003D00A1300000A796
:1026B00000A2300000B100A3300000A800A4300048
:1026C00000B200A5300000A900A6300000B300A7AA
:1026D000300000AA00A8300000B400A9300000AB10
:1026E00000AA300000B500AB300000B600AC3000EE
:1026F00000B6DEAD300000B700AE300000B7DEAF90
:10270000300000B800B0300000B8DEB1300000B9D1
:1027100000B2300000B9DEB3300000BA00B43000BF
:1027200000BADEB5300000BB00B6300000BBDEB73B
:10273000300000BC00B8300000BCDEB9300000BD85
:1027400000BA300000BDDEBB300000BE00BC30006F
:1027500000BEDEBD300000BF00BE300000BFDEBFE7
:10276000300000C000C0300000C0DEC1300000C139
:1027700000C2300000C1DEC3300000AF00C4300032
:1027800000C200C5300000C2DEC6300000C300C772
:10279000300000C3DEC8300000C400C9300000C4EF
:1027A000DECA300000C500CB300000C600CC3000CF
:1027B00000C700CD300000C800CE300000C900CFF7
:1027C000300000CA00D0300000CADED1300000CA9C
:1027D000DFD2300000CB00D3300000CBDED430009D
:1027E00000CBDFD5300000CC00D6300000CCDED7E7
:1027F000300000CCDFD8300000CD00D9300000CD53
:10280000DEDA300000CDDFDB300000CE00DC30004F
:1028100000CEDEDD300000CEDFDE300000CF00DF96
:10282000300000D000E0300000D100E1300000D2E4
:1028300000E2300000D300E3300000AC00E43000E0
:1028400000D400E5300000AD00E6300000D500E720
:10285000300000AE00E8300000D600E9300000D7BC
:1028600000EA300000D800EB300000D900EC300066
:1028700000DA00ED300000DB00EF300000DC00F299
:10288000300000A600F3300000DD00F4300000B39B
:10289000DEF7300000DCDEFA300000A6DEFB3000A0
:1028A00000A500FC300000B000FD300000A40007CF
:1028B0004E0000FB0086510000FC0043530000FA6C
:1028C0000064FF0000A40065FF0000A50066FF0093
:1028D00000A60067FF0000A70068FF0000A80069CD
:1028E000FF0000A9006AFF0000AA006BFF0000AB18
:1028F000006CFF0000AC006DFF0000AD006EFF003B
:1029000000AE006FFF0000AF0070FF0000B000716C
:10291000FF0000B10072FF0000B20073FF0000B3BF
:102920000074FF0000B40075FF0000B50076FF00E2
:1029300000B60077FF0000B70078FF0000B800790C
:10294000FF0000B9007AFF0000BA007BFF0000BB67
:10295000007CFF0000BC007DFF0000BD007EFF008A
:1029600000BE007FFF0000BF0080FF0000C00081AC
:10297000FF0000C10082FF0000C20083FF0000C30F
:102980000084FF0000C40085FF0000C50086FF0032
:1029900000C60087FF0000C70088FF0000C800894C
:1029A000FF0000C9008AFF0000CA008BFF0000CBB7
:1029B000008CFF0000CC008DFF0000CD008EFF00DA
:1029C00000CE008FFF0000CF0090FF0000D00091EC
:1029D000FF0000D10092FF0000D20093FF0000D35F
:1029E0000094FF0000D40095FF0000D50096FF0082
:1029F00000D60097FF0000D70098FF0000D800998C
:102A0000FF0000D9009AFF0000DA009BFF0000DB06
:102A1000009CFF0000DC009DFF0000DD009EFF0029
:102A200000DE009FFF0000DF00E5FF00005C00000B
:102A3000000000010204040000001C1C0C0404043B
:102A40000201000000000004081000000000002D3A
:102A50002D2D2D2D2D007C4D61726C696E7C002D0D
:102A60002D2D2D2D2D00001C1F11111F0000000603
:102A7000191803130C00040E1F041C000000000EA4
:102A80001315110E00001C10181705060500040A86
:102A90000A0A0A11110E0C12120C00000000001F8D
:102AA0001511151F00004C6F6164206D6D00556E8F
:102AB0006C6F6164206D6D0046696C2E2044696105
:102AC0002E004520696E206D6DC2B30041647661B1
:102AD0006E6365204B004D33303320553120452542
:102AE000692053256900504944204175746F7475FD
:102AF0006E65202A002002204661637400200220B7
:102B00004D6178002002204D696E004F6666004FCF
:102B10006E004175746F74656D7000565472617605
:102B2000204D696E00566D696E00566D61782045C6
:102B300000566D6178205A00566D61782059005614
:102B40006D6178205800416D6178204500416D61CC
:102B500078205A00416D6178205900416D617820DC
:102B60005800412D54726176656C00412D52657498
:102B70007261637400416363656C00452073746522
:102B800070732F6D6D005A2053746570732F6D6DC7
:102B900000592053746570732F6D6D005820537465
:102BA0006570732F6D6D00416476616E636564209E
:102BB00053657474696E6773003F0043616E6365AB
:102BC0006C00496E6974004D34323800496E697486
:102BD00069616C697A6520454550524F4D004669E0
:102BE0006C616D656E740054656D706572617475AD
:102BF00072650053746570732F6D6D004A756E6356
:102C000074696F6E2044657600416363656C65721C
:102C10006174696F6E0056656C6F636974790053F7
:102C2000657420486F6D65204F6666736574730028
:102C3000436F6E66696775726174696F6E0050727A
:102C4000696E7420506175736564004572723A2034
:102C50004D415854454D50004D415854454D50201C
:102C6000747269676765726564004572723A204DD7
:102C7000494E54454D50004D494E54454D502074D9
:102C8000726967676572656400202F002042403AD0
:102C90000020403A0020573A0043616E6E6F742066
:102CA0006F70656E207375626469722000534420F2
:102CB000496E6974204661696C00534420636172F7
:102CC00064206F6B0A006F70656E526F6F742066C0
:102CD00061696C65640A00766F6C756D652E696E4E
:102CE0006974206661696C65640A004E6F20534404
:102CF00020636172640A004D3234004D3233202566
:102D000073002E0A006F70656E206661696C6564E1
:102D10002C2046696C653A200046696C6520736515
:102D20006C65637465640A002053697A653A200013
:102D300046696C65206F70656E65643A2000454E8B
:102D40004420535542524F5554494E450A002220C3
:102D5000706F73002220706172656E743A220053A6
:102D60005542524F5554494E452043414C4C2074D6
:102D700061726765743A220053756263616C6C20FE
:102D80004F766572666C6F7700457863656564653C
:102D900064206D617820535542524F5554494E4539
:102DA0002064657074683A310A0057726974696EFC
:102DB0006720746F2066696C653A200066726573DF
:102DC0006800646F696E67002066696C653A200070
:102DD0004E6F7720007C3C3E5E2B3D3F2F5B5D3B82
:102DE0002C2A225C0000000A0B02090C0D0E0807B9
:102DF00003040100000000000000000000000000CB
:102E000000000000000000000000000000000000C2
:102E1000001211100000000000000000000000007F
:102E2000000000000000000000000068747470736F
:102E30003A2F2F6D61726C696E66772E6F72670024
:102E400068747470733A2F2F6D61726C696E667757
:102E50002E6F72670068747470733A2F2F6D6172F1
:102E60006C696E66772E6F726700322E302E372EA9
:102E70003200322E302E372E3200322E302E372EA8
:102E8000320068747470733A2F2F6D61726C696EC2
:102E900066772E6F72670068747470733A2F2F6DA7
:102EA00061726C696E66772E6F72670068747470F9
:102EB000733A2F2F6D61726C696E66772E6F726731
:102EC0000020322E302E372E320070012C0190015E
:102ED0002701B0012201C0011D01F00118011002FB
:102EE000130130020E016002090190020401C002C8
:102EF000FF000003FA004003F5008003F000D00358
:102F0000EB002004E6007004E100E004DC00400572
:102F1000D700C005D2004006CD00D006C80080070B
:102F2000C3003008BE00F008B900C009B400B00A00
:102F3000AF00B00BAA00D00CA500000EA000500FEF
:102F40009B00C01096005012910000148C00C01518
:102F50008700B0178200B0197D00D01B7800001EDA
:102F6000730040206E0090226900F0246400402726
:102F70005F0090295A00E02B5500102E50002030A1
:102F80004B0010324600E033410090353C001037D2
:102F9000370070383200A0392D00B03A2800A03B2D
:102FA0002300603C1E00103D1900903D1400103EAF
:102FB0000F00703E0A00C03E0500003F0000403F89
:102FC000FBFF803FF6FFC03FF1FF2020506C616E99
:102FD0006E657242756666657242797465733A20F1
:102FE000002046726565204D656D6F72793A20004C
:102FF000436F6D70696C65643A20466562203133B9
:1030000020323032310A00204C61737420557064D4
:10301000617465643A20323032302D31302D3135D3
:10302000207C20417574686F723A20286E6F6E653F
:103030002C2064656661756C7420636F6E666967C9
:10304000290A00322E302E372E320A004D61726C62
:10305000696E0020536F66747761726520526573E4
:1030600065740A00205761746368646F6720526555
:103070007365740A002042726F776E206F7574203A
:1030800052657365740A002045787465726E616CD0
:103090002052657365740A00506F77657255700A27
:1030A0000073746172740A006175746F25632E6712
:1030B000004732385859004D313030310065727256
:1030C0006F722077726974696E6720746F20666909
:1030D0006C650A00446F6E6520736176696E6720C7
:1030E00066696C652E0A004D323900456E64737452
:1030F0006F707300255320256320256320256320EE
:10310000256300205A3A0020593A0020583A0065B9
:103110006E6473746F7073206869743A2000004D98
:103120006F76652025736D6D004D6F766520302EAE
:10313000316D6D004D6F766520316D6D004D6F7690
:10314000652031306D6D004D6F7665204178697373
:10315000004578747275646572004D6F7665205A0B
:10316000004D6F76652059004D6F766520580050F0
:1031700072696E742066726F6D204D6564696100BE
:10318000220A00556E6B6E6F776E20636F6D6D61F6
:103190006E643A202200204500205A002059002069
:1031A0004D3932205800486F6D65202573257325F1
:1031B000732046697273740020453A00205A3A0021
:1031C00020593A00583A00524631303020584C20AD
:1031D00052656164792E005072696E74696E672E53
:1031E0002E2E00DB0FC93F45BCDA3F8FB30240FCF7
:1031F000F0274056946140FE4B9B4084A5D840E0A8
:10320000231841346A5641E859974164DBD5416E31
:10321000271742B4B75542CE1A9742C8AED542B529
:10322000885A43D40684BFA65FA7BF7443E0BF108B
:10323000B11AC01C2C58C0E8F697C0B849D6C04E89
:103240004E17C124D355C1802497C1A0B5D5C11252
:103250001A17C244AE55C2781797C26CACD5C26774
:10326000885AC320746F6F206C6F6E672065787406
:10327000727573696F6E2070726576656E746564C1
:103280000A0020636F6C6420657874727573696FCF
:103290006E2070726576656E7465640A00000022A7
:1032A00000250028002B002E003100340002010010
:1032B00000050108010B0100002100240027002A5D
:1032C000002D003000330001010000040107010A55
:1032D0000105050505070508080808020202020A9B
:1032E0000A080804040404010101010101010103A9
:1032F00003030303030303040707070C0C0C0C0C64
:103300000C0C0C0202020206060606060606060B56
:103310000B0B0B0B0B0B0B010210202008081020CD
:103320004010204080020102010804020101020451
:103330000810204080804020100804020180040210
:103340000180402010080402010804020101020467
:1033500008102040800102040810204080006EF216
:1033600057FA11241FBECFEFD1E2DEBFCDBF00E080
:103370000CBF13E0A0E0B2E0EAE7F2E102E00BBF2D
:1033800002C007900D92A233B107D9F724E1A2E35E
:10339000B3E001C01D92A93CB207E1F719E1C0EB0F
:1033A000D9E100E006C021970109802FFE010F94AA
:1033B0009608CF3AD10780E00807A9F70E946BF37F
:1033C0000D942C090C940000EF92FF920F931F9321
:1033D000E0920E04F0920F04009310041093110475
:1033E0006093120470931304809314049FEFFF27DB
:1033F000621B730B840B30F4809570956195790B8B
:10340000890B992790935F05A6E06A9F0092530568
:10341000512DEE277A9F500DE11D8A9FE00D5093AC
:103420005405E0935505AFE06A9F00925705512D72
:10343000EE277A9F500DE11D8A9FE00D50935805AD
:10344000E0935905AAE06A9F00925B05512DEE2793
:103450007A9F500DE11D8A9FE00D50935C05E0932B
:103460005D051F910F91FF90EF9008959F92AF928D
:10347000BF92CF92DF92EF92FF920F931F93CF9361
:10348000DF9300D01F921F92CDB7DEB7E4ECFCE0D3
:103490000027BB27462F572FA82FAA2341F4A52F7B
:1034A000542FB85FAA2319F4A52F5527B85FA03170
:1034B00038F45295A295452F4F70507FA42BBC5FD6
:1034C000A03428F4550FAA1F550FAA1FBE5FA038BD
:1034D00018F4550FAA1FB395550FAA1FEA0FF01F36
:1034E000449151E0AA27B85079F1C0F0B0FF02C072
:1034F000440F551FB1FF04C0440F551F440F551F03
:10350000B2FF06C052954295142F1F70407F512B79
:10351000B3FF1AC0A52F542F442716C0B195B0FF92
:1035200002C055954795B1FF04C0559547955595EF
:103530004795B2FF05C05295407F4295452B5F707D
:10354000B3FF02C0452F5527DD24CC24BB24B2E0B5
:10355000649FD018C108B00AB00B749FC018B1089E
:10356000B00B849FB018B109659FC018B108B00BAB
:10357000759FB018B109859FB0196A9FB018B1093D
:103580007A9FB0194D9DA12C992433279927222782
:103590005D9DA00C911C301F901F201FAD9D900CB5
:1035A000311D901F201F4C9DA00C911C301F901F9F
:1035B000201F5C9D900C311D901F201FAC9D300D75
:1035C000911D201F4B9D900C311D901F201F5B9D56
:1035D000300D911D201FAB9D900D211D4B9F300D77
:1035E000911D201F5B9F900D211DAB9F200DB1E011
:1035F000BB24CC24DD24639FD018C108B00AB00BD3
:10360000739FC018B108B00B839FB018B109699FB0
:10361000C018B108B00B799FB018B109899FB019D3
:10362000629FB018B109729FB019D61AC70AB80ABA
:1036300020F0B1E03B0F901F201F1124792F632F42
:1036400090E0822F0F900F900F900F900F90DF91CE
:10365000CF911F910F91FF90EF90DF90CF90BF908F
:10366000AF909F900895CF92DF92EF92FF9280915A
:103670000D04882309F457C0C0900904D0900A04AF
:10368000E0900B04F0900C0420E030E0A901C701A9
:10369000B6010E9407FF882309F445C020E030E00E
:1036A00040E05FE3C701B6010E946CFF9B01AC01E3
:1036B0000E946CFF2BED3FE049E450E40E946CFF58
:1036C0009B01AC0160E070E080E89FE30F94490645
:1036D0006B017C01C092F303D092F403E092F503F6
:1036E000F092F6036091110270911202072E000C05
:1036F000880B990B0E940DFF2AE037ED43E25CE353
:103700000E946CFFA70196010E946CFF6093580213
:103710007093590280935A0290935B02FF90EF904E
:10372000DF90CF900895C12CD12C80E8E82E8FE354
:10373000F82ED0CF2F923F924F925F926F927F924E
:103740008F929F92AF92BF92CF92DF92EF92FF92B1
:103750000F931F93CF93DF93CDB7DEB72C970FB6A0
:10376000F894DEBF0FBECDBF9C878B878B011A01FB
:103770003E832D83D9018D919D910D90BC91A02DFB
:1037800089839A83AB83BC83FA01C080D180E280B5
:10379000F380DB018D909D90AD90BC90EB85FC8516
:1037A0002481358146815781C501B4010E946CFF97
:1037B0002B013C01AB85BC8550962D913D914D91DF
:1037C0005C915397C701B6010E946CFF9B01AC014D
:1037D000C301B2010F946D052B013C01EB85FC8503
:1037E000248D358D468D578D69817A818B819C81A1
:1037F0000E946CFF9B01AC01C301B2010F946D05E7
:103800006F83788789879A87AB85BC8518962D91B9
:103810003D914D915C911B97C501B4010E946CFFD5
:103820002B013C01EB85FC85248935894689578924
:10383000C701B6010E946CFF9B01AC01C301B2013C
:103840000F946D052B013C01AB85BC8590962D91A5
:103850003D914D915C91939769817A818B819C8197
:103860000E946CFF9B01AC01C301B2010F946D0576
:103870002B013C01EB85FC85208131814281538104
:10388000C501B4010E946CFF4B015C01AB85BC8596
:103890001C962D913D914D915C911F97C701B601EA
:1038A0000E946CFF9B01AC01C501B4010F946D0532
:1038B0006B017C01EB85FC85208D318D428D538D14
:1038C00069817A818B819C810E946CFF9B01AC0194
:1038D000C701B6010F946D05D8016D937D938D934B
:1038E0009C9313978F819885A985BA85F101808370
:1038F0009183A283B383AD81BE814D925D926D921F
:103900007C9213972C960FB6F894DEBF0FBECDBFF6
:10391000DF91CF911F910F91FF90EF90DF90CF90AB
:10392000BF90AF909F908F907F906F905F904F90DF
:103930003F902F9008958F929F92AF92BF92CF9217
:10394000DF92EF92FF92FC01C080D180E280F38091
:1039500020E030E040E251E4C701B6010E946CFF74
:1039600020E030E040E251E40E946CFF4B015C013A
:1039700020E030E0A901C701B6010E9407FF20E066
:1039800030E040EA50E487FF04C020E030E040EA45
:1039900050ECC501B4010F946D0520E030E040E229
:1039A00051E40F9449060F94B1069B018BE237FF57
:1039B00005C022273327261B370B8DE280933E0359
:1039C000C90168EE73E00F946708CB01EAE0F0E00C
:1039D000BF010F946708805D80933F03C90164E6CF
:1039E00070E00F946708CB01BF010F946708805DFA
:1039F00080934003C901BF010F946708282FCB01B2
:103A0000BF010F946708805D809341038EE280932D
:103A10004203205D209343038EE393E0FF90EF90F9
:103A2000DF90CF90BF90AF909F908F9008959C01B2
:103A300080E22436310558F0C90164E670E00F9445
:103A40005308CB016AE070E00F945308805D8093C7
:103A5000410380E22A30310558F0EAE0F0E0C90184
:103A6000BF010F945308CB01BF010F945308805D31
:103A700080934203C9016AE070E00F945308805DAF
:103A80008093430381E493E0089560911102709163
:103A90001202072E000C880B990B0E940DFF2AE0E2
:103AA00037ED43E25CE30E946CFF2091F303309119
:103AB000F4034091F5035091F6030E946CFF60936C
:103AC00058027093590280935A0290935B020895B2
:103AD0008091EA118823C1F081508093EA11E5E6D4
:103AE000F0E1882351F08150990B2BE1289FF001E0
:103AF000299FF00D1124E452FF4E8BE1AAE4B0E1BE
:103B000001900D928A95E1F72091EA11211105C0EB
:103B10008091F41180628093F41181E090E0A0E044
:103B2000B0E0211103C080E090E0DC0180937108D7
:103B300090937208A0937308B093740810926B0866
:103B400081E08093810883E0809356020895CF93AB
:103B5000DF93EC01CB01BA010E940DFF20E030E0C1
:103B6000A9010F946D050F94B60679836883DF91E0
:103B7000CF9108950E940DFF20E030E0A9010F943D
:103B80006D050F94B606CB0152CFCF93DF93EC01B6
:103B9000CB01BA010E940DFF20E030E040E251E489
:103BA0000F94490620E030E0A9010F946D05688369
:103BB00079838A839B83DF91CF910895CF93DF939D
:103BC000EC01CB01BA010E940DFF2AE037ED43E280
:103BD0005DE30F94490620E030E0A9010F946D05E4
:103BE0000F94B606688379838A839B83DF91CF9194
:103BF0000895CF93DF93EC01CB01BA010E940DFF32
:103C000020E030E0A9010F946D05688379838A83F1
:103C10009B83DF91CF910895CF93DF93EC01CB018C
:103C2000BA010E940DFF20E030E0A9010F946D055C
:103C3000688379838A839B83DF91CF910895CF93A3
:103C4000DF93EC01CB01BA010E940DFF2AE037EDB2
:103C500043E25DE30F94490620E030E0A9010F94B0
:103C60006D05688379838A839B83DF91CF91089563
:103C7000CF93DF93EC01CB01BA010E940DFF20E04E
:103C800030E0A9010F946D050F94B1067983688324
:103C9000DF91CF910895CF93DF93EC01CB01BA016F
:103CA0000E940DFF20E030E04AE754E40F944906FB
:103CB00020E030E0A9010F946D05688379838A8341
:103CC0009B83DF91CF910895CF93DF93EC01CB01DC
:103CD000BA010E940DFF20E030E048EC52E40F945E
:103CE000490620E030E0A9010F946D0568837983CF
:103CF0008A839B83DF91CF910895CF93DF93C09107
:103D00000E06D0910F06209729F160910A06709156
:103D10000B0680910C0690910D060F94B1066E5F14
:103D20007F4F24976C177D07ACF470934E0560931A
:103D30004D050E9467DA605A75418F4F9F4F60931F
:103D40004F05709350058093510590935205DF9174
:103D5000CF91089510924F05109250051092510581
:103D600010925205F4CFCF93C82FCB010E947F97BA
:103D700083E79AE00E947F9784E69AE0CC2311F0D3
:103D800089E69AE00E947F978AE0CF910C94BE8DDD
:103D90000F931F93CF93811113C0C42F8B010E94E7
:103DA0001CA08DE39FE00E947F97C8010E947F972F
:103DB000CC2331F08AE0CF911F910F910C94BE8DEE
:103DC000CF911F910F9108950C9473DA0C9473DACC
:103DD0000F931F938C012AE632E046E652E062E63A
:103DE00072E08EE592E00E944DD31F910F910895ED
:103DF0000E9401F00C9465780E940DFF20E030E0F5
:103E000048EC52E40F94490620E030E0A9010F94F9
:103E10006D050C94CE750C94BB7864E67EE18CEF56
:103E20009EE10C94FA8067EA7DE18AEB9DE10C94B7
:103E3000FA8065EC7DE181EB97E20C94FA806EEDFF
:103E40007DE180EC97E20C94FA806CE07EE186E202
:103E500091E70C94FA806FE17EE188E191E70C94A0
:103E6000FA8068E37EE18DE892E50C94FA8069EFD0
:103E70007DE18FEC97E20C94FA806BE47EE188EDB3
:103E800097E20C94FA8020E040E070E060E08BEC78
:103E90009FE10C942A788091190981111BC06091CF
:103EA0001C1070911D1080911E1090911F100F9486
:103EB000B10620915C0230915D02215031096217F8
:103EC000730744F420E040E070E060E080ED9FE1A3
:103ED0000C942A78D8CF21E02093D6036093010276
:103EE00070930202809303029093040220E040E06A
:103EF00070E060E080916C0890916D080C942A78D5
:103F00006DEC7CEC8CEC9CE3E6CF6DEC7CEC8CEC0B
:103F10009DE3E1CF60E070E080E89FE3DCCF60E00C
:103F200070E080E291E4D7CF81E08093D6031092D5
:103F300090061092980820E040E070E060E08FE08A
:103F400095E20E942A7885E897E090939F068093F7
:103F50009E06089520E040E070E060E08DE397E287
:103F60000E942A7881E0809332038BEC92E0909358
:103F70009F0680939E06089561E672E282E00C94AB
:103F800024F065E672E281E00C9424F069E672E2C6
:103F900080E00C9424F06EE070E283E00C9424F056
:103FA000CF92DF92EF92FF920F931F9383E3C82E7D
:103FB00087E0D82EF12CE12C05E317E02BE03FE160
:103FC00043E45FE165E477E08AE497E00E94017FE3
:103FD0001F910F91FF90EF90DF90CF900895CF92B7
:103FE000DF92EF92FF920F931F9388E1C82E86E035
:103FF000D82EF12CE12C06ED16E02BE03FE142EC4F
:1040000059E76AE176E08FE196E00E94017F1F9117
:104010000F91FF90EF90DF90CF900895CF93DF93B3
:1040200000D01F92CDB7DEB780916408109264086B
:10403000882359F01092D6030E94BB780F900F90FE
:104040000F900F90DF91CF9108956091710870915A
:10405000720880917308909174086115710581054B
:10406000910561F10E940DFF209101023091020241
:1040700040910302509104020E946CFF20916A0259
:1040800030916B0240916C0250916D020F946D055E
:1040900060936A0270936B0280936C0290936D023E
:1040A00083E00E94AC7C81E08093560210927108FC
:1040B0001092720810927308109274088091560240
:1040C000882309F4BBCF20E030E0A90160916A02A7
:1040D00070916B0280916C0290916D020F946D054E
:1040E00020916608309167084091680850916908EE
:1040F0000F946C0569837A838B839C83CE01019630
:104100001ADCBC0181E591E30E94BA8097CF2F921F
:104110003F924F925F926F927F928F929F92AF9257
:10412000BF92CF92DF92EF92FF920F931F93CF93A4
:10413000DF93CDB7DEB72C970FB6F894DEBF0FBE76
:10414000CDBF1C01062F809164081092640888235B
:10415000E9F01092D6030E94BB782C960FB6F89423
:10416000DEBF0FBECDBFDF91CF911F910F91FF90AA
:10417000EF90DF90CF90BF90AF909F908F907F9007
:104180006F905F904F903F902F90089580917108AD
:1041900090917208A0917308B09174088D839E83EA
:1041A000AF83B887892B8A2B8B2B09F460C0809151
:1041B0001F02882309F4C1C0809120028111BDC073
:1041C000613009F498C0623009F4A6C080902102E1
:1041D00090902202A0902302B0902402C0902D0261
:1041E000D0902E02E0902F02F0903002602E712CC1
:1041F0006D817E818F8198850E940DFF2091010243
:104200003091020240910302509104020E946CFF1F
:10421000D301AA0FBB1FAA0FBB1FBC87AB87A25A33
:10422000BD4FBA87A9872D913D914D915C910F9417
:104230006D052B013C018D819E81AF81B885B7FF53
:1042400093C0A5019401C301B2010E9407FF87FD3D
:1042500083C0EB85FC85E25AFD4F40825182628229
:104260007382802F0E94AC7C81E080935602109272
:10427000710810927208109273081092740880915D
:104280005602882309F469CFF4E00F9F80011124BE
:10429000F801E25AFD4F20E030E0A9016081718110
:1042A000828193810F946D05F801E457F74F2081C7
:1042B0003181428153810F946D056B017C01C9826C
:1042C000DA82EB82FC822DEC3CEC4CEC5DE36091FD
:1042D00001027091020280910302909104020F94F6
:1042E000930787FD51C0CE01019625DBBC01C101BA
:1042F0000E94BA8032CF8090250290902602A09032
:104300002702B0902802C0903102D0903202E09093
:104310003302F09034026ACF8090290290902A02F2
:10432000A0902B02B0902C02C0903502D0903602A3
:10433000E0903702F090380259CF812C30E5932E6F
:1043400033ECA32E37ECB32EC12C40E5D42E43EC36
:10435000E42E47E4F42E4ACFA985BA858D929D922A
:10436000AD92BC9213977DCFA7019601C301B20114
:104370000F94930718160CF06CCFE985FA85C0826C
:10438000D182E282F3826DCF20E030E040E251E45E
:10439000C701B6010E946CFF20E030E04AE754E418
:1043A0000E946CFF4B015C0120E030E0A901C701D5
:1043B000B6010E9407FF20E030E040EA50E487FFAA
:1043C00004C020E030E040EA50ECC501B4010F9495
:1043D0006D0520E030E040E251E40F9449060F946F
:1043E000B1066B017C01F7FC62C020EA36E841E0CF
:1043F00050E00F947A08CA01B9012AE030E040E0A9
:1044000050E00F947A08605D60933D03C701B601E8
:1044100020E137E240E050E00F947A088AE0882EED
:10442000912CA12CB12CCA01B901A50194010F94C2
:104430007A08605D60933E03C701B60128EE33E061
:1044400040E050E00F947A08CA01B901A501940137
:104450000F947A08605D60933F038EE2809340037F
:10446000C701B60124E630E040E050E00F947A083E
:10447000CA01B901A50194010F947A08605D6093A7
:104480004103C701B601A50194010F947A08162FC4
:10449000CA01B901A50194010F947A08605D609387
:1044A0004203105D109343038DE393E01FCFF0941C
:1044B000E094D094C094C11CD11CE11CF11C6DE2AD
:1044C000A3CF62E08AE591E322CE61E081E691E349
:1044D0001ECE60E088E691E31ACEAF92BF92CF92F3
:1044E000DF92EF92FF920F931F93CF93DF93CDB79D
:1044F000DEB7ADB6BEB68091A60869E978E088233C
:1045000011F066EA78E0FB0101900020E9F7CF01A5
:10451000861B970B01962DB73EB7281B390B0FB69C
:10452000F8943EBF0FBE2DBF8DB79EB701967C019C
:1045300080E2EDB7FEB78183C70101960F94FD08B5
:1045400089EFC82E86E0D82E0BEF16E02BE03FE176
:1045500040EC52E267E077E08EE097E00E94017F56
:104560000FB6F894BEBE0FBEADBEDF91CF911F91C6
:104570000F91FF90EF90DF90CF90BF90AF90089594
:1045800089E998E00E946BE40E9465780C94ABD3B3
:10459000AF92BF92CF92DF92EF92FF920F931F9351
:1045A000CF93DF9361E081E00E946D77C0916B084B
:1045B00004E00C0FD1E082ECE82E83E0F82E12E04C
:1045C0001C1B9BECC92E93E0D92EBD2EBC1AAC2E21
:1045D000A194C11130C0DD23D9F080916A0818166A
:1045E000BCF040917108509172086091730870910D
:1045F00074084F5F5F4F6F4F7F4F40937108509328
:10460000720860937308709374088F5F80936A08D0
:1046100080915602882341F030E020E041E066EDD1
:1046200073E08A2D0E94458DCF5F0C13D2CF83E0BB
:10463000809365081FC0C13041F590916A089130A0
:1046400069F0809156028823C9F11F92DF92CF92C0
:10465000BF9281E0913051F180E028C080916408E0
:1046600010926408882369F3C09333038091810812
:10467000882339F3DF91CF911F910F91FF90EF9035
:10468000DF90CF90BF90AF900895C23069F69091BF
:104690006A089230A9F080915602882379F01F921F
:1046A000FF92EF921F9381E09230B1F68F930E94B8
:1046B000CF7E0F900F900F900F900F90D0E0B4CF5F
:1046C0008091640810926408882329F3C09333030F
:1046D000809181088823F9F2CDCF2F923F924F929B
:1046E0005F926F927F928F929F92AF92BF92CF9282
:1046F000DF92EF92FF920F931F93CF93DF9300D03F
:1047000000D0CDB7DEB720913503298361E081E089
:104710000E946D7720906B084981842F90E09C0166
:10472000220F331F220F331FF901E050FC4FFE838D
:10473000ED83880F991FAC014A54584F5C834B831B
:10474000C9018E5F9B4F9A838983312C11E03F0111
:104750002F0192E0490E511C211034C01123D9F0D1
:1047600080916A081816BCF0409171085091720847
:1047700060917308709174084F5F5F4F6F4F7F4F68
:104780004093710850937208609373087093740893
:104790008F5F80936A0880915602882351F0EB81E5
:1047A000FC816591749130E020E043E0832D0E940C
:1047B000458D2394339444E03412CECF85E080932A
:1047C000650826C0E1E02E123CC080916A08813065
:1047D00099F080915602882369F081E090916A08EF
:1047E000913009F080E003E023E049E353E0632DDA
:1047F0000E94A57E10E0DDCF8091640810926408CD
:10480000882339F30E94BB7880918108882309F3BB
:1048100026960FB6F894DEBF0FBECDBFDF91CF91C5
:104820001F910F91FF90EF90DF90CF90BF90AF90CE
:104830009F908F907F906F905F904F903F902F90C0
:104840000895F2E02F12B9C080916A088230B9F061
:1048500080915602882371F211E080916A088230BB
:1048600009F010E0F30180819181E1D800E09C0122
:1048700042E353E0632D812F0E949581BBCF80914D
:10488000640810926408882319F3F3016081718130
:1048900090E080E00E940BFF20E030E0A9010F943F
:1048A0006D0520E030E040EA50E40F946C050F9471
:1048B000B606912C812C23E1A22E2FE1B22E6B01A2
:1048C00010EFE12EF12C00E010E025E030E040E0B8
:1048D00050E06D817E8182E393E00E94C9D5809192
:1048E0008108882309F4B4CF93CF80916408109293
:1048F0006408882309F469C0F2016081718190E045
:1049000080E00E940BFF20E030E0A9010F946D05CC
:1049100020E030E040EA50E40F946C050F94B606B6
:10492000912C812C83E1A82E8FE1B82E6B011FE51D
:10493000E12EF12C00E010E025E030E040E050E016
:1049400069817A818EE293E00E94C9D580918108C5
:104950008823D9F15DCFF4E02F122BCF80916A0824
:104960008430F1F080915602882309F443CF45E664
:1049700057E75F934F93E6E6F3E0FF93EF933F92A1
:1049800081E090916A08943009F080E08F930E9452
:10499000CF7E0F900F900F900F900F900F902ACF17
:1049A00080916408109264088823E1F20E94657780
:1049B000809181088823B1F22BCF53E02512CBCF11
:1049C00080916A08833009F490CF80915602882341
:1049D00009F410CF11E080916A08833009F010E0EB
:1049E000F2018081918123D800E09C014EE253E0E6
:1049F00041CF80915602882341F030E020E041E031
:104A000062ED72E081E00E94458D80916408109211
:104A10006408882319F0109224049CCA0895809198
:104A20005602882341F030E020E041E061EE72E080
:104A300081E00E94458D809198088770873041F40D
:104A400020E040E070E060E089EF94E20C942A7886
:104A50000895EF92FF920F931F93CF93DF93CDB7FB
:104A6000DEB765970FB6F894DEBF0FBECDBF80915D
:104A7000640810926408882379F00E94BB786596D8
:104A80000FB6F894DEBF0FBECDBFDF91CF911F915F
:104A90000F91FF90EF90089560E084E00E946D77A1
:104AA00000916B0810E08AE3F82E90E2E92E0111E4
:104AB00030C080915602882341F030E020E043E08E
:104AC00068EE75E0812F0E94458DF982EA8242E10D
:104AD00050E065EB75E0CE0103960E9477FE8C896D
:104AE00087FD1C8A0530C1F580915602882349F064
:104AF0009E012F5F3F4F41E06BEA75E0812F0E94DE
:104B0000458D0F5F1F5F143091F687E08093650835
:104B1000B6CF013051F4809156028823B1F230E0D3
:104B200020E041E060EE75E0CDCF023009F58091E4
:104B30005602882351F230E020E041E065ED75E057
:104B4000C1CF80915602882309F4BFCF30E020E026
:104B500041E06CEC75E0B6CF063099F680915602D4
:104B6000882379F230E020E041E06AE975E0C6CFC1
:104B7000033039F3043009F0A8CF8091560288231E
:104B800009F4A3CF30E020E041E067EB75E09ACF75
:104B9000EF92FF920F931F93CF93DF93CDB7DEB7C2
:104BA00065970FB6F894DEBF0FBECDBF8091640845
:104BB00010926408882379F00E94BB7865960FB63E
:104BC000F894DEBF0FBECDBFDF91CF911F910F9143
:104BD000FF90EF90089560E084E00E946D7700916F
:104BE0006B0810E08AE3F82E90E2E92E01110CC068
:104BF00080915602882341F030E020E043E060E9F4
:104C000075E0812F0E94458DF982EA8242E150E0F1
:104C100069E875E0CE0103960E9477FE8C8987FDD6
:104C20001C8A013069F480915602882349F09E0164
:104C30002F5F3F4F41E064E875E0812F0E94458D72
:104C4000F982EA8242E150E060E875E0CE01039625
:104C50000E9477FE8C8987FD1C8A023069F480915E
:104C60005602882349F09E012F5F3F4F41E067E7DE
:104C700075E0812F0E94458DF982EA8242E150E081
:104C80006FE675E0CE0103960E9477FE8C8987FD62
:104C90001C8A033069F480915602882349F09E01F2
:104CA0002F5F3F4F41E06BE675E0812F0E94458DFD
:104CB0000F5F1F5F143009F099CF109365087ECF06
:104CC000EF92FF920F931F93CF93DF93CDB7DEB791
:104CD00065970FB6F894DEBF0FBECDBF8091640814
:104CE00010926408882379F00E94BB7865960FB60D
:104CF000F894DEBF0FBECDBFDF91CF911F910F9112
:104D0000FF90EF90089560E084E00E946D7700913D
:104D10006B0810E08AE3F82E90E2E92E01110CC036
:104D200080915602882341F030E020E042E06CE5BB
:104D300075E0812F0E94458DF982EA8242E150E0C0
:104D40006AE575E0CE0103960E9477FE8C8987FDA7
:104D50001C8A013069F480915602882349F09E0133
:104D60002F5F3F4F40E061E575E0812F0E94458D48
:104D7000F982EA8242E150E06DE475E0CE010396EB
:104D80000E9477FE8C8987FD1C8A023009F04EC094
:104D900080915602882349F09E012F5F3F4F40E0EB
:104DA00064E475E0812F0E94458DF982EA8242E138
:104DB00050E060E275E0CE0103960E9477FE8C8998
:104DC00087FD1C8A053069F480915602882349F0DA
:104DD0009E012F5F3F4F40E061E575E0812F0E940B
:104DE000458DF982EA8242E150E06CE175E0CE0146
:104DF00003960E9477FE8C8987FD1C8A063089F510
:104E000080915602882349F09E012F5F3F4F40E07A
:104E100064E475E0812F0E94458D0F5F1F5F1430A1
:104E200009F07CCF88E08093650860CF033059F4A7
:104E300080915602882309F4B8CF30E020E040E0AA
:104E400062E375E0AFCF043009F0AFCF8091560236
:104E5000882309F4AACF30E020E042E062E275E066
:104E6000A1CF0730D1F6809156028823B1F230E00D
:104E700020E040E062E375E0CDCF0F931F93CF9326
:104E8000DF9300D000D000D01F92CDB7DEB7809165
:104E900056028823F1F01F9283E08F9380912404BF
:104EA00090E001969F938F9383EC92E09F938F9372
:104EB0008E010F5F1F4F1F930F930E94A0FEB8013A
:104EC00088EB92E00E94BA800FB6F894DEBF0FBE66
:104ED000CDBF84E08093560280913203811108C0D7
:104EE00020E040E070E060E086EE9CE40E942A78DA
:104EF0002A960FB6F894DEBF0FBECDBFDF91CF91DB
:104F00001F910F9108958091320381111AC080E0A2
:104F100090E0A0EAB0E48093660290936702A093C9
:104F20006802B093690287EB92E00E94E81E8BE969
:104F300092E00E94D0781092D6030E94BB780E9423
:104F4000517780915602882341F030E020E041E023
:104F50006BE972E081E00E94458D82E08093560209
:104F600008950E940DFF20E030E040E251E40F94EC
:104F7000490620E030E0A9010F946D050C949F7460
:104F80000E940DFF2AE037ED43E25DE30F944906EE
:104F900020E030E0A9010F946D050C9486740E9406
:104FA0000DFF20E030E0A9010F946D050C941977F6
:104FB0000E940DFF20E030E04AE754E40F944906D8
:104FC00020E030E0A9010F946D050C949A758F9242
:104FD0009F92AF92BF92CF92DF92EF92FF920F9388
:104FE0001F93CF93DF93B0E4A0E06A2F70E0AB0192
:104FF0004B0F511D55954795411119C0ECECFEE240
:1050000065917491072E000C880B990B0E940DFF7F
:10501000DF91CF911F910F91FF90EF90DF90CF9094
:10502000BF90AF909F908F900895B42FE0CFA417BA
:1050300011F0B41303C0E8ECFFE2E2CF9A01215073
:105040003109220F331F220F331FF901E653F14DAF
:10505000E590F490F901E253F14DC591D4918E158C
:105060009F051CF3A42FC817D9070CF4BECFF90174
:10507000E453F14D05911491F901E053F14DC590C0
:10508000D490BC016E197F09072E000C880B990B78
:105090000E940DFF4B015C01B601601B710B072ED6
:1050A000000C880B990B0E940DFF9B01AC01C50100
:1050B000B4010E946CFF4B015C01BE016E197F09B7
:1050C000072E000C880B990B0E940DFF9B01AC0171
:1050D000C501B4010F9449066B017C01B801110FA1
:1050E000880B990B0E940DFF9B01AC01C701B60113
:1050F0000F946D058DCFCF93DF93C8E1D0E18A8106
:105100009B810E94D2BF6C837D838E839F83C6E088
:10511000D6E08A819B815BDF6C837D838E839F8356
:10512000A89510920506DF91CF910895CF93DF9354
:10513000C7EAD9E120E030E048E452E460911C1075
:1051400070911D1080911E1090911F100F94930765
:1051500087FF1EC080E0FE01C49190E0B0E0A0E0B7
:1051600004C0B695A79597958795CA95D2F7C4E6DA
:10517000D0E080FD02C0D0E0C0E089E00E94B3BF73
:10518000209771F460E089E0DF91CF910C9448D8CA
:10519000FE01949181E001C0880F9A95EAF7DBCF78
:1051A000EEEEFDE2E491E150E23160F7F0E08827B5
:1051B000E352F74D8F4F0D949608EF28F628FB2801
:1051C00005290F29C22819292129292933293D29EF
:1051D000472956296029C2286A2974297E2984B55D
:1051E000806884BDC7BDDF91CF91089584B580628A
:1051F00084BDC8BDF8CF8091800080688093800016
:10520000D0938900C0938800EECF809180008062A7
:1052100080938000D0938B00C0938A00E4CF80916C
:105220008000886080938000D0938D00C0938C00B4
:10523000DACF8091B00080688093B000C093B30053
:10524000D2CF8091B00080628093B000C093B40050
:10525000CACF80919000806880939000D09399008D
:10526000C0939800C0CF809190008062809390009E
:10527000D0939B00C0939A00B6CF80919000886035
:1052800080939000D0939D00C0939C00ACCF809100
:10529000A00080688093A0008091A0008F7B809305
:1052A000A000D093A900C093A8009DCF8091A0003A
:1052B00080628093A000D093AB00C093AA0093CFEC
:1052C0008091A00088608093A000D093AD00C0932F
:1052D000AC0089CF80912001806880932001D09319
:1052E0002901C09328017FCF8091200180628093A3
:1052F0002001D0932B01C0932A0175CF809120010A
:10530000886080932001D0932D01C0932C016BCF36
:10531000CF92DF92EF92FF92CF93DF93EC01C880A0
:10532000D980EA80FB808DE999E10E947F97C701CF
:10533000B6010E94278ECC80DD80EE80FF8080EC5D
:1053400091E30E947F97C701B6010E94278EC8840F
:10535000D984EA84FB848CEB91E30E947F97C70198
:10536000B6010E94278E8AE0DF91CF91FF90EF90E7
:10537000DF90CF900C94BE8DBC012091140530912C
:10538000150540911405509115052417350731F482
:1053900081E02617370709F080E008959A01F1CFE0
:1053A0000F930FB70F9300916E000F930B7F009335
:1053B0006E0000916F000D7F00936F000F930BB78D
:1053C0000F930CB70F921F922F933F934F935F93BE
:1053D0006F937F938F939F93AF93BF93EF93FF93BD
:1053E00011240E94AE37FF91EF91BF91AF919F9131
:1053F0008F917F916F915F914F913F912F911F906E
:105400000F900CBF0F910BBF0F910260F8940093A7
:105410006F000F9100936E000F910FBF0F911895C1
:1054200080918F0680FF1DC089988FEF8093C40400
:1054300080918F06869580FF17C08F9A8FEF80939B
:10544000C50480918F068695869580FF10C0809157
:105450000B0180958270809309018FEF8093C604C1
:105460000895899A81E0E2CF8F9881E0E8CF80911A
:105470000B0182708093090181E0F0CFCF92DF921F
:10548000EF92FF920F931F93CF93DF93CDB7DEB7C9
:10549000CA58D1090FB6F894DEBF0FBECDBFC358AE
:1054A000DF4F188219821A821B82CD57D04080911B
:1054B000090390910A03A0910B03B0910C03CF57FD
:1054C000DF4F88839983AA83BB83C158D040CB57D1
:1054D000DF4F19821882C558D04084E690E0C95742
:1054E000DF4F99838883C758D0401092C3049E0130
:1054F0002B573F4F44E050E0BE016F577F4FCE0126
:1055000089579F4F0E9420A0C957DF4F88819981FA
:10551000C758D0400296C957DF4F99838883C75830
:10552000D040CB57DF4F19821882C558D04081E058
:10553000C657DF4F8883CA58D0409E012B573F4F34
:1055400041E050E0BE0166577F4FCE0189579F4F23
:105550000E9420A09E012B573F4F48E450E061E796
:105560007FE0CE0189579F4F0E9420A080E1EEE6A8
:10557000F2E08E010F5F1F4FD80101900D928A95C6
:10558000E1F79E012B573F4F40E150E0B801CE01BB
:1055900089579F4F0E9420A09E012B573F4F44E008
:1055A00050E069EE78E0CE0189579F4F0E9420A01D
:1055B0009E012B573F4F4CE050E061E976E0CE0171
:1055C00089579F4F0E9420A07E018DE6E80EF11CB6
:1055D0008FEFD7018C939E012B573F4F41E050E056
:1055E000B701CE0189579F4F0E9420A019821A82CD
:1055F0001B821C829E012B573F4F44E050E0B801B4
:10560000CE0189579F4F0E9420A080E090E0A0E249
:10561000B1E489839A83AB83BC839E012B573F4FB0
:1056200044E050E0B801CE0189579F4F0E9420A06E
:10563000C358DF4F188219821A821B82CD57D0407F
:1056400083E0F701808389839E012B573F4F44E01D
:1056500050E0BE0163587F4FCE0189579F4F0E9493
:1056600020A09E012B573F4F41E050E0B701CE01F3
:1056700089579F4F0E9420A09E012B573F4F41E02A
:1056800050E0B801CE0189579F4F0E9420A03AE018
:10569000D32EDA94DD2071F09E012B573F4F44E06A
:1056A00050E0BE0163587F4FCE0189579F4F0E9443
:1056B00020A0EFCF8CE0D8011D928A95E9F79E01DA
:1056C0002B573F4F4CE050E0B801CE0189579F4F18
:1056D0000E9420A09E012B573F4F44E250E067E913
:1056E00070E1CE0189579F4F0E9420A088E0F7010A
:1056F000982F11929A95E9F7D8011D928A95E9F7AA
:1057000083E0C757DF4F8883C958D040EA968FAFF0
:10571000EA979E012B573F4F41E050E0BE0167578B
:105720007F4FCE0189579F4F0E9420A09E012B578B
:105730003F4F41E050E0BE0167587F4FCE0189578F
:105740009F4F0E9420A09E012B573F4F48E050E002
:10575000B801CE0189579F4F0E9420A09E012B5770
:105760003F4F48E050E0B701CE0189579F4F0E945C
:1057700020A0C358DF4F188219821A821B82CD578E
:10578000D0402AE0C22ED12CB1E0CB1AD10871F062
:105790009E012B573F4F44E050E0BE0163587F4FBE
:1057A000CE0189579F4F0E9420A0EECF19828FEF24
:1057B000F70180839E012B573F4F41E050E0B80135
:1057C000CE0189579F4F0E9420A09E012B573F4F2B
:1057D00041E050E0B701CE0189579F4F0E9420A0C1
:1057E00080E1D82ED801ED2D1D92EA95E9F79E01B2
:1057F0002B573F4F40E150E0B801CE0189579F4FF2
:105800000E9420A019829E012B573F4F41E050E09B
:10581000B801CE0189579F4F0E9420A09E012B57AF
:105820003F4F48E050E060E074E0CE0189579F4F61
:105830000E9420A0198A1A8A1B8A1C8A80E090E0A4
:10584000A0E8BFE38D879E87AF87B88B8091231038
:1058500090912410A0912510B091261089839A83ED
:10586000AB83BC832CEA35EC47E25EE36091271002
:10587000709128108091291090912A100F94490658
:105880006D837E838F8398872CEA35EC47E25EE355
:1058900060912B1070912C1080912D1090912E10F2
:1058A0000E946CFF69877A878B879C879E012B57A4
:1058B0003F4F44E150E0B801CE0189579F4F0E940D
:1058C00020A084E190E09A8389839E012B573F4F6B
:1058D00042E050E0B801CE0189579F4F0E9420A0BE
:1058E0008CE0EEE7F2E0D80101900D928A95E1F7A5
:1058F0009E012B573F4F4CE050E0B801CE01895735
:105900009F4F0E9420A019829E012B573F4F41E0DC
:1059100050E0B801CE0189579F4F0E9420A08FE729
:1059200090E09A8389839E012B573F4F42E050E0DD
:10593000B801CE0189579F4F0E9420A085E0EAE878
:10594000F2E0D80101900D928A95E1F79E012B5764
:105950003F4F45E050E0B801CE0189579F4F0E946C
:1059600020A019829E012B573F4F41E050E0B80123
:10597000CE0189579F4F0E9420A080E2EFE8F2E01D
:10598000D80101900D928A95E1F79E012B573F4F68
:1059900040E250E0B801CE0189579F4F0E9420A0FD
:1059A000D7011C929E012B573F4F41E050E0B701B9
:1059B000CE0189579F4F0E9420A09E012B573F4F39
:1059C00041E050E06DE074E0CE0189579F4F0E94A6
:1059D00020A09E012B573F4F44E050E069E074E067
:1059E000CE0189579F4F0E9420A0C358DF4F1882D5
:1059F00019821A821B82CD57D0409E012B573F4FF0
:105A000044E050E0BE0163587F4FCE0189579F4F5D
:105A10000E9420A080E2F80111928A95E9F79E0188
:105A20002B573F4F40E250E0B801CE0189579F4FBE
:105A30000E9420A0FE01F99688E0DF011D928A9560
:105A4000E9F744E650E060E070E049835A836B83F5
:105A50007C834D835E836F83788783E090E0A0E052
:105A6000B0E089879A87AB87BC874D875E876F8751
:105A7000788B498B5A8B6B8B7C8B8D8B9E8BAF8BF2
:105A8000B88F898F9A8FAB8FBC8F8D8F9E8FAF8F82
:105A9000B8A38EE190E0A0E0B0E089A39AA3ABA305
:105AA000BCA38DA39EA3AFA3B8A789A79AA7ABA7B2
:105AB000BCA78DA79EA7AFA7B8AB89AB9AABABAB82
:105AC000BCAB8DAB9EABAFABB8AF9E012B573F4F7E
:105AD00040E450E0B801CE0189579F4F0E9420A0BA
