:100000000C942F1B0C946F1B0C946F1B0C946F1B88
:100010000C946F1B0C946F1B0C946F1B0C946F1B38
:100020000C946F1B0C946F1B0C946F1B0C946F1B28
:100030000C946F1B0C946F1B0C946F1B0C946F1B18
:100040000C946F1B0C94BC2A0C946F1B0C946F1BAC
:100050000C946F1B0C946F1B0C9495280C94A2DECF
:100060000C946F1B0C9437900C942D900C946F1B78
:100070000C946F1B0C946F1B0C946F1B0C946F1BD8
:100080000C946F1B0C946F1B0C946F1B0C946F1BC8
:100090000C946F1B0C946F1B0C946F1B0C946F1BB8
:1000A0000C946F1B0C946F1B0C946F1B0C946F1BA8
:1000B0000C946F1B0C946F1B0C946F1B0C946F1B98
:1000C0000C946F1B0C946F1B0C946F1B0C946F1B88
:1000D0000C946F1B0C946F1B0C946F1B0C946F1B78
:1000E0000C946F1B084AD73B3BCE016E84BCBFFD0E
:1000F000C12F3D6C74319ABD56833DDA3D00C77FF8
:1001000011BED9E4BB4C3E916BAAAABE0000008090
:100110003F05A84CCDB2D44EB93836A9020C50B91F
:10012000918688083CA6AAAA2ABE000000803F004B
:100130000C9488840C9442DC0C9478210C949C726E
:100140000C940C200C94B0720C9423EB0C94152A94
:100150000C94F1290C945E720C94ED830C94F3834F
:100160000C945D5E0C94C11F0C94602A0C94D41EF8
:100170000C94562A0C9439750C94655E0C94E98F96
:100180000C9423FC0C948C900C94B6210C94274D69
:100190000C9469210C94C65C0C9490860C94D52127
:1001A0000C9473DC0C94B9EA0C9430810C94F983B0
:1001B0000C949E5E0C94595B0C9420C00C941CC053
:1001C0000C943A590C945BDC0C944D530C943625EA
:1001D0000C9488720C946D5E0C94CABF0C94807958
:1001E0000C94ED5C0C94DB830C9416720C942CEA4A
:1001F0000C946A4F0C945D560C94AE290C941B1F02
:100200000C94905E0C94FF830C94E2290C9481DC96
:100210000C94615E0C941DC00C942D750C94292ACD
:100220000C94FE8A0C9403900C9418750C9414751D
:100230000C94EC720C94DA5C0C94DB290C946C72C8
:100240000C94F31F0C94B1900C94DA1F0C9431248D
:100250000C94D8740C94A7540C94FD4E0C94695EC5
:100260000C94D5830C943F750C94F6EA0C94918110
:100270000C9489240C94795E0C94595E0C9433751B
:100280000C94E9720C9469DC0C94E7290C943C887A
:100290000C947A720C9450250C94755E0C94357500
:1002A0000C94CD510C9465DC0C9491740C949721B2
:1002B0000C942A720C947BF40C94CD1C0C94B11EFB
:1002C0000C942BDC0C942C240C9490550C9444200E
:1002D0000C9473210C9413E90C94711B0C94362428
:1002E0000C943B750C94332A0C943D750C9430DCC3
:1002F0000C9434720C94025D0C94422A0C941F7579
:100300000C9434820C94C7DD0C9469200C947DDC31
:100310000C943D760C94FB290C94EA5C0C945F7968
:100320000C944ADC0C9464210C94D4EA0C94EE28CE
:100330000C94E7830C94CE740C945E4F0C9491242F
:100340000C9429750C9439760C946FDC0C9446DC73
:100350000C9487260C94D45C0C94D15C0C94E85CCF
:100360000C9427240C9459740C946A2A0C943775B5
:100370000C9477DC0C949E900C94CE7A0C94E35CF5
:100380000C9425200C94E1830C94DD5C0C94DCE946
:100390000C9467790C945FE90C941F2A0C9461DC2F
:1003A0000C94F7960C940A4F0C94128C0C9457DC16
:1003B0000C9431750C94E05C0C940D2A0C94715ED5
:1003C0000C9464200C94EF250C944A720C94E05920
:1003D0000C94052A0C9475EA0C947C500C944EDC19
:1003E0000C949F1F0C944C2A0C9451DC0C94D75CF9
:1003F0000C947A820C946E210C94848D4E414E495B
:100400004E495459494E46CDCCCC3D0AD7233C17D2
:10041000B7D13877CC2B329595E6241FB14F0A001F
:100420000020410000C84200401C4620BCBE4CCA0F
:100430001B0E5AAEC59D7400407A10F35A00A0728C
:100440004E18090010A5D4E80000E876481700000F
:10045000E40B54020000CA9A3B000000E1F50500DD
:100460000080969800000040420F000000A0860126
:10047000000000102700000000E8030000000064F6
:1004800000000000000A0000000000010000000061
:10049000002C76D888DC674F0823DFC1DFAE59E136
:1004A000B1B796E5E3E453C63AE651997696E8E6A5
:1004B000C28426EB898C9B62ED407C6FFCEFBC9C78
:1004C0009F40F2BAA56FA5F490055A2AF75C936B8A
:1004D0006CF9676DC11BFCE0E40D47FEF520E6B545
:1004E00000D0ED902E0300943577050080841E081F
:1004F0000000204E0A000000C80C333333330F983D
:100500006E12831141EF8D2114893BE65516CFFE03
:10051000E6DB18D1844B381BF77C1D901DA4BBE48F
:1005200024203284725E228100C9F124ECA1E53DD1
:1005300027554E4C4F41442046494C414D454E5461
:10054000004C4F41442046494C414D454E540046D5
:10055000494C414D454E54204348414E474500418A
:10056000425300504C4100473239563100436C69C8
:10057000636B20746F20426567696E00486F6D6918
:100580006E672058595A0053746F72652053657412
:1005900074696E6773004C6F61642053657474698D
:1005A0006E6773004F6666004F6E00426564204CB4
:1005B0006576656C696E67004C6576656C20426592
:1005C00064004D6F74696F6E00426564004E6F7A0F
:1005D0007A6C6500436F6E66696775726174696FE6
:1005E0006E00526573746F72652044656661756C48
:1005F0007473004C6F61642053657474696E677323
:100600000053746F72652053657474696E6773006C
:1006100050726568656174202420436F6E660041E6
:100620006476616E6365642053657474696E677384
:10063000004D61696E004D37303220542564004D05
:1006400036303020423020542564004D373032207F
:100650003B2564004D3730312054256400436861E8
:100660006E67652046696C616D656E7400507265D9
:100670006865617420437573746F6D0050726568AE
:100680006561742024004261636B004D3630304256
:100690003000436F6E74696E7565005075726765E2
:1006A000206D6F726500524553554D45204F505493
:1006B000494F4E533A005052494E542050415553E1
:1006C00045440020204E6F7A7A6C653A20005061D4
:1006D000726B696E672E2E2E0000005761697420C0
:1006E000666F720066696C616D656E742063686127
:1006F0006E676500746F207374617274005761696E
:100700007420666F720066696C616D656E74207529
:100710006E6C6F616400004E6F7A7A6C652068655C
:100720006174696E6700506C6561736520776169FB
:10073000742E2E2E000050726573732062757474CF
:100740006F6E00746F2068656174206E6F7A7A6CCA
:10075000650000496E736572742066696C616D6531
:100760006E7400616E6420707265737320627574BC
:10077000746F6E00746F20636F6E74696E756500C0
:100780005761697420666F720066696C616D656E91
:1007900074206C6F61640000507265737320427541
:1007A00074746F6E00746F20726573756D65207060
:1007B00072696E7400005761697420666F722070F0
:1007C00072696E7400746F20726573756D652E2E7C
:1007D0002E00005761697420666F720066696C6153
:1007E0006D656E7420707572676500003131300080
:1007F00035004245443A204550434F532031303074
:100800004B0052756E617761792057617463683A65
:10081000204F4E004D61782054656D7000323630A7
:10082000004D696E2054656D7000350045313A20E9
:100830004550434F53203130304B00505355004703
:10084000656E657269630050726F746F636F6C00E0
:10085000312E300042617564003131353230300064
:1008600052414D505320312E3400332D506F696E5C
:1008700074204C6576656C696E6700457874727596
:10088000646572730031006D61726C696E66772EFB
:100890006F726700524631303020584C003230328F
:1008A000312D31322D323500322E302E392E33009B
:1008B0004D61726C696E00546865726D6973746F16
:1008C000727300426F61726420496E666F005072ED
:1008D000696E74657220496E666F004D61696E00C5
:1008E0003F004261636B0053746F70003F004E4FD6
:1008F00000594553004E6F204D6564696100507288
:10090000696E742066726F6D204D65646961004385
:1009100068616E6765204D65646961004D32310024
:1009200041626F7574205072696E7465720043681D
:10093000616E67652046696C616D656E7400436F1A
:100940006E66696775726174696F6E0054656D706B
:1009500065726174757265004D6F74696F6E0052D7
:100960006573756D65205072696E740054756E659F
:100970000053746F70205072696E7400506175730B
:1009800065205072696E7400496E666F2053637201
:1009900065656E003F005374617274205072696E19
:1009A000740043616E63656C005072696E7400433D
:1009B000616E6E6F7420656E74657220737562640B
:1009C00069723A200005202E2E004D61696E0021CB
:1009D00000486F74656E6420746F6F20636F6C6481
:1009E000004261636B0050726F63656564004D6F18
:1009F00074696F6E0044697361626C65205374653D
:100A00007070657273004D383400426564204C6527
:100A100076656C696E67004175746F20486F6D650F
:100A200000473238004D61696E005072656865613B
:100A300074202420426564005072656865617420EA
:100A40002420456E640054656D7065726174757222
:100A5000650063055F05436F6F6C646F776E0050D0
:100A6000726568656174202400426564004E6F7A87
:100A70007A6C65004D61696E00416476616E6365F4
:100A8000204B00466C6F7700426564004E6F7A7AA7
:100A90006C65005370656564004D61696E004D3191
:100AA00031322053687574646F776E0053544F5021
:100AB0005045442E20005072696E74657220737424
:100AC0006F707065642064756520746F2065727244
:100AD0006F72732E20466978207468652065727283
:100AE0006F7220616E6420757365204D393939202D
:100AF000746F20726573746172742E202854656D52
:100B000070657261747572652069732072657365B2
:100B1000742E205365742069742061667465722098
:100B200072657374617274696E67290A004E6F2072
:100B3000436865636B73756D2077697468206C69B1
:100B40006E65206E756D6265722C204C6173742029
:100B50004C696E653A20004E6F20436865636B7385
:100B6000756D2077697468206C696E65206E756D8F
:100B70006265722C204C617374204C696E653A205A
:100B800000636865636B73756D206D69736D617467
:100B900063682C204C617374204C696E653A2000A8
:100BA0004C696E65204E756D626572206973206EAA
:100BB0006F74204C617374204C696E65204E756DA6
:100BC0006265722B312C204C617374204C696E6508
:100BD0003A20004D3131300053657269616C2073E9
:100BE0007461747573206D69736D617463680A0054
:100BF00053442072656164206572726F720A00212D
:100C000021204B494C4C20636175736564206279E7
:100C1000204B494C4C20627574746F6E2F70696E56
:100C20000A002121204B494C4C2063617573656497
:100C300020627920746F6F206D75636820696E6122
:100C400063746976652074696D65202D2063757203
:100C500072656E7420636F6D6D616E643A20006220
:100C60007573793A2070617573656420666F7220C0
:100C7000696E7075740A00627573793A20706175D7
:100C800073656420666F7220757365720A00627501
:100C900073793A2070726F63657373696E670A00C7
:100CA0004D656469612052656D6F766564004D65C0
:100CB00064696120496E73657274656400506C6587
:100CC000617365205265736574005052494E5445F6
:100CD000522048414C5445440025533A20255300A6
:100CE0004B494C4C45442E20005072696E7465721D
:100CF0002068616C7465642E206B696C6C282920F7
:100D000063616C6C6564210A006F70656E005452FB
:100D100049474745524544003A20007A5F6D696E65
:100D200000795F6D617800785F6D696E0052657063
:100D30006F7274696E6720656E6473746F70207370
:100D400074617475730A0020746F6F206C6F6E6726
:100D500020657874727573696F6E20707265766540
:100D60006E7465640A0020636F6C64206578747229
:100D70007573696F6E2070726576656E7465640A4E
:100D800000000000000000484300000000576172AE
:100D90006E696E673A20486F6D696E672042756DA7
:100DA000702044697669736F72203C20310A00021A
:100DB000020400004843000048430000484300008C
:100DC000A0400000A0400000004000000001000022
:100DD00000010000800055555500000040003333ED
:100DE0003300AAAA2A004992240000002000C771FB
:100DF0001C0099991900D1451700555515003BB1B4
:100E000013002449120011111100000010000F0FEF
:100E10000F00E3380E0043790D00CCCC0C00C3303A
:100E20000C00E8A20B0064210B00AAAA0A00703D86
:100E30000A009DD80900427B090092240900DCD3F6
:100E40000800888808001042080000000800F0C16F
:100E500007008787070075500700711C07003EEBED
:100E60000600A1BC06006990060066660600703E9A
:100E700006006118060017F4050074D105005BB088
:100E80000500B290050062720500555505007839DD
:100E90000500B81E0500050505004EEC040087D4CA
:100EA0000400A1BD040090A7040049920400C17D84
:100EB0000400EE690400C7560400444404005C3298
:100EC00004000821040041100400000004003FF069
:100ED0000300F8E0030026D20300C3C30300CCB52F
:100EE00003003AA803000A9B0300388E0300C08168
:100EF00003009F750300D0690300505E03001D537B
:100F0000030034480300913D0300333303001629E6
:100F10000300381F030097150300300C0300030380
:100F200003000BFA020049F10200BAE802005CE09B
:100F300002002DD802002DD0020059C80200B0C016
:100F4000020031B90200DAB10200AAAA0200A0A38D
:100F50000200BC9C0200FA9502005C8F0200DF8850
:100F6000020082820200457C020027760200277080
:100F70000200436A02007C640200D05E02003F5916
:100F80000200C8530200FFFDFCFAF8F6F4F2F0EE9E
:100F9000ECEAE9E7E5E3E1E0DEDCDAD9D7D5D4D263
:100FA000D0CFCDCBCAC8C7C5C3C2C0BFBDBCBAB9FC
:100FB000B7B6B4B3B2B0AFADACAAA9A8A6A5A4A267
:100FC000A1A09E9D9C9A99989795949392908F8EAC
:100FD0008D8B8A8988878684838281807F7E7D7BD2
:100FE0007A797877767574737271706F6E6D6C6BD9
:100FF0006A696867666564636261605F5E5D5C5BC9
:101000005A5958585756555453525150504F4E4DA7
:101010004C4B4A4A49484746464544434242414070
:101020003F3E3E3D3C3B3B3A393838373635353428
:101030003332323130302F2E2E2D2C2B2B2A2929D2
:1010400028272726252524232322212120201F1E6F
:101050001E1D1C1C1B1B1A191918181716161515FE
:1010600014131312121111100F0F0E0E0D0D0C0C84
:101070000B0A0A0909080807070606050504040300
:101080000302020100000000484300004843000042
:10109000484300000000000000000000000053650D
:1010A0007474696E67732053746F72656400290AE3
:1010B000002062797465733B20637263200053657E
:1010C0007474696E67732053746F726564202800AE
:1010D00048617264636F6465642044656661756C21
:1010E000742053657474696E6773204C6F61646516
:1010F000640A0020286D6D2900203B204C65766530
:101100006C696E67200020204D343230205300413E
:1011100075746F20426564204C6576656C696E67F6
:101120000020420020480020204D3134352053005B
:101130004D6174657269616C2068656174757020B9
:10114000706172616D65746572730020204D393075
:1011500030204B004C696E65617220416476616E8F
:1011600063650020204D3134392043203B20556EEB
:1011700069747320696E2043656C736975730A0026
:1011800054656D706572617475726520556E697411
:1011900073002020473231203B004C696E6561723C
:1011A00020556E69747300454550524F4D2064615F
:1011B000746173697A65206572726F722E0A0029F4
:1011C0000A002062797465733B20637263200020FB
:1011D00073746F7265642073657474696E677320CD
:1011E00072657472696576656420280020286361E1
:1011F0006C63756C6174656429210A0020213D20AF
:1012000000454550524F4D20435243206D69736D48
:1012100061746368202D202873746F7265642920BF
:10122000002053697A653A2000496E6465783A2057
:101230000000009643000096430000A0410000C853
:1012400041D7A39D42D7A39D42000048440000E837
:1012500042F4010000F401000064000000102700C7
:1012600000204D61726C696E3D563836290A004582
:101270004550524F4D2076657273696F6E206D69CF
:10128000736D617463682028454550524F4D3D0091
:1012900024F4D43050C38E20C2A24017828B701128
:1012A000127A910D816CD90AA861E108C7586607C6
:1012B000615143061E4B5D05C145A7041A41110447
:1012C000093D9803713931034036DB0265339102E1
:1012D000D4305402802E1D02632CEE01752AC50104
:1012E000B028A001102781018F2564012B244B0118
:1012F000E0223401AC211F018D200D01801FFC0074
:10130000841EED00971DDF00B81CD200E61BC6004E
:10131000201BBC00641AB200B219A8000A19A00070
:101320006A189900D117910040178B00B5168400F8
:1013300031167E00B31579003A157300C7146F009B
:1013400058146A00EE1366008813630025135E00CC
:10135000C7125B006C12570015125400C1115100E6
:1013600070114F0021114B00D61049008D1047001D
:101370004610440002104200C00F4000800F3E00A3
:10138000420F3C00060F3B00CB0E3800930E370097
:101390005C0E3500270E3400F30D3200C10D310014
:1013A000900D3000600D2E00320D2D00050D2C002B
:1013B000D90C2B00AE0C2900850C29005C0C2700F1
:1013C000350C27000E0C2600E80B2400C40B24006B
:1013D000A00B23007D0B23005A0B2100390B2100A9
:1013E000180B2000F80A1F00D90A1E00BB0A1E00B5
:1013F0009D0A1D00800A1D00630A1C00470A1B008D
:101400002C0A1B00110A1A00F7091A00DD0919003D
:10141000C4091900AB091900920917007B091800CB
:10142000630917004C09160036091600200916003A
:101430000A091500F5081500E0081400CC0814008E
:10144000B8081400A4081400900813007D081200C6
:101450006B081300580812004608120034081100E7
:10146000230811001208110001081100F0071000F4
:10147000E0071000D0071000C0071000B0070F00F1
:10148000A107100091070E0083070F0074070F00DB
:1014900065070E0057070E0049070E003B070D00B9
:1014A0002E070E0020070D0013070D0006070D0084
:1014B000F9060C00ED060D00E0060C00D4060C0049
:1014C000C8060C00BC060C00B0060C00A4060B00FD
:1014D00099060C008D060B0082060B0077060B00A8
:1014E0006C060B0061060A0057060B004C060A004A
:1014F00042060A0038060A002E060A0024060A00E0
:101500001A060A001006090007060A00FD05090070
:10151000F4050900EB050900E2050900D9050900F9
:10152000D0050900C7050900BE050900B50508007A
:10153000AD050800A50509009C05080094050800F4
:101540008C050800840508007C0508007405080067
:101550006C050700650508005D05070056050800D5
:101560004E0507004705070040050800380507003D
:10157000310507002A050700230507001C050600A2
:10158000160507000F0507000805060002050700FD
:10159000FB040600F5040700EE040600E80406005C
:1015A000E2040700DB040600D5040600CF040600B1
:1015B000C9040600C3040600BD040600B704060003
:1015C000B1040500AC040600A6040600A004050052
:1015D0009B04060095040500900406008A0405009B
:1015E00085040500800406007A04050075040500E2
:1015F000700405006B040500660405006104050025
:101600005C04050057040500520405004D04050064
:1016100048040500430405003E0404003A040500A4
:1016200035040500300404002C04050027040400E0
:10163000230405001E0404001A0404001604050017
:10164000110404000D04040009040500040404004E
:1016500000040400FC030400F8030400F403040085
:10166000F0030400EC030400E8030400E4030400B6
:10167000E0030400DC030400D8030400D4030400E6
:10168000D0030400CC030400C8030300C503030017
:1016900024F404D9201BC40C5C0E9804C4095F0216
:1016A00065077101F405F900FB04B30048048700E5
:1016B000C10369005803550003034500BE023A0008
:1016C0008402310053022A0029022500040220006E
:1016D000E4011C00C8011900AF01170098011400B3
:1016E00084011300710110006101100051010E000E
:1016F00043010D0036010B002B010B0020010B00F4
:10170000150109000C01090003010800FB00080095
:10171000F3000800EB000700E4000600DE0006000E
:10172000D8000600D2000600CC000500C700050066
:10173000C2000500BD000400B9000400B5000400AB
:10174000B1000400AD000400A9000400A5000300DE
:10175000A20003009F0004009B0003009800030008
:101760009500020093000300900003008D0002002A
:101770008B00030088000200860002008400030042
:10178000810002007F0002007D0002007B00020059
:101790007900020077000100760002007400020068
:1017A00072000100710002006F0002006D00010074
:1017B0006C0002006A00010069000200670001007D
:1017C0006600010065000100640002006200010083
:1017D00061000100600001005F0002005D00010087
:1017E0005C0001005B0001005A000100590001008B
:1017F000580001005700010056000100550001008B
:101800005400010053000000530001005200010089
:1018100051000100500001004F0001004E00000087
:101820004E0001004D0001004C0001004B00000083
:101830004B0001004A00010049000100480000007F
:10184000480001004700010046000000460001007A
:101850004500000045000100440001004300000075
:10186000430001004200000042000100410000006E
:1018700041000100400001003F0000003F00010066
:101880003E0000003E0001003D0000003D00010060
:101890003C0000003C0000003C0001003B00000058
:1018A0003B0001003A0000003A000100390000004E
:1018B0003900010038000000380000003800010045
:1018C000370000003700010036000000360000003D
:1018D0003600010035000000350000003500010031
:1018E0003400000034000000340001003300000028
:1018F000330000003300010032000000320000001D
:101900003200010031000000310000003100010010
:101910003000000030000000300001002F00000007
:101920002F0000002F0000002F0001002E000000FB
:101930002E0000002E0001002D0000002D000000F0
:101940002D0000002D0001002C0000002C000000E4
:101950002C0000002C0001002B0000002B000000D8
:101960002B0000002B0001002A0000002A000000CC
:101970002A0000002A0001002900000029000000C0
:1019800029000000290000002900010028000000B3
:1019900028000000280000002800000028000100A6
:1019A000270000002700000027000000270000009B
:1019B000270001002600000026000000260000008D
:1019C0002600000026000100250000002500000080
:1019D0002500000025000000250000002500010072
:1019E0002400000024000000240000002400000067
:1019F0002400010023000000230000002300000059
:101A00002300000023000000230000002300010049
:101A1000220000002200000022000000220000003E
:101A2000220000002200010021000000210000002F
:101A30002100000021000000210000002100000022
:101A40002100010020000000200000002000000014
:101A50002000000020000000200000002000000006
:101A6000200001001F0000001F0000001F000000F8
:101A70001F0000001F0000001F0000001F000100E9
:101A80001E0000001E0000001E0000001E000000DE
:101A9000232C0000B8220000561800003A0F000066
:101AA000B8080000B1040000710200003E0100000F
:101AB00020436F756E7420583A00004265640045FB
:101AC00031004500626564002C2073797374656D84
:101AD0002073746F7070656421204865617465724D
:101AE0005F49443A200048656174696E6720466129
:101AF000696C65640048656174696E672066616938
:101B00006C6564004572723A204D415854454D5001
:101B1000004D415854454D50207472696767657295
:101B20006564004572723A204D494E54454D50004F
:101B30004D494E54454D5020747269676765726512
:101B40006400544845524D414C2052554E41574136
:101B50005900546865726D616C2052756E617761D1
:101B60007900202F002042403A0020403A002057C0
:101B70003A00434F4D4D554E49434154494F4E0055
:101B800044525952554E004552524F525300494EFD
:101B9000464F004543484F006563686F3A00457201
:101BA000726F723A004F4646004F4E00486F7465A0
:101BB0006E6420746F6F20636F6C640A000A0A42BF
:101BC0006564204C6576656C20436F727265637442
:101BD000696F6E204D61747269783A00332D706FB1
:101BE000696E742070726F62696E6720646F6E65D3
:101BF0002E0A0069646C650A00206F662000706F11
:101C0000696E7420004D616E75616C204732392019
:101C1000004D616E75616C204732392061626F72D0
:101C20007465640A00202844525952554E290047D1
:101C30003239204175746F20426564204C657665A9
:101C40006C696E67003F2856296572626F73652064
:101C50006C6576656C20696D706C61757369626C1A
:101C6000652028302D34292E0A0020440020204DE4
:101C7000323030205300202844697361626C6564FF
:101C8000293A0046696C616D656E742073657474E1
:101C9000696E67730020204D3230312058004D614D
:101CA0007820416363656C65726174696F6E20288A
:101CB000756E6974732F7332290020204D323033D2
:101CC0002058004D617820666565647261746573A3
:101CD0002028756E6974732F73290020520020200C
:101CE0004D323034205000416363656C657261741D
:101CF000696F6E2028756E6974732F7332292028DE
:101D0000503C7072696E742D616363656C3E205245
:101D10003C726574726163742D616363656C3E200F
:101D2000543C74726176656C2D616363656C3E2909
:101D300000204A0020540020530020204D3230352E
:101D4000204200416476616E6365642028423C6DE8
:101D5000696E5F7365676D656E745F74696D655FED
:101D600075733E20533C6D696E5F66656564726194
:101D700074653E20543C6D696E5F74726176656C6B
:101D80005F66656564726174653E204A3C6A756E83
:101D9000635F6465763E29002044002049002020CE
:101DA0004D333031205000486F74656E64205049C7
:101DB0004400496E736572742066696C616D656E6E
:101DC0007420616E64207072657373206275747420
:101DD0006F6E0A00507265737320627574746F6E53
:101DE00020746F2068656174206E6F7A7A6C650A62
:101DF00000496E736572742066696C616D656E74FE
:101E000020616E6420707265737320627574746FE4
:101E10006E0A00203B0020550020204D3630332034
:101E20004C0046696C616D656E74206C6F61642F47
:101E3000756E6C6F6164003B200020496E76616CAA
:101E40006964206578747275646572200047322F6A
:101E500047332062616420706172616D65746572E0
:101E6000730A00536C6565702E2E2E00436C6963F7
:101E70006B20746F20526573756D652E2E2E004E8B
:101E80006F204D6F76652E00456E642066696C6527
:101E9000206C6973740A00426567696E2066696C1C
:101EA00065206C6973740A004E6F206D656469610A
:101EB0000A00286E6F2066696C652900437572728E
:101EC000656E742066696C653A2000534420707218
:101ED000696E74696E67206279746520004E6F7454
:101EE000205344207072696E74696E670A002E0A6E
:101EF0000044656C6574696F6E206661696C656429
:101F00002C2046696C653A200046696C6520646542
:101F10006C657465643A002569730025696D202538
:101F20006973002569682025696D2025697300257E
:101F30006964202569682025696D2025697300255D
:101F4000697920256964202569682025696D202527
:101F50006973005072696E742074696D653A20006F
:101F60006F6B006F666600931B8E1B871B801B7256
:101F70001B44454255473A004D31313320530052FE
:101F80004631303020584C204F46462E00434F4EAD
:101F90004649475F4558504F5254004D45415450B3
:101FA00041434B00434F4F4C45525F54454D5045C4
:101FB000524154555245004348414D4245525F54A9
:101FC000454D5045524154555245004241425953A6
:101FD00054455050494E470041524353004D4F54D1
:101FE000494F4E5F4D4F44455300544845524D4173
:101FF0004C5F50524F54454354494F4E004558543E
:10200000454E4445445F4D3230004C4F4E475F468D
:10201000494C454E414D45004155544F5245504F56
:1020200052545F53445F5354415455530053445FDB
:10203000575249544500524550454154005344437A
:102040004152440050524F4D50545F535550504FE1
:10205000525400484F53545F414354494F4E5F43DD
:102060004F4D4D414E445300454D455247454E431B
:10207000595F50415253455200434153455F4C49CB
:102080004748545F4252494748544E4553530054C1
:102090004F47474C455F4C494748545300534F46C0
:1020A00054574152455F504F574552004255494C95
:1020B000445F50455243454E54004C4556454C49AB
:1020C0004E475F44415441005A5F50524F424500D1
:1020D00052554E4F5554004155544F4C4556454C62
:1020E000005052494E545F4A4F420050524F47529F
:1020F000455353004155544F5245504F52545F542D
:10210000454D50004155544F5245504F52545F5029
:102110004F5300564F4C554D455452494300454589
:1021200050524F4D0042494E4152595F46494C452D
:102130005F5452414E534645520053455249414C1B
:102140005F584F4E5F584F4646004649524D5741E3
:1021500052455F4E414D453A4D61726C696E203279
:102160002E302E392E332028417072202039203213
:102170003032322030313A35373A30362920534F19
:10218000555243455F434F44455F55524C3A67694A
:10219000746875622E636F6D2F4D61726C696E4647
:1021A00069726D776172652F4D61726C696E205036
:1021B000524F544F434F4C5F56455253494F4E3A3E
:1021C000312E30204D414348494E455F54595045CA
:1021D0003A524631303020584C20455854525544DC
:1021E00045525F434F554E543A3120555549443A74
:1021F00063656465326132662D343161322D343766
:1022000034382D396231322D6335356336326633D9
:10221000363766660A002F2F004D31343520533C87
:10222000696E6465783E206F7574206F66207261F8
:102230006E67652028302D31290A003F4A206F75CE
:1022400074206F662072616E67652028302E3031F1
:1022500020746F20302E33290A0020580020204D92
:1022600061783A2000200020204D696E3A2000203D
:102270003B200020204D323131205300536F6674D3
:1022800020656E6473746F70730046523A00204686
:102290006C6F773A200064697300656E0043290A09
:1022A0000061626C656420286D696E2074656D70D4
:1022B0002000436F6C6420657874727564657320C8
:1022C0006172652000426564204C6576656C696EBC
:1022D0006720004661696C656420746F20656E61DB
:1022E000626C6520426564204C6576656C696E673A
:1022F0000A00426564204C6576656C20436F7272FB
:10230000656374696F6E204D61747269783A004F2D
:10231000666673657473204170706C69656400450E
:1023200072723A20546F6F206661722100546F6F91
:10233000206661722066726F6D20726566657265D7
:102340006E636520706F696E740A00454550524F88
:102350004D204F4B0A002E0A002028302D31302905
:10236000002076616C7565206F7574206F66207231
:10237000616E676500416476616E6365204B3D0068
:102380004D383400446F6E65207072696E74696EEA
:10239000672066696C650A004D3737004D333100A0
:1023A000496E76616C6964206578747275646572D3
:1023B0000A0020204D323036205800486F6D6520CD
:1023C0006F6666736574004361703A00436F6F6CAB
:1023D000696E672E2E2E0048656174696E672E2E19
:1023E0002E0045312025530020573A0042656420D5
:1023F000436F6F6C696E672E2E2E00426564204815
:10240000656174696E672E2E2E0023646566696EA1
:10241000652044454641554C545F004B6420004BB9
:102420006920004B702000504944204175746F743E
:10243000756E652066696E697368656421205075E4
:102440007420746865206C617374204B702C204B71
:102450006920616E64204B6420636F6E7374616EDB
:1024600074732066726F6D2062656C6F7720696E81
:10247000746F20436F6E66696775726174696F6E01
:102480002E680A00504944204175746F74756E655A
:10249000206661696C6564212074696D656F75746F
:1024A0000A00504944204175746F74756E6520664A
:1024B00061696C6564212054656D70657261747525
:1024C000726520746F6F20686967680A005049441C
:1024D000204379636C65730025532025692F256996
:1024E00000204B643A2000204B693A2000204B70BA
:1024F0003A200020436C6173736963205049442083
:102500000A002054753A2000204B753A2000206DB7
:1025100061783A2000206D696E3A200020643A20EC
:102520000020626961733A20005761697420666F08
:102530007220686561742075702E2E2E00504944FB
:10254000204175746F74756E652073746172740ABE
:1025500000504944204175746F74756E6520666142
:10256000696C6564212054656D7065726174757263
:102570006520746F6F20686967680A0050494420BD
:102580004175746F74756E65206661696C65642150
:1025900020426164206865617465722069640A0084
:1025A000504944204175746F74756E6500426564CE
:1025B00000456E636C6F73757265002568753A250A
:1025C000303268750025303268753A2530326875CA
:1025D000002530326875272530326875002D2D2D85
:1025E00000534400202020202020200020202020F4
:1025F000005072696E742041626F72746564004DA0
:1026000032350050617573696E672E2E2E004D3283
:102610003400454550524F4D2056657273696F6EB8
:10262000204572726F7200454550524F4D20496EE1
:10263000646578204572726F7200454550524F4D67
:1026400020435243204572726F72003F0049676E0B
:102650006F726500526573657400496E69746961D3
:102660006C697A6520454550524F4D00A10000002D
:102670006900A20000006300B00000000900C10072
:1026800000004100C20000004100C3000000410002
:10269000C40000004100C50000004100C600000069
:1026A0004145C70000004300C80000004500C900C4
:1026B00000004500CD0000004900D10000004E00A0
:1026C000D50000004F00D60000004F00D7000000EA
:1026D0007800DC0000005500DD0000005900E0003B
:1026E00000006100E10000006100E2000000610004
:1026F000E30000006100E40000006100E50000006C
:102700006100E60000006165E70000006300E8008A
:1027100000006500E90000006500EA0000006500B7
:10272000EB0000006500EC0000006900ED00000017
:102730006900EE0000006900EF0000006900F10090
:1027400000006E00F20000006F00F30000006F0058
:10275000F40000006F00F50000006F00F6000000BC
:102760006F00F80000006F00F90000007500FA002B
:1027700000007500FB0000007500FC000000750003
:10278000FD0000007900FF00000079000401000056
:10279000410005010000610006010000430007013F
:1027A000000063000C01000043000D010000630005
:1027B0000E01000044000F01000064001101000040
:1027C00064001901000065001A01000045001B01AA
:1027D000000065001F010000670030010000490093
:1027E000310100006900410100004C00420100007D
:1027F0006C00430100004E00440100006E004801DF
:1028000000006E00580100005200590100007200E3
:102810005A01000053005B01000073005F010000DB
:102820007300600100005300610100007300650146
:10283000000074006F01000075007C0100007A0048
:102840007D0100005A007E0100007A009201000024
:102850006600E30200007800222000002E001E2106
:102860000000507822210000544D902100003C2DA2
:10287000922100002D3EB02100000300BB2100008A
:1028800004003C2200007E00482200007E3D6022C1
:102890000000213D612200003D00642200003C3D1B
:1028A000652200003E3DF12300000700A03000003B
:1028B0003D0021F301000200C2F401000500A20066
:1028C0000000EC00B0000000DF00E4000000E100C8
:1028D000F6000000EF00F7000000FD00FC00000023
:1028E000F500E3020000EB0087030000A5008F0362
:1028F0000000F40098030000F2009E030000E300D3
:10290000A3030000F600A9030000F400AC030000DC
:10291000E000AD030000E300B1030000E000B203FB
:102920000000E200B5030000E300B8030000F2007D
:10293000BC030000E400BE030000E300C00300008D
:10294000F700C1030000E600C3030000E50090218A
:1029500000007F00922100007E001A220000E800A3
:102960001E220000F30088250000FF000230000056
:10297000A1000C300000A2000D300000A3009B302D
:102980000000DE009C300000DF00A03000003D00B1
:10299000A1300000A700A2300000B100A330000069
:1029A000A800A4300000B200A5300000A900A630A5
:1029B0000000B300A7300000AA00A8300000B40057
:1029C000A9300000AB00AA300000B500AB30000019
:1029D000B600AC300000B6DEAD300000B700AE305F
:1029E0000000B7DEAF300000B800B0300000B8DE45
:1029F000B1300000B900B2300000B9DEB3300000E1
:102A0000BA00B4300000BADEB5300000BB00B6300A
:102A10000000BBDEB7300000BC00B8300000BCDEF8
:102A2000B9300000BD00BA300000BDDEBB30000090
:102A3000BE00BC300000BEDEBD300000BF00BE30B6
:102A40000000BFDEBF300000C000C0300000C0DEAC
:102A5000C1300000C100C2300000C1DEC330000040
:102A6000AF00C4300000C200C5300000C2DEC63076
:102A70000000C300C7300000C3DEC8300000C4003F
:102A8000C9300000C4DECA300000C500CB300000F1
:102A9000C600CC300000C700CD300000C800CE30EA
:102AA0000000C900CF300000CA00D0300000CADEEC
:102AB000D1300000CADFD2300000CB00D33000009C
:102AC000CBDED4300000CBDFD5300000CC00D630D8
:102AD0000000CCDED7300000CCDFD8300000CD00C5
:102AE000D9300000CDDEDA300000CDDFDB30000071
:102AF000CE00DC300000CEDEDD300000CEDFDE3088
:102B00000000CF00DF300000D000E0300000D10036
:102B1000E1300000D200E2300000D300E3300000DA
:102B2000AC00E4300000D400E5300000AD00E63039
:102B30000000D500E7300000AE00E8300000D6000D
:102B4000E9300000D700EA300000D800EB30000088
:102B5000D900EC300000DA00ED300000DB00EF308F
:102B60000000DC00F2300000A600F3300000DD00C1
:102B7000F4300000B3DEF7300000DCDEFA30000095
:102B8000A6DEFB300000A500FC300000B000FD30E8
:102B90000000A400074E0000FB0086510000FC006E
:102BA00043530000FA0064FF0000A40065FF00002A
:102BB000A50066FF0000A60067FF0000A70068FFF1
:102BC0000000A80069FF0000A9006AFF0000AA0039
:102BD0006BFF0000AB006CFF0000AC006DFF00005D
:102BE000AD006EFF0000AE006FFF0000AF0070FF91
:102BF0000000B00071FF0000B10072FF0000B200E1
:102C000073FF0000B30074FF0000B40075FF000004
:102C1000B50076FF0000B60077FF0000B70078FF30
:102C20000000B80079FF0000B9007AFF0000BA0088
:102C30007BFF0000BB007CFF0000BC007DFF0000AC
:102C4000BD007EFF0000BE007FFF0000BF0080FFD0
:102C50000000C00081FF0000C10082FF0000C20030
:102C600083FF0000C30084FF0000C40085FF000054
:102C7000C50086FF0000C60087FF0000C70088FF70
:102C80000000C80089FF0000C9008AFF0000CA00D8
:102C90008BFF0000CB008CFF0000CC008DFF0000FC
:102CA000CD008EFF0000CE008FFF0000CF0090FF10
:102CB0000000D00091FF0000D10092FF0000D20080
:102CC00093FF0000D30094FF0000D40095FF0000A4
:102CD000D50096FF0000D60097FF0000D70098FFB0
:102CE0000000D80099FF0000D9009AFF0000DA0028
:102CF0009BFF0000DB009CFF0000DC009DFF00004C
:102D0000DD009EFF0000DE009FFF0000DF00E5FF0A
:102D100000005C0000000000010204040000001C30
:102D20001C0C040404020100000000000408100050
:102D3000000000002D2D2D2D2D2D007C4D61726C7D
:102D4000696E7C002D2D2D2D2D2D00001C1F1111C5
:102D50001F00000006191803130C00040E1F041CAA
:102D6000000000000E1315110E00001C10181705AE
:102D7000060500040A0A0A0A11110E0C12120C00B0
:102D8000000000001F1511151F00004C6F6164202A
:102D90006D6D00556E6C6F6164206D6D0046696CE1
:102DA0002E204469612E004520696E206D6D5E33D2
:102DB00000416476616E6365204B004D33303320F3
:102DC000553120452569205325690050494420414B
:102DD00075746F74756E65202A0020022046616349
:102DE00074002002204D6178002002204D696E00A1
:102DF0004F6666004F6E004175746F74656D7000AC
:102E00004D696E2054726176656C2056656C004D7C
:102E1000696E2056656C6F63697479004D61782026
:102E2000452056656C004D6178205A2056656C002F
:102E30004D617820592056656C004D6178205820EE
:102E400056656C004D6178204520416363656C00D8
:102E50004D6178205A20416363656C004D61782094
:102E60005920416363656C004D61782058204163AF
:102E700063656C0054726176656C20416363656CB8
:102E8000005265747261637420416363656C004134
:102E90006363656C00452073746570732F6D6D00FE
:102EA0005A2053746570732F6D6D005920537465EB
:102EB00070732F6D6D00582053746570732F6D6D96
:102EC00000416476616E6365642053657474696E55
:102ED0006773003F0043616E63656C00496E6974FF
:102EE000004D34323800496E697469616C697A65E5
:102EF00020454550524F4D0046696C616D656E74BA
:102F00000054656D70657261747572650053746507
:102F100070732F6D6D004A756E6374696F6E204417
:102F2000657600416363656C65726174696F6E00FC
:102F300056656C6F636974790053657420486F6DD2
:102F400065204F66667365747300436F6E666967CC
:102F500075726174696F6E004C6576656C696E6739
:102F600020446F6E6521004D6F7665205A00473210
:102F7000395631004E65787420506F696E740025A3
:102F800069202F2025750043616E6E6F74206F706D
:102F9000656E2073756264697220004D65646961B5
:102FA00020496E6974204661696C00534420636156
:102FB0007264206F6B0A006F70656E526F6F7420C1
:102FC0006661696C65640A00766F6C756D652E6963
:102FD0006E6974206661696C65640A004E6F2053E7
:102FE0004420636172640A000A4D3234004D32336A
:102FF000202573002E0A006F70656E206661696C73
:1030000065642C2046696C653A200046696C652031
:1030100073656C65637465640A002053697A653A68
:10302000200046696C65206F70656E65643A20000B
:10303000454E4420535542524F5554494E450A007F
:103040002220706F73002220706172656E743A22C4
:1030500000535542524F5554494E452043414C4C24
:10306000207461726765743A220053756263616C03
:103070006C204F766572666C6F7700457863656586
:10308000646564206D617820535542524F55544910
:103090004E452064657074683A0057726974696EB1
:1030A0006720746F2066696C653A200066726573EC
:1030B0006800646F696E67002066696C653A20007D
:1030C0004E6F7720002F6175746F25632E67007C2B
:1030D0003C3E5E2B3D3F2F5B5D3B2C2A225C00007B
:1030E000000A0B02090C0D0E080703040100000082
:1030F00000000000000000000000000000000000D0
:10310000000000000000000000000012111000008C
:1031100000000000000000000000000000000000AF
:1031200000000000006D61726C696E66772E6F7230
:1031300067006D61726C696E66772E6F7267003220
:103140002E302E392E3300322E302E392E33006D94
:1031500061726C696E66772E6F7267006D61726C5A
:10316000696E66772E6F72670020322E302E392EF0
:10317000330070012C0190012701B0012201C00130
:103180001D01F00118011002130130020E0160024E
:10319000090190020401C002FF000003FA0040038D
:1031A000F5008003F000D003EB002004E60070047B
:1031B000E100E004DC004005D700C005D200400675
:1031C000CD00D006C8008007C3003008BE00F0085C
:1031D000B900C009B400B00AAF00B00BAA00D00C0F
:1031E000A500000EA000500F9B00C01096005012CA
:1031F000910000148C00C0158700B0178200B01930
:103200007D00D01B7800001E730040206E009022CD
:103210006900F024640040275F0090295A00E02BE9
:103220005500102E500020304B0010324600E03385
:10323000410090353C001037370070383200A0391B
:103240002D00B03A2800A03B2300603C1E00103D3A
:103250001900903D1400103E0F00703E0A00C03E61
:103260000500003F0000403FFBFF803FF6FFC03FEE
:10327000F1FF2020506C616E6E6572427566666566
:103280007242797465733A20002046726565204D5C
:10329000656D6F72793A200020436F6D70696C65BF
:1032A000643A2041707220203920323032320A00D4
:1032B000204C61737420557064617465643A2032E7
:1032C0003032312D31322D3235207C2041757468F9
:1032D0006F723A20286E6F6E652C2064656661758A
:1032E0006C7420636F6E666967290A004D61726CA9
:1032F000696E20322E302E392E330A0020536F662D
:1033000074776172652052657365740A0020576195
:10331000746368646F672052657365740A002042A5
:10332000726F776E206F75742052657365740A0032
:103330002045787465726E616C2052657365740AFD
:1033400000506F77657255700A0073746172740A69
:10335000004732385859004D31303031006F6B0022
:103360006572726F722077726974696E6720746F0C
:103370002066696C650A00446F6E6520736176692A
:103380006E672066696C652E0A004D323900456E05
:103390006473746F707300255320256320256320A8
:1033A000256320256300205A3A0020593A0020580E
:1033B0003A00656E6473746F7073206869743A20A4
:1033C00000004D6F76652025736D6D004D6F76653D
:1033D00020302E316D6D004D6F766520316D6D00A2
:1033E0004D6F76652031306D6D004D6F76652041F3
:1033F000786973004D6F76652045787472756465E1
:1034000072004D6F7665205A004D6F766520590029
:103410004D6F76652058005072696E742066726F29
:103420006D204D6564696100486F6D696E67204667
:1034300061696C656400FF01FF4572726F722077ED
:10344000726974696E6720746F20454550524F4D04
:10345000210A00204500205A0020590020204D3923
:103460003220580053746570732070657220756E39
:10347000697400220A00556E6B6E6F776E20636F61
:103480006D6D616E643A2022005246313030205812
:103490004C2052656164792E005072696E74696EB9
:1034A000672E2E2E005072696E7420506175736500
:1034B0006400DB0FC93F45BCDA3F8FB30240FCF02C
:1034C000274056946140FE4B9B4084A5D840E023A2
:1034D0001841346A5641E859974164DBD5416E275B
:1034E0001742B4B75542CE1A9742C8AED542B588F6
:1034F0005A43D40684BFA65FA7BF7443E0BF10B190
:103500001AC01C2C58C0E8F697C0B849D6C04E4E19
:1035100017C124D355C1802497C1A0B5D5C1121AB3
:1035200017C244AE55C2781797C26CACD5C2678833
:103530005AC320746F6F206C6F6E67206578747249
:103540007573696F6E2070726576656E7465640A56
:103550000020636F6C6420657874727573696F6E98
:103560002070726576656E7465640A00486F6D65DB
:1035700020257325732573204669727374002045D6
:103580003A00205A3A0020593A00583A006F6B0A24
:1035900000526573656E643A200000002200250029
:1035A00028002B002E00310034000201000005012C
:1035B00008010B0100002100240027002A002D0033
:1035C0003000330001010000040107010A01050574
:1035D0000505070508080808020202020A0A080889
:1035E00004040404010101010101010103030303B7
:1035F00003030303040707070C0C0C0C0C0C0C0C46
:103600000202020206060606060606060B0B0B0B56
:103610000B0B0B0B0102102020080810204010207B
:103620004080020102010804020101020408102086
:103630004080804020100804020180040201804084
:1036400020100804020108040201010204081020ED
:10365000408001020408102040807BF423FC1124E8
:103660001FBECFEFD1E2DEBFCDBF00E00CBF84B7FD
:1036700080931F1514BE0FB6F894A8958091600032
:10368000886180936000109260000FBE13E0A0E09C
:10369000B2E0EEEBF6E102E00BBF02C007900D9244
:1036A000A637B107D9F725E1A6E7B3E001C01D921F
:1036B000AF31B207E1F71BE1CEE2DBE100E006C08B
:1036C00021970109802FFE010F94C00ACD32D10746
:1036D00080E00807A9F70E9480F50D944D0B0C942B
:1036E0000000FC0182810895FC0190E1A2EAB4E0AF
:1036F00001900D929A95E1F70895EF92FF920F9342
:103700001F93E092CA03F092CB030093CC03109373
:10371000CD036093CE037093CF038093D0039FEFCC
:10372000FF27621B730B840B30F4809570956195B5
:10373000790B890B99279093E304A6E06A9F009286
:10374000D704512DEE277A9F500DE11D8A9FE00D81
:103750005093D804E093D904AFE06A9F0092DB0451
:10376000512DEE277A9F500DE11D8A9FE00D509359
:10377000DC04E093DD04AAE06A9F0092DF04512D8F
:10378000EE277A9F500DE11D8A9FE00D5093E004D3
:10379000E093E1041F910F91FF90EF9008959F92A5
:1037A000AF92BF92CF92DF92EF92FF920F931F934F
:1037B000CF93DF9300D01F921F92CDB7DEB7E6E81C
:1037C000FFE00027BB27462F572FA82FAA2341F43D
:1037D000A52F542FB85FAA2319F4A52F5527B85F3A
:1037E000A03138F45295A295452F4F70507FA42BED
:1037F000BC5FA03428F4550FAA1F550FAA1FBE5F47
:10380000A03818F4550FAA1FB395550FAA1FEA0F39
:10381000F01F449151E0AA27B85081F1C8F0B0FFE1
:1038200002C0440F551FB1FF04C0440F551F440F81
:10383000551FB2FF06C052954295142F1F70407F4E
:10384000512BB3FF1BC0A52F542F44270C943E1CB3
:10385000B195B0FF02C055954795B1FF04C055958D
:10386000479555954795B2FF05C05295407F4295C3
:10387000452B5F70B3FF02C0452F5527DD24CC24B4
:10388000BB24B2E0649FD018C108B00AB00B749F8B
:10389000C018B108B00B849FB018B109659FC0185B
:1038A000B108B00B759FB018B109859FB0196A9F18
:1038B000B018B1097A9FB0194D9DA12C99243327D6
:1038C000992722275D9DA00C911C301F901F201F5F
:1038D000AD9D900C311D901F201F4C9DA00C911C84
:1038E000301F901F201F5C9D900C311D901F201FCA
:1038F000AC9D300D911D201F4B9D900C311D901FD4
:10390000201F5B9D300D911D201FAB9D900D211D33
:103910004B9F300D911D201F5B9F900D211DAB9F74
:10392000200DB1E0BB24CC24DD24639FD018C10856
:10393000B00AB00B739FC018B108B00B839FB018CA
:10394000B109699FC018B108B00B799FB018B109CF
:10395000899FB019629FB018B109729FB019D61A29
:10396000C70AB80A20F0B1E03B0F901F201F1124B6
:10397000792F632F90E0822F0F900F900F900F9070
:103980000F90DF91CF911F910F91FF90EF90DF90FB
:10399000CF90BF90AF909F900895CF92DF92EF921B
:1039A000FF928091C803882309F457C0C090C403D4
:1039B000D090C503E090C603F090C70320E030E04C
:1039C000A901C701B6010F94CC00882309F445C0B2
:1039D00020E030E040E05FE3C701B6010F94320120
:1039E0009B01AC010F9432012BED3FE049E450E420
:1039F0000F9432019B01AC0160E070E080E89FE32E
:103A00000F9447086B017C01C092B603D092B703B4
:103A1000E092B803F092B9036091190270911A0212
:103A2000072E000C880B990B0F94D3002AE037ED7A
:103A300043E25CE30F943201A70196010F94320137
:103A4000609358027093590280935A0290935B02DC
:103A5000FF90EF90DF90CF900895C12CD12C80E89B
:103A6000E82E8FE3F82ED0CF2F923F924F925F92A5
:103A70006F927F928F929F92AF92BF92CF92DF927E
:103A8000EF92FF920F931F93CF93DF93CDB7DEB7E3
:103A90002C970FB6F894DEBF0FBECDBF9C878B87E7
:103AA0008B011A013E832D83DB018D909D90AD909B
:103AB000BC90FA01C080D180E280F380D9018D9161
:103AC0009D910D90BC91A02D89839A83AB83BC837B
:103AD000EB85FC852481358146815781C501B40180
:103AE0000F9432012B013C01AB85BC8550962D9182
:103AF0003D914D915C915397C701B6010F943201EE
:103B00009B01AC01C301B2010F944D072B013C0195
:103B1000EB85FC85248D358D468D578D69817A81A5
:103B20008B819C810F9432019B01AC01C301B201D6
:103B30000F944D076F83788789879A87AB85BC85FB
:103B400018962D913D914D915C911B97C501B40143
:103B50000F9432012B013C01EB85FC8524893589CA
:103B600046895789C701B6010F9432019B01AC0108
:103B7000C301B2010F944D072B013C01AB85BC85FD
:103B800090962D913D914D915C91939769817A81A9
:103B90008B819C810F9432019B01AC01C301B20166
:103BA0000F944D072B013C01EB85FC852081318171
:103BB00042815381C501B4010F9432014B015C0174
:103BC000AB85BC851C962D913D914D915C911F97C5
:103BD000C701B6010F9432019B01AC01C501B401CC
:103BE0000F944D076B017C01EB85FC85208D318D99
:103BF000428D538D69817A818B819C810F94320132
:103C00009B01AC01C701B6010F944D07D8016D931C
:103C10007D938D939C9313978F819885A985BA8501
:103C2000F10180839183A283B383AD81BE814D92E4
:103C30005D926D927C9213972C960FB6F894DEBF2E
:103C40000FBECDBFDF91CF911F910F91FF90EF90ED
:103C5000DF90CF90BF90AF909F908F907F906F90AC
:103C60005F904F903F902F9008958F929F92AF92C8
:103C7000BF92CF92DF92EF92FF92FC01C080D18081
:103C8000E280F38020E030E040E251E4C701B60179
:103C90000F94320120E030E040E251E40F94320111
:103CA0004B015C0120E030E0A901C701B6010F948F
:103CB000CC0020E030E040EA50E487FF04C020E080
:103CC00030E040EA50ECC501B4010F944D0720E00C
:103CD00030E040E251E40F9447080F94B9089B018B
:103CE0008BE237FF05C022273327261B370B8DE2D7
:103CF00080938303C90168EE73E00F948D0ACB01B2
:103D0000EAE0F0E0BF010F948D0A805D80938403A8
:103D1000C90164E670E00F948D0ACB01BF010F94D6
:103D20008D0A805D80938503C901BF010F948D0AC0
:103D3000282FCB01BF010F948D0A805D80938603ED
:103D40008EE280938703205D2093880383E893E0CD
:103D5000FF90EF90DF90CF90BF90AF909F908F90AB
:103D600008956091190270911A02072E000C880BB9
:103D7000990B0F94D3002AE037ED43E25CE30F94F4
:103D800032012091B6033091B7034091B8035091AE
:103D9000B9030F94320160935802709359028093D3
:103DA0005A0290935B020895809144128823C1F0D7
:103DB000815080934412E0ECF0E1882351F081506F
:103DC000990B2BE1289FF001299FF00D1124EA5C4B
:103DD000FE4E8BE1A5EAB0E101900D928A95E1F7E4
:103DE00020914412211105C080914F12806480936C
:103DF0004F1281E090E0A0E0B0E0211103C080E02C
:103E000090E0DC0180937C0690937D06A0937E0673
:103E1000B0937F061092760681E080938C0683E053
:103E200080935602089581E080937903089582E09B
:103E30008093790308950F931F93CF93DF93EC0141
:103E40008B0120E030E0A90169E00E94EEE98111D8
:103E50000AC040E150E0B801CE01DF91CF911F913F
:103E60000F910C9480E980E18C83CE010E940BE9D4
:103E700080E0DF91CF911F910F9108954091C90388
:103E800021E042276CE070E00C940AD84091C9030D
:103E900021E0422764E070E00C940AD84091C90305
:103EA00021E0422761E070E00C940AD84091C903F8
:103EB00021E0422761E070E00C940AD84091C903E8
:103EC00021E0422768E070E00C940AD84091C903D1
:103ED00021E042276CE070E00C940AD841E061E0F8
:103EE00070E00C940AD84091C90321E042270C9459
:103EF0000AD86CE070E00C940CDE64E070E00C9486
:103F00000CDE61E070E00C940CDE61E070E00C947B
:103F10000CDE6CE070E00C940CDECF93C82FCB016C
:103F20000E94219788E19DE00E94219789E09DE011
:103F3000CC2311F08EE09DE0CF910C944C9920E0C1
:103F400040E070E060E083E791E20C94237921E0A7
:103F500020939403FC0180819181A281B38180939D
:103F6000010290930202A0930302B093040220E0A6
:103F700040E070E060E080917706909178060C94C4
:103F80002379CF93DF9300D01F92CDB7DEB78DECAE
:103F90009CECACECBCE389839A83AB83BC83CE01FD
:103FA00001960E94A71F0F900F900F900F90DF9126
:103FB000CF910895CF93DF9300D01F92CDB7DEB796
:103FC0008DEC9CECACECBDE389839A83AB83BC8322
:103FD000CE0101960E94A71F0F900F900F900F9097
:103FE000DF91CF910895CF93DF9300D01F92CDB78B
:103FF000DEB780E090E0A0E8BFE389839A83AB83DB
:10400000BC83CE0101960E94A71F0F900F900F90C6
:104010000F90DF91CF910895CF93DF9300D01F923F
:10402000CDB7DEB780E090E0A0E2B1E489839A8367
:10403000AB83BC83CE0101960E94A71F0F900F9007
:104040000F900F90DF91CF9108958091BA03811165
:104050000CC080911B0290911C0201972091F303E8
:104060003091F403281739073CF08BE896E09093E1
:104070001A0680931906089520E040E070E060E0A1
:104080008AE69FE40C94237981E080939403109254
:104090000A061092340420E040E070E060E086E31D
:1040A00095E20E94237981E29AE090931A06809328
:1040B0001906089560917E038FEF0C944AF4809165
:1040C0007E03682F0C944AF46FEF80917E030C946A
:1040D0004AF47F928F929F92AF92BF92CF92DF92DB
:1040E000EF92FF920F931F93CF93DF93C0917E03C4
:1040F00061E081E00E94417870907606D0E0CC0FBC
:10410000DD1FCE5AD54F10E09AE2E92E9AE0F92E43
:1041100024E6C22E20E2D22E38E3A32E3AE0B32EBC
:104120004FE5842E4AE0942E711035C080917506BB
:104130008823B9F080915602882361F081E0909144
:104140007506911180E003E023E046E45AE0612F18
:104150000E94E27F73941F5F143031F710936F0653
:104160000CC08091700610927006882319F30E948B
:10417000C17980918C068823E9F2DF91CF911F915C
:104180000F91FF90EF90DF90CF90BF90AF909F90F6
:104190008F907F90089581E078122BC0FE01859169
:1041A000949190937D0380937C0380917506813078
:1041B00081F080915602882369F21F929F928F921C
:1041C0001F9381E090917506913009F474C080E0EE
:1041D00072C08091700610927006882351F380910E
:1041E0007E03682F0E944AF480918C06882309F38D
:1041F000C4CF82E0781242C0FE01859194919093E1
:104200007D0380937C03809175068230D1F080918C
:104210005602882309F49ECFDF92CF92BF92AF92CD
:104220001F9381E090917506923009F080E08F93A2
:104230000E9410800F900F900F900F900F900F9092
:1042400089CF8091700610927006882301F30E9436
:10425000642080918C068823D1F28FCF80917006E4
:10426000109270068823C1F060917E038FEF0E9448
:104270004AF480918C06882379F07FCF83E078120E
:1042800069CFFE018591949190937D0380937C0387
:1042900080917506833011F380915602882309F4CA
:1042A00059CF1F92FF92EF921F9381E09091750674
:1042B000933009F08CCF8F930E9410800F900F9055
:1042C0000F900F900F9046CF67E274E282E00C945B
:1042D0003FF26CE274E281E00C943FF261E374E23D
:1042E00080E00C943FF265ED71E283E00C943FF2C4
:1042F000CF92DF92EF92FF920F931F938FECC82E15
:1043000089E0D82EF12CE12C01ED19E030E020E01D
:104310004FE95FE161EE79E086EE99E00E942F803F
:104320001F910F91FF90EF90DF90CF900895CF9263
:10433000DF92EF92FF920F931F938CEEC82E88E0CE
:10434000D82EF12CE12C0EE219E030E020E045E21D
:1043500050E26EEE78E081EF98E00E942F801F918E
:104360000F91FF90EF90DF90CF900895CF92DF9262
:10437000EF92FF920F931F9380EEC82E88E0D82E05
:10438000F12CE12C01E719E030E020E04EE950E9A2
:1043900062EE78E087EE98E00E942F801F910F91E7
:1043A000FF90EF90DF90CF900895CF93DF9300D0F0
:1043B0001F92CDB7DEB780917006109270068823E9
:1043C00059F0109294030E94C1790F900F900F90B2
:1043D0000F90DF91CF91089560917C0670917D06DA
:1043E00080917E0690917F0661157105810591058A
:1043F00061F10F94D30020910102309102024091AB
:104400000302509104020F9432012091680230910E
:10441000690240916A0250916B020F944D076093BC
:1044200068027093690280936A0290936B0283E042
:104430000E94BE7D81E08093560210927C0610920D
:104440007D0610927E0610927F0680915602882388
:1044500009F4BBCF2091710630917206409173062A
:1044600050917406609168027091690280916A02AD
:1044700090916B020F944C0769837A838B839C83A2
:10448000CE0101960E94351EBC0184EF93E30E9489
:10449000EE819BCF3F924F925F926F927F928F926D
:1044A0009F92AF92BF92CF92DF92EF92FF920F93C3
:1044B0001F93CF93DF93CDB7DEB72C970FB6F89449
:1044C000DEBF0FBECDBF9C878B87362E80917006D6
:1044D000109270068823E1F0109294030E94C17933
:1044E0002C960FB6F894DEBF0FBECDBFDF91CF91F3
:1044F0001F910F91FF90EF90DF90CF90BF90AF9002
:104500009F908F907F906F905F904F903F90089515
:1045100060917C0670917D0680917E0690917F0669
:10452000611571058105910509F457C020911D029F
:10453000222309F4B5C020911E022111B1C021E04F
:10454000321609F48BC0A2E03A1609F498C0C09064
:104550001F02D0902002E0902102F09022024090B1
:104560002B0250902C0260902D0270902E020F941E
:10457000D300209101023091020240910302509138
:1045800004020F9432016F83788789879A87B4E099
:104590003B9E80011124F801E45AFD4FFE83ED8318
:1045A00020813181428153810F944D074B015C0181
:1045B000A3019201C701B6010F94CC0081117FC005
:1045C000F801E45AFD4F80829182A282B382832D4A
:1045D0000E94BE7D81E08093560210927C0610926C
:1045E0007D0610927E0610927F06809156028823E7
:1045F00009F476CFF4E03F9EC0011124FC01E45A97
:10460000FD4F8758924FDC012D913D914D915C916A
:1046100060817181828193810F944D076B017C01D0
:10462000C982DA82EB82FC822DEC3CEC4CEC5DE33F
:104630006091010270910202809103029091040244
:104640000F94AD0987FD66C0CE0101960E94351E0C
:10465000BC018B859C850E94EE8142CFC0902302D5
:10466000D0902402E0902502F090260240902F0284
:1046700050903002609031027090320278CFC0903A
:104680002702D0902802E0902902F0902A02409060
:10469000330250903402609035027090360267CF3A
:1046A000412C20E5522E23EC622E27E4722EC12CE1
:1046B00030E5D32E33ECE32E37ECF32E58CF20E049
:1046C00030E0A9016F81788589859A850F94CC00A7
:1046D00087FF10C0A7019601C501B4010F94CC005B
:1046E00087FF6ECFAD81BE81CD92DD92ED92FC92BF
:1046F00013976DCFA3019201C501B4010F94AD09C9
:1047000018160CF05DCFED81FE81408251826282ED
:1047100073825DCF20E030E040E251E4C701B60192
:104720000F94320120E030E04AE754E40F94320164
:104730004B015C0120E030E0A901C701B6010F94F4
:10474000CC0020E030E040EA50E487FF04C020E0E5
:1047500030E040EA50ECC501B4010F944D0720E071
:1047600030E040E251E40F9447080F94B9086B0120
:104770007C01F7FC62C020EA36E841E050E00F948B
:10478000A10ACA01B9012AE030E040E050E00F94EC
:10479000A10A605D60938203C701B60120E137E2A0
:1047A00040E050E00F94A10A8AE0882E912CA12CC1
:1047B000B12CCA01B901A50194010F94A10A605D51
:1047C00060938303C701B60128EE33E040E050E078
:1047D0000F94A10ACA01B901A50194010F94A10A7D
:1047E000605D609384038EE280938503C701B60108
:1047F00024E630E040E050E00F94A10ACA01B9017C
:10480000A50194010F94A10A605D60938603C7011E
:10481000B601A50194010F94A10A162FCA01B9018E
:10482000A50194010F94A10A605D60938703105D58
:104830001093880382E893E00BCFF094E094D09437
:10484000C094C11CD11CE11CF11C6DE2A3CF62E03D
:1048500082E094E30C944A2261E089E094E30C94B2
:104860004A2260E080E194E30C944A22AF92BF9226
:10487000CF92DF92EF92FF920F931F93CF93DF932C
:10488000CDB7DEB7ADB6BEB68091F50F6CE976E078
:10489000882311F065EF7FE0FB0101900020E9F72C
:1048A000CF01861B970B01962DB73EB7281B390BFE
:1048B0000FB6F8943EBF0FBE2DBF8DB79EB70196C1
:1048C0007C0180E2EDB7FEB78183C70101960F94AA
:1048D0001E0B84E9C82E89E0D82E06E919E030E0E5
:1048E00020E049E854E262EA79E089EA99E00E942E
:1048F0002F800FB6F894BEBE0FBEADBEDF91CF9134
:104900001F910F91FF90EF90DF90CF90BF90AF90ED
:1049100008958CE996E00E9412EC0E945F790C9455
:1049200081D7AF92BF92CF92DF92EF92FF920F9317
:104930001F93CF93DF9361E081E00E944178C091A3
:10494000760604E00C0FD1E082E9E82E86E0F82E2E
:1049500012E01C1B9BE9C92E96E0D92EBD2EBC1A75
:10496000AC2EA194C11130C0DD23D9F08091750621
:104970001816BCF040917C0650917D0660917E0631
:1049800070917F064F5F5F4F6F4F7F4F40937C0664
:1049900050937D0660937E0670937F068F5F8093B1
:1049A000750680915602882341F030E020E041E016
:1049B00066EA76E08A2D0E947E8FCF5F0C13D2CFFD
:1049C00083E080936F061FC0C13041F5909175065A
:1049D000913069F0809156028823C9F11F92DF92CD
:1049E000CF92BF9281E0913051F180E028C0809158
:1049F000700610927006882369F3C0937903809142
:104A00008C06882339F3DF91CF911F910F91FF908E
:104A1000EF90DF90CF90BF90AF900895C23069F6CD
:104A2000909175069230A9F080915602882379F012
:104A30001F92FF92EF921F9381E09230B1F68F9315
:104A40000E9410800F900F900F900F900F90D0E069
:104A5000B4CF8091700610927006882329F3C0931A
:104A6000790380918C068823F9F2CDCF809156028C
:104A7000882341F030E020E041E06CE775E081E020
:104A80000E947E8F809134048770873041F420E04B
:104A900040E070E060E082E09DE50C9423790895A9
:104AA000EF92FF920F931F93CF93DF93CDB7DEB7B3
:104AB00065970FB6F894DEBF0FBECDBF809170062C
:104AC00010927006882379F00E94C17965960FB61E
:104AD000F894DEBF0FBECDBFDF91CF911F910F9134
:104AE000FF90EF90089560E084E00E94417800918B
:104AF000760610E08AE3F82E90E2E92E011130C02C
:104B000080915602882341F030E020E043E060EBE2
:104B100078E0812F0E947E8FF982EA8242E150E0A4
:104B200065E878E0CE0103960F943A008C8987FD02
:104B30001C8A0530C1F580915602882349F09E01F8
:104B40002F5F3F4F41E06BE778E0812F0E947E8F1F
:104B50000F5F1F5F143091F687E080936F06B6CF2A
:104B6000013051F4809156028823B1F230E020E008
:104B700041E068EA78E0CDCF023009F58091560235
:104B8000882351F230E020E041E06DE978E0C1CFC8
:104B900080915602882309F4BFCF30E020E043E043
:104BA00064E978E0B6CF063099F680915602882302
:104BB00079F230E020E041E06AE678E0C6CF0330E9
:104BC00039F3043009F0A8CF80915602882309F404
:104BD000A3CF30E020E041E067E878E09ACFEF92A1
:104BE000FF920F931F93CF93DF93CDB7DEB76597F7
:104BF0000FB6F894DEBF0FBECDBF80917006109245
:104C00007006882379F00E94C17965960FB6F894F2
:104C1000DEBF0FBECDBFDF91CF911F910F91FF90EF
:104C2000EF90089560E084E00E944178009176065C
:104C300010E08AE3F82E90E2E92E01110CC0809179
:104C40005602882341F030E020E043E060E678E05F
:104C5000812F0E947E8FF982EA8242E150E069E56D
:104C600078E0CE0103960F943A008C8987FD1C8A68
:104C7000013069F480915602882349F09E012F5F2C
:104C80003F4F41E064E578E0812F0E947E8FF982FA
:104C9000EA8242E150E060E578E0CE0103960F94AD
:104CA0003A008C8987FD1C8A023069F48091560293
:104CB000882349F09E012F5F3F4F41E067E478E091
:104CC000812F0E947E8FF982EA8242E150E06FE3F9
:104CD00078E0CE0103960F943A008C8987FD1C8AF8
:104CE000033069F480915602882349F09E012F5FBA
:104CF0003F4F41E06BE378E0812F0E947E8F0F5F92
:104D00001F5F143009F099CF10936F067ECFEF929A
:104D1000FF920F931F93CF93DF93CDB7DEB76597C5
:104D20000FB6F894DEBF0FBECDBF80917006109213
:104D30007006882379F00E94C17965960FB6F894C1
:104D4000DEBF0FBECDBFDF91CF911F910F91FF90BE
:104D5000EF90089560E084E00E944178009176062B
:104D600010E08AE3F82E90E2E92E01110CC0809148
:104D70005602882341F030E020E042E06CE278E027
:104D8000812F0E947E8FF982EA8242E150E06AE23E
:104D900078E0CE0103960F943A008C8987FD1C8A37
:104DA000013069F480915602882349F09E012F5FFB
:104DB0003F4F40E061E278E0812F0E947E8FF982D0
:104DC000EA8242E150E06DE178E0CE0103960F9473
:104DD0003A008C8987FD1C8A023009F04EC0809110
:104DE0005602882349F09E012F5F3F4F40E064E167
:104DF00078E0812F0E947E8FF982EA8242E150E0C2
:104E000060EF77E0CE0103960F943A008C8987FD1E
:104E10001C8A053069F480915602882349F09E016E
:104E20002F5F3F4F40E061E278E0812F0E947E8F4C
:104E3000F982EA8242E150E06CEE77E0CE0103961F
:104E40000F943A008C8987FD1C8A063089F5809181
:104E50005602882349F09E012F5F3F4F40E064E1F6
:104E600078E0812F0E947E8F0F5F1F5F143009F062
:104E70007CCF88E080936F0660CF033059F4809137
:104E80005602882309F4B8CF30E020E040E062E029
:104E900078E0AFCF043009F0AFCF8091560288237D
:104EA00009F4AACF30E020E042E062EF77E0A1CF42
:104EB0000730D1F6809156028823B1F230E020E02D
:104EC00040E062E078E0CDCFFC0120E03EE2DB0193
:104ED0004D91BD01403249F0283011F430833196B4
:104EE000DB0111974C91408331962F5F2B3079F77E
:104EF0001082089540E050E0BA010C9490E3FC0168
:104F0000238121110C94B0E608958F929F92AF9265
:104F1000BF92CF92DF92EF92FF92CF936B017C0111
:104F2000B42E20E030E0A9010F94CC0087FF07C029
:104F30008DE20E941290F7FAF094F7F8F09460E096
:104F400070E080E09FE3C0E02DEC3CEC4CEC5DE3D6
:104F50000F943201CF5FBC12F7CFA70196010F94D7
:104F60004D076B017C010F94C0084B015C010F944D
:104F7000D1009B01AC01C701B6010F944C076B0136
:104F80007C01C501B4010E9431D48EE20E941290CE
:104F9000C150E8F020E030E040E251E4C701B60142
:104FA0000F9432016B017C010F94C0084B015C012E
:104FB0000E9431D4C501B4010F94D1009B01AC0112
:104FC000C701B6010F944C076B017C01E1CFCF9173
:104FD000FF90EF90DF90CF90BF90AF909F908F9019
:104FE0000895EF92FF920F931F93CF937B018A0155
:104FF000C2E48F3F09F0C4E580E20E9412908C2F3A
:105000000E9412908AE30E941290F70160817181E0
:105010008281938142E00E94852782E69BE10E9483
:105020002197F801608171818281938142E00E9421
:10503000852762E070E080E090E0CF911F910F91B2
:10504000FF90EF900C94D9DD1F93CF93DF9300D0A6
:1050500000D01F921F92CDB7DEB7182F6091F303D7
:105060007091F403072E000C880B990B0F94D3005A
:105070006D837E838F8398878091EF039091F003F7
:10508000A091F103B091F20389839A83AB83BC832F
:10509000AE014B5F5F4FBE016F5F7F4F80E00E94AC
:1050A000F1276091640670916506072E000C880B4D
:1050B000990B0F94D3006D837E838F8398878091A3
:1050C000600690916106A0916206B09163068983A3
:1050D0009A83AB83BC83AE014B5F5F4FBE016F5FB2
:1050E0007F4F8FEF0E94F127609166061F3F39F0D6
:1050F00087E11802F0011124E551FC4F628570E050
:105100008AE69BE10E94A69E6091660670E085E6B5
:105110009BE10E94A69E28960FB6F894DEBF0FBEB4
:10512000CDBFDF91CF911F9108950F930FB70F93CC
:1051300000916E000B7F00936E0078940F930BB775
:105140000F930CB70F921F922F933F934F935F9340
:105150006F937F938F939F93AF93BF93EF93FF933F
:1051600011240E94FB32FF91EF91BF91AF919F916B
:105170008F917F916F915F914F913F912F911F90F0
:105180000F900CBF0F910BBF0F910460F894009328
:105190006E000F910FBF0F911895CF93DF93109270
:1051A0000204EBEEF3E0118610861092CF04109209
:1051B000D0041092D1041092D20412862C98CCE51F
:1051C000D6E0198618860E943D761A8680910201E3
:1051D000807280930001DF91CF9108950E94CD28C5
:1051E0000C945F798F929F92AF92BF92CF92DF9291
:1051F000EF92FF920F931F93CF93DF93B0E4A0E061
:105200006A2F70E0AB014B0F511D55954795411129
:1052100019C0E4E7F1E365917491072E000C880B47
:10522000990B0F94D300DF91CF911F910F91FF90B5
:10523000EF90DF90CF90BF90AF909F908F900895A8
:10524000B42FE0CFA41711F0B41303C0E0E7F2E3EA
:10525000E2CF9A0121503109220F331F220F331F51
:10526000F901EE58FE4CE590F490F901EA58FE4C35
:10527000C591D4918E159F051CF3A42FC817D9078B
:105280000CF4BECFF901EC58FE4C05911491F901D4
:10529000E858FE4CC590D490BC016E197F09072ECA
:1052A000000C880B990B0F94D3004B015C01B601E5
:1052B000601B710B072E000C880B990B0F94D30009
:1052C0009B01AC01C501B4010F9432014B015C019B
:1052D000BE016E197F09072E000C880B990B0F94E5
:1052E000D3009B01AC01C501B4010F9447086B01C9
:1052F0007C01B801110F880B990B0F94D3009B010F
:10530000AC01C701B6010F944D078DCFCF93DF934A
:10531000CAEBDAE120E030E048E452E46091EF03C8
:105320007091F0038091F1039091F2030F94AD0915
:1053300087FF1AC080E0FE01C49190E002C09595FD
:105340008795CA95E2F7C4E6D0E080FD02C0D0E0C0
:10535000C0E089E00E94EFD4209771F460E089E01A
:10536000DF91CF910C94FBDBFE01949181E001C0B1
:10537000880F9A95EAF7DFCFE8EEF0E3E491E15089
:10538000E23160F7F0E08827E753F64D8F4F0D9438
:10539000C00ADB29E229E729F129FB29AE29052AE0
:1053A0000D2A152A1F2A292A332A422A4C2AAE29D5
:1053B000562A602A6A2A84B5806884BDC7BDDF91F9
:1053C000CF91089584B5806284BDC8BDF8CF809127
:1053D0008000806880938000D0938900C09388000B
:1053E000EECF80918000806280938000D0938B000C
:1053F000C0938A00E4CF8091800088608093800011
:10540000D0938D00C0938C00DACF8091B00080687B
:105410008093B000C093B300D2CF8091B00080627F
:105420008093B000C093B400CACF80919000806890
:1054300080939000D0939900C0939800C0CF809142
:105440009000806280939000D0939B00C0939A005C
:10545000B6CF80919000886080939000D0939D009B
:10546000C0939C00ACCF8091A00080688093A00086
:105470008091A0008F7B8093A000D093A900C0935F
:10548000A8009DCF8091A00080628093A000D0935F
:10549000AB00C093AA0093CF8091A0008860809356
:1054A000A000D093AD00C093AC0089CF80912001C3
:1054B000806880932001D0932901C09328017FCF79
:1054C00080912001806280932001D0932B01C093B2
:1054D0002A0175CF80912001886080932001D093AC
:1054E0002D01C0932C016BCFCF92DF92EF92FF92F0
:1054F000CF93DF93EC01C880D980EA80FB8080EBFA
:105500009AE10E942197C701B6010E943695CC808E
:10551000DD80EE80FF8086E895E30E942197C70139
:10552000B6010E943695C884D984EA84FB8482E857
:1055300095E30E942197C701B6010E9436958AE043
:10554000DF91CF91FF90EF90DF90CF900C9412906D
:10555000BC012091930430919404409193045091A4
:1055600094042417350731F481E02617370709F032
:1055700080E008959A01F1CF0F930FB70F93009138
:105580006E000F930B7F00936E0000916F000D7FF4
:1055900000936F000F930BB70F930CB70F921F92EE
:1055A0002F933F934F935F936F937F938F939F932B
:1055B000AF93BF93EF93FF9311240E942F34FF9179
:1055C000EF91BF91AF919F918F917F916F915F917B
:1055D0004F913F912F911F900F900CBF0F910BBFD8
:1055E0000F910260F89400936F000F9100936E008A
:1055F0000F910FBF0F91189500C000C080910B064E
:1056000080FF1CC089988FEF8093430480910B0624
:1056100081FF17C08F9A8FEF8093440480910B060F
:1056200082FF12C080910B018095827080930901E6
:105630008FEF8093450400C000C00895899A81E0EF
:10564000E3CF8F9881E0E8CF80910B018270809347
:10565000090181E0EECF80914204877F809342046C
:10566000129A81E008951298809142048860809394
:105670004204089521E030E0082E02C0220F331FBB
:105680000A94E2F7209530959091420429232093C3
:105690004204813051F0823069F05F9A80910A06AD
:1056A0008E7F80930A0681E008958A9A80910A0687
:1056B0008D7FF7CF809108018095817080930601DE
:1056C00080910A068B7FEDCF80E00E943A2B81E02B
:1056D0000E943A2B82E00E943A2B0C942B2B8130B3
:1056E00079F0823079F05F9821E030E001C0220F3C
:1056F0008A95EAF780914204822B809342040895B0
:105700008A98F2CF90910801917090930601ECCFA6
:10571000CF92DF92EF92FF920F931F93CF93C82FF8
:1057200041E06AE971E10E94AC9F8C2F0E94C79E04
:1057300082E991E10E94219783EF90E10E944C99C8
:1057400041E060E871E18C2F0E94AC9F8C2F0E9499
:10575000C79E83E691E10E9421978C2F0E942CA086
:105760008C2F0E9449D88C2F0E94429E8C2F0E9421
:105770006C9E8C2F0E94209E8C2F0E94E89D8C2F67
:105780000E94C69D6FE071E18C2F0E9440D810915D
:10579000BB0386E091E10E942197612F70E090E0C9
:1057A00080E00E940ED589EF90E10E9421978091C0
:1057B000BB030E94B39E41E060E371E18C2F0E9425
:1057C000AC9F07E616E0C12CD12C76018C2F0E94ED
:1057D000C79E87E291E10E942197C701B6010E940E
:1057E00031D4F80160817181072E000C880B990B70
:1057F0000F94D300AB01BC0184E291E10E94519966
:10580000F80162817381072E000C880B990B0F94AD
:10581000D300AB01BC0181E291E10E9462990C5F6F
:105820001F4FCA94CD28CE28CF2811F58C2F0E9467
:10583000F29F41E064E571E18C2F0E94AC9F8C2FB8
:105840000E94C79E4091C6065091C7066091C80647
:105850007091C9068BE491E10E9462998C2FCF91DF
:105860001F910F91FF90EF90DF90CF900C94CB9F02
:10587000C12CD12C7601C394A9CF8F929F92AF9265
:10588000BF92DF92EF92FF920F931F93CF93DF931C
:10589000CDB7DEB7C658D1090FB6F894DEBF0FBE3C
:1058A000CDBFC358DF4F188219821A821B82CD5791
:1058B000D0408091530390915403A0915503B0912F
:1058C0005603CF57DF4F88839983AA83BB83C15880
:1058D000D04084E690E090939606809395061092CF
:1058E0009806109297061092410464E070E0CE0191
:1058F0008F579F4F0E940CDE8091950690919606DF
:1059000002969093960680939506109298061092B0
:10591000970681E0CA57DF4F8883C658D040CE0132
:105920008A579F4F0E94851F68E470E081E39DE0E5
:105930000E940CDE80E1ECE6F2E08E010F5F1F4F6B
:10594000D80101900D928A95E1F760E170E0C801FD
:105950000E940CDE8AEA96E00E947D1F8CE096E0B1
:105960000E94891F7E018DE6E80EF11C8FEFF70182
:105970008083C7010E94851F19821A821B821C82A4
:10598000C8010E947D1F19821A821B821C82C801D5
:105990000E947D1FC358DF4F188219821A821B8212
:1059A000CD57D04083E0F70180838983CE018358AF
:1059B0009F4F0E947D1FC7010E94851FC8010E9442
:1059C000851F3AE0D32EDA94DD2031F0CE018358E2
:1059D0009F4F0E947D1FF7CF8CE0F80111928A95AE
:1059E000E9F7C8010E94891F64E270E082E191E159
:1059F0000E940CDE88E0F701982F11929A95E9F742
:105A0000F80111928A95E9F783E0CB57DF4F88833D
:105A1000C558D040EA968FAFEA97CE018B579F4F7B
:105A20000E94851FCE0187589F4F0E94851F68E006
:105A300070E0C8010E940CDE68E070E0C7010E94BF
:105A40000CDEC358DF4F188219821A821B82CD5791
:105A5000D0402AE0A22EB12CF1E0AF1AB10831F00B
:105A6000CE0183589F4F0E947D1FF6CF1982BB2421
:105A7000BA94F701B082C8010E94811FC7010E9439
:105A8000851F80E1D82EF8018D2D11928A95E9F7B6
:105A900060E170E0C8010E940CDE1982C8010E941A
:105AA000811F68E070E087E696E00E940CDE198AAC
:105AB0001A8A1B8A1C8A80E090E0A0E8BFE38D87E9
:105AC0009E87AF87B88B8091F6039091F703A091E2
:105AD000F803B091F90389839A83AB83BC832CEAE2
