:100000000C943B150C946C150C946C150C946C159D
:100010000C946C150C946C150C946C150C946C155C
:100020000C946C150C946C150C946C150C946C154C
:100030000C946C150C946C150C946C150C946C153C
:100040000C946C150C942F600C946C150C946C151E
:100050000C946C150C946C150C94D3980C94A8D338
:100060000C946C150C94FCCA0C946C150C946C15C7
:100070000C946C150C946C150C946C150C946C15FC
:100080000C946C150C946C150C946C150C946C15EC
:100090000C946C150C946C150C946C150C946C15DC
:1000A0000C946C150C946C150C946C150C946C15CC
:1000B0000C946C150C946C150C946C150C946C15BC
:1000C0000C946C150C946C150C946C150C946C15AC
:1000D0000C946C150C946C150C946C150C946C159C
:1000E0000C946C15424728472B472E4731473D4714
:1000F00034474E4737473A4725D228D217D21BD22A
:1001000021D25FD22CD230D236D23AD23ED244D291
:1001100048D24CD25FD252D256D25AD2C4D2C9D2CD
:10012000CED2D8D2E2D25BD3ECD2F4D2FCD206D378
:1001300010D31AD329D333D35BD33DD347D351D371
:10014000084AD73B3BCE016E84BCBFFDC12F3D6C3E
:1001500074319ABD56833DDA3D00C77F11BED9E4A4
:10016000BB4C3E916BAAAABE000000803F05A84C84
:10017000CDB2D44EB93836A9020C50B99186880850
:100180003CA6AAAA2ABE000000803F004E414E496C
:100190004E495459494E46CDCCCC3D0AD7233C1745
:1001A000B7D13877CC2B329595E6241FB14F0A0092
:1001B0000020410000C84200401C4620BCBE4CCA82
:1001C0001B0E5AAEC59D74434F4D4D554E4943418C
:1001D00054494F4E0044525952554E004552524FC9
:1001E000525300494E464F004543484F0047322F77
:1001F00047332062616420706172616D657465725D
:10020000730A00536C6565702E2E2E00206F6620D9
:10021000004D424C2047323920706F696E742000C7
:1002200059206F7574206F662072616E6765202893
:10023000312D33292E0A0058206F7574206F6620E7
:1002400072616E67652028312D33292E0A004D65B5
:1002500073682070726F62696E6720646F6E652EBE
:100260000A005374617274206D6573682070726F38
:1002700062696E672077697468202247323920539B
:1002800031222066697273742E0A004732380A4799
:1002900032392053320053746174653A20004D6541
:1002A000736820626564206C6576656C696E672092
:1002B000686173206E6F20646174612E0A005320A0
:1002C0006F7574206F662072616E67652028302D0F
:1002D00035292E0A004D65736820706F696E742091
:1002E00063616E6E6F74206265207265736F6C76E9
:1002F00065640A00436C69636B20746F20726573D8
:10030000756D652E2E2E004E6F206D6F76652E005A
:10031000456E642066696C65206C6973740A0042DE
:100320006567696E2066696C65206C6973740A0084
:10033000286E6F2066696C652900534420707269CD
:100340006E74696E67206279746520004E6F742048
:100350005344207072696E74696E670A0043757247
:1003600072656E742066696C653A200046696C653A
:100370002064656C657465643A0044656C657469F5
:100380006F6E206661696C65642C2046696C653A05
:1003900020005072696E742074696D653A2000E81F
:1003A00001E301DC01D501C7016F666600444542E7
:1003B00055473A004B494C4C45442E20004D3131B5
:1003C000332053006F6B005246313030204F666649
:1003D0002E002C20002C20004649524D57415245FA
:1003E0005F4E414D453A4D61726C696E20312E3140
:1003F0002E3920284769746875622920534F555259
:1004000043455F434F44455F55524C3A687474709E
:10041000733A2F2F6769746875622E636F6D2F4D65
:1004200061726C696E4669726D776172652F4D619C
:10043000726C696E2050524F544F434F4C5F56457B
:100440005253494F4E3A312E30204D414348494E88
:10045000455F545950453A52463130302045585442
:1004600052554445525F434F554E543A31205555ED
:1004700049443A63656465326132662D34316132D4
:100480002D343734382D396231322D6335356336AA
:10049000326633363766660A002F2F20004D31341E
:1004A0003520533C696E6465783E206F7574206F0B
:1004B000662072616E67652028302D31290A002080
:1004C0005400205200416363656C65726174696F0A
:1004D0006E3A2050005741524E494E4721204C6FF2
:1004E00077205A204A65726B206D6179206C6561B6
:1004F0006420746F20756E77616E7465642070611E
:10050000757365732E0A004F666673657473206198
:1005100070706C696564004572723A20546F6F2088
:100520006661722100546F6F206661722066726F7F
:100530006D207265666572656E636520706F696EA9
:10054000740A0020466C6F773A2000000136372687
:1005500003FFFFFF353C3D38FF0FFFFF312E303EDC
:1005600012FFFFFFFF28FF0C08FFFFFFFF1A1C18F8
:10057000FFFF2A08440A094320643A0020693A0030
:1005800020703A00496E76616C69642065787472F7
:10059000756465720A0043290A0061626C65642013
:1005A000286D696E2074656D702000436F6C642047
:1005B00065787472756465732061726520004E6F92
:1005C0002063617365206C696768740A0045455053
:1005D000524F4D204F4B0A003F4B2076616C7565A2
:1005E000206F7574206F662072616E6765202830F9
:1005F0002D3130292E0A00416476616E6365204BEF
:100600003D00416374697665204578747275646550
:10061000723A2000496E76616C6964206578747264
:10062000756465720A004572726F72207772697420
:10063000696E6720746F20454550524F4D210A0066
:10064000454550524F4D206461746173697A65204D
:100650006572726F722E0A00290A00206279746531
:10066000733B20637263200053657474696E677313
:100670002053746F726564202800290A0020627973
:100680007465733B2063726320002073746F72651E
:10069000642073657474696E67732072657472691F
:1006A00065766564202800202863616C63756C6141
:1006B00074656429210A0020213D200045455052DF
:1006C0004F4D20435243206D69736D617463682000
:1006D0002D202873746F7265642920002053697A75
:1006E000653A2000496E6465783A2000204D6172B9
:1006F0006C696E3D563535290A0028454550524FE4
:100700004D3D00454550524F4D2076657273696FDF
:100710006E206D69736D61746368200053746F722D
:10072000652073657474696E6773004C6F61642033
:1007300073657474696E6773004C6576656C2063CD
:100740006F726E65727300426564205A0042656480
:10075000205A0046616465204865696768740046F0
:100760006164652048656967687400466164652056
:10077000486569676874004F6666004F6E200042E6
:100780006564204C6576656C696E67004C657665BE
:100790006C206265640050726570617265004D3452
:1007A0003238005072656865617420504C410043D6
:1007B0006F6F6C646F776E0050726568656174204E
:1007C000414253004368616E67652066696C616DE4
:1007D000656E74004368616E67652066696C616D63
:1007E000656E74004D3630302042300044697361CC
:1007F000626C65207374657070657273004D383477
:100800000053657420686F6D65206F66667365744C
:100810007300426564204C6576656C696E670055AF
:100820006E6C6F61642046696C616D656E74004723
:10083000204633303020452D31303030004665655C
:1008400064203230636D004720463330302045311C
:10085000303030004C6F61642046696C616D656EAC
:100860007400473231204720463230302045313045
:10087000004175746F20686F6D6500473238004D18
:100880006F76652061786973004D61696E004D6F08
:1008900076652058004D6F76652059004D6F76655E
:1008A000205A004578747275646572004D6F7665E4
:1008B00020302E316D6D004D6F766520316D6D00ED
:1008C0004D6F76652031306D6D004D6F766520611E
:1008D000786973004578747275646572004D6F763F
:1008E00065205A004D6F76652059004D6F76652062
:1008F0005800556E6B6E6F776E20636F6D6D616E15
:10090000643A202200486F74656E6420746F6F2013
:10091000636F6C640A00486F6D652025732573252D
:1009200073206669727374002066697273740A00BA
:100930005A0059005800486F6D6520004D32340050
:100940004D32332025730053442063617264206F5D
:100950006B0A006F70656E526F6F74206661696C10
:1009600065640A00766F6C756D652E696E6974201A
:100970006661696C65640A00534420696E6974207D
:100980006661696C0A0057726974696E6720746FDA
:100990002066696C653A20006F70656E206661693B
:1009A0006C65642C2046696C653A20006F70656E3A
:1009B000206661696C65642C2046696C653A20008C
:1009C00046696C652073656C65637465640A002014
:1009D00053697A653A200046696C65206F70656ED0
:1009E00065643A20002066696C653A2000646F698E
:1009F0006E67006672657368004E6F772000454E23
:100A00004420535542524F5554494E450A00222026
:100A1000706F73002220706172656E743A22005309
:100A20005542524F5554494E452043414C4C207439
:100A300061726765743A22004B494C4C45442E2044
:100A400000747279696E6720746F2063616C6C202A
:100A50007375622D67636F64652066696C657320CA
:100A60007769746820746F6F206D616E79206C6592
:100A700076656C732E204D4158206C6576656C2030
:100A800069733A004572726F723A0043616E6E6F1D
:100A90007420656E746572207375626469723A20A1
:100AA00000052E2E004D61696E004D373032205406
:100AB0002564004D36303020423020542564004DEE
:100AC000373032203B2564004D37303120542564C7
:100AD000004368616E67652066696C616D656E7460
:100AE0000050726568656174204142530050726520
:100AF0006865617420504C41004368616E676520F1
:100B000066696C616D656E74005052494E54205098
:100B1000415553454400554E4C4F41442046494CA5
:100B2000414D454E54004C4F41442046494C414DA7
:100B3000454E54005075726765206D6F72650043B5
:100B40006F6E74696E756500524553554D45204F63
:100B50005054494F4E533A0020204E6F7A7A6C65BC
:100B60003A20006368616E6765006F66207468658F
:100B70002066696C616D656E7400576169742066EA
:100B80006F722073746172740020204E6F7A7A6CD9
:100B9000653A200066696C616D656E7420756E6CD7
:100BA0006F6164005761697420666F720020204E87
:100BB0006F7A7A6C653A2000506C656173652077B6
:100BC0006169742E2E2E0048656174696E67206E0F
:100BD0006F7A7A6C650020204E6F7A7A6C653A20C5
:100BE0000068656174206E6F7A7A6C652E005072B1
:100BF00065737320627574746F6E20746F002020AB
:100C00004E6F7A7A6C653A2000746F20636F6E7451
:100C1000696E75652E2E2E00616E6420707265738C
:100C20007320627574746F6E00496E736572742000
:100C300066696C616D656E740020204E6F7A7A6C07
:100C4000653A200066696C616D656E74206C6F6139
:100C500064005761697420666F720020204E6F7ABD
:100C60007A6C653A200066696C616D656E742070FF
:100C700075726765005761697420666F7200746FE2
:100C800020726573756D65005761697420666F72B7
:100C9000207072696E740020746F6F206C6F6E67C5
:100CA00020657874727573696F6E207072657665F1
:100CB0006E7465640A0020636F6C642065787472DA
:100CC0007573696F6E2070726576656E7465640AFF
:100CD0000024F4D43050C38E20C2A24017828B70FF
:100CE00011127A910D816CD90AA861E108C7586682
:100CF00007615143061E4B5D05C145A7041A41110A
:100D000004093D9803713931034036DB02653391A4
:100D100002D4305402802E1D02632CEE01752AC5C8
:100D200001B028A001102781018F2564012B244BDD
:100D300001E0223401AC211F018D200D01801FFC38
:100D400000841EED00971DDF00B81CD200E61BC614
:100D500000201BBC00641AB200B219A8000A19A036
:100D6000006A189900D117910040178B00B51684BE
:100D70000031167E00B31579003A157300C7146F61
:100D80000058146A00EE1366008813630025135E92
:100D900000C7125B006C12570015125400C11151AC
:100DA0000070114F0021114B00D61049008D1047E3
:100DB000004610440002104200C00F4000800F3E69
:100DC00000420F3C00060F3B00CB0E3800930E375D
:100DD000005C0E3500270E3400F30D3200C10D31DA
:100DE00000900D3000600D2E00320D2D00050D2CF1
:100DF00000D90C2B00AE0C2900850C29005C0C27B7
:100E000000350C27000E0C2600E80B2400C40B2430
:100E100000A00B23007D0B23005A0B2100390B216E
:100E200000180B2000F80A1F00D90A1E00BB0A1E7A
:100E3000009D0A1D00800A1D00630A1C00470A1B52
:100E4000002C0A1B00110A1A00F7091A00DD091903
:100E500000C4091900AB091900920917007B091891
:100E600000630917004C0916003609160020091600
:100E7000000A091500F5081500E0081400CC081454
:100E800000B8081400A4081400900813007D08128C
:100E9000006B0813005808120046081200340811AD
:100EA00000230811001208110001081100F00710BA
:100EB00000E0071000D0071000C0071000B0070FB7
:100EC00000A107100091070E0083070F0074070FA1
:100ED0000065070E0057070E0049070E003B070D7F
:100EE000002E070E0020070D0013070D0006070D4A
:100EF00000F9060C00ED060D00E0060C00D4060C0F
:100F000000C8060C00BC060C00B0060C00A4060BC2
:100F10000099060C008D060B0082060B0077060B6D
:100F2000006C060B0061060A0057060B004C060A0F
:100F30000042060A0038060A002E060A0024060AA5
:100F4000001A060A001006090007060A00FD050936
:100F500000F4050900EB050900E2050900D90509BF
:100F600000D0050900C7050900BE050900B5050840
:100F700000AD050800A50509009C050800940508BA
:100F8000008C050800840508007C0508007405082D
:100F9000006C050700650508005D0507005605089B
:100FA000004E050700470507004005080038050703
:100FB00000310507002A050700230507001C050668
:100FC00000160507000F05070008050600020507C3
:100FD00000FB040600F5040700EE040600E8040622
:100FE00000E2040700DB040600D5040600CF040677
:100FF00000C9040600C3040600BD040600B70406C9
:1010000000B1040500AC040600A6040600A0040517
:10101000009B04060095040500900406008A040560
:101020000085040500800406007A040500750405A7
:1010300000700405006B04050066040500610405EA
:10104000005C04050057040500520405004D04052A
:101050000048040500430405003E0404003A04056A
:101060000035040500300404002C040500270404A6
:1010700000230405001E0404001A040400160405DD
:1010800000110404000D0404000904050004040414
:101090000000040400FC030400F8030400F403044B
:1010A00000F0030400EC030400E8030400E403047C
:1010B00000E0030400DC030400D8030400D40304AC
:1010C00000D0030400CC030400C8030300C50303DD
:1010D0000024F404D9201BC40C5C0E9804C4095FDE
:1010E0000265077101F405F900FB04B300480487A9
:1010F00000C10369005803550003034500BE023ACE
:10110000008402310053022A002902250004022033
:1011100000E4011C00C8011900AF01170098011478
:101120000084011300710110006101100051010ED3
:101130000043010D0036010B002B010B0020010BB9
:1011400000150109000C01090003010800FB00085B
:1011500000F3000800EB000700E4000600DE0006D4
:1011600000D8000600D2000600CC000500C700052C
:1011700000C2000500BD000400B9000400B5000471
:1011800000B1000400AD000400A9000400A50003A4
:1011900000A20003009F0004009B000300980003CE
:1011A000009500020093000300900003008D0002F0
:1011B000008B000300880002008600020084000308
:1011C00000810002007F0002007D0002007B00021F
:1011D000007900020077000100760002007400022E
:1011E0000072000100710002006F0002006D00013A
:1011F000006C0002006A0001006900020067000143
:101200000066000100650001006400020062000148
:101210000061000100600001005F0002005D00014C
:10122000005C0001005B0001005A00010059000150
:101230000058000100570001005600010055000150
:10124000005400010053000000530001005200014F
:101250000051000100500001004F0001004E00004D
:10126000004E0001004D0001004C0001004B000049
:10127000004B0001004A0001004900010048000045
:101280000048000100470001004600000046000140
:10129000004500000045000100440001004300003B
:1012A0000043000100420000004200010041000034
:1012B0000041000100400001003F0000003F00012C
:1012C000003E0000003E0001003D0000003D000126
:1012D000003C0000003C0000003C0001003B00001E
:1012E000003B0001003A0000003A00010039000014
:1012F000003900010038000000380000003800010B
:101300000037000000370001003600000036000002
:1013100000360001003500000035000000350001F6
:1013200000340000003400000034000100330000ED
:1013300000330000003300010032000000320000E2
:1013400000320001003100000031000000310001D6
:10135000003000000030000000300001002F0000CD
:10136000002F0000002F0000002F0001002E0000C1
:10137000002E0000002E0001002D0000002D0000B6
:10138000002D0000002D0001002C0000002C0000AA
:10139000002C0000002C0001002B0000002B00009E
:1013A000002B0000002B0001002A0000002A000092
:1013B000002A0000002A0001002900000029000086
:1013C0000029000000290000002900010028000079
:1013D000002800000028000000280000002800016C
:1013E0000027000000270000002700000027000061
:1013F0000027000100260000002600000026000053
:101400000026000000260001002500000025000045
:101410000025000000250000002500000025000137
:10142000002400000024000000240000002400002C
:10143000002400010023000000230000002300001E
:10144000002300000023000000230000002300010F
:101450000022000000220000002200000022000004
:1014600000220000002200010021000000210000F5
:1014700000210000002100000021000000210000E8
:1014800000210001002000000020000000200000DA
:1014900000200000002000000020000000200000CC
:1014A00000200001001F0000001F0000001F0000BE
:1014B000001F0000001F0000001F0000001F0001AF
:1014C000001E0000001E0000001E0000001E0000A4
:1014D00000C23100001C260000F4190000D80F00E3
:1014E00000EB080000C0040000750200004001008D
:1014F00000206E6F7420656E74657265642E0A003C
:1015000050726F7465637465642050696E0A00469A
:10151000696C616D656E7420757365643A20005363
:10152000746174733A20002C204C6F6E676573747D
:10153000206A6F623A2000546F74616C2074696D88
:10154000653A200053746174733A20002C20466180
:10155000696C65643A20002C2046696E6973686581
:10156000643A20005072696E74733A2000537461BB
:1015700074733A200020573A004520436F6F6C691E
:101580006E672E2E2E00452048656174696E672EA9
:101590002E2E00205A3A0020593A0020436F756ED3
:1015A0007420583A0020453A00205A3A0020593A0F
:1015B00000583A00205A00205900580020204D6160
:1015C000783A2000205A00205900580020204D6908
:1015D0006E3A20004F6E20004F666600536F6674AF
:1015E00020656E6473746F70733A200023646566BF
:1015F000696E652044454641554C545F4B6420005C
:1016000023646566696E652044454641554C545FC8
:101610004B69200023646566696E65204445464138
:10162000554C545F4B702000504944204175746FF5
:1016300074756E652066696E6973686564212050F3
:10164000757420746865206C617374204B702C2055
:101650004B6920616E64204B6420636F6E7374610C
:101660006E74732066726F6D2062656C6F7720698F
:101670006E746F20436F6E66696775726174696F0F
:101680006E2E680A00504944204175746F74756E5F
:1016900065206661696C6564212074696D656F758C
:1016A000740A00453120544845524D414C20525552
:1016B0004E4157415900546865726D616C205275F6
:1016C0006E617761790045312048656174696E67A4
:1016D000206661696C65640048656174696E6720A5
:1016E0006661696C656400504944204175746F748B
:1016F000756E65206661696C6564212054656D7046
:101700006572617475726520746F6F2068696768AF
:101710000A00204B643A2000204B693A2000204BFD
:10172000703A20000A20436C61737369632050494A
:1017300044200A002054753A2000204B753A2000BE
:10174000206D61783A2000206D696E3A2000206497
:101750003A200020626961733A20005049442041D8
:1017600075746F74756E65206661696C656421209F
:10177000426164206578747275646572206E756D5F
:101780006265720A00504944204175746F74756E29
:10179000652073746172740A007C3C3E5E2B3D3F91
:1017A0002F5B5D3B2C2A225C002569730025696D47
:1017B00020256973002569682025696D20256973D6
:1017C00000256964202569682025696D20256973D5
:1017D0000025697920256964202569682025696DBF
:1017E00020256973004B494C4C45442E200053542E
:1017F0004F505045442E20005072696E746572201F
:1018000073746F707065642064756520746F2065F3
:1018100072726F72732E2046697820746865206535
:1018200072726F7220616E6420757365204D393954
:101830003920746F20726573746172742E2028547D
:10184000656D70657261747572652069732072656B
:101850007365742E20536574206974206166746505
:10186000722072657374617274696E67290A004E22
:101870006F20436865636B73756D207769746820AA
:101880006C696E65206E756D6265722C204C61739B
:1018900074204C696E653A20004E6F204368656382
:1018A0006B73756D2077697468206C696E65206E46
:1018B000756D6265722C204C617374204C696E6585
:1018C0003A2000636865636B73756D206D69736D95
:1018D000617463682C204C617374204C696E653AA6
:1018E00020004C696E65204E756D626572206973CB
:1018F000206E6F74204C617374204C696E65204EAD
:10190000756D6265722B312C204C617374204C69AB
:101910006E653A20004D313130004D333100534473
:101920002072656164206572726F720A00446F6E86
:1019300065207072696E74696E672066696C650AED
:101940000020496E76616C696420657874727564F4
:101950006572200000000000000000000000000090
:101960000000DC420000DC420000DC42486F6D6990
:101970006E67206661696C65640043617264207201
:10198000656D6F766564004361726420696E73658E
:10199000727465640070012C0190012701B001226E
:1019A00001C0011D01F00118011002130130020EE7
:1019B000016002090190020401C002FF000003FA65
:1019C000004003F5008003F000D003EB002004E6A4
:1019D000007004E100E004DC004005D700C005D23F
:1019E000004006CD00D006C8008007C3003008BE06
:1019F00000F008B900C009B400B00AAF00B00BAAEB
:101A000000D00CA500000EA000500F9B00C0109647
:101A1000005012910000148C00C0158700B017828E
:101A200000B0197D00D01B7800001E730040206EAE
:101A30000090226900F024640040275F0090295A3A
:101A400000E02B5500102E500020304B0010324685
:101A500000E033410090353C0010373700703832D9
:101A600000A0392D00B03A2800A03B2300603C1EA6
:101A700000103D1900903D1400103E0F00703E0A0A
:101A800000C03E0500003F0000403FFBFF803FF6E6
:101A9000FFC03FF1FF4531204572723A204D415859
:101AA00054454D50004D415854454D502074726975
:101AB000676765726564004531204572723A204D52
:101AC000494E54454D50004D494E54454D5020749B
:101AD0007269676765726564004D38342058205913
:101AE000205A204500202F0020403A0025753A2535
:101AF00030327500253032753A25303275002D2D83
:101B00002D005344002020202020200020202020D1
:101B10000000002200250028002B002E0031003498
:101B20000002010000050108010B01000020002354
:101B300000260029002C002F0032000001000003C5
:101B40000106010901050505050705080808080241
:101B50000202020A0A080804040404010101010146
:101B60000101010303030303030303040707070C35
:101B70000C0C0C0C0C0C0C020202020606060606EB
:101B80000606060B0B0B0B0B0B0B0B010210202098
:101B900008081020401020408002010201080402C1
:101BA0000101020408102040808040201008040237
:101BB0000180040201804020100804020108040290
:101BC0000101020408102040800102040810204096
:101BD0008000000A0B02090C0D0E08070304010027
:101BE00000000000000000000000000000000000F5
:101BF00000000000000000000000000000121110B2
:101C000000000000000000000000000000000000D4
:101C100000000000000000000000000102040400B9
:101C200000001C1C0C04040402010000000000045D
:101C3000081000000000002D2D2D2D2D2D007C4DB5
:101C400061726C696E7C002D2D2D2D2D2D00687418
:101C500074703A2F2F6D61726C696E66772E6F7299
:101C60006700687474703A2F2F6D61726C696E66CC
:101C7000772E6F72670020312E312E3900202050D0
:101C80006C616E6E657242756666657242797465E6
:101C9000733A20002046726565204D656D6F72793C
:101CA0003A2000436F6D70696C65643A2041756736
:101CB00020313420323031390A00207C20417574C3
:101CC000686F723A20286E6F6E652C2064656661BD
:101CD000756C7420636F6E666967290A0032303153
:101CE000382D30382D303100204C61737420557000
:101CF00064617465643A2000312E312E390A004D3A
:101D000061726C696E0020536F6674776172652032
:101D100052657365740A00205761746368646F6765
:101D20002052657365740A002042726F776E206FCF
:101D300075742052657365740A0020457874657265
:101D40006E616C2052657365740A00506F7765721E
:101D500055700A0073746172740A006175746F259E
:101D6000692E67006572726F722077726974696E8E
:101D70006720746F2066696C650A00456E64737431
:101D80006F70732025632025632025632025630061
:101D9000205A3A0020593A0020583A00656E647380
:101DA000746F7073206869743A2000446F6E652008
:101DB000736176696E672066696C652E0A004D3224
:101DC00039004578747275646572004D6F766520D0
:101DD0005A004D6F76652059004D6F76652058008A
:101DE0005072657061726500496E697469616C69F1
:101DF0007A6520454550524F4D00436F6E74726FA7
:101E00006C00526573746F7265206661696C7361F2
:101E10006665004C6F61642073657474696E6773E6
:101E200000496E697469616C697A65204545505254
:101E30004F4D0053746F72652073657474696E67DB
:101E4000730046696C616D656E74004D6F74696FE7
:101E50006E0054656D7065726174757265004D61D8
:101E6000696E005072656865617420414253206359
:101E70006F6E66005072656865617420504C412039
:101E8000636F6E66005049442D44005049442D4410
:101E9000005049442D49005049442D4900504944BF
:101EA0002D50005049442D5000200220466163749B
:101EB0000020022046616374002002204D617800FA
:101EC0002002204D6178002002204D617800200220
:101ED000204D696E002002204D696E002002204DC9
:101EE000696E004F6666004F6E20004175746F7416
:101EF000656D70004E6F7A7A6C65004E6F7A7A6C01
:101F00006500436F6E74726F6C0053746F7265205E
:101F100073657474696E6773004E6F7A7A6C6500CE
:101F20004E6F7A7A6C650046616E207370656564E9
:101F30000046616E2073706565640054656D706560
:101F4000726174757265005246313030205265619D
:101F500064792E005072696E74696E672E2E2E00A1
:101F60005072696E74207061757365640050726997
:101F70006E742061626F72746564005072696E7471
:101F80002066726F6D2053440053746F702070721E
:101F9000696E7400526573756D65207072696E7438
:101FA000004E6F205344206361726400506175736A
:101FB00065207072696E7400436F6E74726F6C008E
:101FC000507265706172650054756E6500496E6689
:101FD0006F2073637265656E004368616E6765208C
:101FE00066696C616D656E74004368616E6765203B
:101FF00066696C616D656E74004D3630302042301C
:1020000000466C6F7700466C6F77004E6F7A7A6C83
:1020100065004E6F7A7A6C6500466164652048659C
:10202000696768740046616465204865696768741B
:1020300000466164652048656967687400426564AC
:10204000205A00426564205A00537065656400534D
:1020500070656564004D61696E004261636B004E9E
:1020600065787420636F726E6572004C6576656C7E
:10207000696E6720446F6E6521004D6F7665205A4A
:1020800000473239205332004E65787420506F6912
:102090006E74002569202F202575004732392053A2
:1020A000310047323920533200436C69636B20742E
:1020B0006F20426567696E00486F6D696E672058D2
:1020C000595A00473238004F66660A004661646517
:1020D000204865696768742000426564204C657615
:1020E000656C696E6720004661696C656420746F79
:1020F00020656E61626C6520426564204C65766582
:102100006C696E670A004D65736820426564204CF7
:102110006576656C20646174613A0A004D65736888
:1021200020706F696E742063616E6E6F74206265DB
:10213000207265736F6C7665640A004D343231200D
:10214000696E636F727265637420706172616D6530
:102150007465722075736167650A004D3630303AD8
:1021600020546F6F20636F6C6400486F74656E64F9
:1021700020746F6F20636F6C640A00496E73657220
:10218000742066696C616D656E7420616E64207088
:102190007265737320627574746F6E0A0050726595
:1021A000737320627574746F6E20746F206865613C
:1021B00074206E6F7A7A6C650A00496E736572746A
:1021C0002066696C616D656E7420616E642070724A
:1021D00065737320627574746F6E20286F72204D62
:1021E000313038290A00496E736572742066696C53
:1021F000616D656E7420616E64207072657373200A
:10220000627574746F6E20286F72204D31303829DA
:102210000A00526573656E643A20006F6B0020748B
:102220006F6F206C6F6E6720657874727573696F5D
:102230006E2070726576656E7465640A0020636F47
:102240006C6420657874727573696F6E2070726546
:1022500076656E7465640A00627573793A20706100
:102260007573656420666F7220696E7075740A00FC
:10227000627573793A2070617573656420666F7258
:1022800020757365720A00627573793A2070726FF7
:1022900063657373696E670A004B494C4C45442E65
:1022A00020004B494C4C2063617573656420627952
:1022B000204B494C4C20627574746F6E2F70696EA0
:1022C0000A004B494C4C45442E20004B494C4C20B5
:1022D00063617573656420627920746F6F206D751A
:1022E000636820696E6163746976652074696D65E1
:1022F000202D2063757272656E7420636F6D6D6141
:102300006E643A2000506C65617365207265736578
:1023100074005052494E5445522048414C54454453
:10232000005072696E7465722068616C7465642E09
:10233000206B696C6C28292063616C6C6564210AD0
:1023400000656E7175657565696E67202200000015
:1023500000000000DC4200000000000048420000D5
:10236000484200008040000000005761726E696EB4
:10237000673A20486F6D696E672042756D70204422
:10238000697669736F72203C20310A0002020400F2
:1023900000A0400000A040000000400000DC42001F
:1023A00000DC420000DC42FF01FF48617264636FA1
:1023B0006465642044656661756C7420536574744B
:1023C000696E6773204C6F616465640A00F40100F4
:1023D00000F40100006400000010270000000096D7
:1023E00043000096430000A0400000C841AAA29DFF
:1023F00042AAA29D42000048430000D44220286D1A
:102400006D290020204D36303320002055004C002F
:1024100046696C616D656E74206C6F61642F756EBA
:102420006C6F6164206C656E677468733A0A002093
:10243000204D393030204B004C696E65617220416F
:102440006476616E63653A0A0020440020490020EA
:10245000204D33303120500050494420736574744E
:10246000696E67733A0A0020460020420020480047
:1024700020204D3134352053004D617465726961FF
:102480006C2068656174757020706172616D65742F
:102490006572733A0A00205A002059002020473202
:1024A00039205333205800205A0020204D34323038
:1024B0002053004D65736820426564204C65766545
:1024C0006C696E673A0A00205A0020590020204D9E
:1024D000323036205800486F6D65206F6666736530
:1024E000743A0A00204500205A0020590020580064
:1024F00020540020530020204D3230352051002040
:10250000453C6D61785F655F6A65726B3E0020587F
:102510003C6D61785F785F6A65726B3E20593C6DF7
:1025200061785F795F6A65726B3E205A3C6D6178B5
:102530005F7A5F6A65726B3E00416476616E6365C7
:10254000643A20513C6D696E5F7365676D656E74AA
:102550005F74696D655F75733E20533C6D696E5F96
:1025600066656564726174653E20543C6D696E5F9A
:1025700074726176656C5F66656564726174653EF0
:102580000020540020520020204D323034205000D2
:10259000416363656C65726174696F6E2028756E46
:1025A0006974732F7332293A20503C7072696E74CB
:1025B0005F616363656C3E20523C72657472616357
:1025C000745F616363656C3E20543C747261766530
:1025D0006C5F616363656C3E0A00204500205A0011
:1025E00020590020204D3230312058004D6178694B
:1025F0006D756D20416363656C65726174696F6EA2
:102600002028756E6974732F7332293A0A002045A9
:1026100000205A0020590020204D3230332058002D
:102620004D6178696D756D2066656564726174656C
:10263000732028756E6974732F73293A0A00204538
:1026400000205A0020590020204D393220580053D4
:10265000746570732070657220756E69743A0A0033
:1026600020204D3230302044300A0020204D3230BE
:10267000302044002044697361626C65640A00463E
:10268000696C616D656E742073657474696E6773CF
:102690003A0020204D3134392043203B20556E69CB
:1026A000747320696E2043656C736975730A00202A
:1026B00020473231202020203B00545249474745D3
:1026C000524544006F70656E003A20007A5F6D6974
:1026D0006E00795F6D617800785F6D696E0052659C
:1026E000706F7274696E6720656E6473746F7020AA
:1026F0007374617475730A006F70656E206661692A
:102700006C65642C2046696C653A200043616E6EEE
:102710006F74206F70656E2073756264697220003B
:102720006563686F3A00001C1F11111F000000064E
:10273000191803130C00040E1F041C000000000EE7
:102740001315110E00001C10181705060500040AC9
:102750000A0A0A11110E0C12120C00000000001FD0
:102760001511151F00000A4D6561737572656420AF
:10277000706F696E74733A0A005A206F66667365EB
:10278000743A20004E756D20582C593A20332C3362
:102790000A0056652D6A65726B0056652D6A657272
:1027A0006B0056652D6A65726B00567A2D6A6572EC
:1027B0006B00567A2D6A65726B0056792D6A6572C8
:1027C0006B0056792D6A65726B0056792D6A6572B9
:1027D0006B0056782D6A65726B0056782D6A6572AB
:1027E0006B0056782D6A65726B004D6F74696F6E61
:1027F000004573746570732F6D6D0045737465705B
:10280000732F6D6D005A73746570732F6D6D005A60
:1028100073746570732F6D6D005973746570732FC9
:102820006D6D005973746570732F6D6D00587374FE
:102830006570732F6D6D005873746570732F6D6DB7
:10284000004D6F74696F6E0053746570732F6D6DFA
:10285000004A65726B00416363656C6572617469FF
:102860006F6E0056656C6F6369747900436F6E74A8
:10287000726F6C004C6F6164206D6D004C6F616411
:10288000206D6D004C6F6164206D6D00556E6C6F36
:102890006164206D6D00556E6C6F6164206D6D001C
:1028A000556E6C6F6164206D6D0046696C2E20441E
:1028B00069612E0046696C2E204469612E004F66C6
:1028C00066004F6E20004520696E206D6D3300411B
:1028D0006476616E6365204B00416476616E63656A
:1028E000204B00436F6E74726F6C00000021002457
:1028F0000027002A002D00300033000101000004F1
:102900000107010A015654726176206D696E005606
:1029100054726176206D696E005654726176206D36
:10292000696E00566D696E00566D696E00566D6970
:102930006E00566D6178204500566D617820450027
:10294000566D6178204500566D6178205A00566DAD
:102950006178205A00566D6178205A00566D617872
:10296000205900566D6178205900566D61782059C4
:1029700000566D6178205800566D617820580056D9
:102980006D61782058004D6F74696F6E00416D6104
:1029900078204500416D6178204500416D617820C7
:1029A0005A00416D6178205A00416D6178205900CC
:1029B000416D6178205900416D6178205800416D6A
:1029C0006178205800412D74726176656C00412D4C
:1029D00074726176656C00412D7265747261637406
:1029E00000412D7265747261637400416363656CAC
:1029F00000416363656C004D6F74696F6E0009FF81
:102A0000FFFFFFFF0001010101016265640A002C64
:102A10002073797374656D2073746F7070656421B1
:102A2000204865617465725F49443A200045312051
:102A3000544845524D414C2052554E415741590042
:102A4000546865726D616C2052756E6177617900B2
:102A500045312048656174696E67206661696C65FF
:102A6000640048656174696E67206661696C6564BD
:102A7000000015F0F4EF11241FBECFEFD1E2DEBF4E
:102A8000CDBF00E00CBF13E0A0E0B2E0EAE1FBEF55
:102A900001E00BBF02C007900D92AE33B107D9F72A
:102AA00023E1AEE3B3E001C01D92A538B207E1F720
:102AB00015E1CAE3D5E100E006C021970109802FA6
:102AC000FE010E94DFFCC933D10780E00807A9F7A7
:102AD0000E9410EB0C947CFD0C9400002F923F920E
:102AE0004F925F926F927F928F929F92AF92BF921E
:102AF000CF92DF92EF92FF920F931F93CF93DF93CA
:102B0000CDB7DEB7CB56D1090FB6F894DEBF0FBEF6
:102B1000CDBF21E02093630E80917E138D3411F49C
:102B20000C94191F843511F40C94F42B873411F094
:102B30000C94402C20907C1330907D133BE12316A5
:102B4000310409F42FC69CF454E02516310444F4F2
:102B500062E026163104DCF537FE32C00C94151FF6
:102B600074E02716310409F4DEC50C94151F8AE2BF
:102B70002816310411F40C940A1E64F4ACE12A16F0
:102B8000310409F43FC6BDE12B16310409F43FC6F8
:102B90000C94151FEBE52E16310411F40C94951EC0
:102BA000FCE52F16310411F40C94991E2AE5221627
:102BB000310411F00C94151F109243030C94422C15
:102BC0008091500281110C94472C0C94422C8091DE
:102BD0005002882311F40C94422C0E94E68682E570
:102BE0000E94DA86882309F44CC10E945E864B015C
:102BF0005C0120E030E0A9010E946CF5882309F413
:102C000070C14091880C5091890C60918A0C709130
:102C10008B0C48AF59AF6AAF7BAF60918C0C709151
:102C20008D0C80918E0C90918F0C6CAF7DAF8EAF20
:102C30009FAF8091780E9091790EA0917A0EB0910D
:102C40007B0E2C968CAF9DAFAEAFBFAF2C97209173
:102C50007C0E30917D0E40917E0E50917F0E289615
:102C60002CAF3DAF4EAF5FAF28979C01AD0168AD73
:102C700079AD8AAD9BAD0E946CF581110FC028968D
:102C80002CAD3DAD4EAD5FAD28976CAD7DAD8EAD3D
:102C90009FAD0E946CF5882309F423C111E032E056
:102CA0002316310409F010E020E030E0A901C5014D
:102CB000B4010E946CF5881F8827881F181759F0E7
:102CC00040E050E060E87FEB64964CAF5DAF6EAFE4
:102CD0007FAF64970AC060E070E080E89FE364968D
:102CE0006CAF7DAF8EAF9FAF649728AD39AD4AAD65
:102CF0005BAD2C966CAD7DAD8EAD9FAD2C970E94DB
:102D0000C6F960966CAF7DAF8EAF9FAF60972CAD6C
:102D10003DAD4EAD5FAD28966CAD7DAD8EAD9FAD3A
:102D200028970E94C6F96B017C0160962CAD3DADE1
:102D30004EAD5FAD6097CA01B9010E94D1F52B017C
:102D40003C01A7019601C701B6010E94D1F59B0184
:102D5000AC01C301B2010E94C7F90E9432FC249663
:102D60006CAF7DAF8EAF9FAF249720E030E040E0A6
:102D70005FE30E94D1F52B013C01A5019401C5013F
:102D8000B4010E94D1F54B015C01A3019201C30182
:102D9000B2010E94D1F59B01AC01C501B4010E94B2
:102DA000C6F90E9432FC64962CAD3DAD4EAD5FADD0
:102DB00064970E94D1F54B015C01C701B6019058A0
:102DC00024962CAD3DAD4EAD5FAD24970E94A3FA85
:102DD000A50194010E94D1F56B017C012C962CADCC
:102DE0003DAD4EAD5FAD2C9768AD79AD8AAD9BAD75
:102DF0000E94C7F920E030E040E05FE30E94D1F597
:102E00009B01AC01C701B6010E94C7F928AD39ADDD
:102E10004AAD5BAD0E94C6F96B017C0128962CADD2
:102E20003DAD4EAD5FAD28976CAD7DAD8EAD9FAD28
:102E30000E94C7F920E030E040E05FE30E94D1F556
:102E40002B013C0124962CAD3DAD4EAD5FAD2497DA
:102E500060966CAD7DAD8EAD9FAD60970E94A3FA7C
:102E6000A50194010E94D1F59B01AC01C301B201FF
:102E70000E94C7F92CAD3DAD4EAD5FAD0E94C6F9C5
:102E800014C089E40E94DA86882329F00E945E86B5
:102E90006B017C0103C0C12CD12C76018AE40E9415
:102EA000DA86882309F10E945E862C966CAF7DAF8E
:102EB0008EAF9FAF2C9720E030E0A901C701B6018B
:102EC0000E946CF581111FC020E030E0A9012C9612
:102ED0006CAD7DAD8EAD9FAD2C970E946CF58111D0
:102EE00012C0E4E8FAE00BC420E030E0A901C70119
:102EF000B6010E946CF58823A1F32C961CAE1DAE82
:102F00001EAE1FAE2C97D701C601B05888AF99AF3F
:102F1000AAAFBBAF2C962CAD3DAD4EAD5FAD2C979F
:102F200050582CAF3DAF4EAF5FAF9C01AD01BC011F
:102F3000CD010E94D1F54B015C012CAD3DAD4EADF4
:102F40005FADCA01B9010E94D1F59B01AC01C50179
:102F5000B4010E94C7F90E9432FCA0966CAF7DAF0D
:102F60008EAF9FAFA0974091880C5091890C6091D3
:102F70008A0C70918B0C28964CAF5DAF6EAF7FAF13
:102F80002897A701960128966CAD7DAD8EAD9FADBB
:102F900028970E94C7F964966CAF7DAF8EAF9FAF44
:102FA000649760918C0C70918D0C80918E0C909137
:102FB0008F0C60966CAF7DAF8EAF9FAF60972C96F5
:102FC0002CAD3DAD4EAD5FAD2C970E94C7F9A496D8
:102FD0006CAF7DAF8EAF9FAFA4978091780E90912C
:102FE000790EA0917A0EB0917B0E68968CAF9DAF52
:102FF000AEAFBFAF689764962CAD3DAD4EAD5FAD43
:103000006497BC01CD010E94C6F96B017C0120913F
:103010007C0E30917D0E40917E0E50917F0E6C960D
:103020002CAF3DAF4EAF5FAF6C97A4962CAD3DADCE
:103030004EAD5FADA4976C966CAD7DAD8EAD9FAD82
:103040006C970E94C6F94B015C014091900C509125
:10305000910C6091920C7091930CA8964CAF5DAF5F
:103060006EAF7FAFA8979A01AB016091800E70910F
:10307000810E8091820E9091830E0E94C6F9249653
:103080006CAF7DAF8EAF9FAF2497A701960168AD5F
:1030900079AD8AAD9BAD0E94D1F52B013C01A50114
:1030A00094016CAD7DAD8EAD9FAD0E94D1F59B01BD
:1030B000AC01C301B2010E94C7F92B013C01A5017B
:1030C000940168AD79AD8AAD9BAD0E94D1F54B01FD
:1030D0005C01A70196016CAD7DAD8EAD9FAD0E94E8
:1030E000D1F59B01AC01C501B4010E94C6F9A30151
:1030F00092010E943AFA6B017C0120E030E0A901C4
:103100000E946CF587FF0AC02BED3FE049EC50E4CC
:10311000C701B6010E94C7F96B017C0152E0251678
:10312000310451F42BED3FE049EC50E4C701B60106
:103130000E94C6F96B017C0120E030E0A901C701C3
:10314000B6010E946CF5811128C068962CAD3DAD8A
:103150004EAD5FAD689728966CAD7DAD8EAD9FADE1
:1031600028970E946CF5811118C06C962CAD3DAD6E
:103170004EAD5FAD6C9760966CAD7DAD8EAD9FAD85
:1031800060970E946CF5811108C00BEDC02E0FE016
:10319000D02E09ECE02E00E4F02EA7019601A096B7
:1031A0006CAD7DAD8EAD9FADA0970E94D1F54B016A
:1031B0005C0120E030E0A90124966CAD7DAD8EADC0
:1031C0009FAD24970E946CF58823E9F0A501940136
:1031D000C501B4010E94D1F54B015C0124962CADD0
:1031E0003DAD4EAD5FAD2497CA01B9010E94D1F546
:1031F0009B01AC01C501B4010E94C7F90E9432FCD9
:103200004B015C010DC020E030E0A901C501B40113
:103210000E94EDFB87FF04C0B7FAB094B7F8B094F2
:103220002FE632E143E85AE3C501B4010E946CF590
:1032300087FF02C00C94422CC501B4010E943CFBE4
:103240000E9410FB2E967FAF6EAF2E97672B31F446
:1032500061E070E02E967FAF6EAF2E974090940C99
:103260005090950C6090960C7090970C2E96AEAD89
:10327000BFAD2E97BD0180E090E00E9470F54B013C
:103280005C019B01AC01C701B6010E94A3FA28961C
:103290006CAF7DAF8EAF9FAF2897A50194012496A8
:1032A0006CAD7DAD8EAD9FAD24970E94A3FAA09624
:1032B0006CAF7DAF8EAF9FAFA097A30192016091DD
:1032C000840E7091850E8091860E9091870E0E94DB
:1032D000C6F9A50194010E94A3FAAC966CAF7DAF2C
:1032E0008EAF9FAFAC9728962CAD3DAD4EAD5FAD88
:1032F0002897CA01B9010E94D1F520E030E040E0F2
:103300005FE30E94D1F59B01AC0160E070E080E8D2
:103310009FE30E94C6F968966CAF7DAF8EAF9FAFFA
:103320006897A8962CAD3DAD4EAD5FADA8972987A7
:103330003A874B875C874D865E866F86788A609178
:10334000410270914202072E000C880B990B0E94DB
:1033500072F5209143023091440240914502509110
:1033600046020E94D1F52AE037ED43E25CE30E9479
:10337000D1F56CAB7DAB8EAB9FAB0E949CD39B0118
:10338000AC0128533F4F4F4F5F4F6C962CAF3DAF72
:103390004EAF5FAF6C9748AC59AC6AAC7BAC2224A3
:1033A0002394312C39E121963FAF21972E964EADD3
:1033B0005FAD2E974215530509F44EC10E94A4E358
:1033C0000E949CD3DC01CB016C962CAD3DAD4EAD83
:1033D0005FAD6C97821B930BA40BB50BB7FD11C0AF
:1033E0000E949CD39B01AC0128533F4F4F4F5F4F2E
:1033F0006C962CAF3DAF4EAF5FAF6C9780E00E94F4
:1034000009B121963FAD2197315021963FAF2197C9
:10341000332309F445C02CAD3DAD4EAD5FAD68968C
:103420006CAD7DAD8EAD9FAD68970E94D1F56B01FF
:103430007C019201A30128966CAD7DAD8EAD9FAD50
:1034400028970E94D1F5A70196010E94C7F97B0138
:103450008C019201A30168966CAD7DAD8EAD9FADE0
:1034600068970E94D1F54B015C012CAD3DAD4EAD8E
:103470005FAD28966CAD7DAD8EAD9FAD28970E9457
:10348000D1F59B01AC01C501B4010E94C6F92B0125
:103490003C01C701D8018CAF9DAFAEAFBFAF55C0E7
:1034A000B10180E090E00E9470F528962CAD3DAD12
:1034B0004EAD5FAD28970E94D1F54B015C010E9493
:1034C000A0FA6B017C01C501B4010E9428FC4B01EC
:1034D0005C01A701960168AD79AD8AAD9BAD0E94F4
:1034E000D1F52B013C012C962CAD3DAD4EAD5FAD21
:1034F0002C97C501B4010E94D1F5A30192010E944D
:10350000C7F92B013C01A501940168AD79AD8AADE5
:103510009BAD0E94D1F54B015C012C962CAD3DADCD
:103520004EAD5FAD2C97C701B6010E94D1F59B014E
:10353000AC01C501B4010E94C6F96CAF7DAF8EAF7E
:103540009FAF49E121964FAF21979201A301649665
:103550006CAD7DAD8EAD9FAD64970E94C7F9698358
:103560007A838B839C832CAD3DAD4EAD5FADA4962D
:103570006CAD7DAD8EAD9FADA4970E94C7F96D83F4
:103580007E838F839887A0962CAD3DAD4EAD5FAD09
:10359000A09769857A858B859C850E94C7F9698784
:1035A0007A878B879C87AC962CAD3DAD4EAD5FADD9
:1035B000AC976D857E858F8598890E94C7F96D8748
:1035C0007E878F87988B80910E02882321F0CE0111
:1035D00001960E9426CBE09087031CA61DA61EA67E
:1035E0001FA689819A81AB81BC8188A399A3AAA3D4
:1035F000BBA38D819E81AF81B8858CA39DA3AEA313
:10360000BFA389859A85AB85BC8588A799A7AAA7FA
:10361000BBA7AE01485D5F4FBE016C5D7F4FCE0121
:1036200080960E9456C8BE01645D7F4F6B018E017B
:103630000C5C1F4F9E01235F3F4FAE01485D5F4F03
:1036400068507109CE0180960E94864F882321F030
:103650007FEF271A370AAACEE090870318AA19AA83
:103660001AAA1BAA8091780E9091790EA0917A0ED9
:10367000B0917B0E88A399A3AAA3BBA380917C0ED3
:1036800090917D0EA0917E0EB0917F0E8CA39DA394
:10369000AEA3BFA38091800E9091810EA091820E67
:1036A000B091830E88A799A7AAA7BBA7AE01485DD2
:1036B0005F4FBE016C5D7F4FCE0180960E9456C861
:1036C000CE01C0966C018E010C5C1F4F24E83EE0D9
:1036D000AE01485D5F4FBE016C5D7F4F40970E9419
:1036E000864F80E1E8E7FEE0A8E8BCE001900D929B
:1036F0008A95E1F70C94422C0E9447C9F801849105
:103700008F010F5F1F4F8111F7CFEDEEF1E0849134
:103710008F010F5F1F4F882311F40C94422C0E94DD
:1037200047C9F801F4CF80E50E94DA86882329F0A2
:103730000E941E866B017C0103C0C12CD12C760136
:1037400083E50E94DA86882361F00E945E8620E08D
:1037500030E04AE754E40E94D1F50E9410FB6B016F
:103760007C010E94C65F8091C00E811105C060E09F
:1037700083E092E00E940A8E0E949CD3C60ED71E60
:10378000E81EF91E0E949CD3DC01CB018C199D0917
:10379000AE09BF09B7FD02C00C94422C80E00E9424
:1037A00009B1F0CF0E947D4681110C94422C80E03B
:1037B00090E0A0E2B1E489839A83AB83BC8380E08C
:1037C00090E0A8ECB2E48D839E83AF83B88780E05D
:1037D00090E0A0EAB1E489879A87AB87BC8780E54F
:1037E0000E94DA86882319F00E942E8601C060E0CC
:1037F00068A3BE016F5F7F4FCE0180960E9490C884
:103800000C94422C80E00E948D740C94422C83E531
:103810000E94DA86882399F00E943E86182F86300F
:1038200080F0EEEBF2E084918F010F5F1F4F882351
:1038300011F40C94422C0E9447C9F801F4CF10E017
:1038400010C0833009F452C130F4813081F18230EC
:1038500009F441C006C0843009F4AAC1853009F4D6
:10386000B7C10E943D7F811103C0EEE9F2E013C0B1
:1038700080914E03882319F06FE073E002C063E18A
:1038800073E086E992E00E9459698AE00E9447C984
:103890000E9444CAA3C184917F019FEFE91AF90AEB
:1038A000882309F49BC10E9447C9F701F4CF0E9405
:1038B00037C910920102109200028091440E8111CA
:1038C0000AC08BE892E09093B2038093B1030E9408
:1038D00007820C94422C809100029091010297FF84
:1038E0000EC0E2E6F2E084918F010F5F1F4F882344
:1038F00011F40C94422C0E9447C9F801F4CF0097B0
:10390000A1F480910E028093440319821A821B82D3
:103910001C8218A219A21AA21BA2BE016F5F7F4FC0
:10392000CE0180960E9495812BC0815063E00E9459
:103930008FFC80FF03C022E0291B922F292F990FB3
:10394000330BF901EE0FFF1FE20FF31FE80FF11D1C
:1039500087FDFA95EE0FFF1FEE0FFF1FE459FD4E96
:103960008091900C9091910CA091920CB091930C3D
:1039700080839183A283B3838091440380930E025A
:103980008091000290910102893091050CF067C08E
:1039900010920E029C012F5F3F4F30930102209343
:1039A000000263E00E948FFC80FF03C022E0291B1D
:1039B000922F4091900C5091910C6091920C7091CB
:1039C000930C48A359A36AA37BA319821A821B8272
:1039D0001C82A4E08A0290011124F901EA5DF04FF3
:1039E0004F012081318142815381F4E09F02C00167
:1039F0001124BC016E5C704F5B01DB016D917D9108
:103A00008D919C91FE0131966F01E12CF12C00EA21
:103A100010E40E94A68019821A821B821C82B601C1
:103A2000CE0180960E949581F50180819181A281CD
:103A3000B3818093880C9093890CA0938A0CB093E7
:103A40008B0CF40180819181A281B38180938C0CD5
:103A500090938D0CA0938E0CB0938F0C44C080E09B
:103A600090E0A0EAB0E48093900C9093910CA09326
:103A7000920CB093930C0E944F800E94C65F8FEF10
:103A80009FEF9093010280930002EEE4F2E08491B4
:103A90008F010F5F1F4F882321F00E9447C9F80153
:103AA000F6CF83E992E09A83898304E610E019A3B4
:103AB00008A3BE016F5F7F4FCE0180960E945B45D9
:103AC0008AEB92E09A83898319A308A3BE016F5FF2
:103AD0007F4FCE0180960E945B4581E00E948D74ED
:103AE00081E00E946A7F1092440E7AC088E50E94AD
:103AF000DA868823A1F00E942E861FEF160F13305E
:103B0000A8F0E7E3F2E084918F010F5F1F4F882355
:103B100011F40C94422C0E9447C9F801F4CF88E5B7
:103B20000E9447C90E946FE90C94422C89E50E94CB
:103B3000DA868823A1F00E942E860FEF060F03304D
:103B4000A8F0E0E2F2E084918F010F5F1F4F88231D
:103B500011F40C94422C0E9447C9F801F4CF89E576
:103B60000E9447C90E946FE90C94422C8AE50E948A
:103B7000DA868823B1F00E945E86212F30E0F901B9
:103B8000EE0FFF1FE20FF31FE00FF11DEE0FFF1FFF
:103B9000EE0FFF1FE459FD4E608371838283938390
:103BA00035C08AE50E9447C90E946FE90C94422CF7
:103BB0008AE50E94DA868823A1F30E945E866093DC
:103BC00046037093470380934803909349031EC0B4
:103BD00080E00E946A7F0E9437C918C01230B1F499
:103BE00060910002709101026930710514F069E082
:103BF00070E081E192E00E94406969E070E08CE051
:103C000092E00E9440698AE00E9447C90E94B36F17
:103C10000C94422C80915002882311F40C94422C75
:103C200089E40E94DA86E82E882321F00E942E86FD
:103C3000062F01C000E08AE40E94DA86F82E88236D
:103C400021F00E942E86162F01C010E0EE2011F008
:103C5000033020F4FF2081F0133070F0E5EDF2E046
:103C600084918F010F5F1F4F882311F40C94422C15
:103C70000E9447C9F801F4CF0E94AD88EE2091F070
:103C800024E00202F0011124EE5CF04F808191816A
:103C9000A281B3818093780E9093790EA0937A0ECF
:103CA000B0937B0EFF2091F034E01302F001112459
:103CB000EA5DF04F80819181A281B38180937C0E77
:103CC00090937D0EA0937E0EB0937F0E80E50E94B0
:103CD000DA86882319F00E944F8603C080E50E948F
:103CE000918686E40E94DA868823D9F00E945E8657
:103CF0006B017C0120E030E0A9010E94EDFB181669
:103D000084F420E030E040E752E4C701B6010E94AD
:103D1000A3FA609343027093440280934502909308
:103D200046020E9442B40C94422C209343030C940C
:103D3000422C61E5262E62E0362E7CE6E72E7EE000
:103D4000F72E48E85CE059AF48AFEFE4CE2EE3E051
:103D5000DE2E00E010E0D1018D911D010E94DA8677
:103D6000882309F44BC00E945E862B013C0113306E
:103D700049F0F60120813181428153810E94C6F9C8
:103D80002B013C01A8ADB9AD2D913D914D915C91B8
:103D9000C301B2010E94C6F94B015C012DEB37E370
:103DA00046E855EB0E94EDFB87FD0AC02DEB37E39B
:103DB00046E855E3C501B4010E946CF51816F4F409
:103DC000133051F44092940C5092950C6092960CE2
:103DD0007092970C01E012C0A5019401F701608177
:103DE0007181828193810E94C7F9D7016D937D9380
:103DF0008D939C931397812F0E94B3811F5FB4E032
:103E0000EB0EF11CE8ADF9AD3496F9AFE8AFF4E094
:103E1000CF0ED11C143009F09ECF002309F4F6CE4A
:103E200084E99CE00E941C46F1CE0E94CF470C948E
:103E3000422C80917C1390917D138337910509F476
:103E4000BAC10CF0C7C08B34910509F47AC40CF0E8
:103E50006BC08831910509F482C2CCF5823191059D
:103E600009F473C5DCF497FF02C00C94F12B823087
:103E700091050CF4A3C1419711F00C94F12B60E073
:103E800087E093E00E940A8E5F988A9880910801EB
:103E900081708093060112980C94422C8531910513
:103EA00009F442C23CF4449711F00C94F12BEFE179
:103EB000F3E0FCC18631910509F43AC2479711F04D
:103EC0000C94F12BE0917A13F0917B133BC28D316E
:103ED000910511F40C94422CC4F48A31910509F433
:103EE0004DC20CF445C28B31910509F455C24C9773
:103EF00011F00C94F12B40E060E080917A139091E6
:103F00007B130E9435420C94422C8F31910509F4A9
:103F1000B9C30CF4D9C28032910509F467C38A97FA
:103F200009F4DAC30C94F12B8C35910509F455C5CD
:103F300024F58135910509F4F1C47CF48D349105A3
:103F400009F407C40CF401C48E34910511F00C94EB
:103F5000F12B0E9469720C94422C8335910509F46F
:103F6000F0C40CF4EBC48435910509F4EEC4853536
:103F7000910509F419C50C94F12B8E36910509F4BD
:103F800017C4C4F48936910509F4ADC434F48836F5
:103F9000910509F4E2C30C94F12B8C36910509F4D8
:103FA0006DC48D36910511F00C94F12B0E9479703F
:103FB0000C94422C8037910509F464C40CF40BC4B2
:103FC0008137910509F465C48237910509F48DC5DF
:103FD0000C94F12B8E3231E0930711F40C94562A95
:103FE0000CF06DC08B3C910509F4F1C6ACF5883737
:103FF000910509F420C664F48637910509F4CCC50F
:104000000CF016C68537910509F4B7C50C94F12B51
:104010008139910509F414C65CF48937910511F0D2
:104020000C94F12B10927A0C1092790C0C94422C77
:10403000883C910509F463C6893C910511F00C9404
:10404000F12BB1E5EB2EB2E0FB2E0AED12E18AEE88
:10405000C82E82E1D82EA3C68C3D910511F40C9494
:10406000E9289CF48D3C910509F441C70CF4CAC6BB
:104070008E3C910509F4BAC7833D910511F00C946B
:10408000F12B0E94DB6E0C94422C823E910511F4C0
:104090000C9464293CF48D3D910511F40C94F628A0
:1040A0000C94F12B8C3251E0950711F40C948D296E
:1040B0008D32914011F40C94B6290C94F12B853F6C
:1040C00071E0970711F40C94C62AC4F58A39B1E05F
:1040D0009B0709F4DBC3A4F48336F1E09F0709F4DE
:1040E00066C0803921E0920711F40C94C02A8F3207
:1040F000914011F00C94F12B0E94876A0C94422C91
:10410000853A41E0940711F40C94C32A4CF4843AA4
:10411000914011F00C94F12B0E9490AD0C94422C24
:104120008C3A71E0970709F483C7843F914011F0FE
:104130000C94F12B0E94DC2D0C94422C8B35B2E0B8
:104140009B0711F40C94FB2AC4F4873FF1E09F070E
:1041500011F40C94CC2A14F40C94C92A883F31E051
:10416000930711F40C94D82A8835924011F00C94DE
:10417000F12B0E9441A80C94422C8B3853E09507F8
:1041800011F40C94422C3CF48438934011F40C94B8
:10419000842B0C94F12B803AA3E09A0709F465C2B2
:1041A000873E934011F40C94DC2B0C94F12BE4E843
:1041B000FAE00C94AD2AE8EDF3E0D4C4A0907A13B1
:1041C000B0907B1380E50E94DA86882359F00E9424
:1041D0001E866B017C0111E0672B682B692B31F483
:1041E00010E004C010E0C12CD12C760183E50E94C0
:1041F000DA86882311F40C944C2C0E945E8620E011
:1042000030E04AE754E40E94D1F50E9410FB6B01B4
:104210007C0111110BC0672B682B692B39F4A11499
:10422000B10421F0F5018081811102C010E001C0CC
:1042300011E00E94C65F112329F061E0C5010E94D0
:10424000448E05C060E084EF92E00E940A8E83E015
:104250008093630E81E08093060CC114D104E104C5
:10426000F104B1F00E949CD3C60ED71EE81EF91EC1
:104270000E949CD3DC01CB018C199D09AE09BF09BA
:10428000B7FF0EC08091060C81110C94512C08C010
:104290008091060C882321F080E00E9409B1F8CFBC
:1042A0000E9483A61092060C0C94422C84918F01DC
:1042B0000F5F1F4F882321F00E9447C9F801F6CFF6
:1042C0001092DB118EE89FE00E94A5388BE1EEE8AA
:1042D000FFE0DE01159601900D928A95E1F780913D
:1042E0008C0F90918D0F9C838B838BEF92E09A8340
:1042F000898340E050E0BE016F5F7F4F80E090E037
:104300000E94FCC0CE0101960E94B038E0E1F3E0CB
:1043100084918F010F5F1F4F882311F40C94422C5E
:104320000E9447C9F801F4CF0E9419440C94422C12
:1043300010925E0F10925F0F0C94422C803209F4A1
:104340001082319680818111F9CF40E061E0809147
:104350007A1390917B130E9435420C94422C8091E9
:104360005F0F811120935E0F0E94CDDF0C94422CD1
:1043700010925E0F0E949BE60C94422C80915F0F7E
:10438000882311F40C94422C83E50E94DA86811173
:104390000C94562C0C94422C83E40E949186882322
:1043A00009F450C0EDE5F3E084918F010F5F1F4FDA
:1043B000882321F00E9447C9F801F6CF8091291186
:1043C000811103C0E0E3F3E012C0BE016F5F7F4FD5
:1043D00086E291E10E949F7D8E010F5F1F4FD80101
:1043E0008D918D01882349F10E9447C9F8CF8491AE
:1043F0008F010F5F1F4F882301F10E9447C9F80109
:10440000F6CF5FE9C52E53E0D52EE12CF12C20E04C
:1044100080918B0390E00E2C02C0959587950A94AD
:10442000E2F780FD08C2FFEFEF1AFF0A32E0C30E89
:10443000D11C45E0E416F10459F78AE00E9447C90F
:104440000C94422C80915F0F882339F080915E0F8D
:10445000882319F0EAE3F3E003C0ECE4F3E028C0BA
:1044600084918F010F5F1F4F882321F00E9447C95D
:10447000F801F6CF6091D7117091D8118091D911C0
:104480009091DA114AE00E944EC98FE20E9447C91A
:104490006091D3117091D4118091D5119091D61162
:1044A0004AE00E944EC98AE00E9447C90C94422CFF
:1044B00084918F010F5F1F4F882311F40C94422CBD
:1044C0000E9447C9F801F4CF80915F0F882311F44F
:1044D0000C94422C86E291E10E94F07986E291E10F
:1044E0000E94AF7B10925D0F10925C0F80915F0F66
:1044F000882311F40C94422C00917A1310917B13B1
:104500000E94EFC0B801CE0180960E94FAC28C01D1
:10451000892B11F40C94422C68A179A161157105C5
:1045200011F06C5F7F4F19821C8222E0A801CE013E
:1045300001960E94D27D811102C0F12C14C0CE01DF
:1045400001960E945DC08823C1F361E0CE0101960F
:104550000E94D579009789F325EEFC0120831C8207
:104560000E94EA76F82ECE0101960E94AA38F11038
:1045700003C0EAE7F3E022C0ECE6F3E084917F01B8
:104580002FEFE21AF20A882321F00E9447C9F701AF
:10459000F5CFD8018D918D01882319F00E9447C96C
:1045A000F8CF8AE00E9447C91092D7111092D81113
:1045B0001092D9111092DA110C94422C84917F013F
:1045C000BFEFEB1AFB0A882321F00E9447C9F701CD
:1045D000F5CFF80181918F01882319F00E9447C916
:1045E000F8CF8EE20E9447C90C94422C80915E0F56
:1045F00081110E94C65F80915F0F882311F40C9493
:10460000422C80E50E94DA86882319F00E944F86AA
:1046100003C080E50E949186182F482F61E08091A9
:104620007A1390917B130E94354283E50E94DA86CB
:10463000882381F00E942E86AB01BC014093D711E4
:104640005093D8116093D9117093DA1186E291E1F9
:104650000E94627780915F0F882319F081E0809338
:104660005E0F11110C94422C7FCE80917A139091A1
:104670007B1321E020935D0F40E060E00E94354213
:104680000C94422C0E944CE668A379A38AA39BA3B6
:10469000BE016F5F7F4FCE0180960E94D18760E0A0
:1046A000CE0101960E94448EE0E2F7E284918F01F0
:1046B0000F5F1F4F882321F00E9447C9F801F6CFF2
:1046C000BE016F5F7F4F82E993E00E9459698AE0E3
:1046D0000E9447C90C94422C83E50E94DA86882305
:1046E00011F40C94422C0E943E86082F80E50E9413
:1046F000DA86882339F00E943E86182F87FF03C090
:104700000C94422C1DE089E40E94DA86882351F043
:104710000E944F8681110C94CE2CEBE4F5E088E7E3
:1047200095E00AC089E40E949186F4CF31968E17F5
:104730009F0711F40C94CE2C24911213F7CF0C94F4
:10474000A22C0E94CDDF0C94422C0E949BE60C947C
:10475000422C0E9412E00C94422C88E690E00E94C9
:10476000918781110C94422C80918B0383FF02C0AE
:104770000C94422C83E50E94DA868823A9F00E94DB
:104780005E860E940BFBCB010E94AF8D0E945E866D
:1047900020E030E04AEA52E40E946CF5181624F05A
:1047A0000E9412E00E9483A60E94BFE00C94422C5B
:1047B0008EE40E94DA86882311F40C94422C0E9425
:1047C0002E866093C0057093C1058093C2059093B7
:1047D000C3050C94422C83E50E949186882359F0EE
:1047E00083E50E94DA86882319F00E943E8601C084
:1047F00080E080938B03E0E2F7E284918F010F5F0A
:104800001F4F811103C0EDEAF3E004C00E9447C9C5
:10481000F801F3CF84918F010F5F1F4F882321F0A0
:104820000E9447C9F801F6CF80918B038111E9CD31
:10483000E9EAF3E018C0BB24B394B20E222319F0C6
:104840008CE20E9447C9F60185919491FC01849104
:104850008F010F5F1F4F882321F00E9447C9F80185
:10486000F6CF2B2DE0CD84918F010F5F1F4F882352
:1048700009F4E3CD0E9447C9F801F5CF1092110267
:104880000C94422C84EB93E00E94BAB00E945EAF7D
:10489000F9C783E50E94DA86811103C0E0E2F7E2FE
:1048A0000BC00E943E868D3318F480934702EAC7FE
:1048B0008CE380934702E6C784918F010F5F1F4FFF
:1048C000882321F00E9447C9F801F6CF40914702A2
:1048D00050E060E070E08DEB93E00E9406698AE0B2
:1048E0000E9447C9CFC789E690E00E949187811155
:1048F00011C0E4ECF3E084918F010F5F1F4F882318
:1049000021F00E9447C9F801F6CF0E9495978AE0EE
:104910000E9447C91092630E0C94DC2C0E940A99E5
:104920000E9446C468EE73E080E090E00E945C8DD7
:1049300060E087EC93E00E940A8EA4C710924203C5
:10494000A1C781E0809342039DC783E50E94DA8678
:10495000882399F00E945E8620E030E04AE754E424
:104960000E94D1F50E9410FB6093480270934902A7
:1049700080934A0290934B0285C788E50E949186F6
:104980008111A5C789E50E9491868111A0C78AE59A
:104990000E94918681119BC785E40E9491868111B6
:1049A00096C70E9446C46EC783E50E9491868823FD
:1049B00009F468C70E945E8620E030E04AE754E4CC
:1049C0000E94D1F50E9410FB6093680E7093690EEF
:1049D00080936A0E90936B0E55C731E5C32E32E07B
:1049E000D32E40EAE42E43E0F42E10E0D6018D9160
:1049F0006D010E949186882309F46DC0133009F07F
:104A000063C00E945E864B015C0120E030E040EA1A
:104A100051E40E946CF587FF4EC0A501940160919E
:104A2000AC037091AD038091AE039091AF030E94EF
:104A3000A3FA2B013C019B01AC0160919C12709187
:104A40009D1280919E1290919F120E94D1F56093C9
:104A50009C1270939D1280939E1290939F12A301BB
:104A600092016091D6127091D7128091D8129091D4
:104A7000D9120E94D1F56093D6127093D712809309
:104A8000D8129093D91260910613709107138091F8
:104A90000813909109130E9470F5A30192010E94DE
:104AA000D1F50E9410FB6093061370930713809357
:104AB0000813909309138092AC039092AD03A092D7
:104AC000AE03B092AF0307C00E945E86F701608319
:104AD0007183828393831F5FF4E0EF0EF11C143027
:104AE00009F084CF0E9460E2CDC60E94C65F83E5D4
:104AF0000E94DA86882309F489C80E942E866230D3
:104B0000710509F083C80E941BB88BE50E9447C954
:104B10006091570E7091580E8091590E90915A0ED7
:104B200042E00E94D3C940915B0E50915C0E6091AF
:104B30005D0E70915E0E85ED93E00E9423694091B9
:104B40005F0E5091600E6091610E7091620E82ED69
:104B500093E00E9423698DE50E9447C98AE00E9484
:104B600047C990C684918F010F5F1F4F882309F4B6
:104B700089C60E9447C9F801F5CF80917A139091B8
:104B80007B13DC012C91222321F060E00E94448EF3
:104B900079C60E9483A676C600917A1310917B1382
:104BA00083E0D12C40E08150E1F0F8019081292F81
:104BB0002B7F2134C1F721812133A9F7913421F0D2
:104BC000953421F441E002C0DD24D39498012E5F96
:104BD0003F4F89012F5F3F4FD8019C919032C9F31D
:104BE000E2CF442369F0E0E2F7E284917F01BFEF76
:104BF000EB1AFB0A882321F00E9447C9F701F5CF81
:104C0000DD2069F0E9E9F4E084917F012FEFE21AF9
:104C1000F20A882321F00E9447C9F701F5CFD80195
:104C20008D918D01882309F408CC0E9447C9F7CFE4
:104C30000E9408B927C620937A0C2093790C22C6CB
:104C400083E50E94DA86882319F00E942E8602C02E
:104C500060E070E08B01112702301105D4F0E4E828
:104C6000FAE084918F010F5F1F4F811103C0EDE9BE
:104C7000F4E004C00E9447C9F801F3CF84918F018A
:104C80000F5F1F4F882309F4FDC50E9447C9F80133
:104C9000F5CF88E40E94DA868823A9F00E942E8648
:104CA0006A3A71053CF06530B1E07B072CF064E0B6
:104CB00071E002C06AEA70E0F801EE0FFF1FE15DEB
:104CC000F14F7183608386E40E94DA86882309F4B9
:104CD000D9C50E942E86000F111FF801ED5CF14F1F
:104CE000718360836F3F710519F014F06FEF70E00E
:104CF00077FF02C060E070E071836083C3C588EC19
:104D000090E00E9491878111BDC584E40E94918644
:104D1000882309F441C00E945E866B017C0111E08A
:104D200020E030E0A9010E946CF5811101C010E083
:104D30001093AC1220E030E0A901C701B6010E9437
:104D40006CF5882349F10E945E86E0912A0C24E0EC
:104D5000E29FF0011124E855FD4E60837183828348
:104D6000938320E030E0A9016091A8127091A9120C
:104D70008091AA129091AB120E946CF581110CC027
:104D800080E090E0A0EEBFE38093A8129093A91278
:104D9000A093AA12B093AB120E94B4C373C5D701FB
:104DA0008D917D010E949186882349F00E945E8644
:104DB0000E9410FBF80160837183828393830C5FF0
:104DC0001F4FC016D10659F70E94EFE05BC5A1E561
:104DD000EA2EA2E0FA2E0AEC12E1D7018D917D01B4
:104DE0000E949186882339F00E945E86F8016083D4
:104DF0007183828393830C5F1F4FF2E10A3D1F078B
:104E000061F740C583E50E94DA868823A1F00E94FD
:104E10005E866093F2127093F3128093F412909373
:104E2000F5126093EA127093EB128093EC12909358
:104E3000ED1210E001C011E080E50E94DA868823BF
:104E400059F00E945E866093F2127093F312809381
:104E5000F4129093F51210E082E50E94DA8688231E
:104E600059F00E945E866093EE127093EF12809369
:104E7000F0129093F11210E084E50E94DA86882304
:104E800059F00E945E866093EA127093EB12809351
:104E9000EC129093ED12F6C4112309F4F3C440917F
:104EA000F2125091F3126091F4127091F51285ECA8
:104EB00094E00E9423694091EE125091EF126091AC
:104EC000F0127091F11282EC94E00E9423694091FB
:104ED000EA125091EB126091EC127091ED128FEB8F
:104EE00094E00E9423698AE00E9447C9CBC481E50F
:104EF0000E949186882351F00E941E866093CA0505
:104F00007093CB058093CC059093CD0583E50E94EB
:104F10009186882351F00E945E866093C61270933A
:104F2000C7128093C8129093C91284E50E9491869B
:104F3000882351F00E945E866093C2127093C31260
:104F40008093C4129093C51288E50E9491868823AD
:104F500051F00E945E86609390127093911280933C
:104F600092129093931289E50E949186882351F0C2
:104F70000E945E86609394127093951280939612AD
:104F8000909397128AE50E9491868823F1F00E94FF
:104F90005E86609398127093991280939A12909300
:104FA0009B122DEC3CEC4CEC5DE30E946CF518166A
:104FB00064F0E5EDF4E084918F010F5F1F4F8823CB
:104FC00021F00E9447C9F801F6CF85E40E9491863E
:104FD000882309F457C40E945E8660939C127093E4
:104FE0009D1280939E1290939F124CC4E1E5CE2EA9
:104FF000E2E0DE2EFCE7EF2EFCE0FF2E10E0D60113
:105000008D916D010E949186882351F00E945E86E9
:10501000F7016083718382839383812F0E94B38120
:105020001F5FF4E0EF0EF11C133049F70C94061EDD
:105030000E947D46811126C40EE413E228E83CE07C
:1050400039AF28AFAE014F5F5F4F4A0177EAA72E15
:1050500073E2B72E1A01F8016591759185919491CB
:10506000A8ADB9ADCD90DD90ED90FD90B9AFA8AFF2
:10507000A70196010E94C6F92B013C01F101608352
:1050800071838283938320E030E040EA51EC0E94F8
:10509000EDFB87FD0AC020E030E040EA51E4C301A7
:1050A000B2010E946CF518162CF4F50184911816C3
:1050B0000CF43DC4D101CD90DD90ED90FD901D012B
:1050C00020E030E040EA51ECC701B6010E94EDFB60
:1050D00087FD0AC020E030E040EA51E4C701B60194
:1050E0000E946CF5181684F5E4E8FAE084918F01CB
:1050F0000F5F1F4F811103C0E5E2F5E004C00E947D
:1051000047C9F801F3CF84918F010F5F1F4F8823A8
:1051100021F00E9447C9F801F6CF61E087E195E0F0
:105120000E940A8E0E946B9288E290E099A388A365
:1051300088EC90E09DA78CA7BE01605E7F4FCE01FA
:105140008C960E945B459EC30C5F1F4FBFEFAB1A4E
:10515000BB0AE3E20A351E0709F07DCF6CE7E62EB5
:105160006CE0F62E10E0F40181919191A191B19142
:105170004F01F70181939193A193B1937F01812F07
:105180000E94B3811F5F133071F70E94B36F60E01C
:1051900087E095E00E940A8E83E992E09DA78CA7A4
:1051A00004E610E019A308A3BE01645D7F4FCE01A1
:1051B00080960E945B458AEB92E09DA78CA719A37D
:1051C00008A3BE01645D7F4FCE0180960E945B45BF
:1051D00059C383E50E94DA86882309F453C30E94E9
:1051E0002E8670934202609341024CC38DED90E095
:1051F0000E949187811146C383E50E94DA8681115E
:1052000003C0E0E2F7E23AC000912A0C10E00E94ED
:105210002E86000F111FF801E15CFD4F7183608342
:1052200080912A0C90E07C01EE0CFF1CEE0CFF1C20
:105230008701055C1D4F880F991FFC01E15CFD4F44
:1052400060817181072E000C880B990B0E9472F50A
:105250002AE037ED43E25CE30E94D1F5F701E05C20
:10526000F14F20813181428153810E94D1F5D801D3
:105270006D937D938D939C93139704C384918F01B9
:105280000F5F1F4F882321F00E9447C9F801F6CF16
:1052900085E40E9447C980912A0C805D0E9447C91D
:1052A000E0912A0CF0E0EE0FFF1FE15CFD4F608102
:1052B000718183E495E00E94406985E20E9447C9BC
:1052C0008AE00E9447C9DEC280E50E949186882359
:1052D00009F4D8C20E942E866B017C0183E50E94EE
:1052E000DA86882321F00E942E868B0102C00FEF00
:1052F0001FEFC8010196039708F0C4C2D7FCC2C2D1
:105300008C2DEBE4F5E09491891709F41BC33196D9
:10531000B5E0E837FB07B9F718C383E50E94DA86E2
:10532000882319F00E942E8602C064E071E079A300
:1053300068A380E50E94DA86882339F00E942E86D1
:105340006938E3E17E0730F402C068EE73E07A83E7
:10535000698304C088E893E19A838983BE01605E13
:105360007F4FCE0101960E945B458CC285E40E946E
:10537000DA86811110C080E50E949186882391F021
:105380000E945E866093220E7093230E8093240EFB
:105390009093250E07C00E943E86882361F3E4E8BF
:1053A000FAE071C089E40E949186882381F00E940E
:1053B0005E862CEA35EC47E25EE30E94D1F560930D
:1053C0002A0E70932B0E80932C0E90932D0E84E456
:1053D0000E949186882381F00E945E862CEA35EC3B
:1053E00047E25EE30E94A3FA6093260E7093270EB5
:1053F0008093280E9093290EE0E2F7E284918F01CA
:105400000F5F1F4F882321F00E9447C9F801F6CF94
:105410004091220E5091230E6091240E7091250E22
:1054200080E895E00E9423692CEA35EC47E25EE3D0
:1054300060912A0E70912B0E80912C0E90912D0E62
:105440000E94A3FAAB01BC018CE795E00E9423699E
:105450002CEA35EC47E25EE36091260E7091270E50
:105460008091280E9091290E0E94D1F5AB01BC01CC
:1054700088E795E00E9423698AE00E9447C902C23A
:105480000E9447C9F80184918F010F5F1F4F81115E
:10549000F7CFE4E8F5E084918F010F5F1F4F882379
:1054A00009F4F0C10E9447C9F801F5CF83E50E94D5
:1054B0009186182F882371F00E945E860E940BFB54
:1054C000709313026093120221E0672B09F020E031
:1054D0002093880380E50E949186882359F02091CB
:1054E000120230911302232B11F00E944F868093F9
:1054F0008803C8C11111C6C1E0E2F7E284918F01AF
:105500000F5F1F4F882321F00E9447C9F801F6CF93
:1055100080918803882319F067E173E002C06AE193
:1055200073E08BEA95E00E945969609112027091D4
:1055300013028AE995E00E944069E6E9F5E084916A
:105540008F010F5F1F4F882309F49CC10E9447C938
:10555000F801F5CF0E9447C9F80184918F010F5FD0
:105560001F4F8111F7CFEEEBF5E084918F010F5FB4
:105570001F4F882309F486C10E9447C9F801F5CF5F
:105580000E94C65F7FC10E94A7AC7CC10E943FBF42
:1055900079C10E94FFBD76C183E50E949186882370
:1055A00021F00E944F8691E089270E942EB96AC19E
:1055B00081E080933E03C6D710923E03882309F40E
:1055C00061C1E0E2F7E284918F010F5F1F4F81110B
:1055D00003C0EDECF5E004C00E9447C9F801F3CF29
:1055E00084918F010F5F1F4F882309F44BC10E94E4
:1055F00047C9F801F5CF8BE592E00E9491878111B0
:1056000041C185E50E9491868823D9F100912A0C39
:1056100010E00E945E866B017C0120E030E0A90171
:105620000E94EDFB87FF04C0F7FAF094F7F8F094BE
:10563000000F111F000F111FF801EC55FD4EC08225
:10564000D182E282F38200912A0CF4E00F9F800164
:1056500011240C551D4E20E030E048E453E4D801FD
:105660006D917D918D919C910E94EDFB18164CF4EB
:1056700080E090E0A8E4B3E4F80180839183A28302
:10568000B3838CE40E949186882309F4FBC00091C7
:105690002A0C10E00E945E866B017C0120E030E065
:1056A000A9010E94EDFB87FF04C0F7FAF094F7F818
:1056B000F094000F111F000F111FF801E056FD4E6E
:1056C000C082D182E282F38200912A0CF4E00F9F23
:1056D0008001112400561D4E20E030E048E453E4E0
:1056E000D8016D917D918D919C910E94EDFB1816D2
:1056F0000CF0C8C080E090E0A8E4B3E4F801808337
:105700009183A283B383BEC08BE40E94DA868111A9
:1057100003C0E0E2F7E236C08BE40E94DA86882319
:10572000C1F00E945E866B017C0120E030E0A9019F
:105730000E94EDFB87FD0AC020E030E040E251E42A
:10574000C701B6010E946CF5181634F4E8EDF5E0D7
:105750000EC0C12CD12C76010E94C65FC092AD1242
:10576000D092AE12E092AF12F092B0128BC0849140
:105770008F010F5F1F4F882309F484C00E9447C91F
:10578000F801F5CF84918F010F5F1F4F882321F01F
:105790000E9447C9F801F6CF4091AD125091AE1268
:1057A0006091AF127091B01287EF95E00E9423696B
:1057B0008AE00E9447C966C081E08093500210923F
:1057C000B00383E50E94DA86882339F00E944F8671
:1057D000811158C00E9454B855C083E50E9491863B
:1057E000F7CF0E94CF474EC0F0907C130E94C65F57
:1057F00010914E0380E00E946A7FFF2029F1E0E2D1
:10580000F7E284918F010F5F1F4F882321F00E94E0
:1058100047C9F801F6CF84E50E9447C96F2D70E0B3
:1058200080E090E04AE00E944EC980E20E9447C9B1
:10583000E4E1F6E084918F010F5F1F4F882311F19F
:105840000E9447C9F801F6CF10928703812F0E946A
:105850006A7FE0E2F7E284918F010F5F1F4F882398
:1058600021F00E9447C9F801F6CF6091870370E0EC
:1058700082E096E00E9440698AE00E9447C902C027
:105880000E94CF471092630E0E9437B895C00E94C5
:10589000E6860E9442B4F6CF11110C9416210C94A6
:1058A0000F2180E00E9409B10C9438210E942E86BD
:1058B000AB01BC014093D7115093D8116093D9111B
:1058C0007093DA1186E291E10E946277DBCF0E9449
:1058D000C65F88E50E949186882331F05F9A8091A7
:1058E0007B0C8E7F80937B0C89E50E9491868823B8
:1058F00031F08A9A80917B0C8D7F80937B0C8AE5B6
:105900000E949186882359F08091080180958170CA
:105910008093060180917B0C8B7F80937B0C85E4C8
:105920000E949186882309F4ADCF129AABCFF7FA83
:10593000F094F7F8F094D101CD92DD92ED92FC92C3
:105940001397B8CB0E9454E99DCF0E94C65FBC2C30
:1059500060E08C2D0E9460D20F3FBFEF1B0759F40F
:105960008C2D0E94E49931E020E0892B09F030E091
:10597000032F122F05C00130110569F401E010E07A
:105980008B2D0E94E4998017910709F47BCF80E06A
:105990000E9409B1F5CF00E010E0F2CF61E0812F65
:1059A0000E9460D2602F812F0E940D9A602F70E0BC
:1059B000812F0E949CD266CFC559DF4F0FB6F89455
:1059C000DEBF0FBECDBFDF91CF911F910F91FF9032
:1059D000EF90DF90CF90BF90AF909F908F907F908F
:1059E0006F905F904F903F902F900895089580E0C2
:1059F00090E00895CF93DF938F389240B1F0E4E8C0
:105A0000FAE08491EF012196882321F00E9447C992
:105A1000FE01F7CFE0E4F6E08491EF0121968823C0
:105A200031F00E9447C9FE01F7CF80E001C081E05C
:105A3000DF91CF9108958F929F92AF92BF92CF92B4
:105A4000DF92EF92FF920F93CF93DF931F92CDB728
:105A5000DEB77C015B016A0149018091450388231F
:105A6000E9F0F70180819181C80ED91ED182C082F0
:105A700022C001111DC0BE016F5F7F4FC4010E9493
:105A8000EB45F70180819181019691838083FFEF3F
:105A9000AF1ABF0A81E0C81AD10869F0F701808106
:105AA00091810E9445F9898390913E039111E1CF44
:105AB000F5018083E0CF0F90DF91CF910F91FF90A0
:105AC000EF90DF90CF90BF90AF909F908F90089510
:105AD0007F928F929F92AF92BF92CF92DF92EF927E
