:100000000C94601B0C94911B0C94911B0C94911BF1
:100010000C94911B0C94911B0C94911B0C94911BB0
:100020000C94911B0C94911B0C94911B0C94911BA0
:100030000C94911B0C94911B0C94911B0C94911B90
:100040000C94911B0C943DB40C94911B0C94911B3B
:100050000C94911B0C94911B0C94617E0C940AD20D
:100060000C94911B0C945B710C9451710C94911B2A
:100070000C94911B0C94911B0C94911B0C94911B50
:100080000C94911B0C94911B0C94911B0C94911B40
:100090000C94911B0C94911B0C94911B0C94911B30
:1000A0000C94911B0C94911B0C94911B0C94911B20
:1000B0000C94911B0C94911B0C94911B0C94911B10
:1000C0000C94911B0C94911B0C94911B0C94911B00
:1000D0000C94911B0C94911B0C94911B0C94911BF0
:1000E0000C94911B87D08AD079D07DD083D0C1D099
:1000F0008ED092D098D09CD0A0D0A6D0AAD0AED08E
:10010000C1D0B4D0B8D0BCD026D12BD130D13AD1C7
:1001100044D1BDD14ED156D15ED168D172D17CD1FE
:100120008BD195D1BDD19FD1A9D1B3D1B5DA98DA10
:100130009BDAB8DA9EDAA1DAA4DAB0DAA7DAC3DA9F
:10014000AADAADDA084AD73B3BCE016E84BCBFFDCC
:10015000C12F3D6C74319ABD56833DDA3D00C77F97
:1001600011BED9E4BB4C3E916BAAAABE0000008030
:100170003F05A84CCDB2D44EB93836A9020C50B9BF
:10018000918688083CA6AAAA2ABE000000803F00EB
:100190004E414E494E495459494E46CDCCCC3D0A6C
:1001A000D7233C17B7D13877CC2B329595E6241F4F
:1001B000B14F0A000020410000C84200401C462008
:1001C000BCBE4CCA1B0E5AAEC59D7400407A10F3DB
:1001D0005A00A0724E18090010A5D4E80000E87675
:1001E00048170000E40B54020000CA9A3B000000CC
:1001F000E1F505000080969800000040420F0000E5
:1002000000A08601000000102700000000E80300A5
:100210000000006400000000000A0000000000016F
:1002200000000000002C76D888DC674F0823DFC16F
:10023000DFAE59E1B1B796E5E3E453C63AE651992A
:100240007696E8E6C28426EB898C9B62ED407C6F53
:10025000FCEFBC9C9F40F2BAA56FA5F490055A2A0A
:10026000F75C936B6CF9676DC11BFCE0E40D47FE16
:10027000F520E6B500D0ED902E030094357705000B
:1002800080841E080000204E0A000000C80C333392
:1002900033330F986E12831141EF8D2114893BE6A1
:1002A0005516CFFEE6DB18D1844B381BF77C1D902A
:1002B0001DA4BBE424203284725E228100C9F12493
:1002C000ECA1E53D27434F4D4D554E49434154491F
:1002D0004F4E0044525952554E004552524F5253C0
:1002E00000494E464F004543484F00496E76616CC9
:1002F00069642065787472756465720A003F4B20EA
:1003000076616C7565206F7574206F662072616E02
:1003100067652028302D3130292E0A00416476612E
:100320006E6365204B3D00454550524F4D204F4B6D
:100330000A004F666673657473204170706C69655E
:1003400064004572723A20546F6F2066617221001A
:10035000546F6F206661722066726F6D20726566E1
:100360006572656E636520706F696E740A00FF01C7
:10037000FF000000000000484300000000426564E8
:10038000204C6576656C696E6720004661696C6516
:100390006420746F20656E61626C65204265642024
:1003A0004C6576656C696E670A00426564204C6531
:1003B00076656C20436F7272656374696F6E204D51
:1003C00061747269783A0064697300656E0043294C
:1003D0000A0061626C656420286D696E2074656D29
:1003E000702000436F6C6420657874727564657367
:1003F000206172652000496E76616C6964206578C1
:100400007472756465720A0020643A0020693A00CB
:1004100020703A0020466C6F773A20004F46460025
:100420004F4E00205A0020590020580020204D61D6
:10043000783A2000200020204D696E3A2000536F4A
:10044000667420656E6473746F70733A20003F4A5F
:10045000206F7574206F662072616E67652028308A
:100460002E303120746F20302E33290A00205400A2
:10047000205200416363656C65726174696F6E3A06
:100480002050004D31343520533C696E6465783E10
:10049000206F7574206F662072616E67652028304A
:1004A0002D31290A002F2F20004348414D4245524B
:1004B0005F54454D5045524154555245004D4F549F
:1004C000494F4E5F4D4F44455300544845524D41AE
:1004D0004C5F50524F54454354494F4E0041555480
:1004E0004F5245504F52545F53445F5354415455FB
:1004F000530050524F4D50545F535550504F52542B
:1005000000454D455247454E43595F504152534572
:100510005200434153455F4C494748545F4252495A
:100520004748544E45535300544F47474C455F4C42
:10053000494748545300534F4654574152455F5022
:100540004F574552004255494C445F504552434530
:100550004E54004C4556454C494E475F444154412A
:10056000005A5F50524F4245004155544F4C45563A
:10057000454C005052494E545F4A4F420050524F32
:100580004752455353004155544F5245504F5254D2
:100590005F54454D5000564F4C554D4554524943BC
:1005A00000454550524F4D0042494E4152595F4619
:1005B000494C455F5452414E5346455200534552B3
:1005C00049414C5F584F4E5F584F4646004649528E
:1005D0004D574152455F4E414D453A4D61726C69F0
:1005E0006E20322E302E31202847697448756229DA
:1005F00020534F555243455F434F44455F55524C3E
:100600003A68747470733A2F2F6769746875622E34
:10061000636F6D2F4D61726C696E4669726D7761A3
:1006200072652F4D61726C696E2050524F544F436A
:100630004F4C5F56455253494F4E3A312E30204D64
:10064000414348494E455F545950453A524631302E
:100650003020584C2045585452554445525F434F22
:10066000554E543A3120555549443A6365646532D4
:100670006132662D343161322D343734382D396290
:1006800031322D6335356336326633363766660A66
:1006900000524631303020584C204F46462E002024
:1006A000573A0042656420436F6F6C696E672E2E67
:1006B0002E004265642048656174696E672E2E2E97
:1006C000004D3131332053004D31313220536875A4
:1006D00074646F776E006F666600E602E102DA020C
:1006E000D302C50244454255473A006F6B00436F41
:1006F0006F6C696E672E2E2E0048656174696E6797
:100700002E2E2E00452025530050726F74656374A1
:1007100065642050696E0A002569730025696D20A3
:10072000256973002569682025696D202569730096
:10073000256964202569682025696D202569730075
:1007400025697920256964202569682025696D203F
:10075000256973005072696E742074696D653A2062
:10076000002E0A0044656C6574696F6E20666169CD
:100770006C65642C2046696C653A200046696C659E
:100780002064656C657465643A00286E6F20666944
:100790006C65290043757272656E742066696C65BC
:1007A0003A20005344207072696E74696E6720624B
:1007B00079746520004E6F74205344207072696E06
:1007C00074696E670A00456E642066696C65206C0A
:1007D0006973740A00426567696E2066696C6520FA
:1007E0006C6973740A004E6F204D6F76652E00435E
:1007F0006C69636B20746F20526573756D652E2E66
:100800002E00536C6565702E2E2E0047322F473315
:100810002062616420706172616D65746572730A33
:100820000020746F6F206C6F6E672065787472752E
:1008300073696F6E2070726576656E7465640A0008
:1008400020636F6C6420657874727573696F6E20B5
:1008500070726576656E7465640A0024F4D4305055
:10086000C38E20C2A24017828B7011127A910D8123
:100870006CD90AA861E108C7586607615143061E92
:100880004B5D05C145A7041A411104093D98037148
:100890003931034036DB0265339102D43054028093
:1008A0002E1D02632CEE01752AC501B028A001108F
:1008B0002781018F2564012B244B01E0223401ACF8
:1008C000211F018D200D01801FFC00841EED00976B
:1008D0001DDF00B81CD200E61BC600201BBC006454
:1008E0001AB200B219A8000A19A0006A189900D11A
:1008F00017910040178B00B516840031167E00B3A7
:100900001579003A157300C7146F0058146A00EE89
:100910001366008813630025135E00C7125B006C2A
:1009200012570015125400C111510070114F0021CF
:10093000114B00D61049008D1047004610440002AC
:10094000104200C00F4000800F3E00420F3C0006E6
:100950000F3B00CB0E3800930E37005C0E3500279E
:100960000E3400F30D3200C10D3100900D300060E7
:100970000D2E00320D2D00050D2C00D90C2B00AED4
:100980000C2900850C29005C0C2700350C27000E73
:100990000C2600E80B2400C40B2400A00B23007DD0
:1009A0000B23005A0B2100390B2100180B2000F8F3
:1009B0000A1F00D90A1E00BB0A1E009D0A1D0080E6
:1009C0000A1D00630A1C00470A1B002C0A1B0011A9
:1009D0000A1A00F7091A00DD091900C4091900AB49
:1009E000091900920917007B091800630917004CC8
:1009F00009160036091600200916000A091500F527
:100A0000081500E0081400CC081400B8081400A46D
:100A1000081400900813007D0812006B081300589A
:100A200008120046081200340811002308110012B1
:100A300008110001081100F0071000E0071000D0B5
:100A4000071000C0071000B0070F00A107100091A9
:100A5000070E0083070F0074070F0065070E00578D
:100A6000070E0049070E003B070D002E070E002061
:100A7000070D0013070D0006070D00F9060C00ED29
:100A8000060D00E0060C00D4060C00C8060C00BCE5
:100A9000060C00B0060C00A4060B0099060C008D95
:100AA000060B0082060B0077060B006C060B00613C
:100AB000060A0057060B004C060A0042060A0038D8
:100AC000060A002E060A0024060A001A060A00106A
:100AD00006090007060A00FD050900F4050900EBF8
:100AE000050900E2050900D9050900D0050900C77C
:100AF000050900BE050900B5050800AD050800A5FB
:100B00000509009C050800940508008C0508008470
:100B10000508007C050800740508006C05070065E1
:100B20000508005D050700560508004E050700474B
:100B30000507004005080038050700310507002AB1
:100B4000050700230507001C050600160507000F12
:100B50000507000805060002050700FB040600F56E
:100B6000040700EE040600E8040600E2040700DBC8
:100B7000040600D5040600CF040600C9040600C31D
:100B8000040600BD040600B7040600B1040500AC6D
:100B9000040600A6040600A00405009B04060095B8
:100BA000040500900406008A040500850405008001
:100BB0000406007A04050075040500700405006B46
:100BC00004050066040500610405005C0405005787
:100BD000040500520405004D0405004804050043C7
:100BE0000405003E0404003A040500350405003005
:100BF0000404002C04050027040400230405001E3F
:100C00000404001A04040016040500110404000D75
:100C1000040400090405000404040000040400FCAA
:100C2000030400F8030400F4030400F0030400ECE0
:100C3000030400E8030400E4030400E0030400DC10
:100C4000030400D8030400D4030400D0030400CC40
:100C5000030400C8030300C503030024F404D920DF
:100C60001BC40C5C0E9804C4095F0265077101F493
:100C700005F900FB04B30048048700C1036900586C
:100C800003550003034500BE023A008402310053BD
:100C9000022A002902250004022000E4011C00C8E9
:100CA000011900AF011700980114008401130071AD
:100CB0000110006101100051010E0043010D0036CA
:100CC000010B002B010B0020010B00150109000C8A
:100CD00001090003010800FB000800F3000800EB15
:100CE000000700E4000600DE000600D8000600D27F
:100CF000000600CC000500C7000500C2000500BDCD
:100D0000000400B9000400B5000400B1000400AD07
:100D1000000400A9000400A5000300A20003009F36
:100D20000004009B0003009800030095000200935C
:100D3000000300900003008D0002008B0003008878
:100D40000002008600020084000300810002007F90
:100D50000002007D0002007B0002007900020077A3
:100D600000010076000200740002007200010071B0
:100D70000002006F0002006D0001006C0002006ABA
:100D800000010069000200670001006600010065C3
:100D900000010064000200620001006100010060C7
:100DA0000001005F0002005D0001005C0001005BCB
:100DB0000001005A000100590001005800010057CD
:100DC00000010056000100550001005400010053CD
:100DD00000000053000100520001005100010050CA
:100DE0000001004F0001004E0000004E0001004DC8
:100DF0000001004C0001004B0000004B0001004AC4
:100E000000010049000100480000004800010047BF
:100E100000010046000000460001004500000045BA
:100E200000010044000100430000004300010042B3
:100E300000000042000100410000004100010040AC
:100E40000001003F0000003F0001003E0000003EA6
:100E50000001003D0000003D0001003C0000003C9E
:100E60000000003C0001003B0000003B0001003A94
:100E70000000003A0001003900000039000100388C
:100E80000000003800000038000100370000003783
:100E90000001003600000036000000360001003579
:100EA000000000350000003500010034000000346F
:100EB0000000003400010033000000330000003364
:100EC0000001003200000032000000320001003159
:100ED000000000310000003100010030000000304F
:100EE000000000300001002F0000002F0000002F44
:100EF0000000002F0001002E0000002E0000002E38
:100F00000001002D0000002D0000002D0000002D2C
:100F10000001002C0000002C0000002C0000002C20
:100F20000001002B0000002B0000002B0000002B14
:100F30000001002A0000002A0000002A0000002A08
:100F400000010029000000290000002900000029FC
:100F500000000029000100280000002800000028EF
:100F600000000028000000280001002700000027E2
:100F700000000027000000270000002700010026D5
:100F800000000026000000260000002600000026C9
:100F900000010025000000250000002500000025BC
:100FA00000000025000000250001002400000024AE
:100FB00000000024000000240000002400010023A1
:100FC0000000002300000023000000230000002395
:100FD0000000002300000023000100220000002286
:100FE0000000002200000022000000220000002279
:100FF000000100210000002100000021000000216C
:10100000000000210000002100000021000100205C
:101010000000002000000020000000200000002050
:101020000000002000000020000000200001001F40
:101030000000001F0000001F0000001F0000001F34
:101040000000001F0000001F0001001E0000001E25
:101050000000001E0000001E000000232C0000B84D
:10106000220000561800003A0F0000B8080000B136
:10107000040000710200003E01000020746F6F2028
:101080006C6F6E6720657874727573696F6E20700F
:10109000726576656E7465640A0020636F6C642007
:1010A000657874727573696F6E2070726576656E9F
:1010B0007465640A004C6F6164206D6D00556E6C40
:1010C0006F6164206D6D0046696C2E204469612E4D
:1010D000004520696E206D6DC2B300416476616E7B
:1010E0006365204B004D3330332055312045256951
:1010F0002053256900504944204175746F74756E02
:1011000065202A0020022046616374002002204DE1
:101110006178002002204D696E004F6666004F6EB8
:10112000004175746F74656D70005654726176205D
:101130004D696E00566D696E00566D6178204500F0
:10114000566D6178205A00566D6178205900566DB1
:101150006178205800363726033C3D380F2E303E4C
:10116000121A1C1808440A094308000162757379B1
:101170003A2070617573656420666F7220696E70C5
:1011800075740A00627573793A20706175736564CD
:1011900020666F7220757365720A00627573793A02
:1011A0002070726F63657373696E670A0053544FE2
:1011B000505045442E20005072696E746572207341
:1011C000746F707065642064756520746F2065723B
:1011D000726F72732E20466978207468652065727C
:1011E000726F7220616E6420757365204D393939D4
:1011F00020746F20726573746172742E2028546598
:101200006D706572617475726520697320726573A3
:1012100065742E205365742069742061667465724C
:101220002072657374617274696E67290A004E6F6B
:1012300020436865636B73756D2077697468206CF3
:10124000696E65206E756D6265722C204C617374D9
:10125000204C696E653A20004E6F20436865636BD1
:1012600073756D2077697468206C696E65206E7582
:101270006D6265722C204C617374204C696E653A06
:101280002000636865636B73756D206D69736D61B4
:101290007463682C204C617374204C696E653A202D
:1012A000004C696E65204E756D6265722069732011
:1012B0006E6F74204C617374204C696E65204E759E
:1012C0006D6265722B312C204C617374204C696EF9
:1012D000653A20004D313130004D313137004D330A
:1012E000310053442072656164206572726F720A26
:1012F00000446F6E65207072696E74696E67206657
:10130000696C650A002121204B494C4C20636175B2
:10131000736564206279204B494C4C20627574746B
:101320006F6E2F70696E0A002121204B494C4C20B2
:1013300063617573656420627920746F6F206D75C9
:10134000636820696E6163746976652074696D6590
:10135000202D2063757272656E7420636F6D6D61F0
:101360006E643A20003F00537461727420507269B9
:101370006E740043616E63656C005072696E740038
:1013800043616E6E6F7420656E7465722073756252
:101390006469723A2000052E2E004D61696E004D81
:1013A0006F74696F6E004D38340044697361626C0C
:1013B0006520537465707065727300426564204CDB
:1013C0006576656C696E6700473238004175746FE9
:1013D00020486F6D65004D61696E005072656865EB
:1013E000617420504C4120456E6400507265686500
:1013F000617420504C412042656400204D393220F8
:1014000058004D3630303A20546F6F20436F6C6473
:1014100000486F74656E6420746F6F20636F6C6436
:101420000A00496E736572742066696C616D656E41
:101430007420616E642070726573732062757474B9
:101440006F6E0A00507265737320627574746F6EEC
:1014500020746F2068656174206E6F7A7A6C650AFB
:1014600000496E736572742066696C616D656E7497
:1014700020616E6420707265737320627574746F7E
:101480006E0A0020496E76616C696420657874721A
:10149000756465722000220A00656E717565756558
:1014A000696E672022006F6B00526573656E643A47
:1014B00020004361703A0023646566696E652044CC
:1014C000454641554C545F004B6420004B69200059
:1014D0004B702000504944204175746F74756E65DF
:1014E0002066696E69736865642120507574207484
:1014F0006865206C617374204B702C204B692061EF
:101500006E64204B6420636F6E7374616E7473201D
:1015100066726F6D2062656C6F7720696E746F20E4
:10152000436F6E66696775726174696F6E2E680AC3
:1015300000504944204175746F74756E6520666172
:10154000696C6564212074696D656F75740A005457
:101550006865726D616C2052756E617761790048C3
:10156000656174696E67206661696C6564005049E5
:1015700044204175746F74756E65206661696C6591
:1015800064212054656D7065726174757265207494
:101590006F6F20686967680A00204B643A2000205A
:1015A0004B693A2000204B703A20000A20436C61BE
:1015B0007373696320504944200A002054753A200F
:1015C00000204B753A2000206D61783A2000206D94
:1015D000696E3A200020643A200020626961733A03
:1015E0002000504944204175746F74756E652073F6
:1015F000746172740A00504944204175746F7475A7
:101600006E65206661696C6564212054656D706546
:1016100072617475726520746F6F20686967680AFB
:1016200000504944204175746F74756E6520666181
:10163000696C656421204261642065787472756408
:101640006572206E756D6265720A004572726F7206
:101650002077726974696E6720746F204545505217
:101660004F4D210A004572723A204D415854454D64
:1016700050004D415854454D50207472696767655C
:10168000726564004572723A204D494E54454D5082
:10169000004D494E54454D5020747269676765721C
:1016A0006564004D383420582059205A20450020C8
:1016B0002F002042403A0020403A0020573A004391
:1016C000616E6E6F74206F70656E207375626469F1
:1016D00072200053442063617264206F6B0A006FB4
:1016E00070656E526F6F74206661696C65640A0084
:1016F000766F6C756D652E696E6974206661696CB4
:1017000065640A00534420696E6974206661696CDF
:101710000A004D3234004D32332025730046696C87
:10172000652073656C65637465640A002053697A8B
:10173000653A200046696C65206F70656E65643A95
:101740002000454E4420535542524F5554494E4572
:101750000A002220706F73002220706172656E741F
:101760003A2200535542524F5554494E4520434169
:101770004C4C207461726765743A22007472796906
:101780006E6720746F2063616C6C207375622D67C7
:10179000636F64652066696C65732077697468207F
:1017A000746F6F206D616E79206C6576656C732E39
:1017B000204D4158206C6576656C2069733A310A7A
:1017C000002E0A006F70656E206661696C65642C7E
:1017D0002046696C653A200057726974696E67200B
:1017E000746F2066696C653A20002568753A25306B
:1017F0003268750025303268753A253032687500D8
:101800002D2D2D00534400202020202020200020BA
:10181000202020004D656469612052656D6F7665FA
:1018200064004D6564696120496E73657274656416
:1018300000507265686561742041425320456E64B2
:1018400000507265686561742041425320426564AE
:101850000054656D706572617475726500436F6FD9
:101860006C646F776E0050726568656174204142E8
:1018700053005072656865617420504C41004265A8
:1018800064004E6F7A7A6C65004D61696E00466C3B
:101890006F7700426564004E6F7A7A6C6500537012
:1018A000656564004D61696E00454550524F4D209D
:1018B0006461746173697A65206572726F722E0A51
:1018C00000290A002062797465733B2063726320EB
:1018D000002073746F7265642073657474696E6739
:1018E000732072657472696576656420280020280B
:1018F00063616C63756C6174656429210A00202141
:101900003D2000454550524F4D20435243206D69C4
:10191000736D61746368202D202873746F72656421
:101920002920002053697A653A2000496E64657861
:101930003A2000204D61726C696E3D563734290A99
:1019400000454550524F4D2076657273696F6E2089
:101950006D69736D617463682028454550524F4D21
:101960003D0048617264636F64656420446566612C
:10197000756C742053657474696E6773204C6F6165
:101980006465640A0000009643000096430000A0CE
:10199000410000C841D7A39D42D7A39D4200004803
:1019A000440000E842F4010000F40100006400007B
:1019B000001027000020204D363033200020550035
:1019C0004C0046696C616D656E74206C6F61642FAC
:1019D000756E6C6F6164206C656E677468733A0A2B
:1019E0000020204D393030204B004C696E6561720B
:1019F00020416476616E63653A0A00204400204904
:101A00000020204D33303120500050494420736570
:101A10007474696E67733A0A002046002042002001
:101A2000480020204D3134352053004D61746572DB
:101A300069616C2068656174757020706172616D98
:101A400065746572733A0A0020204D343230205399
:101A5000004175746F20426564204C6576656C6941
:101A60006E673A0A0020204D323036205800486F09
:101A70006D65206F66667365743A0A00204A00201F
:101A8000540020530020204D323035204200204A9F
:101A90003C6A756E635F6465763E00416476616E94
:101AA0006365643A20423C6D696E5F7365676D657E
:101AB0006E745F74696D655F75733E20533C6D692C
:101AC0006E5F66656564726174653E20543C6D6945
:101AD0006E5F74726176656C5F6665656472617471
:101AE000653E0020540020520020204D323034202A
:101AF0005000416363656C65726174696F6E202884
:101B0000756E6974732F7332293A20503C70726974
:101B10006E745F616363656C3E20523C72657472E3
:101B20006163745F616363656C3E20543C747261F1
:101B300076656C5F616363656C3E0A0020204D3200
:101B400030312058004D6178696D756D20416363B7
:101B5000656C65726174696F6E2028756E69747347
:101B60002F7332293A0A0020450020204D323033AD
:101B70002058004D6178696D756D206665656472E9
:101B8000617465732028756E6974732F73293A0A1E
:101B90000053746570732070657220756E69743AB5
:101BA0000A0020204D3230302044300A0020204DE1
:101BB0003230302044002044697361626C65640AED
:101BC0000046696C616D656E742073657474696E2E
:101BD00067733A0020204D3134392043203B205593
:101BE0006E69747320696E2043656C736975730A3E
:101BF0000020286D6D290020204732312020202030
:101C00003B20556E69747320696E206D6D00000075
:101C10002200250028002B002E0031003400020194
:101C20000000050108010B01000020002300260030
:101C300029002C002F0032000001000003010601E2
:101C40000901050505050705080808080202020242
:101C50000A0A080804040404010101010101010148
:101C60000303030303030303040707070C0C0C0C13
:101C70000C0C0C0C020202020606060606060606FC
:101C80000B0B0B0B0B0B0B0B010210202008081089
:101C900020401020408002010201080402010102DC
:101CA00004081020408080402010080402018004B5
:101CB0000201804020100804020108040201010210
:101CC0000408102040800102040810204080000019
:101CD0000A0B02090C0D0E080703040100000000A6
:101CE00000000000000000000000000000000000F4
:101CF00000000000000000000000121110000000B1
:101D000000000000000000000000000000000000D3
:101D100000000000687474703A2F2F6D61726C6956
:101D20006E66772E6F726700687474703A2F2F6D2D
:101D300061726C696E66772E6F726700687474707A
:101D40003A2F2F6D61726C696E66772E6F72670025
:101D5000322E302E3100322E302E3100322E302EE7
:101D60003100687474703A2F2F6D61726C696E6601
:101D7000772E6F726700687474703A2F2F6D6172DE
:101D80006C696E66772E6F726700687474703A2F94
:101D90002F6D61726C696E66772E6F7267002032EC
:101DA0002E302E31002020506C616E6E65724275AF
:101DB0006666657242797465733A200020467265E2
:101DC00065204D656D6F72793A2000436F6D7069C3
:101DD0006C65643A204A616E202031203230323006
:101DE0000A00204C61737420557064617465643A14
:101DF00020323031392D31322D3234207C20417562
:101E000074686F723A20286E6F6E652C2064656668
:101E100061756C7420636F6E666967290A00322EE3
:101E2000302E310A004D61726C696E0020536F666E
:101E300074776172652052657365740A002057617A
:101E4000746368646F672052657365740A0020428A
:101E5000726F776E206F75742052657365740A0017
:101E60002045787465726E616C2052657365740AE2
:101E700000506F77657255700A0073746172740A4E
:101E8000006175746F25632E67004732385859001A
:101E90006572726F722077726974696E6720746FF1
:101EA0002066696C650A00446F6E6520736176690F
:101EB0006E672066696C652E0A004D323900456EEA
:101EC0006473746F7073002553202563202563208D
:101ED000256320256300205A3A0020593A002058F3
:101EE0003A00656E6473746F7073206869743A2089
:101EF000005053550047656E65726963003A2000D3
:101F000050726F746F636F6C00312E30003A200096
:101F10004261756400313135323030003A20005270
:101F2000414D505320312E3400332D506F696E7463
:101F3000204C6576656C696E6700457874727564CF
:101F40006572730031003A2000687474703A2F2F64
:101F50006D61726C696E66772E6F726700524631E2
:101F6000303020584C00323031392D31322D32345E
:101F700000322E302E31004D61726C696E00546853
:101F800065726D6973746F727300426F6172642061
:101F9000496E666F005072696E74657220496E6694
:101FA0006F004D61696E003F004261636B005374C6
:101FB0006F70004368616E67652046696C616D658E
:101FC0006E74005072656865617420414253005020
:101FD00072656865617420504C4100507265686597
:101FE000617420437573746F6D004261636B0050C0
:101FF00072696E742066726F6D204D656469610050
:102000004D3231004368616E6765204D65646961DA
:102010000041626F7574205072696E746572004D74
:10202000363030204230004368616E676520466973
:102030006C616D656E7400436F6E66696775726181
:1020400074696F6E0054656D706572617475726548
:10205000004D6F74696F6E00526573756D65205029
:1020600072696E740054756E650053746F70205001
:1020700072696E74005061757365205072696E7478
:10208000004E6F204D6564696100496E666F205394
:10209000637265656E005072696E7420506175736D
:1020A000656400524631303020584C2052656164DE
:1020B000792E005072696E74696E672E2E2E005054
:1020C00072696E742041626F72746564004D3235BE
:1020D000005061757365205072696E7400A1000034
:1020E000006900A20000006300B00000000900C108
:1020F0000000004100C20000004100C30000004198
:1021000000C40000004100C50000004100C60000FE
:10211000004145C70000004300C80000004500C959
:102120000000004500CD0000004900D10000004E35
:1021300000D50000004F00D60000004F00D700007F
:10214000007800DC0000005500DD0000005900E0D0
:102150000000006100E10000006100E20000006199
:1021600000E30000006100E40000006100E5000001
:10217000006100E60000006165E70000006300E820
:102180000000006500E90000006500EA000000654D
:1021900000EB0000006500EC0000006900ED0000AD
:1021A000006900EE0000006900EF0000006900F126
:1021B0000000006E00F20000006F00F30000006FEE
:1021C00000F40000006F00F50000006F00F6000052
:1021D000006F00F80000006F00F90000007500FAC1
:1021E0000000007500FB0000007500FC0000007599
:1021F00000FD0000007900FF0000007900040100EC
:1022000000410005010000610006010000430007D5
:1022100001000063000C01000043000D0100006399
:10222000000E01000044000F0100006400110100D5
:102230000064001901000065001F01000067003004
:102240000100004900310100006900410100004C1B
:1022500000420100006C00430100004E00440100F8
:10226000006E00480100006E005901000072005A23
:1022700001000053005B01000073005F0100007368
:10228000006001000053006101000073006501005F
:102290000074006F01000075007C0100007A007D71
:1022A0000100005A007E0100007A009201000066E1
:1022B00000E302000078008403000027008503008B
:1022C000002700860300004100870300002E0088DD
:1022D00003000045008903000048008A030000490C
:1022E000008C0300004F008E03000059008F030094
:1022F000004F00900300006900910300004100922C
:1023000003000042009303000054009403000034D3
:1023100000950300004500960300005A0097030053
:102320000048009803000030009903000049009A1B
:102330000300004B009B0300005E009C0300004D67
:10234000009D0300004E009E03000033009F030029
:10235000004F00A00300006E00A10300005000A386
:102360000300004500A40300005400A50300005929
:1023700000A60300007000A70300005800A8030097
:10238000005000A90300004F00AA0300004900AB61
:102390000300005900AC0300006100AD03000065BC
:1023A00000AE0300006E00AF0300006900B0030040
:1023B000007600B10300006100B20300004200B3E8
:1023C0000300007600B40300006400B5030000655C
:1023D00000B60300005A00B70300006E00B8030007
:1023E000003000B90300006900BA0300006B00BBB5
:1023F0000300004C00BC0300007500BD0300007624
:1024000000BE0300006500BF0300006F00C00300B2
:10241000006E00C10300007000C20300006300C32F
:102420000300006F00C40300007400C503000076C1
:1024300000C60300007000C70300005800C8030076
:10244000005700C90300007700CA0300006900CBF1
:102450000300007600CC0300006F00CD030000767F
:1024600000CE0300007700010400004500100400C6
:102470000041001104000062001204000042001339
:10248000040000540014040000510015040000452D
:1024900000160400002A001704000045001804007C
:1024A000004E00190400004E001A0400004B001BEF
:1024B00004000054001C0400004D001D04000048EE
:1024C000001E0400004F001F0400006E00200400E6
:1024D00000500021040000430022040000540023A7
:1024E0000400005900240400006F00250400005877
:1024F000002604000055002704000079002804008D
:102500000057002904000057002A04000062002B35
:10251000040000627C2C04000062002D04000065B1
:10252000002E0400007C4F2F040000397C30040092
:102530000061003104000036003204000042003324
:1025400004000072003404000061003504000065DE
:1025500000360400002A003704000065003804003B
:102560000075003904000075003A0400006B003B60
:102570000400006E003C0400006D003D04000048B3
:10258000003E0400006F003F0400006E00400400A5
:102590000070004104000063004204000074004326
:1025A00004000079004404000071704504000078C4
:1025B000004604000075004704000079004804004C
:1025C0000077004904000077004A04000062004BD5
:1025D000040000627C4C04000062004D04000065B1
:1025E000004E0400007C6F4F04000067005104009F
:1025F000006500222000002E001E210000507822DD
:10260000210000544D902100003C2D922100002D0E
:102610003EB02100000300BB21000004003C22006A
:10262000007E00482200007E3D60220000213D61C6
:102630002200003D00642200003C3D652200003E77
:102640003DF12300000700A03000003D0021F30110
:10265000000200C2F401000500A2000000EC00B07E
:10266000000000DF00E4000000E100F6000000EFE1
:1026700000F7000000FD00FC000000F500E3020090
:1026800000EB0087030000A5008F030000F4009812
:10269000030000F2009E030000E300A3030000F625
:1026A00000A9030000F400AC030000E000AD03004B
:1026B00000E300B1030000E000B2030000E200B557
:1026C000030000E300B8030000F200BC030000E4D4
:1026D00000BE030000E300C0030000F700C10300D8
:1026E00000E600C3030000E500902100007F009297
:1026F0002100007E001A220000E8001E220000F3E4
:102700000088250000FF0002300000A1000C30000E
:1027100000A2000D300000A3009B300000DE009CF2
:10272000300000DF00A03000003D00A1300000A715
:1027300000A2300000B100A3300000A800A43000C7
:1027400000B200A5300000A900A6300000B300A729
:10275000300000AA00A8300000B400A9300000AB8F
:1027600000AA300000B500AB300000B600AC30006D
:1027700000B6DEAD300000B700AE300000B7DEAF0F
:10278000300000B800B0300000B8DEB1300000B951
:1027900000B2300000B9DEB3300000BA00B430003F
:1027A00000BADEB5300000BB00B6300000BBDEB7BB
:1027B000300000BC00B8300000BCDEB9300000BD05
:1027C00000BA300000BDDEBB300000BE00BC3000EF
:1027D00000BEDEBD300000BF00BE300000BFDEBF67
:1027E000300000C000C0300000C0DEC1300000C1B9
:1027F00000C2300000C1DEC3300000AF00C43000B2
:1028000000C200C5300000C2DEC6300000C300C7F1
:10281000300000C3DEC8300000C400C9300000C46E
:10282000DECA300000C500CB300000C600CC30004E
:1028300000C700CD300000C800CE300000C900CF76
:10284000300000CA00D0300000CADED1300000CA1B
:10285000DFD2300000CB00D3300000CBDED430001C
:1028600000CBDFD5300000CC00D6300000CCDED766
:10287000300000CCDFD8300000CD00D9300000CDD2
:10288000DEDA300000CDDFDB300000CE00DC3000CF
:1028900000CEDEDD300000CEDFDE300000CF00DF16
:1028A000300000D000E0300000D100E1300000D264
:1028B00000E2300000D300E3300000AC00E4300060
:1028C00000D400E5300000AD00E6300000D500E7A0
:1028D000300000AE00E8300000D600E9300000D73C
:1028E00000EA300000D800EB300000D900EC3000E6
:1028F00000DA00ED300000DB00EF300000DC00F219
:10290000300000A600F3300000DD00F4300000B31A
:10291000DEF7300000DCDEFA300000A6DEFB30001F
:1029200000A500FC300000B000FD300000A400074E
:102930004E0000FB0086510000FC0043530000FAEB
:102940000064FF0000A40065FF0000A50066FF0012
:1029500000A60067FF0000A70068FF0000A800694C
:10296000FF0000A9006AFF0000AA006BFF0000AB97
:10297000006CFF0000AC006DFF0000AD006EFF00BA
:1029800000AE006FFF0000AF0070FF0000B00071EC
:10299000FF0000B10072FF0000B20073FF0000B33F
:1029A0000074FF0000B40075FF0000B50076FF0062
:1029B00000B60077FF0000B70078FF0000B800798C
:1029C000FF0000B9007AFF0000BA007BFF0000BBE7
:1029D000007CFF0000BC007DFF0000BD007EFF000A
:1029E00000BE007FFF0000BF0080FF0000C000812C
:1029F000FF0000C10082FF0000C20083FF0000C38F
:102A00000084FF0000C40085FF0000C50086FF00B1
:102A100000C60087FF0000C70088FF0000C80089CB
:102A2000FF0000C9008AFF0000CA008BFF0000CB36
:102A3000008CFF0000CC008DFF0000CD008EFF0059
:102A400000CE008FFF0000CF0090FF0000D000916B
:102A5000FF0000D10092FF0000D20093FF0000D3DE
:102A60000094FF0000D40095FF0000D50096FF0001
:102A700000D60097FF0000D70098FF0000D800990B
:102A8000FF0000D9009AFF0000DA009BFF0000DB86
:102A9000009CFF0000DC009DFF0000DD009EFF00A9
:102AA00000DE009FFF0000DF00E5FF00005C00008B
:102AB0001C1F11111F00000006191803130C00043D
:102AC0000E1F041C000000000E1315110E00001C48
:102AD00010181705060500040A0A0A0A11110E0C3F
:102AE00012120C00000000001F1511151F00002D10
:102AF0002D2D2D2D2D007C4D61726C696E7C002D6D
:102B00002D2D2D2D2D0000000000010204040000D9
:102B1000001C1C0C04040402010000000000040856
:102B2000100000000000667265736800646F696ED3
:102B300067002066696C653A20004E6F7720007C44
:102B40003C3E5E2B3D3F2F5B5D3B2C2A225C003FD1
:102B50000043616E63656C00496E6974004D3432E8
:102B60003800496E697469616C697A652045455021
:102B7000524F4D0046696C616D656E740054656D11
:102B800070657261747572650053746570732F6D32
:102B90006D004A65726B00416363656C65726174B8
:102BA000696F6E0056656C6F636974790053657464
:102BB00020486F6D65204F66667365747300436FC0
:102BC0006E66696775726174696F6E004D6F7669C4
:102BD0006E672E2E2E004C6576656C696E672044FC
:102BE0006F6E6521004D6F7665205A00473239209F
:102BF0005631004E65787420506F696E74002569F7
:102C0000202F2025750047323920563100436C694A
:102C1000636B20746F20426567696E00486F6D6951
:102C20006E672058595A0053746F7265205365744B
:102C300074696E6773004C6F6164205365747469C6
:102C40006E6773004F6666004F6E00426564204CED
:102C50006576656C696E67004C6576656C204265CB
:102C600064004D6F74696F6E00426564004E6F7A48
:102C70007A6C650046616E20537065656400436F31
:102C80006E66696775726174696F6E00FFFDFCFAAC
:102C9000F8F6F4F2F0EEECEAE9E7E5E3E1E0DEDC99
:102CA000DAD9D7D5D4D2D0CFCDCBCAC8C7C5C3C245
:102CB000C0BFBDBCBAB9B7B6B4B3B2B0AFADACAAC1
:102CC000A9A8A6A5A4A2A1A09E9D9C9A9998979513
:102CD000949392908F8E8D8B8A8988878684838245
:102CE00081807F7E7D7B7A79787776757473727157
:102CF000706F6E6D6C6B6A6968676665646362614C
:102D0000605F5E5D5C5B5A59585857565554535234
:102D10005150504F4E4D4C4B4A4A49484746464504
:102D20004443424241403F3E3E3D3C3B3B3A3938C2
:102D30003837363535343332323130302F2E2E2D70
:102D40002C2B2B2A29292827272625252423232213
:102D5000212120201F1E1E1D1C1C1B1B1A191918A7
:102D600018171616151514131312121111100F0F30
:102D70000E0E0D0D0C0C0B0A0A09090808070706B0
:102D80000605050404030302020100006563686F81
:102D90003A004572726F723A00486F74656E642033
:102DA000746F6F20636F6C640A000A0A42656420C6
:102DB0004C6576656C20436F7272656374696F6EE3
:102DC000204D61747269783A00332D706F696E74AA
:102DD0002070726F62696E6720646F6E652E0A00E4
:102DE00069646C650A00206F662000706F696E74FC
:102DF00020004D616E75616C2047323920004D61B5
:102E00006E75616C204732392061626F727465643F
:102E10000A00202844525952554E29004732392081
:102E20004175746F20426564204C6576656C696EEF
:102E300067003F2856296572626F7365206C65765E
:102E4000656C20696D706C61757369626C652028B2
:102E5000302D34292E0A00416D6178204500416DE6
:102E60006178205A00416D6178205900416D617888
:102E7000205800412D54726176656C00412D5265D9
:102E8000747261637400416363656C004A756E63BC
:102E900074696F6E20446576004573746570732F96
:102EA0006D6D005A73746570732F6D6D0059737476
:102EB0006570732F6D6D005873746570732F6D6D31
:102EC00000416476616E6365642053657474696E55
:102ED0006773006F70656E0054524947474552450D
:102EE00044003A20007A5F6D696E00795F6D617809
:102EF00000785F6D696E005265706F7274696E67FD
:102F000020656E6473746F70207374617475730AD6
:102F100000205A3A0020593A0020436F756E742001
:102F2000583A0020453A00205A3A0020593A0058B1
:102F30003A00486F6D696E67204661696C65640090
:102F40000000484200004842000080405761726E15
:102F5000696E673A20486F6D696E672042756D70C3
:102F60002044697669736F72203C20310A000202A6
:102F7000040000A0400000A0400000004000004805
:102F800043000048430000484300000001000000E7
:102F900001000080005555550000004000333333D8
:102FA00000AAAA2A004992240000002000C7711C30
:102FB0000099991900D1451700555515003BB113DB
:102FC000002449120011111100000010000F0F0F12
:102FD00000E3380E0043790D00CCCC0C00C3300C5C
:102FE00000E8A20B0064210B00AAAA0A00703D0AA7
:102FF000009DD80900427B090092240900DCD30817
:1030000000888808001042080000000800F0C1078E
:10301000008787070075500700711C07003EEB060C
:1030200000A1BC06006990060066660600703E06B8
:10303000006118060017F4050074D105005BB005A7
:1030400000B29005006272050055550500783905FB
:1030500000B81E0500050505004EEC040087D404E9
:1030600000A1BD040090A7040049920400C17D04A2
:1030700000EE690400C7560400444404005C3204B6
:10308000000821040041100400000004003FF00388
:1030900000F8E0030026D20300C3C30300CCB5034D
:1030A000003AA803000A9B0300388E0300C0810386
:1030B000009F750300D0690300505E03001D530399
:1030C0000034480300913D03003333030016290305
:1030D00000381F030097150300300C03000303039F
:1030E000000BFA020049F10200BAE802005CE002BB
:1030F000002DD802002DD0020059C80200B0C00235
:103100000031B90200DAB10200AAAA0200A0A302AB
:1031100000BC9C0200FA9502005C8F0200DF88026E
:103120000082820200457C0200277602002770029E
:1031300000436A02007C640200D05E02003F590234
:1031400000C85302004D6F76652025736D6D000039
:103150004D6F766520302E316D6D004D6F76652098
:10316000316D6D004D6F76652031306D6D004D6FA6
:103170007665204178697300486F74656E642074C9
:103180006F6F20636F6C640045787472756465724C
:10319000004D6F7665205A004D6F76652059004DC1
:1031A0006F76652058005072696E742066726F6D7C
:1031B000204D656469610000002100240027002A79
:1031C000002D003000330001010000040107010A56
:1031D00001554E4C4F41442046494C414D454E54BB
:1031E000004C4F41442046494C414D454E54004609
:1031F000494C414D454E54204348414E4745004CB3
:103200006F61642053657474696E677300526573EF
:10321000746F7265206661696C73616665005374D2
:103220006F72652053657474696E677300507265C0
:10323000686561742041425320436F6E660050728E
:10324000656865617420504C4120436F6E66004193
:103250006476616E6365642053657474696E677328
:10326000004D61696E004D37303220542564004DA9
:1032700036303020423020542564004D3730322023
:103280003B2564004D373031205425640050757261
:103290006765206D6F726500436F6E74696E75654A
:1032A00000524553554D45204F5054494F4E533AC7
:1032B000005052494E54205041555345440020205F
:1032C0004E6F7A7A6C653A20005061726B696E6756
:1032D0002E2E2E0000005761697420666F72006602
:1032E000696C616D656E74206368616E67650074FA
:1032F0006F207374617274005761697420666F7215
:103300000066696C616D656E7420756E6C6F6164CA
:1033100000004E6F7A7A6C652068656174696E672B
:1033200000506C6561736520776169742E2E2E00E4
:1033300000507265737320627574746F6E00746FE1
:103340002068656174206E6F7A7A6C650000496E42
:10335000736572742066696C616D656E7400616E70
:103360006420707265737320627574746F6E00747C
:103370006F20636F6E74696E7565005761697420A4
:10338000666F720066696C616D656E74206C6F614A
:10339000640000507265737320427574746F6E0020
:1033A000746F20726573756D65207072696E74003C
:1033B000005761697420666F72207072696E7400C4
:1033C000746F20726573756D652E2E2E0000576127
:1033D000697420666F720066696C616D656E742039
:1033E00070757267650000313530003A2000350095
:1033F0003A20004245443A4550434F532031303043
:103400004B0052756E617761792057617463683A39
:10341000204F4E004D61782054656D700032373575
:10342000003A20004D696E2054656D700035003AF9
:10343000200045313A204550434F53203130304B26
:10344000002E0A006F70656E206661696C65642CE1
:103450002046696C653A20000042656400453100F1
:10346000626564002C2073797374656D2073746FCA
:103470007070656421204865617465725F49443AE3
:10348000200048656174696E67206661696C6564D7
:1034900000546865726D616C2052756E6177617958
:1034A0000048656174696E67204661696C656400F7
:1034B00048656174696E67206661696C6564005473
:1034C0006865726D616C2052756E6177617900205C
:1034D0002D20496E76616C6964206578747275641C
:1034E0006572206E756D62657220210A0070012C74
:1034F0000190012701B0012201C0011D01F0011856
:10350000011002130130020E016002090190020451
:1035100001C002FF000003FA004003F5008003F041
:1035200000D003EB002004E6007004E100E004DCBE
:10353000004005D700C005D2004006CD00D006C827
:10354000008007C3003008BE00F008B900C009B40D
:1035500000B00AAF00B00BAA00D00CA500000EA06E
:1035600000500F9B00C01096005012910000148C68
:1035700000C0158700B0178200B0197D00D01B78FD
:1035800000001E730040206E0090226900F0246449
:103590000040275F0090295A00E02B5500102E5064
:1035A0000020304B0010324600E033410090353CA3
:1035B000001037370070383200A0392D00B03A289B
:1035C00000A03B2300603C1E00103D1900903D14FC
:1035D00000103E0F00703E0A00C03E0500003F0094
:1035E00000403FFBFF803FF6FFC03FF1FF544845DE
:1035F000524D414C2052554E415741590054686537
:10360000726D616C2052756E6177617900506C65E6
:10361000617365205265736574005052494E54457C
:10362000522048414C5445440025533A202553002C
:103630004B494C4C45442E20005072696E746572A3
:103640002068616C7465642E206B696C6C2829207D
:1036500063616C6C6564210A000000484300004807
:10366000430000484300000000000000000000008C
:1036700000290A002062797465733B20637263201D
:103680000053657474696E67732053746F72656458
:10369000202800220A00556E6B6E6F776E20636FD4
:1036A0006D6D616E643A202200486F6D6520257350
:1036B0002573257320466972737400003CF781F30B
:1036C00011241FBECFEFD1E2DEBFCDBF00E00CBFA3
:1036D00013E0A0E0B2E0E6E9FDE002E00BBF02C0CB
:1036E00007900D92AE35B107D9F724E1AEE5B3E00E
:1036F00001C01D92AE3CB207E1F71BE1CFE5DBE173
:1037000000E006C021970109802FFE010F942906D1
:10371000CE35D10780E00807A9F70E943DED0D9452
:10372000BA060C9400002F923F924F925F926F92D4
:103730007F928F929F92AF92BF92CF92DF92EF9241
:10374000FF920F931F93CF93DF93CDB7DEB7C15591
:10375000D1090FB6F894DEBF0FBECDBF20912C0467
:1037600061962FAF619781E080932C0480912B04A8
:103770008D3409F4A0C2843511F40C94262B8734BF
:1037800011F00C94412B2090290430902A0435E14B
:103790002316310411F40C94432B94F454E02516B1
:1037A000310444F482E0281631040CF004C137FEE1
:1037B0002BC07DC294E02916310409F488C177C278
:1037C000ADE12A16310409F4EBC15CF4EBE12E16ED
:1037D000310409F4BBC1FCE12F16310409F4D0C156
:1037E00066C22BE52216310409F4DEC13CE523163E
:1037F000310409F4DEC14AE52416310409F057C248
:10380000109228040C94432B80912802882311F4F1
:103810000C94432B0E94186988E194E00E940FC821
:1038200080911F0B83FD88C0209166023091670252
:1038300040916802509169026091240470912504BE
:1038400080912604909127040E9495FC882309F416
:1038500073C08091B10481111EC020E030E0A90145
:103860006091B6047091B7048091B8049091B90446
:103870000F940D030F9451042091390230913A02B4
:103880006217730744F40E94D9BF80E498E00E9455
:10389000A8BB11E001C010E02091660230916702E0
:1038A000409168025091690260912404709125044E
:1038B00080912604909127040F940C036B017C01E6
:1038C00020E030E0A9010F94330587FF04C0F7FA28
:1038D000F094F7F8F094209135023091360240913F
:1038E000370250913802C701B6010E94FAFC20E06D
:1038F00030E048E453E40F94330518163CF40E947A
:10390000D9BF81E298E00E94A8BB02C01123A1F0B8
:103910008091240490912504A0912604B09127045D
:103920008093660290936702A0936802B093690245
:1039300084E294E00E9402B72AE037ED43E25CE3C0
:1039400060912402709125028091260290912702B5
:103950000E94FAFC6B017C016091220270912302AB
:10396000072E000C880B990B0E949BFC9B01AC015D
:10397000C701B6010E94FAFC69837A838B839C831A
:10398000C12CD12C76018E010F5F1F4F24E234E051
:1039900040E254E06CE174E088E194E00E9497EB2F
:1039A00080E1E8E1F4E0AAE5B2E001900D928A95A9
:1039B000E1F70C94432B80912802882311F40C9496
:1039C000432B0E94186982E50E949FBA882309F45C
:1039D0004CC00E94EFB96B017C0120E030E0A901EE
:1039E0000E9495FC882311F40C94072C80915A02B4
:1039F00090915B02A0915C02B0915D0288A399A3B3
:103A0000AAA3BBA320915E0230915F0240916002A5
:103A1000509161022CA33DA34EA35FA38090180494
:103A200090901904A0901A04B0901B0440901C04BC
:103A300050901D0460901E0470901F04A501940115
:103A4000BC01CD010E9495FC81110C944C2BA3016B
:103A500092016CA17DA18EA19FA10E9495FC88235B
:103A600011F40C94072C0C944C2B89E40E949FBAFF
:103A7000882329F00E94EFB96B017C0103C0C12C9F
:103A8000D12C76018AE40E949FBA882311F40C9409
:103A90000E2C0E94EFB968A779A78AA79BA720E000
:103AA00030E0A901C701B6010E9495FC81110C9478
:103AB0001B2C20E030E0A90168A579A58AA59BA56B
:103AC0000E9495FC81110C941B2C0C94072C80E512
:103AD0000E949FBA882329F00E94386E6B017C01F6
:103AE00003C0C12CD12C760183E50E949FBA8823A4
:103AF00061F00E94EFB920E030E04AE754E40E9410
:103B0000FAFC0F9456046B017C010E94F1B680917F
:103B1000C303811105C060E082E098E00E947DA5AA
:103B20000E94FED1C60ED71EE81EF91E0E94FED1CD
:103B3000DC01CB018C199D09AE09BF09B7FD02C09C
:103B40000C94432B80E00E94DC5AF0CF0E9490EC52
:103B500081110C94432B8CE0EAE6F2E0DE01119631
:103B600001900D928A95E1F760E070E080E50E9497
:103B7000EC6DBE016F5F7F4F0E94108D0C94432B44
:103B80008091C7148770873011F00C949C2F60E0EF
:103B90008FE40E94BCBA81110C94432B0C949C2F8F
:103BA0000E94EFBB0C94432B8FE0809328040C946D
:103BB000432BA6E72A2EA2E03A2EB7EAEB2EB3E07B
:103BC000FB2EAAE5B2E0B9A3A8A313EBC12E13E024
:103BD000D12E00E010E0F10181911F010E949FBAF7
:103BE000882309F44AC00E94EFB92B013C0113302D
:103BF00049F0D6012D913D914D915C910F940C03AC
:103C00002B013C01E8A1F9A120813181428153813E
:103C1000C301B2010F940C034B015C012DEB37E3A0
:103C200046E855EB0F94330587FD0AC02DEB37E3CB
:103C300046E855E3C501B4010E9495FC1816ECF462
:103C4000133051F44092660250926702609268020B
:103C50007092690201E011C0A5019401D7016D9134
:103C60007D918D919C910F940D03F7016083718379
:103C700082839383812F0E94EFC71F5FF4E0EF0ED2
:103C8000F11C28A139A12C5F3F4F39A328A334E0B0
:103C9000C30ED11C143009F09ECF002321F086E61C
:103CA00092E00E9402B70E94FBC90C94432B0E9431
:103CB000E5EC0C94432B8091290490912A048537DC
:103CC000910509F416C70CF04AC18B34910509F42B
:103CD000BAC40CF079C08831910509F4C4C20CF063
:103CE00049C08231910509F430C66CF497FF02C0D7
:103CF0000C94232B823091050CF40CC2419709F4EB
:103D000081C20C94232B8531910509F48FC22CF5C7
:103D1000449711F00C94232B85ED97E00E94A8BBEB
:103D200080E492E10E941C7A8BE1E0E4F2E1DE01A2
:103D3000119601900D928A95E1F760E070E0CE0156
:103D400001960E94277ACE0101960E94217A86EC84
:103D500097E00E94A8BB0C94432B8631910509F48F
:103D600069C2479711F00C94232BE091A503F091C1
:103D7000A6036DC28D31910509F4EFC2B4F48A3106
:103D8000910509F489C20CF47AC28B31910509F4CA
:103D900091C24C9711F00C94232B8091A503909124
:103DA000A6030E9409770C94432B8F31910509F4E7
:103DB0007DC30CF4D9C28032910509F434C38A97CB
:103DC00009F41FC40C94232B8836910509F447C4C9
:103DD0009CF58235910509F4AAC5F4F48D3491055A
:103DE00009F439C40CF433C48135910511F00C94F5
:103DF000232B0E94987E0E94C75A0E94B4B868EE96
:103E000073E080E090E00E9484BB60E081E996E08E
:103E10000E947DA50C94432B8435910509F495C52A
:103E20000CF48CC58535910509F4BBC58C3591051D
:103E300009F4D0C50C94232B8F36910509F4B2C434
:103E4000ACF48C36910509F4F7C434F48936910545
:103E500009F481C40C94232B8D36910509F422C4F6
:103E60008E36910509F48DC40C94232B813791056E
:103E700009F4EFC40CF4E5C48237910509F434C6A3
:103E80008337910511F00C94232B8DEC95E00E9463
:103E9000A8BB60E08DEB95E00E94D87560E088EAF1
:103EA00095E00E94D87561E081EA95E00E94D8759E
:103EB00061E086E995E00E94D87561E086E895E0CA
:103EC0000E94D87560E08DE795E00E94D87561E0AA
:103ED00083E795E00E94D87560E089E695E00E944E
:103EE000D87560E081E695E00E94D87561E083E5D1
:103EF00095E00E94D87560E085E495E00E94D87551
:103F000060E086E395E00E94D87560E088E295E085
:103F10000E94D87560E082E195E00E94D87560E06B
:103F200081E095E00E94D87560E082EF94E00E9405
:103F3000D87560E08DED94E00E94D87561E08AEC60
:103F400094E00E94D87560E08DEB94E00E94D875F3
:103F500060E089EA94E00E94D8750C94432B8C327F
:103F600041E0940711F40C946F280CF05DC0883C7C
:103F7000910509F46DC644F58937910509F406C623
:103F800074F48737910509F4F6C50CF0F7C5009174
:103F9000A5031091A60394E0F12C40E0D0C581392F
:103FA000910509F4FAC534F48C38910509F473C409
:103FB0000C94232B8B39910509F493C48E3B910506
:103FC00009F47BC40C94232B8E3C910509F4F0C6B4
:103FD000ACF48B3C910509F4ABC634F4893C9105F3
:103FE00009F483C60C94232B8C3C910509F4BFC6BD
:103FF0008D3C910509F4C9C60C94232B8C3D910589
:1040000009F4BEC734F4833D910509F4F3C60C945A
:10401000232B8D3D910509F4C0C7823E910511F413
:104020000C9423280C94232B853FA1E09A0711F4CC
:104030000C94352AC4F58039E1E09E0711F40C9404
:104040004C2994F48E3221E0920711F40C94082943
:1040500014F40C9484288F32914011F00C94232B8B
:104060000E94A2710C94432B843A51E0950711F4FD
:104070000C944F294CF48A39914011F00C94232B65
:104080000E944B570C94432B8C3AE1E09E0711F4AD
:104090000C94D229843F914011F00C94232B0E9460
:1040A0005CE60C94432B883522E0920711F40C94C3
:1040B0005D2AB4F4873F41E0940711F40C943B2A45
:1040C00014F40C94382A883FA1E09A0711F40C9458
:1040D000442A8C30924011F40C94552A0C94232BD2
:1040E0008438E3E09E0711F40C94D92A3CF48B3514
:1040F000924011F40C94602A0C94232B803A33E004
:10410000930709F4C5C1873E934011F40C94152B15
:104110000C94232BA090A503B090A60380E50E94E9
:104120009FBA882359F00E94386E6B017C0111E020
:10413000672B682B692B31F410E004C010E0C12C10
:10414000D12C760183E50E949FBA882311F40C9448
:1041500036300E94EFB920E030E04AE754E40E9494
:10416000FAFC0F9456046B017C0111110BC0672BF4
:10417000682B692B39F4A114B10421F0D5018C917D
:10418000811102C010E001C011E00E94F1B61123BC
:1041900029F061E0C5010E94F4A505C060E08FEE42
:1041A00097E00E947DA583E080932C0481E08093BA
:1041B000A403C114D104E104F104B1F00E94FED1C2
:1041C000C60ED71EE81EF91E0E94FED1DC01CB01EF
:1041D0008C199D09AE09BF09B7FF0EC08091A403D9
:1041E00081110C943B3008C08091A403882321F0F6
:1041F00080E00E94DC5AF8CF0E9419A61092A40316
:104200000C94432B8091A00384FF02C00C94403097
:104210008091A20387FF02C00C9440308091A303D9
:10422000837011F00C9440300C945C300E94CA787A
:104230000C94432B0E94F9768091D113877F809351
:10424000D1130C94432B803209F410823196808173
:104250008111F9CF60E08091A5039091A6030E949F
:1042600053770C94432B0E94CA75882321F00E9437
:104270006B780E94905A0E9419A60C94432B80914F
:10428000D11382FF03C08B7F8093D1130E94B25A57
:104290000E9419A60C94432B8091D11383FD02C078
:1042A0000C94432B83E50E949FBA81110C946A30D1
:1042B0000C94432B83E40E9456BA882319F184E9B5
:1042C00097E00E94A8BB8091EA11882391F0BE017B
:1042D0006F5F7F4F87EE91E10E9417A78E010F5FFE
:1042E0001F4FF80181918F01882339F00E943170AE
:1042F000F8CF8AE897E00E94A8BB8AE00E9431705C
:104300000C94432B8091D11382FF21C083EA97E064
:104310000E94A8BB6091CD137091CE138091CF13F2
:104320009091D0134AE00E9438708FE20E94317061
:104330006091C9137091CA138091CB139091CC13E3
:104340004AE00E9438700E942E710C94432B85EB3A
:1043500097E00E94A8BB0C94432B8091D1138E7FD1
:104360008093D1130C94432B8091D11383FD02C011
:104370000C94432B0E94F3EC8091D11383FD02C077
:104380000C94432B6091A5037091A603CE014C962B
:104390000E94D8DC8C01009711F40C94432B6C8D97
:1043A0007D8D19821C8222E0AC01CE0101960E9413
:1043B0009BAC811102C0F12C14C0CE0101960E9469
:1043C00049DC8823C1F361E0CE0101960E94FBA67F
:1043D000009789F325EEDC012C931C820E94D5D234
:1043E000F82ECE0101960E94217AB801FF2089F0B3
:1043F0008CE797E00E94C4BF8AE00E94317010925F
:10440000CD131092CE131092CF131092D0130C94A0
:10441000432B84E697E00E94C4BF81E697E00E94A8
:10442000A8BB0C94432B8091D11382FD0E94F1B65E
:104430008091D11383FD02C00C94432B60E080E592
:104440000E94BCBA182F682F8091A5039091A603F3
:104450000E94537783E50E949FBA882381F00E94CF
:1044600026BAAB01BC014093CD135093CE13609399
:10447000CF137093D01387EE91E10E94F6D40E947F
:104480006B7811110C94432B0E94905A0C94432B7F
:104490002091A5033091A6039091D113926090933F
:1044A000D113C9010E9409770C94432B0E94415AF1
:1044B0007B018C0120E831E541E050E00F94D1020E
:1044C000C9016DE671E00F94E6054B015C01C8017E
:1044D000B70120E13EE040E050E00F94D102CA0174
:1044E000B90128E130E040E050E00F94D102762E8F
:1044F000672EC62ED72EFCE32F2E312C412C512CAB
:10450000C801B701A20191010F94D102F62EE72E46
:10451000CA01B901A20191010F94D102CB018E0110
:104520000F5F1F4F8114910499F0EF92FF927F93D8
:104530006F936F927F92BF92AF929F928F9280E41F
:1045400097E09F938F931F930F930E942FFC13C0AC
:10455000A114B104B1F0EF92FF927F936F936F9229
:104560007F92BF92AF9280E397E09F938F931F93C8
:104570000F930E942FFC0FB6F894DEBF0FBECDBF85
:1045800030C0CD2879F0EF92FF927F936F936F92B6
:104590007F9284E297E09F938F931F930F930E94E3
:1045A0002FFCE9CF892B69F0EF92FF927F936F93F5
:1045B0008CE197E09F938F931F930F930E942FFCA2
:1045C000DACFEF92FF9288E197E09F938F931F934A
:1045D0000F930E942FFC0F900F900F900F900F9051
:1045E0000F9060E0C8010E94F4A50E94D9BFB801F5
:1045F00084E597E00E94C4BF8AE00E9431700C9469
:10460000432B83E50E949FBA882311F40C94432B1B
:104610000E9436BAF82E6DE070E080E50E94ABBAD9
:104620008C0197FF02C00C94432B60E089E40E9448
:10463000BCBA81110C947B30802F0E940AED81114D
:104640001FC50C947B300E94905A0C94432B0E94FF
:10465000B25A0C94432B0E94C75A0C94432B80915E
:104660001F0B83FF02C00C94432B0E94D16987FF6C
:1046700002C00C94432B83E50E949FBA882379F0F3
:104680000E94EFB90F9451048B01CB010E94157B5E
:104690000635110524F40E94C75A0E9419A60E94EB
:1046A0009BF3F1C780911F0B83FF01C0ECC70E94F1
:1046B000D169F82E87FF01C0E6C783E50E949FBA43
:1046C000082F811106C082E50E949FBA182F882307
:1046D000C1F10E94EFB90F945104CB010E94157BE8
:1046E0000E94EFB920E030E04AEA52E40E9495FCD3
:1046F000181614F40C9489300E94C75A0E9419A607
:104700006091BA047091BB04072E000C880B990BC2
:104710000E949BFC4B015C014090B6045090B70492
:104720006090B8047090B904A30192010F9433050E
:10473000181614F40C94A730002311F40C948D3047
:1047400011E00E949BF3112309F49DC7602F8F2D68
:104750000E949B7B98C70E94D169182F87FD0AC0D1
:104760008BEE96E00E94A8BB812F0E94267B8AE0F8
:104770000E94317061969FAD619790932C040C94C8
:10478000C3338EE40E949FBA882309F47CC70E9439
:1047900026BA60939C0370939D0380939E0390932D
:1047A0009F0371C783E50E9456BA882359F083E5B9
:1047B0000E949FBA882319F00E9436BA01C080E097
:1047C00080931F0B0E94D9BF84EE96E00E94A8BB85
:1047D00080911F0B882369F1EAEDEE2EE6E0FE2EB4
:1047E00000E010E020E080911F0B90E0A0E0B0E03E
:1047F000002E04C0B695A795979587950A94D2F791
:1048000080FF0EC0DD24D394D20E222319F08CE257
:104810000E943170F701859194910E94A8BB2D2DC3
:104820000F5F1F4FA2E0EA0EF11C05301105D9F60B
:1048300064CD86ED96E05FCD1092A4031092200225
:1048400022C741E060E070E088EC96E00E9424EB33
:104850001AC783E50E949FBA882371F00E9436BA76
:10486000282F30E02D3331051CF480931F020BC735
:104870008CE380931F0207C70E94D9BF40911F029B
:1048800050E060E070E081EC96E00E94B7BB8AE007
:104890000E943170F8C680911F0B83FDF4C683E53A
:1048A0000E949FBA882309F4EEC60E94EFB90F94C4
:1048B0005104CB010E942FEDE6C680911F0B83FDB2
:1048C000E2C683E50E949FBA21968FAF219781119E
:1048D0000C94AA3082E50E949FBA81110C94AA30F0
:1048E000D2C683E50E949FBA882309F4CCC60E94F1
:1048F00036BA182F90E0CD970CF01CE3109390037C
:104900000E94FED16B017C01212F30E0A8EEB3E0C4
:104910000F94FD02C60ED71EE81EF91EC0928C032E
:10492000D0928D03E0928E03F0928F03ACC68091FB
:1049300028048F7D806180932804A5C68091280477
:104940008F7E8062809328049EC683E50E949FBA72
:10495000882399F00E94EFB920E030E04AE754E460
:104960000E94FAFC0F94560460931B0270931C0281
:1049700080931D0290931E0286C68091A00384FF3F
:1049800002C00C9444328091A20387FF02C00C94B1
:1049900044328091A303837011F00C9444320C9440
:1049A000753283E50E9456BA882309F46CC60E94CA
:1049B000EFB920E030E04AE754E40E94FAFC0F949B
:1049C0005604609388037093890380938A039093BD
:1049D0008B0359C60E94D16987FD55C69091A003EB
:1049E00094FD04C09091A20397FF0AC046E7C42E2D
:1049F00042E0D42E50E2E52E5BE0F52E10E009C037
:104A00009091A303937091F7682F81E00E94FF6D4E
:104A10003AC6D6018D916D010E949FBA882309F490
:104A200059C0133009F04FC00E94EFB94B015C012F
:104A300020E030E040EA51E40E9495FC87FF3AC054
:104A4000A50194016091400B7091410B8091420B44
:104A50009091430B0F94E9032B013C019B01AC01A6
:104A60006091500B7091510B8091520B9091530BB0
:104A70000E94FAFC6093500B7093510B8093520B81
:104A80009093530B609191047091920480919304E0
:104A9000909194040E9499FCA30192010E94FAFC57
:104AA0000F9456046093910470939204809393043E
:104AB000909394048092400B9092410BA092420BF1
:104AC000B092430B07C00E94EFB9F701648B758B5E
:104AD000868B978B1F5FF4E0EF0EF11C143009F00A
:104AE00098CF0E94CEB6CFC50E94F1B60E94FBC9F6
:104AF000CAC58091A5039091A603009709F4BBCB8A
:104B0000DC012C91222309F4B6CB60E00E94F4A5CD
:104B1000BAC5F8018081282F2B7F213499F0803588
:104B2000E9F4818180538A30C8F498012E5F3F4FA9
:104B300089012F5F3F4FF80180818032C9F3915086
:104B400041F70CC02181213349F4813421F08534AF
:104B500061F741E0EACFFF24F394E7CF41110E94CF
:104B6000D9BFFF2021F085EA94E00E94A8BBC801CC
:104B70000E94327188C50E9410CB85C581E0809368
:104B8000BF038093C0030E9428CB7DC51092BF0352
:104B90001092C0030E9428CB76C560E070E083E5E8
:104BA0000E94ABBA8C011127023011053CF00E9423
:104BB000D6BF83E894E00E94A8BB65C588E40E9444
:104BC0009FBA8823A9F00E9426BA6A3A71053CF080
:104BD0006530F1E07F072CF064E071E002C06AEA22
:104BE00070E0F801EE0FFF1FEC57FC4F71836083FC
:104BF00086E40E949FBA882381F00E9426BA77FD3E
:104C000007C06F3F710529F024F06FEF70E001C01D
:104C100060E0F801EE57FC4F608382E40E949FBA87
:104C2000882309F430C50E9426BA6530710534F036
:104C30006D3871052CF06CE870E002C065E070E042
:104C4000000F111FF801E258FC4F718360831BC5F0
:104C50000E94D169182F87FD16C584E40E9456BAB8
:104C6000882309F43FC00E94EFB96B017C0101E089
:104C700020E030E0A9010E9495FC811101C000E014
:104C800000937D0320E030E0A901C701B6010E9436
:104C900095FC882339F10E94EFB924E01202F0015B
:104CA0001124E758FC4F608371838283938320E053
:104CB00030E0A9016091790370917A0380917B03C0
:104CC00090917C030E9495FC81110CC080E090E0E3
:104CD000A0EEBFE38093790390937A03A0937B03C4
:104CE000B0937C030E949BB3CEC40E94D16987FD20
:104CF000CAC496E7E92E92E0F92E00E21BE0D70144
:104D00008D917D010E9456BA882359F00E94EFB917
:104D10000F945604F80160837183828393830E9409
:104D200057B60C5F1F4FFBE000331F0741F7ABC4C2
:104D30000E94D16987FDA7C486E7E82E82E0F82E9D
:104D400000E21BE0D7018D917D010E9456BA8823B5
:104D500039F00E94EFB9F80164A375A386A397A365
:104D60000C5F1F4FFBE000331F0761F78CC480917D
:104D7000A10387FF02C00C9478328091A2038E7049
:104D800011F00C9478320C94BE328091A00381FF14
:104D900002C00C94E6328091A10381FF02C00C9402
:104DA000E6328091A2038C7011F00C94E6326BC451
:104DB00016E7C12E12E0D12E0DE6E02E03E0F02E14
:104DC00010E0D6018D916D010E9456BA882351F0F2
:104DD0000E94EFB9F7016083718382839383812FEF
:104DE0000E94EFC71F5FF4E0EF0EF11C133049F78C
:104DF0000C94531E4090B3035090B4036090B503DD
:104E00007090B60320910302309104024091050294
:104E100050910602C301B2010F940D0368A379A358
:104E20008AA39BA38090B7039090B803A090B90386
:104E3000B090BA0320910702309108024091090214
:104E400050910A02C501B4010F940D036CA37DA318
:104E50008EA39FA3C090BB03D090BC03E090BD0382
:104E6000F090BE0320910B0230910C0240910D0294
:104E700050910E02C701B6010F940D0368A779A7E0
:104E80008AA79BA720910F02309110024091110236
:104E900050911202C301B2010F940D032B013C018A
:104EA0002091130230911402409115025091160284
:104EB000C501B4010F940D034B015C012091170251
:104EC000309118024091190250911A02C701B6019F
:104ED0000F940D036B017C010E94D9BF8EE394E017
:104EE0000E94A8BB83E50E9456BA882321F00E9445
:104EF00047BA8093020280910202882319F080E26F
:104F000094E002C08CE194E00E94A8BB86E394E0A8
:104F10000E94A8BB48A159A16AA17BA189E294E0A3
:104F20000E94D3BB4CA15DA16EA17FA186E294E05B
:104F30000E94D3BB48A559A56AA57BA583E294E04E
:104F40000E94D3BB84E394E00E94A8BB8CE294E06F
:104F50000E94A8BBB301A20189E294E00E94D3BBE6
:104F6000B501A40186E294E00E94D3BBB701A6017B
:104F700083E294E00E94D3BB8AE00E94317083C335
:104F800083E50E949FBA882309F47DC30E9426BA54
:104F9000709323026093220276C30E94D169F82E97
:104FA00087FD71C383E50E949FBA0F2D0F2C000C63
:104FB000110B882369F10E9426BAF801EE0FFF1F3A
:104FC000E050FE4F71836083000F111F000F111F0F
:104FD00098012B5C3D4F7901072E000C880B990B33
:104FE0000E949BFC2AE037ED43E25CE30E94FAFC5E
:104FF000F801E759FC4F20813181428153810E94A1
:10500000FAFCD7016D937D938D939C9313973BC3CB
:105010000E94D9BF85E40E94317080E38F0D0E9409
:105020003170F801EE0FFF1FE050FE4F608171817B
:1050300084E194E00E94E3BB85E20E9431708AE043
:105040000E94317020C380E50E9456BA882309F47B
:105050001AC360E070E080E50E94ABBAF82E6FEFF3
:105060007FEF83E50E94ABBA8C010196039708F0AD
:105070000AC3F7FC08C38F2D0E940AED882339F07C
:105080000E94D6BF89E097E00E94A8BBFCC20E94A4
:10509000F1B660E08F2D0E94C2D00F3FBFEF1B071B
:1050A00031F00130110571F000E010E00DC08F2DDE
:1050B0000E94B79931E020E0892B09F030E0032FFE
:1050C000122F02C001E010E08F2D0E94B7998017C7
:1050D000910709F4D8C280E00E94DC5AF5CF64E061
:1050E00071E083E50E94EC6D8C0168EE73E080E571
:1050F0000E94EC6D8938E3E19E0710F088E893E1A7
:10510000B8010E940D8EBFC285E40E949FBA811132
:1051100010C080E50E9456BA8823B1F00E94EFB912
:105120006093BD047093BE048093BF049093C00449
:105130000BC00E9436BA882361F30E94D6BF86EF67
:1051400093E00E94A8BB9FC289E40E9456BA8823BC
:1051500081F00E94EFB92CEA35EC47E25EE30E9451
:10516000FAFC6093C1047093C2048093C3049093CB
:10517000C40484E40E9456BA882381F00E94EFB9E7
:105180002CEA35EC47E25EE30F94E9036093C50433
:105190007093C6048093C7049093C8040E94D9BF3B
:1051A0004091BD045091BE046091BF047091C00451
:1051B00080E194E00E94D3BB2CEA35EC47E25EE349
:1051C0006091C1047091C2048091C3049091C404A1
:1051D0000F94E903AB01BC018CE094E00E94D3BBC7
:1051E0002CEA35EC47E25EE36091C5047091C60499
:1051F0008091C7049091C8040E94FAFCAB01BC01E5
:1052000088E094E00E94D3BB8AE00E9431703BC2E8
:1052100083E50E9456BA182F882371F00E94EFB9D7
:105220000F94510470933A026093390221E0672B86
:1052300009F020E02093B10480E50E9456BA88234B
:1052400059F02091390230913A02232B11F00E943B
:1052500047BA8093B10417C2111115C20E94D9BF79
:1052600083EE93E00E94A8BB8091B104882319F0DB
:105270008BEC93E002C087EC93E00E94A8BB6091A6
:10528000390270913A0282ED93E00E94E3BB8EEC0A
:1052900093E00E94A8BBF7C10E94F1B6F4C183E578
:1052A0000E9456BA882349F00E9447BA182F8111EC
:1052B00006C080E00E94CEBA02C010916803409000
:1052C0005A0250905B0260905C0270905D02809088
:1052D0005E0290905F02A0906002B0906102C09068
:1052E0006202D0906302E0906402F090650286E56D
:1052F0000E9456BA882321F08AEA93E00E944BEC80
:10530000812F0E94CEBA112351F080916803811140
:1053100006C00E94D6BF8BE893E00E94A8BB0E9403
:10532000D9BF8DE793E00E94A8BB809168038823D2
:1053300019F080E294E002C08CE194E00E94A8BBE6
:105340008AE00E94317020915A0230915B024091B4
:105350005C0250915D02C301B2010E9495FC811173
:105360000C94531E20915E0230915F0240916002C6
:1053700050916102C501B4010E9495FC81110C9409
:10538000531E209162023091630240916402509159
:105390006502C701B6010E9495FC882309F473C118
:1053A0000C94531E0E9490EC81116DC101E713E033
:1053B0002AE532E039A328A3AE014F5F5F4F1A01FF
:1053C0004EE6C42E43E0D42E7101F801659175912B
:1053D00085919491A8A1B9A18D909D90AD90BD901B
:1053E000B9A3A8A3A50194010F940C032B013C01C0
:1053F000F701608371838283938320E030E040EA89
:1054000051EC0F94330587FD0AC020E030E040EAFC
:1054100051E4C301B2010E9495FC181634F4F60160
:105420008491181614F40C946B33D7018D909D90D1
:10543000AD90BD907D0120E030E040EA51ECC50127
:10544000B4010F94330587FF02C00C94AE3320E003
:1054500030E040EA51E4C501B4010E9495FC181601
:1054600014F00C9477330C94AE330E94AB990BC1BB
:105470000E945C9008C161E083E50E94BCBA91E0A3
:1054800089270E947791FFC081E0809367030E9483
:10549000EC9310926703882309F4F5C00E94D9BFEA
:1054A00087E293E00E94A8BBEEC08091D11382FFF7
:1054B000EAC080648093D113E6C00E94F769E3C01C
:1054C0000E94D169082F87FDDEC085E50E9456BA8B
:1054D0008823B1F1E02E002E000CFF080E94EFB9E6
:1054E0004B015C0120E030E0A9010F94330587FFF8
:1054F00004C0B7FAB094B7F8B094C70123E0880F9E
:10550000991F2A95E1F79C01215A3C4F7901D90155
:105510008D929D92AD92BC92139720E030E048E4CA
:1055200053E4C501B4010F94330518164CF480E020
:1055300090E0A8E4B3E4F70180839183A283B3836E
:105540008CE40E9456BA882309F49DC0002E000CFA
:10555000110B0E94EFB96B017C0120E030E0A90142
:105560000F94330587FF04C0F7FAF094F7F8F0942E
:1055700020E030E048E453E4C701B6010F9433055E
:10558000980193E0220F331F9A95E1F7F901E15A50
:10559000FC4F18162CF0C482D582E682F78273C0C5
:1055A00080E090E0A8E4B3E484839583A683B78386
:1055B0006AC08BE40E949FBA882329F10E94EFB948
:1055C0006B017C0120E030E0A9010F94330587FDD9
:1055D00015C020E030E040E251E4C701B6010E946E
:1055E00095FC18165CF00E94F1B6C092C904D092E6
:1055F000CA04E092CB04F092CC0445C08DEF92E057
:105600000E94A8BB40C00E94D9BF4091C9045091DC
:10561000CA046091CB047091CC048CE193E00E94A9
:10562000D3BB8AE00E9431702EC081E080932802B3
:1056300010925E0360E083E50E94BCBA811123C032
:105640000E94FE7520C00E94E5EC1DC00091290457
:1056500010912A040023B9F00E94D9BF84E50E946A
:105660003170B8017727072E000C880B990B0E9428
:10567000A37080E20E9431708BEE92E00E94A8BB82
:1056800002C00E94E5EC0E94EF756196FFAD619744
:10569000F0932C040C94C33311E022E02216310461
:1056A00009F010E020E030E0A901C701B6010E9436
:1056B00095FC881F8827881F1813A4C080E090E0FD
:1056C000A0E8BFE388A799A7AAA7BBA728A139A1EB
:1056D0004AA15BA1C501B4010F940C0320E030E0A6
:1056E00040E05FE30E94FAFC68A379A38AA39BA32E
:1056F0002CA13DA14EA15FA1C301B2010F940C03E7
:1057000020E030E040E05FE30E94FAFC6CA37DA360
:105710008EA39FA328A139A14AA15BA1CA01B90107
:105720000E94FAFC4B015C012CA13DA14EA15FA19E
:10573000CA01B9010E94FAFC9B01AC01C501B40188
:105740000F940D030F9479054B015C019B01AC0193
:10575000C701B6010F940C032B013C01A501940174
:10576000C701B6010F940D039B01AC01C301B20147
:105770000E94FAFC6B017C0120E030E0A9010F944B
:10578000330587FD07C0C701B6010F9479052B01CA
:105790003C0103C0412C512C32016CA17DA18EA192
:1057A0009FA19058A50194010F94E90328A539A55C
:1057B0004AA55BA50E94FAFCA30192010E94FAFC93
:1057C00028A139A14AA15BA10F940D036B017C01B3
:1057D000A501940168A179A18AA19BA10F94E90375
:1057E00028A539A54AA55BA50E94FAFCA301920150
:1057F0000E94FAFC2CA13DA14EA15FA10F940D03C4
:105800000C944B1D80E090E0A0E8BFEB5BCF0E94C2
:10581000D6BF8BE098E00E94A8BB35CF20E030E0F7
:10582000A901C701B6010E9495FC882381F318A63F
:1058300019A61AA61BA6A7019601505828A339A39A
:105840004AA35BA388A599A5AAA5BBA5B0588CA31C
:105850009DA3AEA3BFA3CA01B9010E94FAFC4B01EC
:105860005C012CA13DA14EA15FA1CA01B9010E941A
:10587000FAFC9B01AC01C501B4010F940D030F9418
:1058800079056CAF7DAF8EAF9FAF20915A023091FA
:105890005B0240915C0250915D022CAB3DAB4EAB84
:1058A0005FABA70196016CA97DA98EA99FA90F9452
:1058B0000D0324966CAF7DAF8EAF9FAF2497809180
:1058C0005E0290915F02A0916002B09161028CA78C
:1058D0009DA7AEA7BFA728A539A54AA55BA5BC0172
:1058E000CD010F940D0328966CAF7DAF8EAF9FAFA7
:1058F0002897209118043091190440911A0450916E
:105900001B0428AB39AB4AAB5BAB24962CAD3DAD49
:105910004EAD5FAD249768A979A98AA99BA90F9478
:105920000C036B017C0180911C0490911D04A091DB
:105930001E04B0911F0488AF99AFAAAFBBAF2896E1
:105940002CAD3DAD4EAD5FAD2897BC01CD010F94A0
:105950000C034B015C01A701960168A179A18AA102
:105960009BA10E94FAFC2B013C01A50194016CA1B2
:105970007DA18EA19FA10E94FAFC9B01AC01C301F5
:10598000B2010F940D032B013C01A501940168A104
:1059900079A18AA19BA10E94FAFC4B015C01A7019D
:1059A00096016CA17DA18EA19FA10E94FAFC9B0192
:1059B000AC01C501B4010F940C03A30192010F9433
:1059C00080036B017C0120E030E0A9010E9495FC7E
:1059D00087FF0AC02BED3FE049EC50E4C701B60158
:1059E0000F940D036B017C012BED3FE049EC50E47B
:1059F000C701B6010F94E90320E030E040EC51E428
:105A00000E94FAFC0F94D3030F9456048B01672B6A
:105A100011F401E010E092E02916310451F42BED6D
:105A20003FE049EC50E4C701B6010F940C036B0151
:105A30007C0120E030E0A901C701B6010E9495FC7D
:105A4000811122C028A939A94AA95BA96CA97DA9FD
:105A50008EA99FA90E9495FC811116C028AD39AD71
:105A60004AAD5BAD6CA57DA58EA59FA50E9495FC5A
:105A700081110AC008E110E03BEDC32E3FE0D32EB8
:105A800039ECE32E30E4F32E209162023091630270
:105A900040916402509165022CA73DA74EA75FA7D5
:105AA000609120047091210480912204909123043C
:105AB0000F940C034B015C01A70196016CAD7DAD09
:105AC0008EAD9FAD0E94FAFC2B013C0120E030E03E
:105AD000A901C501B4010E9495FC8823C9F0A30166
