:100000000C9469160C949A160C949A160C949A16E1
:100010000C949A160C949A160C949A160C949A16A0
:100020000C949A160C949A160C949A160C949A1690
:100030000C949A160C949A160C949A160C949A1680
:100040000C949A160C9487E00C949A160C949A16B9
:100050000C949A160C949A160C9439A50C9405C716
:100060000C949A160C94CED40C949A160C949A165E
:100070000C949A160C949A160C949A160C949A1640
:100080000C949A160C949A160C949A160C949A1630
:100090000C949A160C949A160C949A160C949A1620
:1000A0000C949A160C949A160C949A160C949A1610
:1000B0000C949A160C949A160C949A160C949A1600
:1000C0000C949A160C949A160C949A160C949A16F0
:1000D0000C949A160C949A160C949A160C949A16E0
:1000E0000C949A1636821C821F82228225823182CB
:1000F000288242822B822E8282C585C574C578C52E
:100100007EC5BCC589C58DC593C597C59BC5A1C511
:10011000A5C5A9C5BCC5AFC5B3C5B7C521C626C64B
:100120002BC635C63FC6B8C649C651C659C663C6F2
:100130006DC677C686C690C6B8C69AC6A4C6AEC6F1
:10014000084AD73B3BCE016E84BCBFFDC12F3D6C3E
:1001500074319ABD56833DDA3D00C77F11BED9E4A4
:10016000BB4C3E916BAAAABE000000803F05A84C84
:10017000CDB2D44EB93836A9020C50B99186880850
:100180003CA6AAAA2ABE000000803F004E414E496C
:100190004E495459494E46CDCCCC3D0AD7233C1745
:1001A000B7D13877CC2B329595E6241FB14F0A0092
:1001B0000020410000C84200401C4620BCBE4CCA82
:1001C0001B0E5AAEC59D74434F4D4D554E4943418C
:1001D00054494F4E0044525952554E004552524FC9
:1001E000525300494E464F004543484F0047322F77
:1001F00047332062616420706172616D657465725D
:10020000730A00536C6565702E2E2E00436C696373
:100210006B20746F20726573756D652E2E2E004EE7
:100220006F206D6F76652E00456E642066696C6583
:10023000206C6973740A00426567696E2066696C98
:1002400065206C6973740A00286E6F2066696C659E
:1002500029005344207072696E74696E6720627958
:10026000746520004E6F74205344207072696E7460
:10027000696E670A0043757272656E742066696CF8
:10028000653A200046696C652064656C6574656438
:100290003A0044656C6574696F6E206661696C65CF
:1002A000642C2046696C653A200025697300256935
:1002B0006D20256973002569682025696D202569F1
:1002C0007300256964202569682025696D202569EA
:1002D00073002569792025696420256968202569CE
:1002E0006D20256973005072696E742074696D65A4
:1002F0003A2000E801E301DC01D501C7016F666621
:100300000044454255473A004B494C4C45442E2049
:10031000004D3131332053006F6B00524631303085
:10032000204F66662E002C20002C20005448455299
:100330004D414C5F50524F54454354494F4E00413C
:1003400055544F5245504F52545F53445F5354419C
:1003500054555300454D455247454E43595F504112
:100360005253455200434153455F4C494748545FFF
:100370004252494748544E45535300544F47474C07
:10038000455F4C494748545300534F4654574152D8
:10039000455F504F574552004255494C445F5045C8
:1003A0005243454E54004C4556454C494E475F44D8
:1003B000415441005A5F50524F4245004155544FFD
:1003C0004C4556454C005052494E545F4A4F4200EE
:1003D00050524F4752455353004155544F52455088
:1003E0004F52545F54454D5000564F4C554D455457
:1003F00052494300454550524F4D005345524941E3
:100400004C5F584F4E5F584F4646004649524D5735
:100410004152455F4E414D453A4D61726C696E20C7
:10042000312E312E3920284769746875622920538E
:100430004F555243455F434F44455F55524C3A68D0
:10044000747470733A2F2F6769746875622E636FC6
:100450006D2F4D61726C696E4669726D7761726560
:100460002F4D61726C696E2050524F544F434F4C68
:100470005F56455253494F4E3A312E30204D41433D
:1004800048494E455F545950453A52463130302024
:1004900045585452554445525F434F554E543A3196
:1004A00020555549443A63656465326132662D349E
:1004B0003161322D343734382D396231322D633584
:1004C000356336326633363766660A002F2F2000D2
:1004D0004D31343520533C696E6465783E206F752C
:1004E00074206F662072616E67652028302D312977
:1004F0000A00205400205200416363656C657261FC
:1005000074696F6E3A2050004F666673657473208D
:100510006170706C696564004572723A20546F6F47
:10052000206661722100546F6F20666172206672CE
:100530006F6D207265666572656E636520706F69A8
:100540006E740A00205A00205900580020204D6186
:10055000783A2000205A00205900580020204D6988
:100560006E3A20004F6E20004F666600536F66742F
:1005700020656E6473746F70733A200020466C6F50
:10058000773A2000000136372603FFFFFF353C3D58
:1005900038FF0FFFFF312E303E12FFFFFFFF28FF15
:1005A0000C08FFFFFFFF1A1C18FFFF2A08440A0966
:1005B0004320643A0020693A0020703A00496E7680
:1005C000616C69642065787472756465720A0043B1
:1005D000290A0061626C656420286D696E2074656B
:1005E0006D702000436F6C6420657874727564656B
:1005F000732061726520004E6F2063617365206C0B
:10060000696768740A00426564204C6576656C69A8
:100610006E6720004661696C656420746F20656EAA
:1006200061626C6520426564204C6576656C696E1C
:10063000670A00426564204C6576656C20436F72E2
:1006400072656374696F6E204D61747269783A00E7
:10065000454550524F4D204F4B0A003F4B2076618D
:100660006C7565206F7574206F662072616E6765AA
:100670002028302D3130292E0A00416476616E63C6
:1006800065204B3D0041637469766520457874723E
:10069000756465723A2000496E76616C6964206504
:1006A000787472756465720A0024F4D43050C38E75
:1006B00020C2A24017828B7011127A910D816CD9E1
:1006C0000AA861E108C7586607615143061E4B5DE1
:1006D00005C145A7041A411104093D980371393138
:1006E000034036DB0265339102D4305402802E1D64
:1006F00002632CEE01752AC501B028A001102781E4
:10070000018F2564012B244B01E0223401AC211F11
:10071000018D200D01801FFC00841EED00971DDF60
:1007200000B81CD200E61BC600201BBC00641AB235
:1007300000B219A8000A19A0006A189900D11791EF
:100740000040178B00B516840031167E00B3157972
:10075000003A157300C7146F0058146A00EE136650
:10076000008813630025135E00C7125B006C1257EC
:100770000015125400C111510070114F0021114B8E
:1007800000D61049008D1047004610440002104268
:1007900000C00F4000800F3E00420F3C00060F3BA0
:1007A00000CB0E3800930E37005C0E3500270E3458
:1007B00000F30D3200C10D3100900D3000600D2EA0
:1007C00000320D2D00050D2C00D90C2B00AE0C298C
:1007D00000850C29005C0C2700350C27000E0C2628
:1007E00000E80B2400C40B2400A00B23007D0B2386
:1007F000005A0B2100390B2100180B2000F80A1FAA
:1008000000D90A1E00BB0A1E009D0A1D00800A1D99
:1008100000630A1C00470A1B002C0A1B00110A1A5D
:1008200000F7091A00DD091900C4091900AB0919FC
:1008300000920917007B091800630917004C09167C
:100840000036091600200916000A091500F50815DA
:1008500000E0081400CC081400B8081400A4081420
:1008600000900813007D0812006B0813005808124E
:100870000046081200340811002308110012081164
:100880000001081100F0071000E0071000D0071069
:1008900000C0071000B0070F00A107100091070E5D
:1008A0000083070F0074070F0065070E0057070E3F
:1008B0000049070E003B070D002E070E0020070D14
:1008C0000013070D0006070D00F9060C00ED060DDC
:1008D00000E0060C00D4060C00C8060C00BC060C98
:1008E00000B0060C00A4060B0099060C008D060B48
:1008F0000082060B0077060B006C060B0061060AEF
:100900000057060B004C060A0042060A0038060A89
:10091000002E060A0024060A001A060A001006091C
:100920000007060A00FD050900F4050900EB0509AA
:1009300000E2050900D9050900D0050900C705092D
:1009400000BE050900B5050800AD050800A50509AC
:10095000009C050800940508008C05080084050823
:10096000007C050800740508006C05070065050893
:10097000005D050700560508004E050700470507FE
:10098000004005080038050700310507002A050763
:1009900000230507001C050600160507000F0507C4
:1009A000000805060002050700FB040600F5040721
:1009B00000EE040600E8040600E2040700DB04067B
:1009C00000D5040600CF040600C9040600C30406CF
:1009D00000BD040600B7040600B1040500AC04061F
:1009E00000A6040600A00405009B0406009504056B
:1009F00000900406008A04050085040500800406B2
:100A0000007A04050075040500700405006B0405F8
:100A10000066040500610405005C04050057040538
:100A200000520405004D0405004804050043040578
:100A3000003E0404003A04050035040500300404B7
:100A4000002C04050027040400230405001E0404F0
:100A5000001A04040016040500110404000D040427
:100A600000090405000404040000040400FC03045D
:100A700000F8030400F4030400F0030400EC030492
:100A800000E8030400E4030400E0030400DC0304C2
:100A900000D8030400D4030400D0030400CC0304F2
:100AA00000C8030300C503030024F404D9201BC4B9
:100AB0000C5C0E9804C4095F0265077101F405F926
:100AC00000FB04B30048048700C1036900580355C4
:100AD0000003034500BE023A008402310053022A9B
:100AE000002902250004022000E4011C00C80119AD
:100AF00000AF011700980114008401130071011068
:100B0000006101100051010E0043010D0036010B80
:100B1000002B010B0020010B00150109000C01093D
:100B20000003010800FB000800F3000800EB0007C9
:100B300000E4000600DE000600D8000600D2000631
:100B400000CC000500C7000500C2000500BD000480
:100B500000B9000400B5000400B1000400AD0004B9
:100B600000A9000400A5000300A20003009F0004E8
:100B7000009B00030098000300950002009300030F
:100B800000900003008D0002008B0003008800022B
:100B9000008600020084000300810002007F000242
:100BA000007D0002007B0002007900020077000156
:100BB0000076000200740002007200010071000261
:100BC000006F0002006D0001006C0002006A00016D
:100BD0000069000200670001006600010065000175
:100BE0000064000200620001006100010060000179
:100BF000005F0002005D0001005C0001005B00017D
:100C0000005A00010059000100580001005700017E
:100C1000005600010055000100540001005300007F
:100C2000005300010052000100510001005000017A
:100C3000004F0001004E0000004E0001004D000179
:100C4000004C0001004B0000004B0001004A000175
:100C50000049000100480000004800010047000171
:100C6000004600000046000100450000004500016C
:100C70000044000100430000004300010042000066
:100C8000004200010041000000410001004000015D
:100C9000003F0000003F0001003E0000003E000158
:100CA000003D0000003D0001003C0000003C000051
:100CB000003C0001003B0000003B0001003A000046
:100CC000003A00010039000000390001003800003E
:100CD0000038000000380001003700000037000134
:100CE000003600000036000000360001003500002C
:100CF0000035000000350001003400000034000021
:100D00000034000100330000003300000033000114
:100D1000003200000032000000320001003100000B
:100D20000031000000310001003000000030000000
:100D300000300001002F0000002F0000002F0000F5
:100D4000002F0001002E0000002E0000002E0001E8
:100D5000002D0000002D0000002D0000002D0001DE
:100D6000002C0000002C0000002C0000002C0001D2
:100D7000002B0000002B0000002B0000002B0001C6
:100D8000002A0000002A0000002A0000002A0001BA
:100D900000290000002900000029000000290000AF
:100DA00000290001002800000028000000280000A1
:100DB0000028000000280001002700000027000094
:100DC0000027000000270000002700010026000087
:100DD000002600000026000000260000002600017A
:100DE000002500000025000000250000002500006F
:100DF0000025000000250001002400000024000060
:100E00000024000000240000002400010023000052
:100E10000023000000230000002300000023000046
:100E20000023000000230001002200000022000037
:100E30000022000000220000002200000022000129
:100E4000002100000021000000210000002100001E
:100E5000002100000021000000210001002000000E
:100E60000020000000200000002000000020000002
:100E7000002000000020000000200001001F0000F2
:100E8000001F0000001F0000001F0000001F0000E6
:100E9000001F0000001F0001001E0000001E0000D7
:100EA000001E0000001E000000232C0000B82200DD
:100EB00000561800003A0F0000B8080000B1040006
:100EC00000710200003E0100004572726F722077CF
:100ED000726974696E6720746F20454550524F4D9A
:100EE000210A00454550524F4D2064617461736979
:100EF0007A65206572726F722E0A00290A002062DC
:100F0000797465733B206372632000536574746960
:100F10006E67732053746F726564202800290A007D
:100F20002062797465733B206372632000207374C0
:100F30006F7265642073657474696E67732072657F
:100F400074726965766564202800202863616C638B
:100F5000756C6174656429210A0020213D200045DB
:100F60004550524F4D20435243206D69736D61745B
:100F70006368202D202873746F7265642920002017
:100F800053697A653A2000496E6465783A200020FA
:100F90004D61726C696E3D563535290A002845450C
:100FA00050524F4D3D00454550524F4D2076657291
:100FB00073696F6E206D69736D61746368200025BD
:100FC000753A2530327500253032753A2530327544
:100FD000002D2D2D00534400202020202020002013
:100FE0002020200052463130302052656164792E35
:100FF000005072696E74696E672E2E2E00507269F1
:101000006E7420706175736564005072696E74202F
:1010100061626F72746564004E6F20534420636197
:101020007264005072696E742066726F6D20534452
:101030000053746F70207072696E7400526573751E
:101040006D65207072696E740041626F7574205016
:1010500072696E7465720050617573652070726993
:101060006E7400436F6E74726F6C005072657061C5
:1010700072650054756E6500496E666F2073637209
:1010800065656E004368616E67652066696C616DB9
:10109000656E74004368616E67652066696C616D9A
:1010A000656E74004D36303020423000466C6F77EC
:1010B00000466C6F77004E6F7A7A6C65004E6F7ADF
:1010C0007A6C6500537065656400537065656400F3
:1010D0004D61696E007C3C3E5E2B3D3F2F5B5D3B6E
:1010E0002C2A225C00486F6D696E67206661696C0E
:1010F0006564000A0A426564204C6576656C20438D
:101100006F7272656374696F6E204D617472697875
:101110003A00332D706F696E742070726F62696E61
:101120006720646F6E652E0A00206F662000706F66
:10113000696E74200069646C650A004D616E7561AA
:101140006C2047323920004D616E75616C2047324A
:10115000392061626F727465640A00202844525914
:1011600052554E2900473239204175746F2042652F
:1011700064204C6576656C696E67003F285629656A
:1011800072626F7365206C6576656C206973206987
:101190006D706C61757369626C652028302D34291F
:1011A0002E0A0050726F7465637465642050696E16
:1011B0000A0020573A004520436F6F6C696E672E16
:1011C0002E2E00452048656174696E672E2E2E0014
:1011D000205A3A0020593A0020436F756E74205807
:1011E0003A0020453A00205A3A0020593A00583A2D
:1011F0000020746F6F206C6F6E6720657874727555
:1012000073696F6E2070726576656E7465640A002E
:1012100020636F6C6420657874727573696F6E20DB
:1012200070726576656E7465640A000000220025A0
:101230000028002B002E00310034000201000005C0
:101240000108010B01000020002300260029002CCA
:10125000002F003200000100000301060109010512
:10126000050505070508080808020202020A0A081F
:101270000804040404010101010101010103030345
:101280000303030303040707070C0C0C0C0C0C0CE2
:101290000C0202020206060606060606060B0B0BE9
:1012A0000B0B0B0B0B010210202008081020401024
:1012B000204080020102010804020101020408101A
:1012C0002040808040201008040201800402018038
:1012D0004020100804020108040201010204081061
:1012E000204080010204081020408000000A0B0208
:1012F000090C0D0E080703040100000000000000A7
:1013000000000000000000000000000000000000DD
:10131000000000000000001211100000000000009A
:1013200000000000000000000000000000000000BD
:101330000000000000010204040000001C1C0C045A
:101340000404020100000000000408100000000076
:10135000002D2D2D2D2D2D007C4D61726C696E7C24
:10136000002D2D2D2D2D2D00687474703A2F2F6DAA
:1013700061726C696E66772E6F7267006874747044
:101380003A2F2F6D61726C696E66772E6F726700EF
:1013900020312E312E39002020506C616E6E657226
:1013A00042756666657242797465733A200020461C
:1013B000726565204D656D6F72793A2000436F6DDF
:1013C00070696C65643A204F637420313820323084
:1013D00031390A00207C20417574686F723A2028E8
:1013E0006E6F6E652C2064656661756C7420636F2A
:1013F0006E666967290A00323031382D30382D3059
:101400003100204C61737420557064617465643AD6
:101410002000312E312E390A004D61726C696E0048
:1014200020536F6674776172652052657365740A24
:1014300000205761746368646F6720526573657438
:101440000A002042726F776E206F757420526573A8
:1014500065740A002045787465726E616C2052656F
:101460007365740A00506F77657255700A00737463
:101470006172740A006175746F25692E6700657268
:10148000726F722077726974696E6720746F20665C
:10149000696C650A00456E6473746F707320256310
:1014A00020256320256320256300205A3A00205917
:1014B0003A0020583A00656E6473746F7073206848
:1014C00069743A2000446F6E6520736176696E67B7
:1014D0002066696C652E0A004D32390043617264E2
:1014E0002072656D6F766564004361726420696E79
:1014F00073657274656400556E6B6E6F776E2063F2
:101500006F6D6D616E643A202200486F74656E6481
:1015100020746F6F20636F6C640A00486F6D6520E4
:1015200025732573257320666972737400206669BC
:101530007273740A005A0059005800486F6D652094
:10154000004D3234004D3233202573005344206364
:10155000617264206F6B0A006F70656E526F6F74FA
:10156000206661696C65640A00766F6C756D652E26
:10157000696E6974206661696C65640A0053442071
:10158000696E6974206661696C0A005772697469D2
:101590006E6720746F2066696C653A20006F706515
:1015A0006E206661696C65642C2046696C653A2022
:1015B000006F70656E206661696C65642C204669F9
:1015C0006C653A200046696C652073656C656374D0
:1015D00065640A002053697A653A200046696C65A3
:1015E000206F70656E65643A20002066696C653A0C
:1015F0002000646F696E67006672657368004E6FE5
:10160000772000454E4420535542524F5554494E81
:10161000450A002220706F73002220706172656E8F
:10162000743A2200535542524F5554494E45204377
:10163000414C4C207461726765743A22004B494CEE
:101640004C45442E2000747279696E6720746F20B7
:1016500063616C6C207375622D67636F64652066CF
:10166000696C6573207769746820746F6F206D6191
:101670006E79206C6576656C732E204D4158206C18
:101680006576656C2069733A004572726F723A0034
:101690004D6F76696E672E2E2E004C6576656C69EF
:1016A0006E6720446F6E6521004C6576656C696ECF
:1016B0006720446F6E6521004D6F7665205A0047A4
:1016C0003239205631004E65787420506F696E743F
:1016D000002569202F20257500473239205631001A
:1016E000436C69636B20746F20426567696E0048C4
:1016F0006F6D696E672058595A004732380053742D
:101700006F72652073657474696E6773004C6F61E6
:10171000642073657474696E6773004F6666004F6A
:101720006E2000426564204C6576656C696E6700CA
:101730004C6576656C2062656400507265706172FC
:1017400065004D3432380050726568656174205010
:101750004C4100436F6F6C646F776E005072656828
:1017600065617420414253004368616E676520667D
:10177000696C616D656E74004368616E67652066B3
:10178000696C616D656E74004D36303020423000FA
:1017900044697361626C65207374657070657273FF
:1017A000004D38340053657420686F6D65206F6696
:1017B000667365747300426564204C6576656C6978
:1017C0006E67004175746F20686F6D650047323831
:1017D000004D6F76652061786973004D61696E0018
:1017E0004D6F76652058004D6F76652059004D6F1E
:1017F0007665205A004578747275646572004D6F85
:10180000766520302E316D6D004D6F766520316D1F
:101810006D004D6F76652031306D6D004D6F7665D2
:101820002061786973004578747275646572004D43
:101830006F7665205A004D6F76652059004D6F76A2
:10184000652058004D61782054656D703A2032371C
:1018500035004D696E2054656D703A203500543066
:101860003A204550434F53203130304B00505355B0
:101870003A2047656E657269630050726F746F63DA
:101880006F6C3A20312E3000426175643A2031315C
:10189000353230300052414D505320312E33003319
:1018A0002D506F696E74204C6576656C696E6700AB
:1018B0004578747275646572733A20310068747487
:1018C000703A2F2F6D61726C696E66772E6F72673A
:1018D00000524631303000323031382D30382D3022
:1018E0003100312E312E39004D61726C696E005419
:1018F0006865726D6973746F727300426F617264B0
:1019000020496E666F005072696E74657220496E70
:10191000666F004D61696E004D373032205425648A
:10192000004D36303020423020542564004D373091
:1019300032203B2564004D3730312054256400436C
:1019400068616E67652066696C616D656E740050D4
:101950007265686561742041425300507265686524
:10196000617420504C41004368616E676520666970
:101970006C616D656E74005052494E542050415553
:1019800053454400554E4C4F41442046494C414D2F
:10199000454E54004C4F41442046494C414D454E24
:1019A00054005075726765206D6F726500436F6EED
:1019B00074696E756500524553554D45204F50541E
:1019C000494F4E533A0020204E6F7A7A6C653A2088
:1019D000006368616E6765006F66207468652066E5
:1019E000696C616D656E74005761697420666F7211
:1019F0002073746172740020204E6F7A7A6C653A9D
:101A0000200066696C616D656E7420756E6C6F6127
:101A100064005761697420666F720020204E6F7AEF
:101A20007A6C653A2000506C656173652077616956
:101A3000742E2E2E0048656174696E67206E6F7A71
:101A40007A6C650020204E6F7A7A6C653A200068C7
:101A5000656174206E6F7A7A6C652E0050726573C2
:101A60007320627574746F6E20746F0020204E6F47
:101A70007A7A6C653A2000746F20636F6E74696EB9
:101A800075652E2E2E00616E642070726573732052
:101A9000627574746F6E00496E7365727420666946
:101AA0006C616D656E740020204E6F7A7A6C653AB9
:101AB000200066696C616D656E74206C6F616400F6
:101AC0005761697420666F720020204E6F7A7A6CBD
:101AD000653A200066696C616D656E742070757280
:101AE0006765005761697420666F7200746F2072B9
:101AF0006573756D65005761697420666F7220703B
:101B000072696E740056652D6A65726B0056652D9C
:101B10006A65726B0056652D6A65726B00567A2D88
:101B20006A65726B00567A2D6A65726B0056792D64
:101B30006A65726B0056792D6A65726B0056792D55
:101B40006A65726B0056782D6A65726B0056782D47
:101B50006A65726B0056782D6A65726B004D6F7402
:101B6000696F6E004573746570732F6D6D004573FA
:101B7000746570732F6D6D005A73746570732F6D7B
:101B80006D005A73746570732F6D6D0059737465B1
:101B900070732F6D6D005973746570732F6D6D00C8
:101BA0005873746570732F6D6D005873746570731E
:101BB0002F6D6D004D6F74696F6E00537465707397
:101BC0002F6D6D004A65726B00416363656C6572D1
:101BD0006174696F6E0056656C6F63697479004358
:101BE0006F6E74726F6C004C6F6164206D6D004C91
:101BF0006F6164206D6D004C6F6164206D6D0055E8
:101C00006E6C6F6164206D6D00556E6C6F61642049
:101C10006D6D00556E6C6F6164206D6D0046696C72
:101C20002E204469612E0046696C2E204469612E85
:101C3000004F6666004F6E20004520696E206D6D76
:101C40003300416476616E6365204B0041647661C8
:101C50006E6365204B00436F6E74726F6C0043615E
:101C60006E6E6F7420656E74657220737562646940
:101C7000723A2000052E2E004D61696E003A004335
:101C800061703A0023646566696E6520444546418B
:101C9000554C545F4B64200023646566696E652073
:101CA00044454641554C545F4B69200023646566AA
:101CB000696E652044454641554C545F4B70200089
:101CC000504944204175746F74756E652066696E65
:101CD0006973686564212050757420746865206C90
:101CE000617374204B702C204B6920616E64204B13
:101CF0006420636F6E7374616E74732066726F6DAF
:101D00002062656C6F7720696E746F20436F6E661A
:101D1000696775726174696F6E2E680A0050494474
:101D2000204175746F74756E65206661696C6564B9
:101D3000212074696D656F75740A0045312054481F
:101D400045524D414C2052554E415741590054681F
:101D500065726D616C2052756E61776179004531F5
:101D60002048656174696E67206661696C6564000E
:101D700048656174696E67206661696C65640050CE
:101D80004944204175746F74756E65206661696C95
:101D90006564212054656D7065726174757265208B
:101DA000746F6F20686967680A00204B643A2000EE
:101DB000204B693A2000204B703A20000A20436CE7
:101DC000617373696320504944200A002054753AB6
:101DD0002000204B753A2000206D61783A200020C9
:101DE0006D696E3A200020643A20002062696173B8
:101DF0003A2000504944204175746F74756E652017
:101E00006661696C65642120426164206578747242
:101E100075646572206E756D6265720A0050494482
:101E2000204175746F74756E652073746172740AE5
:101E3000004D3630303A20546F6F20636F6C640071
:101E4000486F74656E6420746F6F20636F6C640AF2
:101E500000496E736572742066696C616D656E749D
:101E600020616E6420707265737320627574746F84
:101E70006E0A00507265737320627574746F6E2001
:101E8000746F2068656174206E6F7A7A6C650A00E1
:101E9000496E736572742066696C616D656E74203D
:101EA000616E6420707265737320627574746F6EF6
:101EB00020286F72204D313038290A00496E736531
:101EC00072742066696C616D656E7420616E642049
:101ED000707265737320627574746F6E20286F72F0
:101EE000204D313038290A0070012C019001270162
:101EF000B0012201C0011D01F001180110021301FF
:101F000030020E016002090190020401C002FF00CC
:101F10000003FA004003F5008003F000D003EB005B
:101F20002004E6007004E100E004DC004005D70076
:101F3000C005D2004006CD00D006C8008007C3000F
:101F40003008BE00F008B900C009B400B00AAF0004
:101F5000B00BAA00D00CA500000EA000500F9B00F3
:101F6000C01096005012910000148C00C01587001C
:101F7000B0178200B0197D00D01B7800001E7300DE
:101F800040206E0090226900F024640040275F002A
:101F900090295A00E02B5500102E500020304B00A5
:101FA00010324600E033410090353C0010373700D6
:101FB00070383200A0392D00B03A2800A03B230031
:101FC000603C1E00103D1900903D1400103E0F00B3
:101FD000703E0A00C03E0500003F0000403FFBFF8E
:101FE000803FF6FFC03FF1FF09FFFFFFFFFF000149
:101FF000010101016265640A002C20737973746524
:102000006D2073746F70706564212048656174651C
:10201000725F49443A2000453120544845524D41B1
:102020004C2052554E4157415900546865726D61BC
:102030006C2052756E617761790045312048656189
:1020400074696E67206661696C65640048656174D7
:10205000696E67206661696C656400453120457270
:10206000723A204D415854454D50004D4158544509
:102070004D50207472696767657265640045312050
:102080004572723A204D494E54454D50004D494ECF
:1020900054454D5020747269676765726564004DE0
:1020A000383420582059205A204500202F00204045
:1020B0003A004578747275646572004D6F766520DC
:1020C0005A004D6F76652059004D6F766520580097
:1020D0005072657061726500496E697469616C69FE
:1020E0007A6520454550524F4D00436F6E74726FB4
:1020F0006C00526573746F7265206661696C736100
:102100006665004C6F61642073657474696E6773F3
:1021100000496E697469616C697A65204545505261
:102120004F4D0053746F72652073657474696E67E8
:10213000730046696C616D656E74004D6F74696FF4
:102140006E0054656D7065726174757265004D61E5
:10215000696E005072656865617420414253206366
:102160006F6E66005072656865617420504C412046
:10217000636F6E66005049442D44005049442D441D
:10218000005049442D49005049442D4900504944CC
:102190002D50005049442D500020022046616374A8
:1021A0000020022046616374002002204D61780007
:1021B0002002204D6178002002204D61780020022D
:1021C000204D696E002002204D696E002002204DD6
:1021D000696E004F6666004F6E20004175746F7423
:1021E000656D70004E6F7A7A6C65004E6F7A7A6C0E
:1021F0006500436F6E74726F6C0053746F7265206C
:1022000073657474696E6773004E6F7A7A6C6500DB
:102210004E6F7A7A6C650046616E207370656564F6
:102220000046616E2073706565640054656D70656D
:10223000726174757265005452494747455245446E
:10224000006F70656E003A20007A5F6D696E0079EC
:102250005F6D617800785F6D696E005265706F72B6
:1022600074696E6720656E6473746F702073746137
:102270007475730A004B494C4C45442E200053544E
:102280004F505045442E20005072696E7465722084
:1022900073746F707065642064756520746F206559
:1022A00072726F72732E204669782074686520659B
:1022B00072726F7220616E6420757365204D3939BA
:1022C0003920746F20726573746172742E202854E3
:1022D000656D7065726174757265206973207265D1
:1022E0007365742E2053657420697420616674656B
:1022F000722072657374617274696E67290A004E88
:102300006F20436865636B73756D2077697468200F
:102310006C696E65206E756D6265722C204C617300
:1023200074204C696E653A20004E6F2043686563E7
:102330006B73756D2077697468206C696E65206EAB
:10234000756D6265722C204C617374204C696E65EA
:102350003A2000636865636B73756D206D69736DFA
:10236000617463682C204C617374204C696E653A0B
:1023700020004C696E65204E756D62657220697330
:10238000206E6F74204C617374204C696E65204E12
:10239000756D6265722B312C204C617374204C6911
:1023A0006E653A20004D313130004D3331005344D9
:1023B0002072656164206572726F720A00446F6EEC
:1023C00065207072696E74696E672066696C650A53
:1023D0000020496E76616C6964206578747275645A
:1023E00065722000000000000000000000000000F6
:1023F0000000F0420000F0420000F04252657365B8
:102400006E643A20006F6B0020746F6F206C6F6EEB
:102410006720657874727573696F6E207072657667
:10242000656E7465640A0020636F6C64206578745F
:10243000727573696F6E2070726576656E7465640F
:102440000A00627573793A2070617573656420665D
:102450006F7220696E7075740A00627573793A2024
:1024600070617573656420666F7220757365720A9A
:1024700000627573793A2070726F63657373696E69
:10248000670A004B494C4C45442E20004B494C4CAC
:1024900020636175736564206279204B494C4C2040
:1024A000627574746F6E2F70696E0A004B494C4CE4
:1024B00045442E20004B494C4C2063617573656484
:1024C00020627920746F6F206D75636820696E617A
:1024D00063746976652074696D65202D206375725B
:1024E00072656E7420636F6D6D616E643A2000508A
:1024F0006C65617365207265736574005052494E56
:102500005445522048414C544544005072696E7401
:1025100065722068616C7465642E206B696C6C2830
:10252000292063616C6C6564210A00656E717565B4
:102530007565696E67202200000000000000F0420F
:1025400000000000000048420000484200008040B7
:10255000000000005761726E696E673A20486F6D27
:10256000696E672042756D702044697669736F7279
:10257000203C20310A000202040000A0400000A01C
:1025800040000000400000F0420000F0420000F077
:1025900042FF01FF6F70656E206661696C65642C97
:1025A0002046696C653A200043616E6E6F74206F3F
:1025B00070656E2073756264697220006563686F70
:1025C0003A00001C1F11111F000000061918031308
:1025D0000C00040E1F041C000000000E1315110E49
:1025E00000001C10181705060500040A0A0A0A1143
:1025F000110E0C12120C00000000001F1511151F07
:10260000000000002100240027002A002D003000D7
:10261000330001010000040107010A01000000016C
:1026200000000001000080005555550000004000EA
:1026300033333300AAAA2A00499224000000200064
:10264000C7711C0099991900D145170055551500FF
:102650003BB11300244912001111110000001000B9
:102660000F0F0F00E3380E0043790D00CCCC0C00A7
:10267000C3300C00E8A20B0064210B00AAAA0A00D8
:10268000703D0A009DD80900427B09009224090090
:10269000DCD3080088880800104208000000080009
:1026A000F0C107008787070075500700711C0700FD
:1026B0003EEB0600A1BC06006990060066660600B7
:1026C000703E06006118060017F4050074D105007D
:1026D0005BB00500B290050062720500555505001B
:1026E00078390500B81E0500050505004EEC04000C
:1026F00087D40400A1BD040090A7040049920400FF
:10270000C17D0400EE690400C7560400444404007F
:102710005C320400082104004110040000000400A1
:102720003FF00300F8E0030026D20300C3C3030018
:10273000CCB503003AA803000A9B0300388E0300BF
:10274000C08103009F750300D0690300505E030041
:102750001D53030034480300913D0300333303004D
:1027600016290300381F030097150300300C0300DF
:10277000030303000BFA020049F10200BAE8020069
:102780005CE002002DD802002DD0020059C80200E2
:10279000B0C0020031B90200DAB10200AAAA0200F8
:1027A000A0A30200BC9C0200FA9502005C8F02000C
:1027B000DF88020082820200457C02002776020048
:1027C00027700200436A02007C640200D05E0200AF
:1027D0003F590200C853020048617264636F646528
:1027E000642044656661756C742053657474696E09
:1027F0006773204C6F616465640A00F4010000F4A3
:102800000100006400000010270000000096430053
:102810000096430000A0410000C841D7A39D42D7C5
:10282000A39D42000048440000E64220286D6D2927
:102830000020204D36303320002055004C004669E2
:102840006C616D656E74206C6F61642F756E6C6F5A
:102850006164206C656E677468733A0A0020204DCD
:10286000393030204B004C696E65617220416476CE
:10287000616E63653A0A0020440020490020204D23
:102880003330312050005049442073657474696EB0
:1028900067733A0A002046002042002048002020AA
:1028A0004D3134352053004D6174657269616C207F
:1028B00068656174757020706172616D65746572B0
:1028C000733A0A0020204D34323020530041757491
:1028D0006F20426564204C6576656C696E673A0AC4
:1028E00000205A0020590020204D32303620580058
:1028F000486F6D65206F66667365743A0A002045FF
:1029000000205A0020590020580020540020530075
:1029100020204D32303520510020453C6D61785FDC
:10292000655F6A65726B3E0020583C6D61785F7828
:102930005F6A65726B3E20593C6D61785F795F6AB2
:1029400065726B3E205A3C6D61785F7A5F6A657292
:102950006B3E00416476616E6365643A20513C6D64
:10296000696E5F7365676D656E745F74696D655FD1
:1029700075733E20533C6D696E5F66656564726178
:1029800074653E20543C6D696E5F74726176656C4F
:102990005F66656564726174653E00205400205274
:1029A0000020204D323034205000416363656C6557
:1029B000726174696F6E2028756E6974732F73323B
:1029C000293A20503C7072696E745F616363656C74
:1029D0003E20523C726574726163745F616363652B
:1029E0006C3E20543C74726176656C5F6163636514
:1029F0006C3E0A00204500205A0020590020204D3E
:102A00003230312058004D6178696D756D20416319
:102A100063656C65726174696F6E2028756E697488
:102A2000732F7332293A0A00204500205A0020599A
:102A30000020204D3230332058004D6178696D758B
:102A40006D206665656472617465732028756E69B2
:102A500074732F73293A0A00204500205A00205928
:102A60000020204D39322058005374657073207057
:102A7000657220756E69743A0A0020204D3230303C
:102A80002044300A0020204D3230302044002044C1
:102A9000697361626C65640A0046696C616D656E9C
:102AA000742073657474696E67733A0020204D3129
:102AB00034392043203B20556E69747320696E20A1
:102AC00043656C736975730A0020204732312020FA
:102AD00020203B005654726176206D696E0056547A
:102AE000726176206D696E005654726176206D6950
:102AF0006E00566D696E00566D696E00566D696E9A
:102B000000566D6178204500566D6178204500566D
:102B10006D6178204500566D6178205A00566D61D0
:102B200078205A00566D6178205A00566D617820E1
:102B30005900566D6178205900566D617820590012
:102B4000566D6178205800566D6178205800566D9A
:102B500061782058004D6F74696F6E00416D617827
:102B6000204500416D6178204500416D6178205A13
:102B700000416D6178205A00416D61782059004113
:102B80006D6178205900416D6178205800416D6178
:102B900078205800412D74726176656C00412D7467
:102BA000726176656C00412D7265747261637400A8
:102BB000412D7265747261637400416363656C00DA
:102BC000416363656C004D6F74696F6E00FFFDFCBF
:102BD000FAF8F6F4F2F0EEECEAE9E7E5E3E1E0DE3C
:102BE000DCDAD9D7D5D4D2D0CFCDCBCAC8C7C5C3EC
:102BF000C2C0BFBDBCBAB9B7B6B4B3B2B0AFADAC6A
:102C0000AAA9A8A6A5A4A2A1A09E9D9C9A999897BE
:102C100095949392908F8E8D8B8A898887868483F2
:102C20008281807F7E7D7B7A797877767574737206
:102C300071706F6E6D6C6B6A6968676665646362FC
:102C400061605F5E5D5C5B5A5958585756555453E6
:102C5000525150504F4E4D4C4B4A4A4948474646B8
:102C6000454443424241403F3E3E3D3C3B3B3A3976
:102C7000383837363535343332323130302F2E2E26
:102C80002D2C2B2B2A2929282727262525242323C9
:102C900022212120201F1E1E1D1C1C1B1B1A19195E
:102CA0001818171616151514131312121111100FE8
:102CB0000F0E0E0D0D0C0C0B0A0A09090808070768
:102CC00006060505040403030202010000008DEF5F
:102CD0006CEF11241FBECFEFD1E2DEBFCDBF00E00D
:102CE0000CBF13E0A0E0B2E0E8E8F9EF01E00BBFB1
:102CF00002C007900D92AA33B107D9F724E1AAE3E5
:102D0000B3E001C01D92A73CB207E1F716E1C8E6A7
:102D1000D6E100E006C021970109802FFE010E9444
:102D200022FCC736D10780E00807A9F70E9416E900
:102D30000C94B3FC0C9400002F923F924F925F9240
:102D40006F927F928F929F92AF92BF92CF92DF92BB
:102D5000EF92FF920F931F93CF93DF93CDB7DEB720
:102D6000CB56D1090FB6F894DEBF0FBECDBF21E020
:102D70002093ED098091EC098D3409F403C7843563
:102D800011F40C94FE2C873411F00C944A2D2090F1
:102D9000EA093090EB093BE12316310409F433C60C
:102DA00094F454E02516310444F482E028163104EA
:102DB0000CF041C037FE38C0E1C694E0291631045A
:102DC00009F4E2C5DBC6AAE52A16310409F462C695
:102DD00074F4ECE12E16310409F445C6FDE12F161A
:102DE000310409F0CBC60E94AB5B0C944C2D3BE543
:102DF0002316310409F452C64CE52416310409F0B7
:102E0000BDC67EE4272E72E0372EEBEFEE2EE9E012
:102E1000FE2EEBE2F4E0F9AFE8AFFFE8CF2EF8E0EA
:102E2000DF2E00E010E079C68091350281110C940C
:102E3000512D0C944C2D80913502882311F40C9463
:102E40004C2D0E942B5A82E50E9487B8882309F4F2
:102E50004CC10E940BB84B015C0120E030E0A9019D
:102E60000E94EDF4882309F470C180912B049091A5
:102E70002C04A0912D04B0912E0488AF99AFAAAF75
:102E8000BBAF20912F043091300440913104509118
:102E900032042CAF3DAF4EAF5FAF8091070A9091E7
:102EA000080AA091090AB0910A0A2C968CAF9DAF2E
:102EB000AEAFBFAF2C9720910B0A30910C0A409116
:102EC0000D0A50910E0A28962CAF3DAF4EAF5FAF62
:102ED00028979C01AD0168AD79AD8AAD9BAD0E948C
:102EE000EDF481110FC028962CAD3DAD4EAD5FAD18
:102EF00028976CAD7DAD8EAD9FAD0E94EDF488231B
:102F000009F423C111E032E02316310409F010E086
:102F100020E030E0A901C501B4010E94EDF4881F52
:102F20008827881F181759F080E090E0A0E8BFEBD1
:102F300064968CAF9DAFAEAFBFAF64970AC020E080
:102F400030E040E85FE364962CAF3DAF4EAF5FAF3B
:102F5000649728AD39AD4AAD5BAD2C966CAD7DADB7
:102F60008EAD9FAD2C970E9416F960966CAF7DAF29
:102F70008EAF9FAF60972CAD3DAD4EAD5FAD289647
:102F80006CAD7DAD8EAD9FAD28970E9416F96B019B
:102F90007C0160962CAD3DAD4EAD5FAD6097CA0132
:102FA000B9010E9452F52B013C01A7019601C7010E
:102FB000B6010E9452F59B01AC01C301B2010E940F
:102FC00017F90E9482FB24966CAF7DAF8EAF9FAF46
:102FD000249720E030E040E05FE30E9452F52B01AF
:102FE0003C01A5019401C501B4010E9452F54B01B9
:102FF0005C01A3019201C301B2010E9452F59B0141
:10300000AC01C501B4010E9416F90E9482FB6496CE
:103010002CAD3DAD4EAD5FAD64970E9452F54B01B6
:103020005C01C701B601905824962CAD3DAD4EAD64
:103030005FAD24970E94F3F9A50194010E9452F517
:103040006B017C012C962CAD3DAD4EAD5FAD2C9748
:1030500068AD79AD8AAD9BAD0E9417F920E030E0F4
:1030600040E05FE30E9452F59B01AC01C701B6014D
:103070000E9417F928AD39AD4AAD5BAD0E9416F933
:103080006B017C0128962CAD3DAD4EAD5FAD289710
:103090006CAD7DAD8EAD9FAD0E9417F920E030E0A4
:1030A00040E05FE30E9452F52B013C0124962CADD9
:1030B0003DAD4EAD5FAD249760966CAD7DAD8EADF0
:1030C0009FAD60970E94F3F9A50194010E9452F50B
:1030D0009B01AC01C301B2010E9417F92CAD3DADBB
:1030E0004EAD5FAD0E9416F914C089E40E9487B806
:1030F000882329F00E940BB86B017C0103C0C12C0E
:10310000D12C76018AE40E9487B8882309F10E94B5
:103110000BB82C966CAF7DAF8EAF9FAF2C9720E095
:1031200030E0A901C701B6010E94EDF481111FC072
:1031300020E030E0A9012C966CAD7DAD8EAD9FAD49
:103140002C970E94EDF4811112C0E9E8F6E108C461
:1031500020E030E0A901C701B6010E94EDF4882308
:10316000A1F32C961CAE1DAE1EAE1FAE2C97D70140
:10317000C601B05888AF99AFAAAFBBAF2C962CADA3
:103180003DAD4EAD5FAD2C9750582CAF3DAF4EAF1F
:103190005FAF9C01AD01BC01CD010E9452F54B0116
:1031A0005C012CAD3DAD4EAD5FADCA01B9010E94D1
:1031B00052F59B01AC01C501B4010E9417F90E94B0
:1031C00082FBA0966CAF7DAF8EAF9FAFA097809132
:1031D0002B0490912C04A0912D04B0912E042896DC
:1031E0008CAF9DAFAEAFBFAF2897A7019601BC01D2
:1031F000CD010E9417F964966CAF7DAF8EAF9FAF83
:10320000649720912F043091300440913104509103
:10321000320460962CAF3DAF4EAF5FAF60972C96F7
:103220006CAD7DAD8EAD9FAD2C970E9417F9A49625
:103230006CAF7DAF8EAF9FAFA4978091070A90913E
:10324000080AA091090AB0910A0A68968CAF9DAF4E
:10325000AEAFBFAF689764962CAD3DAD4EAD5FADE0
:103260006497BC01CD010E9416F96B017C0120918D
:103270000B0A30910C0A40910D0A50910E0A6C967F
:103280002CAF3DAF4EAF5FAF6C97A4962CAD3DAD6C
:103290004EAD5FADA4976C966CAD7DAD8EAD9FAD20
:1032A0006C970E9416F94B015C0180913304909158
:1032B0003404A0913504B0913604A8968CAF9DAF2C
:1032C000AEAFBFAFA8979C01AD0160910F0A70919E
:1032D000100A8091110A9091120A0E9416F9249600
:1032E0006CAF7DAF8EAF9FAF2497A701960168ADFD
:1032F00079AD8AAD9BAD0E9452F52B013C01A50131
:1033000094016CAD7DAD8EAD9FAD0E9452F59B01D9
:10331000AC01C301B2010E9417F92B013C01A501C8
:10332000940168AD79AD8AAD9BAD0E9452F54B0119
:103330005C01A70196016CAD7DAD8EAD9FAD0E9485
:1033400052F59B01AC01C501B4010E9416F9A3011D
:1033500092010E948AF96B017C0120E030E0A90112
:103360000E94EDF487FF0AC02BED3FE049EC50E4EA
:10337000C701B6010E9417F96B017C0192E0291682
:10338000310451F42BED3FE049EC50E4C701B601A4
:103390000E9416F96B017C0120E030E0A901C70111
:1033A000B6010E94EDF4811128C068962CAD3DADA8
:1033B0004EAD5FAD689728966CAD7DAD8EAD9FAD7F
:1033C00028970E94EDF4811118C06C962CAD3DAD8C
:1033D0004EAD5FAD6C9760966CAD7DAD8EAD9FAD23
:1033E00060970E94EDF4811108C01BEDC12E1FE013
:1033F000D12E19ECE12E10E4F12EA7019601A09632
:103400006CAD7DAD8EAD9FADA0970E9452F54B0186
:103410005C0120E030E0A90124966CAD7DAD8EAD5D
:103420009FAD24970E94EDF48823E9F0A501940153
:10343000C501B4010E9452F54B015C0124962CADEC
:103440003DAD4EAD5FAD2497CA01B9010E9452F562
:103450009B01AC01C501B4010E9417F90E9482FBD7
:103460004B015C010DC020E030E0A901C501B401B1
:103470000E943DFB87FF04C0B7FAB094B7F8B09440
:103480002FE632E143E85AE3C501B4010E94EDF4AE
:1034900087FF02C00C944C2DC501B4010E948CFA28
:1034A0000E9460FA2E967FAF6EAF2E97DB01AB2B9A
:1034B00031F4E1E0F0E02E96FFAFEEAF2E974090B2
:1034C0003704509038046090390470903A042E9676
:1034D0002EAD3FAD2E97B90180E090E00E94F1F44F
:1034E0004B015C019B01AC01C701B6010E94F3F9DD
:1034F00028966CAF7DAF8EAF9FAF2897A501940142
:1035000024966CAD7DAD8EAD9FAD24970E94F3F9EE
:10351000A0966CAF7DAF8EAF9FAFA097A301920135
:103520006091130A7091140A8091150A9091160AFD
:103530000E9416F9A50194010E94F3F9AC966CAFB4
:103540007DAF8EAF9FAFAC9728962CAD3DAD4EAD05
:103550005FAD2897CA01B9010E9452F520E030E022
:1035600040E05FE30E9452F59B01AC0160E070E037
:1035700080E89FE30E9416F968966CAF7DAF8EAF2E
:103580009FAF6897A8968CAD9DADAEADBFADA89727
:1035900089879A87AB87BC874D865E866F86788AD7
:1035A0006091170270911802072E000C880B990B7E
:1035B0000E94F3F420914502309146024091470267
:1035C000509148020E9452F52AE037ED43E25CE355
:1035D0000E9452F56CAB7DAB8EAB9FAB0E94F9C6DF
:1035E0009B01AC0128533F4F4F4F5F4F6C962CAF60
:1035F0003DAF4EAF5FAF6C9748AC59AC6AAC7BAC9B
:1036000022242394312C39E121963FAF21972E9625
:103610004EAD5FAD2E974215530509F44DC10E9482
:1036200030A80E94F9C6DC01CB016C962CAD3DADF3
:103630004EAD5FAD6C97821B930BA40BB50BB7FD22
:1036400011C00E94F9C69B01AC0128533F4F4F4F58
:103650005F4F6C962CAF3DAF4EAF5FAF6C9780E085
:103660000E94CDBA21963FAD2197315021963FAFB0
:103670002197332309F445C02CAD3DAD4EAD5FAD70
:1036800068966CAD7DAD8EAD9FAD68970E9452F58A
:103690006B017C019201A30128966CAD7DAD8EADCE
:1036A0009FAD28970E9452F5A70196010E9417F935
:1036B0007B018C019201A30168966CAD7DAD8EAD4E
:1036C0009FAD68970E9452F54B015C012CAD3DAD5A
:1036D0004EAD5FAD28966CAD7DAD8EAD9FAD28979C
:1036E0000E9452F59B01AC01C501B4010E9416F97C
:1036F0002B013C01C701D8018CAF9DAFAEAFBFAF6E
:1037000055C0B10180E090E00E94F1F428962CAD04
:103710003DAD4EAD5FAD28970E9452F54B015C0167
:103720000E94F0F96B017C01C501B4010E9478FB95
:103730004B015C01A701960168AD79AD8AAD9BADE7
:103740000E9452F52B013C01A50194012C966CAD11
:103750007DAD8EAD9FAD2C970E9452F5A3019201D5
:103760000E9417F92B013C01A501940168AD79ADC8
:103770008AAD9BAD0E9452F54B015C01A7019601F9
:103780002C966CAD7DAD8EAD9FAD2C970E9452F501
:103790009B01AC01C501B4010E9416F96CAF7DAF6D
:1037A0008EAF9FAF49E121964FAF21979201A301C0
:1037B00064966CAD7DAD8EAD9FAD64970E9417F998
:1037C00069837A838B839C832CAD3DAD4EAD5FAD19
:1037D000A4966CAD7DAD8EAD9FADA4970E9417F9F8
:1037E0006D837E838F839887A0962CAD3DAD4EADC3
:1037F0005FADA09769857A858B859C850E9417F9B6
:1038000069877A878B879C87AC962CAD3DAD4EAD92
:103810005FADAC976D857E858F8598890E9417F97D
:103820006D877E878F87988B80913402882321F063
:10383000CE0101960E9402D5E0900B061CA61DA6A3
:103840001EA61FA689819A81AB81BC8188A399A3FA
:10385000AAA3BBA38D819E81AF81B8858CA39DA3B4
:10386000AEA3BFA389859A85AB85BC8588A799A798
:10387000AAA7BBA7AE01485D5F4FBE016C5D7F4F3D
:10388000CE0180960E94DCCFCE018C966C018E0119
:103890000C5C1F4F9E01235F3F4FAE01485D5F4FA1
:1038A000BE016C5D7F4F0C970E94D860882321F089
:1038B0009FEF291A390AABCEE0900B0618AA19AA75
:1038C0001AAA1BAA8091070A9091080AA091090AD6
:1038D000B0910A0A88A399A3AAA3BBA380910B0A5B
:1038E00090910C0AA0910D0AB0910E0A8CA39DA391
:1038F000AEA3BFA380910F0A9091100AA091110A64
:10390000B091120A88A799A7AAA7BBA7AE01485DE4
:103910005F4FBE016C5D7F4FCE0180960E94DCCF71
:10392000DE01D0966D018E010C5C1F4F23E13AE061
:10393000AE01485D5F4FBE016C5D7F4FCE0180964A
:103940000E94D86080E1E7E0FAE0ABE2B4E00190E9
:103950000D928A95E1F70C944C2D0E94BDD3F8018D
:1039600084918F010F5F1F4F8111F7CFEDEEF1E0D2
:1039700084918F010F5F1F4F882311F40C944C2DFD
:103980000E94BDD3F801F4CF80E50E9487B8882358
:1039900029F00E94CBB76B017C0103C0C12CD12C54
:1039A000760183E50E9487B8882361F00E940BB8F6
:1039B00020E030E04AE754E40E9452F50E9460FAA9
:1039C0006B017C010E94197180913506811105C03F
:1039D00060E083E092E00E94B1770E94F9C6C60ED3
:1039E000D71EE81EF91E0E94F9C6DC01CB018C1916
:1039F0009D09AE09BF09B7FD02C00C944C2D80E0B3
:103A00000E94CDBAF0CF0E942B8181110C944C2DD5
:103A100080E090E0A0E2B1E489839A83AB83BC8329
:103A200080E090E0ACEDB2E48D839E83AF83B887F5
:103A300080E090E0A0EAB1E489879A87AB87BC87F1
:103A400080E50E9487B8882319F00E94DBB701C087
:103A500060E068A3BE016F5F7F4FCE0180960E9439
:103A600016D30C944C2D80911E048770873011F072
:103A70000C94562D8FE40E9487B8882319F00E9479
:103A8000FCB703C08FE40E943EB881110C944C2D0A
:103A90000C94562D10923F030C944C2D20933F0311
:103AA0000C944C2D0E940BB82B013C01133049F0B3
:103AB000F60120813181428153810E9416F92B0148
:103AC0003C01A8ADB9AD2D913D914D915C91C301E3
:103AD000B2010E9416F94B015C012DEB37E346E879
:103AE00055EB0E943DFB87FD20C02DEB37E346E8F8
:103AF00055E3C501B4010E94EDF41816B4F01F5F40
:103B0000B4E0EB0EF11CE8ADF9AD3496F9AFE8AFD7
:103B1000F4E0CF0ED11C143039F1D1018D911D018B
:103B20000E9487B8882359F3BDCF133051F44092D7
:103B30003704509238046092390470923A0401E0DC
:103B4000DECFA5019401F7016081718182819381AB
:103B50000E9417F9D7016D937D938D939C931397D2
:103B6000812F0E9415B4CBCF002321F087E394E08E
:103B70000E94CA800E9467560C944C2D0E94C382FA
:103B80000C944C2D8091EA099091EB0983379105B3
:103B900009F4B7C10CF0BDC08A32910509F4D2C452
:103BA0000CF05FC08831910509F47FC2CCF58231F9
:103BB000910509F426C6DCF497FF02C00C94FB2C97
:103BC000823091050CF4A0C1419711F00C94FB2CAC
:103BD00060E08FE192E00E94B1775F988A988091CF
:103BE000080181708093060112980C944C2D853148
:103BF000910509F43FC23CF4449711F00C94FB2C5E
:103C0000E7E3F2E0F9C18631910509F437C247973D
:103C100011F00C94FB2CE091E809F091E90938C20D
:103C20008C31910509F4F0C264F48A31910509F4EC
:103C300045C20CF051C21092B70A0E94B6A60C946D
:103C40004C2D8E31910509F4E9C214F40C944C2DDD
:103C50008F31910509F4C0C3809709F471C30C94A6
:103C6000FB2C8C35910509F41CC634F58135910582
:103C700009F4ADC58CF48C34910509F498C48D34E5
:103C8000910509F498C48B34910511F00C94FB2C28
:103C90000E9494A60C944C2D8335910509F4ACC573
:103CA0000CF4A6C58435910509F4ABC5853591059D
:103CB00009F4DCC50C94FB2C8E36910509F4AAC4DA
:103CC000C4F48936910509F440C534F48836910569
:103CD00009F475C40C94FB2C8C36910509F400C5CD
:103CE0008D36910511F00C94FB2C0E9431570C94E9
:103CF0004C2D8037910509F4F7C40CF49EC481372C
:103D0000910509F4F5C48237910509F453C60C9462
:103D1000FB2C8D3231E0930711F40C94352A0CF012
:103D200074C0893C910509F4F0C75CF588379105AA
:103D300009F437C764F48637910509F4E3C60CF03B
:103D40002DC78537910509F4CEC60C94FB2C81391B
:103D5000910509F42BC75CF48937910511F00C9497
:103D6000FB2C10921D0410921C040C944C2D8B39CA
:103D7000910509F405C5883C910509F476C70C94B2
:103D8000FB2C833D910509F4B8C034F58C3C9105BA
:103D900009F4F3C764F48B3C910511F00C94FB2CEF
:103DA000AEE4EA2EA2E0FA2E0DE01EE0D7C78D3C6D
:103DB000910511F40C9432278E3C910511F00C946E
:103DC000FB2CEEE4CE2EE2E0DE2EFFE1EF2EF4E05F
:103DD000FF2E10E00C94A5278D3D910511F40C9455
:103DE00074293CF48C3D910511F40C9467290C94D2
:103DF000FB2C823E910511F40C94E3298C32914006
:103E000011F40C940C2A0C94FB2C853FA1E09A072A
:103E100011F40C94CF2BC4F58039E1E09E0711F426
:103E20000C94422B94F48F3221E0920711F40C94FD
:103E3000292B14F40C94D52A8336914011F00C945C
:103E4000FB2CE9E8F6E10C942F2B843A51E095071E
:103E500011F40C94452B4CF48A39914011F00C94D8
:103E6000FB2C0E941B9E0C944C2D8C3AE1E09E078B
:103E700011F40C94B727843F914011F00C94FB2C63
:103E80000E94C03A0C944C2D8B3522E0920711F41D
:103E90000C94052CC4F4873F41E0940711F40C9472
:103EA000D52B14F40C94D22B883FA1E09A0711F47F
:103EB0000C94E12B8835924011F00C94FB2C0E945D
:103EC000B1990C944C2D8B38E3E09E0711F40C94BF
:103ED0004C2D3CF48438934011F40C948E2C0C94AB
:103EE000FB2C803A33E0930709F469C2873E934084
:103EF00011F40C94E62C0C94FB2CECEBF5E20C94F6
:103F00008828EBE0F4E094C5A090E809B090E909B6
:103F100080E50E9487B8882359F00E94CBB76B01D7
:103F20007C0111E0672B682B692B31F410E004C091
:103F300010E0C12CD12C760183E50E9487B888233C
:103F400011F40C94DD2D0E940BB820E030E04AE71C
:103F500054E40E9452F50E9460FA6B017C01111139
:103F60000BC0672B682B692B39F4A114B10421F025
:103F7000D5018C91811102C010E001C011E00E94B6
:103F80001971112329F061E0C5010E94ED7705C088
:103F900060E08CE092E00E94B17783E08093ED09CD
:103FA00081E08093D705C114D104E104F104B1F09C
:103FB0000E94F9C6C60ED71EE81EF91E0E94F9C659
:103FC000DC01CB018C199D09AE09BF09B7FF0EC0FA
:103FD0008091D70581110C94E22D08C08091D705FE
:103FE000882321F080E00E94CDBAF8CF0E94C14919
:103FF0001092D7050C944C2D84918F010F5F1F4FA9
:10400000882321F00E94BDD3F801F6CF10925B0DFA
:104010008EE09BE00E943D458BE1EEE0FBE0DE019F
:10402000159601900D928A95E1F780910C0B909175
:104030000D0B9C838B8388EF92E09A83898340E009
:1040400050E0BE016F5F7F4F80E090E00E9469C248
:10405000CE0101960E944845E8E2F2E084918F018A
:104060000F5F1F4F882311F40C944C2D0E94BDD379
:10407000F801F4CF0E94C57E0C944C2D1092B70A23
:104080001092B80A0C944C2D803209F410823196AB
:1040900080818111F9CF40E061E08091E809909141
:1040A000E9090E94E27C0C944C2D8091B80A8111A0
:1040B0002093B70A0E9494A60C944C2D8091B80AC4
:1040C000882311F40C944C2D83E50E9487B881114C
:1040D0000C94E72D0C944C2D83E40E943EB8882369
:1040E00009F450C0E5E7F2E084918F010F5F1F4FA4
:1040F000882321F00E94BDD3F801F6CF8091A90C4E
:10410000811103C0E8E4F2E012C0BE016F5F7F4F8F
:1041100086EA9CE00E94D54F8E010F5F1F4FF80189
:1041200081918F01882349F10E94BDD3F8CF8491FA
:104130008F010F5F1F4F882301F10E94BDD3F8014B
:10414000F6CF53EFC52E52E0D52EE12CF12C20E016
:1041500080910F0690E00E2C02C0959587950A94E9
:10416000E2F780FD9AC2AFEFEA1AFA0AB2E0CB0E8C
:10417000D11CE5E0EE16F10459F78AE00E94BDD3A8
:104180000C944C2D8091B80A882339F08091B70A9D
:10419000882319F0E2E5F2E003C0E4E6F2E028C08B
:1041A00084918F010F5F1F4F882321F00E94BDD3A0
:1041B000F801F6CF6091570D7091580D8091590D0F
:1041C00090915A0D4AE00E94C4D38FE20E94BDD361
:1041D0006091530D7091540D8091550D9091560D35
:1041E0004AE00E94C4D38AE00E94BDD30C944C2DB7
:1041F00084918F010F5F1F4F882311F40C944C2D75
:104200000E94BDD3F801F4CF40E060E08091E8095E
:104210009091E9090E94E27C0C944C2D8091B80A9F
:10422000882311F40C944C2D86EA9CE00E949B4F4D
:1042300086EA9CE00E94CD4F1092B60A1092B50A11
:104240008091B80A882311F40C944C2D0091E80950
:104250001091E9090E945CC2B801CE0180960E94CB
:1042600070C48C01892B11F40C944C2D68A179A198
:104270006115710511F06C5F7F4F19821C8222E07D
:10428000A801CE0101960E947A55811102C0F12C3D
:1042900014C0CE0101960E94CAC18823C1F361E017
:1042A000CE0101960E947F4F009789F325EEDC0135
:1042B0002C931C820E940DE2F82ECE0101960E94E2
:1042C0004245F11003C0E2E9F2E022C0E4E8F2E086
:1042D00084917F01BFEFEB1AFB0A882321F00E9433
:1042E000BDD3F701F5CFF80181918F01882319F033
:1042F0000E94BDD3F8CF8AE00E94BDD31092570D23
:104300001092580D1092590D10925A0D0C944C2D7C
:1043100084917F012FEFE21AF20A882321F00E9494
:10432000BDD3F701F5CFD8018D918D01882319F008
:104330000E94BDD3F8CF8EE20E94BDD30C944C2DC9
:104340008091B70A81110E9419718091B80A88235F
:1043500011F40C944C2D80E50E9487B8882319F045
:104360000E94FCB703C080E50E943EB8182F482F7A
:1043700061E08091E8099091E9090E94E27C83E57F
:104380000E9487B8882381F00E94DBB7AB01BC0193
:104390004093570D5093580D6093590D70935A0DDB
:1043A00086EA9CE00E94954E8091B80A882319F015
:1043B00081E08093B70A11110C944C2D7BCE809133
:1043C000E8099091E90921E02093B60A40E060E015
:1043D0000E94E27C0C944C2D0E9445A67B018C012E
:1043E00020E831E541E050E00E94DBF8C9016DE6CC
:1043F00071E00E94DFFB4B015C01C801B70120E1C5
:104400003EE040E050E00E94DBF8CA01B90128E13B
:1044100030E040E050E00E94DBF8762E672EC62E9A
:10442000D72E6CE3262E312C412C512CC801B7011C
:10443000A20191010E94DBF8F62EE72ECA01B90114
:10444000A20191010E94DBF8CB018E010F5F1F4F8B
:104450008114910499F0EF92FF927F936F936F9282
:104460007F92BF92AF929F928F9282ED92E09F9344
:104470008F931F930F930E9487F413C0A114B1046C
:10448000B1F0EF92FF927F936F936F927F92BF9202
:10449000AF9282EC92E09F938F931F930F930E94B1
:1044A00087F40FB6F894DEBF0FBECDBF30C0CD2865
:1044B00079F0EF92FF927F936F936F927F9286EBEA
:1044C00092E09F938F931F930F930E9487F4E9CFFD
:1044D000892B69F0EF92FF927F936F938EEA92E0BF
:1044E0009F938F931F930F930E9487F4DACFEF92DD
:1044F000FF928AEA92E09F938F931F930F930E94FB
:1045000087F40F900F900F900F900F900F9060E036
:10451000C8010E94ED77ECEBF5E284917F019FEFFB
:10452000E91AF90A882321F00E94BDD3F701F5CFDB
:10453000B80186EE92E00E94F2E18AE00E94BDD3CB
:104540000C944C2D83E50E9487B8882311F40C94B9
:104550004C2D0E94EBB7082F80E50E9487B8882376
:1045600039F00E94EBB7182F87FF03C00C944C2D35
:104570001DE089E40E9487B8882351F00E94FCB7AF
:1045800081110C945F2EE4E8F5E081EB95E00AC020
:1045900089E40E943EB8F4CF31968E179F0711F43C
:1045A0000C945F2E24911213F7CF0C94332E0E949B
:1045B000B6A60C944C2D0E94CBA60C944C2D88E6EC
:1045C00090E00E9493B881110C944C2D80910F06BD
:1045D00083FF02C00C944C2D83E50E9487B888238A
:1045E000A9F00E940BB80E945BFACB010E9456779B
:1045F0000E940BB820E030E04AEA52E40E94EDF459
:10460000181624F00E94CBA60E94C1490E94D3E54F
:104610000C944C2D8EE40E9487B8882311F40C94DE
:104620004C2D0E94DBB760938808709389088093B3
:104630008A0890938B080C944C2D83E50E943EB819
:10464000882359F083E50E9487B8882319F00E94D7
:10465000EBB701C080E080930F06ECEBF5E28491AC
:104660008F010F5F1F4F811103C0E1E0F3E004C031
:104670000E94BDD3F801F3CF84918F010F5F1F4FCC
:10468000882321F00E94BDD3F801F6CF80910F0658
:10469000811157CDEDEFF2E018C0BB24B394B20EF8
:1046A000222319F08CE20E94BDD3F60185919491EA
:1046B000FC0184918F010F5F1F4F882321F00E941E
:1046C000BDD3F801F6CF2B2D4ECD84918F010F5F16
:1046D0001F4F882309F451CD0E94BDD3F801F5CFB7
:1046E000109222020C944C2D88E093E00E9480BA34
:1046F00083E50E9487B8811103C0ECEBF5E20DC0A1
:104700000E94EBB78D3320F4809349020C944C2D1A
:104710008CE3809349020C944C2D84918F010F5FA0
:104720001F4F882321F00E94BDD3F801F6CF40919E
:10473000490250E060E070E081E193E00E949FE177
:104740008AE00E94BDD30C944C2D89E690E00E9433
:1047500093B8811111C0E8E1F3E084918F010F5FFC
:104760001F4F882321F00E94BDD3F801F6CF0E948D
:10477000E1A48AE00E94BDD31092ED090C946D2E45
:1047800083E50E9487B8882311F40C944C2D0E9475
:10479000EBB7182F8D3308F01CE31093FA090E9431
:1047A000F9C66B017C01212F30E0A8EEB3E00E9436
:1047B00007F9C60ED71EE81EF91EC092F609D09260
:1047C000F709E092F809F092F9090C944C2D0E9437
:1047D000E0A60E9488CE68EE73E080E090E00E9440
:1047E000037760E08BE193E00E94B1770C944C2D4D
:1047F00010923E030C944C2D81E080933E030C9468
:104800004C2D83E50E9487B88823A1F00E940BB845
:1048100020E030E04AE754E40E9452F50E9460FA3A
:1048200060934A0270934B0280934C0290934D0226
:104830000C944C2D88E50E943EB881110C94F82D03
:1048400089E50E943EB881110C94F82D8AE50E94FA
:104850003EB881110C94F82D85E40E943EB8811178
:104860000C94F82D0E9488CE0C944C2D83E50E9468
:104870003EB8882311F40C944C2D0E940BB820E014
:1048800030E04AE754E40E9452F50E9460FA6093D7
:10489000F2097093F3098093F4099093F5090C944D
:1048A0004C2D3EE4C32E32E0D32E44E2E42E46E00B
:1048B000F42E10E0D6018D916D010E943EB8882340
:1048C00009F46DC0133009F063C00E940BB84B01AE
:1048D0005C0120E030E040EA51E40E94EDF487FF03
:1048E0004EC0A5019401609130067091310680910F
:1048F0003206909133060E94F3F92B013C019B0193
:10490000AC016091C0087091C1088091C20890917B
:10491000C3080E9452F56093C0087093C108809349
:10492000C2089093C308A30192016091190E70917F
:104930001A0E80911B0E90911C0E0E9452F56093EE
:10494000190E70931A0E80931B0E90931C0E60919B
:10495000AD147091AE148091AF149091B0140E9478
:10496000F1F4A30192010E9452F50E9460FA609353
:10497000AD147093AE148093AF149093B0148092E2
:10498000300690923106A0923206B092330607C0EC
:104990000E940BB8F70160837183828393831F5F4A
:1049A000F4E0EF0EF11C143009F084CF0E9474E79C
:1049B0000C944C2D0E94197183E50E9487B88823BE
:1049C00009F4D8C80E94DBB76230710509F0D2C87B
:1049D0000E94F6BE8BE50E94BDD36091730D70916D
:1049E000740D8091750D9091760D42E00E9449D42E
:1049F0004091770D5091780D6091790D70917A0DFD
:104A000089E293E00E94BCE140917B0D50917C0DC6
:104A100060917D0D70917E0D86E293E00E94BCE175
:104A20008DE50E94BDD38AE00E94BDD30C944C2D2D
:104A300084918F010F5F1F4F882321F00E94BDD307
:104A4000F801F6CF60E08BEF93E00E94A9A261E04D
:104A500084EF93E00E94A9A261E089EE93E00E94B6
:104A6000A9A261E089ED93E00E94A9A260E080ED37
:104A700093E00E94A9A261E086EC93E00E94A9A2C3
:104A800060E08CEB93E00E94A9A260E084EB93E0ED
:104A90000E94A9A261E086EA93E00E94A9A260E0D8
:104AA00088E993E00E94A9A260E089E893E00E946F
:104AB000A9A260E08BE793E00E94A9A260E085E6EE
:104AC00093E00E94A9A260E084E593E00E94A9A27D
:104AD00060E08FE393E00E94A9A261E08CE293E0A2
:104AE0000E94A9A2D9C78091E8099091E909DC0147
:104AF0002C91222321F060E00E94ED77CDC70E9427
:104B0000C149CAC70091E8091091E90983E0D12C95
:104B100040E08150E1F0F8019081292F2B7F213472
:104B2000C1F721812133A9F7913421F0953421F483
:104B300041E002C0DD24D39498012E5F3F4F8901EC
:104B40002F5F3F4FD8019C919032C9F3E2CF4423AD
:104B500069F0ECEBF5E284917F01BFEFEB1AFB0A01
:104B6000882321F00E94BDD3F701F5CFDD2069F045
:104B7000ECECF4E084917F012FEFE21AF20A882333
:104B800021F00E94BDD3F701F5CFD8018D918D01A1
:104B9000882309F4F2CA0E94BDD3F7CF0E9441B91D
:104BA0007BC720931D0420931C0476C783E50E94D5
:104BB00087B8882319F00E94DBB702C060E070E07C
:104BC0008B01112702301105D4F0E9E8F6E1849158
:104BD0008F010F5F1F4F811103C0E0EDF4E004C0AF
:104BE0000E94BDD3F801F3CF84918F010F5F1F4F57
:104BF000882309F451C70E94BDD3F801F5CF88E49A
:104C00000E9487B88823A9F00E94DBB76A3A710531
:104C10003CF06530B1E07B072CF064E071E002C04D
:104C20006AEA70E0F801EE0FFF1FE65BF64F718352
:104C3000608386E40E9487B8882309F42DC70E9408
:104C4000DBB7000F111FF801E25BF64F7183608341
:104C50006F3F710519F014F06FEF70E077FF02C03D
:104C600060E070E07183608317C788EC90E00E9479
:104C700093B8811111C784E40E943EB8882309F4D7
:104C800041C00E940BB86B017C0111E020E030E0D4
:104C9000A9010E94EDF4811101C010E01093D00829
:104CA00020E030E0A901C701B6010E94EDF488239D
:104CB00049F10E940BB8E091000924E0E29FF00165
:104CC0001124E453F74F608371838283938320E040
:104CD00030E0A9016091CC087091CD088091CE0898
:104CE0009091CF080E94EDF481110CC080E090E01B
:104CF000A0EEBFE38093CC089093CD08A093CE089C
:104D0000B093CF080E94F6CDC7C6BEE4EB2EB2E04A
:104D1000FB2E0DE11EE08DE2C82E8EE0D82ED701CD
:104D20008D917D010E943EB8882349F00E940BB806
:104D30000E9460FAF80160837183828393830C5F21
:104D40001F4FC016D10659F70E9403E6A5C60C5F97
:104D50001F4FFEE00D311F0709F49EC6D7018D914C
:104D60007D010E943EB8882391F30E940BB8F801A0
:104D70006083718382839383EACF83E50E9487B83F
:104D80008823A1F00E940BB86093350E7093360E05
:104D90008093370E9093380E60932D0E70932E0EE5
:104DA00080932F0E9093300E10E001C011E080E54B
:104DB0000E9487B8882359F00E940BB86093350E83
:104DC0007093360E8093370E9093380E10E082E584
:104DD0000E9487B8882359F00E940BB86093310E67
:104DE0007093320E8093330E9093340E10E084E56E
:104DF0000E9487B8882359F00E940BB860932D0E4B
:104E000070932E0E80932F0E9093300E45C6112373
:104E100009F442C64091350E5091360E6091370E1E
:104E20007091380E88EF94E00E94BCE14091310E01
:104E30005091320E6091330E7091340E85EF94E0F4
:104E40000E94BCE140912D0E50912E0E60912F0ECC
:104E50007091300E82EF94E00E94BCE18AE00E94E3
:104E6000BDD31AC681E50E943EB8882351F00E9446
:104E7000CBB760930E0470930F048093100490934B
:104E8000110483E50E943EB8882351F00E940BB8BC
:104E90006093090E70930A0E80930B0E90930C0E84
:104EA00084E50E943EB8882351F00E940BB86093BD
:104EB000050E7093060E8093070E9093080E88E5FA
:104EC0000E943EB8882351F00E940BB86093B4084A
:104ED0007093B5088093B6089093B70889E50E944F
:104EE0003EB8882351F00E940BB86093B8087093C5
:104EF000B9088093BA089093BB088AE50E943EB82F
:104F0000882351F00E940BB86093BC087093BD08D1
:104F10008093BE089093BF0885E40E943EB8882322
:104F200009F4BAC50E940BB86093C0087093C10819
:104F30008093C2089093C308AFC51F5FF4E0EF0EE3
:104F4000F11C133011F40C94BA1DD6018D916D0132
:104F50000E943EB8882389F30E940BB8F701608352
:104F6000718382839383812F0E9415B4E6CF0E94C0
:104F70002B81811191C508E315E22BE234E039AFB2
:104F800028AFAE014F5F5F4F5A0171E9872E75E27E
:104F9000972E1A01F8016591759185919491A8ADAC
:104FA000B9ADCD90DD90ED90FD90B9AFA8AFA70160
:104FB00096010E9416F92B013C01F1016083718377
:104FC0008283938320E030E040EA51EC0E943DFB75
:104FD00087FD0AC020E030E040EA51E4C301B2019D
:104FE0000E94EDF418162CF4F401849118160CF4B8
:104FF0002FC6D101CD90DD90ED90FD901D0120E0F8
:1050000030E040EA51ECC701B6010E943DFB87FD4C
:105010000AC020E030E040EA51E4C701B6010E9436
:10502000EDF4181684F5E9E8F6E184918F010F5F3D
:105030001F4F811103C0E6E2F5E004C00E94BDD31A
:10504000F801F3CF84918F010F5F1F4F882321F068
:105050000E94BDD3F801F6CF61E088E195E00E949F
:10506000B1770E945D4A88E290E099A388A388EC1A
:1050700090E09DA78CA7BE01605E7F4FCE018C960D
:105080000E94078009C50C5F1F4FBFEF8B1A9B0A58
:10509000E5E204341E0709F07DCF6FE1E62E64E0FF
:1050A000F62E10E0F50181919191A191B1915F01EE
:1050B000F70181939193A193B1937F01812F0E9476
:1050C00015B41F5F133071F70E94675660E088E0E7
:1050D00095E00E94B17783E992E09DA78CA704E652
:1050E00010E019A308A3BE01645D7F4FCE01809636
:1050F0000E9407808AEB92E09DA78CA719A308A3C2
:10510000BE01645D7F4FCE0180960E940780C4C4BB
:1051100084918F010F5F1F4F882321F00E94BDD320
:10512000F801F6CF83E50E943EB8882321F00E9463
:10513000FCB780933402ECE6F5E084918F010F5FB9
:105140001F4F882321F00E94BDD3F801F6CF809134
:105150003402882319F0E4E6F5E002C0E8E6F5E061
:1051600084918F010F5F1F4F811103C0ECE5F5E0C3
:1051700004C00E94BDD3F801F3CF84918F010F5F6B
:105180001F4F882321F00E94BDD3F801F6CF209154
:105190008F08309190084091910850919208609149
:1051A0009B0870919C0880919D0890919E080E9498
:1051B00017F9AB01BC018AE595E00E94BCE12091A2
:1051C0009308309194084091950850919608609109
:1051D0009F087091A0088091A1089091A2080E9458
:1051E00017F9AB01BC0187E595E00E94BCE1209175
:1051F0009708309198084091990850919A086091C9
:10520000A3087091A4088091A5089091A6080E9417
:1052100017F9AB01BC0184E595E00E94BCE1ECE428
:10522000F5E084918F010F5F1F4F882321F00E94CA
:10523000BDD3F801F6CF20918F08309190084091AE
:1052400091085091920860912802709129028091F2
:105250002A0290912B020E9417F9AB01BC018AE44B
:1052600095E00E94BCE12091930830919408409110
:1052700095085091960860912C0270912D028091B2
:105280002E0290912F020E9417F9AB01BC0187E416
:1052900095E00E94BCE120919708309198084091D8
:1052A000990850919A086091300270913102809172
:1052B0003202909133020E9417F9AB01BC0184E4E1
:1052C00095E00E94BCE18AE00E94BDD3E5C383E57E
:1052D0000E9487B8882309F4DFC30E94DBB770936C
:1052E000180260931702D8C38DED90E00E9493B826
:1052F0008111D2C383E50E9487B8811103C0ECEB12
:10530000F5E23BC00091000910E00E94DBB7000FFE
:10531000111FF801EB5EFD4F7183608380910009DE
:1053200090E08C01000F111F000F111F98012F5EDC
:105330003D4F7901880F991FFC01EB5EFD4F6081A5
:105340007181072E000C880B990B0E94F3F42AE060
:1053500037ED43E25CE30E9452F5F801EE55FC4F55
:1053600020813181428153810E9452F5D7016D9392
:105370007D938D939C9313978FC384918F010F5FBF
:105380001F4F882321F00E94BDD3F801F6CF85E49A
:105390000E94BDD380910009805D0E94BDD3E09141
:1053A0000009F0E0EE0FFF1FEB5EFD4F60817181A1
:1053B0008CE795E00E94D9E185E20E94BDD38AE0A6
:1053C0000E94BDD369C380E50E943EB8882309F4DA
:1053D00063C30E94DBB76B017C0183E50E9487B841
:1053E000882321F00E94DBB78B0102C00FEF1FEF73
:1053F000C8010196039708F04FC3D7FC4DC38C2D0D
:10540000E4E8F5E09491891709F42DC43196B5E0EC
:10541000E13BFB07B9F72AC483E50E9487B88823DC
:1054200019F00E94DBB702C064E071E079A368A3C1
:1054300080E50E9487B8882339F00E94DBB769387D
:10544000E3E17E0730F402C068EE73E07A8369839B
:1054500004C088E893E19A838983BE01605E7F4F30
:10546000CE0101960E94078017C385E40E9487B889
:10547000811110C080E50E943EB8882391F00E94FF
:105480000BB860933D0970933E0980933F09909358
:10549000400907C00E94EBB7882361F3E9E8F6E111
:1054A00071C089E40E943EB8882381F00E940BB845
:1054B0002CEA35EC47E25EE30E9452F56093450921
:1054C00070934609809347099093480984E40E94A9
:1054D0003EB8882381F00E940BB82CEA35EC47E2F5
:1054E0005EE30E94F3F9609341097093420980934F
:1054F000430990934409ECEBF5E284918F010F5F2F
:105500001F4F882321F00E94BDD3F801F6CF4091B0
:105510003D0950913E0960913F097091400989EB26
:1055200095E00E94BCE12CEA35EC47E25EE3609135
:1055300045097091460980914709909148090E9458
:10554000F3F9AB01BC0185EB95E00E94BCE12CEACC
:1055500035EC47E25EE36091410970914209809128
:105560004309909144090E9452F5AB01BC0181EBC3
:1055700095E00E94BCE18AE00E94BDD38DC20E94EA
:10558000BDD3F80184918F010F5F1F4F8111F7CFB9
:10559000EDEBF5E084918F010F5F1F4F882309F435
:1055A0007BC20E94BDD3F801F5CF83E50E943EB8CF
:1055B000182F882371F00E940BB80E945BFA709339
:1055C00024026093230221E0672B09F020E020935E
:1055D0000C0680E50E943EB8882359F020912302F2
:1055E00030912402232B11F00E94FCB780930C060B
:1055F00053C2111151C2ECEBF5E284918F010F5FA0
:105600001F4F882321F00E94BDD3F801F6CF80916F
:105610000C06882319F06CE073E002C06FE073E0C1
:1056200084EE95E00E94F2E16091230270912402E1
:1056300083ED95E00E94D9E1EFECF5E084918F01D4
:105640000F5F1F4F882309F427C20E94BDD3F801C2
:10565000F5CF0E94519E20C20E94BDD3F8018491D3
:105660008F010F5F1F4F8111F7CFE7EFF5E08491B6
:105670008F010F5F1F4F882309F40EC20E94BDD314
:10568000F801F5CF0E94197107C283E50E943EB868
:10569000882349F00E94FCB7182F811106C080E0D2
:1056A0000E94AFB702C010918D0880912B04909199
:1056B0002C04A0912D04B0912E0489839A83AB838E
:1056C000BC8380912F0490913004A0913104B0915B
:1056D00032048D839E83AF83B88780913304909189
:1056E0003404A0913504B091360489879A87AB873A
:1056F000BC8786E50E943EB8882321F083E396E0CC
:105700000E94BC81812F0E94AFB7111103C0ECEB46
:10571000F5E21DC080918D088111F9CFE9E8F6E12D
:1057200084918F010F5F1F4F811103C0E4E1F6E008
:1057300004C00E94BDD3F801F3CF84918F010F5FA5
:105740001F4F882321F30E94BDD3F801F6CF849127
:105750008F010F5F1F4F882321F00E94BDD3F801F6
:10576000F6CF80918D08882319F063E173E002C0C1
:1057700067E173E086E096E00E94F2E18AE00E9431
:10578000BDD34CE050E06BE274E0CE0101960E9484
:105790003CFC892B09F480C10E9467567DC10E94A0
:1057A000FADA7AC10E94C6D977C183E50E943EB871
:1057B000882321F00E94FCB791E089270E9494D5AC
:1057C0006BC181E080933A030E94783F10923A03C4
:1057D000882309F461C1ECEBF5E284918F010F5F3E
:1057E0001F4F811103C0E0E5F6E004C00E94BDD365
:1057F000F801F3CF84918F010F5F1F4F882309F4C5
:105800004BC10E94BDD3F801F5CF8BE592E00E9419
:1058100093B8811141C185E50E943EB88823D9F132
:105820000091000910E00E940BB86B017C0120E0A0
:1058300030E0A9010E943DFB87FF04C0F7FAF09415
:10584000F7F8F094000F111F000F111FF801E85333
:10585000F74FC082D182E282F38200910009F4E026
:105860000F9F800111240853174F20E030E048E4D7
:1058700053E4D8016D917D918D919C910E943DFBE7
:1058800018164CF480E090E0A8E4B3E4F8018083BB
:105890009183A283B3838CE40E943EB8882309F4E9
:1058A000FBC00091000910E00E940BB86B017C0165
:1058B00020E030E0A9010E943DFB87FF04C0F7FA19
:1058C000F094F7F8F094000F111F000F111FF8016A
:1058D000EC53F74FC082D182E282F382009100093B
:1058E000F4E00F9F800111240C53174F20E030E0AB
:1058F00048E453E4D8016D917D918D919C910E9473
:105900003DFB18160CF0C8C080E090E0A8E4B3E4BA
:10591000F80180839183A283B383BEC08BE40E948D
:1059200087B8811103C0ECEBF5E236C08BE40E942E
:1059300087B88823C1F00E940BB86B017C0120E07E
:1059400030E0A9010E943DFB87FD0AC020E030E065
:1059500040E251E4C701B6010E94EDF4181634F498
:10596000EBE5F6E00EC0C12CD12C76010E94197136
:10597000C092D108D092D208E092D308F092D40815
:105980008BC084918F010F5F1F4F882309F484C05F
:105990000E94BDD3F801F5CF84918F010F5F1F4F97
:1059A000882321F00E94BDD3F801F6CF4091D108A1
:1059B0005091D2086091D3087091D4088AE796E09C
:1059C0000E94BCE18AE00E94BDD366C081E0809362
:1059D00035021092780683E50E9487B8882339F053
:1059E0000E94FCB7811158C00E942FBF55C083E5AB
:1059F0000E943EB8F7CF0E94C3824EC0F090EA09E1
:105A00000E94197110918D0880E00E94AFB7FF20AD
:105A100029F1ECEBF5E284918F010F5F1F4F882392
:105A200021F00E94BDD3F801F6CF84E50E94BDD3DA
:105A30006F2D70E080E090E04AE00E94C4D380E2E5
:105A40000E94BDD3E7E9F6E084918F010F5F1F4FFD
:105A5000882311F10E94BDD3F801F6CF10920B06F6
:105A6000812F0E94AFB7ECEBF5E284918F010F5FBD
:105A70001F4F882321F00E94BDD3F801F6CF60911B
:105A80000B0670E085E896E00E94D9E18AE00E946A
:105A9000BDD302C00E94C3821092ED090E9412BFC2
:105AA0001CC10E942B5A0E94BABDF6CF0E941971E8
:105AB00010928E0880E00E94AFB70E94E9B211E018
:105AC00010931D0488E50E943EB8B82E89E50E9417
:105AD0003EB8082F8AE50E943EB8A82EB11004C037
