:100000000C9438170C9469170C9469170C946917A1
:100010000C9469170C9469170C9469170C94691760
:100020000C9469170C9469170C9469170C94691750
:100030000C9469170C9469170C9469170C94691740
:100040000C9469170C948ADF0C9469170C94691747
:100050000C9469170C9469170C9474B50C94FCE615
:100060000C9469170C9482DA0C9469170C94691734
:100070000C9469170C9469170C9469170C94691700
:100080000C9469170C9469170C9469170C946917F0
:100090000C9469170C9469170C9469170C946917E0
:1000A0000C9469170C9469170C9469170C946917D0
:1000B0000C9469170C9469170C9469170C946917C0
:1000C0000C9469170C9469170C9469170C946917B0
:1000D0000C9469170C9469170C9469170C946917A0
:1000E0000C9469172D6D136D166D196D1C6D286DAF
:1000F0001F6D396D226D256D79E57CE56BE56FE54A
:1001000075E5B3E580E584E58AE58EE592E598E559
:100110009CE5A0E5B3E5A6E5AAE5AEE518E61DE693
:1001200022E62CE636E6AFE640E648E650E65AE63A
:1001300064E66EE67DE687E6AFE691E69BE6A5E639
:10014000084AD73B3BCE016E84BCBFFDC12F3D6C3E
:1001500074319ABD56833DDA3D00C77F11BED9E4A4
:10016000BB4C3E916BAAAABE000000803F05A84C84
:10017000CDB2D44EB93836A9020C50B99186880850
:100180003CA6AAAA2ABE000000803F004E414E496C
:100190004E495459494E46CDCCCC3D0AD7233C1745
:1001A000B7D13877CC2B329595E6241FB14F0A0092
:1001B0000020410000C84200401C4620BCBE4CCA82
:1001C0001B0E5AAEC59D74434F4D4D554E4943418C
:1001D00054494F4E0044525952554E004552524FC9
:1001E000525300494E464F004543484F0047322F77
:1001F00047332062616420706172616D657465725D
:10020000730A00536C6565702E2E2E00206F6620D9
:10021000004D424C2047323920706F696E742000C7
:1002200059206F7574206F662072616E6765202893
:10023000312D33292E0A0058206F7574206F6620E7
:1002400072616E67652028312D33292E0A004D65B5
:1002500073682070726F62696E6720646F6E652EBE
:100260000A005374617274206D6573682070726F38
:1002700062696E672077697468202247323920539B
:1002800031222066697273742E0A004732380A4799
:1002900032392053320053746174653A20004D6541
:1002A000736820626564206C6576656C696E672092
:1002B000686173206E6F20646174612E0A005320A0
:1002C0006F7574206F662072616E67652028302D0F
:1002D00035292E0A004D65736820706F696E742091
:1002E00063616E6E6F74206265207265736F6C76E9
:1002F00065640A00436C69636B20746F20726573D8
:10030000756D652E2E2E004E6F206D6F76652E005A
:10031000456E642066696C65206C6973740A0042DE
:100320006567696E2066696C65206C6973740A0084
:10033000286E6F2066696C652900534420707269CD
:100340006E74696E67206279746520004E6F742048
:100350005344207072696E74696E670A0043757247
:1003600072656E742066696C653A200046696C653A
:100370002064656C657465643A0044656C657469F5
:100380006F6E206661696C65642C2046696C653A05
:1003900020005072696E742074696D653A2000E81F
:1003A00001E301DC01D501C7016F666600444542E7
:1003B00055473A004B494C4C45442E20004D3131B5
:1003C000332053006F6B005246313030204F666649
:1003D0002E002C20002C2000544845524D414C5FEB
:1003E00050524F54454354494F4E004155544F527B
:1003F00045504F52545F53445F535441545553003A
:10040000454D455247454E43595F50415253455221
:1004100000434153455F4C494748545F4252494766
:1004200048544E45535300544F47474C455F4C4941
:100430004748545300534F4654574152455F504F1D
:10044000574552004255494C445F50455243454E32
:1004500054004C4556454C494E475F444154410079
:100460005A5F50524F4245004155544F4C455645F6
:100470004C005052494E545F4A4F420050524F4731
:1004800052455353004155544F5245504F52545FBB
:1004900054454D5000564F4C554D4554524943001C
:1004A000454550524F4D0053455249414C5F584FBE
:1004B0004E5F584F4646004649524D574152455FA0
:1004C0004E414D453A4D61726C696E20312E312E90
:1004D0003920284769746875622920534F55524363
:1004E000455F434F44455F55524C3A68747470738E
:1004F0003A2F2F6769746875622E636F6D2F4D6197
:10050000726C696E4669726D776172652F4D6172AA
:100510006C696E2050524F544F434F4C5F564552BA
:1005200053494F4E3A312E30204D414348494E45B4
:100530005F545950453A5246313030204558545254
:10054000554445525F434F554E543A312055554915
:10055000443A63656465326132662D343161322D0F
:10056000343734382D396231322D633535633632C4
:100570006633363766660A002F2F20004D3134353A
:1005800020533C696E6465783E206F7574206F66F9
:100590002072616E67652028302D31290A002054B1
:1005A00000205200416363656C65726174696F6E0F
:1005B0003A2050005741524E494E4721204C6F7708
:1005C000205A204A65726B206D6179206C656164E8
:1005D00020746F20756E77616E746564207061752C
:1005E0007365732E0A0020466C6F773A2000000175
:1005F00036372603FFFFFF353C3D38FF0FFFFF3145
:100600002E303E12FFFFFFFF28FF0C08FFFFFFFF09
:100610001A1C18FFFF2A08440A094320643A0020E4
:10062000693A0020703A00496E76616C6964206511
:10063000787472756465720A0043290A0061626CFD
:10064000656420286D696E2074656D702000436FAD
:100650006C642065787472756465732061726520BE
:10066000004E6F2063617365206C696768740A00CF
:10067000454550524F4D204F4B0A003F4B2076616D
:100680006C7565206F7574206F662072616E67658A
:100690002028302D3130292E0A00416476616E63A6
:1006A00065204B3D0041637469766520457874721E
:1006B000756465723A2000496E76616C69642065E4
:1006C000787472756465720A0024F4D43050C38E55
:1006D00020C2A24017828B7011127A910D816CD9C1
:1006E0000AA861E108C7586607615143061E4B5DC1
:1006F00005C145A7041A411104093D980371393118
:10070000034036DB0265339102D4305402802E1D43
:1007100002632CEE01752AC501B028A001102781C3
:10072000018F2564012B244B01E0223401AC211FF1
:10073000018D200D01801FFC00841EED00971DDF40
:1007400000B81CD200E61BC600201BBC00641AB215
:1007500000B219A8000A19A0006A189900D11791CF
:100760000040178B00B516840031167E00B3157952
:10077000003A157300C7146F0058146A00EE136630
:10078000008813630025135E00C7125B006C1257CC
:100790000015125400C111510070114F0021114B6E
:1007A00000D61049008D1047004610440002104248
:1007B00000C00F4000800F3E00420F3C00060F3B80
:1007C00000CB0E3800930E37005C0E3500270E3438
:1007D00000F30D3200C10D3100900D3000600D2E80
:1007E00000320D2D00050D2C00D90C2B00AE0C296C
:1007F00000850C29005C0C2700350C27000E0C2608
:1008000000E80B2400C40B2400A00B23007D0B2365
:10081000005A0B2100390B2100180B2000F80A1F89
:1008200000D90A1E00BB0A1E009D0A1D00800A1D79
:1008300000630A1C00470A1B002C0A1B00110A1A3D
:1008400000F7091A00DD091900C4091900AB0919DC
:1008500000920917007B091800630917004C09165C
:100860000036091600200916000A091500F50815BA
:1008700000E0081400CC081400B8081400A4081400
:1008800000900813007D0812006B0813005808122E
:100890000046081200340811002308110012081144
:1008A0000001081100F0071000E0071000D0071049
:1008B00000C0071000B0070F00A107100091070E3D
:1008C0000083070F0074070F0065070E0057070E1F
:1008D0000049070E003B070D002E070E0020070DF4
:1008E0000013070D0006070D00F9060C00ED060DBC
:1008F00000E0060C00D4060C00C8060C00BC060C78
:1009000000B0060C00A4060B0099060C008D060B27
:100910000082060B0077060B006C060B0061060ACE
:100920000057060B004C060A0042060A0038060A69
:10093000002E060A0024060A001A060A00100609FC
:100940000007060A00FD050900F4050900EB05098A
:1009500000E2050900D9050900D0050900C705090D
:1009600000BE050900B5050800AD050800A505098C
:10097000009C050800940508008C05080084050803
:10098000007C050800740508006C05070065050873
:10099000005D050700560508004E050700470507DE
:1009A000004005080038050700310507002A050743
:1009B00000230507001C050600160507000F0507A4
:1009C000000805060002050700FB040600F5040701
:1009D00000EE040600E8040600E2040700DB04065B
:1009E00000D5040600CF040600C9040600C30406AF
:1009F00000BD040600B7040600B1040500AC0406FF
:100A000000A6040600A00405009B0406009504054A
:100A100000900406008A0405008504050080040691
:100A2000007A04050075040500700405006B0405D8
:100A30000066040500610405005C04050057040518
:100A400000520405004D0405004804050043040558
:100A5000003E0404003A0405003504050030040497
:100A6000002C04050027040400230405001E0404D0
:100A7000001A04040016040500110404000D040407
:100A800000090405000404040000040400FC03043D
:100A900000F8030400F4030400F0030400EC030472
:100AA00000E8030400E4030400E0030400DC0304A2
:100AB00000D8030400D4030400D0030400CC0304D2
:100AC00000C8030300C503030024F404D9201BC499
:100AD0000C5C0E9804C4095F0265077101F405F906
:100AE00000FB04B30048048700C1036900580355A4
:100AF0000003034500BE023A008402310053022A7B
:100B0000002902250004022000E4011C00C801198C
:100B100000AF011700980114008401130071011047
:100B2000006101100051010E0043010D0036010B60
:100B3000002B010B0020010B00150109000C01091D
:100B40000003010800FB000800F3000800EB0007A9
:100B500000E4000600DE000600D8000600D2000611
:100B600000CC000500C7000500C2000500BD000460
:100B700000B9000400B5000400B1000400AD000499
:100B800000A9000400A5000300A20003009F0004C8
:100B9000009B0003009800030095000200930003EF
:100BA00000900003008D0002008B0003008800020B
:100BB000008600020084000300810002007F000222
:100BC000007D0002007B0002007900020077000136
:100BD0000076000200740002007200010071000241
:100BE000006F0002006D0001006C0002006A00014D
:100BF0000069000200670001006600010065000155
:100C00000064000200620001006100010060000158
:100C1000005F0002005D0001005C0001005B00015C
:100C2000005A00010059000100580001005700015E
:100C3000005600010055000100540001005300005F
:100C4000005300010052000100510001005000015A
:100C5000004F0001004E0000004E0001004D000159
:100C6000004C0001004B0000004B0001004A000155
:100C70000049000100480000004800010047000151
:100C8000004600000046000100450000004500014C
:100C90000044000100430000004300010042000046
:100CA000004200010041000000410001004000013D
:100CB000003F0000003F0001003E0000003E000138
:100CC000003D0000003D0001003C0000003C000031
:100CD000003C0001003B0000003B0001003A000026
:100CE000003A00010039000000390001003800001E
:100CF0000038000000380001003700000037000114
:100D0000003600000036000000360001003500000B
:100D10000035000000350001003400000034000000
:100D200000340001003300000033000000330001F4
:100D300000320000003200000032000100310000EB
:100D400000310000003100010030000000300000E0
:100D500000300001002F0000002F0000002F0000D5
:100D6000002F0001002E0000002E0000002E0001C8
:100D7000002D0000002D0000002D0000002D0001BE
:100D8000002C0000002C0000002C0000002C0001B2
:100D9000002B0000002B0000002B0000002B0001A6
:100DA000002A0000002A0000002A0000002A00019A
:100DB000002900000029000000290000002900008F
:100DC0000029000100280000002800000028000081
:100DD0000028000000280001002700000027000074
:100DE0000027000000270000002700010026000067
:100DF000002600000026000000260000002600015A
:100E0000002500000025000000250000002500004E
:100E1000002500000025000100240000002400003F
:100E20000024000000240000002400010023000032
:100E30000023000000230000002300000023000026
:100E40000023000000230001002200000022000017
:100E50000022000000220000002200000022000109
:100E600000210000002100000021000000210000FE
:100E700000210000002100000021000100200000EE
:100E800000200000002000000020000000200000E2
:100E9000002000000020000000200001001F0000D2
:100EA000001F0000001F0000001F0000001F0000C6
:100EB000001F0000001F0001001E0000001E0000B7
:100EC000001E0000001E000000232C0000B82200BD
:100ED00000561800003A0F0000B8080000B10400E6
:100EE00000710200003E0100004572726F722077AF
:100EF000726974696E6720746F20454550524F4D7A
:100F0000210A00454550524F4D2064617461736958
:100F10007A65206572726F722E0A00290A002062BB
:100F2000797465733B206372632000536574746940
:100F30006E67732053746F726564202800290A005D
:100F40002062797465733B206372632000207374A0
:100F50006F7265642073657474696E67732072655F
:100F600074726965766564202800202863616C636B
:100F7000756C6174656429210A0020213D200045BB
:100F80004550524F4D20435243206D69736D61743B
:100F90006368202D202873746F72656429200020F7
:100FA00053697A653A2000496E6465783A200020DA
:100FB0004D61726C696E3D563535290A00284545EC
:100FC00050524F4D3D00454550524F4D2076657271
:100FD00073696F6E206D69736D617463682000259D
:100FE000753A2530327500253032753A2530327524
:100FF000002D2D2D005344002020202020200020F3
:101000002020200052463130302052656164792E14
:10101000005072696E74696E672E2E2E00507269D0
:101020006E7420706175736564005072696E74200F
:1010300061626F72746564004E6F20534420636177
:101040007264005072696E742066726F6D20534432
:101050000053746F70207072696E740052657375FE
:101060006D65207072696E740041626F75742050F6
:1010700072696E7465720050617573652070726973
:101080006E7400436F6E74726F6C005072657061A5
:1010900072650054756E6500496E666F20736372E9
:1010A00065656E004368616E67652066696C616D99
:1010B000656E74004368616E67652066696C616D7A
:1010C000656E74004D36303020423000466C6F77CC
:1010D00000466C6F77004E6F7A7A6C65004E6F7ABF
:1010E0007A6C6500466164652048656967687400CC
:1010F0004661646520486569676874004661646597
:1011000020486569676874005370656564005370B2
:10111000656564004D61696E007C3C3E5E2B3D3F21
:101120002F5B5D3B2C2A225C0020746F6F206C6F5C
:101130006E6720657874727573696F6E2070726562
:1011400076656E7465640A0020636F6C6420657850
:1011500074727573696F6E2070726576656E7465F2
:10116000640A00556E6B6E6F776E20636F6D6D61F4
:101170006E643A202200486F74656E6420746F6F4D
:1011800020636F6C640A00486F6D652025732573BA
:101190002573206669727374002066697273740A1D
:1011A000005A0059005800486F6D6520004D3234D8
:1011B000004D323320257300534420636172642054
:1011C0006F6B0A006F70656E526F6F742066616995
:1011D0006C65640A00766F6C756D652E696E697456
:1011E000206661696C65640A00534420696E697405
:1011F000206661696C0A0057726974696E672074B1
:101200006F2066696C653A20006F70656E206661BC
:10121000696C65642C2046696C653A20006F7065C6
:101220006E206661696C65642C2046696C653A20A5
:101230000046696C652073656C65637465640A00BB
:101240002053697A653A200046696C65206F7065A5
:101250006E65643A20002066696C653A2000646F10
:10126000696E67006672657368004E6F772000458F
:101270004E4420535542524F5554494E450A002280
:1012800020706F73002220706172656E743A2200C4
:10129000535542524F5554494E452043414C4C20E2
:1012A0007461726765743A22004B494C4C45442E78
:1012B0002000747279696E6720746F2063616C6CB2
:1012C000207375622D67636F64652066696C657352
:1012D000207769746820746F6F206D616E79206C5F
:1012E0006576656C732E204D4158206C6576656C73
:1012F0002069733A004572726F723A004B494C4C48
:1013000045442E200053544F505045442E20005049
:1013100072696E7465722073746F70706564206496
:10132000756520746F206572726F72732E20466926
:101330007820746865206572726F7220616E642017
:10134000757365204D39393920746F207265737457
:101350006172742E202854656D70657261747572A7
:10136000652069732072657365742E20536574203F
:101370006974206166746572207265737461727439
:10138000696E67290A004E6F20436865636B737549
:101390006D2077697468206C696E65206E756D626A
:1013A00065722C204C617374204C696E653A200084
:1013B0004E6F20436865636B73756D207769746841
:1013C000206C696E65206E756D6265722C204C61B3
:1013D0007374204C696E653A2000636865636B73B3
:1013E000756D206D69736D617463682C204C617339
:1013F00074204C696E653A20004C696E65204E750C
:101400006D626572206973206E6F74204C61737415
:10141000204C696E65204E756D6265722B312C20F3
:101420004C617374204C696E653A20004D31313047
:10143000004D33310053442072656164206572723F
:101440006F720A00446F6E65207072696E74696E07
:10145000672066696C650A0020496E76616C696474
:1014600020657874727564657220000000000000C9
:10147000000000000000000000D2420000DC42003A
:1014800000DC42486F6D696E67206661696C656457
:10149000004D657368204C6576656C696E67004524
:1014A00078747275646572733A2031006874747070
:1014B0003A2F2F6D61726C696E66772E6F726700BE
:1014C000524631303000323031382D30382D303105
:1014D00000312E312E39004D61726C696E005072F0
:1014E000696E746572205374617473005468657218
:1014F0006D6973746F727300426F61726420496E1C
:10150000666F005072696E74657220496E666F0076
:101510004D61696E004D37303220542564004D36E0
:10152000303020423020542564004D373032203B8B
:101530002564004D37303120542564004368616EC6
:1015400067652066696C616D656E740050726568D0
:101550006561742041425300507265686561742072
:10156000504C41004368616E67652066696C616D2F
:10157000656E74005052494E5420504155534544B5
:1015800000554E4C4F41442046494C414D454E5428
:10159000004C4F41442046494C414D454E5400506B
:1015A00075726765206D6F726500436F6E74696E4A
:1015B000756500524553554D45204F5054494F4E87
:1015C000533A0020204E6F7A7A6C653A20006368A7
:1015D000616E6765006F66207468652066696C617E
:1015E0006D656E74005761697420666F7220737444
:1015F0006172740020204E6F7A7A6C653A20006622
:10160000696C616D656E7420756E6C6F61640057F6
:1016100061697420666F720020204E6F7A7A6C6563
:101620003A2000506C6561736520776169742E2ED5
:101630002E0048656174696E67206E6F7A7A6C65FA
:101640000020204E6F7A7A6C653A200068656174DC
:10165000206E6F7A7A6C652E00507265737320620B
:101660007574746F6E20746F0020204E6F7A7A6CE0
:10167000653A2000746F20636F6E74696E75652E15
:101680002E2E00616E642070726573732062757413
:10169000746F6E00496E736572742066696C616D5B
:1016A000656E740020204E6F7A7A6C653A20006671
:1016B000696C616D656E74206C6F6164005761695F
:1016C0007420666F720020204E6F7A7A6C653A2023
:1016D0000066696C616D656E742070757267650077
:1016E0005761697420666F7200746F20726573753C
:1016F0006D65005761697420666F72207072696E43
:1017000074005654726176206D696E005654726191
:1017100076206D696E005654726176206D696E0098
:10172000566D696E00566D696E00566D696E005695
:101730006D6178204500566D6178204500566D61D9
:1017400078204500566D6178205A00566D617820EA
:101750005A00566D6178205A00566D617820590004
:10176000566D6178205900566D6178205900566D8C
:101770006178205800566D6178205800566D617868
:101780002058004D6F74696F6E00416D617820457F
:1017900000416D6178204500416D6178205A00411B
:1017A0006D6178205A00416D6178205900416D616A
:1017B00078205900416D6178205800416D61782092
:1017C0005800412D74726176656C00412D74726110
:1017D00076656C00412D7265747261637400412DF1
:1017E0007265747261637400416363656C00416388
:1017F00063656C004D6F74696F6E0056652D6A6588
:10180000726B0056652D6A65726B0056652D6A65B0
:10181000726B00567A2D6A65726B00567A2D6A6576
:10182000726B0056792D6A65726B0056792D6A6568
:10183000726B0056792D6A65726B0056782D6A6559
:10184000726B0056782D6A65726B0056782D6A654A
:10185000726B004D6F74696F6E00457374657073C1
:101860002F6D6D004573746570732F6D6D005A7325
:10187000746570732F6D6D005A73746570732F6D7E
:101880006D005973746570732F6D6D0059737465B5
:1018900070732F6D6D005873746570732F6D6D00CC
:1018A0005873746570732F6D6D004D6F74696F6E32
:1018B00000436172642072656D6F766564004361F8
:1018C000726420696E7365727465640000002200A2
:1018D000250028002B002E003100340002010000FA
:1018E000050108010B01000020002300260029004B
:1018F0002C002F0032000001000003010601090145
:1019000005050505070508080808020202020A0A7B
:101910000808040404040101010101010101030399
:10192000030303030303040707070C0C0C0C0C0C44
:101930000C0C0202020206060606060606060B0B41
:101940000B0B0B0B0B0B0102102020080810204082
:101950001020408002010201080402010102040873
:101960001020408080402010080402018004020101
:10197000804020100804020108040201010204084A
:1019800010204080010204081020408000000A0B53
:1019900002090C0D0E0807030401000000000000FE
:1019A0000000000000000000000000000000000037
:1019B00000000000000000001211100000000000F4
:1019C0000000000000000000000000000000000017
:1019D000000000000000010204040000001C1C0CB8
:1019E00004040402010000000000040810000000CC
:1019F00000002D2D2D2D2D2D007C4D61726C696EFA
:101A00007C002D2D2D2D2D2D00687474703A2F2FF4
:101A10006D61726C696E66772E6F726700687474A0
:101A2000703A2F2F6D61726C696E66772E6F7267D8
:101A30000020312E312E39002020506C616E6E65F1
:101A40007242756666657242797465733A20002049
:101A500046726565204D656D6F72793A2000436F5F
:101A60006D70696C65643A204175672031362032AB
:101A70003031390A00207C20417574686F723A2039
:101A8000286E6F6E652C2064656661756C742063CA
:101A90006F6E666967290A00323031382D30382D73
:101AA000303100204C61737420557064617465643A
:101AB0003A2000312E312E390A004D61726C696E68
:101AC0000020536F66747761726520526573657488
:101AD0000A00205761746368646F672052657365FC
:101AE000740A002042726F776E206F757420526501
:101AF0007365740A002045787465726E616C2052BB
:101B0000657365740A00506F77657255700A0073CB
:101B1000746172740A006175746F25692E670065BF
:101B200072726F722077726974696E6720746F20A9
:101B300066696C650A00456E6473746F7073202566
:101B40006320256320256320256300205A3A002066
:101B5000593A0020583A00656E6473746F707320B0
:101B60006869743A2000446F6E6520736176696E0F
:101B7000672066696C652E0A004D3239004F666633
:101B80000A00466164652048656967687420004200
:101B90006564204C6576656C696E672000466169F6
:101BA0006C656420746F20656E61626C65204265AF
:101BB00064204C6576656C696E670A004D657368D4
:101BC00020426564204C6576656C20646174613ADE
:101BD0000A004D65736820706F696E742063616ED2
:101BE0006E6F74206265207265736F6C7665640A2F
:101BF000004D34323120696E636F727265637420F8
:101C0000706172616D657465722075736167650AD4
:101C1000004F666673657473206170706C696564EB
:101C2000004572723A20546F6F2066617221005431
:101C30006F6F206661722066726F6D2072656665D7
:101C400072656E636520706F696E740A004D363080
:101C5000303A20546F6F20636F6C6400486F746576
:101C60006E6420746F6F20636F6C640A00496E733A
:101C70006572742066696C616D656E7420616E6456
:101C800020707265737320627574746F6E0A0050F1
:101C90007265737320627574746F6E20746F206840
:101CA000656174206E6F7A7A6C650A00496E73659F
:101CB00072742066696C616D656E7420616E64205B
:101CC000707265737320627574746F6E20286F7202
:101CD000204D313038290A00496E736572742066D0
:101CE000696C616D656E7420616E642070726573DD
:101CF0007320627574746F6E20286F72204D3130BE
:101D000038290A0048617264636F64656420446521
:101D10006661756C742053657474696E6773204CCA
:101D20006F616465640A00F4010000F4010000645E
:101D300000000010270000000096430000964300BA
:101D400000A0410000C841D7A39D42D7A39D4200F7
:101D50000048440000D44220286D6D290020204D09
:101D600036303320002055004C0046696C616D65AB
:101D70006E74206C6F61642F756E6C6F6164206C83
:101D8000656E677468733A0A0020204D3930302040
:101D90004B004C696E65617220416476616E6365CB
:101DA0003A0A0020440020490020204D33303120E1
:101DB00050005049442073657474696E67733A0A21
:101DC0000020460020420020480020204D313435BC
:101DD0002053004D6174657269616C20686561749F
:101DE000757020706172616D65746572733A0A0076
:101DF000205A0020590020204732392053332058E0
:101E000000205A0020204D3432302053004D65739D
:101E10006820426564204C6576656C696E673A0A95
:101E200000205A0020590020204D32303620580022
:101E3000486F6D65206F66667365743A0A002045C9
:101E400000205A0020590020580020540020530040
:101E500020204D32303520510020453C6D61785FA7
:101E6000655F6A65726B3E0020583C6D61785F78F3
:101E70005F6A65726B3E20593C6D61785F795F6A7D
:101E800065726B3E205A3C6D61785F7A5F6A65725D
:101E90006B3E00416476616E6365643A20513C6D2F
:101EA000696E5F7365676D656E745F74696D655F9C
:101EB00075733E20533C6D696E5F66656564726143
:101EC00074653E20543C6D696E5F74726176656C1A
:101ED0005F66656564726174653E0020540020523F
:101EE0000020204D323034205000416363656C6522
:101EF000726174696F6E2028756E6974732F733206
:101F0000293A20503C7072696E745F616363656C3E
:101F10003E20523C726574726163745F61636365F5
:101F20006C3E20543C74726176656C5F61636365DE
:101F30006C3E0A00204500205A0020590020204D08
:101F40003230312058004D6178696D756D204163E4
:101F500063656C65726174696F6E2028756E697453
:101F6000732F7332293A0A00204500205A00205965
:101F70000020204D3230332058004D6178696D7556
:101F80006D206665656472617465732028756E697D
:101F900074732F73293A0A00204500205A002059F3
:101FA0000020204D39322058005374657073207022
:101FB000657220756E69743A0A0020204D32303007
:101FC0002044300A0020204D32303020440020448C
:101FD000697361626C65640A0046696C616D656E67
:101FE000742073657474696E67733A0020204D31F4
:101FF00034392043203B20556E69747320696E206C
:1020000043656C736975730A0020204732312020C4
:1020100020203B00545249474745524544006F70C9
:10202000656E003A20007A5F6D696E00795F6D61C0
:102030007800785F6D696E005265706F7274696EBA
:102040006720656E6473746F702073746174757348
:102050000A002569730025696D20256973002569CB
:10206000682025696D20256973002569642025692C
:10207000682025696D202569730025697920256907
:1020800064202569682025696D2025697300206E0C
:102090006F7420656E74657265642E0A0050726FED
:1020A0007465637465642050696E0A0046696C61EA
:1020B0006D656E7420757365643A200053746174A5
:1020C000733A20002C204C6F6E67657374206A6F22
:1020D000623A2000546F74616C2074696D653A2017
:1020E0000053746174733A20002C204661696C655A
:1020F000643A20002C2046696E69736865643A2052
:10210000005072696E74733A200053746174733AAC
:10211000200020573A004520436F6F6C696E672E90
:102120002E2E00452048656174696E672E2E2E00A4
:10213000205A3A0020593A0020436F756E74205897
:102140003A0020453A00205A3A0020593A00583ABD
:10215000003A004361703A00205A002059005800AC
:1021600020204D61783A2000205A00205900580064
:1021700020204D696E3A20004F6E20004F666600A9
:10218000536F667420656E6473746F70733A2000C9
:1021900023646566696E652044454641554C545F2D
:1021A0004B64200023646566696E652044454641A2
:1021B000554C545F4B69200023646566696E652049
:1021C00044454641554C545F4B70200050494420D3
:1021D0004175746F74756E652066696E69736865A4
:1021E00064212050757420746865206C61737420BC
:1021F0004B702C204B6920616E64204B6420636F10
:102200006E7374616E74732066726F6D2062656C9C
:102210006F7720696E746F20436F6E6669677572A1
:102220006174696F6E2E680A0050494420417574CC
:102230006F74756E65206661696C656421207469D0
:102240006D656F75740A00453120544845524D4103
:102250004C2052554E4157415900546865726D618A
:102260006C2052756E617761790045312048656157
:1022700074696E67206661696C65640048656174A5
:10228000696E67206661696C65640050494420414D
:1022900075746F74756E65206661696C6564212064
:1022A00054656D706572617475726520746F6F200E
:1022B000686967680A00204B643A2000204B693A3D
:1022C0002000204B703A20000A20436C6173736930
:1022D0006320504944200A002054753A2000204BC6
:1022E000753A2000206D61783A2000206D696E3AC1
:1022F000200020643A200020626961733A20005077
:102300004944204175746F74756E65206661696C0F
:102310006564212042616420657874727564657219
:10232000206E756D6265720A0050494420417574D3
:102330006F74756E652073746172740A00457874E9
:102340007275646572004D6F7665205A004D6F7628
:10235000652059004D6F7665205800507265706198
:10236000726500496E697469616C697A65204545DA
:1023700050524F4D00436F6E74726F6C0052657314
:10238000746F7265206661696C73616665004C6F7D
:1023900061642073657474696E677300496E697453
:1023A00069616C697A6520454550524F4D00537400
:1023B0006F72652073657474696E67730046696C2B
:1023C000616D656E74004D6F74696F6E0054656D5C
:1023D0007065726174757265004D61696E0050724E
:1023E00065686561742041425320636F6E660050DA
:1023F00072656865617420504C4120636F6E6600A1
:102400005049442D44005049442D44005049442D26
:1024100049005049442D49005049442D500050492D
:10242000442D5000200220466163740020022046A3
:10243000616374002002204D6178002002204D610C
:1024400078002002204D6178002002204D696E0046
:102450002002204D696E002002204D696E004F66FB
:1024600066004F6E20004175746F74656D70004E8C
:102470006F7A7A6C65004E6F7A7A6C6500436F6E86
:1024800074726F6C0053746F726520736574746935
:102490006E6773004E6F7A7A6C65004E6F7A7A6C55
:1024A000650046616E2073706565640046616E204C
:1024B00073706565640054656D70657261747572E2
:1024C000650070012C0190012701B0012201C001BB
:1024D0001D01F00118011002130130020E0160020B
:1024E000090190020401C002FF000003FA0040034A
:1024F000F5008003F000D003EB002004E600700438
:10250000E100E004DC004005D700C005D200400631
:10251000CD00D006C8008007C3003008BE00F00818
:10252000B900C009B400B00AAF00B00BAA00D00CCB
:10253000A500000EA000500F9B00C0109600501286
:10254000910000148C00C0158700B0178200B019EC
:102550007D00D01B7800001E730040206E0090228A
:102560006900F024640040275F0090295A00E02BA6
:102570005500102E500020304B0010324600E03342
:10258000410090353C001037370070383200A039D8
:102590002D00B03A2800A03B2300603C1E00103DF7
:1025A0001900903D1400103E0F00703E0A00C03E1E
:1025B0000500003F0000403FFBFF803FF6FFC03FAB
:1025C000F1FF09FFFFFFFFFF00010101010162654B
:1025D000640A002C2073797374656D2073746F70B6
:1025E00070656421204865617465725F49443A20D2
:1025F00000453120544845524D414C2052554E41E2
:1026000057415900546865726D616C2052756E6156
:102610007761790045312048656174696E6720668D
:1026200061696C65640048656174696E6720666104
:10263000696C6564004531204572723A204D4158FD
:1026400054454D50004D415854454D5020747269C9
:10265000676765726564004531204572723A204DA6
:10266000494E54454D50004D494E54454D502074EF
:102670007269676765726564004D38342058205967
:10268000205A204500202F0020403A004261636B11
:10269000004E65787420636F726E6572004D34323F
:1026A00038005072656865617420504C4100436F7A
:1026B0006F6C646F776E004368616E676520666952
:1026C0006C616D656E74004368616E676520666954
:1026D0006C616D656E74004D3630302042300044C0
:1026E000697361626C6520737465707065727300E4
:1026F0004D38340053657420686F6D65206F6666D1
:10270000736574730050726568656174204142534B
:10271000004C6576656C20636F726E65727300465F
:102720006164652048656967687400466164652076
:102730004865696768740046616465204865696733
:102740006874004F6666004F6E2000426564204C3E
:102750006576656C696E67004C6576656C206265B0
:1027600064004732380A473239004175746F206877
:102770006F6D6500473238004D6F7665206178696E
:1027800073004D61696E004D6F76652058004D6F86
:1027900076652059004D6F7665205A004578747231
:1027A00075646572004D6F766520302E316D6D0059
:1027B0004D6F766520316D6D004D6F76652031303F
:1027C0006D6D004D6F766520617869730045787492
:1027D0007275646572004D6F7665205A004D6F7694
:1027E000652059004D6F7665205800526573656EFF
:1027F000643A20006F6B0020746F6F206C6F6E67FF
:1028000020657874727573696F6E20707265766575
:102810006E7465640A0020636F6C6420657874725E
:102820007573696F6E2070726576656E7465640A83
:1028300000627573793A2070617573656420666F04
:102840007220696E7075740A00627573793A20702F
:10285000617573656420666F7220757365720A0016
:10286000627573793A2070726F63657373696E670E
:102870000A004B494C4C45442E20004B494C4C20FF
:10288000636175736564206279204B494C4C20620A
:102890007574746F6E2F70696E0A004B494C4C450D
:1028A000442E20004B494C4C2063617573656420B5
:1028B000627920746F6F206D75636820696E616343
:1028C000746976652074696D65202D206375727258
:1028D000656E7420636F6D6D616E643A2000506C9C
:1028E00065617365207265736574005052494E547A
:1028F00045522048414C544544005072696E7465FD
:10290000722068616C7465642E206B696C6C282978
:102910002063616C6C6564210A00656E7175657574
:1029200065696E67202200000000000000DC4200A4
:1029300000000000004842000048420000804000C3
:102940000000005761726E696E673A20486F6D69CA
:102950006E672042756D702044697669736F7220CE
:102960003C20310A000202040000A0400000A04008
:10297000000000400000D2420000DC420000DC42C7
:10298000FF01FF53746570732F6D6D004A65726BA4
:1029900000416363656C65726174696F6E005665B2
:1029A0006C6F6369747900436F6E74726F6C004C66
:1029B0006F6164206D6D004C6F6164206D6D004C23
:1029C0006F6164206D6D00556E6C6F6164206D6D7C
:1029D00000556E6C6F6164206D6D00556E6C6F619B
:1029E00064206D6D0046696C2E204469612E00469E
:1029F000696C2E204469612E004F6666004F6E2080
:102A0000004520696E206D6D3300416476616E6310
:102A100065204B00416476616E6365204B00436F17
:102A20006E74726F6C0043616E6E6F7420656E74AD
:102A30006572207375626469723A2000052E2E005B
:102A40004D61696E00004578747275646564207428
:102A50006F74616C3A2000256C642E25696D00004E
:102A60004C6F6E67657374206A6F622074696D6560
:102A70003A200000546F74616C207072696E74208B
:102A800074696D653A2000436F6D706C65746564A0
:102A90003A20005072696E7420436F756E743A204C
:102AA000004D61782054656D703A20323735004D05
:102AB000696E2054656D703A20350054303A2045D7
:102AC00050434F53203130304B005053553A20473C
:102AD000656E657269630050726F746F636F6C3AF4
:102AE00020312E3000426175643A20313135323068
:102AF000300052414D505320312E33000A4D656154
:102B0000737572656420706F696E74733A0A005A47
:102B1000206F66667365743A20004E756D20582CE0
:102B2000593A20332C330A00000000010000000154
:102B3000000080005555550000004000333333003D
:102B4000AAAA2A004992240000002000C7711C0094
:102B500099991900D1451700555515003BB113003F
:102B60002449120011111100000010000F0F0F0076
:102B7000E3380E0043790D00CCCC0C00C3300C00C0
:102B8000E8A20B0064210B00AAAA0A00703D0A000B
:102B90009DD80900427B090092240900DCD308007B
:102BA000888808001042080000000800F0C10700F3
:102BB0008787070075500700711C07003EEB060071
:102BC000A1BC06006990060066660600703E06001D
:102BD0006118060017F4050074D105005BB005000C
:102BE000B290050062720500555505007839050060
:102BF000B81E0500050505004EEC040087D404004E
:102C0000A1BD040090A7040049920400C17D040006
:102C1000EE690400C7560400444404005C3204001A
:102C20000821040041100400000004003FF00300EC
:102C3000F8E0030026D20300C3C30300CCB50300B1
:102C40003AA803000A9B0300388E0300C0810300EA
:102C50009F750300D0690300505E03001D530300FD
:102C600034480300913D0300333303001629030069
:102C7000381F030097150300300C03000303030003
:102C80000BFA020049F10200BAE802005CE002001F
:102C90002DD802002DD0020059C80200B0C0020099
:102CA00031B90200DAB10200AAAA0200A0A3020010
:102CB000BC9C0200FA9502005C8F0200DF880200D3
:102CC00082820200457C0200277602002770020003
:102CD000436A02007C640200D05E02003F59020099
:102CE000C85302006F70656E206661696C65642C64
:102CF0002046696C653A200043616E6E6F74206FE8
:102D000070656E2073756264697220006563686F18
:102D10003A00001C1F11111F0000000619180313B0
:102D20000C00040E1F041C000000000E1315110EF1
:102D300000001C10181705060500040A0A0A0A11EB
:102D4000110E0C12120C00000000001F1511151FAF
:102D5000000000002100240027002A002D00300080
:102D6000330001010000040107010A01FFFDFCFA24
:102D7000F8F6F4F2F0EEECEAE9E7E5E3E1E0DEDCB8
:102D8000DAD9D7D5D4D2D0CFCDCBCAC8C7C5C3C264
:102D9000C0BFBDBCBAB9B7B6B4B3B2B0AFADACAAE0
:102DA000A9A8A6A5A4A2A1A09E9D9C9A9998979532
:102DB000949392908F8E8D8B8A8988878684838264
:102DC00081807F7E7D7B7A79787776757473727176
:102DD000706F6E6D6C6B6A6968676665646362616B
:102DE000605F5E5D5C5B5A59585857565554535254
:102DF0005150504F4E4D4C4B4A4A49484746464524
:102E00004443424241403F3E3E3D3C3B3B3A3938E1
:102E10003837363535343332323130302F2E2E2D8F
:102E20002C2B2B2A29292827272625252423232232
:102E3000212120201F1E1E1D1C1C1B1B1A191918C6
:102E400018171616151514131312121111100F0F4F
:102E50000E0E0D0D0C0C0B0A0A09090808070706CF
:102E60000605050404030302020100000DF9ECF855
:102E700011241FBECFEFD1E2DEBFCDBF00E00CBFFB
:102E800013E0A0E0B2E0E2E1FDE002E00BBF02C02F
:102E900007900D92AE33B107D9F724E1AEE3B3E06A
:102EA00001C01D92A53FB207E1F717E1C7E3D7E1E3
:102EB00000E006C021970109802FFE010F94DB0579
:102EC000C633D10780E00807A9F70E94DCF30D9410
:102ED00078060C9400002F923F924F925F926F926F
:102EE0007F928F929F92AF92BF92CF92DF92EF929A
:102EF000FF920F931F93CF93DF93CDB7DEB7CB56DF
:102F0000D1090FB6F894DEBF0FBECDBF21E02093EC
:102F1000EB098091EE148D3411F40C940F2184355B
:102F200011F40C94992D873411F00C94E52D209018
:102F3000EC143090ED143BE12316310409F42FC654
:102F40009CF454E02516310444F462E02616310462
:102F5000DCF537FE32C00C940B2174E027163104E7
:102F600009F4DEC50C940B218AE22816310411F411
:102F70000C94002064F4ACE12A16310409F43FC635
:102F8000BDE12B16310409F43FC60C940B21EBE58F
:102F90002E16310411F40C948B20FCE52F1631040D
:102FA00011F40C948F202AE52216310411F00C94B0
:102FB0000B21109243030C94E72D80913302811171
:102FC0000C94EC2D0C94E72D80913302882311F49E
:102FD0000C94E72D0E94C17782E50E94C976882370
:102FE00009F44CC10E9492764B015C0120E030E074
:102FF000A9010E9468FE882309F470C1409162070C
:1030000050916307609164077091650748AF59AFAD
:103010006AAF7BAF60916607709167078091680720
:10302000909169076CAF7DAF8EAF9FAF8091050A1D
:103030009091060AA091070AB091080A2C968CAFCD
:103040009DAFAEAFBFAF2C972091090A30910A0A0D
:1030500040910B0A50910C0A28962CAF3DAF4EAF11
:103060005FAF28979C01AD0168AD79AD8AAD9BAD8E
:103070000E9468FE81110FC028962CAD3DAD4EAD6B
:103080005FAD28976CAD7DAD8EAD9FAD0E9468FEA3
:10309000882309F423C111E032E02316310409F03A
:1030A00010E020E030E0A901C501B4010E9468FEF3
:1030B000881F8827881F181759F040E050E060E803
:1030C0007FEB64964CAF5DAF6EAF7FAF64970AC085
:1030D00060E070E080E89FE364966CAF7DAF8EAFF8
:1030E0009FAF649728AD39AD4AAD5BAD2C966CAD02
:1030F0007DAD8EAD9FAD2C970F94C20260966CAFE4
:103100007DAF8EAF9FAF60972CAD3DAD4EAD5FAD47
:1031100028966CAD7DAD8EAD9FAD28970F94C20201
:103120006B017C0160962CAD3DAD4EAD5FAD6097FF
:10313000CA01B9010E94CDFE2B013C01A7019601F5
:10314000C701B6010E94CDFE9B01AC01C301B201D3
:103150000F94C3020F942E0524966CAF7DAF8EAFF3
:103160009FAF249720E030E040E05FE30E94CDFE77
:103170002B013C01A5019401C501B4010E94CDFEC3
:103180004B015C01A3019201C301B2010E94CDFE7B
:103190009B01AC01C501B4010F94C2020F942E052E
:1031A00064962CAD3DAD4EAD5FAD64970E94CDFEF3
:1031B0004B015C01C701B601905824962CAD3DAD82
:1031C0004EAD5FAD24970F949F03A50194010E941B
:1031D000CDFE6B017C012C962CAD3DAD4EAD5FADAF
:1031E0002C9768AD79AD8AAD9BAD0F94C30220E0FA
:1031F00030E040E05FE30E94CDFE9B01AC01C701DF
:10320000B6010F94C30228AD39AD4AAD5BAD0F9442
:10321000C2026B017C0128962CAD3DAD4EAD5FAD79
:1032200028976CAD7DAD8EAD9FAD0F94C30220E0AD
:1032300030E040E05FE30E94CDFE2B013C0124968C
:103240002CAD3DAD4EAD5FAD249760966CAD7DADC0
:103250008EAD9FAD60970F949F03A50194010E94CE
:10326000CDFE9B01AC01C301B2010F94C3022CAD92
:103270003DAD4EAD5FAD0F94C20214C089E40E9413
:10328000C976882329F00E9492766B017C0103C0E5
:10329000C12CD12C76018AE40E94C976882309F1D9
:1032A0000E9492762C966CAF7DAF8EAF9FAF2C971D
:1032B00020E030E0A901C701B6010E9468FE81113B
:1032C0001FC020E030E0A9012C966CAD7DAD8EAD25
:1032D0009FAD2C970E9468FE811112C0E5EFF2E1CC
:1032E0000BC420E030E0A901C701B6010E9468FECE
:1032F0008823A1F32C961CAE1DAE1EAE1FAE2C97DC
:10330000D701C601B05888AF99AFAAAFBBAF2C9612
:103310002CAD3DAD4EAD5FAD2C9750582CAF3DAFB1
:103320004EAF5FAF9C01AD01BC01CD010E94CDFE4F
:103330004B015C012CAD3DAD4EAD5FADCA01B90195
:103340000E94CDFE9B01AC01C501B4010F94C302E4
:103350000F942E05A0966CAF7DAF8EAF9FAFA09758
:10336000409162075091630760916407709165070F
:1033700028964CAF5DAF6EAF7FAF2897A70196013F
:1033800028966CAD7DAD8EAD9FAD28970F94C3028E
:1033900064966CAF7DAF8EAF9FAF64976091660708
:1033A00070916707809168079091690760966CAF8C
:1033B0007DAF8EAF9FAF60972C962CAD3DAD4EADDF
:1033C0005FAD2C970F94C302A4966CAF7DAF8EAF08
:1033D0009FAFA4978091050A9091060AA091070AD1
:1033E000B091080A68968CAF9DAFAEAFBFAF68973B
:1033F00064962CAD3DAD4EAD5FAD6497BC01CD0183
:103400000F94C2026B017C012091090A30910A0AD3
:1034100040910B0A50910C0A6C962CAF3DAF4EAF09
:103420005FAF6C97A4962CAD3DAD4EAD5FADA4974C
:103430006C966CAD7DAD8EAD9FAD6C970F94C20256
:103440004B015C0140916A0750916B0760916C07DA
:1034500070916D07A8964CAF5DAF6EAF7FAFA89728
:103460009A01AB0160910D0A70910E0A80910F0ACA
:103470009091100A0F94C20224966CAF7DAF8EAF6C
:103480009FAF2497A701960168AD79AD8AAD9BAD3A
:103490000E94CDFE2B013C01A50194016CAD7DADD8
:1034A0008EAD9FAD0E94CDFE9B01AC01C301B20168
:1034B0000F94C3022B013C01A501940168AD79ADC5
:1034C0008AAD9BAD0E94CDFE4B015C01A701960128
:1034D0006CAD7DAD8EAD9FAD0E94CDFE9B01AC016C
:1034E000C501B4010F94C202A30192010F943603E7
:1034F0006B017C0120E030E0A9010E9468FE87FF9B
:103500000AC02BED3FE049EC50E4C701B6010F942F
:10351000C3026B017C0152E02516310451F42BEDFE
:103520003FE049EC50E4C701B6010F94C2026B01C1
:103530007C0120E030E0A901C701B6010E9468FECD
:10354000811128C068962CAD3DAD4EAD5FAD68973A
:1035500028966CAD7DAD8EAD9FAD28970E9468FE1C
:10356000811118C06C962CAD3DAD4EAD5FAD6C9722
:1035700060966CAD7DAD8EAD9FAD60970E9468FE8C
:10358000811108C00BEDC02E0FE0D02E09ECE02E0B
:1035900000E4F02EA7019601A0966CAD7DAD8EAD36
:1035A0009FADA0970E94CDFE4B015C0120E030E072
:1035B000A90124966CAD7DAD8EAD9FAD24970E9480
:1035C00068FE8823E9F0A5019401C501B4010E94B9
:1035D000CDFE4B015C0124962CAD3DAD4EAD5FADF3
:1035E0002497CA01B9010E94CDFE9B01AC01C5011F
:1035F000B4010F94C3020F942E054B015C010DC062
:1036000020E030E0A901C501B4010F94E90487FF6F
:1036100004C0B7FAB094B7F8B0942FE632E143E8AB
:103620005AE3C501B4010E9468FE87FF02C00C94F2
:10363000E72DC501B4010F9438040F940C042E96A5
:103640007FAF6EAF2E97672B31F461E070E02E965E
:103650007FAF6EAF2E9740906E0750906F076090CF
:103660007007709071072E96AEADBFAD2E97BD015D
:1036700080E090E00E946CFE4B015C019B01AC017C
:10368000C701B6010F949F0328966CAF7DAF8EAF34
:103690009FAF2897A501940124966CAD7DAD8EADAA
:1036A0009FAD24970F949F03A0966CAF7DAF8EAF14
:1036B0009FAFA097A30192016091110A7091120A25
:1036C0008091130A9091140A0F94C202A5019401EB
:1036D0000F949F03AC966CAF7DAF8EAF9FAFAC974E
:1036E00028962CAD3DAD4EAD5FAD2897CA01B9010E
:1036F0000E94CDFE20E030E040E05FE30E94CDFE7E
:103700009B01AC0160E070E080E89FE30F94C2028F
:1037100068966CAF7DAF8EAF9FAF6897A8962CADC3
:103720003DAD4EAD5FADA89729873A874B875C8743
:103730004D865E866F86788A6091190270911A02B2
:10374000072E000C880B990B0E946EFE20914402FC
:103750003091450240914602509147020E94CDFEB1
:103760002AE037ED43E25CE30E94CDFE6CAB7DAB1B
:103770008EAB9FAB0E94F0E69B01AC0128533F4FFC
:103780004F4F5F4F6C962CAF3DAF4EAF5FAF6C9716
:1037900048AC59AC6AAC7BAC22242394312C39E17F
:1037A00021963FAF21972E964EAD5FAD2E974215D5
:1037B000530509F44EC10E94D1B70E94F0E6DC0126
:1037C000CB016C962CAD3DAD4EAD5FAD6C97821BC1
:1037D000930BA40BB50BB7FD11C00E94F0E69B0143
:1037E000AC0128533F4F4F4F5F4F6C962CAF3DAF0E
:1037F0004EAF5FAF6C9780E00E94F7C321963FAD5C
:103800002197315021963FAF2197332309F445C0CA
:103810002CAD3DAD4EAD5FAD68966CAD7DAD8EAD62
:103820009FAD68970E94CDFE6B017C019201A301C0
:1038300028966CAD7DAD8EAD9FAD28970E94CDFED4
:10384000A70196010F94C3027B018C019201A30191
:1038500068966CAD7DAD8EAD9FAD68970E94CDFE34
:103860004B015C012CAD3DAD4EAD5FAD28966CAD0E
:103870007DAD8EAD9FAD28970E94CDFE9B01AC0122
:10388000C501B4010F94C2022B013C01C701D8014C
:103890008CAF9DAFAEAFBFAF55C0B10180E090E03F
:1038A0000E946CFE28962CAD3DAD4EAD5FAD2897C5
:1038B0000E94CDFE4B015C010F949C036B017C01C7
:1038C000C501B4010F9424054B015C01A7019601C9
:1038D00068AD79AD8AAD9BAD0E94CDFE2B013C0158
:1038E0002C962CAD3DAD4EAD5FAD2C97C501B4010E
:1038F0000E94CDFEA30192010F94C3022B013C0153
:10390000A501940168AD79AD8AAD9BAD0E94CDFE55
:103910004B015C012C962CAD3DAD4EAD5FAD2C97AF
:10392000C701B6010E94CDFE9B01AC01C501B401E7
:103930000F94C2026CAF7DAF8EAF9FAF49E121966D
:103940004FAF21979201A30164966CAD7DAD8EAD12
:103950009FAD64970F94C30269837A838B839C83A2
:103960002CAD3DAD4EAD5FADA4966CAD7DAD8EADD5
:103970009FADA4970F94C3026D837E838F83988736
:10398000A0962CAD3DAD4EAD5FADA09769857A8513
:103990008B859C850F94C30269877A878B879C8768
:1039A000AC962CAD3DAD4EAD5FADAC976D857E85D3
:1039B0008F8598890F94C3026D877E878F87988B38
:1039C00080914302882321F0CE0101960E94ACDA57
:1039D000E090DA031CA61DA61EA61FA689819A8167
:1039E000AB81BC8188A399A3AAA3BBA38D819E812F
:1039F000AF81B8858CA39DA3AEA3BFA389859A850B
:103A0000AB85BC8588A799A7AAA7BBA7AE01485DCF
:103A10005F4FBE016C5D7F4FCE0180960E94DCD768
:103A2000BE01645D7F4F6B018E010C5C1F4F9E01D8
:103A3000235F3F4FAE01485D5F4F68507109CE0173
:103A400080960E947656882321F07FEF271A370A46
:103A5000AACEE090DA0318AA19AA1AAA1BAA809182
:103A6000050A9091060AA091070AB091080A88A356
:103A700099A3AAA3BBA38091090A90910A0AA091D5
:103A80000B0AB0910C0A8CA39DA3AEA3BFA3809197
:103A90000D0A90910E0AA0910F0AB091100A88A702
:103AA00099A7AAA7BBA7AE01485D5F4FBE016C5D99
:103AB0007F4FCE0180960E94DCD7CE01C0966C016C
:103AC0008E010C5C1F4F21E13AE0AE01485D5F4F73
:103AD000BE016C5D7F4F40970E94765680E1E5E025
:103AE000FAE0A2E6B7E001900D928A95E1F70C9416
:103AF000E72D0E94CDD8F80184918F010F5F1F4FF1
:103B00008111F7CFEDEEF1E084918F010F5F1F4F30
:103B1000882311F40C94E72D0E94CDD8F801F4CF3E
:103B200080E50E94C976882329F00E9452766B01B5
:103B30007C0103C0C12CD12C760183E50E94C9769B
:103B4000882361F00E94927620E030E04AE754E456
:103B50000E94CDFE0F940C046B017C010E94B7669D
:103B600080910404811105C060E083E092E00E942E
:103B7000EB8C0E94F0E6C60ED71EE81EF91E0E94CE
:103B8000F0E6DC01CB018C199D09AE09BF09B7FD38
:103B900002C00C94E72D80E00E94F7C3F0CF0E9492
:103BA000686C81110C94E72D80E090E0A0E2B1E414
:103BB00089839A83AB83BC8380E090E0A8ECB2E475
:103BC0008D839E83AF83B88780E090E0A0EAB1E464
:103BD00089879A87AB87BC8780E50E94C97688234E
:103BE00019F00E94627601C060E068A3BE016F5FB9
:103BF0007F4FCE0180960E9416D80C94E72D80E06E
:103C00000E94D6760C94E72D83E50E94C97688231E
:103C100021F10E947276182F863070F0EEEBF2E000
:103C200084918F010F5F1F4F882311F40C94E72DAF
:103C30000E94CDD8F801F4CF833009F44DC130F49F
:103C4000813091F1823009F43FC008C0843009F41A
:103C5000A5C1853009F4B2C101C010E00E94706FA7
:103C6000811103C0EEE9F2E013C08091BF098823FF
:103C700019F06FE073E002C063E173E086E992E05F
:103C80000E94F0E08AE00E94CDD80E94CAD99CC16F
:103C900084917F019FEFE91AF90A882309F494C1FE
:103CA0000E94CDD8F701F4CF0E94BDD81092010236
:103CB000109200028BE892E09093490480934804AC
:103CC0000E943A720C94E72D8091000290910102BB
:103CD00097FF0EC0E2E6F2E084918F010F5F1F4F65
:103CE000882311F40C94E72D0E94CDD8F801F4CF6D
:103CF0000097A1F4809143028093440319821A82B1
:103D00001B821C8218A219A21AA21BA2BE016F5FFD
:103D10007F4FCE0180960E94C8712AC0815063E017
:103D20000F948B0580FF02C0191B912F292F990F2B
:103D3000330BF901EE0FFF1FE20FF31FE80FF11D28
:103D400087FDFA95EE0FFF1FEE0FFF1FEE51F54FA7
:103D500080916A0790916B07A0916C07B0916D07F5
:103D600080839183A283B383809144038093430231
:103D70008091000290910102893091050CF067C09A
:103D8000109243029C012F5F3F4F3093010220931A
:103D9000000263E00F948B0580FF03C022E0291B23
:103DA000922F40916A0750916B0760916C07709158
:103DB0006D0748A359A36AA37BA319821A821B82A9
:103DC0001C82A4E08A0290011124F901E85AF44F00
:103DD0004F012081318142815381F4E09F02C00173
:103DE0001124BC016C59744F5B01DB016D917D9115
:103DF0008D919C91FE0131966F01E12CF12C00EA2E
:103E000010E40E94D97019821A821B821C82B601AA
:103E1000CE0180960E94C871F50180819181A281B6
:103E2000B3818093620790936307A0936407B09374
:103E30006507F40180819181A281B3818093660737
:103E400090936707A0936807B0936907BFC080E0AD
:103E500090E0A0EAB0E480936A0790936B07A09388
:103E60006C07B0936D070E9482700E94B7668FEF57
:103E70009FEF9093010280930002EEE4F2E08491C0
:103E80008F010F5F1F4F882321F00E94CDD8F801CA
:103E9000F6CF83E992E09A83898304E610E019A3C0
:103EA00008A3BE016F5F7F4FCE0180960E94496BD1
:103EB0008AEB92E09A83898319A308A3BE016F5FFE
:103EC0007F4FCE0180960E94496B81E00E94D6769A
:103ED00081E00E949D6F7AC088E50E94C9768823A0
:103EE000A1F00E9462761FEF160F1330A8F0E7E3EF
:103EF000F2E084918F010F5F1F4F882311F40C941F
:103F0000E72D0E94CDD8F801F4CF88E50E94CDD8E6
:103F10000E94DCF80C94E72D89E50E94C97688237D
:103F2000A1F00E9462760FEF060F0330A8F0E0E2E6
:103F3000F2E084918F010F5F1F4F882311F40C94DE
:103F4000E72D0E94CDD8F801F4CF89E50E94CDD8A5
:103F50000E94DCF80C94E72D8AE50E94C97688233C
:103F6000B1F00E949276212F30E0F901EE0FFF1F91
:103F7000E20FF31FE00FF11DEE0FFF1FEE0FFF1F0B
:103F8000EE51F54F608371838283938335C08AE558
:103F90000E94CDD80E94DCF80C94E72D8AE50E949F
:103FA000C9768823A1F30E9492766093DE0A70930B
:103FB000DF0A8093E00A9093E10A1EC080E00E942D
:103FC0009D6F0E94BDD818C01230B1F460910002FC
:103FD000709101026930710514F069E070E081E1CF
:103FE00092E00E94D8E069E070E08CE092E00E94EC
:103FF000D8E08AE00E94CDD80E9462A70C94E72DF9
:1040000080913302882311F40C94E72D89E40E94F7
:10401000C976E82E882321F00E946276062F01C01F
:1040200000E08AE40E94C976F82E882321F00E94DD
:104030006276162F01C010E0EE2011F0033020F45C
:10404000FF2081F0133070F0E5EDF2E084918F01F4
:104050000F5F1F4F882311F40C94E72D0E94CDD8D9
:10406000F801F4CF0E943B9BEE2091F024E0020285
:10407000F0011124EC59F44F80819181A281B38128
:104080008093050A9093060AA093070AB093080A42
:10409000FF2091F034E01302F0011124E85AF44FAC
:1040A00080819181A281B3818093090A90930A0A49
:1040B000A0930B0AB0930C0A80E50E94C97688236E
:1040C00019F00E94837603C080E50E94169A86E468
:1040D0000E94C9768823D9F00E9492766B017C01F8
:1040E00020E030E0A9010F94E904181684F420E0E0
:1040F00030E040E752E4C701B6010F949F0360939C
:1041000044027093450280934602909347020E94B6
:104110007AC70C94E72D209343030C94E72D41E5D7
:10412000242E42E0342E59EFE52E59E0F52E42E6DA
:1041300057E059AF48AF60ECC62E69E0D62E00E0DC
:1041400010E0D1018D911D010E94C976882309F4E8
:104150004BC00E9492762B013C01133049F0F601CE
:1041600020813181428153810F94C2022B013C0195
:10417000A8ADB9AD2D913D914D915C91C301B201B6
:104180000F94C2024B015C012DEB37E346E855EB7F
:104190000F94E90487FD0AC02DEB37E346E855E3A9
:1041A000C501B4010E9468FE1816F4F4133051F4EE
:1041B00040926E0750926F0760927007709271077D
:1041C00001E012C0A5019401F70160817181828133
:1041D00093810F94C302D7016D937D938D939C932C
:1041E0001397812F0E94E6711F5FB4E0EB0EF11C64
:1041F000E8ADF9AD3496F9AFE8AFF4E0CF0ED11CDD
:10420000143009F09ECF002309F4F6CE8EE697E035
:104210000E94096CF1CE0E94BA6D0C94E72D80913A
:10422000EC149091ED148337910509F4C4C10CF09E
:10423000C7C08B34910509F483C40CF06BC088317E
:10424000910509F48CC2CCF58231910509F49EC523
:10425000DCF497FF02C00C94962D823091050CF48B
:10426000ADC1419711F00C94962D60E087E093E08A
:104270000E94EB8C5F988A988091080181708093EE
:10428000060112980C94E72D8531910509F44CC272
:104290003CF4449711F00C94962DEFE1F3E006C244
:1042A0008631910509F444C2479711F00C94962D7C
:1042B000E091EA14F091EB1445C28D31910511F4AF
:1042C0000C94E72DC4F48A31910509F457C20CF41B
:1042D0004FC28B31910509F45FC24C9711F00C94D9
:1042E000962D40E060E08091EA149091EB140E94DA
:1042F00023680C94E72D8F31910509F4C3C30CF4A6
:10430000E3C28032910509F471C38A9709F4E4C3CA
:104310000C94962D8C35910509F480C524F58135D2
:10432000910509F41CC57CF48D34910509F410C481
:104330000CF40AC48E34910511F00C94962D0E9451
:104340001CAA0C94E72D8335910509F41BC50CF4C8
:1043500016C58435910509F419C58535910509F40B
:1043600044C50C94962D8E36910509F420C4C4F4EE
:104370008936910509F4B4C434F48836910509F4FA
:10438000EBC30C94962D8C36910509F475C48D36CB
:10439000910511F00C94962D0E942CA80C94E72DF9
:1043A0008037910509F46BC40CF413C4813791056F
:1043B00009F46CC48237910509F4B8C50C94962DA4
:1043C0008D3231E0930711F40C945A2B0CF074C029
:1043D000893C910509F454C75CF58837910509F4C7
:1043E0009BC664F48637910509F447C60CF091C664
:1043F0008537910509F432C60C94962D81399105C3
:1044000009F48FC65CF48937910511F00C94962D50
:1044100010925407109253070C94E72D8B39910595
:1044200009F478C4883C910509F4DAC60C94962DF9
:10443000833D910511F40C94892A2CF58C3C91054F
:1044400009F456C764F48B3C910511F00C94962D39
:10445000E1E5EE2EE2E0FE2E08ED16E03AC78D3CD7
:10446000910509F4BAC78E3C910511F00C94962D74
:1044700061E5C62E62E0D62E76E5E72E77E0F72ED0
:1044800010E00C94742A8D3D910511F40C94992A36
:104490003CF48C3D910511F40C948C2A0C94962DCF
:1044A000823E910511F40C94072B8C32914011F44B
:1044B0000C94312B0C94962D853F61E0960711F4F6
:1044C0000C946A2CDCF58A39A1E09A0709F4DBC365
:1044D000BCF48F32E1E09E0711F40C944E2C14F4DE
:1044E0000C94FA2B833621E0920709F460C08039DE
:1044F000914011F00C94962D0E94B7660C94E72D14
:10450000853A41E0940711F40C94672C4CF4843AFA
:10451000914011F00C94962D0E94D8970C94E72DA1
:104520008C3A71E0970709F4F1C7843F914011F08C
:104530000C94962D0E94C93A0C94E72D8B35B2E06D
:104540009B0711F40C94A02CC4F4873FF1E09F0763
:1045500011F40C94702C14F40C946D2C883F31E001
:10456000930711F40C947C2C8835924011F00C9434
:10457000962D0E9488910C94E72D8B3853E0950777
:1045800011F40C94E72D3CF48438934011F40C940E
:10459000292D0C94962D803AA3E09A0709F465C260
:1045A000873E934011F40C94812D0C94962DE5EFE9
:1045B000F2E10C94542CE7EBF4E0F5C4A090EA147B
:1045C000B090EB1480E50E94C976882359F00E94D0
:1045D00052766B017C0111E0672B682B692B31F45B
:1045E00010E004C010E0C12CD12C760183E50E94BC
:1045F000C976882311F40C94F12D0E94927620E064
:1046000030E04AE754E40E94CDFE0F940C046B01A5
:104610007C0111110BC0672B682B692B39F4A11495
:10462000B10421F0F5018081811102C010E001C0C8
:1046300011E00E94B766112329F061E0C5010E94D4
:10464000278D05C060E084EF92E00E94EB8C83E050
:104650008093EB0981E080932307C114D104E10426
:10466000F104B1F00E94F0E6C60ED71EE81EF91E56
:104670000E94F0E6DC01CB018C199D09AE09BF094F
:10468000B7FF0EC08091230781110C94F62D08C04E
:1046900080912307882321F080E00E94F7C3F8CFA0
:1046A0000E94F549109223070C94E72D84918F0105
:1046B0000F5F1F4F882321F00E94CDD8F801F6CF5D
:1046C0001092340E87EE9BE00E9492458BE1E7EE5C
:1046D000FBE0DE01159601900D928A95E1F780913D
:1046E000E50B9091E60B9C838B838BEF92E09A8392
:1046F000898340E050E0BE016F5F7F4F80E090E033
:104700000E94D4DCCE0101960E949D45E0E1F3E0D9
:1047100084918F010F5F1F4F882311F40C94E72DB4
:104720000E94CDD8F801F4CF0E94076A0C94E72DBF
:104730001092900B1092910B0C94E72D803209F49B
:104740001082319680818111F9CF40E061E0809143
:10475000EA149091EB140E9423680C94E72D809149
:10476000910B81112093900B0E9492540C94E72D91
:104770001092900B0E94C6BA0C94E72D8091910B79
:10478000882311F40C94E72D83E50E94C9768111EA
:104790000C94FB2D0C94E72D83E40E94169A882339
:1047A00009F450C0EDE5F3E084918F010F5F1F4FD6
:1047B000882321F00E94CDD8F801F6CF8091820D98
:1047C000811103C0E0E3F3E012C0BE016F5F7F4FD1
:1047D0008FE79DE00E940D4F8E010F5F1F4FD801A4
:1047E0008D918D01882349F10E94CDD8F8CF849115
:1047F0008F010F5F1F4F882301F10E94CDD8F80170
:10480000F6CF3FE9C32E33E0D32EE12CF12C20E08C
:104810008091DE0390E00E2C02C0959587950A9456
:10482000E2F780FD06C23FEFE31AF30A42E0C40E4E
:10483000D11C55E0E516F10459F78AE00E94CDD865
:104840000C94E72D8091910B882339F08091900B87
:10485000882319F0EAE3F3E003C0ECE4F3E028C0B6
:1048600084918F010F5F1F4F882321F00E94CDD8C4
:10487000F801F6CF6091300E7091310E8091320EBA
:104880009091330E4AE00E94D4D88FE20E94CDD896
:1048900060912C0E70912D0E80912E0E90912F0E06
:1048A0004AE00E94D4D88AE00E94CDD80C94E72D2B
:1048B00084918F010F5F1F4F882311F40C94E72D13
:1048C0000E94CDD8F801F4CF8091910B882311F488
:1048D0000C94E72D8FE79DE00E9462E38FE79DE057
:1048E0000E94E84E10928F0B10928E0B8091910BCC
:1048F000882311F40C94E72D0091EA141091EB1425
:104900000E94C7DCB801CE0180960E94D1DE8C01E6
:10491000892B11F40C94E72D68A179A1611571051B
:1049200011F06C5F7F4F19821C8222E0A801CE013A
:1049300001960E948955811102C0F12C14C0CE014C
:1049400001960E9438DC8823C1F361E0CE01019614
:104950000E94F14E009789F325EEFC0120831C8212
:104960000E940BE1F82ECE0101960E949745F110AE
:1049700003C0EAE7F3E022C0ECE6F3E084917F01B4
:104980002FEFE21AF20A882321F00E94CDD8F70116
:10499000F5CFD8018D918D01882319F00E94CDD8D3
:1049A000F8CF8AE00E94CDD81092300E1092310ECE
:1049B0001092320E1092330E0C94E72D84917F01E9
:1049C000BFEFEB1AFB0A882321F00E94CDD8F70134
:1049D000F5CFF80181918F01882319F00E94CDD87D
:1049E000F8CF8EE20E94CDD80C94E72D8091900BE9
:1049F00081110E94B7668091910B882311F40C9469
:104A0000E72D80E50E94C976882319F00E948376FD
:104A100003C080E50E94169A182F482F61E080910C
:104A2000EA149091EB140E94236883E50E94C976F2
:104A3000882381F00E946276AB01BC014093300E66
:104A40005093310E6093320E7093330E8FE79DE0DA
:104A50000E94FE4D8091910B882319F081E0809394
:104A6000900B11110C94E72D7FCE8091EA14909158
:104A7000EB1421E020938F0B40E060E00E9423685C
:104A80000C94E72D0E9477BA68A379A38AA39BA30D
:104A9000BE016F5F7F4FCE0180960E945F9A60E0FB
:104AA000CE0101960E94278DECE0FDE284918F01FA
:104AB0000F5F1F4F882321F00E94CDD8F801F6CF59
:104AC000BE016F5F7F4F82E993E00E94F0E08AE0D1
:104AD0000E94CDD80C94E72D83E50E94C9768823E7
:104AE00011F40C94E72D0E947276082F80E50E9445
:104AF000C976882339F00E947276182F87FF03C089
:104B00000C94E72D1DE089E40E94C976882341F0CA
:104B10000E94837681110C94682EEEEEF5E00BC0B6
:104B200089E40E94169AF6CF319626E0EB31F2071F
:104B300011F40C94682E84911813F6CF0C943C2E2B
:104B40000E9492540C94E72D0E94C6BA0C94E72D53
:104B50000E94D9540C94E72D88E690E00E946D786D
:104B600081110C94E72D8091DE0383FF02C00C9429
:104B7000E72D83E50E94C9768823A9F00E949276EA
:104B80000F940704CB010E94908C0E94927620E043
:104B900030E04AEA52E40E9468FE181624F00E94AF
:104BA000D9540E94F5490E94FDEC0C94E72D8EE447
:104BB0000E94C976882311F40C94E72D0E94627636
:104BC00060935706709358068093590690935A063F
:104BD000FEC783E50E94169A882359F083E50E9458
:104BE000C976882319F00E94727601C080E0809314
:104BF000DE03ECE0FDE284918F010F5F1F4F811116
:104C000003C0EDEAF3E004C00E94CDD8F801F3CF71
:104C100084918F010F5F1F4F882321F00E94CDD810
:104C2000F801F6CF8091DE038111EBCDE9EAF3E0E4
:104C300018C0BB24B394B20E222319F08CE20E9458
:104C4000CDD8F60185919491FC0184918F010F5F7D
:104C50001F4F882321F00E94CDD8F801F6CF2B2DCD
:104C6000E2CD84918F010F5F1F4F882309F4E5CDBA
:104C70000E94CDD8F801F5CF10921D02A8C784EB91
:104C800093E00E94A5C30E94A299A1C783E50E9458
:104C9000C976811103C0ECE0FDE20BC00E94727680
:104CA0008D3318F48093480292C78CE380934802B6
:104CB0008EC784918F010F5F1F4F882321F00E94C0
:104CC000CDD8F801F6CF4091480250E060E070E0A6
:104CD0008DEB93E00E94A2E08AE00E94CDD877C7D6
:104CE00089E690E00E946D78811111C0E4ECF3E058
:104CF00084918F010F5F1F4F882321F00E94CDD830
:104D0000F801F6CF0E941CB58AE00E94CDD810921F
:104D1000EB09ECC783E50E94C976882309F457C7DD
:104D20000E947276182F8D3308F01CE31093F80957
:104D30000E94F0E66B017C01212F30E0A8EEB3E089
:104D40000F94B302C60ED71EE81EF91EC092F409D6
:104D5000D092F509E092F609F092F70938C70E945F
:104D6000ABB50E9403D368EE73E080E090E00E9450
:104D7000D9EB60E087EC93E00E94EB8C28C710929F
:104D8000420325C781E08093420321C783E50E9447
:104D9000C976882399F00E94927620E030E04AE7B5
:104DA00054E40E94CDFE0F940C046093490270936A
:104DB0004A0280934B0290934C0209C788E50E94F7
:104DC000169A811129C789E50E94169A811124C774
:104DD0008AE50E94169A81111FC785E40E94169ADF
:104DE00081111AC70E9403D3F2C683E50E94169A66
:104DF000882309F4ECC60E94927620E030E04AE76E
:104E000054E40E94CDFE0F940C046093F00970935B
:104E1000F1098093F2099093F309D9C691E5C92E5F
:104E200092E0D92E23EFE22E23E0F22E10E0D601FD
:104E30008D916D010E94169A882309F46DC013307C
:104E400009F063C00E9492764B015C0120E030E0E3
:104E500040EA51E40E9468FE87FF4EC0A50194011C
:104E60006091FF037091000480910104909102040D
:104E70000F949F032B013C019B01AC016091100733
:104E80007091110780911207909113070E94CDFE37
:104E90006093100770931107809312079093130784
:104EA000A30192016091E4067091E5068091E60607
:104EB0009091E7060E94CDFE6093E4067093E506AC
:104EC0008093E6069093E7066091B8147091B91448
:104ED0008091BA149091BB140E946CFEA3019201C0
:104EE0000E94CDFE0F940C046093B8147093B91413
:104EF0008093BA149093BB148092FF0390920004A5
:104F0000A0920104B092020407C00E949276F701B9
:104F100060837183828393831F5FF4E0EF0EF11C43
:104F2000143009F084CF0E949EEE51C60E94B766ED
:104F300083E50E94C976882309F45EC80E946276E0
:104F40006230710509F058C80E9453CB8BE50E946E
:104F5000CDD86091DF097091E0098091E1099091CD
:104F6000E20942E00E9459D94091E3095091E409D5
:104F70006091E5097091E60985ED93E00E94BDE03E
:104F80004091E7095091E8096091E9097091EA09B7
:104F900082ED93E00E94BDE08DE50E94CDD88AE0CD
:104FA0000E94CDD814C684918F010F5F1F4F8823B4
:104FB00021F00E94CDD8F801F6CF60E087EA94E0B6
:104FC0000E942BA761E080EA94E00E942BA761E099
:104FD00085E994E00E942BA761E085E894E00E94B7
:104FE0002BA760E08CE794E00E942BA761E082E7AA
:104FF00094E00E942BA760E088E694E00E942BA733
:1050000060E080E694E00E942BA761E082E594E0F6
:105010000E942BA760E084E494E00E942BA760E04C
:1050200085E394E00E942BA760E087E294E00E9471
:105030002BA760E081E194E00E942BA760E080E074
:1050400094E00E942BA760E08BEE93E00E942BA7D8
:1050500061E088ED93E00E942BA7B9C58091EA1426
:105060009091EB14DC012C91222321F060E00E944E
:10507000278DADC50E94F549AAC50091EA1410918B
:10508000EB1483E0D12C40E08150E1F0F8019081F5
:10509000292F2B7F2134C1F721812133A9F79134A6
:1050A00021F0953421F441E002C0DD24D39498012D
:1050B0002E5F3F4F89012F5F3F4FD8019C91903267
:1050C000C9F3E2CF442369F0ECE0FDE284917F0173
:1050D000BFEFEB1AFB0A882321F00E94CDD8F7011D
:1050E000F5CFDD2069F0E8E7F5E084917F012FEF4F
:1050F000E21AF20A882321F00E94CDD8F701F5CFF9
:10510000D8018D918D01882309F497CB0E94CDD8C9
:10511000F7CF0E94A99B5BC52093540720935307A8
:1051200056C583E50E94C976882319F00E946276ED
:1051300002C060E070E08B01112702301105D4F04D
:10514000E5EFF2E184918F010F5F1F4F811103C0E2
:10515000ECE7F5E004C00E94CDD8F801F3CF8491CC
:105160008F010F5F1F4F882309F431C50E94CDD8EE
:10517000F801F5CF88E40E94C9768823A9F00E943F
:1051800062766A3A71053CF06530B1E07B072CF03D
:1051900064E071E002C06AEA70E0F801EE0FFF1F00
:1051A000E65DF64F7183608386E40E94C9768823AA
:1051B00009F40DC50E946276000F111FF801E25D2F
:1051C000F64F718360836F3F710519F014F06FEF34
:1051D00070E077FF02C060E070E071836083F7C425
:1051E00088EC90E00E946D788111F1C484E40E9403
:1051F000169A882309F441C00E9492766B017C01C3
:1052000011E020E030E0A9010E9468FE811101C098
:1052100010E010934F0A20E030E0A901C701B60169
:105220000E9468FE882349F10E949276E09161090C
:1052300024E0E29FF0011124E55BF54F6083718368
:105240008283938320E030E0A90160914B0A709142
:105250004C0A80914D0A90914E0A0E9468FE81117D
:105260000CC080E090E0A0EEBFE380934B0A9093E7
:105270004C0AA0934D0AB0934E0A0E9471D2A7C463
:10528000F1E5EF2EF2E0FF2E08EE16E0A8EFCA2EB1
:10529000A6E0DA2ED7018D917D010E94169A88230F
:1052A00049F00E9492760F940C04F8016083718398
:1052B000828393830C5F1F4FC016D10659F70E945B
:1052C0002DED85C40C5F1F4FF6E0083E1F0709F463
:1052D0007EC4D7018D917D010E94169A882391F397
:1052E0000E949276F8016083718382839383EACF70
:1052F00083E50E94C9768823A1F00E94927660938C
:10530000000770930107809302079093030760934F
:10531000F8067093F9068093FA069093FB0610E066
:1053200001C011E080E50E94C976882359F00E94EF
:105330009276609300077093010780930207909321
:10534000030710E082E50E94C976882359F00E9485
:1053500092766093FC067093FD068093FE06909310
:10536000FF0610E084E50E94C976882359F00E9468
:1053700092766093F8067093F9068093FA069093FC
:10538000FB0625C4112309F422C440910007509163
:105390000107609102077091030784EA95E00E947B
:1053A000BDE04091FC065091FD066091FE067091B3
:1053B000FF0681EA95E00E94BDE04091F806509119
:1053C000F9066091FA067091FB068EE995E00E945D
:1053D000BDE08AE00E94CDD8FAC381E50E94169A0A
:1053E000882351F00E9452766093AF037093B0030C
:1053F0008093B1039093B20383E50E94169A8823A9
:1054000051F00E9492766093D4067093D5068093F3
:10541000D6069093D70684E50E94169A882351F009
:105420000E9492766093D0067093D1068093D20644
:105430009093D30688E50E94169A882351F00E9423
:105440009276609304077093050780930607909304
:10545000070789E50E94169A882351F00E949276E8
:10546000609308077093090780930A0790930B07CE
:105470008AE50E94169A8823F1F00E949276609342
:105480000C0770930D0780930E0790930F072DEC78
:105490003CEC4CEC5DE30E9468FE181664F0E4EB13
:1054A000F5E084918F010F5F1F4F882321F00E9448
:1054B000CDD8F801F6CF85E40E94169A882309F426
:1054C00086C30E94927660931007709311078093B1
:1054D0001207909313077BC31F5FF4E0EF0EF11CDC
:1054E000133011F40C94FC1FD6018D916D010E94B4
:1054F000169A882389F30E949276F701608371835C
:1055000082839383812F0E94E671E6CF0E94EF95FC
:105510005EC30E944DA65BC383E50E94C9768823C3
:1055200009F455C30E94627670931A0260931902BF
:105530004EC38DED90E00E946D78811148C383E5E4
:105540000E94C976811103C0ECE0FDE23AC00091EF
:10555000610910E00E946276000F111FF801E95EF8
:10556000FD4F718360838091610990E07C01EE0CB6
:10557000FF1CEE0CFF1C87010D5E1D4F880F991F4D
:10558000FC01E95EFD4F60817181072E000C880BE4
:10559000990B0E946EFE2AE037ED43E25CE30E9425
:1055A000CDFEF701EA55FC4F2081318142815381C4
:1055B0000E94CDFED8016D937D938D939C9313979C
:1055C00006C384918F010F5F1F4F882321F00E9433
:1055D000CDD8F801F6CF85E40E94CDD8809161093D
:1055E000805D0E94CDD8E0916109F0E0EE0FFF1FD1
:1055F000E95EFD4F6081718186EE95E00E94D8E002
:1056000085E20E94CDD88AE00E94CDD8E0C280E534
:105610000E94169A882309F4DAC20E9462766B010E
:105620007C0183E50E94C976882321F00E9462767E
:105630008B0102C00FEF1FEFC8010196039708F01E
:10564000C6C2D7FCC4C22C2DEEEEF5E08BE196E08D
:105650003491231709F410C331968E179F07C1F7B1
:105660000EC383E50E94C976882319F00E946276F2
:1056700002C064E071E079A368A380E50E94C97666
:10568000882339F00E9462766938B3E17B0730F4F1
:1056900002C068EE73E07A83698304C088E893E10E
:1056A0009A838983BE01605E7F4FCE0101960E947E
:1056B000496B8DC285E40E94C976811110C080E5D6
:1056C0000E94169A882391F00E94927660931D0999
:1056D00070931E0980931F099093200907C00E94B0
:1056E0007276882361F3E5EFF2E171C089E40E94EC
:1056F000169A882381F00E9492762CEA35EC47E2D4
:105700005EE30E94CDFE6093250970932609809385
:1057100027099093280984E40E94169A882381F02F
:105720000E9492762CEA35EC47E25EE30F949F03E9
:10573000609321097093220980932309909324098F
:10574000ECE0FDE284918F010F5F1F4F882321F071
:105750000E94CDD8F801F6CF40911D0950911E0945
:1057600060911F097091200983E296E00E94BDE0DC
:105770002CEA35EC47E25EE3609125097091260939
:1057800080912709909128090F949F03AB01BC01D8
:105790008FE196E00E94BDE02CEA35EC47E25EE343
:1057A0006091210970912209809123099091240927
:1057B0000E94CDFEAB01BC018BE196E00E94BDE0F2
:1057C0008AE00E94CDD803C20E94CDD8F80184910E
:1057D0008F010F5F1F4F8111F7CFE7E2F6E0849151
:1057E0008F010F5F1F4F882309F4F1C10E94CDD8AC
:1057F000F801F5CF83E50E94169A182F882371F0DF
:105800000E9492760F94070470931F0260931E0209
:1058100021E0672B09F020E02093DB0380E50E9464
:10582000169A882359F020911E0230911F02232BD3
:1058300011F00E9483768093DB03C9C11111C7C1A7
:10584000ECE0FDE284918F010F5F1F4F882321F070
:105850000E94CDD8F801F6CF8091DB03882319F0A0
:1058600067E173E002C06AE173E08EE496E00E94B3
:10587000F0E060911E0270911F028DE396E00E949D
:10588000D8E0E9E3F6E084918F010F5F1F4F882392
:1058900009F49DC10E94CDD8F801F5CF0E94EFA177
:1058A00096C10E94CDD8F80184918F010F5F1F4FE0
:1058B0008111F7CFE1E6F6E084918F010F5F1F4F72
:1058C000882309F484C10E94CDD8F801F5CF0E9445
:1058D000F5967DC10E94E2A17AC10E94A0A077C185
:1058E00083E50E94169A882321F00E94837691E036
:1058F00089270E94CF9B6BC181E080933E030E9469
:105900008F3F10923E03882309F461C1ECE0FDE271
:1059100084918F010F5F1F4F811103C0E0E7F6E014
:1059200004C00E94CDD8F801F3CF84918F010F5F9E
:105930001F4F882309F44BC10E94CDD8F801F5CF41
:105940008BE592E00E946D78811141C185E50E944E
:10595000169A8823D9F10091610910E00E9492768D
:105960006B017C0120E030E0A9010F94E90487FF7E
:1059700004C0F7FAF094F7F8F094000F111F000F2D
:10598000111FF801E95BF54FC082D182E282F382F8
:1059900000916109E4E00E9F80011124095B154F1D
:1059A00020E030E048E453E4D8016D917D918D9181
:1059B0009C910F94E90418164CF480E090E0A8E460
:1059C000B3E4F80180839183A283B3838CE40E94C3
:1059D000169A882309F4FBC00091610910E00E9427
:1059E00092766B017C0120E030E0A9010F94E9047C
:1059F00087FF04C0F7FAF094F7F8F094000F111F36
:105A0000000F111FF801ED5BF54FC082D182E282D9
:105A1000F38200916109F4E00F9F800111240D5B76
:105A2000154F20E030E048E453E4D8016D917D91BA
:105A30008D919C910F94E90418160CF0C8C080E079
:105A400090E0A8E4B3E4F80180839183A283B38358
:105A5000BEC08BE40E94C976811103C0ECE0FDE278
:105A600036C08BE40E94C9768823C1F00E949276EA
:105A70006B017C0120E030E0A9010F94E90487FD6F
:105A80000AC020E030E040E251E4C701B6010E94C4
:105A900068FE181634F4EBE7F6E00EC0C12CD12CEA
:105AA00076010E94B766C092500AD092510AE092E5
:105AB000520AF092530A8BC084918F010F5F1F4FDF
:105AC000882309F484C00E94CDD8F801F5CF8491D1
:105AD0008F010F5F1F4F882321F00E94CDD8F8015E
