:100000000C94FA130C942B140C942B140C942B14A6
:100010000C942B140C942B140C942B140C942B1464
:100020000C942B140C942B140C942B140C942B1454
:100030000C942B140C942B140C942B140C942B1444
:100040000C942B140C94943A0C942B140C942B14A5
:100050000C942B140C942B140C94F5CE0C94918EC0
:100060000C942B140C94304F0C942B140C942B14D4
:100070000C942B140C942B140C942B140C942B1404
:100080000C942B140C942B140C942B140C942B14F4
:100090000C942B140C942B140C942B140C942B14E4
:1000A0000C942B140C942B140C942B140C942B14D4
:1000B0000C942B140C942B140C942B140C942B14C4
:1000C0000C942B140C942B140C942B140C942B14B4
:1000D0000C942B140C942B140C942B140C942B14A4
:1000E0000C942B14AD8DB28DB78DC18DCB8D448EFC
:1000F000D58DDD8DE58DEF8DF98D038E128E1C8EE5
:10010000448E268E308E3A8E839786977597799790
:100110007F97BD978A978E97949798979C97A29769
:10012000A697AA97BD97B097B497B897084AD73BB8
:100130003BCE016E84BCBFFDC12F3D6C74319ABDB6
:1001400056833DDA3D00C77F11BED9E4BB4C3E91DA
:100150006BAAAABE000000803F05A84CCDB2D44EC9
:10016000B93836A9020C50B9918688083CA6AAAACB
:100170002ABE000000803F004E414E494E4954596E
:10018000494E46CDCCCC3D0AD7233C17B7D1387762
:10019000CC2B329595E6241FB14F0A000020410078
:1001A00000C84200401C4620BCBE4CCA1B0E5AAEC2
:1001B000C59D74434F4D4D554E49434154494F4E93
:1001C0000044525952554E004552524F5253004925
:1001D0004E464F004543484F0047322F4733206279
:1001E000616420706172616D65746572730A005399
:1001F0006C6565702E2E2E0059206F7574206F6609
:100200002072616E67652028312D33292E0A00582F
:10021000206F7574206F662072616E6765202831CB
:100220002D33292E0A004D6573682070726F626944
:100230006E6720646F6E652E0A00537461727420BD
:100240006D6573682070726F62696E67207769747C
:100250006820224732392053312220666972737434
:100260002E0A004732380A4732392053320053747D
:100270006174653A20004D65736820626564206C86
:100280006576656C696E6720686173206E6F2064A7
:100290006174612E0A0053206F7574206F6620729E
:1002A000616E67652028302D35292E0A004D657353
:1002B0006820706F696E742063616E6E6F74206267
:1002C00065207265736F6C7665640A005246313042
:1002D000302072656164792E00526573756D696EA8
:1002E00067207072696E7400436C69636B20746F71
:1002F00020726573756D652E2E2E004E6F206D6F0A
:1003000076652E00456E642066696C65206C6973A5
:10031000740A00426567696E2066696C65206C69C5
:1003200073740A005344207072696E74696E67209A
:100330006279746520004E6F742053442070726996
:100340006E74696E670A005072696E742074696D0C
:10035000653A200050726F7465637465642050695B
:100360006E0A004525692025730052463130302041
:1003700072656164792E00D401CF01C801C101B357
:10038000016F66660044454255473A004B494C4C64
:1003900045442E20004D3131332053006F6B005205
:1003A00046313030204F66662E004649524D574147
:1003B00052455F4E414D453A4D61726C696E203138
:1003C0002E312E3620284769746875622920534FD4
:1003D000555243455F434F44455F55524C3A68740C
:1003E0007470733A2F2F6769746875622E636F6D2E
:1003F0002F4D61726C696E4669726D776172652FFF
:100400004D61726C696E2050524F544F434F4C5F98
:1004100056455253494F4E3A312E30204D414348B4
:10042000494E455F545950453A5246313030204587
:10043000585452554445525F434F554E543A31201B
:10044000555549443A63656465326132662D3431ED
:1004500061322D343734382D396231322D633535E0
:100460006336326633363766660A002F2F20004D1A
:1004700031343520533C696E6465783E206F757465
:10048000206F662072616E67652028302D31290A41
:100490000053657474696E672054726176656C20D0
:1004A000416363656C65726174696F6E3A200053D5
:1004B000657474696E67205265747261637420415B
:1004C0006363656C65726174696F6E3A2000536591
:1004D0007474696E67205072696E7420416363653D
:1004E0006C65726174696F6E3A200053657474694B
:1004F0006E67205072696E7420616E642054726160
:1005000076656C20416363656C65726174696F6EBA
:100510003A2000205A00205900580020204D6178D0
:100520003A2000205A00205900580020204D696EC2
:100530003A20004F6E20004F666600536F667420AD
:10054000656E6473746F70733A200000013637264D
:1005500003FF3C3D38FF0F2E303E12FFFF0C08FF1B
:10056000FFFFFF1A1C18FFFF08440A0943FFFFFFA3
:10057000FFFFFF20643A0020693A0020703A0043F0
:10058000290A0061626C656420286D696E207465BB
:100590006D702000436F6C642065787472756465BB
:1005A000732061726520004F666673657473206105
:1005B00070706C696564004572723A20546F6F20E8
:1005C0006661722100546F6F206661722066726FDF
:1005D0006D207265666572656E636520706F696E09
:1005E000740A004175746F0020452F443D0041643A
:1005F00076616E6365204B3D004E6F2063617365CD
:10060000206C696768740A004163746976652045E7
:10061000787472756465723A2000556E6B6E6F77F0
:100620006E20636F6D6D616E643A202200457272B8
:100630006F722077726974696E6720746F20454508
:1006400050524F4D210A00290A00206279746573C7
:100650003B20637263200053657474696E67732076
:1006600053746F726564202800202863616C637581
:100670006C6174656429210A0020213D20004545F4
:1006800050524F4D20435243206D69736D61746326
:1006900068202D202873746F726564292000290A50
:1006A000002062797465733B2063726320002073BD
:1006B000746F7265642073657474696E67732072F9
:1006C0006574726965766564202800204D61726CDE
:1006D000696E3D563431290A0028454550524F4D28
:1006E0003D00454550524F4D2076657273696F6EDF
:1006F000206D69736D617463682000486172646382
:100700006F6465642044656661756C74205365741C
:1007100074696E6773204C6F616465640A00F4014C
:100720000000F40100006400000010270000000039
:100730009643000096430000A0400000C841AAA2D2
:100740009D42AAA29D42000048430000D4424D367B
:10075000303020486F74656E6420746F6F20636F53
:100760006C6420746F206368616E67652066696CD5
:10077000616D656E740A0024F4D43050C38E20C2BB
:10078000A24017828B7011127A910D816CD90AA840
:1007900061E108C7586607615143061E4B5D05C1FC
:1007A00045A7041A411104093D98037139310340EA
:1007B00036DB0265339102D4305402802E1D026371
:1007C0002CEE01752AC501B028A001102781018FE8
:1007D0002564012B244B01E0223401AC211F018D43
:1007E000200D01801FFC00841EED00971DDF00B866
:1007F0001CD200E61BC600201BBC00641AB200B26B
:1008000019A8000A19A0006A189900D11791004090
:10081000178B00B516840031167E00B31579003AA7
:10082000157300C7146F0058146A00EE1366008831
:1008300013630025135E00C7125B006C125700158E
:10084000125400C111510070114F0021114B00D6FC
:100850001049008D1047004610440002104200C0AD
:100860000F4000800F3E00420F3C00060F3B00CBC4
:100870000E3800930E37005C0E3500270E3400F35F
:100880000D3200C10D3100900D3000600D2E003290
:100890000D2D00050D2C00D90C2B00AE0C29008568
:1008A0000C29005C0C2700350C27000E0C2600E8F4
:1008B0000B2400C40B2400A00B23007D0B23005A43
:1008C0000B2100390B2100180B2000F80A1F00D95A
:1008D0000A1E00BB0A1E009D0A1D00800A1D00633F
:1008E0000A1C00470A1B002C0A1B00110A1A00F7F9
:1008F000091A00DD091900C4091900AB0919009291
:100900000917007B091800630917004C0916003607
:10091000091600200916000A091500F5081500E05F
:10092000081400CC081400B8081400A4081400909F
:100930000813007D0812006B0813005808120046C7
:1009400008120034081100230811001208110001D8
:10095000081100F0071000E0071000D0071000C0D9
:10096000071000B0070F00A107100091070E0083C9
:10097000070F0074070F0065070E0057070E0049A8
:10098000070E003B070D002E070E0020070D001379
:10099000070D0006070D00F9060C00ED060D00E03E
:1009A000060C00D4060C00C8060C00BC060C00B0F7
:1009B000060C00A4060B0099060C008D060B0082A5
:1009C000060B0077060B006C060B0061060A005749
:1009D000060B004C060A0042060A0038060A002EE2
:1009E000060A0024060A001A060A00100609000773
:1009F000060A00FD050900F4050900EB050900E2FF
:100A0000050900D9050900D0050900C7050900BE80
:100A1000050900B5050800AD050800A50509009CFD
:100A2000050800940508008C050800840508007C72
:100A3000050800740508006C050700650508005DE1
:100A4000050700560508004E05070047050700404A
:100A500005080038050700310507002A05070023AF
:100A60000507001C050600160507000F050700080E
:100A700005060002050700FB040600F5040700EE6A
:100A8000040600E8040600E2040700DB040600D5C3
:100A9000040600CF040600C9040600C3040600BD16
:100AA000040600B7040600B1040500AC040600A665
:100AB000040600A00405009B0406009504050090B0
:100AC0000406008A04050085040500800406007AF7
:100AD00004050075040500700405006B040500663C
:100AE000040500610405005C04050057040500527C
:100AF0000405004D04050048040500430405003EBC
:100B00000404003A04050035040500300404002CF8
:100B100004050027040400230405001E0404001A31
:100B200004040016040500110404000D0404000967
:100B30000405000404040000040400FC030400F89D
:100B4000030400F4030400F0030400EC030400E8D1
:100B5000030400E4030400E0030400DC030400D801
:100B6000030400D4030400D0030400CC030400C831
:100B7000030300C503030024F404D9201BC40C5C48
:100B80000E9804C4095F0265077101F405F900FBC2
:100B900004B30048048700C10369005803550003EB
:100BA000034500BE023A008402310053022A0029A4
:100BB00002250004022000E4011C00C8011900AF56
:100BC00001170098011400840113007101100061E5
:100BD00001100051010E0043010D0036010B002BE6
:100BE000010B0020010B00150109000C0109000395
:100BF000010800FB000800F3000800EB000700E418
:100C0000000600DE000600D8000600D2000600CC78
:100C1000000500C7000500C2000500BD000400B9C2
:100C2000000400B5000400B1000400AD000400A9F8
:100C3000000400A5000300A20003009F0004009B25
:100C40000003009800030095000200930003009049
:100C50000003008D0002008B000300880002008664
:100C600000020084000300810002007F0002007D7A
:100C70000002007B0002007900020077000100768C
:100C80000002007400020072000100710002006F97
:100C90000002006D0001006C0002006A00010069A2
:100CA00000020067000100660001006500010064A9
:100CB0000002006200010061000100600001005FAD
:100CC0000002005D0001005C0001005B0001005AB1
:100CD00000010059000100580001005700010056B2
:100CE00000010055000100540001005300000053B2
:100CF0000001005200010051000100500001004FAE
:100D00000001004E0000004E0001004D0001004CAB
:100D10000001004B0000004B0001004A00010049A7
:100D200000010048000000480001004700010046A3
:100D3000000000460001004500000045000100449D
:100D40000001004300000043000100420000004297
:100D50000001004100000041000100400001003F8F
:100D60000000003F0001003E0000003E0001003D89
:100D70000000003D0001003C0000003C0000003C81
:100D80000001003B0000003B0001003A0000003A77
:100D9000000100390000003900010038000000386F
:100DA0000000003800010037000000370001003665
:100DB000000000360000003600010035000000355C
:100DC0000000003500010034000000340000003451
:100DD0000001003300000033000000330001003246
:100DE000000000320000003200010031000000313C
:100DF0000000003100010030000000300000003031
:100E00000001002F0000002F0000002F0000002F25
:100E10000001002E0000002E0000002E0001002D19
:100E20000000002D0000002D0000002D0001002C0E
:100E30000000002C0000002C0000002C0001002B02
:100E40000000002B0000002B0000002B0001002AF6
:100E50000000002A0000002A0000002A00010029EA
:100E600000000029000000290000002900000029DE
:100E700000010028000000280000002800000028D1
:100E800000000028000100270000002700000027C4
:100E900000000027000000270001002600000026B7
:100EA00000000026000000260000002600010025AA
:100EB000000000250000002500000025000000259E
:100EC0000000002500010024000000240000002490
:100ED0000000002400000024000100230000002383
:100EE0000000002300000023000000230000002376
:100EF0000000002300010022000000220000002268
:100F00000000002200000022000000220001002159
:100F1000000000210000002100000021000000214D
:100F2000000000210000002100010020000000203E
:100F30000000002000000020000000200000002031
:100F400000000020000000200001001F0000001F22
:100F50000000001F0000001F0000001F0000001F15
:100F60000000001F0001001E0000001E0000001E07
:100F70000000001E0000004D383420582059205A2F
:100F800020450020520020204D393030204B004CAD
:100F9000696E65617220416476616E63653A0A002C
:100FA00020440020490020204D3330312050005093
:100FB00049442073657474696E67733A0A00204669
:100FC0000020420020480020204D313435205300BD
:100FD0004D6174657269616C20686561747570201B
:100FE000706172616D65746572733A0A00205A000F
:100FF0002059002020473239205333205800205AEE
:101000000020204D3432302053004D65736820425B
:101010006564204C6576656C696E673A0A00205AF3
:101020000020590020204D323036205800486F6D86
:1010300065206F66667365743A0A00204500205A81
:101040000020590020580020420020540020204D4C
:10105000323035205300416476616E6365643A2016
:10106000533C6D696E5F66656564726174653E20B0
:10107000543C6D696E5F74726176656C5F66656520
:1010800064726174653E20423C6D696E5F73656792
:101090006D656E745F74696D655F6D733E20583C5D
:1010A0006D61785F78795F6A65726B3E205A3C6D3E
:1010B00061785F7A5F6A65726B3E20453C6D61784E
:1010C0005F655F6A65726B3E0A0020540020520023
:1010D00020204D323034205000416363656C6572CE
:1010E0006174696F6E2028756E6974732F7332296D
:1010F0003A20503C7072696E745F616363656C3E48
:1011000020523C726574726163745F616363656CE5
:101110003E20543C74726176656C5F616363656CFC
:101120003E0A00204500205A0020590020204D3260
:1011300030312058004D6178696D756D20416363D1
:10114000656C65726174696F6E2028756E69747361
:101150002F7332293A0A00204500205A00205900F6
:1011600020204D3230332058004D6178696D756D07
:10117000206665656472617465732028756E697494
:10118000732F73293A0A00204500205A0020590085
:1011900020204D39322058005374657073207065DB
:1011A0007220756E69743A0A0020204D323030206A
:1011B00044300A0020204D32303020440020446961
:1011C0007361626C65640A0046696C616D656E747A
:1011D0002073657474696E67733A0020204D313452
:1011E000392043203B20556E69747320696E20437B
:1011F000656C736975730A00202047323120202006
:10120000203B20556E69747320696E206D6D0A0055
:101210007A5F6D696E3A2000795F6D61783A2000DF
:10122000785F6D696E3A20005265706F7274696EF6
:101230006720656E6473746F702073746174757366
:101240000A002569730025696D20256973002569E9
:10125000682025696D20256973002569642025694A
:10126000682025696D202569730025697920256925
:1012700064202569682025696D20256973006275E1
:1012800073793A2070617573656420666F722069A6
:101290006E7075740A00627573793A2070617573A7
:1012A000656420666F7220757365720A00627573DB
:1012B000793A2070726F63657373696E670A004BC9
:1012C000494C4C45442E20004B494C4C20636175E1
:1012D000736564206279204B494C4C2062757474AC
:1012E0006F6E2F70696E0A004B494C4C45442E209E
:1012F000004B494C4C206361757365642062792012
:10130000746F6F206D75636820696E6163746976B0
:10131000652074696D65202D2063757272656E7429
:1013200020636F6D6D616E643A2000506C6561736F
:1013300065207265736574005052494E54455220C1
:1013400048414C544544005072696E74657220687F
:10135000616C7465642E206B696C6C282920636154
:101360006C6C6564210A00656E7175657565696EE2
:1013700067202200000000000000DC4200000000A6
:101380000000484200004842000080400000000089
:101390005761726E696E673A20486F6D696E67209B
:1013A00042756D702044697669736F72203C2031FC
:1013B0000A000202040000A0400000A0400000005B
:1013C000400000DC420000DC420000DC42FF01FF84
:1013D0004B494C4C45442E200053544F50504544EB
:1013E0002E20005072696E7465722073746F707075
:1013F00065642064756520746F206572726F727306
:101400002E2046697820746865206572726F72209C
:10141000616E6420757365204D39393920746F20F1
:10142000726573746172742E202854656D706572D4
:1014300061747572652069732072657365742E20FE
:1014400053657420697420616674657220726573D7
:1014500074617274696E67290A004E6F204C696E60
:1014600065204E756D6265722077697468206368C7
:1014700065636B73756D2C204C617374204C696EC1
:10148000653A20004E6F20436865636B73756D206D
:1014900077697468206C696E65206E756D6265721F
:1014A0002C204C617374204C696E653A200063688F
:1014B00065636B73756D206D69736D617463682C02
:1014C000204C617374204C696E653A20004C696E43
:1014D00065204E756D626572206973206E6F742091
:1014E0004C617374204C696E65204E756D62657237
:1014F0002B312C204C617374204C696E653A2000AE
:101500004D313130004D3331004D383420582059A1
:10151000205A204500534420726561642065727230
:101520006F720A00446F6E65207072696E74696E26
:10153000672066696C650A0020496E76616C696493
:1015400020657874727564657220000000000000E8
:10155000000000000000000000DC420000DC42004F
:1015600000DC4257726974696E6720746F20666987
:101570006C653A20006F70656E206661696C656409
:101580002C2046696C653A20006F70656E2066619C
:10159000696C65642C2046696C653A200046696C6C
:1015A000652073656C65637465640A002053697A0D
:1015B000653A200046696C65206F70656E65643A17
:1015C00020006F70656E206661696C65642C204632
:1015D000696C653A20002066696C653A20004E6FA0
:1015E0007720002220706F73002220706172656E78
:1015F000743A2200535542524F5554494E452043A8
:10160000414C4C207461726765743A22004B494C1E
:101610004C45442E2000747279696E6720746F20E7
:1016200063616C6C207375622D67636F64652066FF
:10163000696C6573207769746820746F6F206D61C1
:101640006E79206C6576656C732E204D4158206C48
:101650006576656C2069733A006175746F25692E33
:1016600067004D3234004D3233202573005344203F
:1016700063617264206F6B0A006F70656E526F6FEA
:1016800074206661696C65640A00766F6C756D65BF
:101690002E696E6974206661696C65640A00457222
:1016A000726F723A00534420696E697420666169F2
:1016B0006C0A00001C1F11111F00000006191803FE
:1016C000130C00040E1F041C000000000E13151163
:1016D0000E00001C10181705060500040A0A0A0A65
:1016E00011110E0C12120C00000000001F15111534
:1016F0001F000025753A2530327500253032753AC5
:1017000025303275002D2D2D005344005A0059000C
:1017100058005072696E74207061757365640000C2
:101720005072696E742061626F72746564005072E9
:10173000696E742066726F6D2053440053746F702D
:10174000207072696E7400526573756D65207072D9
:10175000696E74004E6F20534420636172640050C0
:1017600061757365207072696E7400436F6E747278
:101770006F6C00507265706172650054756E650023
:10178000496E666F2073637265656E004D3630304A
:10179000204230007C3C3E5E2B3D3F2F5B5D3B2C6E
:1017A0002A225C0048656174696E6720646F6E650B
:1017B0002E0020573A0045256920257300524631F6
:1017C00030302072656164792E00205A3A00205929
:1017D0003A0020436F756E7420583A0020453A0055
:1017E000205A3A0020593A00583A00236465666945
:1017F0006E65202044454641554C545F4B642000A3
:1018000023646566696E65202044454641554C5405
:101810005F4B69200023646566696E65202044453E
:101820004641554C545F4B7020005049442041754F
:10183000746F74756E652066696E6973686564217E
:101840002050757420746865206C617374204B702F
:101850002C204B6920616E64204B6420636F6E7393
:1018600074616E74732066726F6D2062656C6F7741
:1018700020696E746F20436F6E666967757261745C
:10188000696F6E2E680A00504944204175746F7468
:10189000756E65206661696C6564212074696D658B
:1018A0006F75740A00504944204175746F74756EE9
:1018B00065206661696C6564212054656D70657290
:1018C000617475726520746F6F20686967680A00BB
:1018D000204B643A2000204B693A2000204B703A9C
:1018E00020000A20436C61737369632050494420CF
:1018F0000A002054753A2000204B753A2000206DD4
:1019000061783A2000206D696E3A200020643A2008
:101910000020626961733A20004F66660A004661E2
:101920006465204865696768742000426564204CDE
:101930006576656C696E6720004661696C65642038
:10194000746F20656E61626C6520426564204C6531
:1019500076656C696E670A004D6573682042656440
:10196000204C6576656C20646174613A0A004D65AF
:10197000736820706F696E742063616E6E6F74207F
:101980006265207265736F6C7665640A004D34324F
:101990003120696E636F7272656374207061726169
:1019A0006D657465722075736167650A00436861CF
:1019B0006E67652066696C616D656E7400466C6F5C
:1019C0007700466C6F77004E6F7A7A6C65004E6FC9
:1019D0007A7A6C6500426564205A00426564205A38
:1019E000005370656564005370656564004D6169FE
:1019F0006E004261636B004E65787420636F726E97
:101A00006572004C6576656C696E6720446F6E6523
:101A100021004D6F7665205A004E65787420506F16
:101A2000696E74002569202F202575004D6F766939
:101A30006E672E2E2E00436C69636B20746F2042FC
:101A40006567696E00486F6D696E672058595A0066
:101A5000473238004C6F61642073657474696E6737
:101A6000730053746F72652073657474696E677365
:101A7000004C6576656C20636F726E657273004C06
:101A80006576656C2062656400426564205A004298
:101A90006564205A0046616465204865696768741A
:101AA000004661646520486569676874004F666632
:101AB000004F6E2000426564204C6576656C696E4F
:101AC00067004175746F20686F6D6500473238009C
:101AD000507265706172650020204E6F7A7A6C6575
:101AE0003A200066696C616D656E7420756E6C6F6E
:101AF0006164005761697420666F72005052494EEC
:101B000054205041555345440020204E6F7A7A6C42
:101B1000653A2000506C6561736520776169742EA9
:101B20002E2E0048656174696E67206E6F7A7A6C3C
:101B300065005052494E54205041555345440020B1
:101B4000204E6F7A7A6C653A200068656174206E69
:101B50006F7A7A6C652E00507265737320627574AB
:101B6000746F6E20746F005052494E54205041558E
:101B70005345440020204E6F7A7A6C653A200074F9
:101B80006F20636F6E74696E75652E2E2E00616E08
:101B90006420707265737320627574746F6E00498F
:101BA0006E736572742066696C616D656E74005049
:101BB00052494E54205041555345440020204E6F09
:101BC0007A7A6C653A200066696C616D656E742086
:101BD0006C6F6164005761697420666F72005052C7
:101BE000494E54205041555345440020204E6F7AB1
:101BF0007A6C653A200066696C616D656E7420656B
:101C0000787472756465005761697420666F72003C
:101C10005052494E542050415553454400746F2052
:101C2000726573756D65005761697420666F722007
:101C30007072696E74005052494E54205041555391
:101C4000454400436172642072656D6F766564007F
:101C50004361726420696E7365727465640000008C
:101C60002100240027002A002D003000330001014C
:101C70000000040107010A010000220025002800DD
:101C80002B002E0031003400020100000501080184
:101C90000B01000020002300260029002C002F004B
:101CA00032000001000003010601090105050505D8
:101CB000070508080808020202020A0A08080404C4
:101CC00004040101010101010101030303030303F2
:101CD0000303040707070C0C0C0C0C0C0C0C020281
:101CE000020206060606060606060B0B0B0B0B0B7E
:101CF0000B0B01021020200808102040102040800B
:101D000002010201080402010102040810204080BF
:101D1000804020100804020180040201804020104D
:101D20000804020108040201010204081020408096
:101D3000010204081020408000000A0B02090C0D6B
:101D40000E0807030401000000000000000000006E
:101D50000000000000000000000000000000000083
:101D60000000000012111000000000000000000040
:101D700000000000000000000000000000002D2D09
:101D80002D2D2D2D007C4D61726C696E7C002D2DEA
:101D90002D2D2D2D00687474703A2F2F6D61726C8B
:101DA000696E66772E6F726700687474703A2F2FB1
:101DB0006D61726C696E66772E6F72670020312ECE
:101DC000312E360000000000010204040000001C57
:101DD0001C0C0404040201000000000004081000B0
:101DE000000000002020506C616E6E6572427566C6
:101DF00066657242797465733A20002046726565A3
:101E0000204D656D6F72793A2000436F6D70696C7B
:101E100065643A2041756720313420323031390A07
:101E200000207C20417574686F723A20286E6F6EB6
:101E3000652C2064656661756C7420636F6E6669DD
:101E400067290A00323031372D31302D31302031C1
:101E5000323A303000204C617374205570646174E4
:101E600065643A2000312E312E360A004D61726CC5
:101E7000696E0020536F66747761726520526573D6
:101E800065740A00205761746368646F6720526547
:101E90007365740A002042726F776E206F7574202C
:101EA00052657365740A002045787465726E616CC2
:101EB0002052657365740A00506F77657255700A19
:101EC0000073746172740A006572726F72207772A7
:101ED0006974696E6720746F2066696C650A0045D5
:101EE0006E6473746F7073202563202563202563EF
:101EF00020256300205A3A0020593A0020583A0021
:101F0000656E6473746F7073206869743A2000445E
:101F10006F6E6520736176696E672066696C652EE9
:101F20000A004D3239004578747275646572004D4F
:101F30006F7665205A004D6F76652059004D6F769B
:101F4000652058005072657061726500496E697451
:101F500069616C697A6520454550524F4D00436F69
:101F60006E74726F6C00526573746F726520666177
:101F7000696C73616665004C6F616420736574748D
:101F8000696E677300496E697469616C697A65206E
:101F9000454550524F4D0053746F72652073657400
:101FA00074696E67730046696C616D656E74004D8F
:101FB0006F74696F6E0054656D70657261747572CF
:101FC00065004D61696E00507265686561742041FD
:101FD000425320636F6E66005072656865617420BD
:101FE000504C4120636F6E66005049442D440050B0
:101FF00049442D44005049442D49005049442D493D
:10200000005049442D50005049442D5000200220DA
:102010004661637400200220466163740020022040
:102020004D6178002002204D6178002002204D6132
:1020300078002002204D696E002002204D696E005C
:102040002002204D696E004F6666004F6E200041F1
:1020500075746F74656D70004E6F7A7A6C65004EA2
:102060006F7A7A6C6500436F6E74726F6C00537494
:102070006F72652073657474696E6773004E6F7A52
:102080007A6C65004E6F7A7A6C650046616E2073DB
:10209000706565640046616E207370656564005408
:1020A000656D706572617475726500206E6F742065
:1020B000656E74657265642E0A000A4D65617375FC
:1020C00072656420706F696E74733A0A005A206FEB
:1020D00066667365743A20004E756D20582C593A27
:1020E00020332C330A0046696C652064656C657486
:1020F00065643A0044656C6574696F6E2066616959
:102100006C65642C2046696C653A20006F70656EC2
:10211000206661696C65642C2046696C653A200014
:102120006D0046696C616D656E7420757365643A07
:10213000200053746174733A20002C204C6F6E673A
:10214000657374206A6F623A2000546F74616C206A
:1021500074696D653A200053746174733A20002CE1
:10216000204661696C65643A20002C2046696E69DE
:10217000736865643A20005072696E74733A200087
:1021800053746174733A2000202F0020403A0020DD
:10219000746F6F206C6F6E672065787472757369E9
:1021A0006F6E2070726576656E7465640A002063D8
:1021B0006F6C6420657874727573696F6E207072CD
:1021C0006576656E7465640A005654726176206D9A
:1021D000696E005654726176206D696E00565472B5
:1021E0006176206D696E00566D696E00566D696E80
:1021F00000566D696E00566D6178204500566D6120
:1022000078204500566D6178204500566D61782034
:102210005A00566D6178205A00566D6178205A0038
:10222000566D6178205900566D6178205900566DC1
:102230006178205900566D6178205800566D61789C
:10224000205800566D61782058004D6F74696F6E8C
:1022500000416D6178204500416D61782045004165
:102260006D6178205A00416D6178205A00416D619E
:1022700078205900416D6178205900416D617820C6
:102280005800416D6178205800412D747261766567
:102290006C00412D74726176656C00412D7265741D
:1022A0007261637400412D726574726163740041E0
:1022B0006363656C00416363656C004D6F74696FA7
:1022C0006E0056652D6A65726B0056652D6A6572E3
:1022D0006B0056652D6A65726B00567A2D6A6572C1
:1022E0006B00567A2D6A65726B0056792D6A65729D
:1022F0006B0056792D6A65726B0056792D6A65728E
:102300006B0056782D6A65726B0056782D6A65727F
:102310006B0056782D6A65726B004D6F74696F6E35
:10232000004573746570732F6D6D0045737465702F
:10233000732F6D6D005A73746570732F6D6D005A35
:1023400073746570732F6D6D005973746570732F9E
:102350006D6D005973746570732F6D6D00587374D3
:102360006570732F6D6D005873746570732F6D6D8C
:10237000004D6F74696F6E0053746570732F6D6DCF
:10238000004A65726B00416363656C6572617469D4
:102390006F6E0056656C6F6369747900436F6E747D
:1023A000726F6C0046696C2E204469612E0046698C
:1023B0006C2E204469612E004F6666004F6E20002F
:1023C0004520696E206D6D3300416476616E6365F2
:1023D000204B00416476616E6365204B004164765A
:1023E000616E6365204B00436F6E74726F6C0043C7
:1023F000616E6E6F7420656E7465722073756264B1
:1024000069723A2000052E2E004D61696E00202071
:102410004E6F7A7A6C653A20004261636B004D69B9
:102420006E696D756D2054656D702069732031374C
:10243000302E0048656174696E67206661696C655D
:10244000640045787472756465206D6F7265005222
:102450006573756D65207072696E740052455355D1
:102460004D45204F5054494F4E533A0020204E6F57
:102470007A7A6C653A20006368616E6765006F6602
:10248000207468652066696C616D656E74005761C3
:10249000697420666F7220737461727400505249BF
:1024A0004E54205041555345440043616E6E6F7445
:1024B000206F70656E2073756264697220006563B9
:1024C000686F3A004D343238005072656865617447
:1024D00020504C4100436F6F6C646F776E0043680F
:1024E000616E67652066696C616D656E740050721F
:1024F0006568656174204142530044697361626C90
:1025000065207374657070657273004D38340053C4
:10251000657420686F6D65206F66667365747300FF
:10252000426564204C6576656C696E6700556E6C1B
:102530006F61642046696C616D656E74004720466A
:1025400033303020452D3130303000466565642011
:102550003230636D00472046333030204531303013
:1025600030004C6F61642046696C616D656E74006B
:10257000473231204720463230302045313000414B
:1025800075746F20686F6D6500473238004D6F7647
:10259000652061786973004D61696E004D6F7665E5
:1025A0002058004D6F76652059004D6F7665205A92
:1025B000004578747275646572004D6F76652030E1
:1025C0002E316D6D004D6F766520316D6D004D6F54
:1025D00076652031306D6D004D6F766520617869CC
:1025E00073004578747275646572004D6F7665206E
:1025F0005A004D6F76652059004D6F766520580062
:1026000070012C0190012701B0012201C0011D01C0
:10261000F00118011002130130020E0160020901DD
:1026200090020401C002FF000003FA004003F5001D
:102630008003F000D003EB002004E6007004E1000A
:10264000E004DC004005D700C005D2004006CD0004
:10265000D006C8008007C3003008BE00F008B900EB
:10266000C009B400B00AAF00B00BAA00D00CA5009E
:10267000000EA000500F9B00C01096005012910059
:1026800000148C00C0158700B0178200B0197D00BF
:10269000D01B7800001E730040206E00902269005D
:1026A000F024640040275F0090295A00E02B550079
:1026B000102E500020304B0010324600E033410015
:1026C00090353C001037370070383200A0392D00AB
:1026D000B03A2800A03B2300603C1E00103D1900CA
:1026E000903D1400103E0F00703E0A00C03E0500F1
:1026F000003F0000403FFBFF803FF6FFC03FF1FF7F
:1027000009FFFFFFFF00010101016265640A002C5F
:102710002073797374656D2073746F7070656421B4
:10272000204865617465725F49443A200054484509
:10273000524D414C2052554E415741590054686505
:10274000726D616C2052756E6177617900486561C8
:1027500074696E67206661696C65640048656174C0
:10276000696E67206661696C6564004572723A2023
:102770004D494E54454D50004D494E54454D502005
:10278000747269676765726564004572723A204DBC
:10279000415854454D50004D415854454D502074BA
:1027A000726967676572656400526573656E643A45
:1027B00020006F6B0020746F6F206C6F6E67206558
:1027C0007874727573696F6E2070726576656E7459
:1027D00065640A0020636F6C642065787472757399
:1027E000696F6E2070726576656E7465640A0000AC
:1027F00001E412DD11241FBECFEFD1E2DEBFCDBF59
:1028000000E00CBF13E0A0E0B2E0E4E0F6EE01E08F
:102810000BBF02C007900D92A43AB107D9F723E18C
:10282000A4EAB3E001C01D92A538B207E1F713E1B5
:10283000C9EFD3E100E006C021970109802FFE0116
:102840000E945FF2C83FD10780E00807A9F70E9405
:1028500069DF0C94F1F20C9400002F923F924F929A
:102860005F926F927F928F929F92AF92BF92CF9220
:10287000DF92EF92FF920F931F93CF93DF93CDB729
:10288000DEB7CF55D1090FB6F894DEBF0FBECDBF6E
:102890000091E50C20E6029F800111240B59144F92
:1028A00080919F0A80FF1AC0EEEBF4E284917F01D1
:1028B0003FEFE31AF30A811102C0780104C00E94BD
:1028C0001B4EF701F3CFD7018D917D01882319F0BD
:1028D0000E941B4EF8CF8AE00E941B4E81E090E0E0
:1028E00090931309809312091092C3031092C203AC
:1028F0008FE38093CE031092CD031092CC0384E03B
:10290000EEEBF3E0DF011D928A95E9F7F801808193
:102910000F5F1F4F8032D1F38E34C9F4818190ED67
:10292000980F9A3020F08D3211F08B3281F4DF0154
:1029300012969D012F5F3F4F8C9180538A3010F487
:10294000D901F7CFFD01119680818032D9F3F09340
:102950001609E09315097F01BFEFEB1AFB0A1081FE
:102960006AE270E0C7010E94B9F2009731F0FC0101
:10297000319780818032E1F311821D3431F11435B9
:1029800021F1173411F1EEEBF4E284918F010F5F26
:102990001F4F882321F00E941B4EF801F6CF609153
:1029A0001509709116098AE196E00E94BC4382E203
:1029B0000E941B4E8AE00E941B4E10921309109237
:1029C00012090E94C9DC0C94BF2BC701FC012081B5
:1029D00001962032D9F320532A30A8F61093CE0363
:1029E00080E090E06AE03196DF0111972C91022E91
:1029F000000C330B20533109689FA001699F500DD3
:102A00001124C901840F951F208120532A3058F3C7
:102A10009093CD038093CC03DF0131962C9120322B
:102A2000D9F31D34D1F48E31910591F03CF4873106
:102A3000910571F08C31910581F40AC085379105BB
:102A400064F08737910524F0803AE3E09E0729F48B
:102A5000B093C303A093C2037DC01092C30310922E
:102A6000C20300911509EE24E394F12CFD01319687
:102A70002C91222309F46EC02132A9F41D3499F45B
:102A80008032910581F4F093C303E093C20363E2C3
:102A900070E0CF010E94B9F2009711F40C94721EFD
:102AA000DC011C9257C021542A31A0F5AF01FA0174
:102AB00030814F5F5F4F3032D1F340ED430F4A30EA
:102AC00040F043ED430F423020F03B3211F00C94C4
:102AD000542BAF01622F70E0DB0133E0B595A79571
:102AE0003A95E1F7A254BC4F2770670102C0CC0CA5
:102AF000DD1C2A95E2F796013C91232B2C9341157E
:102B0000510511F0401B01C040E0DB01AC55BC4F4A
:102B10004C930AC02091C2033091C303232B21F4AC
:102B2000B093C303A093C203208121542A3110F42F
:102B3000DF019CCFDF01AD014F5F5F4F2C91205330
:102B40002A3010F4DA01F7CFFD01119620812032EE
:102B5000D9F3EECF8091CE038D3411F40C94721E14
:102B6000843511F40C94112B873409F00CCF20908C
:102B7000CC033090CD032CE12216310409F4AAC510
:102B80008CF444E0241631043CF452E02516310460
:102B90007CF537FE23C011CF84E02816310409F4F8
:102BA00054C50BCF9AE52916310409F49CC75CF48F
:102BB000BDE12B16310409F491C5EAE22E16310469
:102BC00009F4F6C7FACEFBE52F16310409F48FC7D6
:102BD0002CE52216310409F48FC7EFCE80917E02D6
:102BE000882309F4EACE0E946D5C0E94BCDBE5CE2E
:102BF00080917E02882309F4E0CE0E946D5C82E51C
:102C00000E94605C882309F43CC10E94295C4B014E
:102C10005C018091600A9091610AA091620AB09172
:102C2000630A8CA79DA7AEA7BFA72091640A309125
:102C3000650A4091660A5091670A28AB39AB4AABE6
:102C40005BAB80912B0990912C09A0912D09B0913B
:102C50002E0988AF99AFAAAFBBAF20912F09309151
:102C6000300940913109509132092CAB3DAB4EAB4C
:102C70005FAB20E030E0A901C501B4010E94ECEA9D
:102C8000882309F42AC128AD39AD4AAD5BAD6CA5E6
:102C90007DA58EA59FA50E94ECEA81110DC02CA9EF
:102CA0003DA94EA95FA968A979A98AA99BA90E94F3
:102CB000ECEA882309F411C111E032E02316310453
:102CC00009F010E020E030E0A901C501B4010E9444
:102CD000ECEA881F8827881F181759F080E090E0D9
:102CE000A0E8BFEB28968CAF9DAFAEAFBFAF2897E3
:102CF0000AC020E030E040E85FE328962CAF3DAF0B
:102D00004EAF5FAF28972CA53DA54EA55FA568AD3A
:102D100079AD8AAD9BAD0E9446EF24966CAF7DAF36
:102D20008EAF9FAF249728A939A94AA95BA96CA99E
:102D30007DA98EA99FA90E9446EF6B017C01249674
:102D40002CAD3DAD4EAD5FAD2497CA01B9010E94D7
:102D500051EB2B013C01A7019601C701B6010E946E
:102D600051EB9B01AC01C301B2010E9447EF0E94ED
:102D7000B2F16CAF7DAF8EAF9FAF20E030E040E0AE
:102D80005FE30E9451EB2B013C01A5019401C501B9
:102D9000B4010E9451EB4B015C01A3019201C301FC
:102DA000B2010E9451EB9B01AC01C501B4010E942C
:102DB00046EF0E94B2F128962CAD3DAD4EAD5FAD11
:102DC00028970E9451EB4B015C01C701B601905856
:102DD0002CAD3DAD4EAD5FAD0E9423F0A501940139
:102DE0000E9451EB6B017C0128AD39AD4AAD5BAD62
:102DF0006CA57DA58EA59FA50E9447EF20E030E041
:102E000040E05FE30E9451EB9B01AC01C701B601BA
:102E10000E9447EF2CA53DA54EA55FA50E9446EF59
:102E20006B017C012CA93DA94EA95FA968A979A9CC
:102E30008AA99BA90E9447EF20E030E040E05FE3D1
:102E40000E9451EB2B013C012CAD3DAD4EAD5FAD71
:102E500024966CAD7DAD8EAD9FAD24970E9423F07E
:102E6000A50194010E9451EB9B01AC01C301B20189
:102E70000E9447EF28A939A94AA95BA90E9446EFF9
:102E800014C089E40E94605C882329F00E94295CB8
:102E90006B017C0103C0C12CD12C76018AE40E9415
:102EA000605C8823E9F00E94295C68AF79AF8AAF43
:102EB0009BAF20E030E0A901C701B6010E94ECEA17
:102EC00081111BC020E030E0A90168AD79AD8AAD69
:102ED0009BAD0E94ECEA811110C0EEE9F6E1A2C3BD
:102EE00020E030E0A901C701B6010E94ECEA882386
:102EF000A1F318AE19AE1AAE1BAED701C601B05879
:102F00008CA79DA7AEA7BFA728AD39AD4AAD5BADD5
:102F1000505828AB39AB4AAB5BAB9C01AD01BC014F
:102F2000CD010E9451EB4B015C0128A939A94AA9A6
:102F30005BA9CA01B9010E9451EB9B01AC01C5011B
:102F4000B4010E9447EF0E94B2F164966CAF7DAF6E
:102F50008EAF9FAF64978091600A9091610AA091B3
:102F6000620AB091630A8CAB9DABAEABBFABA7015D
:102F70009601BC01CD010E9447EF28966CAF7DAF52
:102F80008EAF9FAF28972091640A3091650A4091D7
:102F9000660A5091670A2CAF3DAF4EAF5FAF28ADC8
:102FA00039AD4AAD5BAD6CAD7DAD8EAD9FAD0E94D0
:102FB00047EF68966CAF7DAF8EAF9FAF68978091FB
:102FC0002B0990912C09A0912D09B0912E092C96D6
:102FD0008CAF9DAFAEAFBFAF2C9728962CAD3DAD5B
:102FE0004EAD5FAD2897BC01CD010E9446EF6B014D
:102FF0007C0120912F093091300940913109509185
:10300000320960962CAF3DAF4EAF5FAF60976896C8
:103010002CAD3DAD4EAD5FAD689760966CAD7DADAE
:103020008EAD9FAD60970E9446EF4B015C01809191
:10303000680A9091690AA0916A0AB0916B0A6C962D
:103040008CAF9DAFAEAFBFAF6C979C01AD016091EF
:1030500033097091340980913509909136090E94A5
:1030600046EF24966CAF7DAF8EAF9FAF2497A7013C
:1030700096016CA57DA58EA59FA50E9451EB2B0105
:103080003C01A501940168A979A98AA99BA90E947C
:1030900051EB9B01AC01C301B2010E9447EF2B0130
:1030A0003C01A50194016CA57DA58EA59FA50E945C
:1030B00051EB4B015C01A701960168A979A98AA986
:1030C0009BA90E9451EB9B01AC01C501B4010E9478
:1030D00046EFA30192010E94BAEF6B017C0120E050
:1030E00030E0A9010E94ECEA87FF0AC02BED3FE027
:1030F00049EC50E4C701B6010E9447EF6B017C0127
:1031000092E02916310451F42BED3FE049EC50E4F4
:10311000C701B6010E9446EF6B017C0120E030E060
:10312000A901C701B6010E94ECEA811124C02C96C6
:103130002CAD3DAD4EAD5FAD2C976CA97DA98EA990
:103140009FA90E94ECEA811116C060962CAD3DAD9E
:103150004EAD5FAD60976CAD7DAD8EAD9FAD0E9405
:10316000ECEA811108C02BEDC22E2FE0D22E29EC03
:10317000E22E20E4F22EA701960164966CAD7DAD9F
:103180008EAD9FAD64970E9451EB9B01AC010E94F4
:1031900051EB4B015C0124962CAD3DAD4EAD5FADC6
:1031A0002497CA01B9010E9451EB9B01AC01C501F2
:1031B000B4010E9447EF0E94B2F14B015C012FE67F
:1031C00032E143E85AE30E94ECEA87FD25C2C501DB
:1031D000B4010E94BCF00E9490F07DAF6CAFDB01A7
:1031E000AB2B21F4E1E0F0E0FDAFECAF40906C0AD6
:1031F00050906D0A60906E0A70906F0A2CAD3DADD4
:10320000B90180E090E00E94F0EA4B015C019B0173
:10321000AC01C701B6010E9423F06CAB7DAB8EAB55
:103220009FABA501940124966CAD7DAD8EAD9FAD95
:1032300024970E9423F064966CAF7DAF8EAF9FAF52
:103240006497A301920160913709709138098091C8
:10325000390990913A090E9446EFA50194010E9414
:1032600023F0A0966CAF7DAF8EAF9FAFA0972CA937
:103270003DA94EA95FA9CA01B9010E9451EB20E006
:1032800030E040E05FE30E9451EB9B01AC0160E065
:1032900070E080E89FE30E9446EF24966CAF7DAF1C
:1032A0008EAF9FAF24976C968CAD9DADAEADBFAD8C
:1032B0006C9789879A87AB87BC874D865E866F86B9
:1032C000788A6091510270915202072E000C880B8F
:1032D000990B0E94F2EA209185023091860240917A
:1032E0008702509188020E9451EB2AE037ED43E2B9
:1032F0005CE30E9451EB2C966CAF7DAF8EAF9FAF1D
:103300002C970E94858E9B01AC0128533F4F4F4F55
:103310005F4F60962CAF3DAF4EAF5FAF60974CA450
:103320005DA46EA47FA422242394312C99E1D92E8C
:103330004CAD5DAD4215530509F430C10E949BD0E0
:103340000E94858EDC01CB0160962CAD3DAD4EAD6B
:103350005FAD6097821B930BA40BB50BB7FD11C03B
:103360000E94858E9B01AC0128533F4F4F4F5F4F0A
:1033700060962CAF3DAF4EAF5FAF609780E00E948C
:103380004751DA94DD2009F441C028A939A94AA996
:103390005BA924966CAD7DAD8EAD9FAD24970E9448
:1033A00051EB4B015C019201A3016CA97DA98EA98F
:1033B0009FA90E9451EBA50194010E9447EF7B0158
:1033C0008C019201A30124966CAD7DAD8EAD9FADB5
:1033D00024970E9451EB4B015C0128A939A94AA905
:1033E0005BA96CA97DA98EA99FA90E9451EB9B01A5
:1033F000AC01C501B4010E9446EF2B013C01C7019D
:10340000D80188AB99ABAAABBBAB4DC0B10180E092
:1034100090E00E94F0EA2CA93DA94EA95FA90E9464
:1034200051EB4B015C010E9420F06B017C01C50156
:10343000B4010E94A8F14B015C01A70196016CA5A3
:103440007DA58EA59FA50E9451EB2B013C0128ADC7
:1034500039AD4AAD5BADC501B4010E9451EBA3018A
:1034600092010E9447EF2B013C01A50194016CA53C
:103470007DA58EA59FA50E9451EB4B015C0128AD57
:1034800039AD4AAD5BADC701B6010E9451EB9B015E
:10349000AC01C501B4010E9446EF68AB79AB8AABC1
:1034A0009BAB09E1D02E9201A30128966CAD7DADB6
:1034B0008EAD9FAD28970E9447EF69837A838B83F7
:1034C0009C8328A939A94AA95BA968966CAD7DADF2
:1034D0008EAD9FAD68970E9447EF6D837E838F838B
:1034E000988764962CAD3DAD4EAD5FAD6497698510
:1034F0007A858B859C850E9447EF69877A878B87C1
:103500009C87A0962CAD3DAD4EAD5FADA0976D856F
:103510007E858F8598890E9447EF6D877E878F878C
:10352000988B80917D02882321F0CE0101960E9424
:10353000594FC090C70A89819A81AB81BC8188A309
:1035400099A3AAA3BBA38D819E81AF81B8858CA3CB
:103550009DA3AEA3BFA389859A85AB85BC8588A7AB
:1035600099A7AAA7BBA7CE0180960E94F6452C96E4
:10357000ECACFDAC0EAD1FAD2C979E01235F3F4F11
:10358000AE01485D5F4FBE016C5D7F4FCE018096FE
:103590000E9407A53FEF231A330ACACEC090C70A7C
:1035A00080912B0990912C09A0912D09B0912E09A1
:1035B00088A399A3AAA3BBA380912F099091300956
:1035C000A0913109B09132098CA39DA3AEA3BFA3F2
:1035D0008091330990913409A0913509B091360951
:1035E00088A799A7AAA7BBA7CE0180960E94F645F7
:1035F0002C96ECACFDAC0EAD1FAD2C9727E339E05B
:10360000AE01485D5F4FBE016C5D7F4FCE0180967D
:103610000E9407A50E9418550E94FE45CEC90E942F
:103620001B4EF80184918F010F5F1F4F8111F7CF5F
:10363000E9EDF1E084918F010F5F1F4F882309F4BA
:10364000BCC90E941B4EF801F5CF80E50E94605C6A
:10365000882329F00E94E95B6B017C0103C0C12C27
:10366000D12C760183E50E94605C882361F00E9482
:10367000295C20E030E04AE754E40E9451EB0E94CC
:1036800090F06B017C010E94D7D3809111028111CF
:1036900005C060E08FEE91E00E9436940E94FE45E6
:1036A0008091170990911809A0911909B0911A09F0
:1036B000C80ED91EEA1EFB1E0E94858EDC01CB01BE
:1036C0008C199D09AE09BF09B7FF77C980E00E9438
:1036D0004751F2CF80E00E94ECA26FC983E50E94BF
:1036E000605C882319F00E94095C01C080E086308C
:1036F00068F0E6E9F2E084918F010F5F1F4F8823A5
:1037000009F45BC90E941B4EF801F5CF823009F421
:1037100044C0A0F48823E9F0813009F0E0C10E94A0
:10372000094E109201021092000283E692E09093FB
:10373000960A8093950A0E947257D1C1843009F489
:10374000BFC108F458C1853009F0C9C10E94DB5BD4
:10375000C6C18091D40A80FD03C006E712E013C001
:103760000E945C5B882319F06BEF72E002C06FEF80
:1037700072E08EE692E00E94BC438AE00E941B4EFB
:103780000E9439A2ACC1F8018491882309F4A7C131
:103790000F5F1F4F0E941B4EF6CF00910002109149
:1037A000010217FF0DC0EAE3F2E084918F010F5F81
:1037B0001F4F882309F401C90E941B4EF801F5CF61
:1037C0000115110529F480917D028093CB030CC073
:1037D0008FEF800F0E94E0608091CB0380937D0289
:1037E000093011050CF0B7C0802F63E00E940FF282
:1037F000782E692E80FF03C082E0891B682EC0905E
:103800008502D0908602E0908702F0908802809036
:10381000680A9090690AA0906A0AB0906B0A08E85A
:1038200013E1F80185919591A591B491809385025A
:1038300090938602A0938702B093880220E030E044
:1038400040EA50E46091D00A7091D10A8091D20A86
:103850009091D30A0E9447EF6093680A7093690AB7
:1038600080936A0A90936B0A0E947D5585E595E5E1
:10387000A5E0B3E48093850290938602A09387022B
:10388000B0938802F62D24E0F202D0011124A65153
:10389000B04F2091C80A3091C90A4091CA0A50918C
:1038A000CB0A6D917D918D919C910E9447EF609321
:1038B000600A7093610A8093620A9093630A372DBD
:1038C00044E03402F0011124E252F04F2091CC0A7E
:1038D0003091CD0A4091CE0A5091CF0A608171811A
:1038E000828193810E9447EF6093640A7093650A16
:1038F0008093660A9093670A0E947D55F80185912E
:103900009591A591B4918093850290938602A0939E
:103910008702B09388028092680A9092690AA09206
:103920006A0AB0926B0A0E947D55C0928502D092BD
:103930008602E0928702F09288020E94D7D310920A
:103940007D02809100029091010201969093010204
:1039500080930002C4C020E030E0A9016091D00A49
:103960007091D10A8091D20A9091D30A0E9447EFB8
:1039700020E030E040EA50E40E9447EF6093680A9C
:103980007093690A80936A0A90936B0A0E947D552E
:103990000E94D7D38FEF9FEF909301028093000294
:1039A000E6E2F2E084918F010F5F1F4F882321F040
:1039B0000E941B4EF801F6CF83E992E09A83898337
:1039C00004E610E019A308A3BE016F5F7F4FCE018C
:1039D00080960E9479608AEB92E09A83898319A38A
:1039E00008A3BE016F5F7F4FCE0180960E94796071
:1039F0000E94C8A374C088E50E94605C8823A1F07F
:103A00000E94F95B1FEF160F1330A8F0EFE0F2E011
:103A100084918F010F5F1F4F882311F40C94DD14E4
:103A20000E941B4EF801F4CF88E50E941B4E0E94B5
:103A3000F1E30C94DD1489E50E94605C8823A1F019
:103A40000E94F95B0FEF060F0330A8F0E8EFF1E0FA
:103A500084918F010F5F1F4F882311F40C94DD14A4
:103A60000E941B4EF801F4CF89E50E941B4E0E9474
:103A7000F1E30C94DD148AE50E94605C8823C9F0B0
:103A80000E94295C212F110F330BF901EE0FFF1F4C
:103A9000E20FF31FE00FF11D07FDFA95EE0FFF1F78
:103AA000EE0FFF1FE059F54F60837183828393838C
:103AB00016C08AE50E941B4E0E94F1E30C94DD14AF
:103AC0008AE50E94605C8823A1F30E94295C6093D0
:103AD000D80A7093D90A8093DA0A9093DB0A0E947D
:103AE00025790C94DD141092CA030C94DD1481E046
:103AF0008093CA030C94DD1485E40E94605CB82EA8
:103B0000811102C00E94D7D3E9E88E2EE2E09E2EFA
:103B1000F0E6CF2EFAE0DF2EAFE1EA2EA9E0FA2E92
:103B200000E010E0A12CD4018D914D010E94605C59
:103B3000882339F1F60140805180628073800E94B1
:103B4000295CD6016D937D938D939C9313970330DD
:103B5000C1F0A30192010E9446EF9B01AC01F70165
:103B600060817181828193810E9447EFD7016D93BB
:103B70007D938D939C931397C8010E94C456AA24E9
:103B8000A3940F5F1F4FB4E0CB0ED11CE4E0EE0E08
:103B9000F11C0430110539F6AA2019F00E94725A5E
:103BA00003C0B1100E94E5D70E9425790C94DD1462
:103BB00080917E02882311F40C94DD1489E40E9424
:103BC000605CE82E882321F00E94F95B062F01C07B
:103BD00000E08AE40E94605CF82E882321F00E94B5
:103BE000F95B162F01C010E0EE2011F0033020F435
:103BF000FF2081F0133070F0EDEAF2E084918F0144
:103C00000F5F1F4F882311F40C94DD140E941B4E8C
:103C1000F801F4CF0E940E55EE20E1F024E00202FC
:103C2000F0011124E651F04F2091C80A3091C90AE1
:103C30004091CA0A5091CB0A60817181828193813F
:103C40000E9447EF60932B0970932C0980932D09F4
:103C500090932E09FF20E1F034E01302F0011124CB
:103C6000E252F04F2091CC0A3091CD0A4091CE0A19
:103C70005091CF0A60817181828193810E9447EFC8
:103C800060932F0970933009809331099093320922
:103C900080E50E94EB4481110E941A5C86E40E9438
:103CA000605C8823D9F00E94295C6B017C0120E0D4
:103CB00030E0A9010E946DF1181684F420E030E094
:103CC00040E752E4C701B6010E9423F060938502E9
:103CD0007093860280938702909388020E94BCDBD7
:103CE0000C94DD148091CC039091CD038237910523
:103CF00009F420C60CF0BAC08B34910509F4C8C38E
:103D00000CF068C08831910509F48FC2E4F5823166
:103D1000910509F438C5F4F497FF02C00C94DD1442
:103D2000823091050CF49EC1419711F00C94DD1482
:103D300060E08BEF92E00E9436945F988A989FB77C
:103D4000F894809108018E7F809308019FBF12989C
:103D50000C94DD148531910509F44CC23CF4449770
:103D600011F00C94DD14E3E1F3E004C28631910517
:103D700009F444C2479711F00C94DD14E091C2039A
:103D8000F091C30345C28C31910509F4B5C264F4C6
:103D90008A31910509F454C20CF071C210923F109F
:103DA0000E9486D80C94DD148F31910509F4F8C275
:103DB00044F44E9711F00C94DD140E94D2A30C949D
:103DC000DD148032910509F4A1C28A9709F414C365
:103DD0000C94DD148C35910509F423C524F5813547
:103DE000910509F4B4C47CF48D34910509F458C3E9
:103DF0000CF452C38E34910511F00C94DD140E9422
:103E00003FA00C94DD148335910509F4B7C40CF47C
:103E1000B1C48435910509F4B6C48535910509F41A
:103E2000E5C40C94DD148D36910509F48CC474F44A
:103E30008936910509F46AC48C36910509F416C4D3
:103E40008836910511F00C94DD142EC38F36910540
:103E500009F494C30CF47FC38037910509F40AC4B4
:103E60008137910509F40EC40C94DD14823E91054E
:103E700011F40C949F270CF05EC0883C910509F466
:103E80001EC61CF58737910509F4A6C574F485375D
:103E9000910509F461C50CF068C58337910511F0EF
:103EA0000C94DD14EAEAF3E04BC58937910509F477
:103EB0009EC50CF495C58C38910509F410C4813960
:103EC000910509F49AC50C94DD148D3C910509F413
:103ED000EDC6B4F48B3C910509F45FC60CF07AC6CC
:103EE000893C910511F00C94DD14B9E8EB2EB2E099
:103EF000FB2E03E41DE083E5C82E8DE0D82E33C6EB
:103F0000833D910509F4ABC064F48E3C910511F03A
:103F10000C94DD14F9E8EF2EF2E0FF2E00E010E043
:103F200032C78C3D910509F4DFC78D3D910509F439
:103F3000EAC70C94DD14853A41E0940711F40C941F
:103F4000F528ACF58F32A1E09A0711F40C94ED2816
:103F500084F48D32E1E09E0711F40C94F72714F0FD
:103F60000C9496288C32914011F40C94CD270C942B
:103F7000DD14803931E0930711F40C94F1284CF4EE
:103F80008336914011F00C94DD14EEE9F6E10C94C7
:103F9000E92A8A39A1E09A0709F470C3843A91406A
:103FA00011F00C94DD140E9429740C94DD14873FE9
:103FB000E1E09E0711F40C94CD29ACF5843F21E09B
:103FC000920711F40C94C629FCF48C3A914011F03C
:103FD0000C94DD14E5EDFAE0FDA7ECA738EC832E98
:103FE0003AE0932E40E6A42E4AE0B42E5AECC52EB9
:103FF00052E1D52E61E7262E62E0362E04E713E16A
:10400000E12CF12C0C94F928853F51E0950711F42F
:104010000C94CA29863F914011F00C94DD140E9443
:104020009E2C0C94DD148438B3E09B0711F40C949F
:10403000DC294CF48835924011F00C94DD140E9478
:10404000FE360C94DD14803A23E0920709F49BC1FC
:10405000873E934011F40C94FD2A0C94DD14EEEB92
:10406000F4E2AAC6A090C203B090C30380E50E9408
:10407000605C882359F00E94E95B6B017C0111E0D0
:10408000672B682B692B31F410E004C010E0C12CC1
:10409000D12C760183E50E94605C8823F1F00E94B8
:1040A000295C20E030E04AE754E40E9451EB0E9492
:1040B00090F06B017C01111112C0672B682B692BEA
:1040C00071F4A114B10459F0D5018C91882339F011
:1040D00061E0C5010E94539407C0112391F360E091
:1040E00088EE92E00E94369483E090E0909313096A
:1040F0008093120981E08093FD0A0E94D7D30E9429
:10410000FE45C114D104E104F104E1F080911709E6
:1041100090911809A0911909B0911A09C80ED91ED9
:10412000EA1EFB1E0E94858EDC01CB018C199D09C5
:10413000AE09BF09B7FF1AC08091FD0A81110C9426
:10414000652B14C08091FD0A882321F080E00E9435
:104150004751F8CF80913F1060E0882319F089ED36
:1041600092E002C08CEC92E00E9436941092FD0A1C
:104170000C94DD1484918F010F5F1F4F882321F071
:104180000E941B4EF801F6CF1092C5121092C41275
:1041900080E790E10E94EC368BE1E0E7F0E1DE01A0
:1041A000159601900D928A95E1F780916E1090918D
:1041B0006F109C838B8387EE92E09A83898340E023
:1041C00050E0BE016F5F7F4F8AE393E00E940DC60F
:1041D000CE0101960E94F736E4E0F3E084918F016E
:1041E0000F5F1F4F882311F40C94DD140E941B4EA7
:1041F000F801F4CF0E94475D0C94DD1410923F103B
:10420000109240100C94DD14803209F41082319623
:1042100080818111F9CF40E061E08091C2039091EB
:10422000C3030E9459610C94DD14809140108823CF
:1042300019F081E080933F100E942BD80C94DD147C
:1042400080914010882311F40C94DD1483E50E94C2
:10425000605C882311F40C94DD140E94F95BAB01BF
:10426000BC014093BB125093BC126093BD1270937B
:10427000BE128AE092E10E94E46B0C94DD148091FE
:104280004010811103C0E6E3F3E02AC0E4E2F3E06A
:1042900084918F010F5F1F4F882321F00E941B4ED6
:1042A000F801F6CF6091BB127091BC128091BD12E3
:1042B0009091BE124AE00E94224E8FE20E941B4E55
:1042C0006091B7127091B8128091B9129091BA12A0
:1042D0004AE00E94224E8AE00E941B4E0C94DD149C
:1042E00084918F010F5F1F4F882311F40C94DD140C
:1042F0000E941B4EF801F4CF40E060E08091C203C1
:104300009091C3030E9459610C94DD1480913F1079
:1043100081110E94D7D3E090C203F090C30380E5DF
:104320000E94EB44182F882319F00E941A5C182F62
:1043300080914010882311F40C94DD14412F61E02A
:10434000C7010E94596183E50E94605C882381F067
:104350000E94F95BAB01BC014093BB125093BC12AD
:104360006093BD127093BE128AE092E10E94E46BEA
:1043700080914010882319F081E080933F10111143
:104380000C94DD1459CF8091C2039091C30321E0B6
:1043900020933E1040E060E00E9459610C94DD14CF
:1043A00084E190E10E9468D368A379A38AA39BA3C8
:1043B000BE016F5F7F4FCE0180960E941A4560E07C
:1043C000CE0101960E945394EEEBF4E284918F01AA
:1043D0000F5F1F4F882321F00E941B4EF801F6CF7C
:1043E000BE016F5F7F4F87E493E00E94BC438AE089
:1043F0000E941B4E0C94DD1483E50E94605C8823B0
:1044000011F40C94DD140E94095CF82E80E50E94E2
:10441000605C882339F00E94F95B8B0177FF04C050
:104420000C94DD140DE010E0802FEBE4F5E09491A6
:10443000891303C0EEE9F6E117C03196B5E0E33722
:10444000FB07A9F761E0802F0E9414986F2D802F41
:104450000E94E6976F2D70E0802F0E94848D0C944F
:10446000DD140E941B4EF80184918F010F5F1F4FD6
:104470008111F7CFE4E5F3E084918F010F5F1F4FC7
:10448000882311F40C94DD140E941B4EF801F4CF24
:104490000E942BD80C94DD140E9486D80C94DD1455
:1044A0000E94A6C30C94DD1488E690E00E94075D8C
:1044B00081110C94DD1480919F0A83FF02C00C943B
:1044C000DD1483E50E94605C882309F440C00E94EB
:1044D000295C0E948BF07093F50C6093F40C80E0E3
:1044E0000E9432CE0E94295C20E030E04AEA52E489
:1044F0000E94ECEA18163CF00E94A6C360E08AE62F
:1045000093E00E9436940E94295C2091FE0A30912B
:10451000FF0A4091000B5091010B0E946DF118169B
:10452000B4F487E093E09F938F938091C50390E06C
:1045300001969F938F9383E693E09F938F931F92AF
:104540000E94C5600FB6F894DEBF0FBECDBF0E94BB
:10455000C8D50C94DD148EE40E94605C882311F4AD
:104560000C94DD140E94F95B60936F1370937013C9
:1045700080937113909372130C94DD1483E50E9461
:10458000EB44882359F083E50E94605C882319F08E
:104590000E94095C01C080E080939F0AEEEBF4E288
:1045A00084918F010F5F1F4F811103C0E5E8F3E095
:1045B00004C00E941B4EF801F3CF84918F010F5F5E
:1045C0001F4F882321F00E941B4EF801F6CF8091E7
:1045D0009F0A811103C0E1E8F3E034C077E7C72EFA
:1045E00073E0D72EE12CF12C20E080919F0A90E01F
:1045F0000E2C02C0959587950A94E2F780FF17C0AC
:10460000BB24B394B20E222319F08CE20E941B4EFD
:10461000F60185919491FC0184918F010F5F1F4FEA
:10462000882321F00E941B4EF801F6CF2B2DFFEFBF
:10463000EF1AFF0A32E0C30ED11C45E0E416F10484
:10464000A1F60FC084918F010F5F1F4F882349F09F
:104650000E941B4EF801F6CF42E0C701B6010E944E
:10466000A74E8AE00E941B4E0C94DD1410924E025D
:104670000C94DD148CE893E00E94FA500E94DD74E3
:104680000C94DD1483E50E94605C811103C0EEEBA5
:10469000F4E20DC00E94095C80930B028D3310F48C
:1046A0000C94DD148CE380930B020C94DD14849144
:1046B0008F010F5F1F4F882321F00E941B4EF801CE
:1046C000F6CF40910B0250E060E070E085E993E0A6
:1046D0000E9469438AE00E941B4E0C94DD14809175
:1046E0009F0A83FF02C00C94DD1483E50E94605C86
:1046F000882311F40C94DD140E94295C0E948BF035
:104700007093980A6093970A0C94DD1489E690E000
:104710000E94075D811111C0ECE9F3E084918F01E3
:104720000F5F1F4F882321F00E941B4EF801F6CF28
:104730000E94ED9F8AE00E941B4E10921309109276
:1047400012090C94BF2B0E94E4790C94DD140E9492
:104750007ECE0E94D7D30E94E95068EE73E080E0DD
:1047600090E00E94549360E08FE993E00E943694B9
:104770000C94DD141092C9030C94DD1481E0809335
:10478000C9030C94DD1483E50E94605C8823A1F0CA
:104790000E94295C20E030E04AE754E40E9451EB9B
:1047A0000E9490F060930C0270930D0280930E02B1
:1047B00090930F020C94DD1488E50E94EB44811164
:1047C00089C789E50E94EB44811184C78AE50E946C
:1047D000EB4481117FC785E40E94EB4481117AC7C5
:1047E0000E94D7D30E94E9500C94DD1483E50E9407
:1047F000EB44882311F40C94DD140E94295C20E022
:1048000030E04AE754E40E9451EB0E9490F060933C
:104810001B0970931C0980931D0990931E090C9429
:10482000DD1459E8C52E52E0D52E6FE5E62E63E182
:10483000F62E10E0D6018D916D010E94EB44882385
:1048400009F46DC0133009F063C00E94295C4B016C
:104850005C0120E030E040EA51E40E94ECEA87FF8E
:104860004EC0A501940160916B1370916C138091FF
:104870006D1390916E130E9423F02B013C019B015C
:10488000AC0160916B0D70916C0D80916D0D9091EC
:104890006E0D0E9451EB60936B0D70936C0D8093C5
:1048A0006D0D90936E0DA301920160913F0D70917B
:1048B000400D8091410D9091420D0E9451EB60930B
:1048C0003F0D7093400D8093410D9093420D609188
:1048D00038137091391380913A1390913B130E94D1
:1048E000F0EAA30192010E9451EB0E9490F06093C4
:1048F00038137093391380933A1390933B1380923B
:104900006B1390926C13A0926D13B0926E1307C04C
:104910000E94295CF70160837183828393831F5F08
:10492000F4E0EF0EF11C143009F084CF0E944ED752
:104930000C94DD140E94D7D30E9425790C94DD14C9
:1049400084918F010F5F1F4F882311F40C94DD14A5
:104950000E941B4EF801F4CF60E08091C203909159
:10496000C3030E9453940C94DD1485E40E94EB442D
:10497000882381F00E941A5C882361F0EEEBF4E258
:1049800084918F010F5F1F4F882321F00E941B4EDF
:10499000F801F6CF81E40E94EB44882381F00E9465
:1049A0001A5C882361F0EBE6F4E084918F010F5FDD
:1049B0001F4F882321F00E941B4EF801F6CF009173
:1049C000C2031091C303D8018D918D01882309F48E
:1049D00048CE0E941B4EF7CF0E949F460C94DD14D8
:1049E00081E08093300B8093C4030C94DD1410920B
:1049F000300B1092C4030C94DD1483E50E94605CBC
:104A0000882319F00E94F95B02C060E070E08B011E
:104A1000112702301105DCF0EEE9F6E184918F01F7
:104A20000F5F1F4F811103C0EFE6F4E004C00E9446
:104A30001B4EF801F3CF84918F010F5F1F4F882326
:104A400011F40C94DD140E941B4EF801F4CF88E49D
:104A50000E94605C8823A9F00E94F95B6A3A7105A4
:104A60003CF06530B1E07B072CF064E071E002C0FF
:104A70006AEA70E0F801EE0FFF1FEA50F34F71830E
:104A8000608386E40E94605C882311F40C94DD143A
:104A90000E94F95B000F111FF801E650F34F71837C
:104AA00060836F3F710519F014F06FEF70E077FFCE
:104AB00002C060E070E0718360830C94DD1488ECC8
:104AC00090E00E94075D81110C94DD1484E40E9443
:104AD000EB44882309F443C00E94295C6B017C01EC
:104AE00011E020E030E0A9010E94ECEA811101C050
:104AF00010E01093770D20E030E0A901C701B60166
:104B00000E94ECEA882359F10091C50310E00E944D
:104B1000295C000F111F000F111FF801ED58F24F13
:104B2000608371838283938320E030E0A9016091E8
:104B3000730D7091740D8091750D9091760D0E949A
:104B4000ECEA81110CC080E090E0A0EEBFE380931E
:104B5000730D9093740DA093750DB093760D0E9414
:104B60005AD90C94DD14F70181917F010E94EB4426
:104B7000882351F00E94295C0E9490F0D8016D9327
:104B80007D938D939C9313970C5F1F4FC016D10696
:104B900051F70E94F8D50C94DD14A9E8EA2EA2E0A2
:104BA000FA2E03E31DE0F70181917F010E94EB449F
:104BB000882341F00E94295CD8016D937D938D93E9
:104BC0009C9313970C5F1F4FBDE003341B0759F7ED
:104BD0000C94DD1483E50E94EB448823D9F00E94F5
:104BE000295CAB01BC0140935B0D50935C0D60935D
:104BF0005D0D70935E0D4093530D5093540D609373
:104C0000550D7093560D8BEE94E00E9486438AE01A
:104C10000E941B4E80E50E94EB44882399F00E947D
:104C2000295CAB01BC0140935B0D50935C0D60931C
:104C30005D0D70935E0D8EEC94E00E9486438AE0D9
:104C40000E941B4E82E50E94EB44882399F00E944B
:104C5000295CAB01BC014093570D5093580D6093F4
:104C6000590D70935A0D8FEA94E00E9486438AE0B2
:104C70000E941B4E84E50E94EB44882311F40C949F
:104C8000DD140E94295CAB01BC014093530D50938D
:104C9000540D6093550D7093560D81E994E00E9478
:104CA00086438AE00E941B4E0C94DD1483E50E942B
:104CB000EB44882351F00E94295C60932F0D709380
:104CC000300D8093310D9093320D84E50E94EB44BA
:104CD000882351F00E94295C60932B0D70932C0D5A
:104CE00080932D0D90932E0D82E40E94EB44882337
:104CF00051F00E94E95B60931E0D70931F0D80932D
:104D0000200D9093210D88E50E94EB44882351F0FB
:104D10000E94295C60935F0D7093600D8093610D1C
:104D20009093620D89E50E94EB44882351F00E9424
:104D3000295C6093630D7093640D8093650D90936F
:104D4000660D8AE50E94EB44882351F00E94295C9D
:104D50006093670D7093680D8093690D90936A0D51
:104D600085E40E94EB44882311F40C94DD140E9426
:104D7000295C60936B0D70936C0D80936D0D909317
:104D80006E0D0C94DD14F70181917F010E94EB44BC
:104D9000882339F00E94295CAB01BC01C8010E9444
:104DA0001A570F5F1F4F0330110569F70E94725A9F
:104DB0000E9425790C94DD1484918F010F5F1F4FA1
:104DC000882321F00E941B4EF801F6CF83E50E9454
:104DD000EB44882321F00E941A5C80937D02EBE370
:104DE000F5E084918F010F5F1F4F882321F00E940F
:104DF0001B4EF801F6CF80917D02882319F0E3E382
:104E0000F5E002C0E7E3F5E084918F010F5F1F4FEB
:104E1000811103C0EBE2F5E004C00E941B4EF801D3
:104E2000F3CF84918F010F5F1F4F882321F00E94E1
:104E30001B4EF801F6CF4091CA125091CB126091EF
:104E4000CC127091CD1289E295E00E948643409188
:104E5000CE125091CF126091D0127091D11286E291
:104E600095E00E9486434091D2125091D3126091F6
:104E7000D4127091D51283E295E00E948643EBE153
:104E8000F5E084918F010F5F1F4F882321F00E946E
:104E90001B4EF801F6CF4091710250917202609161
:104EA00073027091740289E195E00E9486434091FB
:104EB000750250917602609177027091780286E1D6
:104EC00095E00E9486434091790250917A02609168
:104ED0007B0270917C0283E195E00E9486438AE028
:104EE0000E941B4E0C94DD1483E50E94605C8823B5
:104EF00011F40C94DD140E94F95B709352026093DC
:104F000051020C94DD148DED90E00E94075D81113B
:104F10000C94DD1483E50E94605C882311F40C94EA
:104F2000DD140091C50310E00E94F95B000F111F12
:104F3000F801E15BFD4F718360830C94DD1480E523
:104F40000E94EB44882311F40C94DD140E94F95B59
:104F5000F62EC62ED72E83E50E94605C882321F0B2
:104F60000E94F95B8B0102C00FEF1FEFC801019691
:104F7000039710F00C94DD14D7FE02C00C94DD14DE
:104F8000EBE4F5E08491F81611F40C94DD143196FD
:104F900025E0E337F207B1F7C9C383E50E94605CFF
:104FA000882319F00E94F95B02C064E071E079A3E4
:104FB00068A380E50E94605C882339F00E94F95B59
:104FC000693833E1730730F402C068EE73E07A8326
:104FD000698304C088E893E19A838983BE01605E97
:104FE0007F4FCE0101960E9479600C94DD1485E418
:104FF0000E94605C811110C080E50E94EB44882310
:1050000091F00E94295C6093E70C7093E80C809308
:10501000E90C9093EA0C07C00E94095C882361F3B5
:10502000EEE9F6E172C089E40E94EB44882381F046
:105030000E94295C2CEA35EC47E25EE30E9451EBCA
:105040006093EF0C7093F00C8093F10C9093F20C42
:1050500084E40E94EB44882381F00E94295C2CEABE
:1050600035EC47E25EE30E9423F06093EB0C709313
:10507000EC0C8093ED0C9093EE0CEEEBF4E284914B
:105080008F010F5F1F4F882321F00E941B4EF801F4
:10509000F6CF4091E70C5091E80C6091E90C7091CB
:1050A000EA0C8BE795E00E9486432CEA35EC47E258
:1050B0005EE36091EF0C7091F00C8091F10C909197
:1050C000F20C0E9423F0AB01BC0187E795E00E943F
:1050D00086432CEA35EC47E25EE36091EB0C70917D
:1050E000EC0C8091ED0C9091EE0C0E9451EBAB0119
:1050F000BC0183E795E00E9486438AE00E941B4E34
:105100000C94DD140E941B4EF80184918F010F5FF7
:105110001F4F8111F7CF02E113E0D8018D918D016E
:10512000882309F49ECA0E941B4EF7CF83E50E9494
:10513000EB44182F882371F00E94295C0E948BF0A9
:10514000709358026093570221E0672B09F020E02A
:105150002093020B80E50E94EB44882361F02091AC
:10516000570230915802232B11F00E941A5C809351
:10517000020B0C94DD1411110C94DD14EEEBF4E22F
:1051800084918F010F5F1F4F882321F00E941B4ED7
:10519000F801F6CF8091020B882319F06DE373E0DC
:1051A00002C063E073E084E995E00E94BC43609133
:1051B00057027091580283E895E00E94A343EFE7FD
:1051C000F5E084918F010F5F1F4F882311F40C9439
:1051D000DD140E941B4EF801F4CF0E9418750C9448
:1051E000DD140E94D7D30C94DD140E942C730C9410
:1051F000DD14ACA5BDA58D91BDA7ACA7882309F48E
:1052000088C0F5014080518062807380D1012D916A
:105210003D914D915C91F601608171818281938114
:105220000E9447EF20E030E040E05FE30E9451EB56
:105230009B01AC01C301B2010E946DF1181654F438
:10524000F80185919591A591B49188AB98AFACABDD
:10525000BCAF04C018AA18AE1CAA1CAED4012D9174
:105260003D914D915C91C301B2010E9446EF9B01BB
:10527000AC0168A978AD8CA99CAD0E9446EF2B01CA
:105280003C0120E030E040EA51EC0E946DF187FDE6
:105290000AC020E030E040EA51E4C301B2010E94BC
:1052A000ECEA18161CF4EEE9F6E109C0B301A2011C
:1052B000C7010E941A572DC00E941B4EF80184910D
:1052C0008F010F5F1F4F8111F7CFE5ECF5E084915F
:1052D0008F010F5F1F4F882321F00E941B4EF801A2
:1052E000F6CF61E087EB95E00E9436940E9430642F
:1052F00088E290E09A83898388EC90E099A388A360
:10530000BE016F5F7F4FCE0180960E9479600C9442
:10531000DD14BFEFEB1AFB0AE4E08E0E911CF4E003
:10532000AF0EB11C24E0C20ED11C34E0230E311CA0
:105330000C5F1F4F43E0E416F10409F05ACF0E94BE
:10534000725A0E94257960E087EA95E00E943694BF
:1053500083E992E099A388A304E610E01A83098305
:10536000BE01605E7F4FCE0101960E9479608AEB9C
:1053700092E099A388A31A830983BE01605E7F4FE0
:10538000CE0101960E9479600C94DD140E94933244
:105390000C94DD1401D40C94DD1483E50E94EB44DD
:1053A000882319F00E941A5C01C081E091E08927EE
:1053B0000E94F7460C94DD140E94D7D38BE40E9420
:1053C000605C882399F00E94295C6B017C0120E0DD
:1053D00030E0A9010E946DF187FD08C0C092780DF0
:1053E000D092790DE0927A0DF0927B0D82E50E94C9
:1053F000605C882361F00E94295C6B017C0120E0E5
:1054000030E0A9010E94ECEA87FF89C006C0C12CE8
:10541000D12C20E8E22E2FEBF22E84E40E94605C77
:10542000882329F00E94295C4B015C0106C0812C75
:10543000912C90E8A92E9FEBB92E87E50E94605C25
:10544000882329F00E94295C2B013C0106C0412CD5
:10545000512C80E8682E8FEB782E88E40E94605CE7
:10546000882339F00E94295C6CA77DA78EA79FA78F
:1054700008C080E090E0A0E8BFEB8CA79DA7AEA796
:10548000BFA720E030E0A901C501B4010E946DF181
:1054900087FD45C020E030E0A901C301B2010E94B0
:1054A0006DF187FD3CC020E030E0A9016CA57DA531
:1054B0008EA59FA50E946DF187FD31C020E030E0F0
:1054C000A901C501B4010E94ECEA882391F120E012
:1054D00030E040E05FE3C501B4010E9451EB6B0195
:1054E0007C012CA53DA54EA55FA5C301B2010E947C
:1054F00051EB4B015C01A7019601C701B6010E9467
:1055000051EB2BED3FE049E450E40E9451EB9B014D
:10551000AC01C501B4010E9423F06B017C0120E0C5
:1055200030E0A901C701B6010E946DF187FF04C0F8
:105530000BC0C12CD12C7601C0921A0DD0921B0D3C
:10554000E0921C0DF0921D0DEEEBF4E284918F01C0
:105550000F5F1F4F882321F00E941B4EF801F6CFEA
:105560004091780D5091790D60917A0D70917B0D7D
:105570008EEE95E00E948643E8EEF5E084918F017F
:105580000F5F1F4F882321F00E941B4EF801F6CFBA
:10559000C0901A0DD0901B0DE0901C0DF0901D0DC9
:1055A00020E030E0A901C701B6010E94ECEA8111B8
:1055B00053C8E3EEF5E084918F010F5F1F4F8823FE
:1055C00009F44FC80E941B4EF801F5CF0E941B4EF4
:1055D000F80184918F010F5F1F4F8111F7CFE9EF21
:1055E000F5E084918F010F5F1F4F882311F40C9415
:1055F000DD140E941B4EF801F4CF81E080937E02FF
:105600001092940A83E50E94EB44811104C00E9429
:10561000E8DC0C94DD140E941A5C81110C94DD14FA
:10562000F6CFF090CC03FF2029F1EEEBF4E2849169
:105630008F010F5F1F4F882321F00E941B4EF8013E
:10564000F6CF84E50E941B4E6F2D70E080E090E065
:105650004AE00E94224E80E20E941B4E02E113E0CB
:10566000D8018D918D01882311F40C9431230E946F
:105670001B4EF6CF1092C70AEEEBF4E284918F0135
:105680000F5F1F4F882321F00E941B4EF801F6CFB9
:105690006091C70A70E088E096E00E94A3438AE028
:1056A0000E941B4E0C94DD144091C2035091C30321
:1056B000452B39F4AF01415051095093C303409336
:1056C000C20340E050E00C946A1580E00E9447510C
:1056D0000C9492200E94D7D388E50E94EB44882343
:1056E00019F05F9A1092350B89E50E94EB448823EC
:1056F00019F08A9A1092360B8AE50E94EB448823AF
:1057000051F09FB7F894809108018160809308015F
:105710009FBF1092370B85E40E94EB44882311F45D
:105720000C94DD140E94BADB0C94DD140E94D7D3D4
:1057300060E08F2D0E9414980F3FBFEF1B0759F4B4
:105740008F2D0E94BE9731E020E0892B09F030E0D8
:10575000032F122F05C00130110571F401E010E094
:105760008F2D0E94BE978017910711F40C94DD14C1
:1057700080E00E944751F4CF00E010E0F1CFC15A21
:10578000DF4F0FB6F894DEBF0FBECDBFDF91CF91D4
:105790001F910F91FF90EF90DF90CF90BF90AF904F
:1057A0009F908F907F906F905F904F903F902F9041
:1057B0000895089580E090E00895AF92BF92CF924F
:1057C000DF92EF92FF920F931F93CF93DF931F927D
:1057D000CDB7DEB77C016B018A0159018091CF03FF
:1057E000811118C0F701808191810E94C5EE8983E3
:1057F000F60181936F01BE016F5F7F4FC5010E946B
:10580000AD60F70180819181019691838083015081
:10581000110941F70F90DF91CF911F910F91FF90E8
:10582000EF90DF90CF90BF90AF9008957F928F92CE
:105830009F92AF92BF92CF92DF92EF92FF920F931F
:105840001F93CF93DF931F92CDB7DEB7E091CF03C5
:10585000E11149C059017C018B016B01C40ED51EB9
:105860000C151D0509F43FC0F70180809180F801F7
:1058700071908F017982C4010E94C5EE781631F1D2
:10588000672DC4010E94EEEEC4010E94C5EE99810D
:105890008917E1F0EEEBF4E284918F010F5F1F4F67
:1058A000882321F00E941B4EF801F6CFEDE2F6E0CE
:1058B00084918F010F5F1F4F882321F00E941B4EA0
:1058C000F801F6CF81E08093CF030DC0BE016F5F7A
:1058D0007F4FC5010E94AD60F701808191810196E3
:1058E00091838083BDCF0F90DF91CF911F910F9156
:1058F000FF90EF90DF90CF90BF90AF909F908F90F0
:105900007F9008950E94F8D50E944ED70E945AD9E0
:1059100080E090E00E94C45681E090E00E94C4566E
:1059200082E090E00E94C4566091DC0A7091DD0A2A
:105930008091DE0A9091DF0A0C94615BCF93DF9334
:105940002FE533E1C3E3DDE0A3E4BDE080E090E0D8
:10595000FC01E25CF84F4591559165917491F90114
:1059600041935193619371939F01FC01E25DF84F64
:1059700045915591659174914993599369937993A0
:10598000FC01E25EF84F45915591659174914D93FC
:105990005D936D937D93049680319105C9F680E007
:1059A00090E0AAEFB3E480935B0D90935C0DA0931D
:1059B0005D0DB0935E0D40E050E86BE375E44093FD
:1059C000570D5093580D6093590D70935A0D809355
:1059D000530D9093540DA093550DB093560D109206
:1059E0002F0D1092300D1092310D1092320D80E279
:1059F0009EE4A0E0B0E080931E0D90931F0DA09355
:105A0000200DB093210D10922B0D10922C0D1092A1
:105A10002D0D10922E0D80E090E0A0EAB1E480936D
:105A20005F0D9093600DA093610DB093620D809314
:105A3000630D9093640DA093650DB093660D8DEC8E
:105A40009CECACECBEE38093670D9093680DA09343
:105A5000690DB0936A0D80E090E0A0EAB0E4809315
:105A60006B0D90936C0DA0936D0DB0936E0D109215
:105A7000DC0A1092DD0A1092DE0A1092DF0A8CE036
:105A8000E8E3FBE0DF011D928A95E9F70E94DB5B0A
:105A900084EB90E09093F70C8093F60C86EE90E008
:105AA0009093F90C8093F80C86E490E090930D09A4
:105AB00080930C098EE690E090930F0980930E0975
:105AC0001092FB0C1092FA0C1092FD0C1092FC0C30
:105AD0008AE999E9A1EBB1E48093E70C9093E80C93
