:100000000C9422190C9453190C9453190C945319F1
:100010000C9453190C9453190C9453190C945319B0
:100020000C9453190C9453190C9453190C945319A0
:100030000C9453190C9453190C9453190C94531990
:100040000C9453190C94B6880C9453190C945319AE
:100050000C9453190C9453190C94E8840C949F76C7
:100060000C9453190C94D44C0C94CA4C0C94531902
:100070000C9453190C9453190C9453190C94531950
:100080000C9453190C9453190C9453190C94531940
:100090000C9453190C9453190C9453190C94531930
:1000A0000C9453190C9453190C9453190C94531920
:1000B0000C9453190C9453190C9453190C94531910
:1000C0000C9453190C9453190C9453190C94531900
:1000D0000C9453190C9453190C9453190C945319F0
:1000E0000C945319084AD73B3BCE016E84BCBFFD2C
:1000F000C12F3D6C74319ABD56833DDA3D00C77FF8
:1001000011BED9E4BB4C3E916BAAAABE0000008090
:100110003F05A84CCDB2D44EB93836A9020C50B91F
:10012000918688083CA6AAAA2ABE000000803F004B
:100130004E414E494E495459494E46CDCCCC3D0ACC
:10014000D7233C17B7D13877CC2B329595E6241FAF
:10015000B14F0A000020410000C84200401C462068
:10016000BCBE4CCA1B0E5AAEC59D7400407A10F33B
:100170005A00A0724E18090010A5D4E80000E876D5
:1001800048170000E40B54020000CA9A3B0000002C
:10019000E1F505000080969800000040420F000045
:1001A00000A08601000000102700000000E8030006
:1001B0000000006400000000000A000000000001D0
:1001C00000000000002C76D888DC674F0823DFC1D0
:1001D000DFAE59E1B1B796E5E3E453C63AE651998B
:1001E0007696E8E6C28426EB898C9B62ED407C6FB4
:1001F000FCEFBC9C9F40F2BAA56FA5F490055A2A6B
:10020000F75C936B6CF9676DC11BFCE0E40D47FE76
:10021000F520E6B500D0ED902E030094357705006B
:1002200080841E080000204E0A000000C80C3333F2
:1002300033330F986E12831141EF8D2114893BE601
:100240005516CFFEE6DB18D1844B381BF77C1D908A
:100250001DA4BBE424203284725E228100C9F124F3
:10026000ECA1E53D27554E4C4F41442046494C41B9
:100270004D454E54004C4F41442046494C414D455C
:100280004E540046494C414D454E54204348414E42
:100290004745006563686F3A004572726F723A00B5
:1002A000486F74656E6420746F6F20636F6C640AAE
:1002B000000A0A426564204C6576656C20436F72C3
:1002C00072656374696F6E204D61747269783A006B
:1002D000332D706F696E742070726F62696E672063
:1002E000646F6E652E0A0069646C650A00206F6693
:1002F0002000706F696E7420004D616E75616C2016
:1003000047323920004D616E75616C2047323920CB
:1003100061626F727465640A002028445259525514
:100320004E2900473239204175746F2042656420A0
:100330004C6576656C696E67003F28562965726268
:100340006F7365206C6576656C20696D706C617586
:100350007369626C652028302D34292E0A004D36D1
:1003600030303A20546F6F20436F6C6400486F74D4
:10037000656E6420746F6F20636F6C640A00496E51
:10038000736572742066696C616D656E7420616E50
:100390006420707265737320627574746F6E0A00E6
:1003A000507265737320627574746F6E20746F2061
:1003B00068656174206E6F7A7A6C650A00496E73A5
:1003C0006572742066696C616D656E7420616E641F
:1003D00020707265737320627574746F6E0A0020EA
:1003E000496E76616C6964206578747275646572B3
:1003F0002000220A00656E7175657565696E67205B
:1004000022006F6B00526573656E643A2000436191
:10041000703A0023646566696E652044454641551F
:100420004C545F004B6420004B6920004B7020004F
:10043000504944204175746F74756E652066696E0D
:100440006973686564212050757420746865206C38
:10045000617374204B702C204B6920616E64204BBB
:100460006420636F6E7374616E74732066726F6D57
:100470002062656C6F7720696E746F20436F6E66C3
:10048000696775726174696F6E2E680A005049441D
:10049000204175746F74756E65206661696C656462
:1004A000212074696D656F75740A005049442041BC
:1004B00075746F74756E65206661696C6564212062
:1004C00054656D706572617475726520746F6F200C
:1004D000686967680A00204B643A2000204B693A3B
:1004E0002000204B703A20000A20436C617373692E
:1004F0006320504944200A002054753A2000204BC4
:10050000753A2000206D61783A2000206D696E3ABE
:10051000200020643A200020626961733A20005074
:100520004944204175746F74756E652073746172EF
:10053000740A00504944204175746F74756E6520CB
:100540006661696C6564212054656D7065726174C3
:1005500075726520746F6F20686967680A0050497A
:1005600044204175746F74756E65206661696C65B1
:10057000642120426164206578747275646572201C
:100580006E756D6265720A004572726F72207772C5
:100590006974696E6720746F20454550524F4D2134
:1005A0000A002568753A25303268750025303268B2
:1005B000753A2530326875002D2D2D0053440020EA
:1005C0002020202020200020202020004D6564696C
:1005D000612052656D6F766564004D6564696120C8
:1005E000496E736572746564005072696E7420415F
:1005F000626F72746564004D3235005061757365C9
:10060000205072696E7400A10000006900A2000011
:10061000006300B00000000900C10000004100C2FA
:100620000000004100C30000004100C40000004180
:1006300000C50000004100C60000004145C70000A1
:10064000004300C80000004500C90000004500CD7F
:100650000000004900D10000004E00D50000004F0E
:1006600000D60000004F00D70000007800DC00003A
:10067000005500DD0000005900E00000006100E1CD
:100680000000006100E20000006100E30000006182
:1006900000E40000006100E50000006100E60000E9
:1006A000006165E70000006300E80000006500E904
:1006B0000000006500EA0000006500EB0000006536
:1006C00000EC0000006900ED0000006900EE000091
:1006D000006900EF0000006900F10000006E00F208
:1006E0000000006F00F30000006F00F40000006FD6
:1006F00000F50000006F00F60000006F00F8000039
:10070000006F00F90000007500FA0000007500FBA2
:100710000000007500FC0000007500FD000000797D
:1007200000FF000000790004010000410005010005
:100730000061000601000043000701000063000C97
:1007400001000043000D01000063000E01000044A1
:10075000000F010000640011010000640019010095
:100760000065001F010000670030010000490031F2
:100770000100006900410100004C00420100006CD2
:1007800000430100004E00440100006E00480100DB
:10079000006E005901000072005A01000053005B16
:1007A00001000073005F010000730060010000534E
:1007B000006101000073006501000074006F01001A
:1007C0000075007C0100007A007D0100005A007E67
:1007D0000100007A00920100006600E30200007848
:1007E00000222000002E001E21000050782221004F
:1007F00000544D902100003C2D922100002D3EB070
:100800002100000300BB21000004003C2200007E08
:1008100000482200007E3D60220000213D61220050
:10082000003D00642200003C3D652200003E3DF199
:100830002300000700A03000003D0021F30100026A
:1008400000C2F401000500A2000000EC00B00000AE
:1008500000DF00E4000000E100F6000000EF00F718
:10086000000000FD00FC000000F500E3020000EBCA
:100870000087030000A5008F030000F40098030028
:1008800000F2009E030000E300A3030000F600A9AD
:10089000030000F400AC030000E000AD030000E33F
:1008A00000B1030000E000B2030000E200B5030065
:1008B00000E300B8030000F200BC030000E400BE47
:1008C000030000E300C0030000F700C1030000E6DE
:1008D00000C3030000E500902100007F009221008A
:1008E000007E001A220000E8001E220000F30088AB
:1008F000250000FF0002300000A1000C300000A223
:10090000000D300000A3009B300000DE009C300092
:1009100000DF00A03000003D00A1300000A700A2D1
:10092000300000B100A3300000A800A4300000B2E5
:1009300000A5300000A900A6300000B300A73000D9
:1009400000AA00A8300000B400A9300000AB00AA43
:10095000300000B500AB300000B600AC300000B68F
:10096000DEAD300000B700AE300000B7DEAF3000C3
:1009700000B800B0300000B8DEB1300000B900B2FD
:10098000300000B9DEB3300000BA00B4300000BA65
:10099000DEB5300000BB00B6300000BBDEB7300073
:1009A00000BC00B8300000BCDEB9300000BD00BAA9
:1009B000300000BDDEBB300000BE00BC300000BE19
:1009C000DEBD300000BF00BE300000BFDEBF300023
:1009D00000C000C0300000C0DEC1300000C100C255
:1009E000300000C1DEC3300000AF00C4300000C2E0
:1009F00000C5300000C2DEC6300000C300C73000B2
:100A000000C3DEC8300000C400C9300000C4DECA24
:100A1000300000C500CB300000C600CC300000C75D
:100A200000CD300000C800CE300000C900CF30003B
:100A300000CA00D0300000CADED1300000CADFD2C8
:100A4000300000CB00D3300000CBDED4300000CB30
:100A5000DFD5300000CC00D6300000CCDED730002F
:100A600000CCDFD8300000CD00D9300000CDDEDA78
:100A7000300000CDDFDB300000CE00DC300000CEE7
:100A8000DEDD300000CEDFDE300000CF00DF3000E2
:100A900000D000E0300000D100E1300000D200E2E0
:100AA000300000D300E3300000AC00E4300000D49C
:100AB00000E5300000AD00E6300000D500E7300072
:100AC00000AE00E8300000D600E9300000D700EAB0
:100AD000300000D800EB300000D900EC300000DA24
:100AE00000ED300000DB00EF300000DC00F23000F1
:100AF00000A600F3300000DD00F4300000B3DEF7A4
:100B0000300000DCDEFA300000A6DEFB300000A57D
:100B100000FC300000B000FD300000A400074E00D3
:100B200000FB0086510000FC0043530000FA006403
:100B3000FF0000A40065FF0000A50066FF0000A6FE
:100B40000067FF0000A70068FF0000A80069FF0021
:100B500000A9006AFF0000AA006BFF0000AB006C58
:100B6000FF0000AC006DFF0000AD006EFF0000AEA6
:100B7000006FFF0000AF0070FF0000B00071FF00C9
:100B800000B10072FF0000B20073FF0000B30074F8
:100B9000FF0000B40075FF0000B50076FF0000B64E
:100BA0000077FF0000B70078FF0000B80079FF0071
:100BB00000B9007AFF0000BA007BFF0000BB007C98
:100BC000FF0000BC007DFF0000BD007EFF0000BEF6
:100BD000007FFF0000BF0080FF0000C00081FF0019
:100BE00000C10082FF0000C20083FF0000C3008438
:100BF000FF0000C40085FF0000C50086FF0000C69E
:100C00000087FF0000C70088FF0000C80089FF00C0
:100C100000C9008AFF0000CA008BFF0000CB008CD7
:100C2000FF0000CC008DFF0000CD008EFF0000CE45
:100C3000008FFF0000CF0090FF0000D00091FF0068
:100C400000D10092FF0000D20093FF0000D3009477
:100C5000FF0000D40095FF0000D50096FF0000D6ED
:100C60000097FF0000D70098FF0000D80099FF0010
:100C700000D9009AFF0000DA009BFF0000DB009C17
:100C8000FF0000DC009DFF0000DD009EFF0000DE95
:100C9000009FFF0000DF00E5FF00005C0000000097
:100CA00000010204040000001C1C0C0404040201E6
:100CB000000000000004081000000000002D2D2D91
:100CC0002D2D2D007C4D61726C696E7C002D2D2DBB
:100CD0002D2D2D00001C1F11111F000000061918DA
:100CE00003130C00040E1F041C000000000E13155B
:100CF000110E00001C10181705060500040A0A0A48
:100D00000A11110E0C12120C00000000001F151128
:100D1000151F00004C6F6164206D6D00556E6C6F87
:100D20006164206D6D0046696C2E204469612E005F
:100D30004520696E206D6DC2B300416476616E63BB
:100D400065204B004D333033205531204525692037
:100D500053256900504944204175746F74756E6560
:100D6000202A0020022046616374002002204D6189
:100D700078002002204D696E004F6666004F6E00BD
:100D80004175746F74656D70005654726176204DB4
:100D9000696E00566D696E00566D6178204500568B
:100DA0006D6178205A00566D6178205900566D614A
:100DB00078205800416D6178204500416D617820B0
:100DC0005A00416D6178205900416D6178205800CA
:100DD000412D54726176656C00412D5265747261CB
:100DE000637400416363656C004A756E6374696F78
:100DF0006E20446576004573746570732F6D6D00C9
:100E00005A73746570732F6D6D00597374657073C8
:100E10002F6D6D005873746570732F6D6D00416494
:100E200076616E6365642053657474696E677300E0
:100E30003F0043616E63656C00496E6974004D3418
:100E4000323800496E697469616C697A652045457C
:100E500050524F4D0046696C616D656E740054656B
:100E60006D70657261747572650053746570732F6F
:100E70006D6D004A65726B00416363656C657261FC
:100E800074696F6E0056656C6F63697479005365A1
:100E90007420486F6D65204F6666736574730043F8
:100EA0006F6E66696775726174696F6E004C657606
:100EB000656C696E6720446F6E6521004D6F7665C5
:100EC000205A00473239205631004E657874205040
:100ED0006F696E74002569202F202575004732390F
:100EE00020563100436C69636B20746F2042656744
:100EF000696E00486F6D696E672058595A005374C7
:100F00006F72652053657474696E6773004C6F610E
:100F1000642053657474696E6773004F6666004F92
:100F20006E00426564204C6576656C696E67004CA6
:100F30006576656C20426564004D6F74696F6E0064
:100F40004E6F7A7A6C650046616E205370656564F9
:100F500000436F6E66696775726174696F6E004CED
:100F60006F61642053657474696E677300526573B2
:100F7000746F72652044656661756C747300537498
:100F80006F72652053657474696E67730050726583
:100F9000686561742041425320436F6E6600507251
:100FA000656865617420504C4120436F6E66004156
:100FB0006476616E6365642053657474696E6773EB
:100FC000004D61696E004D37303220542564004D6C
:100FD00036303020423020542564004D37303220E6
:100FE0003B2564004D373031205425640050757224
:100FF0006765206D6F726500436F6E74696E75650D
:1010000000524553554D45204F5054494F4E533A89
:10101000005052494E542050415553454400202021
:101020004E6F7A7A6C653A20005061726B696E6718
:101030002E2E2E0000005761697420666F720066C4
:10104000696C616D656E74206368616E67650074BC
:101050006F207374617274005761697420666F72D7
:101060000066696C616D656E7420756E6C6F61648D
:1010700000004E6F7A7A6C652068656174696E67EE
:1010800000506C6561736520776169742E2E2E00A7
:1010900000507265737320627574746F6E00746FA4
:1010A0002068656174206E6F7A7A6C650000496E05
:1010B000736572742066696C616D656E7400616E33
:1010C0006420707265737320627574746F6E00743F
:1010D0006F20636F6E74696E756500576169742067
:1010E000666F720066696C616D656E74206C6F610D
:1010F000640000507265737320427574746F6E00E3
:10110000746F20726573756D65207072696E7400FE
:10111000005761697420666F72207072696E740086
:10112000746F20726573756D652E2E2E00005761E9
:10113000697420666F720066696C616D656E7420FB
:101140007075726765000052756E6177617920571E
:10115000617463683A204F4E004D61782054656D8C
:101160007000323735003A20004D696E2054656DAD
:10117000700035003A200045313A204550434F5326
:10118000203130304B005053550047656E65726911
:1011900063003A200050726F746F636F6C00312EE1
:1011A00030003A2000426175640031313532303010
:1011B000003A200052414D505320312E3400332D3F
:1011C000506F696E74204C6576656C696E6700457A
:1011D00078747275646572730031003A2000687427
:1011E00074703A2F2F6D61726C696E66772E6F7214
:1011F0006700524631303000323032302D30322DDF
:10120000323700322E302E342E34004D61726C692C
:101210006E00546865726D6973746F727300426F0B
:1012200061726420496E666F005072696E746572F7
:1012300020496E666F004D61696E003F0042616338
:101240006B0053746F70004368616E676520466978
:101250006C616D656E7400507265686561742041E3
:101260004253005072656865617420504C410050D3
:1012700072656865617420437573746F6D004261B7
:10128000636B005072696E742066726F6D204D65DD
:10129000646961004D3231004368616E6765204DBD
:1012A000656469610041626F7574205072696E7483
:1012B0006572004D363030204230004368616E6701
:1012C000652046696C616D656E7400436F6E66697A
:1012D0006775726174696F6E0054656D70657261D7
:1012E00074757265004D6F74696F6E005265737529
:1012F0006D65205072696E74004E6F204D65646993
:10130000610054756E650053746F70205072696E81
:1013100074005061757365205072696E7400496E77
:10132000666F2053637265656E003F00537461728F
:1013300074205072696E740043616E63656C005076
:1013400072696E740043616E6E6F7420656E7465B1
:1013500072207375626469723A2000052E2E004D6A
:1013600061696E004D6F74696F6E004D38340044D2
:10137000697361626C652053746570706572730087
:10138000426564204C6576656C696E67004732384B
:10139000004175746F20486F6D65004D61696E0086
:1013A000436F6F6C646F776E00507265686561742F
:1013B00020414253005072656865617420504C4171
:1013C000004E6F7A7A6C65004D61696E00416476FB
:1013D000616E6365204B00466C6F77004E6F7A7AC2
:1013E0006C65005370656564004D61696E00363749
:1013F00026033C3D380F2E303E121A1C1808440AB2
:1014000009430001627573793A20706175736564F0
:1014100020666F7220696E7075740A006275737948
:101420003A2070617573656420666F72207573650C
:10143000720A00627573793A2070726F6365737314
:10144000696E670A0053544F505045442E20005097
:1014500072696E7465722073746F70706564206455
:10146000756520746F206572726F72732E204669E5
:101470007820746865206572726F7220616E6420D6
:10148000757365204D39393920746F207265737416
:101490006172742E202854656D7065726174757266
:1014A000652069732072657365742E2053657420FE
:1014B00069742061667465722072657374617274F8
:1014C000696E67290A004E6F20436865636B737508
:1014D0006D2077697468206C696E65206E756D6229
:1014E00065722C204C617374204C696E653A200043
:1014F0004E6F20436865636B73756D207769746800
:10150000206C696E65206E756D6265722C204C6171
:101510007374204C696E653A2000636865636B7371
:10152000756D206D69736D617463682C204C6173F7
:1015300074204C696E653A20004C696E65204E75CA
:101540006D626572206973206E6F74204C617374D4
:10155000204C696E65204E756D6265722B312C20B2
:101560004C617374204C696E653A20004D31313006
:101570000053442072656164206572726F720A00C4
:101580002121204B494C4C206361757365642062B6
:1015900079204B494C4C20627574746F6E2F7069C2
:1015A0006E0A002121204B494C4C20636175736504
:1015B0006420627920746F6F206D75636820696E96
:1015C0006163746976652074696D65202D2063758B
:1015D0007272656E7420636F6D6D616E643A200087
:1015E000506C656173652052657365740050524993
:1015F0004E5445522048414C5445440025533A200E
:101600002553004B494C4C45442E20005072696EC6
:101610007465722068616C7465642E206B696C6CF3
:1016200028292063616C6C6564210A000000F04287
:101630000000F0420000F042000000000000000046
:1016400000000000290A002062797465733B206362
:101650007263200053657474696E67732053746FEE
:10166000726564202800454550524F4D20646174D6
:101670006173697A65206572726F722E0A00290A99
:10168000002062797465733B2063726320002073CD
:10169000746F7265642073657474696E6773207209
:1016A00065747269657665642028004572723A2017
:1016B000454550524F4D2043524300202863616CF2
:1016C00063756C6174656429210A0020213D200046
:1016D000454550524F4D20435243206D69736D6113
:1016E000746368202D202873746F7265642920004C
:1016F0004572723A20454550524F4D20496E6465FF
:1017000078002053697A653A2000496E6465783A1A
:1017100020004572723A20454550524F4D20566583
:101720007273696F6E00204D61726C696E3D563741
:1017300036290A00454550524F4D2076657273692F
:101740006F6E206D69736D61746368202845455024
:10175000524F4D3D0048617264636F64656420447C
:10176000656661756C742053657474696E67732067
:101770004C6F616465640A00000096430000964364
:101780000000A0410000C841D7A39D42D7A39D42BD
:10179000000048440000E842F4010000F4010000A9
:1017A00064000000102700003B200020204D363050
:1017B0003320002055004C0046696C616D656E74E5
:1017C000206C6F61642F756E6C6F6164206C656E48
:1017D000677468733A0020204D393030204B004C3C
:1017E000696E65617220416476616E63653A0020BE
:1017F000440020490020204D333031205000504912
:10180000442073657474696E67733A002046002043
:10181000420020480020204D3134352053004D61D6
:1018200074657269616C206865617475702070619F
:1018300072616D65746572733A0020204D343230E8
:101840002053004175746F20426564204C657665B5
:101850006C696E673A0020204D32303620580048BF
:101860006F6D65206F66667365743A00204A0020CC
:10187000530020204D323035204200416476616EA5
:101880006365643A20423C6D696E5F7365676D65A0
:101890006E745F74696D655F75733E20533C6D694E
:1018A0006E5F66656564726174653E20543C6D6967
:1018B0006E5F74726176656C5F6665656472617493
:1018C000653E204A3C6A756E635F6465763E002023
:1018D000520020204D323034205000416363656C4B
:1018E00065726174696F6E2028756E6974732F73E9
:1018F00032293A20503C7072696E745F616363658F
:101900006C3E20523C726574726163745F61636304
:10191000656C3E20543C74726176656C5F616363F4
:10192000656C3E0020204D3230312058004D6178EA
:10193000696D756D20416363656C65726174696F73
:101940006E2028756E6974732F7332293A00202037
:101950004D3230332058004D6178696D756D2066C9
:1019600065656472617465732028756E6974732F80
:1019700073293A0053746570732070657220756E18
:1019800069743A0020204D3230302044300A002063
:10199000204D3230302044002044697361626C6510
:1019A000640A0046696C616D656E742073657474B9
:1019B000696E67733A0020204D3134392043203B53
:1019C00020556E69747320696E2043656C73697568
:1019D000730A0020286D6D29002020473231202015
:1019E00020203B20556E69747320696E206D6D0058
:1019F0006F70656E00545249474745524544003A5E
:101A000020007A5F6D696E00795F6D617800785FA4
:101A10006D696E005265706F7274696E6720656ED5
:101A20006473746F70207374617475730A00205A44
:101A30003A0020593A0020436F756E7420583A00DE
:101A400020453A00205A3A0020593A00583A0048B6
:101A50006F6D696E67204661696C656400000048BF
:101A60004200004842000080405761726E696E6714
:101A70003A20486F6D696E672042756D7020446929
:101A80007669736F72203C20310A00020204000064
:101A9000A0400000A040000000400000F042000014
:101AA000F0420000F04200000001000000010000D0
:101AB0008000555555000000400033333300AAAA7A
:101AC0002A004992240000002000C7711C00999947
:101AD0001900D1451700555515003BB11300244995
:101AE000120011111100000010000F0F0F00E33859
:101AF0000E0043790D00CCCC0C00C3300C00E8A2E2
:101B00000B0064210B00AAAA0A00703D0A009DD8B0
:101B10000900427B090092240900DCD30800888870
:101B200008001042080000000800F0C10700878785
:101B3000070075500700711C07003EEB0600A1BCB2
:101B400006006990060066660600703E0600611891
:101B5000060017F4050074D105005BB00500B290D3
:101B60000500627205005555050078390500B81E5C
:101B70000500050505004EEC040087D40400A1BD56
:101B8000040090A7040049920400C17D0400EE699E
:101B90000400C7560400444404005C3204000821D9
:101BA000040041100400000004003FF00300F8E0CE
:101BB000030026D20300C3C30300CCB503003AA838
:101BC00003000A9B0300388E0300C08103009F7549
:101BD0000300D0690300505E03001D530300344826
:101BE0000300913D03003333030016290300381F1F
:101BF000030097150300300C0300030303000BFAE6
:101C0000020049F10200BAE802005CE002002DD8AF
:101C100002002DD0020059C80200B0C0020031B944
:101C20000200DAB10200AAAA0200A0A30200BC9C32
:101C30000200FA9502005C8F0200DF8802008282B7
:101C40000200457C02002776020027700200436AEA
:101C500002007C640200D05E02003F590200C853BB
:101C60000200FFFDFCFAF8F6F4F2F0EEECEAE9E728
:101C7000E5E3E1E0DEDCDAD9D7D5D4D2D0CFCDCBE5
:101C8000CAC8C7C5C3C2C0BFBDBCBAB9B7B6B4B372
:101C9000B2B0AFADACAAA9A8A6A5A4A2A1A09E9DD2
:101CA0009C9A99989795949392908F8E8D8B8A8910
:101CB00088878684838281807F7E7D7B7A7978772E
:101CC000767574737271706F6E6D6C6B6A6968672C
:101CD000666564636261605F5E5D5C5B5A5958581B
:101CE0005756555453525150504F4E4D4C4B4A4AF3
:101CF0004948474646454443424241403F3E3E3DB7
:101D00003C3B3B3A3938383736353534333232316B
:101D100030302F2E2E2D2C2B2B2A29292827272611
:101D2000252524232322212120201F1E1E1D1C1CAB
:101D30001B1B1A1919181817161615151413131238
:101D4000121111100F0F0E0E0D0D0C0C0B0A0A09BB
:101D50000908080707060605050404030302020133
:101D6000000024F4D43050C38E20C2A24017828BCE
:101D70007011127A910D816CD90AA861E108C758D7
:101D80006607615143061E4B5D05C145A7041A4114
:101D90001104093D9803713931034036DB02653384
:101DA0009102D4305402802E1D02632CEE01752A5C
:101DB000C501B028A001102781018F2564012B24C3
:101DC0004B01E0223401AC211F018D200D01801F49
:101DD000FC00841EED00971DDF00B81CD200E61B3E
:101DE000C600201BBC00641AB200B219A8000A1970
:101DF000A0006A189900D117910040178B00B51602
:101E0000840031167E00B31579003A157300C714AB
:101E10006F0058146A00EE136600881363002513E0
:101E20005E00C7125B006C12570015125400C111FE
:101E3000510070114F0021114B00D61049008D1038
:101E400047004610440002104200C00F4000800FBF
:101E50003E00420F3C00060F3B00CB0E3800930EB5
:101E600037005C0E3500270E3400F30D3200C10D33
:101E70003100900D3000600D2E00320D2D00050D4B
:101E80002C00D90C2B00AE0C2900850C29005C0C11
:101E90002700350C27000E0C2600E80B2400C40B8D
:101EA0002400A00B23007D0B23005A0B2100390BCB
:101EB0002100180B2000F80A1F00D90A1E00BB0AD7
:101EC0001E009D0A1D00800A1D00630A1C00470AAF
:101ED0001B002C0A1B00110A1A00F7091A00DD0961
:101EE0001900C4091900AB091900920917007B09F0
:101EF0001800630917004C0916003609160020095E
:101F000016000A091500F5081500E0081400CC08B1
:101F10001400B8081400A4081400900813007D08E9
:101F200012006B081300580812004608120034080B
:101F30001100230811001208110001081100F00718
:101F40001000E0071000D0071000C0071000B00715
:101F50000F00A107100091070E0083070F00740700
:101F60000F0065070E0057070E0049070E003B07DC
:101F70000D002E070E0020070D0013070D000607A9
:101F80000D00F9060C00ED060D00E0060C00D4066D
:101F90000C00C8060C00BC060C00B0060C00A40621
:101FA0000B0099060C008D060B0082060B007706CD
:101FB0000B006C060B0061060A0057060B004C066E
:101FC0000A0042060A0038060A002E060A00240605
:101FD0000A001A060A001006090007060A00FD0595
:101FE0000900F4050900EB050900E2050900D9051F
:101FF0000900D0050900C7050900BE050900B5059F
:102000000800AD050800A50509009C050800940519
:1020100008008C050800840508007C05080074058C
:1020200008006C050700650508005D0507005605FA
:1020300008004E0507004705070040050800380561
:102040000700310507002A050700230507001C05C6
:102050000600160507000F05070008050600020523
:102060000700FB040600F5040700EE040600E80480
:102070000600E2040700DB040600D5040600CF04D6
:102080000600C9040600C3040600BD040600B70428
:102090000600B1040500AC040600A6040600A00476
:1020A00005009B04060095040500900406008A04C0
:1020B000050085040500800406007A040500750407
:1020C0000500700405006B0405006604050061044A
:1020D00005005C04050057040500520405004D048A
:1020E000050048040500430405003E0404003A04CA
:1020F000050035040500300404002C040500270405
:102100000400230405001E0404001A04040016043D
:102110000500110404000D04040009040500040472
:10212000040000040400FC030400F8030400F403AA
:102130000400F0030400EC030400E8030400E403DB
:102140000400E0030400DC030400D8030400D4030B
:102150000400D0030400CC030400C8030300C5033B
:10216000030024F404D9201BC40C5C0E9804C40999
:102170005F0265077101F405F900FB04B300480430
:102180008700C10369005803550003034500BE02E0
:102190003A008402310053022A0029022500040279
:1021A0002000E4011C00C8011900AF0117009801CC
:1021B000140084011300710110006101100051012D
:1021C0000E0043010D0036010B002B010B00200116
:1021D0000B00150109000C01090003010800FB00B8
:1021E0000800F3000800EB000700E4000600DE0032
:1021F0000600D8000600D2000600CC000500C7008B
:102200000500C2000500BD000400B9000400B500CF
:102210000400B1000400AD000400A9000400A50002
:102220000300A20003009F0004009B00030098002D
:1022300003009500020093000300900003008D004E
:1022400002008B0003008800020086000200840068
:102250000300810002007F0002007D0002007B007D
:10226000020079000200770001007600020074008D
:10227000020072000100710002006F0002006D0098
:1022800001006C0002006A000100690002006700A2
:1022900001006600010065000100640002006200A8
:1022A000010061000100600001005F0002005D00AC
:1022B00001005C0001005B0001005A0001005900B0
:1022C00001005800010057000100560001005500B0
:1022D00001005400010053000000530001005200AF
:1022E000010051000100500001004F0001004E00AC
:1022F00000004E0001004D0001004C0001004B00A9
:1023000000004B0001004A000100490001004800A4
:1023100000004800010047000100460000004600A0
:102320000100450000004500010044000100430099
:102330000000430001004200000042000100410093
:10234000000041000100400001003F0000003F008C
:1023500001003E0000003E0001003D0000003D0085
:1023600001003C0000003C0000003C0001003B007C
:1023700000003B0001003A0000003A000100390073
:10238000000039000100380000003800000038006B
:102390000100370000003700010036000000360061
:1023A0000000360001003500000035000000350057
:1023B000010034000000340000003400010033004C
:1023C0000000330000003300010032000000320042
:1023D0000000320001003100000031000000310037
:1023E00001003000000030000000300001002F002C
:1023F00000002F0000002F0000002F0001002E0021
:1024000000002E0000002E0001002D0000002D0015
:1024100000002D0000002D0001002C0000002C0009
:1024200000002C0000002C0001002B0000002B00FD
:1024300000002B0000002B0001002A0000002A00F1
:1024400000002A0000002A000100290000002900E5
:1024500000002900000029000000290001002800D8
:1024600000002800000028000000280000002800CC
:1024700001002700000027000000270000002700BF
:1024800000002700010026000000260000002600B2
:1024900000002600000026000100250000002500A5
:1024A0000000250000002500000025000000250098
:1024B000010024000000240000002400000024008B
:1024C000000024000100230000002300000023007E
:1024D0000000230000002300000023000000230070
:1024E0000100220000002200000022000000220063
:1024F0000000220000002200010021000000210055
:102500000000210000002100000021000000210047
:102510000000210001002000000020000000200039
:10252000000020000000200000002000000020002B
:102530000000200001001F0000001F0000001F001D
:1025400000001F0000001F0000001F0000001F000F
:1025500001001E0000001E0000001E0000001E0002
:102560000000232C0000B8220000561800003A0F8B
:102570000000B8080000B1040000710200003E0134
:1025800000000048656174696E67204661696C658A
:10259000640048656174696E67206661696C656492
:1025A00000544845524D414C2052554E41574159D7
:1025B00000546865726D616C2052756E6177617947
:1025C000004572723A204D415854454D50004D41DE
:1025D0005854454D50207472696767657265640090
:1025E0004572723A204D494E54454D50004D494E6A
:1025F00054454D5020747269676765726564004D7B
:10260000383420582059205A204500202F002040DF
:102610003A0020573A0043616E6E6F74206F706508
:102620006E20737562646972200053442063617286
:1026300064206F6B0A006F70656E526F6F74206656
:1026400061696C65640A00766F6C756D652E696EE4
:102650006974206661696C65640A00534420696E80
:102660006974206661696C0A004D3234004D323362
:102670002025730046696C652073656C656374651D
:10268000640A002053697A653A200046696C652027
:102690006F70656E65643A2000454E442053554284
:1026A000524F5554494E450A002220706F73002244
:1026B00020706172656E743A2200535542524F5534
:1026C00054494E452043414C4C20746172676574F7
:1026D0003A2200747279696E6720746F2063616CAE
:1026E0006C207375622D67636F64652066696C6525
:1026F00073207769746820746F6F206D616E792024
:102700006C6576656C732E204D4158206C6576653E
:102710006C2069733A310A0057726974696E6720D8
:10272000746F2066696C653A20002E0A006F706530
:102730006E206661696C65642C2046696C653A2080
:1027400000667265736800646F696E670020666971
:102750006C653A20004E6F7720007C3C3E5E2B3D3E
:102760003F2F5B5D3B2C2A225C00000021002400EF
:1027700027002A002D003000330001010000040171
:1027800007010A0100002200250028002B002E006E
:102790003100340002010000050108010B010000B6
:1027A00020002300260029002C002F003200000109
:1027B00000000301060109010505050507050808D4
:1027C0000808020202020A0A0808040404040101BB
:1027D00001010101010103030303030303030407D0
:1027E00007070C0C0C0C0C0C0C0C02020202060667
:1027F0000606060606060B0B0B0B0B0B0B0B01025A
:102800001020200808102040102040800201020102
:1028100008040201010204081020408080402010BA
:102820000804020180040201804020100804020113
:10283000080402010102040810204080010204087B
:102840001020408000000A0B02090C0D0E0807033F
:102850000401000000000000000000000000000073
:102860000000000000000000000000000000000068
:102870001211100000000000000000000000000025
:1028800000000000000000000000687474703A2F1F
:102890002F6D61726C696E66772E6F726700687457
:1028A00074703A2F2F6D61726C696E66772E6F723D
:1028B0006700687474703A2F2F6D61726C696E6670
:1028C000772E6F726700322E302E342E3400322E67
:1028D000302E342E3400322E302E342E34006874D4
:1028E00074703A2F2F6D61726C696E66772E6F72FD
:1028F0006700687474703A2F2F6D61726C696E6630
:10290000772E6F726700687474703A2F2F6D617242
:102910006C696E66772E6F72670020322E302E340F
:102920002E34002020506C616E6E657242756666B2
:10293000657242797465733A20002046726565209D
:102940004D656D6F72793A2000436F6D70696C65EB
:10295000643A2046656220323920323032300A0033
:10296000204C61737420557064617465643A203240
:102970003032302D30322D3237207C204175746852
:102980006F723A20286E6F6E652C206465666175E3
:102990006C7420636F6E666967290A00322E302ED0
:1029A000342E340A004D61726C696E0020536F66DC
:1029B00074776172652052657365740A00205761EF
:1029C000746368646F672052657365740A002042FF
:1029D000726F776E206F75742052657365740A008C
:1029E0002045787465726E616C2052657365740A57
:1029F00000506F77657255700A0073746172740AC3
:102A0000006175746F25632E67004732385859008E
:102A1000446F6E65207072696E74696E67206669B6
:102A20006C650A004D3331004D305131533138302F
:102A300030006572726F722077726974696E6720F8
:102A4000746F2066696C650A00446F6E652073615F
:102A500076696E672066696C652E0A004D32390012
:102A6000456E6473746F70730025532025632025B1
:102A70006320256320256300205A3A0020593A003C
:102A800020583A00656E6473746F707320686974BF
:102A90003A2000434F4D4D554E49434154494F4E06
:102AA0000044525952554E004552524F525300491C
:102AB0004E464F004543484F005072696E74205097
:102AC00061757365640070012C0190012701B001EC
:102AD0002201C0011D01F001180110021301300292
:102AE0000E016002090190020401C002FF00000310
:102AF000FA004003F5008003F000D003EB0020044F
:102B0000E6007004E100E004DC004005D700C005E9
:102B1000D2004006CD00D006C8008007C3003008B0
:102B2000BE00F008B900C009B400B00AAF00B00B95
:102B3000AA00D00CA500000EA000500F9B00C010F2
:102B400096005012910000148C00C0158700B01739
:102B50008200B0197D00D01B7800001E7300402059
:102B60006E0090226900F024640040275F009029E5
:102B70005A00E02B5500102E500020304B00103230
:102B80004600E033410090353C0010373700703884
:102B90003200A0392D00B03A2800A03B2300603C51
:102BA0001E00103D1900903D1400103E0F00703EB5
:102BB0000A00C03E0500003F0000403FFBFF803F91
:102BC000F6FFC03FF1FF4D6F76652025736D6D00F8
:102BD000004D6F766520302E316D6D004D6F76653E
:102BE00020316D6D004D6F76652031306D6D004D7B
:102BF0006F7665204178697300486F74656E642054
:102C0000746F6F20636F6C640045787472756465CF
:102C100072004D6F7665205A004D6F766520590021
:102C20004D6F76652058005072696E742066726F21
:102C30006D204D6564696100496E76616C69642040
:102C400065787472756465720A003F4B2076616C1A
:102C50007565206F7574206F662072616E676520E0
:102C600028302D3130292E0A00416476616E63656B
:102C7000204B3D00454550524F4D204F4B0A004FD1
:102C8000666673657473204170706C696564004595
:102C900072723A20546F6F206661722100546F6F18
:102CA000206661722066726F6D207265666572655E
:102CB0006E636520706F696E740A00FF01FF00008B
:102CC00000000000F04200000000426564204C65F6
:102CD00076656C696E6720004661696C6564207476
:102CE0006F20656E61626C6520426564204C65767C
:102CF000656C696E670A00426564204C6576656C98
:102D000020436F7272656374696F6E204D617472D7
:102D100069783A0064697300656E0043290A0061AE
:102D2000626C656420286D696E2074656D7020008A
:102D3000436F6C642065787472756465732061728A
:102D400065200020643A0020693A0020703A00496A
:102D50006E76616C69642065787472756465720A58
:102D60000020466C6F773A20004F4646004F4E00D9
:102D700020580020204D61783A2000200020204D6E
:102D8000696E3A2000536F667420656E6473746FC9
:102D900070733A20003F4A206F7574206F6620726E
:102DA000616E67652028302E303120746F20302E00
:102DB00033290A00205400205200416363656C658A
:102DC000726174696F6E3A2050004D313435205372
:102DD0003C696E6465783E206F7574206F66207262
:102DE000616E67652028302D31290A002F2F2000C1
:102DF0004348414D4245525F54454D504552415420
:102E0000555245004D4F54494F4E5F4D4F44455329
:102E100000544845524D414C5F50524F5445435425
:102E2000494F4E004155544F5245504F52545F53F5
:102E3000445F5354415455530050524F4D50545FCA
:102E4000535550504F525400454D455247454E43FF
:102E5000595F50415253455200434153455F4C49DD
:102E60004748545F4252494748544E4553530054D3
:102E70004F47474C455F4C494748545300534F46D2
:102E800054574152455F504F574552004255494CA7
:102E9000445F50455243454E54004C4556454C49BD
:102EA0004E475F44415441005A5F50524F424500E3
:102EB0004155544F4C4556454C005052494E545F75
:102EC0004A4F420050524F475245535300415554C8
:102ED0004F5245504F52545F54454D5000564F4C41
:102EE000554D455452494300454550524F4D0042BF
:102EF000494E4152595F46494C455F5452414E53E9
:102F00004645520053455249414C5F584F4E5F5819
:102F10004F4646004649524D574152455F4E414D3E
:102F2000453A4D61726C696E20322E302E342E344B
:102F300020284769744875622920534F55524345EC
:102F40005F434F44455F55524C3A68747470733A0E
:102F50002F2F6769746875622E636F6D2F4D6172D4
:102F60006C696E4669726D776172652F4D61726C26
:102F7000696E2050524F544F434F4C5F5645525349
:102F8000494F4E3A312E30204D414348494E455F1E
:102F9000545950453A5246313030204558545255D4
:102FA0004445525F434F554E543A3120555549449C
:102FB0003A63656465326132662D343161322D3495
:102FC0003734382D396231322D6335356336326608
:102FD00033363766660A005246313030204F464657
:102FE0002E004D3131332053004D313132205368A2
:102FF0007574646F776E006F666600B42AAF2AA896
:103000002AA12A932A44454255473A006F6B004350
:103010006F6F6C696E672E2E2E0048656174696E45
:10302000672E2E2E00452025530050726F74656365
:103030007465642050696E0A002569730025696D06
:1030400020256973002569682025696D202569732D
:1030500000256964202569682025696D202569732C
:103060000025697920256964202569682025696D16
:1030700020256973005072696E742074696D653A19
:1030800020002E0A0044656C6574696F6E206661CD
:10309000696C65642C2046696C653A200046696C51
:1030A000652064656C657465643A00286E6F2066FF
:1030B000696C65290043757272656E742066696C6F
:1030C000653A20005344207072696E74696E6720FF
:1030D0006279746520004E6F7420534420707269C9
:1030E0006E74696E670A00456E642066696C6520BF
:1030F0006C6973740A00426567696E2066696C6565
:10310000206C6973740A004E6F204D6F76652E0037
:10311000436C69636B20746F20526573756D652E07
:103120002E2E00536C6565702E2E2E0047322F47D1
:10313000332062616420706172616D6574657273C1
:103140000A0020746F6F206C6F6E67206578747250
:103150007573696F6E2070726576656E7465640A4A
:103160000020636F6C6420657874727573696F6E8C
:103170002070726576656E7465640A00220A0055D7
:103180006E6B6E6F776E20636F6D6D616E643A204B
:103190002200486F6D6520257325732573204669CD
:1031A0007273740020746F6F206C6F6E6720657887
:1031B00074727573696F6E2070726576656E746572
:1031C000640A0020636F6C6420657874727573699B
:1031D0006F6E2070726576656E7465640A002045B6
:1031E00000205A00205900204D39322058002E0A64
:1031F000006F70656E206661696C65642C2046699D
:103200006C653A2000524631303020526561647955
:103210002E005072696E74696E672E2E2E00453135
:10322000002C2073797374656D2073746F707065F2
:103230006421204865617465725F49443A2000004A
:10324000D7EB5AE511241FBECFEFD1E2DEBFCDBFD1
:1032500000E00CBF13E0A0E0B2E0EEE8F6EF01E022
:103260000BBF02C007900D92A836B107D9F724E131
:10327000A8E6B3E001C01D92A53AB207E1F719E153
:10328000C1E2D9E100E006C021970109802FFE01CB
:103290000E94A9FAC032D10780E00807A9F70E946E
:1032A000A4E50C9436FB0C9400008091500581112C
:1032B0000AC08091BF11813041F08091061482FBD9
:1032C000882780F9089580E0089581E008954F925D
:1032D0005F926F927F928F929F92AF92BF92CF92A6
:1032E000DF92EF92FF92CF93DF93CDB7DEB7629775
:1032F0000FB6F894DEBF0FBECDBF9A8B898BDB0172
:10330000FA012D913D914D915C91139729833A8358
:103310004B835C8324813581468157812D833E8395
:103320004F83588714964D905D906D907C901797C1
:10333000208131814281538129873A874B875C877D
:1033400018968D909D90AD90BC901B97C084D184B1
:10335000E284F384A7019601C301B2010E948CF1BB
:103360006D877E878F87988BA50194016D817E8103
:103370008F8198850E948CF19B01AC016D857E85C3
:103380008F8598890E948CF7E989FA896083718317
:1033900082839383A501940169857A858B859C85B9
:1033A0000E948CF14B015C01A701960169817A8131
:1033B0008B819C810E948CF19B01AC01C501B40101
:1033C0000E948CF7E989FA896483758386839783E1
:1033D0002D813E814F81588569817A818B819C81C5
:1033E0000E948CF16B017C0129853A854B855C85B7
:1033F000C301B2010E948CF19B01AC01C701B6016F
:103400000E948CF7E989FA896087718782879387A0
:10341000CF0162960FB6F894DEBF0FBECDBFDF912D
:10342000CF91FF90EF90DF90CF90BF90AF909F90A3
:103430008F907F906F905F904F900895CF92DF9222
:10344000EF92FF92FC01C080D180E280F38020E007
:1034500030E0A901C701B6010E9427F187FF69C0CA
:10346000C701B601905820E030E040E251E40E94EC
:103470008CF120E030E040EA50E40E948DF720E03B
:1034800030E040E251E40E9469F80E94D1F8FB016B
:10349000E03187E2F80708F453C0CF0160E177E23A
:1034A0000E9466FA80E3860F80932604E83E83E05C
:1034B000F80708F447C0CF0168EE73E00E9466FA8F
:1034C000CB016AE070E00E9466FA805D8093270479
:1034D00080E2E436F10558F0CF0164E670E00E9426
:1034E00066FACB016AE070E00E9466FA805D809324
:1034F000280480E2EA30F10558F02AE030E0CF01FC
:10350000B9010E9466FACB01B9010E9466FA805D9A
:1035100080932904CF016AE070E00E9466FA805D22
:1035200080932A0486E294E0FF90EF90DF90CF90A2
:10353000089520E030E040E251E4C701B60197CFA2
:1035400080E2B2CF80E2C2CF8F929F92AF92BF92C1
:10355000CF92DF92EF92FF92CF93C62FFC01C080F3
:10356000D180E280F38020E030E44CE156E4C701F2
:10357000B6010E948CF14B015C0120E030E0A90112
:10358000C701B6010E9427F120E030E040EA50E494
:1035900087FF04C020E030E040EA50ECC501B401F0
:1035A0000E948DF720E030E040E251E40E9469F88B
:1035B0000E94D1F86B017C01C114D104E104F10433
:1035C00009F456C0F7FE09C0F094E094D094C0947A
:1035D000C11CD11CE11CF11CCDE2C0932504C70124
:1035E000B60128EE33E040E050E00E948DFA8AE018
:1035F000882E912CA12CB12CCA01B901A5019401EE
:103600000E948DFA605D609326048EE28093270409
:10361000C701B60124E630E040E050E00E948DFA98
:10362000CA01B901A50194010E948DFA605D609301
:103630002804C701B601A50194010E948DFAC62F86
:10364000CA01B901A50194010E948DFA605D6093E1
:103650002904C05DC0932A0485E294E0CF91FF90D5
:10366000EF90DF90CF90BF90AF909F908F90089594
:10367000C0E2B3CF8F929F92AF92BF92CF92DF9270
:10368000EF92FF92FC01C080D180E280F38020E0C5
:1036900030E048EC52E4C701B6010E948CF14B01C6
:1036A0005C0120E030E0A901C701B6010E9427F1CA
:1036B00020E030E040EA50E487FF04C020E030E042
:1036C00040EA50ECC501B4010E948DF720E030E0E3
:1036D00040E251E40E9469F80E94D1F89B018BE21C
:1036E00037FF05C022273327261B370B8DE2809337
:1036F0002504C90168EE73E00E947AFACB01EAE082
:10370000F0E0BF010E947AFA805D80932604C9012F
:1037100064E670E00E947AFACB01BF010E947AFA57
:10372000805D80932704C901BF010E947AFA282F87
:10373000CB01BF010E947AFA805D809328048EE25B
:1037400080932904205D20932A0485E294E0FF9071
:10375000EF90DF90CF90BF90AF909F908F900895A3
:103760009C0197FF26C0EE27FF27E81BF90B2D3998
:103770008FEF38070CF05DC08DE280932704CF01F6
:1037800064E670E00E947AFACB012AE030E0B901E9
:103790000E947AFA805D80932804CF01B9010E94CB
:1037A0007AFACB01B9010E947AFA805D80932904EC
:1037B0002AC0283E83E03807B4F1C90168EE73E0FF
:1037C0000E947AFACB01EAE0F0E0BF010E947AFAA7
:1037D000805D80932704C90164E670E00E947AFA54
:1037E000CB01BF010E947AFA805D80932804C90151
:1037F000BF010E947AFACB01BF010E947AFA805D74
:1038000080932904F901CF016AE070E00E947AFAFE
:10381000805D80932A0487E294E008958DE237FD6D
:10382000C5CF80E2C3CFF90180E2243631050CF028
:10383000A4CF80E28093270480932804EA30F10526
:103840006CF38DE237FF80E280932804CF016AE0B9
:1038500070E00E947AFA605D60932904D4CF9C01E5
:10386000EAE0F0E0BF010E947AFA805D80932A04CA
:103870002A303105CCF0CB01BF010E947AFA805D7D
:10388000809329042436310594F0C90164E670E080
:103890000E947AFACB01BF010E947AFA805D809380
:1038A000280488E294E008958AE294E0089589E289
:1038B00094E008959C0197FD2DC080E224363105E7
:1038C0005CF0C90164E670E00E947AFACB016AE01C
:1038D00070E00E947AFA805D8093280480E22A30AA
:1038E00031055CF0EAE0F0E0C901BF010E947AFA1C
:1038F000CB01BF010E947AFA805D80932904C9013F
:103900006AE070E00E947AFA805D80932A0488E27F
:1039100094E008953195219531098DE2DDCF24E6BB
:10392000829FC001112481589F4F6FEF70E00E9469
:103930007AFA262F81E3643609F080E28093270427
:1039400090E22A3040F03AE0822F632F0E945AFA28
:103950000E945AFA905D90932804822F6AE00E9498
:103960005AFA905D9093290485E280932A0487E2B5
:1039700094E008956091290270912A02072E000CAC
:10398000880B990B0E942DF12AE037ED43E25CE3AE
:103990000E948CF120912C0830912D0840912E0826
:1039A00050912F080E948CF1609361027093620223
:1039B000809363029093640208950C946F2C80911D
:1039C000FC138823C1F081508093FC13E9E8F2E1F5
:1039D000882351F08150990B2BE1289FF001299FFA
:1039E000F00D1124E251FD4E8BE1AEE6B2E1019003
:1039F0000D928A95E1F72091FC13211105C0809169
:103A0000061480628093061481E090E0A0E0B0E0AC
:103A1000211103C080E090E0DC0180930A089093BC
:103A20000B08A0930C08B0930D081092020881E0D7
:103A300080931A0883E080934A020895CF92DF9220
:103A4000EF92FF9223EF34E045E35FE360918F084C
:103A50007091900880919108909192080E948CF149
:103A60006B017C0160912E1170912F1180913011AA
:103A7000909131110E942BF19B01AC01C701B6015D
:103A80000E948CF129E732E84AE550E40E948CF16B
:103A90000E94F9F96093A7087093A8088093A90879
:103AA0009093AA08FF90EF90DF90CF9008958091B7
:103AB000A7129091A812891B8F7009F4F6CB81E0B0
:103AC0000895CF93DF93EC01CB01BA010E942DF151
:103AD0002AE037ED43E25DE30E9469F820E030E040
:103AE000A9010E948DF70E94D6F8688379838A83A2
:103AF0009B83DF91CF910895CF93DF93EC01CB01AE
:103B0000BA010E942DF120E030E040E251E40E9431
:103B100069F820E030E0A9010E948DF7688379837D
:103B20008A839B83DF91CF910895CF93DF93EC013C
:103B3000CB01BA010E942DF12AE037ED43E25DE3AB
:103B40000E9469F820E030E0A9010E948DF76883A7
:103B500079838A839B83DF91CF910895CF93DF93FD
:103B6000EC01CB01BA010E942DF120E030E0A90167
:103B70000E948DF7688379838A839B83DF91CF913D
:103B80000895CF93DF93EC01CB01BA010E942DF190
:103B900020E030E0A9010E948DF7688379838A8351
:103BA0009B83DF91CF910895CF93DF93EC01CB01FD
:103BB000BA010E942DF120E030E04AE754E40E946F
:103BC00069F820E030E0A9010E948DF768837983CD
:103BD0008A839B83DF91CF910895CF93DF93EC018C
:103BE000CB01BA010E942DF120E030E048EC52E414
:103BF0000E9469F820E030E0A9010E948DF76883F7
:103C000079838A839B83DF91CF9108950E942DF160
:103C100020E030E0A9010E948DF70E94D1F8CB018D
:103C200049CECF93DF93EC01CB01BA010E942DF175
:103C300020E030E0A9010E948DF70E94D1F879833D
:103C40006883DF91CF9108950E942DF129EC38EC23
:103C500048EC5EE30E9469F820E030E040E05FE37A
:103C60000E948DF70E94D6F8862F59CECF93DF930E
:103C7000EC01CB01BA010E942DF129EC38EC48ECA3
:103C80005EE30E9469F820E030E040E05FE30E94DC
:103C90008DF70E94D6F86883DF91CF910895CF9376
:103CA000DF9300D01F92CDB7DEB70E94D6F80E94F6
:103CB0002BF169837A838B839C83CE010196BEDBD3
:103CC0000F900F900F900F90DF91CF9108950E9469
:103CD0002DF12AE037ED43E25DE30E9469F820E030
:103CE00030E0A9010E948DF7DACF8F929F92AF92B8
:103CF000BF92CF92DF92EF92FF92CF936B017C0144
:103D000020E030E0A9010E9427F187FDA4C067E10F
:103D100077EB81E598E3A70196010E948DF76B018F
:103D20007C0120E030E0A9010E9427F187FF98C0C4
:103D3000C701B601905820E030E048EC52E40E9400
:103D40008CF120E030E040EA50E40E948DF720E062
:103D500030E040E251E40E9469F80E94D1F86B0122
:103D60007C0180E28093240460E280E1C81687E24F
:103D7000D806E104F1048CF0C701B60120E137E276
:103D800040E050E00E948DFACA01B9012AE030E01B
:103D900040E050E00E948DFA605D6093250460E28F
:103DA00088EEC81683E0D806E104F1048CF0C70160
:103DB000B60128EE33E040E050E00E948DFACA01DF
:103DC000B9012AE030E040E050E00E948DFA605DE9
:103DD0006093260460E284E6C816D104E104F1048D
:103DE0008CF0C701B60124E630E040E050E00E94CC
:103DF0008DFACA01B9012AE030E040E050E00E94AB
:103E00008DFA605D609327048AE0882E912CA12CA6
:103E1000B12CC701B601A50194010E948DFAC62FED
:103E2000CA01B901A50194010E948DFA605D6093F9
:103E300028048EE280932904C05DC0932A0484E2A2
:103E400094E0CF91FF90EF90DF90CF90BF90AF9034
:103E50009F908F90089567E177EB81E598EB5BCFBA
:103E600020E030E048EC52E4C701B60168CF0E9480
:103E70002DF120E030E040E251E40E9469F820E0BA
:103E800030E0A9010E948DF730CFCF92DF92EF9200
:103E9000FF92CF93DF9300D01F92CDB7DEB76B01B7
:103EA0007C0120E030E0A9010E9427F187FD1AC0C3
:103EB00067E177EB81E598E3A70196010E948DF712
:103EC00069837A838B839C83CE010196B7DA0F9046
:103ED0000F900F900F90DF91CF91FF90EF90DF90B8
:103EE000CF90089567E177EB81E598EBE5CF0E94ED
:103EF0002DF120E030E0A9010E948DF7C6CF0E948D
:103F00002DF12AE037ED43E25DE30E9469F820E0FD
:103F100030E0A9010E948DF7B8CFCF92DF92EF92E7
:103F2000FF92CF93DF9300D01F92CDB7DEB76B0126
:103F30007C0120E030E0A9010E9427F187FD1BC031
:103F400067E177EB81E598E3A70196010E948DF781
:103F500069837A838B839C8360E2CE010196F4DAD5
:103F60000F900F900F900F90DF91CF91FF90EF90F7
:103F7000DF90CF90089567E177EB81E598EBE4CF90
:103F80000E942DF120E030E04AE754E40E9469F8F5
:103F900020E030E0A9010E948DF7BFCF8F929F9261
:103FA000AF92BF92CF92DF92EF92FF92CF936B01CD
:103FB0007C0120E030E0A9010E9427F187FF9DC02D
:103FC00067E177EB81E598EBA70196010E948DF7F9
:103FD0006B017C0120E030E04AE754E40E948CF160
:103FE0004B015C0120E030E040E251ECC701B6013A
:103FF0000E9427F1181654F420E030E048EC52E417
:10400000C701B6010E94B3F987FD8BC020E030E004
:10401000A901C701B6010E9427F187FF73C060E0C4
:1040200070E080EA90ECA50194010E948DF720E0F9
:1040300030E040E251E40E9469F80E94D1F86B013F
:104040007C01F7FC64C020E137E240E050E00E94D0
:104050008DFACA01B9012AE030E040E050E00E9448
:104060008DFA605D60932504C701B60128EE33E048
:1040700040E050E00E948DFA9AE0892E912CA12C0C
:10408000B12CCA01B901A50194010E948DFA605DAD
:1040900060932604C701B60124E630E040E050E01A
:1040A0000E948DFACA01B901A50194010E948DFAFE
:1040B000605D609327048EE280932804C701B601F7
:1040C000A50194010E948DFAC62FCA01B901A5016C
:1040D00094010E948DFA605D60932904C05DC093D5
:1040E0002A0485E294E0CF91FF90EF90DF90CF908B
:1040F000BF90AF909F908F90089567E177EB81E537
:1041000098E362CF60E070E080EA90E48CCFF094B6
:10411000E094D094C094C11CD11CE11CF11C6DE250
:10412000A1CF20E030E0A901C701B6010E9427F12C
:1041300087FF6AC060E070E080EA90ECA50194011E
:104140000E948DF720E030E040E251E40E9469F8DF
:104150000E94D1F84B015C0120E030E0A901C701C9
:10416000B6010E94B3F987FD0BC020E030E040E2C9
:1041700051E4C701B6010E9427F160E287FD13C038
:10418000B7FC47C0C501B40128EE33E040E050E081
:104190000E948DFACA01B9012AE030E040E050E007
:1041A0000E948DFA605D60932604C501B40124E687
:1041B00030E040E050E00E948DFA8AE0C82ED12C19
:1041C000E12CF12CCA01B901A70196010E948DFAD8
:1041D000605D609327048EE280932804C501B401DA
:1041E000A70196010E948DFAC62FCA01B901A70145
:1041F00096010E948DFA605D60932904C05DC093B2
:104200002A0486E294E06FCF60E070E080EA90E4F8
:1042100095CFB094A09490948094811C911CA11C83
:10422000B11C6DE2C0CF0E942DF120E030E048ECDF
:1042300052E40E9469F820E030E0A9010E948DF765
:10424000ADCECF92DF92EF92FF926B017C0120E026
:1042500030E0A9010E9427F187FD25C067E177EBD7
:1042600081E598E3A70196010E948DF76B017C011F
:1042700020E030E0A9010E9427F120E030E040E09A
:104280005FE387FF04C020E030E040E05FEBC70160
:10429000B6010E948DF70E94D1F8CB01FF90EF90FC
:1042A000DF90CF9007CB67E177EB81E598EBDACF32
:1042B0000E942DF120E030E0A9010E948DF7C1CFCE
:1042C000FC0180810895FC0184910895AF92BF9212
:1042D000CF92DF92EF92FF920F931F93CF93DF93D2
:1042E000EC015B018A01FB01199587FD16C0C82E00
:1042F000D12CF12CE12C2196F801C082D182E282EE
:10430000F382CE01DF91CF911F910F91FF90EF903B
:10431000DF90CF90BF90AF900895982F907E903C03
:10432000A9F48F7190E0B0E0A0E06C017D0126E07F
:10433000CC0CDD1CEE1CFF1C2A95D1F7CE0101969A
:10434000F50119958F73C82A2296D6CF982F907FA2
:10435000903E11F58F7090E0B0E0A0E06C017D011F
:1043600086E0CC0CDD1CEE1CFF1C8A95D1F7CE013B
:104370000196F50119958F73C82A96E0CC0CDD1CC7
:10438000EE1CFF1C9A95D1F7CE010296F501199506
:104390008F73C82A2396B0CF982F987F903F79F5D6
:1043A000877090E0B0E0A0E06C017D01F6E0CC0CFD
:1043B000DD1CEE1CFF1CFA95D1F7CE010196F5012C
:1043C00019958F73C82AA6E0CC0CDD1CEE1CFF1CCF
:1043D000AA95D1F7CE010296F50119958F73C82AD7
:1043E000B6E0CC0CDD1CEE1CFF1CBA95D1F7CE015B
:1043F0000396F50119958F73C82A24967DCF982FBF
:104400009C7F983FE1F5837090E0B0E0A0E06C0104
:104410007D0156E0CC0CDD1CEE1CFF1C5A95D1F73B
:10442000CE010196F50119958F73C82A66E0CC0C70
:10443000DD1CEE1CFF1C6A95D1F7CE010296F5013A
:1044400019958F73C82A76E0CC0CDD1CEE1CFF1C7E
:104450007A95D1F7CE010396F50119958F73C82A85
:10446000E6E0CC0CDD1CEE1CFF1CEA95D1F7CE017A
:104470000496F50119958F73C82A25963DCF982F7C
:104480009E7F9C3F09F049C0817090E0B0E0A0E0C1
:104490006C017D0186E0CC0CDD1CEE1CFF1C8A95B6
:1044A000D1F7CE010196F50119958F73C82A96E0D0
:1044B000CC0CDD1CEE1CFF1C9A95D1F7CE010296A8
:1044C000F50119958F73C82A26E0CC0CDD1CEE1C73
:1044D000FF1C2A95D1F7CE010396F50119958F732C
:1044E000C82A36E0CC0CDD1CEE1CFF1C3A95D1F737
:1044F000CE010496F50119958F73C82A46E0CC0CBD
:10450000DD1CEE1CFF1C4A95D1F7CE010596F50186
:1045100019958F73C82A2696EFCE982F907C9038E5
:1045200041F4807C803869F42196CE01F50119951B
:10453000F8CF8E7F8D3F28F02196CE01F501199599
:10454000F8CFC12CD12C7601D7CECF93DF93FB01CE
:10455000D90190819130E9F09430A8F09450908383
:104560002D913C911197B9016F5F7F4F11967C930C
:104570006E93420F531FEA0188838D919C918F3572
:10458000910564F406C08C3539F49C5F90839430B7
:1045900039F7DF91CF9108958B3311F781E0808354
:1045A000F8CF9091BF05E92FF0E0E25CFB4E8083ED
:1045B0009F5F943040F49093BF05809143078F5FD5
:1045C0008093430708951092BF05F7CF282F90914D
:1045D0008708833021F495FD0FC094FD0FC0892F0B
:1045E00090E0B0E0A0E004C0B695A79597958795B8
:1045F0002A95D2F78170089581E0089580E00895AA
:104600000C9483890C9483890C9483890C948389FA
:104610004F925F926F927F928F929F92AF92BF92D2
:10462000CF92DF92EF92FF92CF93DF9300D000D032
:10463000CDB7DEB79E838D83DC014D905D906D908C
:104640007C90139714968D909D90AD90BC90179789
:1046500018968D919D910D90BC91A02D89839A8380
:10466000AB83BC83A3019201C301B2010E948CF110
:104670006B017C01A5019401C501B4010E948CF17C
:104680009B01AC01C701B6010E948DF76B017C0153
:1046900029813A814B815C81CA01B9010E948CF168
:1046A0009B01AC01C701B6010E948DF70E94F9F988
:1046B0009B01AC0160E070E080E89FE30E9469F834
:1046C0006B017C01AC019B01C301B2010E948CF122
:1046D000ED81FE816083718382839383A7019601BC
:1046E000C501B4010E948CF1AD81BE8114966D9319
:1046F0007D938D939C931797A701960169817A8189
:104700008B819C810E948CF1ED81FE816087718795
:104710008287938726960FB6F894DEBF0FBECDBF73
:10472000DF91CF91FF90EF90DF90CF90BF90AF904F
:104730009F908F907F906F905F904F9008950C9412
:1047400005890C9405890C9405890C9405890F93AF
:104750001F930E94307600910C1410910D1420913B
:104760000E1430910F140115110521053105D9F5ED
:10477000209112142223A1F1E091101421502093D2
:10478000121421E02E0F20931014309113142313D0
:1047900002C01092101424E0E29FF0011124EC5E9C
:1047A000FB4E008111812281338100930814109304
:1047B000091420930A1430930B14600F711F811D8C
:1047C000911D60930C1470930D1480930E149093AC
:1047D0000F1480910A1490910B14892B09F0409AC0
:1047E0001F910F910895601B710B820B930B97FD26
:1047F000F7CF409810920C1410920D1410920E14D2
:1048000010920F14EDCFCF92DF92EF92FF92CF93E1
:10481000C82F0E9430766B017C0124EA30E74DE717
:104820005FE36091200470912104809122049091B3
:1048300023040E9427F187FD18C08AEF90E0A0E0D2
:10484000B0E08C0D9D1DAE1DBF1D80931B04909389
:104850001C04A0931D04B0931E04C0930402CF91C6
:10486000FF90EF90DF90CF90089580E090E0DC0122
:10487000E8CFCF92DF92EF92FF920F931F930E94A7
:1048800030760091BC031091BD032091BE0330919E
:10489000BF036B017C01C01AD10AE20AF30A970137
:1048A000860137FD11C02091BB0320952093BB03E7
:1048B0006A547C4F8F4F9F4F6093BC037093BD032E
:1048C0008093BE039093BF0381E09091BB0391114D
:1048D00001C080E01F910F91FF90EF90DF90CF908B
:1048E0000895CF92DF92EF92FF920F931F93CF9391
:1048F000DF9300D000D0CDB7DEB78A0146E0469FF7
:104900009001479F300D1124BC01620F731F46E0D8
:1049100050E0CE0101960E9466F0C980DA80EB80FB
:10492000FC80F80140815181628173818FEF9FEF9C
:10493000C416D506E606F70640F081E090E04C1577
:104940005D056E057F0508F080E026960FB6F894A9
:10495000DEBF0FBECDBFDF91CF911F910F91FF90B2
:10496000EF90DF90CF9008950C944EB00C944EB021
:1049700062E07AE383E00C94ECE26DEA7BE382E0B0
:104980000C94ECE261EB7BE381E00C94ECE265EBF0
:104990007BE380E00C94ECE2EF92FF920F931F9385
:1049A0008BE3E82E82E1F82E10E000E027E033E10F
:1049B00042E45DE26DE372E182E492E10E949ECB0B
:1049C0001F910F91FF90EF900895EF92FF920F9338
:1049D0001F9380E3E82E8EE0F82E10E000E023E441
:1049E0003EE04FE45AE262E37EE089E39EE00E940B
:1049F0009ECB1F910F91FF90EF900895CF92DF9281
:104A0000EF92FF920F931F93CF93DF93CDB7DEB753
:104A1000CDB6DEB680917D1160E771E1882311F09B
:104A20006DE771E1FB0101900020E9F7CF01861BE2
:104A3000970B01962DB73EB7281B390B0FB6F8948C
:104A40003EBF0FBE2DBF0DB71EB70F5F1F4F80E2D9
:104A5000EDB7FEB78183C80101960E9407FB8AE289
:104A6000E82E83E1F82E2CE233E142E25CE268E3D7
:104A700073E18FE393E10E949ECB0FB6F894DEBE04
:104A80000FBECDBEDF91CF911F910F91FF90EF90A0
:104A9000DF90CF9008950F931F93CF93DF938B01F7
:104AA000C1E5D2E02091610230916202409163023F
:104AB00050916402FC0160817181828193810E9426
:104AC00069F82C853D854E855F850E948DF76C8742
:104AD0007D878E879F87C8010E948C9EDF91CF9132
:104AE0001F910F910C94A689EF92FF920F931F9341
:104AF000CF93DF9300D000D01F921F92CDB7DEB7C7
:104B00008E010F5F1F4FD80130E020E0FB01E20F64
:104B1000F31FE491ED932F5F3F4F28303105B1F73C
:104B2000877028E0829FC001112480640E94DDB05C
:104B3000780188E0E80EF11CF80161918F0184E2B0
:104B400094E10E946177E016F106B1F728960FB65E
:104B5000F894DEBF0FBECDBFDF91CF911F910F91B3
:104B6000FF90EF9008950F931F93CF93DF93CDB7EE
:104B7000DEB72E970FB6F894DEBF0FBECDBF8A0109
:104B80001E861D866F83788789879A872FEF2B87EC
:104B9000603871058105910538F484E294E10E9442
:104BA000617781E090E02FC09E01235F3F4FAE010F
:104BB000495F5F4F69EB70E087E498E00E9489B03D
:104BC00097FD2CC08D859E8526E0289FB001299FEA
:104BD000700D1124695B774F46E050E0CE010196DD
:104BE0000E9466F06D8184E294E10E946177013059
:104BF0001105B9F26E816623A1F284E294E10E946C
:104C0000617782E090E02E960FB6F894DEBF0FBE7B
:104C1000CDBFDF91CF911F910F9108959E01235F2A
:104C20003F4FAE01495F5F4F60E670E087E096E07E
:104C30000E9489B097FD0BC08D859E8526E0289F38
:104C4000B001299F700D1124695F794FC5CF6FE3C3
:104C5000A4CF4F925F926F927F928F929F92AF926A
:104C6000BF92CF92DF92EF92FF920F931F93CF9359
:104C7000DF9300D000D0CDB7DEB780905102909086
:104C80005202A0905302B0905402C0905502D090AE
:104C90005602E0905702F09058028091590290918C
:104CA0005A02A0915B02B0915C0289839A83AB8324
:104CB000BC830E9405890E94307308E316E1ACE2D0
:104CC000B2E0BE83AD838CE2682E86E1782E512C53
:104CD000852D0E94939DF80185919591A591B491A0
:104CE000ED81FE8181939193A193B193FE83ED8336
:104CF000F30185919591A591B491ED81FE81808715
:104D00009187A287B38753940C5F1F4FF4E06F0E17
:104D1000711C83E05812DCCF23EF34E045E35FE3FE
:104D200060918F08709190088091910890919208FD
:104D30000E948CF12B013C0160912E1170912F117A
:104D400080913011909131110E942BF19B01AC01A7
:104D5000C301B2010E948CF129E732E84AE550E430
:104D60000E948CF10E94F9F96093A7087093A8083B
:104D70008093A9089093AA080E948389A5019401B1
:104D800060915102709152028091530290915402AD
:104D90000E9427F181111EC0A70196016091550262
:104DA0007091560280915702909158020E9427F10B
:104DB000811110C02091590230915A0240915B023A
:104DC00050915C0269817A818B819C810E9427F1DC
:104DD0008823C1F026960FB6F894DEBF0FBECDBF74
:104DE000DF91CF911F910F91FF90EF90DF90CF90C7
:104DF000BF90AF909F908F907F906F905F904F90FB
:104E00000C944CA726960FB6F894DEBF0FBECDBF0C
:104E1000DF91CF911F910F91FF90EF90DF90CF9096
:104E2000BF90AF909F908F907F906F905F904F90CA
:104E30000895129A08955F9A809171088E7F8093E9
:104E400071088A9A809171088D7F80937108809192
:104E500008018095817080930601809171088B7F95
:104E600080937108E6CFCF92DF92EF92FF920F937B
:104E70001F93CF93DF93CDB7DEB760970FB6F8944B
:104E8000DEBF0FBECDBF0E94588D182F8091A81293
:104E90008093A7128093A6128093A51284E6809334
:104EA000A4120E94CD8E88EE93E09093150F80930C
:104EB000140F11110E94658D81E0809344050E94BA
:104EC000A68981E00E947B9C6B017C0180E00E94AE
:104ED0007B9C6093390470933A0480933B049093D5
:104EE0003C04C0923D04D0923E04E0923F04F09214
:104EF000400482E00E947B9C6093410470934204D2
:104F000080934304909344040091390410913A042F
:104F100020913B0430913C0409831A832B833C830A
:104F200000913D0410913E0420913F0430914004D3
:104F30000D831E832F83388769877A878B879C87A9
:104F400080915D0290915E02A0915F02B09160023B
:104F50008D879E87AF87B88BCE0101960E94C98945
:104F600080E1FE013196A1E5B2E001900D928A95B3
:104F7000E1F70E94A19F60960FB6F894DEBF0FBEC6
:104F8000CDBFDF91CF911F910F91FF90EF90DF90F8
:104F9000CF90089580913804811107C00E9407B016
:104FA000882319F081E08093380408952F923F926E
:104FB0004F925F926F927F928F929F92AF92BF9229
:104FC000CF92DF92EF92FF920F931F93CF93DF93D5
:104FD000CDB7DEB72C970FB6F894DEBF0FBECDBFAE
:104FE0009C878B878B011A013E832D83D9018D917C
:104FF0009D910D90BC91A02D89839A83AB83BC8336
:10500000FA01C080D180E280F380DB018D909D9019
:10501000AD90BC90EB85FC8524813581468157811C
:10502000C501B4010E948CF12B013C01AB85BC850C
:1050300050962D913D914D915C915397C701B601CA
:105040000E948CF19B01AC01C301B2010E948DF75B
:105050002B013C01EB85FC85248D358D468D578DCC
:1050600069817A818B819C810E948CF19B01AC01CA
:10507000C301B2010E948DF76F83788789879A8771
:10508000AB85BC8518962D913D914D915C911B97F8
:10509000C501B4010E948CF12B013C01EB85FC851C
:1050A0002489358946895789C701B6010E948CF148
:1050B0009B01AC01C301B2010E948DF72B013C01A1
:1050C000AB85BC8590962D913D914D915C919397C8
:1050D00069817A818B819C810E948CF19B01AC015A
:1050E000C301B2010E948DF72B013C01EB85FC85C9
:1050F0002081318142815381C501B4010E948CF12C
:105100004B015C01AB85BC851C962D913D914D9169
:105110005C911F97C701B6010E948CF19B01AC0105
:10512000C501B4010E948DF76B017C01EB85FC8504
:10513000208D318D428D538D69817A818B819C8147
:105140000E948CF19B01AC01C701B6010E948DF752
:10515000D8016D937D938D939C9313978F81988540
:10516000A985BA85F10180839183A283B383AD8140
:10517000BE814D925D926D927C9213972C960FB6E4
:10518000F894DEBF0FBECDBFDF91CF911F910F917D
:10519000FF90EF90DF90CF90BF90AF909F908F9057
:1051A0007F906F905F904F903F902F9008950F9356
:1051B0001F938091BF11813019F50E9430760091C4
:1051C0003004109131042091320430913304601B7B
:1051D000710B820B930B28EE33E040E050E00E940D
:1051E00051F760912C0470912D0480912E049091C0
:1051F0002F04620F731F841F951F1F910F91089535
:105200006091340470913504809136049091370494
:10521000D6CF1092BF111092300410923104109228
:105220003204109233041092340410923504109218
:1052300036041092370410922C0410922D04109210
:105240002E0410922F0408958091BF118130E1F057
:105250008230C1F4ACDF60932C0470932D048093F2
:105260002E0490932F0481E08093BF110E9430762A
:10527000609330047093310480933204909333042C
:1052800081E00895C6DFEFCF80E008958091BF11DF
:10529000813079F482E08093BF110E943076609370
:1052A000340470933504809336049093370481E07E
:1052B000089580E008958091BF118150823070F48C
:1052C0001092BF110E9430766093340470933504BD
:1052D000809336049093370481E0089580E0089528
:1052E0008F929F92AF92BF92CF92DF92EF92FF92F6
:1052F0000F931F93CF93DF93CDB7DEB760970FB6B1
:10530000F894DEBF0FBECDBF8B0140E050E068ECEB
:1053100072E449875A876B877C8740E050E060EAF7
:1053200070E44D875E876F87788B813009F182301A
:1053300009F449C08090590290905A02A0905B02F3
:10534000B0905C02F801C084D184E284F3849601B9
:10535000A701B401C5010E9427F187FD02C06401C5
:105360007501C601D70189839A83AB83BC834EC084
:10537000BE01635F7F4FC80108960E94839F88E04B
:10538000F801DE01119601900D928A95E1F7BE01B8
:10539000675F7F4FCE0101960E94639F0E944CA7DA
:1053A00060960FB6F894DEBF0FBECDBFDF91CF91F0
:1053B0001F910F91FF90EF90DF90CF90BF90AF9033
:1053C0009F908F900895F8012085318542855385FF
:1053D0006091590270915A0280915B0290915C0237
:1053E0000E948DF76B017C0120E030E040EF52E439
:1053F0000E9427F187FD06C0C12CD12C80EFE82E3A
:1054000082E4F82EC982DA82EB82FC82BE01635FFD
:105410007F4FCE010196B1CF0F931F93CF93DF93B0
:105420008C01EB019091121420911314921304C07B
:105430008ED90E948C85F6CF8091111434E0839F21
:10544000F0011124EC5EFB4E11830083D383C283F1
:105450009F5F909312148F5F281739F08093111477
:10546000DF91CF911F910F91089510921114F8CFF1
:1054700063E972E084E690E0CFDF6AEB72E084E6F5
:1054800090E0CACF8111F4CF68EB71E084E190E045
:10549000C3CF0E94A3A1F6CF0E9407B0F3CFCF9352
:1054A0000E9495A00E94A3A1C82F882319F080E034
:1054B0000E94F4A78C2FCF91E5CFCF92DF92EF928D
:1054C000FF920F931F93CF9390910302913009F4B1
:1054D00060C0662351F010927C0310927803109202
:1054E000790310927A0310927B03C82F0E943076C2
:1054F000C0907803D0907903E0907A03F0907B031A
:105500009B01AC012C193D094E095F0969017A0123
:10551000F7FC3FC020917C03C7FD15C04C2F0C2E1B
:10552000000C550B4C5F5F4FE22F022E000CFF0B5F
:105530004E175F0774F144EFC42EDD24D394E12CA1
:10554000F12C2C1734F438EEC32E33E0D32EE12C9B
:10555000F12CC60ED71EE81EF91EC0927803D09219
:105560007903E0927A03F0927B03022F017010E03E
:1055700084E2809FB001819F700D701B11246059DF
:105580007C4F82E390E048DF80917C038F5F8093C3
:105590007C03CF911F910F91FF90EF90DF90CF9000
:1055A0000895382F1092210880910A0890910B08D5
:1055B000A0910C08B0910D08B7FF08C010920A081E
:1055C00010920B0810920C0810920D0820910A08F6
:1055D0002093010810921A088091FC071816ECF429
:1055E000082E000C990B831B9109022E000C330B23
:1055F0002817390794F097FF02C090E080E080936D
:105600000108092E000CAA0BBB0B80930A0890938B
:105610000B08A0930C08B0930D0880910108662335
:10562000A9F090910208891714F480930208209140
:105630000208022E000C330B2D5F3F4F482F082E1F
:10564000000C550B241735071CF483508093020877
:105650000895E0910404E63010F581E08E0F809308
:10566000040440910A0850910B0860910C08709155
:105670000D08909102088091FC0728E0E29FF0015C
:105680001124EC52FC4F20913C1430913D14318395
:10569000208342835383648375839683878308952D
:1056A0006CE07DE080E020DA64E07DE081E01CDAFF
:1056B0006CEF7CE082E018DA64EF7CE086E014DADC
:1056C0006CEE7CE087E010DA64EE7CE083E00CDADC
:1056D0006CED7CE084E008DA64ED7CE085E004CAEF
:1056E000CF93823061F4C4E0C15058F088E0C89F85
:1056F000B00111246356734F8C2FF6D9F5CFCF919B
:10570000CFCFCF9108950F931F93CF93DF93522F55
:1057100020913C1430913D142817390761F1909382
:105720003D1480933C148B0130E020E000930A0884
:1057300010930B0820930C0830930D084093020837
:105740005093FC0720E58232920721F410921F0447
:1057500010920404EC010E94E3B081E0C252D045F3
:1057600009F080E0BDDF82E080934A0281E080930F
:105770001A0810920608DF91CF911F910F9108959A
:10578000CF93DF93EC0165DF20E040E070E060E064
:10579000CE01DF91CF91B7CF21E020931F0460931A
:1057A000200470932104809322049093230420E02A
:1057B00040E070E060E08091030890910408A3CF7E
:1057C0006DEC7CEC8CEC9CE3E7CF6DEC7CEC8CEC32
:1057D0009DE3E2CF60E070E080E89FE3DDCF60E032
:1057E00070E080E291E4D8CF81E080931F041092B2
:1057F0008E0820E040E070E060E089ED98E383DF10
:105800008DE893E19093C1058093C005089520E051
:1058100040E070E060E089EB9BE375DF81E080931E
:1058200014048DED9EE09093C1058093C00508950A
:1058300020E040E070E060E082E290E564CF0E940A
:105840002085F6CF80E791E10E94AE7DF1DF0C94D8
:1058500083B261116093030240931804EFEFE80FE5
:10586000EB3008F035C00E2E000CFF0B8827E45CEF
:10587000F34D8F4F0C94A9FA692C6C2C472C512CAA
:10588000542C572C632C5A2C682C5D2C602C8BEAE2
:1058900098E321E020931F0420E040E070E060E006
:1058A00032CF81EB98E3F5CF84EB98E3F2CF87EB2F
:1058B00098E3EFCF8AEB98E3ECCF8DEB98E3E9CF59
:1058C00080EC98E3E6CF1092170489EA96E3E1CFE3
:1058D000AFCF88EA98E3DDCF8EEA98E3DACFE091A4
:1058E0000404EE2381F0E150E093040488E0E89F93
:1058F000F0011124EC52FC4F6281738127814681B3
:105900008081918100CF94CF64E084E10E94EAB06D
:1059100081E020913C1430913D142252304509F031
:1059200080E0DEDE0C94E3B0AF92BF92CF92DF92C4
:10593000EF92FF920F931F93CF93DF9300D01F92AC
:10594000CDB7DEB76C015B017A0110E000E00E1507
:105950001F05E0F419821A821B821C82AE014F5F80
:105960005F4FB501C6010E9466216C0169817A8191
:105970008B819C81611571058105910539F0A70125
:10598000401B510BF0D8080F191FE1CFC8010F9031
:105990000F900F900F90DF91CF911F910F91FF907B
:1059A000EF90DF90CF90BF90AF9008954FEF5FEFF3
:1059B00060E671E2B9CF4FEF5FEF63E671E2B4CF1B
:1059C000643008F063E090913714691710F06FEFBE
:1059D000690FE62FF0E0EC5DFB4E9489890F80683B
:1059E0000C94DDB0CF93DF93EA01EADFCE01DF91C3
:1059F000CF91E1CFFC01A081B1811C92A281B38142
:105A00008C918F5F8C930280F381E02D608180E028
:105A1000D7CF0F931F93CF93DF938C016F3F19F470
:105A20001092121260E020911212862F062E000CA6
:105A3000990B2817190609F004F560931212C80192
:105A40000E9476F0800F911FEC01C01BD10BC13575
:105A5000D1053CF00197FC012491207C2038D1F342
:105A6000F3CFDD27AE01B80181EC91E10E9497F000
:105A7000CF53DE4E18821092C011DF91CF911F914B
:105A80000F910895109254081092490280910614C3
:105A90008064809306140FDC60E089EE95E0B9DF46
:105AA000C7CECF93DF93CDB7DEB78E819091121220
:105AB000891778F0809312129E01275F3F4F4F8124
:105AC000588560E570E081EC91E10E94EFF0109262
:105AD000C011DF91CF9108950F931F930E943076EC
