:100000000C941C190C944D190C944D190C944D1909
:100010000C944D190C944D190C944D190C944D19C8
:100020000C944D190C944D190C944D190C944D19B8
:100030000C944D190C944D190C944D190C944D19A8
:100040000C944D190C94BA8A0C944D190C944D19BA
:100050000C944D190C944D190C941B870C944378F7
:100060000C944D190C948C4C0C94824C0C944D199E
:100070000C944D190C944D190C944D190C944D1968
:100080000C944D190C944D190C944D190C944D1958
:100090000C944D190C944D190C944D190C944D1948
:1000A0000C944D190C944D190C944D190C944D1938
:1000B0000C944D190C944D190C944D190C944D1928
:1000C0000C944D190C944D190C944D190C944D1918
:1000D0000C944D190C944D190C944D190C944D1908
:1000E0000C944D19084AD73B3BCE016E84BCBFFD32
:1000F000C12F3D6C74319ABD56833DDA3D00C77FF8
:1001000011BED9E4BB4C3E916BAAAABE0000008090
:100110003F05A84CCDB2D44EB93836A9020C50B91F
:10012000918688083CA6AAAA2ABE000000803F004B
:100130004E414E494E495459494E46CDCCCC3D0ACC
:10014000D7233C17B7D13877CC2B329595E6241FAF
:10015000B14F0A000020410000C84200401C462068
:10016000BCBE4CCA1B0E5AAEC59D7400407A10F33B
:100170005A00A0724E18090010A5D4E80000E876D5
:1001800048170000E40B54020000CA9A3B0000002C
:10019000E1F505000080969800000040420F000045
:1001A00000A08601000000102700000000E8030006
:1001B0000000006400000000000A000000000001D0
:1001C00000000000002C76D888DC674F0823DFC1D0
:1001D000DFAE59E1B1B796E5E3E453C63AE651998B
:1001E0007696E8E6C28426EB898C9B62ED407C6FB4
:1001F000FCEFBC9C9F40F2BAA56FA5F490055A2A6B
:10020000F75C936B6CF9676DC11BFCE0E40D47FE76
:10021000F520E6B500D0ED902E030094357705006B
:1002200080841E080000204E0A000000C80C3333F2
:1002300033330F986E12831141EF8D2114893BE601
:100240005516CFFEE6DB18D1844B381BF77C1D908A
:100250001DA4BBE424203284725E228100C9F124F3
:10026000ECA1E53D275072696E742050617573658D
:100270006400554E4C4F41442046494C414D454E3B
:1002800054004C4F41442046494C414D454E54008A
:1002900046494C414D454E54204348414E47450048
:1002A0006563686F3A004572726F723A00486F7406
:1002B000656E6420746F6F20636F6C640A000A0AB5
:1002C000426564204C6576656C20436F727265638D
:1002D00074696F6E204D61747269783A00332D70C5
:1002E0006F696E742070726F62696E6720646F6EE2
:1002F000652E0A0069646C650A00206F6620007034
:100300006F696E7420004D616E75616C20473239E3
:1003100020004D616E75616C204732392061626F3B
:10032000727465640A00202844525952554E2900BF
:10033000473239204175746F20426564204C6576E0
:10034000656C696E67003F2856296572626F736538
:10035000206C6576656C20696D706C61757369627F
:100360006C652028302D34292E0A004D3630303A65
:1003700020546F6F20436F6C6400486F74656E6427
:1003800020746F6F20636F6C640A00496E7365722E
:10039000742066696C616D656E7420616E64207096
:1003A0007265737320627574746F6E0A00507265A3
:1003B000737320627574746F6E20746F206865614A
:1003C00074206E6F7A7A6C650A00496E7365727478
:1003D0002066696C616D656E7420616E6420707258
:1003E00065737320627574746F6E0A0020496E76AF
:1003F000616C69642065787472756465722000228E
:100400000A00656E7175657565696E672022006FFB
:100410006B00526573656E643A20004361703A0068
:1004200023646566696E652044454641554C545FBA
:10043000004B6420004B6920004B70200050494461
:10044000204175746F74756E652066696E69736896
:100450006564212050757420746865206C61737424
:10046000204B702C204B6920616E64204B6420630C
:100470006F6E7374616E74732066726F6D20626547
:100480006C6F7720696E746F20436F6E6669677555
:10049000726174696F6E2E680A005049442041757C
:1004A000746F74756E65206661696C656421207473
:1004B000696D656F75740A00546865726D616C20B2
:1004C00052756E617761790048656174696E672065
:1004D0006661696C656400504944204175746F74AD
:1004E000756E65206661696C6564212054656D7068
:1004F0006572617475726520746F6F2068696768D2
:100500000A00204B643A2000204B693A2000204B1F
:10051000703A20000A20436C61737369632050496C
:1005200044200A002054753A2000204B753A2000E0
:10053000206D61783A2000206D696E3A20002064B9
:100540003A200020626961733A20005049442041FA
:1005500075746F74756E652073746172740A0050DF
:100560004944204175746F74756E65206661696CCD
:100570006564212054656D706572617475726520C3
:10058000746F6F20686967680A005049442041759C
:10059000746F74756E65206661696C6564212042B4
:1005A0006164206578747275646572206E756D6221
:1005B00065720A004572726F722077726974696E93
:1005C0006720746F20454550524F4D210A00256821
:1005D000753A25303268750025303268753A253015
:1005E000326875002D2D2D0053440020202020203E
:1005F00020200020202020004D6564696120526584
:100600006D6F766564004D6564696120496E736540
:1006100072746564005246313030205265616479ED
:100620002E005072696E74696E672E2E2E00507205
:10063000696E742041626F72746564004D323500DA
:100640005061757365205072696E7400A1000000DE
:100650006900A20000006300B00000000900C100B2
:1006600000004100C20000004100C3000000410042
:10067000C40000004100C50000004100C6000000A9
:100680004145C70000004300C80000004500C90004
:1006900000004500CD0000004900D10000004E00E0
:1006A000D50000004F00D60000004F00D70000002A
:1006B0007800DC0000005500DD0000005900E0007B
:1006C00000006100E10000006100E2000000610044
:1006D000E30000006100E40000006100E5000000AC
:1006E0006100E60000006165E70000006300E800CB
:1006F00000006500E90000006500EA0000006500F8
:10070000EB0000006500EC0000006900ED00000057
:100710006900EE0000006900EF0000006900F100D0
:1007200000006E00F20000006F00F30000006F0098
:10073000F40000006F00F50000006F00F6000000FC
:100740006F00F80000006F00F90000007500FA006B
:1007500000007500FB0000007500FC000000750043
:10076000FD0000007900FF00000079000401000096
:10077000410005010000610006010000430007017F
:10078000000063000C01000043000D010000630045
:100790000E01000044000F01000064001101000080
:1007A00064001901000065001F01000067003001AE
:1007B00000004900310100006900410100004C00C7
:1007C000420100006C00430100004E0044010000A3
:1007D0006E00480100006E005901000072005A01CD
:1007E000000053005B01000073005F010000730014
:1007F000600100005300610100007300650100000A
:1008000074006F01000075007C0100007A007D011A
:1008100000005A007E0100007A009201000066008C
:10082000E30200007800222000002E001E210000BC
:10083000507822210000544D902100003C2D92213F
:1008400000002D3EB02100000300BB210000040089
:100850003C2200007E00482200007E3D6022000015
:10086000213D612200003D00642200003C3D6522E4
:1008700000003E3DF12300000700A03000003D00D5
:1008800021F301000200C2F401000500A2000000F3
:10089000EC00B0000000DF00E4000000E100F60022
:1008A0000000EF00F7000000FD00FC000000F50074
:1008B000E3020000EB0087030000A5008F030000A7
:1008C000F40098030000F2009E030000E300A3037D
:1008D0000000F600A9030000F400AC030000E000F3
:1008E000AD030000E300B1030000E000B20300002C
:1008F000E200B5030000E300B8030000F200BC030F
:100900000000E400BE030000E300C0030000F700A5
:10091000C1030000E600C3030000E50090210000D1
:100920007F00922100007E001A220000E8001E22B3
:100930000000F30088250000FF0002300000A10045
:100940000C300000A2000D300000A3009B3000001E
:10095000DE009C300000DF00A03000003D00A13030
:100960000000A700A2300000B100A3300000A800E2
:10097000A4300000B200A5300000A900A63000009D
:10098000B300A7300000AA00A8300000B400A930CE
:100990000000AB00AA300000B500AB300000B6008C
:1009A000AC300000B6DEAD300000B700AE30000065
:1009B000B7DEAF300000B800B0300000B8DEB130B4
:1009C0000000B900B2300000B9DEB3300000BA0058
:1009D000B4300000BADEB5300000BB00B630000015
:1009E000BBDEB7300000BC00B8300000BCDEB93060
:1009F0000000BD00BA300000BDDEBB300000BE000C
:100A0000BC300000BEDEBD300000BF00BE300000C4
:100A1000BFDEBF300000C000C0300000C0DEC1300B
:100A20000000C100C2300000C1DEC3300000AF00D2
:100A3000C4300000C200C5300000C2DEC630000075
:100A4000C300C7300000C3DEC8300000C400C93096
:100A50000000C4DECA300000C500CB300000C60074
:100A6000CC300000C700CD300000C800CE30000000
:100A7000C900CF300000CA00D0300000CADED1303B
:100A80000000CADFD2300000CB00D3300000CBDE44
:100A9000D4300000CBDFD5300000CC00D6300000D1
:100AA000CCDED7300000CCDFD8300000CD00D9300C
:100AB0000000CDDEDA300000CDDFDB300000CE00FC
:100AC000DC300000CEDEDD300000CEDFDE300000A6
:100AD000CF00DF300000D000E0300000D100E13076
:100AE0000000D200E2300000D300E3300000AC0090
:100AF000E4300000D400E5300000AD00E630000036
:100B0000D500E7300000AE00E8300000D600E93044
:100B10000000D700EA300000D800EB300000D90018
:100B2000EC300000DA00ED300000DB00EF300000B8
:100B3000DC00F2300000A600F3300000DD00F430ED
:100B40000000B3DEF7300000DCDEFA300000A6DE85
:100B5000FB300000A500FC300000B000FD300000BC
:100B6000A400074E0000FB0086510000FC00435328
:100B70000000FA0064FF0000A40065FF0000A5006B
:100B800066FF0000A60067FF0000A70068FF0000E6
:100B9000A80069FF0000A9006AFF0000AA006BFF1F
:100BA0000000AB006CFF0000AC006DFF0000AD006A
:100BB0006EFF0000AE006FFF0000AF0070FF00008E
:100BC000B00071FF0000B10072FF0000B20073FFBF
:100BD0000000B30074FF0000B40075FF0000B50012
:100BE00076FF0000B60077FF0000B70078FF000036
:100BF000B80079FF0000B9007AFF0000BA007BFF5F
:100C00000000BB007CFF0000BC007DFF0000BD00B9
:100C10007EFF0000BE007FFF0000BF0080FF0000DD
:100C2000C00081FF0000C10082FF0000C20083FFFE
:100C30000000C30084FF0000C40085FF0000C50061
:100C400086FF0000C60087FF0000C70088FF000085
:100C5000C80089FF0000C9008AFF0000CA008BFF9E
:100C60000000CB008CFF0000CC008DFF0000CD0009
:100C70008EFF0000CE008FFF0000CF0090FF00002D
:100C8000D00091FF0000D10092FF0000D20093FF3E
:100C90000000D30094FF0000D40095FF0000D500B1
:100CA00096FF0000D60097FF0000D70098FF0000D5
:100CB000D80099FF0000D9009AFF0000DA009BFFDE
:100CC0000000DB009CFF0000DC009DFF0000DD0059
:100CD0009EFF0000DE009FFF0000DF00E5FF000038
:100CE0005C0000000000010204040000001C1C0C59
:100CF00004040402010000000000040810000000C9
:100D000000002D2D2D2D2D2D007C4D61726C696EF6
:100D10007C002D2D2D2D2D2D00001C1F11111F00CD
:100D2000000006191803130C00040E1F041C000019
:100D300000000E1315110E00001C101817050605F3
:100D400000040A0A0A0A11110E0C12120C0000000B
:100D500000001F1511151F00004C6F6164206D6DA0
:100D600000556E6C6F6164206D6D0046696C2E20BD
:100D70004469612E004520696E206D6DC2B300414B
:100D80006476616E6365204B004D333033205531FE
:100D90002045256920532569005049442041757438
:100DA0006F74756E65202A0020022046616374000E
:100DB0002002204D6178002002204D696E004F66B0
:100DC00066004F6E004175746F74656D7000565407
:100DD000726176204D696E00566D696E00566D61C8
:100DE00078204500566D6178205A00566D61782054
:100DF0005900566D6178205800416D61782045009A
:100E0000416D6178205A00416D6178205900416D33
:100E10006178205800412D54726176656C00412D37
:100E20005265747261637400416363656C004A7556
:100E30006E6374696F6E20446576004573746570E7
:100E4000732F6D6D005A73746570732F6D6D00593B
:100E500073746570732F6D6D005873746570732FA4
:100E60006D6D00416476616E6365642053657474D2
:100E7000696E6773003F0043616E63656C00496E85
:100E80006974004D34323800496E697469616C6967
:100E90007A6520454550524F4D0046696C616D653D
:100EA0006E740054656D706572617475726500537F
:100EB000746570732F6D6D004A65726B00416363DA
:100EC000656C65726174696F6E0056656C6F6369FD
:100ED00074790053657420486F6D65204F666673A2
:100EE00065747300436F6E66696775726174696FCC
:100EF0006E004C6576656C696E6720446F6E652187
:100F0000004D6F7665205A00473239205631004E29
:100F100065787420506F696E74002569202F202534
:100F2000750047323920563100436C69636B207479
:100F30006F20426567696E00486F6D696E67205863
:100F4000595A0053746F72652053657474696E67E3
:100F500073004C6F61642053657474696E6773002D
:100F60004F6666004F6E00426564204C6576656C86
:100F7000696E67004C6576656C20426564004D6F54
:100F800074696F6E004E6F7A7A6C650046616E20F0
:100F9000537065656400436F6E666967757261744E
:100FA000696F6E004C6F61642053657474696E677D
:100FB0007300526573746F7265206661696C73614A
:100FC00066650053746F72652053657474696E674B
:100FD0007300507265686561742041425320436F0D
:100FE0006E66005072656865617420504C41204304
:100FF0006F6E6600416476616E636564205365744C
:1010000074696E6773004D61696E004D3730322030
:10101000542564004D363030204230205425640081
:101020004D373032203B2564004D37303120542578
:101030006400436F6E74696E756500507572676504
:10104000206D6F726500524553554D45204F5054E9
:10105000494F4E533A005052494E54205041555337
:1010600045440020204E6F7A7A6C653A200050612A
:10107000726B696E672E2E2E000000576169742016
:10108000666F720066696C616D656E74206368617D
:101090006E676500746F20737461727400576169C4
:1010A0007420666F720066696C616D656E74207580
:1010B0006E6C6F616400004E6F7A7A6C65206865B3
:1010C0006174696E6700506C656173652077616952
:1010D000742E2E2E00005072657373206275747426
:1010E0006F6E00746F2068656174206E6F7A7A6C21
:1010F000650000496E736572742066696C616D6588
:101100006E7400616E642070726573732062757412
:10111000746F6E00746F20636F6E74696E75650016
:101120005761697420666F720066696C616D656EE7
:1011300074206C6F61640000507265737320427597
:1011400074746F6E00746F20726573756D652070B6
:1011500072696E7400005761697420666F72207046
:1011600072696E7400746F20726573756D652E2ED2
:101170002E00005761697420666F720066696C61A9
:101180006D656E74207075726765000052756E61D2
:101190007761792057617463683A204F4E004D6142
:1011A000782054656D7000323735003A20004D6963
:1011B0006E2054656D700035003A200045313A20AC
:1011C0004550434F53203130304B0050535500476A
:1011D000656E65726963003A200050726F746F63C8
:1011E0006F6C00312E30003A20004261756400318E
:1011F0003135323030003A200052414D50532031C9
:101200002E3400332D506F696E74204C6576656CFA
:10121000696E670045787472756465727300310099
:101220003A2000687474703A2F2F6D61726C696E89
:1012300066772E6F7267005246313030003230329E
:10124000302D30312D323700322E302E32004D61AC
:10125000726C696E00546865726D6973746F727335
:1012600000426F61726420496E666F005072696E51
:1012700074657220496E666F004D61696E003F00B3
:101280004261636B0053746F70004368616E676501
:101290002046696C616D656E7400507265686561A9
:1012A0007420414253005072656865617420437533
:1012B00073746F6D005072656865617420504C41A5
:1012C000004261636B005072696E742066726F6DCC
:1012D000204D65646961004D3231004368616E677D
:1012E00065204D656469610041626F7574205072BC
:1012F000696E746572004D363030204230004368AC
:10130000616E67652046696C616D656E7400436F40
:101310006E66696775726174696F6E0054656D7091
:1013200065726174757265004D6F74696F6E0052FD
:101330006573756D65205072696E74004E6F204D37
:10134000656469610054756E650053746F70205058
:1013500072696E74005061757365205072696E74A5
:1013600000496E666F2053637265656E003F0053DF
:1013700074617274205072696E740043616E6365AB
:101380006C005072696E740043616E6E6F742065FC
:101390006E746572207375626469723A2000052E5E
:1013A0002E004D61696E004D6F74696F6E004D388F
:1013B000340044697361626C6520537465707065B4
:1013C000727300426564204C6576656C696E6700D7
:1013D000473238004175746F20486F6D65004D616C
:1013E000696E00436F6F6C646F776E005072656852
:1013F00065617420414253005072656865617420D4
:10140000504C41004E6F7A7A6C65004D61696E00F8
:10141000416476616E6365204B00466C6F77004EC9
:101420006F7A7A6C65005370656564004D61696E12
:1014300000363726033C3D380F2E303E121A1C185A
:1014400008440A09430001627573793A2070617596
:1014500073656420666F7220696E7075740A00622D
:101460007573793A2070617573656420666F7220B8
:10147000757365720A00627573793A2070726F63D2
:10148000657373696E670A0053544F505045442E7C
:1014900020005072696E7465722073746F7070658D
:1014A000642064756520746F206572726F72732E8C
:1014B0002046697820746865206572726F722061B9
:1014C0006E6420757365204D39393920746F207230
:1014D0006573746172742E202854656D7065726135
:1014E000747572652069732072657365742E20535C
:1014F0006574206974206166746572207265737406
:10150000617274696E67290A004E6F2043686563D3
:101510006B73756D2077697468206C696E65206ED9
:10152000756D6265722C204C617374204C696E6518
:101530003A20004E6F20436865636B73756D2077AA
:10154000697468206C696E65206E756D6265722CB9
:10155000204C617374204C696E653A2000636865A5
:10156000636B73756D206D69736D617463682C2096
:101570004C617374204C696E653A20004C696E654D
:10158000204E756D626572206973206E6F74204CF9
:10159000617374204C696E65204E756D6265722BA7
:1015A000312C204C617374204C696E653A20004DDB
:1015B000313130004D313137004D3331005344204B
:1015C00072656164206572726F720A00446F6E65A5
:1015D000207072696E74696E672066696C650A00B6
:1015E0002121204B494C4C20636175736564206256
:1015F00079204B494C4C20627574746F6E2F706962
:101600006E0A002121204B494C4C206361757365A3
:101610006420627920746F6F206D75636820696E35
:101620006163746976652074696D65202D2063752A
:101630007272656E7420636F6D6D616E643A200026
:10164000506C656173652052657365740050524932
:101650004E5445522048414C5445440025533A20AD
:101660002553004B494C4C45442E20005072696E66
:101670007465722068616C7465642E206B696C6C93
:1016800028292063616C6C6564210A000000F04227
:101690000000F0420000F0420000000000000000E6
:1016A00000000000290A002062797465733B206302
:1016B0007263200053657474696E67732053746F8E
:1016C000726564202800454550524F4D2064617476
:1016D0006173697A65206572726F722E0A00290A39
:1016E000002062797465733B20637263200020736D
:1016F000746F7265642073657474696E67732072A9
:101700006574726965766564202800202863616CC1
:1017100063756C6174656429210A0020213D2000F5
:10172000454550524F4D20435243206D69736D61C2
:10173000746368202D202873746F726564292000FB
:101740002053697A653A2000496E6465783A200032
:10175000204D61726C696E3D563735290A0045454A
:1017600050524F4D2076657273696F6E206D6973AC
:101770006D617463682028454550524F4D3D0048C7
:10178000617264636F6465642044656661756C743E
:101790002053657474696E6773204C6F616465646F
:1017A0000A0000009643000096430000A04100009C
:1017B000C841D7A39D42D7A39D42000048440000E2
:1017C000E842F4010000F40100006400000010276A
:1017D000000020204D36303320002055004C0046BC
:1017E000696C616D656E74206C6F61642F756E6CD1
:1017F0006F6164206C656E677468733A0A0020201C
:101800004D393030204B004C696E65617220416467
:1018100076616E63653A0A0020440020490020206A
:101820004D33303120500050494420736574746941
:101830006E67733A0A0020460020420020480020CC
:10184000204D3134352053004D6174657269616CEF
:101850002068656174757020706172616D65746572
:1018600072733A0A0020204D343230205300417503
:10187000746F20426564204C6576656C696E673ACA
:101880000A0020204D323036205800486F6D652008
:101890006F66667365743A0A00204A00205400207F
:1018A000530020204D323035204200204A3C6A75DA
:1018B0006E635F6465763E00416476616E63656465
:1018C0003A20423C6D696E5F7365676D656E745F4B
:1018D00074696D655F75733E20533C6D696E5F661C
:1018E000656564726174653E20543C6D696E5F7419
:1018F000726176656C5F66656564726174653E00F1
:1019000020540020520020204D323034205000411D
:101910006363656C65726174696F6E2028756E69AA
:1019200074732F7332293A20503C7072696E745F61
:10193000616363656C3E20523C72657472616374CE
:101940005F616363656C3E20543C74726176656CC4
:101950005F616363656C3E0A0020204D32303120A8
:1019600058004D6178696D756D20416363656C65E4
:10197000726174696F6E2028756E6974732F73328B
:10198000293A0A0020204D3230332058004D61782A
:10199000696D756D20666565647261746573202874
:1019A000756E6974732F73293A0A005374657073E6
:1019B0002070657220756E69743A0A0020204D32DD
:1019C00030302044300A0020204D32303020440096
:1019D0002044697361626C65640A0046696C616DDC
:1019E000656E742073657474696E67733A002020A5
:1019F0004D3134392043203B20556E697473206982
:101A00006E2043656C736975730A0020286D6D291B
:101A1000002020473231202020203B20556E697461
:101A20007320696E206D6D006F70656E00545249B1
:101A3000474745524544003A20007A5F6D696E0081
:101A4000795F6D617800785F6D696E005265706FC7
:101A50007274696E6720656E6473746F702073743E
:101A6000617475730A00205A3A0020593A002043E5
:101A70006F756E7420583A0020453A00205A3A009B
:101A800020593A00583A00486F6D696E67204661E8
:101A9000696C656400000048420000484200008014
:101AA000405761726E696E673A20486F6D696E6764
:101AB0002042756D702044697669736F72203C20F6
:101AC000310A000202040000A0400000A040000013
:101AD00000400000F0420000F0420000F042000030
:101AE0000001000000010000800055555500000075
:101AF000400033333300AAAA2A0049922400000090
:101B00002000C7711C0099991900D145170055553F
:101B100015003BB1130024491200111111000000FF
:101B200010000F0F0F00E3380E0043790D00CCCCEE
:101B30000C00C3300C00E8A20B0064210B00AAAA21
:101B40000A00703D0A009DD80900427B09009224DA
:101B50000900DCD308008888080010420800000053
:101B60000800F0C107008787070075500700711C47
:101B700007003EEB0600A1BC060069900600666601
:101B80000600703E06006118060017F4050074D1C7
:101B900005005BB00500B290050062720500555566
:101BA000050078390500B81E0500050505004EEC56
:101BB000040087D40400A1BD040090A7040049924A
:101BC0000400C17D0400EE690400C75604004444CB
:101BD00004005C32040008210400411004000000ED
:101BE00004003FF00300F8E0030026D20300C3C363
:101BF0000300CCB503003AA803000A9B0300388E0B
:101C00000300C08103009F750300D0690300505E8C
:101C100003001D53030034480300913D0300333398
:101C2000030016290300381F030097150300300C2A
:101C30000300030303000BFA020049F10200BAE8B3
:101C400002005CE002002DD802002DD0020059C82D
:101C50000200B0C0020031B90200DAB10200AAAA43
:101C60000200A0A30200BC9C0200FA9502005C8F57
:101C70000200DF88020082820200457C0200277693
:101C8000020027700200436A02007C640200D05EFA
:101C900002003F590200C8530200FFFDFCFAF8F6AB
:101CA000F4F2F0EEECEAE9E7E5E3E1E0DEDCDAD9D4
:101CB000D7D5D4D2D0CFCDCBCAC8C7C5C3C2C0BF79
:101CC000BDBCBAB9B7B6B4B3B2B0AFADACAAA9A8EF
:101CD000A6A5A4A2A1A09E9D9C9A9998979594933D
:101CE00092908F8E8D8B8A8988878684838281806B
:101CF0007F7E7D7B7A797877767574737271706F79
:101D00006E6D6C6B6A696867666564636261605F6B
:101D10005E5D5C5B5A595858575655545352515052
:101D2000504F4E4D4C4B4A4A49484746464544431E
:101D3000424241403F3E3E3D3C3B3B3A39383837DA
:101D4000363535343332323130302F2E2E2D2C2B88
:101D50002B2A292928272726252524232322212128
:101D600020201F1E1E1D1C1C1B1B1A1919181817BA
:101D70001616151514131312121111100F0F0E0E43
:101D80000D0D0C0C0B0A0A090908080707060605C1
:101D90000504040303020201000024F4D43050C3FC
:101DA0008E20C2A24017828B7011127A910D816C25
:101DB000D90AA861E108C7586607615143061E4B5E
:101DC0005D05C145A7041A411104093D9803713905
:101DD00031034036DB0265339102D4305402802E49
:101DE0001D02632CEE01752AC501B028A001102741
:101DF00081018F2564012B244B01E0223401AC21A9
:101E00001F018D200D01801FFC00841EED00971D19
:101E1000DF00B81CD200E61BC600201BBC00641A01
:101E2000B200B219A8000A19A0006A189900D117C7
:101E3000910040178B00B516840031167E00B31553
:101E400079003A157300C7146F0058146A00EE1336
:101E500066008813630025135E00C7125B006C12D6
:101E6000570015125400C111510070114F0021117B
:101E70004B00D61049008D10470046104400021058
:101E80004200C00F4000800F3E00420F3C00060F92
:101E90003B00CB0E3800930E37005C0E3500270E4A
:101EA0003400F30D3200C10D3100900D3000600D93
:101EB0002E00320D2D00050D2C00D90C2B00AE0C80
:101EC0002900850C29005C0C2700350C27000E0C1E
:101ED0002600E80B2400C40B2400A00B23007D0B7C
:101EE00023005A0B2100390B2100180B2000F80A9F
:101EF0001F00D90A1E00BB0A1E009D0A1D00800A91
:101F00001D00630A1C00470A1B002C0A1B00110A53
:101F10001A00F7091A00DD091900C4091900AB09F4
:101F20001900920917007B091800630917004C0972
:101F3000160036091600200916000A091500F508D2
:101F40001500E0081400CC081400B8081400A40818
:101F50001400900813007D0812006B081300580845
:101F6000120046081200340811002308110012085C
:101F7000110001081100F0071000E0071000D00761
:101F80001000C0071000B0070F00A1071000910754
:101F90000E0083070F0074070F0065070E00570738
:101FA0000E0049070E003B070D002E070E0020070C
:101FB0000D0013070D0006070D00F9060C00ED06D5
:101FC0000D00E0060C00D4060C00C8060C00BC0690
:101FD0000C00B0060C00A4060B0099060C008D0640
:101FE0000B0082060B0077060B006C060B006106E7
:101FF0000A0057060B004C060A0042060A00380683
:102000000A002E060A0024060A001A060A00100614
:10201000090007060A00FD050900F4050900EB05A3
:102020000900E2050900D9050900D0050900C70526
:102030000900BE050900B5050800AD050800A505A5
:1020400009009C050800940508008C05080084051B
:1020500008007C050800740508006C05070065058C
:1020600008005D050700560508004E0507004705F6
:1020700007004005080038050700310507002A055C
:102080000700230507001C050600160507000F05BD
:1020900007000805060002050700FB040600F5041A
:1020A0000700EE040600E8040600E2040700DB0473
:1020B0000600D5040600CF040600C9040600C304C8
:1020C0000600BD040600B7040600B1040500AC0418
:1020D0000600A6040600A00405009B040600950463
:1020E0000500900406008A040500850405008004AC
:1020F00006007A04050075040500700405006B04F1
:10210000050066040500610405005C040500570431
:102110000500520405004D04050048040500430471
:1021200005003E0404003A040500350405003004AF
:1021300004002C04050027040400230405001E04E9
:1021400004001A04040016040500110404000D0420
:102150000400090405000404040000040400FC0356
:102160000400F8030400F4030400F0030400EC038B
:102170000400E8030400E4030400E0030400DC03BB
:102180000400D8030400D4030400D0030400CC03EB
:102190000400C8030300C503030024F404D9201B72
:1021A000C40C5C0E9804C4095F0265077101F40554
:1021B000F900FB04B30048048700C1036900580319
:1021C000550003034500BE023A0084023100530269
:1021D0002A002902250004022000E4011C00C80195
:1021E0001900AF0117009801140084011300710158
:1021F00010006101100051010E0043010D00360175
:102200000B002B010B0020010B00150109000C0134
:10221000090003010800FB000800F3000800EB00C0
:102220000700E4000600DE000600D8000600D20029
:102230000600CC000500C7000500C2000500BD0077
:102240000400B9000400B5000400B1000400AD00B2
:102250000400A9000400A5000300A20003009F00E1
:1022600004009B0003009800030095000200930007
:102270000300900003008D0002008B000300880023
:1022800002008600020084000300810002007F003B
:1022900002007D0002007B0002007900020077004E
:1022A000010076000200740002007200010071005B
:1022B00002006F0002006D0001006C0002006A0065
:1022C000010069000200670001006600010065006E
:1022D0000100640002006200010061000100600072
:1022E00001005F0002005D0001005C0001005B0076
:1022F00001005A0001005900010058000100570078
:102300000100560001005500010054000100530077
:102310000000530001005200010051000100500074
:1023200001004F0001004E0000004E0001004D0072
:1023300001004C0001004B0000004B0001004A006E
:10234000010049000100480000004800010047006A
:102350000100460000004600010045000000450065
:10236000010044000100430000004300010042005E
:102370000000420001004100000041000100400057
:1023800001003F0000003F0001003E0000003E0051
:1023900001003D0000003D0001003C0000003C0049
:1023A00000003C0001003B0000003B0001003A003F
:1023B00000003A0001003900000039000100380037
:1023C000000038000000380001003700000037002E
:1023D0000100360000003600000036000100350024
:1023E000000035000000350001003400000034001A
:1023F000000034000100330000003300000033000F
:102400000100320000003200000032000100310003
:1024100000003100000031000100300000003000F9
:102420000000300001002F0000002F0000002F00EE
:1024300000002F0001002E0000002E0000002E00E2
:1024400001002D0000002D0000002D0000002D00D7
:1024500001002C0000002C0000002C0000002C00CB
:1024600001002B0000002B0000002B0000002B00BF
:1024700001002A0000002A0000002A0000002A00B3
:1024800001002900000029000000290000002900A7
:10249000000029000100280000002800000028009A
:1024A000000028000000280001002700000027008D
:1024B0000000270000002700000027000100260080
:1024C0000000260000002600000026000000260074
:1024D0000100250000002500000025000000250067
:1024E0000000250000002500010024000000240059
:1024F000000024000000240000002400010023004C
:10250000000023000000230000002300000023003F
:102510000000230000002300010022000000220030
:102520000000220000002200000022000000220023
:102530000100210000002100000021000000210016
:102540000000210000002100000021000100200007
:1025500000002000000020000000200000002000FB
:1025600000002000000020000000200001001F00EB
:1025700000001F0000001F0000001F0000001F00DF
:1025800000001F0000001F0001001E0000001E00D0
:1025900000001E0000001E000000232C0000B822D6
:1025A0000000561800003A0F0000B8080000B104FF
:1025B0000000710200003E01000000546865726D69
:1025C000616C2052756E617761790048656174694C
:1025D0006E67204661696C65640048656174696E68
:1025E00067206661696C656400544845524D414CF2
:1025F0002052554E4157415900546865726D616CC7
:102600002052756E61776179004572723A204D41B2
:102610005854454D50004D415854454D502074720A
:1026200069676765726564004572723A204D494E6C
:1026300054454D50004D494E54454D5020747269DB
:10264000676765726564004D383420582059205AF8
:10265000204500202F0020403A0020573A004361D7
:102660006E6E6F74206F70656E2073756264697230
:10267000200053442063617264206F6B0A006F7006
:10268000656E526F6F74206661696C65640A0076CE
:102690006F6C756D652E696E6974206661696C6515
:1026A000640A00534420696E6974206661696C0A8B
:1026B000004D3234004D32332025730046696C657D
:1026C0002073656C65637465640A002053697A65DC
:1026D0003A200046696C65206F70656E65643A202B
:1026E00000454E4420535542524F5554494E450AD9
:1026F000002220706F73002220706172656E743A40
:102700002200535542524F5554494E452043414CA7
:102710004C207461726765743A2200747279696E34
:102720006720746F2063616C6C207375622D676322
:102730006F64652066696C657320776974682074BE
:102740006F6F206D616E79206C6576656C732E20DD
:102750004D4158206C6576656C2069733A310A00EA
:102760002E0A006F70656E206661696C65642C20AE
:1027700046696C653A200057726974696E67207407
:102780006F2066696C653A20006672657368006444
:102790006F696E67002066696C653A20004E6F773E
:1027A00020007C3C3E5E2B3D3F2F5B5D3B2C2A2274
:1027B0005C0000002100240027002A002D003000CA
:1027C000330001010000040107010A01000022009A
:1027D000250028002B002E003100340002010000EB
:1027E000050108010B01000020002300260029003C
:1027F0002C002F0032000001000003010601090136
:1028000005050505070508080808020202020A0A6C
:10281000080804040404010101010101010103038A
:10282000030303030303040707070C0C0C0C0C0C35
:102830000C0C0202020206060606060606060B0B32
:102840000B0B0B0B0B0B0102102020080810204073
:102850001020408002010201080402010102040864
:1028600010204080804020100804020180040201F2
:10287000804020100804020108040201010204083B
:1028800010204080010204081020408000000A0B44
:1028900002090C0D0E0807030401000000000000EF
:1028A0000000000000000000000000000000000028
:1028B00000000000000000001211100000000000E5
:1028C0000000000000000000000000000000000008
:1028D0000000687474703A2F2F6D61726C696E66B7
:1028E000772E6F726700687474703A2F2F6D617263
:1028F0006C696E66772E6F726700687474703A2F19
:102900002F6D61726C696E66772E6F726700322E62
:10291000302E3200322E302E3200322E302E320047
:10292000687474703A2F2F6D61726C696E66772EC1
:102930006F726700687474703A2F2F6D61726C69E2
:102940006E66772E6F726700687474703A2F2F6D01
:1029500061726C696E66772E6F72670020322E305E
:102960002E32002020506C616E6E65724275666674
:10297000657242797465733A20002046726565205D
:102980004D656D6F72793A2000436F6D70696C65AB
:10299000643A204A616E20323820323032300A00E8
:1029A000204C61737420557064617465643A203200
:1029B0003032302D30312D3237207C204175746813
:1029C0006F723A20286E6F6E652C206465666175A3
:1029D0006C7420636F6E666967290A00322E302E90
:1029E000320A004D61726C696E0020536F66747715
:1029F0006172652052657365740A002057617463C3
:102A000068646F672052657365740A002042726FB4
:102A1000776E206F75742052657365740A002045C7
:102A2000787465726E616C2052657365740A00502B
:102A30006F77657255700A0073746172740A006171
:102A400075746F25632E67004732385859006572D8
:102A5000726F722077726974696E6720746F206676
:102A6000696C650A00446F6E6520736176696E67F4
:102A70002066696C652E0A004D323900456E64731C
:102A8000746F707300255320256320256320256310
:102A900020256300205A3A0020593A0020583A0075
:102AA000656E6473746F7073206869743A200043B4
:102AB0004F4D4D554E49434154494F4E0044525994
:102AC00052554E004552524F525300494E464F0008
:102AD0004543484F0070012C0190012701B00122AD
:102AE00001C0011D01F00118011002130130020E96
:102AF000016002090190020401C002FF000003FA14
:102B0000004003F5008003F000D003EB002004E652
:102B1000007004E100E004DC004005D700C005D2ED
:102B2000004006CD00D006C8008007C3003008BEB4
:102B300000F008B900C009B400B00AAF00B00BAA99
:102B400000D00CA500000EA000500F9B00C01096F6
:102B5000005012910000148C00C0158700B017823D
:102B600000B0197D00D01B7800001E730040206E5D
:102B70000090226900F024640040275F0090295AE9
:102B800000E02B5500102E500020304B0010324634
:102B900000E033410090353C001037370070383288
:102BA00000A0392D00B03A2800A03B2300603C1E55
:102BB00000103D1900903D1400103E0F00703E0AB9
:102BC00000C03E0500003F0000403FFBFF803FF695
:102BD000FFC03FF1FF4D6F76652025736D6D0000DE
:102BE0004D6F766520302E316D6D004D6F7665200E
:102BF000316D6D004D6F76652031306D6D004D6F1C
:102C00007665204178697300486F74656E6420743E
:102C10006F6F20636F6C64004578747275646572C1
:102C2000004D6F7665205A004D6F76652059004D36
:102C30006F76652058005072696E742066726F6DF1
:102C4000204D6564696100496E76616C6964206538
:102C5000787472756465720A003F4B2076616C75FA
:102C600065206F7574206F662072616E676520281D
:102C7000302D3130292E0A00416476616E63652063
:102C80004B3D00454550524F4D204F4B0A004F667B
:102C90006673657473204170706C69656400457279
:102CA000723A20546F6F206661722100546F6F205A
:102CB0006661722066726F6D207265666572656E00
:102CC000636520706F696E740A00FF01FF000000E9
:102CD000000000F04200000000426564204C657670
:102CE000656C696E6720004661696C656420746F6D
:102CF00020656E61626C6520426564204C65766576
:102D00006C696E670A00426564204C6576656C20CC
:102D1000436F7272656374696F6E204D617472697E
:102D2000783A0064697300656E0043290A006162A5
:102D30006C656420286D696E2074656D7020004399
:102D40006F6C642065787472756465732061726558
:102D5000200020643A0020693A0020703A00496E51
:102D600076616C69642065787472756465720A00B6
:102D700020466C6F773A20004F4646004F4E0020A9
:102D8000580020204D61783A2000200020204D6915
:102D90006E3A2000536F667420656E6473746F70B2
:102DA000733A20003F4A206F7574206F662072616D
:102DB0006E67652028302E303120746F20302E331E
:102DC000290A00205400205200416363656C65723B
:102DD0006174696F6E3A2050004D31343520533C98
:102DE000696E6465783E206F7574206F662072612D
:102DF0006E67652028302D31290A002F2F200043CF
:102E000048414D4245525F54454D504552415455FD
:102E10005245004D4F54494F4E5F4D4F444553006E
:102E2000544845524D414C5F50524F5445435449CC
:102E30004F4E004155544F5245504F52545F5344EA
:102E40005F5354415455530050524F4D50545F53AB
:102E50005550504F525400454D455247454E4359E9
:102E60005F50415253455200434153455F4C4947DF
:102E700048545F4252494748544E45535300544FBB
:102E800047474C455F4C494748545300534F4654BD
:102E9000574152455F504F574552004255494C44A7
:102EA0005F50455243454E54004C4556454C494EA3
:102EB000475F44415441005A5F50524F42450041E0
:102EC00055544F4C4556454C005052494E545F4A5C
:102ED0004F420050524F4752455353004155544FB3
:102EE0005245504F52545F54454D5000564F4C552B
:102EF0004D455452494300454550524F4D004249BB
:102F00004E4152595F46494C455F5452414E5346DB
:102F100045520053455249414C5F584F4E5F584F00
:102F20004646004649524D574152455F4E414D4538
:102F30003A4D61726C696E20322E302E3220284755
:102F400069744875622920534F555243455F434F7A
:102F500044455F55524C3A68747470733A2F2F672A
:102F600069746875622E636F6D2F4D61726C696E46
:102F70004669726D776172652F4D61726C696E2062
:102F800050524F544F434F4C5F56455253494F4E4A
:102F90003A312E30204D414348494E455F545950F7
:102FA000453A5246313030204558545255444552E6
:102FB0005F434F554E543A3120555549443A636565
:102FC0006465326132662D343161322D34373438E4
:102FD0002D396231322D63353563363266333637FB
:102FE00066660A005246313030204F46462E004D6C
:102FF0003131332053004D313132205368757464C0
:103000006F776E006F666600D02ACB2AC42ABD2A6D
:10301000AF2A44454255473A006F6B00436F6F6CCF
:10302000696E672E2E2E0048656174696E672E2EBC
:103030002E00452025530050726F746563746564DB
:103040002050696E0A002569730025696D20256985
:1030500073002569682025696D202569730025693D
:1030600064202569682025696D202569730025691C
:103070007920256964202569682025696D202569E6
:1030800073005072696E742074696D653A20002E69
:103090000A0044656C6574696F6E206661696C65D1
:1030A000642C2046696C653A200046696C65206492
:1030B000656C657465643A00286E6F2066696C659E
:1030C000290043757272656E742066696C653A20DA
:1030D000005344207072696E74696E67206279745F
:1030E0006520004E6F74205344207072696E7469BD
:1030F0006E670A00456E642066696C65206C6973B2
:10310000740A00426567696E2066696C65206C69A7
:1031100073740A004E6F204D6F76652E00436C6904
:10312000636B20746F20526573756D652E2E2E00B3
:10313000536C6565702E2E2E0047322F4733206268
:10314000616420706172616D65746572730A00203C
:10315000746F6F206C6F6E67206578747275736919
:103160006F6E2070726576656E7465640A00206308
:103170006F6C6420657874727573696F6E207072FD
:103180006576656E7465640A00220A00556E6B6E82
:103190006F776E20636F6D6D616E643A2022004818
:1031A0006F6D6520257325732573204669727374CE
:1031B0000020746F6F206C6F6E6720657874727575
:1031C00073696F6E2070726576656E7465640A004F
:1031D00020636F6C6420657874727573696F6E20FC
:1031E00070726576656E7465640A00204500205A29
:1031F00000205900204D39322058002E0A006F70EF
:10320000656E206661696C65642C2046696C653A60
:1032100020004531002C2073797374656D20737420
:103220006F7070656421204865617465725F494400
:103230003A200000DDEB8EE511241FBECFEFD1E276
:10324000DEBFCDBF00E00CBF13E0A0E0B2E0EAE9D2
:10325000F6EF01E00BBF02C007900D92A036B10758
:10326000D9F724E1A0E6B3E001C01D92AD39B20761
:10327000E1F719E1CBE1D9E100E006C021970109AE
:10328000802FFE010E94AFFACA31D10780E0080703
:10329000A9F70E94D8E50C943CFB0C9400008091A7
:1032A0004A0581110AC080913D04813041F080912E
:1032B000FE1382FB882780F9089580E0089581E05D
:1032C00008954F925F926F927F928F929F92AF92EA
:1032D000BF92CF92DF92EF92FF92CF93DF93CDB761
:1032E000DEB762970FB6F894DEBF0FBECDBF9A8BE4
:1032F000898BDB01FA012D913D914D915C911397E2
:1033000029833A834B835C832481358146815781AD
:103310002D833E834F83588714964D905D906D901A
:103320007C901797208131814281538129873A8788
:103330004B875C8718968D909D90AD90BC901B97A5
:10334000C084D184E284F384A7019601C301B20151
:103350000E9492F16D877E878F87988BA5019401DB
:103360006D817E818F8198850E9492F19B01AC01D5
:103370006D857E858F8598890E9492F7E989FA8903
:103380006083718382839383A501940169857A8523
:103390008B859C850E9492F14B015C01A7019601EF
:1033A00069817A818B819C810E9492F19B01AC01A1
:1033B000C501B4010E9492F7E989FA896483758393
:1033C000868397832D813E814F81588569817A81DB
:1033D0008B819C810E9492F16B017C0129853A8549
:1033E0004B855C85C301B2010E9492F19B01AC0147
:1033F000C701B6010E9492F7E989FA89608771874F
:1034000082879387CF0162960FB6F894DEBF0FBE16
:10341000CDBFDF91CF91FF90EF90DF90CF90BF9025
:10342000AF909F908F907F906F905F904F90089596
:103430008F929F92AF92BF92CF92DF92EF92FF92C4
:10344000CF93FC01C080D180E280F38020E030E0A7
:10345000A901C701B6010E942DF187FF93C0C701E2
:10346000B601905820E030E048EC52E40E9492F11E
:1034700020E030E040EA50E40E9493F720E030E0A2
:1034800040E251E40E946FF80E94D7F86B017C0182
:1034900080E280931C0460E2F0E1CF16F7E2DF06E1
:1034A000E104F1048CF0C701B60120E137E240E00D
:1034B00050E00E9493FACA01B9012AE030E040E0EE
:1034C00050E00E9493FA605D60931D0460E288EE14
:1034D000C81683E0D806E104F1048CF0C701B601F8
:1034E00028EE33E040E050E00E9493FACA01B901AF
:1034F0002AE030E040E050E00E9493FA605D609383
:103500001E0460E2E4E6CE16D104E104F1048CF07E
:10351000C701B60124E630E040E050E00E9493FA93
:10352000CA01B9012AE030E040E050E00E9493FA7D
:10353000605D60931F048AE0882E912CA12CB12C31
:10354000C701B601A50194010E9493FAC62FCA01D2
:10355000B901A50194010E9493FA605D6093200473
:103560008EE280932104C05DC09322048CE194E03C
:10357000CF91FF90EF90DF90CF90BF90AF909F9052
:103580008F90089520E030E048EC52E4C701B60186
:103590006DCFCF92DF92EF92FF92FC01C080D1807D
:1035A000E280F38020E030E0A901C701B6010E946B
:1035B0002DF187FF69C0C701B601905820E030E0C7
:1035C00040E251E40E9492F120E030E040EA50E411
:1035D0000E9493F720E030E040E251E40E946FF84F
:1035E0000E94D7F8FB01E03187E2F80708F453C0E6
:1035F000CF0160E177E20E946CFA80E3860F80934E
:103600001E04E83E83E0F80708F447C0CF0168EEE7
:1036100073E00E946CFACB016AE070E00E946CFAE1
:10362000805D80931F0480E2E436F10558F0CF01FD
:1036300064E670E00E946CFACB016AE070E00E94E0
:103640006CFA805D8093200480E2EA30F10558F046
:103650002AE030E0CF01B9010E946CFACB01B90138
:103660000E946CFA805D80932104CF016AE070E0D3
:103670000E946CFA805D809322048EE194E0FF90BA
:10368000EF90DF90CF90089520E030E040E251E4E9
:10369000C701B60197CF80E2B2CF80E2C2CF8F924E
:1036A0009F92AF92BF92CF92DF92EF92FF92CF9311
:1036B000C62FFC01C080D180E280F38020E030E49E
:1036C0004CE156E4C701B6010E9492F14B015C0146
:1036D00020E030E0A901C701B6010E942DF120E0F1
:1036E00030E040EA50E487FF04C020E030E040EAE8
:1036F00050ECC501B4010E9493F720E030E040E2B5
:1037000051E40E946FF80E94D7F86B017C01C1144C
:10371000D104E104F10409F456C0F7FE09C0F094A5
:10372000E094D094C094C11CD11CE11CF11CCDE2EA
:10373000C0931D04C701B60128EE33E040E050E01D
:103740000E9493FA8AE0882E912CA12CB12CCA01F8
:10375000B901A50194010E9493FA605D60931E0473
:103760008EE280931F04C701B60124E630E040E0FA
:1037700050E00E9493FACA01B901A50194010E9488
:1037800093FA605D60932004C701B601A50194011E
:103790000E9493FAC62FCA01B901A50194010E94A3
:1037A00093FA605D60932104C05DC09322048DE1B3
:1037B00094E0CF91FF90EF90DF90CF90BF90AF90CB
:1037C0009F908F900895C0E2B3CF8F929F92AF9257
:1037D000BF92CF92DF92EF92FF92FC01C080D18026
:1037E000E280F38020E030E048EC52E4C701B6010B
:1037F0000E9492F14B015C0120E030E0A901C70179
:10380000B6010E942DF120E030E040EA50E487FF4D
:1038100004C020E030E040EA50ECC501B4010E9451
:1038200093F720E030E040E251E40E946FF80E94FC
:10383000D7F89B018BE237FF05C022273327261BD1
:10384000370B8DE280931D04C90168EE73E00E947E
:1038500080FACB01EAE0F0E0BF010E9480FA805DCF
:1038600080931E04C90164E670E00E9480FACB01D7
:10387000BF010E9480FA805D80931F04C901BF01CF
:103880000E9480FA282FCB01BF010E9480FA805D40
:10389000809320048EE280932104205D20932204F3
:1038A0008DE194E0FF90EF90DF90CF90BF90AF90CC
:1038B0009F908F9008958F929F92AF92BF92CF92D8
:1038C000DF92EF92FF92CF93FC01C080D180E28023
:1038D000F38020E030E04AE754E4C701B6010E94DB
:1038E00092F14B015C0120E030E040E251ECC70175
:1038F000B6010E942DF1181654F420E030E048EC97
:1039000052E4C701B6010E94B9F987FD86C020E0E4
:1039100030E0A901C701B6010E942DF187FF6EC0FA
:1039200060E070E080EA90ECA50194010E9493F7BA
:1039300020E030E040E251E40E946FF80E94D7F8A6
:103940006B017C01F7FC5FC020E137E240E050E012
:103950000E9493FACA01B9012AE030E040E050E049
:103960000E9493FA605D60931D04C701B60128EEC2
:1039700033E040E050E00E9493FA9AE0892E912CC7
:10398000A12CB12CCA01B901A50194010E9493FA9E
:10399000605D60931E04C701B60124E630E040E09C
:1039A00050E00E9493FACA01B901A50194010E9456
:1039B00093FA605D60931F048EE280932004C70138
:1039C000B601A50194010E9493FAC62FCA01B9015C
:1039D000A50194010E9493FA605D60932104C05D8B
:1039E000C09322048DE194E0CF91FF90EF90DF909F
:1039F000CF90BF90AF909F908F90089560E070E05F
:103A000080EA90E491CFF094E094D094C094C11CEB
:103A1000D11CE11CF11C6DE2A6CF20E030E0A90131
:103A2000C701B6010E942DF187FF6AC060E070E017
:103A300080EA90ECA50194010E9493F720E030E029
:103A400040E251E40E946FF80E94D7F84B015C01FC
:103A500020E030E0A901C701B6010E94B9F987FD55
:103A60000BC020E030E040E251E4C701B6010E9403
:103A70002DF160E287FD13C0B7FC47C0C501B4015A
:103A800028EE33E040E050E00E9493FACA01B90109
:103A90002AE030E040E050E00E9493FA605D6093DD
:103AA0001E04C501B40124E630E040E050E00E946D
:103AB00093FA8AE0C82ED12CE12CF12CCA01B9016D
:103AC000A70196010E9493FA605D60931F048EE245
:103AD00080932004C501B401A70196010E9493FAC6
:103AE000C62FCA01B901A70196010E9493FA605D31
:103AF00060932104C05DC09322048EE194E074CFF2
:103B000060E070E080EA90E495CFB094A094909447
:103B10008094811C911CA11CB11C6DE2C0CF9C0142
:103B200097FF26C0EE27FF27E81BF90B2D398FEFF3
:103B300038070CF05DC08DE280931F04CF0164E66E
:103B400070E00E9480FACB012AE030E0B9010E94C7
:103B500080FA805D80932004CF01B9010E9480FA31
:103B6000CB01B9010E9480FA805D809321042AC0B4
:103B7000283E83E03807B4F1C90168EE73E00E9483
:103B800080FACB01EAE0F0E0BF010E9480FA805D9C
:103B900080931F04C90164E670E00E9480FACB01A3
:103BA000BF010E9480FA805D80932004C901BF019B
:103BB0000E9480FACB01BF010E9480FA805D809351
:103BC0002104F901CF016AE070E00E9480FA805D73
:103BD000809322048FE194E008958DE237FDC5CFF4
:103BE00080E2C3CFF90180E2243631050CF0A4CF86
:103BF00080E280931F0480932004EA30F1056CF387
:103C00008DE237FF80E280932004CF016AE070E00C
:103C10000E9480FA605D60932104D4CF9C01EAE0A9
:103C2000F0E0BF010E9480FA805D809322042A3078
:103C30003105CCF0CB01BF010E9480FA805D8093FA
:103C400021042436310594F0C90164E670E00E9435
:103C500080FACB01BF010E9480FA805D809320042E
:103C600080E294E0089582E294E0089581E294E095
:103C700008959C0197FD2DC080E2243631055CF04B
:103C8000C90164E670E00E9480FACB016AE070E04E
:103C90000E9480FA805D8093200480E22A30310502
:103CA0005CF0EAE0F0E0C901BF010E9480FACB01BC
:103CB000BF010E9480FA805D80932104C9016AE0FF
:103CC00070E00E9480FA805D8093220480E294E09C
:103CD00008953195219531098DE2DDCF24E6829F4B
:103CE000C001112481589F4F6FEF70E00E9480FA4D
:103CF000262F81E3643609F080E280931F0490E26E
:103D00002A3040F03AE0822F632F0E9460FA0E942E
:103D100060FA905D90932004822F6AE00E9460FA1E
:103D2000905D9093210485E2809322048FE194E0DA
:103D300008956091290270912A02072E000C880BC9
:103D4000990B0E9433F12AE037ED43E25CE30E94D5
:103D500092F1209174083091750840917608509145
:103D600077080E9492F160936102709362028093DF
:103D700063029093640208950C94A92B8091F4132C
:103D80008823C1F081508093F413E1E8F2E18823A5
:103D900051F08150990B2BE1289FF001299FF00DE4
:103DA0001124EA51FD4E8BE1A6E6B2E101900D929D
:103DB0008A95E1F72091F413211105C08091FE133B
:103DC00080628093FE1381E090E0A0E0B0E02111DA
:103DD00003C080E090E0DC01809303089093040826
:103DE000A0930508B09306081092FB0781E080932A
:103DF000130883E080934A020895CF92DF92EF92F6
:103E0000FF9223EF34E045E35FE36091D7087091C0
:103E1000D8088091D9089091DA080E9492F16B013C
:103E20007C01609176117091771180917811909159
:103E300079110E9431F19B01AC01C701B6010E94CA
:103E400092F129E732E84AE550E40E9492F10E949B
:103E5000FFF96093EF087093F0088093F108909356
:103E6000F208FF90EF90DF90CF90089580919F121D
:103E70009091A012891B8F7009F411CA81E00895F6
:103E8000CF93DF93EC01CB01BA010E9433F120E024
:103E900030E048EC51E40E9492F10E94DCF8688323
:103EA00079838A839B83DF91CF910895CF93DF93AA
:103EB000EC01CB01BA010E9433F12DEC3CEC4CEC4F
:103EC0005DE30E9492F1688379838A839B83DF910B
:103ED000CF910895CF93DF9300D01F92CDB7DEB777
:103EE0000E9433F12DEC3CEC4CEC5DE30E9492F12E
:103EF00069837A838B839C83CE01019699DA0F9034
:103F00000F900F900F90DF91CF910895CF93DF9393
:103F1000EC01CB01BA010E9433F120E030E048EC23
:103F200051E40E9492F1688379838A839B83DF91B5
:103F3000CF910895CF93DF9300D01F92CDB7DEB716
:103F40000E9433F120E030E048EC51E40E9492F10D
:103F500069837A838B839C83CE0101961ADB0F9051
:103F60000F900F900F90DF91CF910895CF93DF9333
:103F700000D01F92CDB7DEB70E9433F169837A83F8
:103F80008B839C83CE01019604DB0F900F900F90E2
:103F90000F90DF91CF910895CF93DF93EC01CB0188
:103FA000BA010E9433F1688379838A839B83DF910E
:103FB000CF910895CF93DF93EC01CB01BA010E941A
:103FC00033F1688379838A839B83DF91CF9108954E
:103FD000CF93DF93EC01CB01BA010E9433F12FE6BE
:103FE00032E143E85AE30E9492F1688379838A833D
:103FF0009B83DF91CF910895CF93DF9300D01F92E1
:10400000CDB7DEB70E9433F12FE632E143E85AE341
:104010000E9492F169837A838B839C8360E2CE0154
:1040200001963DDB0F900F900F900F90DF91CF9195
:104030000895CF93DF93EC01CB01BA010E9433F1D5
:104040002AE037ED43E25CE30E9492F168837983D2
:104050008A839B83DF91CF910895CF93DF9300D024
:104060001F92CDB7DEB70E9433F12AE037ED43E26D
:104070005CE30E9492F169837A838B839C83CE01F7
:10408000019619DC0F900F900F900F90DF91CF9158
:1040900008950E9433F10E94D7F8CB01EACDCF9367
:1040A000DF93EC01CB01BA010E9433F10E94D7F8F3
:1040B00079836883DF91CF9108950E9433F123E3E0
:1040C00033E343E250E40E9492F10E94DCF8862F31
:1040D00005CECF93DF93EC01CB01BA010E9433F1FF
:1040E00023E333E343E250E40E9492F10E94DCF8C0
:1040F0006883DF91CF910895CF93DF9300D01F9213
:10410000CDB7DEB70E94DCF80E9431F169837A8373
:104110008B839C83CE0101963CDA0F900F900F9019
:104120000F90DF91CF9108950E9433F120E030E0AD
:1041300048EC51E40E9492F1DFCFCF92DF92EF92F0
:10414000FF926B017C0120E030E0A9010E942DF17B
:1041500020E030E040E05FE387FF04C020E030E093
:1041600040E05FEBC701B6010E9493F70E94D7F8C9
:10417000CB01FF90EF90DF90CF907BCD0E9433F189
:10418000DCCFFC0180810895FC0184910895AF92F9
:10419000BF92CF92DF92EF92FF920F931F93CF9334
:1041A000DF93EC015B018A01FB01199587FD16C0C5
:1041B000C82ED12CF12CE12C2196F801C082D1829D
:1041C000E282F382CE01DF91CF911F910F91FF9098
:1041D000EF90DF90CF90BF90AF900895982F907E92
:1041E000903CA9F48F7190E0B0E0A0E06C017D01FB
:1041F00026E0CC0CDD1CEE1CFF1C2A95D1F7CE016D
:104200000196F50119958F73C82A2296D6CF982F5B
:10421000907F903E11F58F7090E0B0E0A0E06C01CF
:104220007D0186E0CC0CDD1CEE1CFF1C8A95D1F7CD
:10423000CE010196F50119958F73C82A96E0CC0C32
:10424000DD1CEE1CFF1C9A95D1F7CE010296F501FC
:1042500019958F73C82A2396B0CF982F987F903FD7
:1042600079F5877090E0B0E0A0E06C017D01F6E0A8
:10427000CC0CDD1CEE1CFF1CFA95D1F7CE0101968B
:10428000F50119958F73C82AA6E0CC0CDD1CEE1C35
:10429000FF1CAA95D1F7CE010296F50119958F73EF
:1042A000C82AB6E0CC0CDD1CEE1CFF1CBA95D1F779
:1042B000CE010396F50119958F73C82A24967DCFF8
:1042C000982F9C7F983FE1F5837090E0B0E0A0E0EC
:1042D0006C017D0156E0CC0CDD1CEE1CFF1C5A95D8
:1042E000D1F7CE010196F50119958F73C82A66E0C2
:1042F000CC0CDD1CEE1CFF1C6A95D1F7CE0102969A
:10430000F50119958F73C82A76E0CC0CDD1CEE1CE4
:10431000FF1C7A95D1F7CE010396F50119958F739D
:10432000C82AE6E0CC0CDD1CEE1CFF1CEA95D1F798
:10433000CE010496F50119958F73C82A25963DCFB5
:10434000982F9E7F9C3F09F049C0817090E0B0E0BB
:10435000A0E06C017D0186E0CC0CDD1CEE1CFF1C96
:104360008A95D1F7CE010196F50119958F73C82A68
:1043700096E0CC0CDD1CEE1CFF1C9A95D1F7CE010B
:104380000296F50119958F73C82A26E0CC0CDD1C26
:10439000EE1CFF1C2A95D1F7CE010396F501199565
:1043A0008F73C82A36E0CC0CDD1CEE1CFF1C3A953E
:1043B000D1F7CE010496F50119958F73C82A46E00E
:1043C000CC0CDD1CEE1CFF1C4A95D1F7CE010596E6
:1043D000F50119958F73C82A2696EFCE982F907CF9
:1043E000903841F4807C803869F42196CE01F50143
:1043F0001995F8CF8E7F8D3F28F02196CE01F501DB
:104400001995F8CFC12CD12C7601D7CE9091B90552
:10441000E92FF0E0EA5CFB4E80839F5F943040F42C
:104420009093B90580913D078F5F80933D07089574
:104430001092B905F7CF282F9091CF08833021F43F
:1044400095FD0FC094FD0FC0892F90E0B0E0A0E073
:1044500004C0B695A795979587952A95D2F7817050
:10446000089581E0089580E008950C94878B0C9462
:10447000878B0C94878B0C94878B4F925F926F92F3
:104480007F928F929F92AF92BF92CF92DF92EF92E4
:10449000FF92CF93DF9300D000D0CDB7DEB79E83DD
:1044A0008D83DC014D905D906D907C9013971496F8
:1044B0008D909D90AD90BC90179718968D919D9181
:1044C0000D90BC91A02D89839A83AB83BC83A301FB
:1044D0009201C301B2010E9492F16B017C01A5011E
:1044E0009401C501B4010E9492F19B01AC01C70186
:1044F000B6010E9493F76B017C0129813A814B81BF
:104500005C81CA01B9010E9492F19B01AC01C70113
:10451000B6010E9493F70E94FFF99B01AC0160E095
:1045200070E080E89FE30E946FF86B017C01AC01B2
:104530009B01C301B2010E9492F1ED81FE81608373
:10454000718382839383A7019601C501B4010E9400
:1045500092F1AD81BE8114966D937D938D939C9362
:104560001797A701960169817A818B819C810E94AE
:1045700092F1ED81FE81608771878287938726960D
:104580000FB6F894DEBF0FBECDBFDF91CF91FF9085
:10459000EF90DF90CF90BF90AF909F908F907F90E3
:1045A0006F905F904F9008950C94098B0C94098B39
:1045B0000C94098B0C94098B0F931F930E94D47752
:1045C00000910414109105142091061430910714E1
:1045D0000115110521053105D9F520910A14222371
:1045E000A1F1E0910814215020930A1421E02E0F2C
:1045F0002093081430910B14231302C01092081456
:1046000024E0E29FF0011124E45FFB4E0081118160
:10461000228133810093001410930114209302141B
:1046200030930314600F711F811D911D609304145A
:1046300070930514809306149093071480910214CC
:1046400090910314892B09F0409A1F910F910895BE
:10465000601B710B820B930B97FDF7CF4098109264
:104660000414109205141092061410920714EDCF42
:10467000CF92DF92EF92FF92CF93C82F0E94D47710
:104680006B017C0124EA30E74DE75FE36091180499
:104690007091190480911A0490911B040E942DF1CD
:1046A00087FD18C08AEF90E0A0E0B0E08C0D9D1D62
:1046B000AE1DBF1D8093130490931404A0931504A2
:1046C000B0931604C0930402CF91FF90EF90DF9057
:1046D000CF90089580E090E0DC01E8CFCF92DF92A8
:1046E000EF92FF920F931F930E94D4770091B4032F
:1046F0001091B5032091B6033091B7036B017C0193
:10470000C01AD10AE20AF30A9701860137FD11C0E7
:104710002091B30320952093B3036A547C4F8F4FAD
:104720009F4F6093B4037093B5038093B603909347
:10473000B70381E09091B303911101C080E01F9114
:104740000F91FF90EF90DF90CF900895CF92DF927E
:10475000EF92FF920F931F93CF93DF9300D000D07F
:10476000CDB7DEB78A0146E0469F9001479F300DE6
:104770001124BC01620F731F46E050E0CE01019688
:104780000E946CF0C980DA80EB80FC80F8014081E7
:104790005181628173818FEF9FEFC416D506E606C3
:1047A000F70640F081E090E04C155D056E057F0551
:1047B00008F080E026960FB6F894DEBF0FBECDBF9E
:1047C000DF91CF911F910F91FF90EF90DF90CF90ED
:1047D00008950C948EB00C948EB060E579E383E07C
:1047E0000C9420E36BEF7AE382E00C9420E36FEF0C
:1047F0007AE381E00C9420E363E07BE380E00C94B7
:1048000020E3EF92FF920F931F938EE7E82E82E151
:10481000F82E10E000E02AE433E14CE75CE260E8C7
:1048200072E185E892E10E94B8CB1F910F91FF9051
:10483000EF900895EF92FF920F931F9385E7E82E74
:104840008EE0F82E10E000E028E83EE040E959E272
:1048500067E77EE08EE79EE00E94B8CB1F910F9144
:10486000FF90EF900895CF92DF92EF92FF920F9317
:104870001F93CF93DF93CDB7DEB7CDB6DEB6809171
:10488000230866E178E0882311F063E278E0FB0119
:1048900001900020E9F7CF01861B970B01962DB7F9
:1048A0003EB7281B390B0FB6F8943EBF0FBE2DBF85
:1048B0000DB71EB70F5F1F4F80E2EDB7FEB78183C4
:1048C000C80101960E940DFB8DE6E82E83E1F82ECB
:1048D0002FE633E147E15DE46BE773E182E893E1C2
:1048E0000E94B8CB0FB6F894DEBE0FBECDBEDF91EE
:1048F000CF911F910F91FF90EF90DF90CF9008958F
:104900000F931F93CF93DF938B01C1E5D2E02091EA
:104910006102309162024091630250916402FC0195
:1049200060817181828193810E946FF82C853D8521
:104930004E855F850E9493F76C877D878E879F8762
:10494000C8010E94CB9EDF91CF911F910F910C94D3
:10495000AA8BEF92FF920F931F93CF93DF9300D018
:1049600000D01F921F92CDB7DEB78E010F5F1F4F91
:10497000D80130E020E0FB01E20FF31FE491ED935A
:104980002F5F3F4F28303105B1F7877028E0829FB5
:10499000C001112480640E943BB1780188E0E80ED8
:1049A000F11CF80161918F018CE194E10E9405797D
:1049B000E016F106B1F728960FB6F894DEBF0FBEE9
:1049C000CDBFDF91CF911F910F91FF90EF90089590
:1049D0000F931F93CF93DF93CDB7DEB72E970FB60C
:1049E000F894DEBF0FBECDBF8A011E861D866F8381
:1049F000788789879A872FEF2B8760387105810523
:104A0000910538F48CE194E10E94057981E090E011
:104A10002FC09E01235F3F4FAE01495F5F4F69EB9F
:104A200070E08CE898E00E94E7B097FD2CC08D857F
:104A30009E8526E0289FB001299F700D11246457A0
:104A4000774F46E050E0CE0101960E946CF06D81F8
:104A50008CE194E10E94057901301105B9F26E8173
:104A60006623A1F28CE194E10E94057982E090E056
:104A70002E960FB6F894DEBF0FBECDBFDF91CF915B
:104A80001F910F9108959E01235F3F4FAE01495F33
:104A90005F4F60E670E08CE496E00E94E7B097FD1F
:104AA0000BC08D859E8526E0289FB001299F700D43
:104AB0001124645B794FC5CF6FE3A4CF4F925F920F
:104AC0006F927F928F929F92AF92BF92CF92DF921E
:104AD000EF92FF920F931F93CF93DF9300D000D0FC
:104AE000CDB7DEB78090510290905202A090530251
:104AF000B0905402C0905502D0905602E0905702F8
:104B0000F09058028091590290915A02A0915B0254
:104B1000B0915C0289839A83AB83BC830E94098B2A
:104B20000E94427408E916E1ACE2B2E0BE83AD83B4
:104B30008CE8682E86E1782E512C852D0E94D29D1E
:104B4000F80185919591A591B491ED81FE818193B4
:104B50009193A193B193FE83ED83F3018591959198
:104B6000A591B491ED81FE8180879187A287B3875B
:104B700053940C5F1F4FF4E06F0E711C83E05812CA
:104B8000DCCF23EF34E045E35FE36091D708709119
:104B9000D8088091D9089091DA080E9492F12B01EF
:104BA0003C0160917611709177118091781190910C
:104BB00079110E9431F19B01AC01C301B2010E9445
:104BC00092F129E732E84AE550E40E9492F10E940E
:104BD000FFF96093EF087093F0088093F1089093C9
:104BE000F2080E94878BA501940160915102709197
:104BF000520280915302909154020E942DF1811132
:104C00001EC0A701960160915502709156028091D5
:104C10005702909158020E942DF1811110C02091ED
:104C2000590230915A0240915B0250915C026981B5
:104C30007A818B819C810E942DF18823C1F0269678
:104C40000FB6F894DEBF0FBECDBFDF91CF911F919D
:104C50000F91FF90EF90DF90CF90BF90AF909F901B
:104C60008F907F906F905F904F900C9487A72696BF
:104C70000FB6F894DEBF0FBECDBFDF91CF911F916D
:104C80000F91FF90EF90DF90CF90BF90AF909F90EB
:104C90008F907F906F905F904F900895129A089533
:104CA0005F9A8091B9088E7F8093B9088A9A809123
:104CB000B9088D7F8093B908809108018095817033
:104CC000809306018091B9088B7F8093B908E6CF65
:104CD000CF92DF92EF92FF920F931F93CF93DF93C8
:104CE000CDB7DEB760970FB6F894DEBF0FBECDBF6D
:104CF00080916F00182F127081FF05C080916F00A6
:104D00008D7F80936F008091A01280939F1280937B
:104D10009E1280939D1284E680939C120E94D391F0
:104D200088EE93E090935D0F80935C0F112329F040
:104D300080916F00826080936F0081E080933E05D8
:104D40000E94AA8B81E00E94428D6B017C0180E071
:104D50000E94428D60933104709332048093330437
:104D600090933404C0923504D0923604E092370414
:104D7000F092380482E00E94428D6093390470936F
:104D80003A0480933B0490933C04009131041091C9
:104D90003204209133043091340409831A832B8325
:104DA0003C830091350410913604209137043091F2
:104DB00038040D831E832F83388769877A878B8712
:104DC0009C8780915D0290915E02A0915F02B091FC
:104DD00060028D879E87AF87B88BCE0101960E94B7
:104DE000448E80E1FE013196A1E5B2E001900D9282
:104DF0008A95E1F70E94E09F60960FB6F894DEBFB7
:104E00000FBECDBFDF91CF911F910F91FF90EF901B
:104E1000DF90CF90089580913004811107C00E94E7
:104E200047B0882319F081E08093300408952F92D1
:104E30003F924F925F926F927F928F929F92AF922A
:104E4000BF92CF92DF92EF92FF920F931F93CF9377
:104E5000DF93CDB7DEB72C970FB6F894DEBF0FBE49
:104E6000CDBF9C878B878B011A013E832D83D9018F
:104E70008D919D910D90BC91A02D89839A83AB83D8
:104E8000BC83FA01C080D180E280F380DB018D9089
:104E90009D90AD90BC90EB85FC8524813581468149
:104EA0005781C501B4010E9492F12B013C01AB85F1
:104EB000BC8550962D913D914D915C915397C701C2
:104EC000B6010E9492F19B01AC01C301B2010E94A4
:104ED00093F72B013C01EB85FC85248D358D468DA8
:104EE000578D69817A818B819C810E9492F19B010F
:104EF000AC01C301B2010E9493F76F837887898761
:104F00009A87AB85BC8518962D913D914D915C910A
:104F10001B97C501B4010E9492F12B013C01EB8566
:104F2000FC852489358946895789C701B6010E94C5
:104F300092F19B01AC01C301B2010E9493F72B01D6
:104F40003C01AB85BC8590962D913D914D915C9136
:104F5000939769817A818B819C810E9492F19B0158
:104F6000AC01C301B2010E9493F72B013C01EB8518
:104F7000FC852081318142815381C501B4010E94A9
:104F800092F14B015C01AB85BC851C962D913D9146
:104F90004D915C911F97C701B6010E9492F19B0150
:104FA000AC01C501B4010E9493F76B017C01EB8554
:104FB000FC85208D318D428D538D69817A818B8165
:104FC0009C810E9492F19B01AC01C701B6010E9435
:104FD00093F7D8016D937D938D939C9313978F8155
:104FE0009885A985BA85F10180839183A283B383D3
:104FF000AD81BE814D925D926D927C9213972C96FD
:105000000FB6F894DEBF0FBECDBFDF91CF911F91D9
:105010000F91FF90EF90DF90CF90BF90AF909F9057
:105020008F907F906F905F904F903F902F9008955A
:105030000F931F9380913D04813019F50E94D4771E
:10504000009128041091290420912A0430912B0406
:10505000601B710B820B930B28EE33E040E050E0B5
:105060000E9457F7609124047091250480912604D2
:1050700090912704620F731F841F951F1F910F913A
:10508000089560912C0470912D0480912E049091CC
:105090002F04D6CF10923D041092280410922904B8
:1050A00010922A0410922B0410922C0410922D04BA
:1050B00010922E0410922F041092240410922504B2
:1050C0001092260410922704089580913D048130A7
:1050D000E1F08230C1F4ACDF6093240470932504C6
:1050E000809326049093270481E080933D040E94DE
:1050F000D477609328047093290480932A049093B2
:105100002B0481E00895C6DFEFCF80E00895809101
:105110003D04813079F482E080933D040E94D4778D
:1051200060932C0470932D0480932E0490932F048D
:1051300081E0089580E0089580913D04815082309F
:1051400070F410923D040E94D47760932C04709305
:105150002D0480932E0490932F0481E0089580E025
:1051600008958F929F92AF92BF92CF92DF92EF926B
:10517000FF920F931F93CF93DF93CDB7DEB7609766
:105180000FB6F894DEBF0FBECDBF8B0140E050E0FC
:1051900068EC72E449875A876B877C8740E050E06F
:1051A00060EA70E44D875E876F87788B813009F104
:1051B000823009F449C08090590290905A02A09020
:1051C0005B02B0905C02F801C084D184E284F38475
:1051D0009601A701B401C5010E942DF187FD02C00F
:1051E00064017501C601D70189839A83AB83BC83AF
:1051F0004EC0BE01635F7F4FC80108960E94C29FE8
:1052000088E0F801DE01119601900D928A95E1F790
:10521000BE01675F7F4FCE0101960E94A29F0E9450
:1052200087A760960FB6F894DEBF0FBECDBFDF91A3
:10523000CF911F910F91FF90EF90DF90CF90BF9093
:10524000AF909F908F900895F80120853185428519
:1052500053856091590270915A0280915B0290913E
:105260005C020E9493F76B017C0120E030E040EF8C
:1052700052E40E942DF187FD06C0C12CD12C80EF95
:10528000E82E82E4F82EC982DA82EB82FC82BE012B
:10529000635F7F4FCE010196B1CF0F931F93CF93E2
:1052A000DF938C01EB0190910A1420910B1492135F
:1052B00004C082D90E94BE87F6CF8091091434E0E1
:1052C000839FF0011124E45FFB4E11830083D3839D
:1052D000C2839F5F90930A148F5F281739F08093E1
:1052E0000914DF91CF911F910F9108951092091425
:1052F000F8CF63E972E084E690E0CFDF6AEB72E01A
:1053000084E690E0CACF8111F4CF68EB71E084E1CC
:1053100090E0C3CF0E94E5A1F6CF0E9447B0F3CF43
:10532000CF930E94D7A00E94E5A1C82F882319F02F
:1053300080E00E943CA88C2FCF91E5CFCF92DF92E6
:10534000EF92FF920F931F93CF93909103029130AE
:1053500009F460C0662351F0109274031092700338
:10536000109271031092720310927303C82F0E945F
:10537000D477C0907003D0907103E0907203F090E6
:1053800073039B01AC012C193D094E095F096901AA
:105390007A01F7FC3FC020917403C7FD15C04C2F64
:1053A0000C2E000C550B4C5F5F4FE22F022E000CB1
:1053B000FF0B4E175F0774F144EFC42EDD24D39426
:1053C000E12CF12C2C1734F438EEC32E33E0D32E1D
:1053D000E12CF12CC60ED71EE81EF91EC0927003F8
:1053E000D0927103E0927203F0927303022F017066
:1053F00010E084E2809FB001819F700D701B11242A
:1054000060597C4F82E390E048DF809174038F5FA6
:1054100080937403CF911F910F91FF90EF90DF90D5
:10542000CF900895382F10926908809103089091C9
:105430000408A0910508B0910608B7FF08C01092B3
:105440000308109204081092050810920608209193
:1054500003082093FA07109213088091F507181695
:10546000ECF4082E000C990B831B9109022E000C02
:10547000330B2817390794F097FF02C090E080E0C3
:105480008093FA07092E000CAA0BBB0B809303082C
:1054900090930408A0930508B09306088091FA073A
:1054A0006623A9F09091FB07891714F48093FB07FA
:1054B0002091FB07022E000C330B2D5F3F4F482F2E
:1054C000082E000C550B241735071CF483508093CD
:1054D000FB070895E091FC03E63010F581E08E0FA4
:1054E0008093FC03409103085091040860910508E3
:1054F000709106089091FB078091F50728E0E29FE4
:10550000F0011124E453FC4F2091341430913514F0
:105510003183208342835383648375839683878397
:10552000089561E57DE080E014DA69E47DE081E0E2
:1055300010DA61E47DE082E00CDA69E37DE086E088
:1055400008DA61E37DE087E004DA69E27DE083E088
:1055500000DA61E27DE084E0FCD969E17DE085E08C
:10556000F8C9CF93823061F4C4E0C15058F088E0AC
:10557000C89FB00111246E51734F8C2FEAD9F5CF1B
:10558000CF91CFCFCF9108950F931F93CF93DF93F8
:10559000522F20913414309135142817390761F1B6
:1055A00090933514809334148B0130E020E0009305
:1055B00003081093040820930508309306084093CD
:1055C000FB075093F50720E58130920721F41092F4
:1055D00017041092FC03EC010E9441B181E0C1501C
:1055E000D04509F080E0BDDF82E080934A0281E08F
:1055F000809313081092FF07DF91CF911F910F91B5
:105600000895CF93DF93EC0165DF20E040E070E088
:1056100060E0CE01DF91CF91B7CF21E02093170456
:10562000609318047093190480931A0490931B04D8
:1056300020E040E070E060E08091FC079091FD0781
:10564000A3CF6DEC7CEC8CEC9CE3E7CF6DEC7CECB9
:105650008CEC9DE3E2CF60E070E080E89FE3DDCF7B
:1056600060E070E080E291E4D8CF81E0809317049D
:105670001092D60820E040E070E060E083E198E31B
:1056800083DF80ED93E19093BB058093BA05089585
:1056900020E040E070E060E087E09BE375DF81E0C0
:1056A00080930C0482E29FE09093BB058093BA053F
:1056B000089520E040E070E060E081E090E564CF94
:1056C0000E945287F6CF6111609303024093100449
:1056D000EFEFE80FEB3008F035C00E2E000CFF0B9B
:1056E0008827EA58F44D8F4F0C94AFFAA32BA62BC2
:1056F000812B8B2B8E2B912B9D2B942BA22B972BBD
:105700009A2B85EE97E321E02093170420E040E0F8
:1057100070E060E039CF8BEE97E3F5CF8EEE97E344
:10572000F2CF81EF97E3EFCF84EF97E3ECCF87EFF2
:1057300097E3E9CF8AEF97E3E6CF10920F0483EE69
:1057400095E3E1CFB6CF82EE97E3DDCF88EE97E326
:10575000DACFE091FC03EE2381F0E150E093FC030B
:1057600088E0E89FF0011124E453FC4F62817381CB
:10577000278146818081918107CF9BCF64E084E1BE
:105780000E9448B181E020913414309135142150A9
:10579000304509F080E0E5DE0C9441B1AF92BF9254
:1057A000CF92DF92EF92FF920F931F93CF93DF93ED
:1057B00000D01F92CDB7DEB76C015B017A0110E01B
:1057C00000E00E151F05E0F419821A821B821C826C
:1057D000AE014F5F5F4FB501C6010E94C7206C014B
:1057E00069817A818B819C816115710581059105A3
:1057F00039F0A701401B510BEBD8080F191FE1CF5F
:10580000C8010F900F900F900F90DF91CF911F91D3
:105810000F91FF90EF90DF90CF90BF90AF900895E1
:105820004FEF5FEF61EC70E2B9CF4FEF5FEF64ECE9
:1058300070E2B4CF643008F063E090912F146917E0
:1058400010F06FEF690FE62FF0E0E45EFB4E9489F5
:10585000890F80680C943BB1CF93DF93EA01EADFB4
:10586000CE01DF91CF91E1CFFC01A081B1811C92EB
:10587000A281B3818C918F5F8C930280F381E02DA4
:10588000608180E0D7CF0F931F93CF93DF938C017C
:105890006F3F19F410920A1260E020910A12862FCD
:1058A000062E000C990B2817190609F004F56093D1
:1058B0000A12C8010E947CF0800F911FEC01C01BEE
:1058C000D10BC135D1053CF00197FC012491207C1E
:1058D0002038D1F3F3CFDD27AE01B80189EB91E198
:1058E0000E949DF0C754DE4E18821092B811DF91CD
:1058F000CF911F910F91089510929C081092490228
:105900008091FE1380648093FE1316DC60E08EE2CB
:1059100096E0B9DFCECECF93DF93CDB7DEB78E81E1
:1059200090910A12891778F080930A129E01275FDE
:105930003F4F4F81588560E570E089EB91E10E940F
:10594000F5F01092B811DF91CF9108950F931F9346
:105950000E94D4770091C8031091C9032091CA0313
:105960003091CB03601B710B820B930B97FD0CC026
:1059700086B186FB882780F991E08927349B826075
:10598000329B84608093C7038091C703817090919C
:10599000C70391FD82609091C603981749F081304A
:1059A00009F148F0823079F0833091F08093C6039A
:1059B0001F910F910895913079F09230B9F790913D
:1059C000C5039F5F0CC0992339F09330C1F3EECF2C
:1059D0009130A9F3923051F79091C5039150909373
:1059E000C503E4CF992359F3933001F7F5CFC6DE11
:1059F0003E98469A3C98449A3A98429AEAE0F1E0F6
:105A000080818E7F808380910B018095817080934F
:105A1000090182E08093C30399DF1092C5030895C2
:105A20004FEF5FEF0C94E824CF92DF92EF92FF925A
:105A300069017A01FFDEC701B601FF90EF90DF90A8
:105A4000CF90EECF4F925F926F927F928F929F9204
:105A5000BF92CF92DF92EF92FF920F931F93CF935B
:105A6000DF9300D000D01F921F92CDB7DEB77C012C
:105A70003B016A014901FB016081FC018081DADEA2
:105A8000C114D10461F1FA82E9827C826B82011136
:105A90001FC0AE014B5F5F4FB401C6010E94C7201B
:105AA0006C016D817E818F819885611571058105FD
:105AB0009105A9F0B5DFF70180818F5F8083843184
:105AC00040F3CE010196D0DEE4CFB12C860129C08F
:105AD0008601B12C26C0452846284728B1F72896CC
